{"abi":[{"inputs":[],"stateMutability":"nonpayable","type":"constructor"},{"anonymous":false,"inputs":[{"indexed":true,"internalType":"address","name":"account","type":"address"},{"indexed":true,"internalType":"address","name":"operator","type":"address"},{"indexed":false,"internalType":"bool","name":"approved","type":"bool"}],"name":"ApprovalForAll","type":"event"},{"anonymous":false,"inputs":[{"indexed":true,"internalType":"address","name":"previousOwner","type":"address"},{"indexed":true,"internalType":"address","name":"newOwner","type":"address"}],"name":"OwnershipTransferred","type":"event"},{"anonymous":false,"inputs":[{"indexed":true,"internalType":"address","name":"operator","type":"address"},{"indexed":true,"internalType":"address","name":"from","type":"address"},{"indexed":true,"internalType":"address","name":"to","type":"address"},{"indexed":false,"internalType":"uint256[]","name":"ids","type":"uint256[]"},{"indexed":false,"internalType":"uint256[]","name":"values","type":"uint256[]"}],"name":"TransferBatch","type":"event"},{"anonymous":false,"inputs":[{"indexed":true,"internalType":"address","name":"operator","type":"address"},{"indexed":true,"internalType":"address","name":"from","type":"address"},{"indexed":true,"internalType":"address","name":"to","type":"address"},{"indexed":false,"internalType":"uint256","name":"id","type":"uint256"},{"indexed":false,"internalType":"uint256","name":"value","type":"uint256"}],"name":"TransferSingle","type":"event"},{"anonymous":false,"inputs":[{"indexed":false,"internalType":"string","name":"value","type":"string"},{"indexed":true,"internalType":"uint256","name":"id","type":"uint256"}],"name":"URI","type":"event"},{"inputs":[],"name":"Token_Id","outputs":[{"internalType":"uint256","name":"","type":"uint256"}],"stateMutability":"view","type":"function"},{"inputs":[{"internalType":"address","name":"","type":"address"}],"name":"_number_of_owned_nfts","outputs":[{"internalType":"uint256","name":"","type":"uint256"}],"stateMutability":"view","type":"function"},{"inputs":[{"internalType":"uint256","name":"","type":"uint256"}],"name":"_owners","outputs":[{"internalType":"address","name":"","type":"address"}],"stateMutability":"view","type":"function"},{"inputs":[{"internalType":"uint256","name":"","type":"uint256"}],"name":"_tokens","outputs":[{"internalType":"string","name":"","type":"string"}],"stateMutability":"view","type":"function"},{"inputs":[],"name":"address_of_nft_contract","outputs":[{"internalType":"address","name":"","type":"address"}],"stateMutability":"view","type":"function"},{"inputs":[],"name":"admin","outputs":[{"internalType":"address","name":"","type":"address"}],"stateMutability":"view","type":"function"},{"inputs":[{"internalType":"address","name":"account","type":"address"},{"internalType":"uint256","name":"id","type":"uint256"}],"name":"balanceOf","outputs":[{"internalType":"uint256","name":"","type":"uint256"}],"stateMutability":"view","type":"function"},{"inputs":[{"internalType":"address[]","name":"accounts","type":"address[]"},{"internalType":"uint256[]","name":"ids","type":"uint256[]"}],"name":"balanceOfBatch","outputs":[{"internalType":"uint256[]","name":"","type":"uint256[]"}],"stateMutability":"view","type":"function"},{"inputs":[{"internalType":"address","name":"account","type":"address"},{"internalType":"uint256","name":"id","type":"uint256"}],"name":"burn","outputs":[],"stateMutability":"nonpayable","type":"function"},{"inputs":[],"name":"contractURI","outputs":[{"internalType":"string","name":"","type":"string"}],"stateMutability":"view","type":"function"},{"inputs":[{"internalType":"address","name":"account","type":"address"},{"internalType":"address","name":"operator","type":"address"}],"name":"isApprovedForAll","outputs":[{"internalType":"bool","name":"","type":"bool"}],"stateMutability":"view","type":"function"},{"inputs":[],"name":"marketplace","outputs":[{"internalType":"address","name":"","type":"address"}],"stateMutability":"view","type":"function"},{"inputs":[{"internalType":"string","name":"newuri","type":"string"}],"name":"mint","outputs":[],"stateMutability":"nonpayable","type":"function"},{"inputs":[],"name":"owner","outputs":[{"internalType":"address","name":"","type":"address"}],"stateMutability":"view","type":"function"},{"inputs":[],"name":"renounceOwnership","outputs":[],"stateMutability":"nonpayable","type":"function"},{"inputs":[{"internalType":"address","name":"from","type":"address"},{"internalType":"address","name":"to","type":"address"},{"internalType":"uint256[]","name":"ids","type":"uint256[]"},{"internalType":"uint256[]","name":"amounts","type":"uint256[]"},{"internalType":"bytes","name":"data","type":"bytes"}],"name":"safeBatchTransferFrom","outputs":[],"stateMutability":"nonpayable","type":"function"},{"inputs":[{"internalType":"address","name":"from","type":"address"},{"internalType":"address","name":"to","type":"address"},{"internalType":"uint256","name":"id","type":"uint256"},{"internalType":"uint256","name":"amount","type":"uint256"},{"internalType":"bytes","name":"data","type":"bytes"}],"name":"safeTransferFrom","outputs":[],"stateMutability":"nonpayable","type":"function"},{"inputs":[{"internalType":"address","name":"operator","type":"address"},{"internalType":"bool","name":"approved","type":"bool"}],"name":"setApprovalForAll","outputs":[],"stateMutability":"nonpayable","type":"function"},{"inputs":[{"internalType":"address","name":"NFT_address","type":"address"}],"name":"set_NFT_contract","outputs":[],"stateMutability":"nonpayable","type":"function"},{"inputs":[{"internalType":"bytes4","name":"interfaceId","type":"bytes4"}],"name":"supportsInterface","outputs":[{"internalType":"bool","name":"","type":"bool"}],"stateMutability":"view","type":"function"},{"inputs":[{"internalType":"address","name":"newOwner","type":"address"}],"name":"transferOwnership","outputs":[],"stateMutability":"nonpayable","type":"function"},{"inputs":[{"internalType":"uint256","name":"","type":"uint256"}],"name":"uri","outputs":[{"internalType":"string","name":"","type":"string"}],"stateMutability":"view","type":"function"}],"devdoc":{"kind":"dev","methods":{"balanceOf(address,uint256)":{"details":"See {IERC1155-balanceOf}. Requirements: - `account` cannot be the zero address."},"balanceOfBatch(address[],uint256[])":{"details":"See {IERC1155-balanceOfBatch}. Requirements: - `accounts` and `ids` must have the same length."},"isApprovedForAll(address,address)":{"details":"See {IERC1155-isApprovedForAll}."},"owner()":{"details":"Returns the address of the current owner."},"renounceOwnership()":{"details":"Leaves the contract without owner. It will not be possible to call `onlyOwner` functions anymore. Can only be called by the current owner. NOTE: Renouncing ownership will leave the contract without an owner, thereby removing any functionality that is only available to the owner."},"safeBatchTransferFrom(address,address,uint256[],uint256[],bytes)":{"details":"See {IERC1155-safeBatchTransferFrom}."},"safeTransferFrom(address,address,uint256,uint256,bytes)":{"details":"See {IERC1155-safeTransferFrom}."},"setApprovalForAll(address,bool)":{"details":"See {IERC1155-setApprovalForAll}."},"supportsInterface(bytes4)":{"details":"See {IERC165-supportsInterface}."},"transferOwnership(address)":{"details":"Transfers ownership of the contract to a new account (`newOwner`). Can only be called by the current owner."},"uri(uint256)":{"details":"See {IERC1155MetadataURI-uri}. This implementation returns the same URI for *all* token types. It relies on the token type ID substitution mechanism https://eips.ethereum.org/EIPS/eip-1155#metadata[defined in the EIP]. Clients calling this function must replace the `\\{id\\}` substring with the actual token type ID."}},"version":1},"evm":{"assembly":"    /* \"High_Nft.sol\":34619:36220  contract High_NFT is ERC1155, Ownable {... */\n  mstore(0x40, 0x80)\n    /* \"High_Nft.sol\":34691:34692  0 */\n  0x00\n    /* \"High_Nft.sol\":34665:34692  uint256 public Token_Id = 0 */\n  0x04\n  sstore\n    /* \"High_Nft.sol\":34918:34922  this */\n  address\n    /* \"High_Nft.sol\":34869:34923  address public address_of_nft_contract = address(this) */\n  0x09\n  exp(0x0100, 0x00)\n  dup2\n  sload\n  dup2\n  0xffffffffffffffffffffffffffffffffffffffff\n  mul\n  not\n  and\n  swap1\n  dup4\n  0xffffffffffffffffffffffffffffffffffffffff\n  and\n  mul\n  or\n  swap1\n  sstore\n  pop\n    /* \"High_Nft.sol\":34955:35065  string public contractURI = \"https://gateway.pinata.cloud/ipfs/QmaJzRMGxW1YaGDaNzjHtntNaCnknisbBo1pLQ3oYHMqCs\" */\n  mload(0x40)\n  dup1\n  0x80\n  add\n  0x40\n  mstore\n  dup1\n  0x50\n  dup2\n  mstore\n  0x20\n  add\n  data_c74afb0ec6aabb9c48457dd502f9d6c1ce2b92e35805ef24259379f1b78256b4\n  0x50\n  swap2\n  codecopy\n  0x0b\n  swap1\n  dup1\n  mload\n  swap1\n  0x20\n  add\n  swap1\n  tag_1\n  swap3\n  swap2\n  swap1\n  tag_2\n  jump\t// in\ntag_1:\n  pop\n    /* \"High_Nft.sol\":35217:35557  constructor() ERC1155(\"https://gateway.pinata.cloud/ipfs/QmaJGjGtmZpbbXJShmehQPfAVwRppVZiznbaSW9TkhFYBZ\") {... */\n  callvalue\n  dup1\n  iszero\n  tag_3\n  jumpi\n  0x00\n  dup1\n  revert\ntag_3:\n  pop\n    /* \"High_Nft.sol\":20433:20495  constructor(string memory uri_) {... */\n  mload(0x40)\n  dup1\n  0x80\n  add\n  0x40\n  mstore\n  dup1\n  0x50\n  dup2\n  mstore\n  0x20\n  add\n  data_aa563fd6afa28e152df341e0e5c1cbfce51a273b8098c9327e3d0094190a55ab\n  0x50\n  swap2\n  codecopy\n    /* \"High_Nft.sol\":20475:20488  _setURI(uri_) */\n  tag_8\n    /* \"High_Nft.sol\":20483:20487  uri_ */\n  dup2\n    /* \"High_Nft.sol\":20475:20482  _setURI */\n  shl(0x20, tag_9)\n    /* \"High_Nft.sol\":20475:20488  _setURI(uri_) */\n  0x20\n  shr\n  jump\t// in\ntag_8:\n    /* \"High_Nft.sol\":20433:20495  constructor(string memory uri_) {... */\n  pop\n    /* \"High_Nft.sol\":18243:18266  _setOwner(_msgSender()) */\n  tag_11\n    /* \"High_Nft.sol\":18253:18265  _msgSender() */\n  tag_12\n    /* \"High_Nft.sol\":18253:18263  _msgSender */\n  shl(0x20, tag_13)\n    /* \"High_Nft.sol\":18253:18265  _msgSender() */\n  0x20\n  shr\n  jump\t// in\ntag_12:\n    /* \"High_Nft.sol\":18243:18252  _setOwner */\n  shl(0x20, tag_14)\n    /* \"High_Nft.sol\":18243:18266  _setOwner(_msgSender()) */\n  0x20\n  shr\n  jump\t// in\ntag_11:\n    /* \"High_Nft.sol\":35350:35360  msg.sender */\n  caller\n    /* \"High_Nft.sol\":35342:35347  admin */\n  0x05\n  0x00\n    /* \"High_Nft.sol\":35342:35360  admin = msg.sender */\n  0x0100\n  exp\n  dup2\n  sload\n  dup2\n  0xffffffffffffffffffffffffffffffffffffffff\n  mul\n  not\n  and\n  swap1\n  dup4\n  0xffffffffffffffffffffffffffffffffffffffff\n  and\n  mul\n  or\n  swap1\n  sstore\n  pop\n    /* \"High_Nft.sol\":35370:35404  _mint(msg.sender, Token_Id, 1, \"\") */\n  tag_16\n    /* \"High_Nft.sol\":35376:35386  msg.sender */\n  caller\n    /* \"High_Nft.sol\":35388:35396  Token_Id */\n  sload(0x04)\n    /* \"High_Nft.sol\":35398:35399  1 */\n  0x01\n    /* \"High_Nft.sol\":35370:35404  _mint(msg.sender, Token_Id, 1, \"\") */\n  mload(0x40)\n  dup1\n  0x20\n  add\n  0x40\n  mstore\n  dup1\n  0x00\n  dup2\n  mstore\n  pop\n    /* \"High_Nft.sol\":35370:35375  _mint */\n  shl(0x20, tag_17)\n    /* \"High_Nft.sol\":35370:35404  _mint(msg.sender, Token_Id, 1, \"\") */\n  0x20\n  shr\n  jump\t// in\ntag_16:\n    /* \"High_Nft.sol\":35414:35516  _tokens[Token_Id] = \"https://gateway.pinata.cloud/ipfs/QmaJGjGtmZpbbXJShmehQPfAVwRppVZiznbaSW9TkhFYBZ\" */\n  mload(0x40)\n  dup1\n  0x80\n  add\n  0x40\n  mstore\n  dup1\n  0x50\n  dup2\n  mstore\n  0x20\n  add\n  data_aa563fd6afa28e152df341e0e5c1cbfce51a273b8098c9327e3d0094190a55ab\n  0x50\n  swap2\n  codecopy\n    /* \"High_Nft.sol\":35414:35421  _tokens */\n  0x06\n    /* \"High_Nft.sol\":35414:35431  _tokens[Token_Id] */\n  0x00\n    /* \"High_Nft.sol\":35422:35430  Token_Id */\n  sload(0x04)\n    /* \"High_Nft.sol\":35414:35431  _tokens[Token_Id] */\n  dup2\n  mstore\n  0x20\n  add\n  swap1\n  dup2\n  mstore\n  0x20\n  add\n  0x00\n  keccak256\n    /* \"High_Nft.sol\":35414:35516  _tokens[Token_Id] = \"https://gateway.pinata.cloud/ipfs/QmaJGjGtmZpbbXJShmehQPfAVwRppVZiznbaSW9TkhFYBZ\" */\n  swap1\n  dup1\n  mload\n  swap1\n  0x20\n  add\n  swap1\n  tag_18\n  swap3\n  swap2\n  swap1\n  tag_2\n  jump\t// in\ntag_18:\n  pop\n    /* \"High_Nft.sol\":35538:35539  1 */\n  0x01\n    /* \"High_Nft.sol\":35526:35534  Token_Id */\n  0x04\n  0x00\n    /* \"High_Nft.sol\":35526:35539  Token_Id += 1 */\n  dup3\n  dup3\n  sload\n  tag_19\n  swap2\n  swap1\n  tag_20\n  jump\t// in\ntag_19:\n  swap3\n  pop\n  pop\n  dup2\n  swap1\n  sstore\n  pop\n    /* \"High_Nft.sol\":34619:36220  contract High_NFT is ERC1155, Ownable {... */\n  jump(tag_21)\n    /* \"High_Nft.sol\":27277:27363  function _setURI(string memory newuri) internal virtual {... */\ntag_9:\n    /* \"High_Nft.sol\":27350:27356  newuri */\n  dup1\n    /* \"High_Nft.sol\":27343:27347  _uri */\n  0x02\n    /* \"High_Nft.sol\":27343:27356  _uri = newuri */\n  swap1\n  dup1\n  mload\n  swap1\n  0x20\n  add\n  swap1\n  tag_23\n  swap3\n  swap2\n  swap1\n  tag_2\n  jump\t// in\ntag_23:\n  pop\n    /* \"High_Nft.sol\":27277:27363  function _setURI(string memory newuri) internal virtual {... */\n  pop\n  jump\t// out\n    /* \"High_Nft.sol\":587:683  function _msgSender() internal view virtual returns (address) {... */\ntag_13:\n    /* \"High_Nft.sol\":640:647  address */\n  0x00\n    /* \"High_Nft.sol\":666:676  msg.sender */\n  caller\n    /* \"High_Nft.sol\":659:676  return msg.sender */\n  swap1\n  pop\n    /* \"High_Nft.sol\":587:683  function _msgSender() internal view virtual returns (address) {... */\n  swap1\n  jump\t// out\n    /* \"High_Nft.sol\":19417:19586  function _setOwner(address newOwner) private {... */\ntag_14:\n    /* \"High_Nft.sol\":19472:19488  address oldOwner */\n  0x00\n    /* \"High_Nft.sol\":19491:19497  _owner */\n  0x03\n  0x00\n  swap1\n  sload\n  swap1\n  0x0100\n  exp\n  swap1\n  div\n  0xffffffffffffffffffffffffffffffffffffffff\n  and\n    /* \"High_Nft.sol\":19472:19497  address oldOwner = _owner */\n  swap1\n  pop\n    /* \"High_Nft.sol\":19516:19524  newOwner */\n  dup2\n    /* \"High_Nft.sol\":19507:19513  _owner */\n  0x03\n  0x00\n    /* \"High_Nft.sol\":19507:19524  _owner = newOwner */\n  0x0100\n  exp\n  dup2\n  sload\n  dup2\n  0xffffffffffffffffffffffffffffffffffffffff\n  mul\n  not\n  and\n  swap1\n  dup4\n  0xffffffffffffffffffffffffffffffffffffffff\n  and\n  mul\n  or\n  swap1\n  sstore\n  pop\n    /* \"High_Nft.sol\":19570:19578  newOwner */\n  dup2\n    /* \"High_Nft.sol\":19539:19579  OwnershipTransferred(oldOwner, newOwner) */\n  0xffffffffffffffffffffffffffffffffffffffff\n  and\n    /* \"High_Nft.sol\":19560:19568  oldOwner */\n  dup2\n    /* \"High_Nft.sol\":19539:19579  OwnershipTransferred(oldOwner, newOwner) */\n  0xffffffffffffffffffffffffffffffffffffffff\n  and\n  0x8be0079c531659141344cd1fd0a4f28419497f9722a3daafe3b4186f6b6457e0\n  mload(0x40)\n  mload(0x40)\n  dup1\n  swap2\n  sub\n  swap1\n  log3\n    /* \"High_Nft.sol\":19462:19586  {... */\n  pop\n    /* \"High_Nft.sol\":19417:19586  function _setOwner(address newOwner) private {... */\n  pop\n  jump\t// out\n    /* \"High_Nft.sol\":27736:28289  function _mint(... */\ntag_17:\n    /* \"High_Nft.sol\":27897:27898  0 */\n  0x00\n    /* \"High_Nft.sol\":27883:27899  to != address(0) */\n  0xffffffffffffffffffffffffffffffffffffffff\n  and\n    /* \"High_Nft.sol\":27883:27885  to */\n  dup5\n    /* \"High_Nft.sol\":27883:27899  to != address(0) */\n  0xffffffffffffffffffffffffffffffffffffffff\n  and\n  eq\n  iszero\n    /* \"High_Nft.sol\":27875:27937  require(to != address(0), \"ERC1155: mint to the zero address\") */\n  tag_27\n  jumpi\n  mload(0x40)\n  0x08c379a000000000000000000000000000000000000000000000000000000000\n  dup2\n  mstore\n  0x04\n  add\n  tag_28\n  swap1\n  tag_29\n  jump\t// in\ntag_28:\n  mload(0x40)\n  dup1\n  swap2\n  sub\n  swap1\n  revert\ntag_27:\n    /* \"High_Nft.sol\":27948:27964  address operator */\n  0x00\n    /* \"High_Nft.sol\":27967:27979  _msgSender() */\n  tag_30\n    /* \"High_Nft.sol\":27967:27977  _msgSender */\n  shl(0x20, tag_13)\n    /* \"High_Nft.sol\":27967:27979  _msgSender() */\n  0x20\n  shr\n  jump\t// in\ntag_30:\n    /* \"High_Nft.sol\":27948:27979  address operator = _msgSender() */\n  swap1\n  pop\n    /* \"High_Nft.sol\":27990:28092  _beforeTokenTransfer(operator, address(0), to, _asSingletonArray(id), _asSingletonArray(amount), data) */\n  tag_31\n    /* \"High_Nft.sol\":28011:28019  operator */\n  dup2\n    /* \"High_Nft.sol\":28029:28030  0 */\n  0x00\n    /* \"High_Nft.sol\":28033:28035  to */\n  dup8\n    /* \"High_Nft.sol\":28037:28058  _asSingletonArray(id) */\n  tag_32\n    /* \"High_Nft.sol\":28055:28057  id */\n  dup9\n    /* \"High_Nft.sol\":28037:28054  _asSingletonArray */\n  shl(0x20, tag_33)\n    /* \"High_Nft.sol\":28037:28058  _asSingletonArray(id) */\n  0x20\n  shr\n  jump\t// in\ntag_32:\n    /* \"High_Nft.sol\":28060:28085  _asSingletonArray(amount) */\n  tag_34\n    /* \"High_Nft.sol\":28078:28084  amount */\n  dup9\n    /* \"High_Nft.sol\":28060:28077  _asSingletonArray */\n  shl(0x20, tag_33)\n    /* \"High_Nft.sol\":28060:28085  _asSingletonArray(amount) */\n  0x20\n  shr\n  jump\t// in\ntag_34:\n    /* \"High_Nft.sol\":28087:28091  data */\n  dup8\n    /* \"High_Nft.sol\":27990:28010  _beforeTokenTransfer */\n  shl(0x20, tag_35)\n    /* \"High_Nft.sol\":27990:28092  _beforeTokenTransfer(operator, address(0), to, _asSingletonArray(id), _asSingletonArray(amount), data) */\n  0x20\n  shr\n  jump\t// in\ntag_31:\n    /* \"High_Nft.sol\":28124:28130  amount */\n  dup3\n    /* \"High_Nft.sol\":28103:28112  _balances */\n  0x00\n    /* \"High_Nft.sol\":28103:28116  _balances[id] */\n  dup1\n    /* \"High_Nft.sol\":28113:28115  id */\n  dup7\n    /* \"High_Nft.sol\":28103:28116  _balances[id] */\n  dup2\n  mstore\n  0x20\n  add\n  swap1\n  dup2\n  mstore\n  0x20\n  add\n  0x00\n  keccak256\n    /* \"High_Nft.sol\":28103:28120  _balances[id][to] */\n  0x00\n    /* \"High_Nft.sol\":28117:28119  to */\n  dup8\n    /* \"High_Nft.sol\":28103:28120  _balances[id][to] */\n  0xffffffffffffffffffffffffffffffffffffffff\n  and\n  0xffffffffffffffffffffffffffffffffffffffff\n  and\n  dup2\n  mstore\n  0x20\n  add\n  swap1\n  dup2\n  mstore\n  0x20\n  add\n  0x00\n  keccak256\n  0x00\n    /* \"High_Nft.sol\":28103:28130  _balances[id][to] += amount */\n  dup3\n  dup3\n  sload\n  tag_36\n  swap2\n  swap1\n  tag_20\n  jump\t// in\ntag_36:\n  swap3\n  pop\n  pop\n  dup2\n  swap1\n  sstore\n  pop\n    /* \"High_Nft.sol\":28182:28184  to */\n  dup5\n    /* \"High_Nft.sol\":28145:28197  TransferSingle(operator, address(0), to, id, amount) */\n  0xffffffffffffffffffffffffffffffffffffffff\n  and\n    /* \"High_Nft.sol\":28178:28179  0 */\n  0x00\n    /* \"High_Nft.sol\":28145:28197  TransferSingle(operator, address(0), to, id, amount) */\n  0xffffffffffffffffffffffffffffffffffffffff\n  and\n    /* \"High_Nft.sol\":28160:28168  operator */\n  dup3\n    /* \"High_Nft.sol\":28145:28197  TransferSingle(operator, address(0), to, id, amount) */\n  0xffffffffffffffffffffffffffffffffffffffff\n  and\n  0xc3d58168c5ae7397731d063d5bbf3d657854427343f4c083240f7aacaa2d0f62\n    /* \"High_Nft.sol\":28186:28188  id */\n  dup8\n    /* \"High_Nft.sol\":28190:28196  amount */\n  dup8\n    /* \"High_Nft.sol\":28145:28197  TransferSingle(operator, address(0), to, id, amount) */\n  mload(0x40)\n  tag_37\n  swap3\n  swap2\n  swap1\n  tag_38\n  jump\t// in\ntag_37:\n  mload(0x40)\n  dup1\n  swap2\n  sub\n  swap1\n  log4\n    /* \"High_Nft.sol\":28208:28282  _doSafeTransferAcceptanceCheck(operator, address(0), to, id, amount, data) */\n  tag_39\n    /* \"High_Nft.sol\":28239:28247  operator */\n  dup2\n    /* \"High_Nft.sol\":28257:28258  0 */\n  0x00\n    /* \"High_Nft.sol\":28261:28263  to */\n  dup8\n    /* \"High_Nft.sol\":28265:28267  id */\n  dup8\n    /* \"High_Nft.sol\":28269:28275  amount */\n  dup8\n    /* \"High_Nft.sol\":28277:28281  data */\n  dup8\n    /* \"High_Nft.sol\":28208:28238  _doSafeTransferAcceptanceCheck */\n  shl(0x20, tag_40)\n    /* \"High_Nft.sol\":28208:28282  _doSafeTransferAcceptanceCheck(operator, address(0), to, id, amount, data) */\n  0x20\n  shr\n  jump\t// in\ntag_39:\n    /* \"High_Nft.sol\":27865:28289  {... */\n  pop\n    /* \"High_Nft.sol\":27736:28289  function _mint(... */\n  pop\n  pop\n  pop\n  pop\n  jump\t// out\n    /* \"High_Nft.sol\":34421:34614  function _asSingletonArray(uint256 element) private pure returns (uint256[] memory) {... */\ntag_33:\n    /* \"High_Nft.sol\":34487:34503  uint256[] memory */\n  0x60\n    /* \"High_Nft.sol\":34515:34537  uint256[] memory array */\n  0x00\n    /* \"High_Nft.sol\":34554:34555  1 */\n  0x01\n    /* \"High_Nft.sol\":34540:34556  new uint256[](1) */\n  0xffffffffffffffff\n  dup2\n  gt\n  iszero\n  tag_42\n  jumpi\n  tag_43\n  tag_44\n  jump\t// in\ntag_43:\ntag_42:\n  mload(0x40)\n  swap1\n  dup1\n  dup3\n  mstore\n  dup1\n  0x20\n  mul\n  0x20\n  add\n  dup3\n  add\n  0x40\n  mstore\n  dup1\n  iszero\n  tag_45\n  jumpi\n  dup2\n  0x20\n  add\n  0x20\n  dup3\n  mul\n  dup1\n  calldatasize\n  dup4\n  calldatacopy\n  dup1\n  dup3\n  add\n  swap2\n  pop\n  pop\n  swap1\n  pop\ntag_45:\n  pop\n    /* \"High_Nft.sol\":34515:34556  uint256[] memory array = new uint256[](1) */\n  swap1\n  pop\n    /* \"High_Nft.sol\":34577:34584  element */\n  dup3\n    /* \"High_Nft.sol\":34566:34571  array */\n  dup2\n    /* \"High_Nft.sol\":34572:34573  0 */\n  0x00\n    /* \"High_Nft.sol\":34566:34574  array[0] */\n  dup2\n  mload\n  dup2\n  lt\n  tag_46\n  jumpi\n  tag_47\n  tag_48\n  jump\t// in\ntag_47:\ntag_46:\n  0x20\n  mul\n  0x20\n  add\n  add\n    /* \"High_Nft.sol\":34566:34584  array[0] = element */\n  dup2\n  dup2\n  mstore\n  pop\n  pop\n    /* \"High_Nft.sol\":34602:34607  array */\n  dup1\n    /* \"High_Nft.sol\":34595:34607  return array */\n  swap2\n  pop\n  pop\n    /* \"High_Nft.sol\":34421:34614  function _asSingletonArray(uint256 element) private pure returns (uint256[] memory) {... */\n  swap2\n  swap1\n  pop\n  jump\t// out\n    /* \"High_Nft.sol\":32672:32886  function _beforeTokenTransfer(... */\ntag_35:\n  pop\n  pop\n  pop\n  pop\n  pop\n  pop\n  jump\t// out\n    /* \"High_Nft.sol\":32892:33617  function _doSafeTransferAcceptanceCheck(... */\ntag_40:\n    /* \"High_Nft.sol\":33099:33114  to.isContract() */\n  tag_51\n    /* \"High_Nft.sol\":33099:33101  to */\n  dup5\n    /* \"High_Nft.sol\":33099:33112  to.isContract */\n  0xffffffffffffffffffffffffffffffffffffffff\n  and\n  or(tag_0_116, shl(0x20, tag_52))\n    /* \"High_Nft.sol\":33099:33114  to.isContract() */\n  0x20\n  shr\n  jump\t// in\ntag_51:\n    /* \"High_Nft.sol\":33095:33611  if (to.isContract()) {... */\n  iszero\n  tag_53\n  jumpi\n    /* \"High_Nft.sol\":33151:33153  to */\n  dup4\n    /* \"High_Nft.sol\":33134:33172  IERC1155Receiver(to).onERC1155Received */\n  0xffffffffffffffffffffffffffffffffffffffff\n  and\n  0xf23a6e61\n    /* \"High_Nft.sol\":33173:33181  operator */\n  dup8\n    /* \"High_Nft.sol\":33183:33187  from */\n  dup8\n    /* \"High_Nft.sol\":33189:33191  id */\n  dup7\n    /* \"High_Nft.sol\":33193:33199  amount */\n  dup7\n    /* \"High_Nft.sol\":33201:33205  data */\n  dup7\n    /* \"High_Nft.sol\":33134:33206  IERC1155Receiver(to).onERC1155Received(operator, from, id, amount, data) */\n  mload(0x40)\n  dup7\n  0xffffffff\n  and\n  0xe0\n  shl\n  dup2\n  mstore\n  0x04\n  add\n  tag_54\n  swap6\n  swap5\n  swap4\n  swap3\n  swap2\n  swap1\n  tag_55\n  jump\t// in\ntag_54:\n  0x20\n  mload(0x40)\n  dup1\n  dup4\n  sub\n  dup2\n  0x00\n  dup8\n  gas\n  call\n  swap3\n  pop\n  pop\n  pop\n  dup1\n  iszero\n  tag_56\n  jumpi\n  pop\n  mload(0x40)\n  returndatasize\n  not(0x1f)\n  0x1f\n  dup3\n  add\n  and\n  dup3\n  add\n  dup1\n  0x40\n  mstore\n  pop\n  dup2\n  add\n  swap1\n  tag_57\n  swap2\n  swap1\n  tag_58\n  jump\t// in\ntag_57:\n  0x01\ntag_56:\n    /* \"High_Nft.sol\":33130:33601  try IERC1155Receiver(to).onERC1155Received(operator, from, id, amount, data) returns (bytes4 response) {... */\n  tag_59\n  jumpi\n  tag_63\n  tag_64\n  jump\t// in\ntag_63:\n  dup1\n  0x08c379a0\n  eq\n  iszero\n  tag_62\n  jumpi\n  pop\n  tag_65\n  tag_66\n  jump\t// in\ntag_65:\n  dup1\n  tag_67\n  jumpi\n  pop\n  jump(tag_61)\ntag_67:\n    /* \"High_Nft.sol\":33477:33483  reason */\n  dup1\n    /* \"High_Nft.sol\":33470:33484  revert(reason) */\n  mload(0x40)\n  0x08c379a000000000000000000000000000000000000000000000000000000000\n  dup2\n  mstore\n  0x04\n  add\n  tag_68\n  swap2\n  swap1\n  tag_69\n  jump\t// in\ntag_68:\n  mload(0x40)\n  dup1\n  swap2\n  sub\n  swap1\n  revert\n    /* \"High_Nft.sol\":33130:33601  try IERC1155Receiver(to).onERC1155Received(operator, from, id, amount, data) returns (bytes4 response) {... */\ntag_62:\n  pop\ntag_61:\n    /* \"High_Nft.sol\":33524:33586  revert(\"ERC1155: transfer to non ERC1155Receiver implementer\") */\n  mload(0x40)\n  0x08c379a000000000000000000000000000000000000000000000000000000000\n  dup2\n  mstore\n  0x04\n  add\n  tag_70\n  swap1\n  tag_71\n  jump\t// in\ntag_70:\n  mload(0x40)\n  dup1\n  swap2\n  sub\n  swap1\n  revert\n    /* \"High_Nft.sol\":33130:33601  try IERC1155Receiver(to).onERC1155Received(operator, from, id, amount, data) returns (bytes4 response) {... */\ntag_59:\n    /* \"High_Nft.sol\":33267:33310  IERC1155Receiver.onERC1155Received.selector */\n  shl(0xe0, 0xf23a6e61)\n    /* \"High_Nft.sol\":33255:33310  response != IERC1155Receiver.onERC1155Received.selector */\n  not(0xffffffffffffffffffffffffffffffffffffffffffffffffffffffff)\n  and\n    /* \"High_Nft.sol\":33255:33263  response */\n  dup2\n    /* \"High_Nft.sol\":33255:33310  response != IERC1155Receiver.onERC1155Received.selector */\n  not(0xffffffffffffffffffffffffffffffffffffffffffffffffffffffff)\n  and\n  eq\n    /* \"High_Nft.sol\":33251:33403  if (response != IERC1155Receiver.onERC1155Received.selector) {... */\n  tag_73\n  jumpi\n    /* \"High_Nft.sol\":33334:33384  revert(\"ERC1155: ERC1155Receiver rejected tokens\") */\n  mload(0x40)\n  0x08c379a000000000000000000000000000000000000000000000000000000000\n  dup2\n  mstore\n  0x04\n  add\n  tag_74\n  swap1\n  tag_75\n  jump\t// in\ntag_74:\n  mload(0x40)\n  dup1\n  swap2\n  sub\n  swap1\n  revert\n    /* \"High_Nft.sol\":33251:33403  if (response != IERC1155Receiver.onERC1155Received.selector) {... */\ntag_73:\n    /* \"High_Nft.sol\":33207:33417  returns (bytes4 response) {... */\n  pop\n    /* \"High_Nft.sol\":33095:33611  if (to.isContract()) {... */\ntag_53:\n    /* \"High_Nft.sol\":32892:33617  function _doSafeTransferAcceptanceCheck(... */\n  pop\n  pop\n  pop\n  pop\n  pop\n  pop\n  jump\t// out\n    /* \"High_Nft.sol\":9262:9639  function isContract(address account) internal view returns (bool) {... */\ntag_52:\n    /* \"High_Nft.sol\":9322:9326  bool */\n  0x00\n    /* \"High_Nft.sol\":9525:9537  uint256 size */\n  dup1\n    /* \"High_Nft.sol\":9590:9597  account */\n  dup3\n    /* \"High_Nft.sol\":9578:9598  extcodesize(account) */\n  extcodesize\n    /* \"High_Nft.sol\":9570:9598  size := extcodesize(account) */\n  swap1\n  pop\n    /* \"High_Nft.sol\":9631:9632  0 */\n  0x00\n    /* \"High_Nft.sol\":9624:9628  size */\n  dup2\n    /* \"High_Nft.sol\":9624:9632  size > 0 */\n  gt\n    /* \"High_Nft.sol\":9617:9632  return size > 0 */\n  swap2\n  pop\n  pop\n    /* \"High_Nft.sol\":9262:9639  function isContract(address account) internal view returns (bool) {... */\n  swap2\n  swap1\n  pop\n  jump\t// out\n    /* \"High_Nft.sol\":34619:36220  contract High_NFT is ERC1155, Ownable {... */\ntag_2:\n  dup3\n  dup1\n  sload\n  tag_77\n  swap1\n  tag_78\n  jump\t// in\ntag_77:\n  swap1\n  0x00\n  mstore\n  keccak256(0x00, 0x20)\n  swap1\n  0x1f\n  add\n  0x20\n  swap1\n  div\n  dup2\n  add\n  swap3\n  dup3\n  tag_80\n  jumpi\n  0x00\n  dup6\n  sstore\n  jump(tag_79)\ntag_80:\n  dup3\n  0x1f\n  lt\n  tag_81\n  jumpi\n  dup1\n  mload\n  not(0xff)\n  and\n  dup4\n  dup1\n  add\n  or\n  dup6\n  sstore\n  jump(tag_79)\ntag_81:\n  dup3\n  dup1\n  add\n  0x01\n  add\n  dup6\n  sstore\n  dup3\n  iszero\n  tag_79\n  jumpi\n  swap2\n  dup3\n  add\ntag_82:\n  dup3\n  dup2\n  gt\n  iszero\n  tag_83\n  jumpi\n  dup3\n  mload\n  dup3\n  sstore\n  swap2\n  0x20\n  add\n  swap2\n  swap1\n  0x01\n  add\n  swap1\n  jump(tag_82)\ntag_83:\ntag_79:\n  pop\n  swap1\n  pop\n  tag_84\n  swap2\n  swap1\n  tag_85\n  jump\t// in\ntag_84:\n  pop\n  swap1\n  jump\t// out\ntag_85:\ntag_86:\n  dup1\n  dup3\n  gt\n  iszero\n  tag_87\n  jumpi\n  0x00\n  dup2\n  0x00\n  swap1\n  sstore\n  pop\n  0x01\n  add\n  jump(tag_86)\ntag_87:\n  pop\n  swap1\n  jump\t// out\n    /* \"#utility.yul\":7:84   */\ntag_88:\n    /* \"#utility.yul\":44:51   */\n  0x00\n    /* \"#utility.yul\":73:78   */\n  dup2\n    /* \"#utility.yul\":62:78   */\n  swap1\n  pop\n    /* \"#utility.yul\":7:84   */\n  swap2\n  swap1\n  pop\n  jump\t// out\n    /* \"#utility.yul\":90:270   */\ntag_89:\n    /* \"#utility.yul\":138:215   */\n  0x4e487b7100000000000000000000000000000000000000000000000000000000\n    /* \"#utility.yul\":135:136   */\n  0x00\n    /* \"#utility.yul\":128:216   */\n  mstore\n    /* \"#utility.yul\":235:239   */\n  0x11\n    /* \"#utility.yul\":232:233   */\n  0x04\n    /* \"#utility.yul\":225:240   */\n  mstore\n    /* \"#utility.yul\":259:263   */\n  0x24\n    /* \"#utility.yul\":256:257   */\n  0x00\n    /* \"#utility.yul\":249:264   */\n  revert\n    /* \"#utility.yul\":276:581   */\ntag_20:\n    /* \"#utility.yul\":316:319   */\n  0x00\n    /* \"#utility.yul\":335:355   */\n  tag_121\n    /* \"#utility.yul\":353:354   */\n  dup3\n    /* \"#utility.yul\":335:355   */\n  tag_88\n  jump\t// in\ntag_121:\n    /* \"#utility.yul\":330:355   */\n  swap2\n  pop\n    /* \"#utility.yul\":369:389   */\n  tag_122\n    /* \"#utility.yul\":387:388   */\n  dup4\n    /* \"#utility.yul\":369:389   */\n  tag_88\n  jump\t// in\ntag_122:\n    /* \"#utility.yul\":364:389   */\n  swap3\n  pop\n    /* \"#utility.yul\":523:524   */\n  dup3\n    /* \"#utility.yul\":455:521   */\n  0xffffffffffffffffffffffffffffffffffffffffffffffffffffffffffffffff\n    /* \"#utility.yul\":451:525   */\n  sub\n    /* \"#utility.yul\":448:449   */\n  dup3\n    /* \"#utility.yul\":445:526   */\n  gt\n    /* \"#utility.yul\":442:549   */\n  iszero\n  tag_123\n  jumpi\n    /* \"#utility.yul\":529:547   */\n  tag_124\n  tag_89\n  jump\t// in\ntag_124:\n    /* \"#utility.yul\":442:549   */\ntag_123:\n    /* \"#utility.yul\":573:574   */\n  dup3\n    /* \"#utility.yul\":570:571   */\n  dup3\n    /* \"#utility.yul\":566:575   */\n  add\n    /* \"#utility.yul\":559:575   */\n  swap1\n  pop\n    /* \"#utility.yul\":276:581   */\n  swap3\n  swap2\n  pop\n  pop\n  jump\t// out\n    /* \"#utility.yul\":587:756   */\ntag_90:\n    /* \"#utility.yul\":671:682   */\n  0x00\n    /* \"#utility.yul\":705:711   */\n  dup3\n    /* \"#utility.yul\":700:703   */\n  dup3\n    /* \"#utility.yul\":693:712   */\n  mstore\n    /* \"#utility.yul\":745:749   */\n  0x20\n    /* \"#utility.yul\":740:743   */\n  dup3\n    /* \"#utility.yul\":736:750   */\n  add\n    /* \"#utility.yul\":721:750   */\n  swap1\n  pop\n    /* \"#utility.yul\":587:756   */\n  swap3\n  swap2\n  pop\n  pop\n  jump\t// out\n    /* \"#utility.yul\":762:982   */\ntag_91:\n    /* \"#utility.yul\":902:936   */\n  0x455243313135353a206d696e7420746f20746865207a65726f20616464726573\n    /* \"#utility.yul\":898:899   */\n  0x00\n    /* \"#utility.yul\":890:896   */\n  dup3\n    /* \"#utility.yul\":886:900   */\n  add\n    /* \"#utility.yul\":879:937   */\n  mstore\n    /* \"#utility.yul\":971:974   */\n  0x7300000000000000000000000000000000000000000000000000000000000000\n    /* \"#utility.yul\":966:968   */\n  0x20\n    /* \"#utility.yul\":958:964   */\n  dup3\n    /* \"#utility.yul\":954:969   */\n  add\n    /* \"#utility.yul\":947:975   */\n  mstore\n    /* \"#utility.yul\":762:982   */\n  pop\n  jump\t// out\n    /* \"#utility.yul\":988:1354   */\ntag_92:\n    /* \"#utility.yul\":1130:1133   */\n  0x00\n    /* \"#utility.yul\":1151:1218   */\n  tag_128\n    /* \"#utility.yul\":1215:1217   */\n  0x21\n    /* \"#utility.yul\":1210:1213   */\n  dup4\n    /* \"#utility.yul\":1151:1218   */\n  tag_90\n  jump\t// in\ntag_128:\n    /* \"#utility.yul\":1144:1218   */\n  swap2\n  pop\n    /* \"#utility.yul\":1227:1320   */\n  tag_129\n    /* \"#utility.yul\":1316:1319   */\n  dup3\n    /* \"#utility.yul\":1227:1320   */\n  tag_91\n  jump\t// in\ntag_129:\n    /* \"#utility.yul\":1345:1347   */\n  0x40\n    /* \"#utility.yul\":1340:1343   */\n  dup3\n    /* \"#utility.yul\":1336:1348   */\n  add\n    /* \"#utility.yul\":1329:1348   */\n  swap1\n  pop\n    /* \"#utility.yul\":988:1354   */\n  swap2\n  swap1\n  pop\n  jump\t// out\n    /* \"#utility.yul\":1360:1779   */\ntag_29:\n    /* \"#utility.yul\":1526:1530   */\n  0x00\n    /* \"#utility.yul\":1564:1566   */\n  0x20\n    /* \"#utility.yul\":1553:1562   */\n  dup3\n    /* \"#utility.yul\":1549:1567   */\n  add\n    /* \"#utility.yul\":1541:1567   */\n  swap1\n  pop\n    /* \"#utility.yul\":1613:1622   */\n  dup2\n    /* \"#utility.yul\":1607:1611   */\n  dup2\n    /* \"#utility.yul\":1603:1623   */\n  sub\n    /* \"#utility.yul\":1599:1600   */\n  0x00\n    /* \"#utility.yul\":1588:1597   */\n  dup4\n    /* \"#utility.yul\":1584:1601   */\n  add\n    /* \"#utility.yul\":1577:1624   */\n  mstore\n    /* \"#utility.yul\":1641:1772   */\n  tag_131\n    /* \"#utility.yul\":1767:1771   */\n  dup2\n    /* \"#utility.yul\":1641:1772   */\n  tag_92\n  jump\t// in\ntag_131:\n    /* \"#utility.yul\":1633:1772   */\n  swap1\n  pop\n    /* \"#utility.yul\":1360:1779   */\n  swap2\n  swap1\n  pop\n  jump\t// out\n    /* \"#utility.yul\":1785:1903   */\ntag_93:\n    /* \"#utility.yul\":1872:1896   */\n  tag_133\n    /* \"#utility.yul\":1890:1895   */\n  dup2\n    /* \"#utility.yul\":1872:1896   */\n  tag_88\n  jump\t// in\ntag_133:\n    /* \"#utility.yul\":1867:1870   */\n  dup3\n    /* \"#utility.yul\":1860:1897   */\n  mstore\n    /* \"#utility.yul\":1785:1903   */\n  pop\n  pop\n  jump\t// out\n    /* \"#utility.yul\":1909:2241   */\ntag_38:\n    /* \"#utility.yul\":2030:2034   */\n  0x00\n    /* \"#utility.yul\":2068:2070   */\n  0x40\n    /* \"#utility.yul\":2057:2066   */\n  dup3\n    /* \"#utility.yul\":2053:2071   */\n  add\n    /* \"#utility.yul\":2045:2071   */\n  swap1\n  pop\n    /* \"#utility.yul\":2081:2152   */\n  tag_135\n    /* \"#utility.yul\":2149:2150   */\n  0x00\n    /* \"#utility.yul\":2138:2147   */\n  dup4\n    /* \"#utility.yul\":2134:2151   */\n  add\n    /* \"#utility.yul\":2125:2131   */\n  dup6\n    /* \"#utility.yul\":2081:2152   */\n  tag_93\n  jump\t// in\ntag_135:\n    /* \"#utility.yul\":2162:2234   */\n  tag_136\n    /* \"#utility.yul\":2230:2232   */\n  0x20\n    /* \"#utility.yul\":2219:2228   */\n  dup4\n    /* \"#utility.yul\":2215:2233   */\n  add\n    /* \"#utility.yul\":2206:2212   */\n  dup5\n    /* \"#utility.yul\":2162:2234   */\n  tag_93\n  jump\t// in\ntag_136:\n    /* \"#utility.yul\":1909:2241   */\n  swap4\n  swap3\n  pop\n  pop\n  pop\n  jump\t// out\n    /* \"#utility.yul\":2247:2427   */\ntag_44:\n    /* \"#utility.yul\":2295:2372   */\n  0x4e487b7100000000000000000000000000000000000000000000000000000000\n    /* \"#utility.yul\":2292:2293   */\n  0x00\n    /* \"#utility.yul\":2285:2373   */\n  mstore\n    /* \"#utility.yul\":2392:2396   */\n  0x41\n    /* \"#utility.yul\":2389:2390   */\n  0x04\n    /* \"#utility.yul\":2382:2397   */\n  mstore\n    /* \"#utility.yul\":2416:2420   */\n  0x24\n    /* \"#utility.yul\":2413:2414   */\n  0x00\n    /* \"#utility.yul\":2406:2421   */\n  revert\n    /* \"#utility.yul\":2433:2613   */\ntag_48:\n    /* \"#utility.yul\":2481:2558   */\n  0x4e487b7100000000000000000000000000000000000000000000000000000000\n    /* \"#utility.yul\":2478:2479   */\n  0x00\n    /* \"#utility.yul\":2471:2559   */\n  mstore\n    /* \"#utility.yul\":2578:2582   */\n  0x32\n    /* \"#utility.yul\":2575:2576   */\n  0x04\n    /* \"#utility.yul\":2568:2583   */\n  mstore\n    /* \"#utility.yul\":2602:2606   */\n  0x24\n    /* \"#utility.yul\":2599:2600   */\n  0x00\n    /* \"#utility.yul\":2592:2607   */\n  revert\n    /* \"#utility.yul\":2619:2745   */\ntag_94:\n    /* \"#utility.yul\":2656:2663   */\n  0x00\n    /* \"#utility.yul\":2696:2738   */\n  0xffffffffffffffffffffffffffffffffffffffff\n    /* \"#utility.yul\":2689:2694   */\n  dup3\n    /* \"#utility.yul\":2685:2739   */\n  and\n    /* \"#utility.yul\":2674:2739   */\n  swap1\n  pop\n    /* \"#utility.yul\":2619:2745   */\n  swap2\n  swap1\n  pop\n  jump\t// out\n    /* \"#utility.yul\":2751:2847   */\ntag_95:\n    /* \"#utility.yul\":2788:2795   */\n  0x00\n    /* \"#utility.yul\":2817:2841   */\n  tag_141\n    /* \"#utility.yul\":2835:2840   */\n  dup3\n    /* \"#utility.yul\":2817:2841   */\n  tag_94\n  jump\t// in\ntag_141:\n    /* \"#utility.yul\":2806:2841   */\n  swap1\n  pop\n    /* \"#utility.yul\":2751:2847   */\n  swap2\n  swap1\n  pop\n  jump\t// out\n    /* \"#utility.yul\":2853:2971   */\ntag_96:\n    /* \"#utility.yul\":2940:2964   */\n  tag_143\n    /* \"#utility.yul\":2958:2963   */\n  dup2\n    /* \"#utility.yul\":2940:2964   */\n  tag_95\n  jump\t// in\ntag_143:\n    /* \"#utility.yul\":2935:2938   */\n  dup3\n    /* \"#utility.yul\":2928:2965   */\n  mstore\n    /* \"#utility.yul\":2853:2971   */\n  pop\n  pop\n  jump\t// out\n    /* \"#utility.yul\":2977:3075   */\ntag_97:\n    /* \"#utility.yul\":3028:3034   */\n  0x00\n    /* \"#utility.yul\":3062:3067   */\n  dup2\n    /* \"#utility.yul\":3056:3068   */\n  mload\n    /* \"#utility.yul\":3046:3068   */\n  swap1\n  pop\n    /* \"#utility.yul\":2977:3075   */\n  swap2\n  swap1\n  pop\n  jump\t// out\n    /* \"#utility.yul\":3081:3249   */\ntag_98:\n    /* \"#utility.yul\":3164:3175   */\n  0x00\n    /* \"#utility.yul\":3198:3204   */\n  dup3\n    /* \"#utility.yul\":3193:3196   */\n  dup3\n    /* \"#utility.yul\":3186:3205   */\n  mstore\n    /* \"#utility.yul\":3238:3242   */\n  0x20\n    /* \"#utility.yul\":3233:3236   */\n  dup3\n    /* \"#utility.yul\":3229:3243   */\n  add\n    /* \"#utility.yul\":3214:3243   */\n  swap1\n  pop\n    /* \"#utility.yul\":3081:3249   */\n  swap3\n  swap2\n  pop\n  pop\n  jump\t// out\n    /* \"#utility.yul\":3255:3562   */\ntag_99:\n    /* \"#utility.yul\":3323:3324   */\n  0x00\n    /* \"#utility.yul\":3333:3446   */\ntag_147:\n    /* \"#utility.yul\":3347:3353   */\n  dup4\n    /* \"#utility.yul\":3344:3345   */\n  dup2\n    /* \"#utility.yul\":3341:3354   */\n  lt\n    /* \"#utility.yul\":3333:3446   */\n  iszero\n  tag_149\n  jumpi\n    /* \"#utility.yul\":3432:3433   */\n  dup1\n    /* \"#utility.yul\":3427:3430   */\n  dup3\n    /* \"#utility.yul\":3423:3434   */\n  add\n    /* \"#utility.yul\":3417:3435   */\n  mload\n    /* \"#utility.yul\":3413:3414   */\n  dup2\n    /* \"#utility.yul\":3408:3411   */\n  dup5\n    /* \"#utility.yul\":3404:3415   */\n  add\n    /* \"#utility.yul\":3397:3436   */\n  mstore\n    /* \"#utility.yul\":3369:3371   */\n  0x20\n    /* \"#utility.yul\":3366:3367   */\n  dup2\n    /* \"#utility.yul\":3362:3372   */\n  add\n    /* \"#utility.yul\":3357:3372   */\n  swap1\n  pop\n    /* \"#utility.yul\":3333:3446   */\n  jump(tag_147)\ntag_149:\n    /* \"#utility.yul\":3464:3470   */\n  dup4\n    /* \"#utility.yul\":3461:3462   */\n  dup2\n    /* \"#utility.yul\":3458:3471   */\n  gt\n    /* \"#utility.yul\":3455:3556   */\n  iszero\n  tag_150\n  jumpi\n    /* \"#utility.yul\":3544:3545   */\n  0x00\n    /* \"#utility.yul\":3535:3541   */\n  dup5\n    /* \"#utility.yul\":3530:3533   */\n  dup5\n    /* \"#utility.yul\":3526:3542   */\n  add\n    /* \"#utility.yul\":3519:3546   */\n  mstore\n    /* \"#utility.yul\":3455:3556   */\ntag_150:\n    /* \"#utility.yul\":3304:3562   */\n  pop\n    /* \"#utility.yul\":3255:3562   */\n  pop\n  pop\n  pop\n  jump\t// out\n    /* \"#utility.yul\":3568:3670   */\ntag_100:\n    /* \"#utility.yul\":3609:3615   */\n  0x00\n    /* \"#utility.yul\":3660:3662   */\n  0x1f\n    /* \"#utility.yul\":3656:3663   */\n  not\n    /* \"#utility.yul\":3651:3653   */\n  0x1f\n    /* \"#utility.yul\":3644:3649   */\n  dup4\n    /* \"#utility.yul\":3640:3654   */\n  add\n    /* \"#utility.yul\":3636:3664   */\n  and\n    /* \"#utility.yul\":3626:3664   */\n  swap1\n  pop\n    /* \"#utility.yul\":3568:3670   */\n  swap2\n  swap1\n  pop\n  jump\t// out\n    /* \"#utility.yul\":3676:4036   */\ntag_101:\n    /* \"#utility.yul\":3762:3765   */\n  0x00\n    /* \"#utility.yul\":3790:3828   */\n  tag_153\n    /* \"#utility.yul\":3822:3827   */\n  dup3\n    /* \"#utility.yul\":3790:3828   */\n  tag_97\n  jump\t// in\ntag_153:\n    /* \"#utility.yul\":3844:3914   */\n  tag_154\n    /* \"#utility.yul\":3907:3913   */\n  dup2\n    /* \"#utility.yul\":3902:3905   */\n  dup6\n    /* \"#utility.yul\":3844:3914   */\n  tag_98\n  jump\t// in\ntag_154:\n    /* \"#utility.yul\":3837:3914   */\n  swap4\n  pop\n    /* \"#utility.yul\":3923:3975   */\n  tag_155\n    /* \"#utility.yul\":3968:3974   */\n  dup2\n    /* \"#utility.yul\":3963:3966   */\n  dup6\n    /* \"#utility.yul\":3956:3960   */\n  0x20\n    /* \"#utility.yul\":3949:3954   */\n  dup7\n    /* \"#utility.yul\":3945:3961   */\n  add\n    /* \"#utility.yul\":3923:3975   */\n  tag_99\n  jump\t// in\ntag_155:\n    /* \"#utility.yul\":4000:4029   */\n  tag_156\n    /* \"#utility.yul\":4022:4028   */\n  dup2\n    /* \"#utility.yul\":4000:4029   */\n  tag_100\n  jump\t// in\ntag_156:\n    /* \"#utility.yul\":3995:3998   */\n  dup5\n    /* \"#utility.yul\":3991:4030   */\n  add\n    /* \"#utility.yul\":3984:4030   */\n  swap2\n  pop\n    /* \"#utility.yul\":3766:4036   */\n  pop\n    /* \"#utility.yul\":3676:4036   */\n  swap3\n  swap2\n  pop\n  pop\n  jump\t// out\n    /* \"#utility.yul\":4042:4793   */\ntag_55:\n    /* \"#utility.yul\":4265:4269   */\n  0x00\n    /* \"#utility.yul\":4303:4306   */\n  0xa0\n    /* \"#utility.yul\":4292:4301   */\n  dup3\n    /* \"#utility.yul\":4288:4307   */\n  add\n    /* \"#utility.yul\":4280:4307   */\n  swap1\n  pop\n    /* \"#utility.yul\":4317:4388   */\n  tag_158\n    /* \"#utility.yul\":4385:4386   */\n  0x00\n    /* \"#utility.yul\":4374:4383   */\n  dup4\n    /* \"#utility.yul\":4370:4387   */\n  add\n    /* \"#utility.yul\":4361:4367   */\n  dup9\n    /* \"#utility.yul\":4317:4388   */\n  tag_96\n  jump\t// in\ntag_158:\n    /* \"#utility.yul\":4398:4470   */\n  tag_159\n    /* \"#utility.yul\":4466:4468   */\n  0x20\n    /* \"#utility.yul\":4455:4464   */\n  dup4\n    /* \"#utility.yul\":4451:4469   */\n  add\n    /* \"#utility.yul\":4442:4448   */\n  dup8\n    /* \"#utility.yul\":4398:4470   */\n  tag_96\n  jump\t// in\ntag_159:\n    /* \"#utility.yul\":4480:4552   */\n  tag_160\n    /* \"#utility.yul\":4548:4550   */\n  0x40\n    /* \"#utility.yul\":4537:4546   */\n  dup4\n    /* \"#utility.yul\":4533:4551   */\n  add\n    /* \"#utility.yul\":4524:4530   */\n  dup7\n    /* \"#utility.yul\":4480:4552   */\n  tag_93\n  jump\t// in\ntag_160:\n    /* \"#utility.yul\":4562:4634   */\n  tag_161\n    /* \"#utility.yul\":4630:4632   */\n  0x60\n    /* \"#utility.yul\":4619:4628   */\n  dup4\n    /* \"#utility.yul\":4615:4633   */\n  add\n    /* \"#utility.yul\":4606:4612   */\n  dup6\n    /* \"#utility.yul\":4562:4634   */\n  tag_93\n  jump\t// in\ntag_161:\n    /* \"#utility.yul\":4682:4691   */\n  dup2\n    /* \"#utility.yul\":4676:4680   */\n  dup2\n    /* \"#utility.yul\":4672:4692   */\n  sub\n    /* \"#utility.yul\":4666:4669   */\n  0x80\n    /* \"#utility.yul\":4655:4664   */\n  dup4\n    /* \"#utility.yul\":4651:4670   */\n  add\n    /* \"#utility.yul\":4644:4693   */\n  mstore\n    /* \"#utility.yul\":4710:4786   */\n  tag_162\n    /* \"#utility.yul\":4781:4785   */\n  dup2\n    /* \"#utility.yul\":4772:4778   */\n  dup5\n    /* \"#utility.yul\":4710:4786   */\n  tag_101\n  jump\t// in\ntag_162:\n    /* \"#utility.yul\":4702:4786   */\n  swap1\n  pop\n    /* \"#utility.yul\":4042:4793   */\n  swap7\n  swap6\n  pop\n  pop\n  pop\n  pop\n  pop\n  pop\n  jump\t// out\n    /* \"#utility.yul\":4799:4874   */\ntag_102:\n    /* \"#utility.yul\":4832:4838   */\n  0x00\n    /* \"#utility.yul\":4865:4867   */\n  0x40\n    /* \"#utility.yul\":4859:4868   */\n  mload\n    /* \"#utility.yul\":4849:4868   */\n  swap1\n  pop\n    /* \"#utility.yul\":4799:4874   */\n  swap1\n  jump\t// out\n    /* \"#utility.yul\":4880:4997   */\ntag_103:\n    /* \"#utility.yul\":4989:4990   */\n  0x00\n    /* \"#utility.yul\":4986:4987   */\n  dup1\n    /* \"#utility.yul\":4979:4991   */\n  revert\n    /* \"#utility.yul\":5126:5275   */\ntag_105:\n    /* \"#utility.yul\":5162:5169   */\n  0x00\n    /* \"#utility.yul\":5202:5268   */\n  0xffffffff00000000000000000000000000000000000000000000000000000000\n    /* \"#utility.yul\":5195:5200   */\n  dup3\n    /* \"#utility.yul\":5191:5269   */\n  and\n    /* \"#utility.yul\":5180:5269   */\n  swap1\n  pop\n    /* \"#utility.yul\":5126:5275   */\n  swap2\n  swap1\n  pop\n  jump\t// out\n    /* \"#utility.yul\":5281:5401   */\ntag_106:\n    /* \"#utility.yul\":5353:5376   */\n  tag_168\n    /* \"#utility.yul\":5370:5375   */\n  dup2\n    /* \"#utility.yul\":5353:5376   */\n  tag_105\n  jump\t// in\ntag_168:\n    /* \"#utility.yul\":5346:5351   */\n  dup2\n    /* \"#utility.yul\":5343:5377   */\n  eq\n    /* \"#utility.yul\":5333:5395   */\n  tag_169\n  jumpi\n    /* \"#utility.yul\":5391:5392   */\n  0x00\n    /* \"#utility.yul\":5388:5389   */\n  dup1\n    /* \"#utility.yul\":5381:5393   */\n  revert\n    /* \"#utility.yul\":5333:5395   */\ntag_169:\n    /* \"#utility.yul\":5281:5401   */\n  pop\n  jump\t// out\n    /* \"#utility.yul\":5407:5548   */\ntag_107:\n    /* \"#utility.yul\":5463:5468   */\n  0x00\n    /* \"#utility.yul\":5494:5500   */\n  dup2\n    /* \"#utility.yul\":5488:5501   */\n  mload\n    /* \"#utility.yul\":5479:5501   */\n  swap1\n  pop\n    /* \"#utility.yul\":5510:5542   */\n  tag_171\n    /* \"#utility.yul\":5536:5541   */\n  dup2\n    /* \"#utility.yul\":5510:5542   */\n  tag_106\n  jump\t// in\ntag_171:\n    /* \"#utility.yul\":5407:5548   */\n  swap3\n  swap2\n  pop\n  pop\n  jump\t// out\n    /* \"#utility.yul\":5554:5903   */\ntag_58:\n    /* \"#utility.yul\":5623:5629   */\n  0x00\n    /* \"#utility.yul\":5672:5674   */\n  0x20\n    /* \"#utility.yul\":5660:5669   */\n  dup3\n    /* \"#utility.yul\":5651:5658   */\n  dup5\n    /* \"#utility.yul\":5647:5670   */\n  sub\n    /* \"#utility.yul\":5643:5675   */\n  slt\n    /* \"#utility.yul\":5640:5759   */\n  iszero\n  tag_173\n  jumpi\n    /* \"#utility.yul\":5678:5757   */\n  tag_174\n  tag_103\n  jump\t// in\ntag_174:\n    /* \"#utility.yul\":5640:5759   */\ntag_173:\n    /* \"#utility.yul\":5798:5799   */\n  0x00\n    /* \"#utility.yul\":5823:5886   */\n  tag_175\n    /* \"#utility.yul\":5878:5885   */\n  dup5\n    /* \"#utility.yul\":5869:5875   */\n  dup3\n    /* \"#utility.yul\":5858:5867   */\n  dup6\n    /* \"#utility.yul\":5854:5876   */\n  add\n    /* \"#utility.yul\":5823:5886   */\n  tag_107\n  jump\t// in\ntag_175:\n    /* \"#utility.yul\":5813:5886   */\n  swap2\n  pop\n    /* \"#utility.yul\":5769:5896   */\n  pop\n    /* \"#utility.yul\":5554:5903   */\n  swap3\n  swap2\n  pop\n  pop\n  jump\t// out\n    /* \"#utility.yul\":5909:6015   */\ntag_108:\n    /* \"#utility.yul\":5953:5961   */\n  0x00\n    /* \"#utility.yul\":6002:6007   */\n  dup2\n    /* \"#utility.yul\":5997:6000   */\n  0xe0\n    /* \"#utility.yul\":5993:6008   */\n  shr\n    /* \"#utility.yul\":5972:6008   */\n  swap1\n  pop\n    /* \"#utility.yul\":5909:6015   */\n  swap2\n  swap1\n  pop\n  jump\t// out\n    /* \"#utility.yul\":6021:6204   */\ntag_64:\n    /* \"#utility.yul\":6056:6059   */\n  0x00\n    /* \"#utility.yul\":6094:6095   */\n  0x03\n    /* \"#utility.yul\":6076:6092   */\n  returndatasize\n    /* \"#utility.yul\":6073:6096   */\n  gt\n    /* \"#utility.yul\":6070:6198   */\n  iszero\n  tag_178\n  jumpi\n    /* \"#utility.yul\":6132:6133   */\n  0x04\n    /* \"#utility.yul\":6129:6130   */\n  0x00\n    /* \"#utility.yul\":6126:6127   */\n  dup1\n    /* \"#utility.yul\":6111:6134   */\n  returndatacopy\n    /* \"#utility.yul\":6154:6188   */\n  tag_179\n    /* \"#utility.yul\":6185:6186   */\n  0x00\n    /* \"#utility.yul\":6179:6187   */\n  mload\n    /* \"#utility.yul\":6154:6188   */\n  tag_108\n  jump\t// in\ntag_179:\n    /* \"#utility.yul\":6147:6188   */\n  swap1\n  pop\n    /* \"#utility.yul\":6070:6198   */\ntag_178:\n    /* \"#utility.yul\":6021:6204   */\n  swap1\n  jump\t// out\n    /* \"#utility.yul\":6210:6491   */\ntag_109:\n    /* \"#utility.yul\":6293:6320   */\n  tag_181\n    /* \"#utility.yul\":6315:6319   */\n  dup3\n    /* \"#utility.yul\":6293:6320   */\n  tag_100\n  jump\t// in\ntag_181:\n    /* \"#utility.yul\":6285:6291   */\n  dup2\n    /* \"#utility.yul\":6281:6321   */\n  add\n    /* \"#utility.yul\":6423:6429   */\n  dup2\n    /* \"#utility.yul\":6411:6421   */\n  dup2\n    /* \"#utility.yul\":6408:6430   */\n  lt\n    /* \"#utility.yul\":6387:6405   */\n  0xffffffffffffffff\n    /* \"#utility.yul\":6375:6385   */\n  dup3\n    /* \"#utility.yul\":6372:6406   */\n  gt\n    /* \"#utility.yul\":6369:6431   */\n  or\n    /* \"#utility.yul\":6366:6454   */\n  iszero\n  tag_182\n  jumpi\n    /* \"#utility.yul\":6434:6452   */\n  tag_183\n  tag_44\n  jump\t// in\ntag_183:\n    /* \"#utility.yul\":6366:6454   */\ntag_182:\n    /* \"#utility.yul\":6474:6484   */\n  dup1\n    /* \"#utility.yul\":6470:6472   */\n  0x40\n    /* \"#utility.yul\":6463:6485   */\n  mstore\n    /* \"#utility.yul\":6253:6491   */\n  pop\n    /* \"#utility.yul\":6210:6491   */\n  pop\n  pop\n  jump\t// out\n    /* \"#utility.yul\":6497:7208   */\ntag_66:\n    /* \"#utility.yul\":6536:6539   */\n  0x00\n    /* \"#utility.yul\":6574:6578   */\n  0x44\n    /* \"#utility.yul\":6556:6572   */\n  returndatasize\n    /* \"#utility.yul\":6553:6579   */\n  lt\n    /* \"#utility.yul\":6550:6589   */\n  iszero\n  tag_185\n  jumpi\n    /* \"#utility.yul\":6582:6587   */\n  jump(tag_184)\n    /* \"#utility.yul\":6550:6589   */\ntag_185:\n    /* \"#utility.yul\":6611:6631   */\n  tag_186\n  tag_102\n  jump\t// in\ntag_186:\n    /* \"#utility.yul\":6686:6687   */\n  0x04\n    /* \"#utility.yul\":6668:6684   */\n  returndatasize\n    /* \"#utility.yul\":6664:6688   */\n  sub\n    /* \"#utility.yul\":6661:6662   */\n  0x04\n    /* \"#utility.yul\":6655:6659   */\n  dup3\n    /* \"#utility.yul\":6640:6689   */\n  returndatacopy\n    /* \"#utility.yul\":6719:6723   */\n  dup1\n    /* \"#utility.yul\":6713:6724   */\n  mload\n    /* \"#utility.yul\":6818:6834   */\n  returndatasize\n    /* \"#utility.yul\":6811:6815   */\n  0x24\n    /* \"#utility.yul\":6803:6809   */\n  dup3\n    /* \"#utility.yul\":6799:6816   */\n  add\n    /* \"#utility.yul\":6796:6835   */\n  gt\n    /* \"#utility.yul\":6763:6781   */\n  0xffffffffffffffff\n    /* \"#utility.yul\":6755:6761   */\n  dup3\n    /* \"#utility.yul\":6752:6782   */\n  gt\n    /* \"#utility.yul\":6736:6849   */\n  or\n    /* \"#utility.yul\":6733:6879   */\n  iszero\n  tag_187\n  jumpi\n    /* \"#utility.yul\":6864:6869   */\n  pop\n  pop\n  jump(tag_184)\n    /* \"#utility.yul\":6733:6879   */\ntag_187:\n    /* \"#utility.yul\":6910:6916   */\n  dup1\n    /* \"#utility.yul\":6904:6908   */\n  dup3\n    /* \"#utility.yul\":6900:6917   */\n  add\n    /* \"#utility.yul\":6946:6949   */\n  dup1\n    /* \"#utility.yul\":6940:6950   */\n  mload\n    /* \"#utility.yul\":6973:6991   */\n  0xffffffffffffffff\n    /* \"#utility.yul\":6965:6971   */\n  dup2\n    /* \"#utility.yul\":6962:6992   */\n  gt\n    /* \"#utility.yul\":6959:7002   */\n  iszero\n  tag_188\n  jumpi\n    /* \"#utility.yul\":6995:7000   */\n  pop\n  pop\n  pop\n  pop\n  jump(tag_184)\n    /* \"#utility.yul\":6959:7002   */\ntag_188:\n    /* \"#utility.yul\":7043:7049   */\n  dup1\n    /* \"#utility.yul\":7036:7040   */\n  0x20\n    /* \"#utility.yul\":7031:7034   */\n  dup4\n    /* \"#utility.yul\":7027:7041   */\n  add\n    /* \"#utility.yul\":7023:7050   */\n  add\n    /* \"#utility.yul\":7102:7103   */\n  0x04\n    /* \"#utility.yul\":7084:7100   */\n  returndatasize\n    /* \"#utility.yul\":7080:7104   */\n  sub\n    /* \"#utility.yul\":7074:7078   */\n  dup6\n    /* \"#utility.yul\":7070:7105   */\n  add\n    /* \"#utility.yul\":7065:7068   */\n  dup2\n    /* \"#utility.yul\":7062:7106   */\n  gt\n    /* \"#utility.yul\":7059:7116   */\n  iszero\n  tag_189\n  jumpi\n    /* \"#utility.yul\":7109:7114   */\n  pop\n  pop\n  pop\n  pop\n  pop\n  jump(tag_184)\n    /* \"#utility.yul\":7059:7116   */\ntag_189:\n    /* \"#utility.yul\":7126:7183   */\n  tag_190\n    /* \"#utility.yul\":7174:7180   */\n  dup3\n    /* \"#utility.yul\":7168:7172   */\n  0x20\n    /* \"#utility.yul\":7164:7181   */\n  add\n    /* \"#utility.yul\":7156:7162   */\n  dup6\n    /* \"#utility.yul\":7152:7182   */\n  add\n    /* \"#utility.yul\":7146:7150   */\n  dup7\n    /* \"#utility.yul\":7126:7183   */\n  tag_109\n  jump\t// in\ntag_190:\n    /* \"#utility.yul\":7199:7202   */\n  dup3\n    /* \"#utility.yul\":7192:7202   */\n  swap6\n  pop\n    /* \"#utility.yul\":6540:7208   */\n  pop\n  pop\n  pop\n  pop\n  pop\n    /* \"#utility.yul\":6497:7208   */\ntag_184:\n  swap1\n  jump\t// out\n    /* \"#utility.yul\":7214:7313   */\ntag_110:\n    /* \"#utility.yul\":7266:7272   */\n  0x00\n    /* \"#utility.yul\":7300:7305   */\n  dup2\n    /* \"#utility.yul\":7294:7306   */\n  mload\n    /* \"#utility.yul\":7284:7306   */\n  swap1\n  pop\n    /* \"#utility.yul\":7214:7313   */\n  swap2\n  swap1\n  pop\n  jump\t// out\n    /* \"#utility.yul\":7319:7683   */\ntag_111:\n    /* \"#utility.yul\":7407:7410   */\n  0x00\n    /* \"#utility.yul\":7435:7474   */\n  tag_193\n    /* \"#utility.yul\":7468:7473   */\n  dup3\n    /* \"#utility.yul\":7435:7474   */\n  tag_110\n  jump\t// in\ntag_193:\n    /* \"#utility.yul\":7490:7561   */\n  tag_194\n    /* \"#utility.yul\":7554:7560   */\n  dup2\n    /* \"#utility.yul\":7549:7552   */\n  dup6\n    /* \"#utility.yul\":7490:7561   */\n  tag_90\n  jump\t// in\ntag_194:\n    /* \"#utility.yul\":7483:7561   */\n  swap4\n  pop\n    /* \"#utility.yul\":7570:7622   */\n  tag_195\n    /* \"#utility.yul\":7615:7621   */\n  dup2\n    /* \"#utility.yul\":7610:7613   */\n  dup6\n    /* \"#utility.yul\":7603:7607   */\n  0x20\n    /* \"#utility.yul\":7596:7601   */\n  dup7\n    /* \"#utility.yul\":7592:7608   */\n  add\n    /* \"#utility.yul\":7570:7622   */\n  tag_99\n  jump\t// in\ntag_195:\n    /* \"#utility.yul\":7647:7676   */\n  tag_196\n    /* \"#utility.yul\":7669:7675   */\n  dup2\n    /* \"#utility.yul\":7647:7676   */\n  tag_100\n  jump\t// in\ntag_196:\n    /* \"#utility.yul\":7642:7645   */\n  dup5\n    /* \"#utility.yul\":7638:7677   */\n  add\n    /* \"#utility.yul\":7631:7677   */\n  swap2\n  pop\n    /* \"#utility.yul\":7411:7683   */\n  pop\n    /* \"#utility.yul\":7319:7683   */\n  swap3\n  swap2\n  pop\n  pop\n  jump\t// out\n    /* \"#utility.yul\":7689:8002   */\ntag_69:\n    /* \"#utility.yul\":7802:7806   */\n  0x00\n    /* \"#utility.yul\":7840:7842   */\n  0x20\n    /* \"#utility.yul\":7829:7838   */\n  dup3\n    /* \"#utility.yul\":7825:7843   */\n  add\n    /* \"#utility.yul\":7817:7843   */\n  swap1\n  pop\n    /* \"#utility.yul\":7889:7898   */\n  dup2\n    /* \"#utility.yul\":7883:7887   */\n  dup2\n    /* \"#utility.yul\":7879:7899   */\n  sub\n    /* \"#utility.yul\":7875:7876   */\n  0x00\n    /* \"#utility.yul\":7864:7873   */\n  dup4\n    /* \"#utility.yul\":7860:7877   */\n  add\n    /* \"#utility.yul\":7853:7900   */\n  mstore\n    /* \"#utility.yul\":7917:7995   */\n  tag_198\n    /* \"#utility.yul\":7990:7994   */\n  dup2\n    /* \"#utility.yul\":7981:7987   */\n  dup5\n    /* \"#utility.yul\":7917:7995   */\n  tag_111\n  jump\t// in\ntag_198:\n    /* \"#utility.yul\":7909:7995   */\n  swap1\n  pop\n    /* \"#utility.yul\":7689:8002   */\n  swap3\n  swap2\n  pop\n  pop\n  jump\t// out\n    /* \"#utility.yul\":8008:8247   */\ntag_112:\n    /* \"#utility.yul\":8148:8182   */\n  0x455243313135353a207472616e7366657220746f206e6f6e2045524331313535\n    /* \"#utility.yul\":8144:8145   */\n  0x00\n    /* \"#utility.yul\":8136:8142   */\n  dup3\n    /* \"#utility.yul\":8132:8146   */\n  add\n    /* \"#utility.yul\":8125:8183   */\n  mstore\n    /* \"#utility.yul\":8217:8239   */\n  0x526563656976657220696d706c656d656e746572000000000000000000000000\n    /* \"#utility.yul\":8212:8214   */\n  0x20\n    /* \"#utility.yul\":8204:8210   */\n  dup3\n    /* \"#utility.yul\":8200:8215   */\n  add\n    /* \"#utility.yul\":8193:8240   */\n  mstore\n    /* \"#utility.yul\":8008:8247   */\n  pop\n  jump\t// out\n    /* \"#utility.yul\":8253:8619   */\ntag_113:\n    /* \"#utility.yul\":8395:8398   */\n  0x00\n    /* \"#utility.yul\":8416:8483   */\n  tag_201\n    /* \"#utility.yul\":8480:8482   */\n  0x34\n    /* \"#utility.yul\":8475:8478   */\n  dup4\n    /* \"#utility.yul\":8416:8483   */\n  tag_90\n  jump\t// in\ntag_201:\n    /* \"#utility.yul\":8409:8483   */\n  swap2\n  pop\n    /* \"#utility.yul\":8492:8585   */\n  tag_202\n    /* \"#utility.yul\":8581:8584   */\n  dup3\n    /* \"#utility.yul\":8492:8585   */\n  tag_112\n  jump\t// in\ntag_202:\n    /* \"#utility.yul\":8610:8612   */\n  0x40\n    /* \"#utility.yul\":8605:8608   */\n  dup3\n    /* \"#utility.yul\":8601:8613   */\n  add\n    /* \"#utility.yul\":8594:8613   */\n  swap1\n  pop\n    /* \"#utility.yul\":8253:8619   */\n  swap2\n  swap1\n  pop\n  jump\t// out\n    /* \"#utility.yul\":8625:9044   */\ntag_71:\n    /* \"#utility.yul\":8791:8795   */\n  0x00\n    /* \"#utility.yul\":8829:8831   */\n  0x20\n    /* \"#utility.yul\":8818:8827   */\n  dup3\n    /* \"#utility.yul\":8814:8832   */\n  add\n    /* \"#utility.yul\":8806:8832   */\n  swap1\n  pop\n    /* \"#utility.yul\":8878:8887   */\n  dup2\n    /* \"#utility.yul\":8872:8876   */\n  dup2\n    /* \"#utility.yul\":8868:8888   */\n  sub\n    /* \"#utility.yul\":8864:8865   */\n  0x00\n    /* \"#utility.yul\":8853:8862   */\n  dup4\n    /* \"#utility.yul\":8849:8866   */\n  add\n    /* \"#utility.yul\":8842:8889   */\n  mstore\n    /* \"#utility.yul\":8906:9037   */\n  tag_204\n    /* \"#utility.yul\":9032:9036   */\n  dup2\n    /* \"#utility.yul\":8906:9037   */\n  tag_113\n  jump\t// in\ntag_204:\n    /* \"#utility.yul\":8898:9037   */\n  swap1\n  pop\n    /* \"#utility.yul\":8625:9044   */\n  swap2\n  swap1\n  pop\n  jump\t// out\n    /* \"#utility.yul\":9050:9277   */\ntag_114:\n    /* \"#utility.yul\":9190:9224   */\n  0x455243313135353a204552433131353552656365697665722072656a65637465\n    /* \"#utility.yul\":9186:9187   */\n  0x00\n    /* \"#utility.yul\":9178:9184   */\n  dup3\n    /* \"#utility.yul\":9174:9188   */\n  add\n    /* \"#utility.yul\":9167:9225   */\n  mstore\n    /* \"#utility.yul\":9259:9269   */\n  0x6420746f6b656e73000000000000000000000000000000000000000000000000\n    /* \"#utility.yul\":9254:9256   */\n  0x20\n    /* \"#utility.yul\":9246:9252   */\n  dup3\n    /* \"#utility.yul\":9242:9257   */\n  add\n    /* \"#utility.yul\":9235:9270   */\n  mstore\n    /* \"#utility.yul\":9050:9277   */\n  pop\n  jump\t// out\n    /* \"#utility.yul\":9283:9649   */\ntag_115:\n    /* \"#utility.yul\":9425:9428   */\n  0x00\n    /* \"#utility.yul\":9446:9513   */\n  tag_207\n    /* \"#utility.yul\":9510:9512   */\n  0x28\n    /* \"#utility.yul\":9505:9508   */\n  dup4\n    /* \"#utility.yul\":9446:9513   */\n  tag_90\n  jump\t// in\ntag_207:\n    /* \"#utility.yul\":9439:9513   */\n  swap2\n  pop\n    /* \"#utility.yul\":9522:9615   */\n  tag_208\n    /* \"#utility.yul\":9611:9614   */\n  dup3\n    /* \"#utility.yul\":9522:9615   */\n  tag_114\n  jump\t// in\ntag_208:\n    /* \"#utility.yul\":9640:9642   */\n  0x40\n    /* \"#utility.yul\":9635:9638   */\n  dup3\n    /* \"#utility.yul\":9631:9643   */\n  add\n    /* \"#utility.yul\":9624:9643   */\n  swap1\n  pop\n    /* \"#utility.yul\":9283:9649   */\n  swap2\n  swap1\n  pop\n  jump\t// out\n    /* \"#utility.yul\":9655:10074   */\ntag_75:\n    /* \"#utility.yul\":9821:9825   */\n  0x00\n    /* \"#utility.yul\":9859:9861   */\n  0x20\n    /* \"#utility.yul\":9848:9857   */\n  dup3\n    /* \"#utility.yul\":9844:9862   */\n  add\n    /* \"#utility.yul\":9836:9862   */\n  swap1\n  pop\n    /* \"#utility.yul\":9908:9917   */\n  dup2\n    /* \"#utility.yul\":9902:9906   */\n  dup2\n    /* \"#utility.yul\":9898:9918   */\n  sub\n    /* \"#utility.yul\":9894:9895   */\n  0x00\n    /* \"#utility.yul\":9883:9892   */\n  dup4\n    /* \"#utility.yul\":9879:9896   */\n  add\n    /* \"#utility.yul\":9872:9919   */\n  mstore\n    /* \"#utility.yul\":9936:10067   */\n  tag_210\n    /* \"#utility.yul\":10062:10066   */\n  dup2\n    /* \"#utility.yul\":9936:10067   */\n  tag_115\n  jump\t// in\ntag_210:\n    /* \"#utility.yul\":9928:10067   */\n  swap1\n  pop\n    /* \"#utility.yul\":9655:10074   */\n  swap2\n  swap1\n  pop\n  jump\t// out\n    /* \"#utility.yul\":10080:10260   */\ntag_116:\n    /* \"#utility.yul\":10128:10205   */\n  0x4e487b7100000000000000000000000000000000000000000000000000000000\n    /* \"#utility.yul\":10125:10126   */\n  0x00\n    /* \"#utility.yul\":10118:10206   */\n  mstore\n    /* \"#utility.yul\":10225:10229   */\n  0x22\n    /* \"#utility.yul\":10222:10223   */\n  0x04\n    /* \"#utility.yul\":10215:10230   */\n  mstore\n    /* \"#utility.yul\":10249:10253   */\n  0x24\n    /* \"#utility.yul\":10246:10247   */\n  0x00\n    /* \"#utility.yul\":10239:10254   */\n  revert\n    /* \"#utility.yul\":10266:10586   */\ntag_78:\n    /* \"#utility.yul\":10310:10316   */\n  0x00\n    /* \"#utility.yul\":10347:10348   */\n  0x02\n    /* \"#utility.yul\":10341:10345   */\n  dup3\n    /* \"#utility.yul\":10337:10349   */\n  div\n    /* \"#utility.yul\":10327:10349   */\n  swap1\n  pop\n    /* \"#utility.yul\":10394:10395   */\n  0x01\n    /* \"#utility.yul\":10388:10392   */\n  dup3\n    /* \"#utility.yul\":10384:10396   */\n  and\n    /* \"#utility.yul\":10415:10433   */\n  dup1\n    /* \"#utility.yul\":10405:10486   */\n  tag_213\n  jumpi\n    /* \"#utility.yul\":10471:10475   */\n  0x7f\n    /* \"#utility.yul\":10463:10469   */\n  dup3\n    /* \"#utility.yul\":10459:10476   */\n  and\n    /* \"#utility.yul\":10449:10476   */\n  swap2\n  pop\n    /* \"#utility.yul\":10405:10486   */\ntag_213:\n    /* \"#utility.yul\":10533:10535   */\n  0x20\n    /* \"#utility.yul\":10525:10531   */\n  dup3\n    /* \"#utility.yul\":10522:10536   */\n  lt\n    /* \"#utility.yul\":10502:10520   */\n  dup2\n    /* \"#utility.yul\":10499:10537   */\n  eq\n    /* \"#utility.yul\":10496:10580   */\n  iszero\n  tag_214\n  jumpi\n    /* \"#utility.yul\":10552:10570   */\n  tag_215\n  tag_116\n  jump\t// in\ntag_215:\n    /* \"#utility.yul\":10496:10580   */\ntag_214:\n    /* \"#utility.yul\":10317:10586   */\n  pop\n    /* \"#utility.yul\":10266:10586   */\n  swap2\n  swap1\n  pop\n  jump\t// out\n    /* \"High_Nft.sol\":34619:36220  contract High_NFT is ERC1155, Ownable {... */\ntag_21:\n  dataSize(sub_0)\n  dup1\n  dataOffset(sub_0)\n  0x00\n  codecopy\n  0x00\n  return\nstop\ndata_aa563fd6afa28e152df341e0e5c1cbfce51a273b8098c9327e3d0094190a55ab 68747470733a2f2f676174657761792e70696e6174612e636c6f75642f697066732f516d614a476a47746d5a706262584a53686d6568515066415677527070565a697a6e6261535739546b684659425a\ndata_c74afb0ec6aabb9c48457dd502f9d6c1ce2b92e35805ef24259379f1b78256b4 68747470733a2f2f676174657761792e70696e6174612e636c6f75642f697066732f516d614a7a524d4778573159614744614e7a6a48746e744e61436e6b6e697362426f31704c51336f59484d714373\n\nsub_0: assembly {\n        /* \"High_Nft.sol\":34619:36220  contract High_NFT is ERC1155, Ownable {... */\n      mstore(0x40, 0x80)\n      callvalue\n      dup1\n      iszero\n      tag_1\n      jumpi\n      0x00\n      dup1\n      revert\n    tag_1:\n      pop\n      jumpi(tag_2, lt(calldatasize, 0x04))\n      shr(0xe0, calldataload(0x00))\n      dup1\n      0x9dc29fac\n      gt\n      tag_25\n      jumpi\n      dup1\n      0xe985e9c5\n      gt\n      tag_26\n      jumpi\n      dup1\n      0xe985e9c5\n      eq\n      tag_19\n      jumpi\n      dup1\n      0xed70554d\n      eq\n      tag_20\n      jumpi\n      dup1\n      0xf242432a\n      eq\n      tag_21\n      jumpi\n      dup1\n      0xf2fde38b\n      eq\n      tag_22\n      jumpi\n      dup1\n      0xf851a440\n      eq\n      tag_23\n      jumpi\n      dup1\n      0xfabb7053\n      eq\n      tag_24\n      jumpi\n      jump(tag_2)\n    tag_26:\n      dup1\n      0x9dc29fac\n      eq\n      tag_14\n      jumpi\n      dup1\n      0xa22cb465\n      eq\n      tag_15\n      jumpi\n      dup1\n      0xabc8c7af\n      eq\n      tag_16\n      jumpi\n      dup1\n      0xd85d3d27\n      eq\n      tag_17\n      jumpi\n      dup1\n      0xe8a3d485\n      eq\n      tag_18\n      jumpi\n      jump(tag_2)\n    tag_25:\n      dup1\n      0x2eb2c2d6\n      gt\n      tag_27\n      jumpi\n      dup1\n      0x2eb2c2d6\n      eq\n      tag_8\n      jumpi\n      dup1\n      0x370c1bd2\n      eq\n      tag_9\n      jumpi\n      dup1\n      0x4e1273f4\n      eq\n      tag_10\n      jumpi\n      dup1\n      0x715018a6\n      eq\n      tag_11\n      jumpi\n      dup1\n      0x8da5cb5b\n      eq\n      tag_12\n      jumpi\n      dup1\n      0x992924a6\n      eq\n      tag_13\n      jumpi\n      jump(tag_2)\n    tag_27:\n      dup1\n      0xfdd58e\n      eq\n      tag_3\n      jumpi\n      dup1\n      0x01ffc9a7\n      eq\n      tag_4\n      jumpi\n      dup1\n      0x0673d7d0\n      eq\n      tag_5\n      jumpi\n      dup1\n      0x0ad53bb8\n      eq\n      tag_6\n      jumpi\n      dup1\n      0x0e89341c\n      eq\n      tag_7\n      jumpi\n    tag_2:\n      0x00\n      dup1\n      revert\n        /* \"High_Nft.sol\":21511:21739  function balanceOf(address account, uint256 id) public view virtual override returns (uint256) {... */\n    tag_3:\n      tag_28\n      0x04\n      dup1\n      calldatasize\n      sub\n      dup2\n      add\n      swap1\n      tag_29\n      swap2\n      swap1\n      tag_30\n      jump\t// in\n    tag_29:\n      tag_31\n      jump\t// in\n    tag_28:\n      mload(0x40)\n      tag_32\n      swap2\n      swap1\n      tag_33\n      jump\t// in\n    tag_32:\n      mload(0x40)\n      dup1\n      swap2\n      sub\n      swap1\n      return\n        /* \"High_Nft.sol\":20562:20867  function supportsInterface(bytes4 interfaceId) public view virtual override(ERC165, IERC165) returns (bool) {... */\n    tag_4:\n      tag_34\n      0x04\n      dup1\n      calldatasize\n      sub\n      dup2\n      add\n      swap1\n      tag_35\n      swap2\n      swap1\n      tag_36\n      jump\t// in\n    tag_35:\n      tag_37\n      jump\t// in\n    tag_34:\n      mload(0x40)\n      tag_38\n      swap2\n      swap1\n      tag_39\n      jump\t// in\n    tag_38:\n      mload(0x40)\n      dup1\n      swap2\n      sub\n      swap1\n      return\n        /* \"High_Nft.sol\":34665:34692  uint256 public Token_Id = 0 */\n    tag_5:\n      tag_40\n      tag_41\n      jump\t// in\n    tag_40:\n      mload(0x40)\n      tag_42\n      swap2\n      swap1\n      tag_33\n      jump\t// in\n    tag_42:\n      mload(0x40)\n      dup1\n      swap2\n      sub\n      swap1\n      return\n        /* \"High_Nft.sol\":35919:36074  function set_NFT_contract (address NFT_address) public restricted{  ... */\n    tag_6:\n      tag_43\n      0x04\n      dup1\n      calldatasize\n      sub\n      dup2\n      add\n      swap1\n      tag_44\n      swap2\n      swap1\n      tag_45\n      jump\t// in\n    tag_44:\n      tag_46\n      jump\t// in\n    tag_43:\n      stop\n        /* \"High_Nft.sol\":21266:21369  function uri(uint256) public view virtual override returns (string memory) {... */\n    tag_7:\n      tag_47\n      0x04\n      dup1\n      calldatasize\n      sub\n      dup2\n      add\n      swap1\n      tag_48\n      swap2\n      swap1\n      tag_49\n      jump\t// in\n    tag_48:\n      tag_50\n      jump\t// in\n    tag_47:\n      mload(0x40)\n      tag_51\n      swap2\n      swap1\n      tag_52\n      jump\t// in\n    tag_51:\n      mload(0x40)\n      dup1\n      swap2\n      sub\n      swap1\n      return\n        /* \"High_Nft.sol\":23386:23816  function safeBatchTransferFrom(... */\n    tag_8:\n      tag_53\n      0x04\n      dup1\n      calldatasize\n      sub\n      dup2\n      add\n      swap1\n      tag_54\n      swap2\n      swap1\n      tag_55\n      jump\t// in\n    tag_54:\n      tag_56\n      jump\t// in\n    tag_53:\n      stop\n        /* \"High_Nft.sol\":34764:34820  mapping (address=> uint256) public _number_of_owned_nfts */\n    tag_9:\n      tag_57\n      0x04\n      dup1\n      calldatasize\n      sub\n      dup2\n      add\n      swap1\n      tag_58\n      swap2\n      swap1\n      tag_45\n      jump\t// in\n    tag_58:\n      tag_59\n      jump\t// in\n    tag_57:\n      mload(0x40)\n      tag_60\n      swap2\n      swap1\n      tag_33\n      jump\t// in\n    tag_60:\n      mload(0x40)\n      dup1\n      swap2\n      sub\n      swap1\n      return\n        /* \"High_Nft.sol\":21896:22404  function balanceOfBatch(address[] memory accounts, uint256[] memory ids)... */\n    tag_10:\n      tag_61\n      0x04\n      dup1\n      calldatasize\n      sub\n      dup2\n      add\n      swap1\n      tag_62\n      swap2\n      swap1\n      tag_63\n      jump\t// in\n    tag_62:\n      tag_64\n      jump\t// in\n    tag_61:\n      mload(0x40)\n      tag_65\n      swap2\n      swap1\n      tag_66\n      jump\t// in\n    tag_65:\n      mload(0x40)\n      dup1\n      swap2\n      sub\n      swap1\n      return\n        /* \"High_Nft.sol\":18981:19073  function renounceOwnership() public virtual onlyOwner {... */\n    tag_11:\n      tag_67\n      tag_68\n      jump\t// in\n    tag_67:\n      stop\n        /* \"High_Nft.sol\":18349:18434  function owner() public view virtual returns (address) {... */\n    tag_12:\n      tag_69\n      tag_70\n      jump\t// in\n    tag_69:\n      mload(0x40)\n      tag_71\n      swap2\n      swap1\n      tag_72\n      jump\t// in\n    tag_71:\n      mload(0x40)\n      dup1\n      swap2\n      sub\n      swap1\n      return\n        /* \"High_Nft.sol\":34823:34866  mapping (uint256 => address) public _owners */\n    tag_13:\n      tag_73\n      0x04\n      dup1\n      calldatasize\n      sub\n      dup2\n      add\n      swap1\n      tag_74\n      swap2\n      swap1\n      tag_49\n      jump\t// in\n    tag_74:\n      tag_75\n      jump\t// in\n    tag_73:\n      mload(0x40)\n      tag_76\n      swap2\n      swap1\n      tag_72\n      jump\t// in\n    tag_76:\n      mload(0x40)\n      dup1\n      swap2\n      sub\n      swap1\n      return\n        /* \"High_Nft.sol\":36082:36211  function burn(address account, uint256 id) public ... */\n    tag_14:\n      tag_77\n      0x04\n      dup1\n      calldatasize\n      sub\n      dup2\n      add\n      swap1\n      tag_78\n      swap2\n      swap1\n      tag_30\n      jump\t// in\n    tag_78:\n      tag_79\n      jump\t// in\n    tag_77:\n      stop\n        /* \"High_Nft.sol\":22472:22625  function setApprovalForAll(address operator, bool approved) public virtual override {... */\n    tag_15:\n      tag_80\n      0x04\n      dup1\n      calldatasize\n      sub\n      dup2\n      add\n      swap1\n      tag_81\n      swap2\n      swap1\n      tag_82\n      jump\t// in\n    tag_81:\n      tag_83\n      jump\t// in\n    tag_80:\n      stop\n        /* \"High_Nft.sol\":34926:34952  address public marketplace */\n    tag_16:\n      tag_84\n      tag_85\n      jump\t// in\n    tag_84:\n      mload(0x40)\n      tag_86\n      swap2\n      swap1\n      tag_72\n      jump\t// in\n    tag_86:\n      mload(0x40)\n      dup1\n      swap2\n      sub\n      swap1\n      return\n        /* \"High_Nft.sol\":35562:35909  function mint (string memory newuri) public {... */\n    tag_17:\n      tag_87\n      0x04\n      dup1\n      calldatasize\n      sub\n      dup2\n      add\n      swap1\n      tag_88\n      swap2\n      swap1\n      tag_89\n      jump\t// in\n    tag_88:\n      tag_90\n      jump\t// in\n    tag_87:\n      stop\n        /* \"High_Nft.sol\":34955:35065  string public contractURI = \"https://gateway.pinata.cloud/ipfs/QmaJzRMGxW1YaGDaNzjHtntNaCnknisbBo1pLQ3oYHMqCs\" */\n    tag_18:\n      tag_91\n      tag_92\n      jump\t// in\n    tag_91:\n      mload(0x40)\n      tag_93\n      swap2\n      swap1\n      tag_52\n      jump\t// in\n    tag_93:\n      mload(0x40)\n      dup1\n      swap2\n      sub\n      swap1\n      return\n        /* \"High_Nft.sol\":22692:22858  function isApprovedForAll(address account, address operator) public view virtual override returns (bool) {... */\n    tag_19:\n      tag_94\n      0x04\n      dup1\n      calldatasize\n      sub\n      dup2\n      add\n      swap1\n      tag_95\n      swap2\n      swap1\n      tag_96\n      jump\t// in\n    tag_95:\n      tag_97\n      jump\t// in\n    tag_94:\n      mload(0x40)\n      tag_98\n      swap2\n      swap1\n      tag_39\n      jump\t// in\n    tag_98:\n      mload(0x40)\n      dup1\n      swap2\n      sub\n      swap1\n      return\n        /* \"High_Nft.sol\":34719:34761  mapping (uint256 => string) public _tokens */\n    tag_20:\n      tag_99\n      0x04\n      dup1\n      calldatasize\n      sub\n      dup2\n      add\n      swap1\n      tag_100\n      swap2\n      swap1\n      tag_49\n      jump\t// in\n    tag_100:\n      tag_101\n      jump\t// in\n    tag_99:\n      mload(0x40)\n      tag_102\n      swap2\n      swap1\n      tag_52\n      jump\t// in\n    tag_102:\n      mload(0x40)\n      dup1\n      swap2\n      sub\n      swap1\n      return\n        /* \"High_Nft.sol\":22925:23314  function safeTransferFrom(... */\n    tag_21:\n      tag_103\n      0x04\n      dup1\n      calldatasize\n      sub\n      dup2\n      add\n      swap1\n      tag_104\n      swap2\n      swap1\n      tag_105\n      jump\t// in\n    tag_104:\n      tag_106\n      jump\t// in\n    tag_103:\n      stop\n        /* \"High_Nft.sol\":19222:19411  function transferOwnership(address newOwner) public virtual onlyOwner {... */\n    tag_22:\n      tag_107\n      0x04\n      dup1\n      calldatasize\n      sub\n      dup2\n      add\n      swap1\n      tag_108\n      swap2\n      swap1\n      tag_45\n      jump\t// in\n    tag_108:\n      tag_109\n      jump\t// in\n    tag_107:\n      stop\n        /* \"High_Nft.sol\":34696:34716  address public admin */\n    tag_23:\n      tag_110\n      tag_111\n      jump\t// in\n    tag_110:\n      mload(0x40)\n      tag_112\n      swap2\n      swap1\n      tag_72\n      jump\t// in\n    tag_112:\n      mload(0x40)\n      dup1\n      swap2\n      sub\n      swap1\n      return\n        /* \"High_Nft.sol\":34869:34923  address public address_of_nft_contract = address(this) */\n    tag_24:\n      tag_113\n      tag_114\n      jump\t// in\n    tag_113:\n      mload(0x40)\n      tag_115\n      swap2\n      swap1\n      tag_72\n      jump\t// in\n    tag_115:\n      mload(0x40)\n      dup1\n      swap2\n      sub\n      swap1\n      return\n        /* \"High_Nft.sol\":21511:21739  function balanceOf(address account, uint256 id) public view virtual override returns (uint256) {... */\n    tag_31:\n        /* \"High_Nft.sol\":21597:21604  uint256 */\n      0x00\n        /* \"High_Nft.sol\":21643:21644  0 */\n      dup1\n        /* \"High_Nft.sol\":21624:21645  account != address(0) */\n      0xffffffffffffffffffffffffffffffffffffffff\n      and\n        /* \"High_Nft.sol\":21624:21631  account */\n      dup4\n        /* \"High_Nft.sol\":21624:21645  account != address(0) */\n      0xffffffffffffffffffffffffffffffffffffffff\n      and\n      eq\n      iszero\n        /* \"High_Nft.sol\":21616:21693  require(account != address(0), \"ERC1155: balance query for the zero address\") */\n      tag_118\n      jumpi\n      mload(0x40)\n      0x08c379a000000000000000000000000000000000000000000000000000000000\n      dup2\n      mstore\n      0x04\n      add\n      tag_119\n      swap1\n      tag_120\n      jump\t// in\n    tag_119:\n      mload(0x40)\n      dup1\n      swap2\n      sub\n      swap1\n      revert\n    tag_118:\n        /* \"High_Nft.sol\":21710:21719  _balances */\n      0x00\n        /* \"High_Nft.sol\":21710:21723  _balances[id] */\n      dup1\n        /* \"High_Nft.sol\":21720:21722  id */\n      dup4\n        /* \"High_Nft.sol\":21710:21723  _balances[id] */\n      dup2\n      mstore\n      0x20\n      add\n      swap1\n      dup2\n      mstore\n      0x20\n      add\n      0x00\n      keccak256\n        /* \"High_Nft.sol\":21710:21732  _balances[id][account] */\n      0x00\n        /* \"High_Nft.sol\":21724:21731  account */\n      dup5\n        /* \"High_Nft.sol\":21710:21732  _balances[id][account] */\n      0xffffffffffffffffffffffffffffffffffffffff\n      and\n      0xffffffffffffffffffffffffffffffffffffffff\n      and\n      dup2\n      mstore\n      0x20\n      add\n      swap1\n      dup2\n      mstore\n      0x20\n      add\n      0x00\n      keccak256\n      sload\n        /* \"High_Nft.sol\":21703:21732  return _balances[id][account] */\n      swap1\n      pop\n        /* \"High_Nft.sol\":21511:21739  function balanceOf(address account, uint256 id) public view virtual override returns (uint256) {... */\n      swap3\n      swap2\n      pop\n      pop\n      jump\t// out\n        /* \"High_Nft.sol\":20562:20867  function supportsInterface(bytes4 interfaceId) public view virtual override(ERC165, IERC165) returns (bool) {... */\n    tag_37:\n        /* \"High_Nft.sol\":20664:20668  bool */\n      0x00\n        /* \"High_Nft.sol\":20714:20740  type(IERC1155).interfaceId */\n      0xd9b67a2600000000000000000000000000000000000000000000000000000000\n        /* \"High_Nft.sol\":20699:20740  interfaceId == type(IERC1155).interfaceId */\n      not(0xffffffffffffffffffffffffffffffffffffffffffffffffffffffff)\n      and\n        /* \"High_Nft.sol\":20699:20710  interfaceId */\n      dup3\n        /* \"High_Nft.sol\":20699:20740  interfaceId == type(IERC1155).interfaceId */\n      not(0xffffffffffffffffffffffffffffffffffffffffffffffffffffffff)\n      and\n      eq\n        /* \"High_Nft.sol\":20699:20808  interfaceId == type(IERC1155).interfaceId ||... */\n      dup1\n      tag_122\n      jumpi\n      pop\n        /* \"High_Nft.sol\":20771:20808  type(IERC1155MetadataURI).interfaceId */\n      0x0e89341c00000000000000000000000000000000000000000000000000000000\n        /* \"High_Nft.sol\":20756:20808  interfaceId == type(IERC1155MetadataURI).interfaceId */\n      not(0xffffffffffffffffffffffffffffffffffffffffffffffffffffffff)\n      and\n        /* \"High_Nft.sol\":20756:20767  interfaceId */\n      dup3\n        /* \"High_Nft.sol\":20756:20808  interfaceId == type(IERC1155MetadataURI).interfaceId */\n      not(0xffffffffffffffffffffffffffffffffffffffffffffffffffffffff)\n      and\n      eq\n        /* \"High_Nft.sol\":20699:20808  interfaceId == type(IERC1155).interfaceId ||... */\n    tag_122:\n        /* \"High_Nft.sol\":20699:20860  interfaceId == type(IERC1155).interfaceId ||... */\n      dup1\n      tag_123\n      jumpi\n      pop\n        /* \"High_Nft.sol\":20824:20860  super.supportsInterface(interfaceId) */\n      tag_124\n        /* \"High_Nft.sol\":20848:20859  interfaceId */\n      dup3\n        /* \"High_Nft.sol\":20824:20847  super.supportsInterface */\n      tag_125\n        /* \"High_Nft.sol\":20824:20860  super.supportsInterface(interfaceId) */\n      jump\t// in\n    tag_124:\n        /* \"High_Nft.sol\":20699:20860  interfaceId == type(IERC1155).interfaceId ||... */\n    tag_123:\n        /* \"High_Nft.sol\":20680:20860  return... */\n      swap1\n      pop\n        /* \"High_Nft.sol\":20562:20867  function supportsInterface(bytes4 interfaceId) public view virtual override(ERC165, IERC165) returns (bool) {... */\n      swap2\n      swap1\n      pop\n      jump\t// out\n        /* \"High_Nft.sol\":34665:34692  uint256 public Token_Id = 0 */\n    tag_41:\n      sload(0x04)\n      dup2\n      jump\t// out\n        /* \"High_Nft.sol\":35919:36074  function set_NFT_contract (address NFT_address) public restricted{  ... */\n    tag_46:\n        /* \"High_Nft.sol\":35132:35137  admin */\n      0x05\n      0x00\n      swap1\n      sload\n      swap1\n      0x0100\n      exp\n      swap1\n      div\n      0xffffffffffffffffffffffffffffffffffffffff\n      and\n        /* \"High_Nft.sol\":35118:35137  msg.sender == admin */\n      0xffffffffffffffffffffffffffffffffffffffff\n      and\n        /* \"High_Nft.sol\":35118:35128  msg.sender */\n      caller\n        /* \"High_Nft.sol\":35118:35137  msg.sender == admin */\n      0xffffffffffffffffffffffffffffffffffffffff\n      and\n      eq\n        /* \"High_Nft.sol\":35100:35196  require(... */\n      tag_127\n      jumpi\n      mload(0x40)\n      0x08c379a000000000000000000000000000000000000000000000000000000000\n      dup2\n      mstore\n      0x04\n      add\n      tag_128\n      swap1\n      tag_129\n      jump\t// in\n    tag_128:\n      mload(0x40)\n      dup1\n      swap2\n      sub\n      swap1\n      revert\n    tag_127:\n        /* \"High_Nft.sol\":35996:36032  setApprovalForAll(NFT_address, true) */\n      tag_131\n        /* \"High_Nft.sol\":36014:36025  NFT_address */\n      dup2\n        /* \"High_Nft.sol\":36027:36031  true */\n      0x01\n        /* \"High_Nft.sol\":35996:36013  setApprovalForAll */\n      tag_83\n        /* \"High_Nft.sol\":35996:36032  setApprovalForAll(NFT_address, true) */\n      jump\t// in\n    tag_131:\n        /* \"High_Nft.sol\":36056:36067  NFT_address */\n      dup1\n        /* \"High_Nft.sol\":36042:36053  marketplace */\n      0x0a\n      0x00\n        /* \"High_Nft.sol\":36042:36067  marketplace = NFT_address */\n      0x0100\n      exp\n      dup2\n      sload\n      dup2\n      0xffffffffffffffffffffffffffffffffffffffff\n      mul\n      not\n      and\n      swap1\n      dup4\n      0xffffffffffffffffffffffffffffffffffffffff\n      and\n      mul\n      or\n      swap1\n      sstore\n      pop\n        /* \"High_Nft.sol\":35919:36074  function set_NFT_contract (address NFT_address) public restricted{  ... */\n      pop\n      jump\t// out\n        /* \"High_Nft.sol\":21266:21369  function uri(uint256) public view virtual override returns (string memory) {... */\n    tag_50:\n        /* \"High_Nft.sol\":21326:21339  string memory */\n      0x60\n        /* \"High_Nft.sol\":21358:21362  _uri */\n      0x02\n        /* \"High_Nft.sol\":21351:21362  return _uri */\n      dup1\n      sload\n      tag_133\n      swap1\n      tag_134\n      jump\t// in\n    tag_133:\n      dup1\n      0x1f\n      add\n      0x20\n      dup1\n      swap2\n      div\n      mul\n      0x20\n      add\n      mload(0x40)\n      swap1\n      dup2\n      add\n      0x40\n      mstore\n      dup1\n      swap3\n      swap2\n      swap1\n      dup2\n      dup2\n      mstore\n      0x20\n      add\n      dup3\n      dup1\n      sload\n      tag_135\n      swap1\n      tag_134\n      jump\t// in\n    tag_135:\n      dup1\n      iszero\n      tag_136\n      jumpi\n      dup1\n      0x1f\n      lt\n      tag_137\n      jumpi\n      0x0100\n      dup1\n      dup4\n      sload\n      div\n      mul\n      dup4\n      mstore\n      swap2\n      0x20\n      add\n      swap2\n      jump(tag_136)\n    tag_137:\n      dup3\n      add\n      swap2\n      swap1\n      0x00\n      mstore\n      keccak256(0x00, 0x20)\n      swap1\n    tag_138:\n      dup2\n      sload\n      dup2\n      mstore\n      swap1\n      0x01\n      add\n      swap1\n      0x20\n      add\n      dup1\n      dup4\n      gt\n      tag_138\n      jumpi\n      dup3\n      swap1\n      sub\n      0x1f\n      and\n      dup3\n      add\n      swap2\n    tag_136:\n      pop\n      pop\n      pop\n      pop\n      pop\n      swap1\n      pop\n        /* \"High_Nft.sol\":21266:21369  function uri(uint256) public view virtual override returns (string memory) {... */\n      swap2\n      swap1\n      pop\n      jump\t// out\n        /* \"High_Nft.sol\":23386:23816  function safeBatchTransferFrom(... */\n    tag_56:\n        /* \"High_Nft.sol\":23619:23631  _msgSender() */\n      tag_140\n        /* \"High_Nft.sol\":23619:23629  _msgSender */\n      tag_141\n        /* \"High_Nft.sol\":23619:23631  _msgSender() */\n      jump\t// in\n    tag_140:\n        /* \"High_Nft.sol\":23611:23631  from == _msgSender() */\n      0xffffffffffffffffffffffffffffffffffffffff\n      and\n        /* \"High_Nft.sol\":23611:23615  from */\n      dup6\n        /* \"High_Nft.sol\":23611:23631  from == _msgSender() */\n      0xffffffffffffffffffffffffffffffffffffffff\n      and\n      eq\n        /* \"High_Nft.sol\":23611:23671  from == _msgSender() || isApprovedForAll(from, _msgSender()) */\n      dup1\n      tag_142\n      jumpi\n      pop\n        /* \"High_Nft.sol\":23635:23671  isApprovedForAll(from, _msgSender()) */\n      tag_143\n        /* \"High_Nft.sol\":23652:23656  from */\n      dup6\n        /* \"High_Nft.sol\":23658:23670  _msgSender() */\n      tag_144\n        /* \"High_Nft.sol\":23658:23668  _msgSender */\n      tag_141\n        /* \"High_Nft.sol\":23658:23670  _msgSender() */\n      jump\t// in\n    tag_144:\n        /* \"High_Nft.sol\":23635:23651  isApprovedForAll */\n      tag_97\n        /* \"High_Nft.sol\":23635:23671  isApprovedForAll(from, _msgSender()) */\n      jump\t// in\n    tag_143:\n        /* \"High_Nft.sol\":23611:23671  from == _msgSender() || isApprovedForAll(from, _msgSender()) */\n    tag_142:\n        /* \"High_Nft.sol\":23590:23747  require(... */\n      tag_145\n      jumpi\n      mload(0x40)\n      0x08c379a000000000000000000000000000000000000000000000000000000000\n      dup2\n      mstore\n      0x04\n      add\n      tag_146\n      swap1\n      tag_147\n      jump\t// in\n    tag_146:\n      mload(0x40)\n      dup1\n      swap2\n      sub\n      swap1\n      revert\n    tag_145:\n        /* \"High_Nft.sol\":23757:23809  _safeBatchTransferFrom(from, to, ids, amounts, data) */\n      tag_148\n        /* \"High_Nft.sol\":23780:23784  from */\n      dup6\n        /* \"High_Nft.sol\":23786:23788  to */\n      dup6\n        /* \"High_Nft.sol\":23790:23793  ids */\n      dup6\n        /* \"High_Nft.sol\":23795:23802  amounts */\n      dup6\n        /* \"High_Nft.sol\":23804:23808  data */\n      dup6\n        /* \"High_Nft.sol\":23757:23779  _safeBatchTransferFrom */\n      tag_149\n        /* \"High_Nft.sol\":23757:23809  _safeBatchTransferFrom(from, to, ids, amounts, data) */\n      jump\t// in\n    tag_148:\n        /* \"High_Nft.sol\":23386:23816  function safeBatchTransferFrom(... */\n      pop\n      pop\n      pop\n      pop\n      pop\n      jump\t// out\n        /* \"High_Nft.sol\":34764:34820  mapping (address=> uint256) public _number_of_owned_nfts */\n    tag_59:\n      mstore(0x20, 0x07)\n      dup1\n      0x00\n      mstore\n      keccak256(0x00, 0x40)\n      0x00\n      swap2\n      pop\n      swap1\n      pop\n      sload\n      dup2\n      jump\t// out\n        /* \"High_Nft.sol\":21896:22404  function balanceOfBatch(address[] memory accounts, uint256[] memory ids)... */\n    tag_64:\n        /* \"High_Nft.sol\":22047:22063  uint256[] memory */\n      0x60\n        /* \"High_Nft.sol\":22106:22109  ids */\n      dup2\n        /* \"High_Nft.sol\":22106:22116  ids.length */\n      mload\n        /* \"High_Nft.sol\":22087:22095  accounts */\n      dup4\n        /* \"High_Nft.sol\":22087:22102  accounts.length */\n      mload\n        /* \"High_Nft.sol\":22087:22116  accounts.length == ids.length */\n      eq\n        /* \"High_Nft.sol\":22079:22162  require(accounts.length == ids.length, \"ERC1155: accounts and ids length mismatch\") */\n      tag_151\n      jumpi\n      mload(0x40)\n      0x08c379a000000000000000000000000000000000000000000000000000000000\n      dup2\n      mstore\n      0x04\n      add\n      tag_152\n      swap1\n      tag_153\n      jump\t// in\n    tag_152:\n      mload(0x40)\n      dup1\n      swap2\n      sub\n      swap1\n      revert\n    tag_151:\n        /* \"High_Nft.sol\":22173:22203  uint256[] memory batchBalances */\n      0x00\n        /* \"High_Nft.sol\":22220:22228  accounts */\n      dup4\n        /* \"High_Nft.sol\":22220:22235  accounts.length */\n      mload\n        /* \"High_Nft.sol\":22206:22236  new uint256[](accounts.length) */\n      0xffffffffffffffff\n      dup2\n      gt\n      iszero\n      tag_154\n      jumpi\n      tag_155\n      tag_156\n      jump\t// in\n    tag_155:\n    tag_154:\n      mload(0x40)\n      swap1\n      dup1\n      dup3\n      mstore\n      dup1\n      0x20\n      mul\n      0x20\n      add\n      dup3\n      add\n      0x40\n      mstore\n      dup1\n      iszero\n      tag_157\n      jumpi\n      dup2\n      0x20\n      add\n      0x20\n      dup3\n      mul\n      dup1\n      calldatasize\n      dup4\n      calldatacopy\n      dup1\n      dup3\n      add\n      swap2\n      pop\n      pop\n      swap1\n      pop\n    tag_157:\n      pop\n        /* \"High_Nft.sol\":22173:22236  uint256[] memory batchBalances = new uint256[](accounts.length) */\n      swap1\n      pop\n        /* \"High_Nft.sol\":22252:22261  uint256 i */\n      0x00\n        /* \"High_Nft.sol\":22247:22367  for (uint256 i = 0; i < accounts.length; ++i) {... */\n    tag_158:\n        /* \"High_Nft.sol\":22271:22279  accounts */\n      dup5\n        /* \"High_Nft.sol\":22271:22286  accounts.length */\n      mload\n        /* \"High_Nft.sol\":22267:22268  i */\n      dup2\n        /* \"High_Nft.sol\":22267:22286  i < accounts.length */\n      lt\n        /* \"High_Nft.sol\":22247:22367  for (uint256 i = 0; i < accounts.length; ++i) {... */\n      iszero\n      tag_159\n      jumpi\n        /* \"High_Nft.sol\":22326:22356  balanceOf(accounts[i], ids[i]) */\n      tag_161\n        /* \"High_Nft.sol\":22336:22344  accounts */\n      dup6\n        /* \"High_Nft.sol\":22345:22346  i */\n      dup3\n        /* \"High_Nft.sol\":22336:22347  accounts[i] */\n      dup2\n      mload\n      dup2\n      lt\n      tag_162\n      jumpi\n      tag_163\n      tag_164\n      jump\t// in\n    tag_163:\n    tag_162:\n      0x20\n      mul\n      0x20\n      add\n      add\n      mload\n        /* \"High_Nft.sol\":22349:22352  ids */\n      dup6\n        /* \"High_Nft.sol\":22353:22354  i */\n      dup4\n        /* \"High_Nft.sol\":22349:22355  ids[i] */\n      dup2\n      mload\n      dup2\n      lt\n      tag_165\n      jumpi\n      tag_166\n      tag_164\n      jump\t// in\n    tag_166:\n    tag_165:\n      0x20\n      mul\n      0x20\n      add\n      add\n      mload\n        /* \"High_Nft.sol\":22326:22335  balanceOf */\n      tag_31\n        /* \"High_Nft.sol\":22326:22356  balanceOf(accounts[i], ids[i]) */\n      jump\t// in\n    tag_161:\n        /* \"High_Nft.sol\":22307:22320  batchBalances */\n      dup3\n        /* \"High_Nft.sol\":22321:22322  i */\n      dup3\n        /* \"High_Nft.sol\":22307:22323  batchBalances[i] */\n      dup2\n      mload\n      dup2\n      lt\n      tag_167\n      jumpi\n      tag_168\n      tag_164\n      jump\t// in\n    tag_168:\n    tag_167:\n      0x20\n      mul\n      0x20\n      add\n      add\n        /* \"High_Nft.sol\":22307:22356  batchBalances[i] = balanceOf(accounts[i], ids[i]) */\n      dup2\n      dup2\n      mstore\n      pop\n      pop\n        /* \"High_Nft.sol\":22288:22291  ++i */\n      dup1\n      tag_169\n      swap1\n      tag_170\n      jump\t// in\n    tag_169:\n      swap1\n      pop\n        /* \"High_Nft.sol\":22247:22367  for (uint256 i = 0; i < accounts.length; ++i) {... */\n      jump(tag_158)\n    tag_159:\n      pop\n        /* \"High_Nft.sol\":22384:22397  batchBalances */\n      dup1\n        /* \"High_Nft.sol\":22377:22397  return batchBalances */\n      swap2\n      pop\n      pop\n        /* \"High_Nft.sol\":21896:22404  function balanceOfBatch(address[] memory accounts, uint256[] memory ids)... */\n      swap3\n      swap2\n      pop\n      pop\n      jump\t// out\n        /* \"High_Nft.sol\":18981:19073  function renounceOwnership() public virtual onlyOwner {... */\n    tag_68:\n        /* \"High_Nft.sol\":18572:18584  _msgSender() */\n      tag_172\n        /* \"High_Nft.sol\":18572:18582  _msgSender */\n      tag_141\n        /* \"High_Nft.sol\":18572:18584  _msgSender() */\n      jump\t// in\n    tag_172:\n        /* \"High_Nft.sol\":18561:18584  owner() == _msgSender() */\n      0xffffffffffffffffffffffffffffffffffffffff\n      and\n        /* \"High_Nft.sol\":18561:18568  owner() */\n      tag_173\n        /* \"High_Nft.sol\":18561:18566  owner */\n      tag_70\n        /* \"High_Nft.sol\":18561:18568  owner() */\n      jump\t// in\n    tag_173:\n        /* \"High_Nft.sol\":18561:18584  owner() == _msgSender() */\n      0xffffffffffffffffffffffffffffffffffffffff\n      and\n      eq\n        /* \"High_Nft.sol\":18553:18621  require(owner() == _msgSender(), \"Ownable: caller is not the owner\") */\n      tag_174\n      jumpi\n      mload(0x40)\n      0x08c379a000000000000000000000000000000000000000000000000000000000\n      dup2\n      mstore\n      0x04\n      add\n      tag_175\n      swap1\n      tag_176\n      jump\t// in\n    tag_175:\n      mload(0x40)\n      dup1\n      swap2\n      sub\n      swap1\n      revert\n    tag_174:\n        /* \"High_Nft.sol\":19045:19066  _setOwner(address(0)) */\n      tag_178\n        /* \"High_Nft.sol\":19063:19064  0 */\n      0x00\n        /* \"High_Nft.sol\":19045:19054  _setOwner */\n      tag_179\n        /* \"High_Nft.sol\":19045:19066  _setOwner(address(0)) */\n      jump\t// in\n    tag_178:\n        /* \"High_Nft.sol\":18981:19073  function renounceOwnership() public virtual onlyOwner {... */\n      jump\t// out\n        /* \"High_Nft.sol\":18349:18434  function owner() public view virtual returns (address) {... */\n    tag_70:\n        /* \"High_Nft.sol\":18395:18402  address */\n      0x00\n        /* \"High_Nft.sol\":18421:18427  _owner */\n      0x03\n      0x00\n      swap1\n      sload\n      swap1\n      0x0100\n      exp\n      swap1\n      div\n      0xffffffffffffffffffffffffffffffffffffffff\n      and\n        /* \"High_Nft.sol\":18414:18427  return _owner */\n      swap1\n      pop\n        /* \"High_Nft.sol\":18349:18434  function owner() public view virtual returns (address) {... */\n      swap1\n      jump\t// out\n        /* \"High_Nft.sol\":34823:34866  mapping (uint256 => address) public _owners */\n    tag_75:\n      mstore(0x20, 0x08)\n      dup1\n      0x00\n      mstore\n      keccak256(0x00, 0x40)\n      0x00\n      swap2\n      pop\n      sload\n      swap1\n      0x0100\n      exp\n      swap1\n      div\n      0xffffffffffffffffffffffffffffffffffffffff\n      and\n      dup2\n      jump\t// out\n        /* \"High_Nft.sol\":36082:36211  function burn(address account, uint256 id) public ... */\n    tag_79:\n        /* \"High_Nft.sol\":36166:36173  account */\n      dup2\n        /* \"High_Nft.sol\":36152:36173  msg.sender == account */\n      0xffffffffffffffffffffffffffffffffffffffff\n      and\n        /* \"High_Nft.sol\":36152:36162  msg.sender */\n      caller\n        /* \"High_Nft.sol\":36152:36173  msg.sender == account */\n      0xffffffffffffffffffffffffffffffffffffffff\n      and\n      eq\n        /* \"High_Nft.sol\":36143:36174  require (msg.sender == account) */\n      tag_182\n      jumpi\n      0x00\n      dup1\n      revert\n    tag_182:\n        /* \"High_Nft.sol\":36183:36204  _burn(account, id, 1) */\n      tag_183\n        /* \"High_Nft.sol\":36189:36196  account */\n      dup3\n        /* \"High_Nft.sol\":36198:36200  id */\n      dup3\n        /* \"High_Nft.sol\":36202:36203  1 */\n      0x01\n        /* \"High_Nft.sol\":36183:36188  _burn */\n      tag_184\n        /* \"High_Nft.sol\":36183:36204  _burn(account, id, 1) */\n      jump\t// in\n    tag_183:\n        /* \"High_Nft.sol\":36082:36211  function burn(address account, uint256 id) public ... */\n      pop\n      pop\n      jump\t// out\n        /* \"High_Nft.sol\":22472:22625  function setApprovalForAll(address operator, bool approved) public virtual override {... */\n    tag_83:\n        /* \"High_Nft.sol\":22566:22618  _setApprovalForAll(_msgSender(), operator, approved) */\n      tag_186\n        /* \"High_Nft.sol\":22585:22597  _msgSender() */\n      tag_187\n        /* \"High_Nft.sol\":22585:22595  _msgSender */\n      tag_141\n        /* \"High_Nft.sol\":22585:22597  _msgSender() */\n      jump\t// in\n    tag_187:\n        /* \"High_Nft.sol\":22599:22607  operator */\n      dup4\n        /* \"High_Nft.sol\":22609:22617  approved */\n      dup4\n        /* \"High_Nft.sol\":22566:22584  _setApprovalForAll */\n      tag_188\n        /* \"High_Nft.sol\":22566:22618  _setApprovalForAll(_msgSender(), operator, approved) */\n      jump\t// in\n    tag_186:\n        /* \"High_Nft.sol\":22472:22625  function setApprovalForAll(address operator, bool approved) public virtual override {... */\n      pop\n      pop\n      jump\t// out\n        /* \"High_Nft.sol\":34926:34952  address public marketplace */\n    tag_85:\n      0x0a\n      0x00\n      swap1\n      sload\n      swap1\n      0x0100\n      exp\n      swap1\n      div\n      0xffffffffffffffffffffffffffffffffffffffff\n      and\n      dup2\n      jump\t// out\n        /* \"High_Nft.sol\":35562:35909  function mint (string memory newuri) public {... */\n    tag_90:\n        /* \"High_Nft.sol\":35617:35632  address account */\n      0x00\n        /* \"High_Nft.sol\":35635:35645  msg.sender */\n      caller\n        /* \"High_Nft.sol\":35617:35645  address account = msg.sender */\n      swap1\n      pop\n        /* \"High_Nft.sol\":35655:35685  _mint(account, Token_Id, 1,\"\") */\n      tag_190\n        /* \"High_Nft.sol\":35661:35668  account */\n      dup2\n        /* \"High_Nft.sol\":35670:35678  Token_Id */\n      sload(0x04)\n        /* \"High_Nft.sol\":35680:35681  1 */\n      0x01\n        /* \"High_Nft.sol\":35655:35685  _mint(account, Token_Id, 1,\"\") */\n      mload(0x40)\n      dup1\n      0x20\n      add\n      0x40\n      mstore\n      dup1\n      0x00\n      dup2\n      mstore\n      pop\n        /* \"High_Nft.sol\":35655:35660  _mint */\n      tag_191\n        /* \"High_Nft.sol\":35655:35685  _mint(account, Token_Id, 1,\"\") */\n      jump\t// in\n    tag_190:\n        /* \"High_Nft.sol\":35695:35710  _setURI(newuri) */\n      tag_192\n        /* \"High_Nft.sol\":35703:35709  newuri */\n      dup3\n        /* \"High_Nft.sol\":35695:35702  _setURI */\n      tag_193\n        /* \"High_Nft.sol\":35695:35710  _setURI(newuri) */\n      jump\t// in\n    tag_192:\n        /* \"High_Nft.sol\":35740:35746  newuri */\n      dup2\n        /* \"High_Nft.sol\":35720:35727  _tokens */\n      0x06\n        /* \"High_Nft.sol\":35720:35737  _tokens[Token_Id] */\n      0x00\n        /* \"High_Nft.sol\":35728:35736  Token_Id */\n      sload(0x04)\n        /* \"High_Nft.sol\":35720:35737  _tokens[Token_Id] */\n      dup2\n      mstore\n      0x20\n      add\n      swap1\n      dup2\n      mstore\n      0x20\n      add\n      0x00\n      keccak256\n        /* \"High_Nft.sol\":35720:35746  _tokens[Token_Id] = newuri */\n      swap1\n      dup1\n      mload\n      swap1\n      0x20\n      add\n      swap1\n      tag_194\n      swap3\n      swap2\n      swap1\n      tag_195\n      jump\t// in\n    tag_194:\n      pop\n        /* \"High_Nft.sol\":35776:35786  msg.sender */\n      caller\n        /* \"High_Nft.sol\":35756:35763  _owners */\n      0x08\n        /* \"High_Nft.sol\":35756:35773  _owners[Token_Id] */\n      0x00\n        /* \"High_Nft.sol\":35764:35772  Token_Id */\n      sload(0x04)\n        /* \"High_Nft.sol\":35756:35773  _owners[Token_Id] */\n      dup2\n      mstore\n      0x20\n      add\n      swap1\n      dup2\n      mstore\n      0x20\n      add\n      0x00\n      keccak256\n      0x00\n        /* \"High_Nft.sol\":35756:35786  _owners[Token_Id] = msg.sender */\n      0x0100\n      exp\n      dup2\n      sload\n      dup2\n      0xffffffffffffffffffffffffffffffffffffffff\n      mul\n      not\n      and\n      swap1\n      dup4\n      0xffffffffffffffffffffffffffffffffffffffff\n      and\n      mul\n      or\n      swap1\n      sstore\n      pop\n        /* \"High_Nft.sol\":35832:35833  1 */\n      0x01\n        /* \"High_Nft.sol\":35796:35817  _number_of_owned_nfts */\n      0x07\n        /* \"High_Nft.sol\":35796:35829  _number_of_owned_nfts[msg.sender] */\n      0x00\n        /* \"High_Nft.sol\":35818:35828  msg.sender */\n      caller\n        /* \"High_Nft.sol\":35796:35829  _number_of_owned_nfts[msg.sender] */\n      0xffffffffffffffffffffffffffffffffffffffff\n      and\n      0xffffffffffffffffffffffffffffffffffffffff\n      and\n      dup2\n      mstore\n      0x20\n      add\n      swap1\n      dup2\n      mstore\n      0x20\n      add\n      0x00\n      keccak256\n      0x00\n        /* \"High_Nft.sol\":35796:35833  _number_of_owned_nfts[msg.sender] +=1 */\n      dup3\n      dup3\n      sload\n      tag_196\n      swap2\n      swap1\n      tag_197\n      jump\t// in\n    tag_196:\n      swap3\n      pop\n      pop\n      dup2\n      swap1\n      sstore\n      pop\n        /* \"High_Nft.sol\":35855:35856  1 */\n      0x01\n        /* \"High_Nft.sol\":35843:35851  Token_Id */\n      0x04\n      0x00\n        /* \"High_Nft.sol\":35843:35856  Token_Id += 1 */\n      dup3\n      dup3\n      sload\n      tag_198\n      swap2\n      swap1\n      tag_197\n      jump\t// in\n    tag_198:\n      swap3\n      pop\n      pop\n      dup2\n      swap1\n      sstore\n      pop\n        /* \"High_Nft.sol\":35866:35902  setApprovalForAll(marketplace, true) */\n      tag_199\n        /* \"High_Nft.sol\":35884:35895  marketplace */\n      0x0a\n      0x00\n      swap1\n      sload\n      swap1\n      0x0100\n      exp\n      swap1\n      div\n      0xffffffffffffffffffffffffffffffffffffffff\n      and\n        /* \"High_Nft.sol\":35897:35901  true */\n      0x01\n        /* \"High_Nft.sol\":35866:35883  setApprovalForAll */\n      tag_83\n        /* \"High_Nft.sol\":35866:35902  setApprovalForAll(marketplace, true) */\n      jump\t// in\n    tag_199:\n        /* \"High_Nft.sol\":35606:35909  {... */\n      pop\n        /* \"High_Nft.sol\":35562:35909  function mint (string memory newuri) public {... */\n      pop\n      jump\t// out\n        /* \"High_Nft.sol\":34955:35065  string public contractURI = \"https://gateway.pinata.cloud/ipfs/QmaJzRMGxW1YaGDaNzjHtntNaCnknisbBo1pLQ3oYHMqCs\" */\n    tag_92:\n      0x0b\n      dup1\n      sload\n      tag_200\n      swap1\n      tag_134\n      jump\t// in\n    tag_200:\n      dup1\n      0x1f\n      add\n      0x20\n      dup1\n      swap2\n      div\n      mul\n      0x20\n      add\n      mload(0x40)\n      swap1\n      dup2\n      add\n      0x40\n      mstore\n      dup1\n      swap3\n      swap2\n      swap1\n      dup2\n      dup2\n      mstore\n      0x20\n      add\n      dup3\n      dup1\n      sload\n      tag_201\n      swap1\n      tag_134\n      jump\t// in\n    tag_201:\n      dup1\n      iszero\n      tag_202\n      jumpi\n      dup1\n      0x1f\n      lt\n      tag_203\n      jumpi\n      0x0100\n      dup1\n      dup4\n      sload\n      div\n      mul\n      dup4\n      mstore\n      swap2\n      0x20\n      add\n      swap2\n      jump(tag_202)\n    tag_203:\n      dup3\n      add\n      swap2\n      swap1\n      0x00\n      mstore\n      keccak256(0x00, 0x20)\n      swap1\n    tag_204:\n      dup2\n      sload\n      dup2\n      mstore\n      swap1\n      0x01\n      add\n      swap1\n      0x20\n      add\n      dup1\n      dup4\n      gt\n      tag_204\n      jumpi\n      dup3\n      swap1\n      sub\n      0x1f\n      and\n      dup3\n      add\n      swap2\n    tag_202:\n      pop\n      pop\n      pop\n      pop\n      pop\n      dup2\n      jump\t// out\n        /* \"High_Nft.sol\":22692:22858  function isApprovedForAll(address account, address operator) public view virtual override returns (bool) {... */\n    tag_97:\n        /* \"High_Nft.sol\":22791:22795  bool */\n      0x00\n        /* \"High_Nft.sol\":22814:22832  _operatorApprovals */\n      0x01\n        /* \"High_Nft.sol\":22814:22841  _operatorApprovals[account] */\n      0x00\n        /* \"High_Nft.sol\":22833:22840  account */\n      dup5\n        /* \"High_Nft.sol\":22814:22841  _operatorApprovals[account] */\n      0xffffffffffffffffffffffffffffffffffffffff\n      and\n      0xffffffffffffffffffffffffffffffffffffffff\n      and\n      dup2\n      mstore\n      0x20\n      add\n      swap1\n      dup2\n      mstore\n      0x20\n      add\n      0x00\n      keccak256\n        /* \"High_Nft.sol\":22814:22851  _operatorApprovals[account][operator] */\n      0x00\n        /* \"High_Nft.sol\":22842:22850  operator */\n      dup4\n        /* \"High_Nft.sol\":22814:22851  _operatorApprovals[account][operator] */\n      0xffffffffffffffffffffffffffffffffffffffff\n      and\n      0xffffffffffffffffffffffffffffffffffffffff\n      and\n      dup2\n      mstore\n      0x20\n      add\n      swap1\n      dup2\n      mstore\n      0x20\n      add\n      0x00\n      keccak256\n      0x00\n      swap1\n      sload\n      swap1\n      0x0100\n      exp\n      swap1\n      div\n      0xff\n      and\n        /* \"High_Nft.sol\":22807:22851  return _operatorApprovals[account][operator] */\n      swap1\n      pop\n        /* \"High_Nft.sol\":22692:22858  function isApprovedForAll(address account, address operator) public view virtual override returns (bool) {... */\n      swap3\n      swap2\n      pop\n      pop\n      jump\t// out\n        /* \"High_Nft.sol\":34719:34761  mapping (uint256 => string) public _tokens */\n    tag_101:\n      mstore(0x20, 0x06)\n      dup1\n      0x00\n      mstore\n      keccak256(0x00, 0x40)\n      0x00\n      swap2\n      pop\n      swap1\n      pop\n      dup1\n      sload\n      tag_206\n      swap1\n      tag_134\n      jump\t// in\n    tag_206:\n      dup1\n      0x1f\n      add\n      0x20\n      dup1\n      swap2\n      div\n      mul\n      0x20\n      add\n      mload(0x40)\n      swap1\n      dup2\n      add\n      0x40\n      mstore\n      dup1\n      swap3\n      swap2\n      swap1\n      dup2\n      dup2\n      mstore\n      0x20\n      add\n      dup3\n      dup1\n      sload\n      tag_207\n      swap1\n      tag_134\n      jump\t// in\n    tag_207:\n      dup1\n      iszero\n      tag_208\n      jumpi\n      dup1\n      0x1f\n      lt\n      tag_209\n      jumpi\n      0x0100\n      dup1\n      dup4\n      sload\n      div\n      mul\n      dup4\n      mstore\n      swap2\n      0x20\n      add\n      swap2\n      jump(tag_208)\n    tag_209:\n      dup3\n      add\n      swap2\n      swap1\n      0x00\n      mstore\n      keccak256(0x00, 0x20)\n      swap1\n    tag_210:\n      dup2\n      sload\n      dup2\n      mstore\n      swap1\n      0x01\n      add\n      swap1\n      0x20\n      add\n      dup1\n      dup4\n      gt\n      tag_210\n      jumpi\n      dup3\n      swap1\n      sub\n      0x1f\n      and\n      dup3\n      add\n      swap2\n    tag_208:\n      pop\n      pop\n      pop\n      pop\n      pop\n      dup2\n      jump\t// out\n        /* \"High_Nft.sol\":22925:23314  function safeTransferFrom(... */\n    tag_106:\n        /* \"High_Nft.sol\":23133:23145  _msgSender() */\n      tag_212\n        /* \"High_Nft.sol\":23133:23143  _msgSender */\n      tag_141\n        /* \"High_Nft.sol\":23133:23145  _msgSender() */\n      jump\t// in\n    tag_212:\n        /* \"High_Nft.sol\":23125:23145  from == _msgSender() */\n      0xffffffffffffffffffffffffffffffffffffffff\n      and\n        /* \"High_Nft.sol\":23125:23129  from */\n      dup6\n        /* \"High_Nft.sol\":23125:23145  from == _msgSender() */\n      0xffffffffffffffffffffffffffffffffffffffff\n      and\n      eq\n        /* \"High_Nft.sol\":23125:23185  from == _msgSender() || isApprovedForAll(from, _msgSender()) */\n      dup1\n      tag_213\n      jumpi\n      pop\n        /* \"High_Nft.sol\":23149:23185  isApprovedForAll(from, _msgSender()) */\n      tag_214\n        /* \"High_Nft.sol\":23166:23170  from */\n      dup6\n        /* \"High_Nft.sol\":23172:23184  _msgSender() */\n      tag_215\n        /* \"High_Nft.sol\":23172:23182  _msgSender */\n      tag_141\n        /* \"High_Nft.sol\":23172:23184  _msgSender() */\n      jump\t// in\n    tag_215:\n        /* \"High_Nft.sol\":23149:23165  isApprovedForAll */\n      tag_97\n        /* \"High_Nft.sol\":23149:23185  isApprovedForAll(from, _msgSender()) */\n      jump\t// in\n    tag_214:\n        /* \"High_Nft.sol\":23125:23185  from == _msgSender() || isApprovedForAll(from, _msgSender()) */\n    tag_213:\n        /* \"High_Nft.sol\":23104:23252  require(... */\n      tag_216\n      jumpi\n      mload(0x40)\n      0x08c379a000000000000000000000000000000000000000000000000000000000\n      dup2\n      mstore\n      0x04\n      add\n      tag_217\n      swap1\n      tag_218\n      jump\t// in\n    tag_217:\n      mload(0x40)\n      dup1\n      swap2\n      sub\n      swap1\n      revert\n    tag_216:\n        /* \"High_Nft.sol\":23262:23307  _safeTransferFrom(from, to, id, amount, data) */\n      tag_219\n        /* \"High_Nft.sol\":23280:23284  from */\n      dup6\n        /* \"High_Nft.sol\":23286:23288  to */\n      dup6\n        /* \"High_Nft.sol\":23290:23292  id */\n      dup6\n        /* \"High_Nft.sol\":23294:23300  amount */\n      dup6\n        /* \"High_Nft.sol\":23302:23306  data */\n      dup6\n        /* \"High_Nft.sol\":23262:23279  _safeTransferFrom */\n      tag_220\n        /* \"High_Nft.sol\":23262:23307  _safeTransferFrom(from, to, id, amount, data) */\n      jump\t// in\n    tag_219:\n        /* \"High_Nft.sol\":22925:23314  function safeTransferFrom(... */\n      pop\n      pop\n      pop\n      pop\n      pop\n      jump\t// out\n        /* \"High_Nft.sol\":19222:19411  function transferOwnership(address newOwner) public virtual onlyOwner {... */\n    tag_109:\n        /* \"High_Nft.sol\":18572:18584  _msgSender() */\n      tag_222\n        /* \"High_Nft.sol\":18572:18582  _msgSender */\n      tag_141\n        /* \"High_Nft.sol\":18572:18584  _msgSender() */\n      jump\t// in\n    tag_222:\n        /* \"High_Nft.sol\":18561:18584  owner() == _msgSender() */\n      0xffffffffffffffffffffffffffffffffffffffff\n      and\n        /* \"High_Nft.sol\":18561:18568  owner() */\n      tag_223\n        /* \"High_Nft.sol\":18561:18566  owner */\n      tag_70\n        /* \"High_Nft.sol\":18561:18568  owner() */\n      jump\t// in\n    tag_223:\n        /* \"High_Nft.sol\":18561:18584  owner() == _msgSender() */\n      0xffffffffffffffffffffffffffffffffffffffff\n      and\n      eq\n        /* \"High_Nft.sol\":18553:18621  require(owner() == _msgSender(), \"Ownable: caller is not the owner\") */\n      tag_224\n      jumpi\n      mload(0x40)\n      0x08c379a000000000000000000000000000000000000000000000000000000000\n      dup2\n      mstore\n      0x04\n      add\n      tag_225\n      swap1\n      tag_176\n      jump\t// in\n    tag_225:\n      mload(0x40)\n      dup1\n      swap2\n      sub\n      swap1\n      revert\n    tag_224:\n        /* \"High_Nft.sol\":19330:19331  0 */\n      0x00\n        /* \"High_Nft.sol\":19310:19332  newOwner != address(0) */\n      0xffffffffffffffffffffffffffffffffffffffff\n      and\n        /* \"High_Nft.sol\":19310:19318  newOwner */\n      dup2\n        /* \"High_Nft.sol\":19310:19332  newOwner != address(0) */\n      0xffffffffffffffffffffffffffffffffffffffff\n      and\n      eq\n      iszero\n        /* \"High_Nft.sol\":19302:19375  require(newOwner != address(0), \"Ownable: new owner is the zero address\") */\n      tag_227\n      jumpi\n      mload(0x40)\n      0x08c379a000000000000000000000000000000000000000000000000000000000\n      dup2\n      mstore\n      0x04\n      add\n      tag_228\n      swap1\n      tag_229\n      jump\t// in\n    tag_228:\n      mload(0x40)\n      dup1\n      swap2\n      sub\n      swap1\n      revert\n    tag_227:\n        /* \"High_Nft.sol\":19385:19404  _setOwner(newOwner) */\n      tag_230\n        /* \"High_Nft.sol\":19395:19403  newOwner */\n      dup2\n        /* \"High_Nft.sol\":19385:19394  _setOwner */\n      tag_179\n        /* \"High_Nft.sol\":19385:19404  _setOwner(newOwner) */\n      jump\t// in\n    tag_230:\n        /* \"High_Nft.sol\":19222:19411  function transferOwnership(address newOwner) public virtual onlyOwner {... */\n      pop\n      jump\t// out\n        /* \"High_Nft.sol\":34696:34716  address public admin */\n    tag_111:\n      0x05\n      0x00\n      swap1\n      sload\n      swap1\n      0x0100\n      exp\n      swap1\n      div\n      0xffffffffffffffffffffffffffffffffffffffff\n      and\n      dup2\n      jump\t// out\n        /* \"High_Nft.sol\":34869:34923  address public address_of_nft_contract = address(this) */\n    tag_114:\n      0x09\n      0x00\n      swap1\n      sload\n      swap1\n      0x0100\n      exp\n      swap1\n      div\n      0xffffffffffffffffffffffffffffffffffffffff\n      and\n      dup2\n      jump\t// out\n        /* \"High_Nft.sol\":9262:9639  function isContract(address account) internal view returns (bool) {... */\n    tag_116:\n        /* \"High_Nft.sol\":9322:9326  bool */\n      0x00\n        /* \"High_Nft.sol\":9525:9537  uint256 size */\n      dup1\n        /* \"High_Nft.sol\":9590:9597  account */\n      dup3\n        /* \"High_Nft.sol\":9578:9598  extcodesize(account) */\n      extcodesize\n        /* \"High_Nft.sol\":9570:9598  size := extcodesize(account) */\n      swap1\n      pop\n        /* \"High_Nft.sol\":9631:9632  0 */\n      0x00\n        /* \"High_Nft.sol\":9624:9628  size */\n      dup2\n        /* \"High_Nft.sol\":9624:9632  size > 0 */\n      gt\n        /* \"High_Nft.sol\":9617:9632  return size > 0 */\n      swap2\n      pop\n      pop\n        /* \"High_Nft.sol\":9262:9639  function isContract(address account) internal view returns (bool) {... */\n      swap2\n      swap1\n      pop\n      jump\t// out\n        /* \"High_Nft.sol\":17227:17382  function supportsInterface(bytes4 interfaceId) public view virtual override returns (bool) {... */\n    tag_125:\n        /* \"High_Nft.sol\":17312:17316  bool */\n      0x00\n        /* \"High_Nft.sol\":17350:17375  type(IERC165).interfaceId */\n      0x01ffc9a700000000000000000000000000000000000000000000000000000000\n        /* \"High_Nft.sol\":17335:17375  interfaceId == type(IERC165).interfaceId */\n      not(0xffffffffffffffffffffffffffffffffffffffffffffffffffffffff)\n      and\n        /* \"High_Nft.sol\":17335:17346  interfaceId */\n      dup3\n        /* \"High_Nft.sol\":17335:17375  interfaceId == type(IERC165).interfaceId */\n      not(0xffffffffffffffffffffffffffffffffffffffffffffffffffffffff)\n      and\n      eq\n        /* \"High_Nft.sol\":17328:17375  return interfaceId == type(IERC165).interfaceId */\n      swap1\n      pop\n        /* \"High_Nft.sol\":17227:17382  function supportsInterface(bytes4 interfaceId) public view virtual override returns (bool) {... */\n      swap2\n      swap1\n      pop\n      jump\t// out\n        /* \"High_Nft.sol\":587:683  function _msgSender() internal view virtual returns (address) {... */\n    tag_141:\n        /* \"High_Nft.sol\":640:647  address */\n      0x00\n        /* \"High_Nft.sol\":666:676  msg.sender */\n      caller\n        /* \"High_Nft.sol\":659:676  return msg.sender */\n      swap1\n      pop\n        /* \"High_Nft.sol\":587:683  function _msgSender() internal view virtual returns (address) {... */\n      swap1\n      jump\t// out\n        /* \"High_Nft.sol\":25409:26454  function _safeBatchTransferFrom(... */\n    tag_149:\n        /* \"High_Nft.sol\":25629:25636  amounts */\n      dup2\n        /* \"High_Nft.sol\":25629:25643  amounts.length */\n      mload\n        /* \"High_Nft.sol\":25615:25618  ids */\n      dup4\n        /* \"High_Nft.sol\":25615:25625  ids.length */\n      mload\n        /* \"High_Nft.sol\":25615:25643  ids.length == amounts.length */\n      eq\n        /* \"High_Nft.sol\":25607:25688  require(ids.length == amounts.length, \"ERC1155: ids and amounts length mismatch\") */\n      tag_235\n      jumpi\n      mload(0x40)\n      0x08c379a000000000000000000000000000000000000000000000000000000000\n      dup2\n      mstore\n      0x04\n      add\n      tag_236\n      swap1\n      tag_237\n      jump\t// in\n    tag_236:\n      mload(0x40)\n      dup1\n      swap2\n      sub\n      swap1\n      revert\n    tag_235:\n        /* \"High_Nft.sol\":25720:25721  0 */\n      0x00\n        /* \"High_Nft.sol\":25706:25722  to != address(0) */\n      0xffffffffffffffffffffffffffffffffffffffff\n      and\n        /* \"High_Nft.sol\":25706:25708  to */\n      dup5\n        /* \"High_Nft.sol\":25706:25722  to != address(0) */\n      0xffffffffffffffffffffffffffffffffffffffff\n      and\n      eq\n      iszero\n        /* \"High_Nft.sol\":25698:25764  require(to != address(0), \"ERC1155: transfer to the zero address\") */\n      tag_238\n      jumpi\n      mload(0x40)\n      0x08c379a000000000000000000000000000000000000000000000000000000000\n      dup2\n      mstore\n      0x04\n      add\n      tag_239\n      swap1\n      tag_240\n      jump\t// in\n    tag_239:\n      mload(0x40)\n      dup1\n      swap2\n      sub\n      swap1\n      revert\n    tag_238:\n        /* \"High_Nft.sol\":25775:25791  address operator */\n      0x00\n        /* \"High_Nft.sol\":25794:25806  _msgSender() */\n      tag_241\n        /* \"High_Nft.sol\":25794:25804  _msgSender */\n      tag_141\n        /* \"High_Nft.sol\":25794:25806  _msgSender() */\n      jump\t// in\n    tag_241:\n        /* \"High_Nft.sol\":25775:25806  address operator = _msgSender() */\n      swap1\n      pop\n        /* \"High_Nft.sol\":25817:25877  _beforeTokenTransfer(operator, from, to, ids, amounts, data) */\n      tag_242\n        /* \"High_Nft.sol\":25838:25846  operator */\n      dup2\n        /* \"High_Nft.sol\":25848:25852  from */\n      dup8\n        /* \"High_Nft.sol\":25854:25856  to */\n      dup8\n        /* \"High_Nft.sol\":25858:25861  ids */\n      dup8\n        /* \"High_Nft.sol\":25863:25870  amounts */\n      dup8\n        /* \"High_Nft.sol\":25872:25876  data */\n      dup8\n        /* \"High_Nft.sol\":25817:25837  _beforeTokenTransfer */\n      tag_243\n        /* \"High_Nft.sol\":25817:25877  _beforeTokenTransfer(operator, from, to, ids, amounts, data) */\n      jump\t// in\n    tag_242:\n        /* \"High_Nft.sol\":25893:25902  uint256 i */\n      0x00\n        /* \"High_Nft.sol\":25888:26299  for (uint256 i = 0; i < ids.length; ++i) {... */\n    tag_244:\n        /* \"High_Nft.sol\":25912:25915  ids */\n      dup5\n        /* \"High_Nft.sol\":25912:25922  ids.length */\n      mload\n        /* \"High_Nft.sol\":25908:25909  i */\n      dup2\n        /* \"High_Nft.sol\":25908:25922  i < ids.length */\n      lt\n        /* \"High_Nft.sol\":25888:26299  for (uint256 i = 0; i < ids.length; ++i) {... */\n      iszero\n      tag_245\n      jumpi\n        /* \"High_Nft.sol\":25943:25953  uint256 id */\n      0x00\n        /* \"High_Nft.sol\":25956:25959  ids */\n      dup6\n        /* \"High_Nft.sol\":25960:25961  i */\n      dup3\n        /* \"High_Nft.sol\":25956:25962  ids[i] */\n      dup2\n      mload\n      dup2\n      lt\n      tag_247\n      jumpi\n      tag_248\n      tag_164\n      jump\t// in\n    tag_248:\n    tag_247:\n      0x20\n      mul\n      0x20\n      add\n      add\n      mload\n        /* \"High_Nft.sol\":25943:25962  uint256 id = ids[i] */\n      swap1\n      pop\n        /* \"High_Nft.sol\":25976:25990  uint256 amount */\n      0x00\n        /* \"High_Nft.sol\":25993:26000  amounts */\n      dup6\n        /* \"High_Nft.sol\":26001:26002  i */\n      dup4\n        /* \"High_Nft.sol\":25993:26003  amounts[i] */\n      dup2\n      mload\n      dup2\n      lt\n      tag_249\n      jumpi\n      tag_250\n      tag_164\n      jump\t// in\n    tag_250:\n    tag_249:\n      0x20\n      mul\n      0x20\n      add\n      add\n      mload\n        /* \"High_Nft.sol\":25976:26003  uint256 amount = amounts[i] */\n      swap1\n      pop\n        /* \"High_Nft.sol\":26018:26037  uint256 fromBalance */\n      0x00\n        /* \"High_Nft.sol\":26040:26049  _balances */\n      dup1\n        /* \"High_Nft.sol\":26040:26053  _balances[id] */\n      0x00\n        /* \"High_Nft.sol\":26050:26052  id */\n      dup5\n        /* \"High_Nft.sol\":26040:26053  _balances[id] */\n      dup2\n      mstore\n      0x20\n      add\n      swap1\n      dup2\n      mstore\n      0x20\n      add\n      0x00\n      keccak256\n        /* \"High_Nft.sol\":26040:26059  _balances[id][from] */\n      0x00\n        /* \"High_Nft.sol\":26054:26058  from */\n      dup12\n        /* \"High_Nft.sol\":26040:26059  _balances[id][from] */\n      0xffffffffffffffffffffffffffffffffffffffff\n      and\n      0xffffffffffffffffffffffffffffffffffffffff\n      and\n      dup2\n      mstore\n      0x20\n      add\n      swap1\n      dup2\n      mstore\n      0x20\n      add\n      0x00\n      keccak256\n      sload\n        /* \"High_Nft.sol\":26018:26059  uint256 fromBalance = _balances[id][from] */\n      swap1\n      pop\n        /* \"High_Nft.sol\":26096:26102  amount */\n      dup2\n        /* \"High_Nft.sol\":26081:26092  fromBalance */\n      dup2\n        /* \"High_Nft.sol\":26081:26102  fromBalance >= amount */\n      lt\n      iszero\n        /* \"High_Nft.sol\":26073:26149  require(fromBalance >= amount, \"ERC1155: insufficient balance for transfer\") */\n      tag_251\n      jumpi\n      mload(0x40)\n      0x08c379a000000000000000000000000000000000000000000000000000000000\n      dup2\n      mstore\n      0x04\n      add\n      tag_252\n      swap1\n      tag_253\n      jump\t// in\n    tag_252:\n      mload(0x40)\n      dup1\n      swap2\n      sub\n      swap1\n      revert\n    tag_251:\n        /* \"High_Nft.sol\":26227:26233  amount */\n      dup2\n        /* \"High_Nft.sol\":26213:26224  fromBalance */\n      dup2\n        /* \"High_Nft.sol\":26213:26233  fromBalance - amount */\n      sub\n        /* \"High_Nft.sol\":26191:26200  _balances */\n      0x00\n        /* \"High_Nft.sol\":26191:26204  _balances[id] */\n      dup1\n        /* \"High_Nft.sol\":26201:26203  id */\n      dup6\n        /* \"High_Nft.sol\":26191:26204  _balances[id] */\n      dup2\n      mstore\n      0x20\n      add\n      swap1\n      dup2\n      mstore\n      0x20\n      add\n      0x00\n      keccak256\n        /* \"High_Nft.sol\":26191:26210  _balances[id][from] */\n      0x00\n        /* \"High_Nft.sol\":26205:26209  from */\n      dup13\n        /* \"High_Nft.sol\":26191:26210  _balances[id][from] */\n      0xffffffffffffffffffffffffffffffffffffffff\n      and\n      0xffffffffffffffffffffffffffffffffffffffff\n      and\n      dup2\n      mstore\n      0x20\n      add\n      swap1\n      dup2\n      mstore\n      0x20\n      add\n      0x00\n      keccak256\n        /* \"High_Nft.sol\":26191:26233  _balances[id][from] = fromBalance - amount */\n      dup2\n      swap1\n      sstore\n      pop\n        /* \"High_Nft.sol\":26282:26288  amount */\n      dup2\n        /* \"High_Nft.sol\":26261:26270  _balances */\n      0x00\n        /* \"High_Nft.sol\":26261:26274  _balances[id] */\n      dup1\n        /* \"High_Nft.sol\":26271:26273  id */\n      dup6\n        /* \"High_Nft.sol\":26261:26274  _balances[id] */\n      dup2\n      mstore\n      0x20\n      add\n      swap1\n      dup2\n      mstore\n      0x20\n      add\n      0x00\n      keccak256\n        /* \"High_Nft.sol\":26261:26278  _balances[id][to] */\n      0x00\n        /* \"High_Nft.sol\":26275:26277  to */\n      dup12\n        /* \"High_Nft.sol\":26261:26278  _balances[id][to] */\n      0xffffffffffffffffffffffffffffffffffffffff\n      and\n      0xffffffffffffffffffffffffffffffffffffffff\n      and\n      dup2\n      mstore\n      0x20\n      add\n      swap1\n      dup2\n      mstore\n      0x20\n      add\n      0x00\n      keccak256\n      0x00\n        /* \"High_Nft.sol\":26261:26288  _balances[id][to] += amount */\n      dup3\n      dup3\n      sload\n      tag_254\n      swap2\n      swap1\n      tag_197\n      jump\t// in\n    tag_254:\n      swap3\n      pop\n      pop\n      dup2\n      swap1\n      sstore\n      pop\n        /* \"High_Nft.sol\":25929:26299  {... */\n      pop\n      pop\n      pop\n        /* \"High_Nft.sol\":25924:25927  ++i */\n      dup1\n      tag_255\n      swap1\n      tag_170\n      jump\t// in\n    tag_255:\n      swap1\n      pop\n        /* \"High_Nft.sol\":25888:26299  for (uint256 i = 0; i < ids.length; ++i) {... */\n      jump(tag_244)\n    tag_245:\n      pop\n        /* \"High_Nft.sol\":26344:26346  to */\n      dup5\n        /* \"High_Nft.sol\":26314:26361  TransferBatch(operator, from, to, ids, amounts) */\n      0xffffffffffffffffffffffffffffffffffffffff\n      and\n        /* \"High_Nft.sol\":26338:26342  from */\n      dup7\n        /* \"High_Nft.sol\":26314:26361  TransferBatch(operator, from, to, ids, amounts) */\n      0xffffffffffffffffffffffffffffffffffffffff\n      and\n        /* \"High_Nft.sol\":26328:26336  operator */\n      dup3\n        /* \"High_Nft.sol\":26314:26361  TransferBatch(operator, from, to, ids, amounts) */\n      0xffffffffffffffffffffffffffffffffffffffff\n      and\n      0x4a39dc06d4c0dbc64b70af90fd698a233a518aa5d07e595d983b8c0526c8f7fb\n        /* \"High_Nft.sol\":26348:26351  ids */\n      dup8\n        /* \"High_Nft.sol\":26353:26360  amounts */\n      dup8\n        /* \"High_Nft.sol\":26314:26361  TransferBatch(operator, from, to, ids, amounts) */\n      mload(0x40)\n      tag_256\n      swap3\n      swap2\n      swap1\n      tag_257\n      jump\t// in\n    tag_256:\n      mload(0x40)\n      dup1\n      swap2\n      sub\n      swap1\n      log4\n        /* \"High_Nft.sol\":26372:26447  _doSafeBatchTransferAcceptanceCheck(operator, from, to, ids, amounts, data) */\n      tag_258\n        /* \"High_Nft.sol\":26408:26416  operator */\n      dup2\n        /* \"High_Nft.sol\":26418:26422  from */\n      dup8\n        /* \"High_Nft.sol\":26424:26426  to */\n      dup8\n        /* \"High_Nft.sol\":26428:26431  ids */\n      dup8\n        /* \"High_Nft.sol\":26433:26440  amounts */\n      dup8\n        /* \"High_Nft.sol\":26442:26446  data */\n      dup8\n        /* \"High_Nft.sol\":26372:26407  _doSafeBatchTransferAcceptanceCheck */\n      tag_259\n        /* \"High_Nft.sol\":26372:26447  _doSafeBatchTransferAcceptanceCheck(operator, from, to, ids, amounts, data) */\n      jump\t// in\n    tag_258:\n        /* \"High_Nft.sol\":25597:26454  {... */\n      pop\n        /* \"High_Nft.sol\":25409:26454  function _safeBatchTransferFrom(... */\n      pop\n      pop\n      pop\n      pop\n      pop\n      jump\t// out\n        /* \"High_Nft.sol\":19417:19586  function _setOwner(address newOwner) private {... */\n    tag_179:\n        /* \"High_Nft.sol\":19472:19488  address oldOwner */\n      0x00\n        /* \"High_Nft.sol\":19491:19497  _owner */\n      0x03\n      0x00\n      swap1\n      sload\n      swap1\n      0x0100\n      exp\n      swap1\n      div\n      0xffffffffffffffffffffffffffffffffffffffff\n      and\n        /* \"High_Nft.sol\":19472:19497  address oldOwner = _owner */\n      swap1\n      pop\n        /* \"High_Nft.sol\":19516:19524  newOwner */\n      dup2\n        /* \"High_Nft.sol\":19507:19513  _owner */\n      0x03\n      0x00\n        /* \"High_Nft.sol\":19507:19524  _owner = newOwner */\n      0x0100\n      exp\n      dup2\n      sload\n      dup2\n      0xffffffffffffffffffffffffffffffffffffffff\n      mul\n      not\n      and\n      swap1\n      dup4\n      0xffffffffffffffffffffffffffffffffffffffff\n      and\n      mul\n      or\n      swap1\n      sstore\n      pop\n        /* \"High_Nft.sol\":19570:19578  newOwner */\n      dup2\n        /* \"High_Nft.sol\":19539:19579  OwnershipTransferred(oldOwner, newOwner) */\n      0xffffffffffffffffffffffffffffffffffffffff\n      and\n        /* \"High_Nft.sol\":19560:19568  oldOwner */\n      dup2\n        /* \"High_Nft.sol\":19539:19579  OwnershipTransferred(oldOwner, newOwner) */\n      0xffffffffffffffffffffffffffffffffffffffff\n      and\n      0x8be0079c531659141344cd1fd0a4f28419497f9722a3daafe3b4186f6b6457e0\n      mload(0x40)\n      mload(0x40)\n      dup1\n      swap2\n      sub\n      swap1\n      log3\n        /* \"High_Nft.sol\":19462:19586  {... */\n      pop\n        /* \"High_Nft.sol\":19417:19586  function _setOwner(address newOwner) private {... */\n      pop\n      jump\t// out\n        /* \"High_Nft.sol\":29589:30219  function _burn(... */\n    tag_184:\n        /* \"High_Nft.sol\":29727:29728  0 */\n      0x00\n        /* \"High_Nft.sol\":29711:29729  from != address(0) */\n      0xffffffffffffffffffffffffffffffffffffffff\n      and\n        /* \"High_Nft.sol\":29711:29715  from */\n      dup4\n        /* \"High_Nft.sol\":29711:29729  from != address(0) */\n      0xffffffffffffffffffffffffffffffffffffffff\n      and\n      eq\n      iszero\n        /* \"High_Nft.sol\":29703:29769  require(from != address(0), \"ERC1155: burn from the zero address\") */\n      tag_262\n      jumpi\n      mload(0x40)\n      0x08c379a000000000000000000000000000000000000000000000000000000000\n      dup2\n      mstore\n      0x04\n      add\n      tag_263\n      swap1\n      tag_264\n      jump\t// in\n    tag_263:\n      mload(0x40)\n      dup1\n      swap2\n      sub\n      swap1\n      revert\n    tag_262:\n        /* \"High_Nft.sol\":29780:29796  address operator */\n      0x00\n        /* \"High_Nft.sol\":29799:29811  _msgSender() */\n      tag_265\n        /* \"High_Nft.sol\":29799:29809  _msgSender */\n      tag_141\n        /* \"High_Nft.sol\":29799:29811  _msgSender() */\n      jump\t// in\n    tag_265:\n        /* \"High_Nft.sol\":29780:29811  address operator = _msgSender() */\n      swap1\n      pop\n        /* \"High_Nft.sol\":29822:29924  _beforeTokenTransfer(operator, from, address(0), _asSingletonArray(id), _asSingletonArray(amount), \"\") */\n      tag_266\n        /* \"High_Nft.sol\":29843:29851  operator */\n      dup2\n        /* \"High_Nft.sol\":29853:29857  from */\n      dup6\n        /* \"High_Nft.sol\":29867:29868  0 */\n      0x00\n        /* \"High_Nft.sol\":29871:29892  _asSingletonArray(id) */\n      tag_267\n        /* \"High_Nft.sol\":29889:29891  id */\n      dup8\n        /* \"High_Nft.sol\":29871:29888  _asSingletonArray */\n      tag_268\n        /* \"High_Nft.sol\":29871:29892  _asSingletonArray(id) */\n      jump\t// in\n    tag_267:\n        /* \"High_Nft.sol\":29894:29919  _asSingletonArray(amount) */\n      tag_269\n        /* \"High_Nft.sol\":29912:29918  amount */\n      dup8\n        /* \"High_Nft.sol\":29894:29911  _asSingletonArray */\n      tag_268\n        /* \"High_Nft.sol\":29894:29919  _asSingletonArray(amount) */\n      jump\t// in\n    tag_269:\n        /* \"High_Nft.sol\":29822:29924  _beforeTokenTransfer(operator, from, address(0), _asSingletonArray(id), _asSingletonArray(amount), \"\") */\n      mload(0x40)\n      dup1\n      0x20\n      add\n      0x40\n      mstore\n      dup1\n      0x00\n      dup2\n      mstore\n      pop\n        /* \"High_Nft.sol\":29822:29842  _beforeTokenTransfer */\n      tag_243\n        /* \"High_Nft.sol\":29822:29924  _beforeTokenTransfer(operator, from, address(0), _asSingletonArray(id), _asSingletonArray(amount), \"\") */\n      jump\t// in\n    tag_266:\n        /* \"High_Nft.sol\":29935:29954  uint256 fromBalance */\n      0x00\n        /* \"High_Nft.sol\":29957:29966  _balances */\n      dup1\n        /* \"High_Nft.sol\":29957:29970  _balances[id] */\n      0x00\n        /* \"High_Nft.sol\":29967:29969  id */\n      dup6\n        /* \"High_Nft.sol\":29957:29970  _balances[id] */\n      dup2\n      mstore\n      0x20\n      add\n      swap1\n      dup2\n      mstore\n      0x20\n      add\n      0x00\n      keccak256\n        /* \"High_Nft.sol\":29957:29976  _balances[id][from] */\n      0x00\n        /* \"High_Nft.sol\":29971:29975  from */\n      dup7\n        /* \"High_Nft.sol\":29957:29976  _balances[id][from] */\n      0xffffffffffffffffffffffffffffffffffffffff\n      and\n      0xffffffffffffffffffffffffffffffffffffffff\n      and\n      dup2\n      mstore\n      0x20\n      add\n      swap1\n      dup2\n      mstore\n      0x20\n      add\n      0x00\n      keccak256\n      sload\n        /* \"High_Nft.sol\":29935:29976  uint256 fromBalance = _balances[id][from] */\n      swap1\n      pop\n        /* \"High_Nft.sol\":30009:30015  amount */\n      dup3\n        /* \"High_Nft.sol\":29994:30005  fromBalance */\n      dup2\n        /* \"High_Nft.sol\":29994:30015  fromBalance >= amount */\n      lt\n      iszero\n        /* \"High_Nft.sol\":29986:30056  require(fromBalance >= amount, \"ERC1155: burn amount exceeds balance\") */\n      tag_270\n      jumpi\n      mload(0x40)\n      0x08c379a000000000000000000000000000000000000000000000000000000000\n      dup2\n      mstore\n      0x04\n      add\n      tag_271\n      swap1\n      tag_272\n      jump\t// in\n    tag_271:\n      mload(0x40)\n      dup1\n      swap2\n      sub\n      swap1\n      revert\n    tag_270:\n        /* \"High_Nft.sol\":30126:30132  amount */\n      dup3\n        /* \"High_Nft.sol\":30112:30123  fromBalance */\n      dup2\n        /* \"High_Nft.sol\":30112:30132  fromBalance - amount */\n      sub\n        /* \"High_Nft.sol\":30090:30099  _balances */\n      0x00\n        /* \"High_Nft.sol\":30090:30103  _balances[id] */\n      dup1\n        /* \"High_Nft.sol\":30100:30102  id */\n      dup7\n        /* \"High_Nft.sol\":30090:30103  _balances[id] */\n      dup2\n      mstore\n      0x20\n      add\n      swap1\n      dup2\n      mstore\n      0x20\n      add\n      0x00\n      keccak256\n        /* \"High_Nft.sol\":30090:30109  _balances[id][from] */\n      0x00\n        /* \"High_Nft.sol\":30104:30108  from */\n      dup8\n        /* \"High_Nft.sol\":30090:30109  _balances[id][from] */\n      0xffffffffffffffffffffffffffffffffffffffff\n      and\n      0xffffffffffffffffffffffffffffffffffffffff\n      and\n      dup2\n      mstore\n      0x20\n      add\n      swap1\n      dup2\n      mstore\n      0x20\n      add\n      0x00\n      keccak256\n        /* \"High_Nft.sol\":30090:30132  _balances[id][from] = fromBalance - amount */\n      dup2\n      swap1\n      sstore\n      pop\n        /* \"High_Nft.sol\":30197:30198  0 */\n      0x00\n        /* \"High_Nft.sol\":30158:30212  TransferSingle(operator, from, address(0), id, amount) */\n      0xffffffffffffffffffffffffffffffffffffffff\n      and\n        /* \"High_Nft.sol\":30183:30187  from */\n      dup6\n        /* \"High_Nft.sol\":30158:30212  TransferSingle(operator, from, address(0), id, amount) */\n      0xffffffffffffffffffffffffffffffffffffffff\n      and\n        /* \"High_Nft.sol\":30173:30181  operator */\n      dup4\n        /* \"High_Nft.sol\":30158:30212  TransferSingle(operator, from, address(0), id, amount) */\n      0xffffffffffffffffffffffffffffffffffffffff\n      and\n      0xc3d58168c5ae7397731d063d5bbf3d657854427343f4c083240f7aacaa2d0f62\n        /* \"High_Nft.sol\":30201:30203  id */\n      dup8\n        /* \"High_Nft.sol\":30205:30211  amount */\n      dup8\n        /* \"High_Nft.sol\":30158:30212  TransferSingle(operator, from, address(0), id, amount) */\n      mload(0x40)\n      tag_273\n      swap3\n      swap2\n      swap1\n      tag_274\n      jump\t// in\n    tag_273:\n      mload(0x40)\n      dup1\n      swap2\n      sub\n      swap1\n      log4\n        /* \"High_Nft.sol\":29693:30219  {... */\n      pop\n      pop\n        /* \"High_Nft.sol\":29589:30219  function _burn(... */\n      pop\n      pop\n      pop\n      jump\t// out\n        /* \"High_Nft.sol\":31415:31738  function _setApprovalForAll(... */\n    tag_188:\n        /* \"High_Nft.sol\":31565:31573  operator */\n      dup2\n        /* \"High_Nft.sol\":31556:31573  owner != operator */\n      0xffffffffffffffffffffffffffffffffffffffff\n      and\n        /* \"High_Nft.sol\":31556:31561  owner */\n      dup4\n        /* \"High_Nft.sol\":31556:31573  owner != operator */\n      0xffffffffffffffffffffffffffffffffffffffff\n      and\n      eq\n      iszero\n        /* \"High_Nft.sol\":31548:31619  require(owner != operator, \"ERC1155: setting approval status for self\") */\n      tag_276\n      jumpi\n      mload(0x40)\n      0x08c379a000000000000000000000000000000000000000000000000000000000\n      dup2\n      mstore\n      0x04\n      add\n      tag_277\n      swap1\n      tag_278\n      jump\t// in\n    tag_277:\n      mload(0x40)\n      dup1\n      swap2\n      sub\n      swap1\n      revert\n    tag_276:\n        /* \"High_Nft.sol\":31667:31675  approved */\n      dup1\n        /* \"High_Nft.sol\":31629:31647  _operatorApprovals */\n      0x01\n        /* \"High_Nft.sol\":31629:31654  _operatorApprovals[owner] */\n      0x00\n        /* \"High_Nft.sol\":31648:31653  owner */\n      dup6\n        /* \"High_Nft.sol\":31629:31654  _operatorApprovals[owner] */\n      0xffffffffffffffffffffffffffffffffffffffff\n      and\n      0xffffffffffffffffffffffffffffffffffffffff\n      and\n      dup2\n      mstore\n      0x20\n      add\n      swap1\n      dup2\n      mstore\n      0x20\n      add\n      0x00\n      keccak256\n        /* \"High_Nft.sol\":31629:31664  _operatorApprovals[owner][operator] */\n      0x00\n        /* \"High_Nft.sol\":31655:31663  operator */\n      dup5\n        /* \"High_Nft.sol\":31629:31664  _operatorApprovals[owner][operator] */\n      0xffffffffffffffffffffffffffffffffffffffff\n      and\n      0xffffffffffffffffffffffffffffffffffffffff\n      and\n      dup2\n      mstore\n      0x20\n      add\n      swap1\n      dup2\n      mstore\n      0x20\n      add\n      0x00\n      keccak256\n      0x00\n        /* \"High_Nft.sol\":31629:31675  _operatorApprovals[owner][operator] = approved */\n      0x0100\n      exp\n      dup2\n      sload\n      dup2\n      0xff\n      mul\n      not\n      and\n      swap1\n      dup4\n      iszero\n      iszero\n      mul\n      or\n      swap1\n      sstore\n      pop\n        /* \"High_Nft.sol\":31712:31720  operator */\n      dup2\n        /* \"High_Nft.sol\":31690:31731  ApprovalForAll(owner, operator, approved) */\n      0xffffffffffffffffffffffffffffffffffffffff\n      and\n        /* \"High_Nft.sol\":31705:31710  owner */\n      dup4\n        /* \"High_Nft.sol\":31690:31731  ApprovalForAll(owner, operator, approved) */\n      0xffffffffffffffffffffffffffffffffffffffff\n      and\n      0x17307eab39ab6107e8899845ad3d59bd9653f200f220920489ca2b5937696c31\n        /* \"High_Nft.sol\":31722:31730  approved */\n      dup4\n        /* \"High_Nft.sol\":31690:31731  ApprovalForAll(owner, operator, approved) */\n      mload(0x40)\n      tag_279\n      swap2\n      swap1\n      tag_39\n      jump\t// in\n    tag_279:\n      mload(0x40)\n      dup1\n      swap2\n      sub\n      swap1\n      log3\n        /* \"High_Nft.sol\":31415:31738  function _setApprovalForAll(... */\n      pop\n      pop\n      pop\n      jump\t// out\n        /* \"High_Nft.sol\":27736:28289  function _mint(... */\n    tag_191:\n        /* \"High_Nft.sol\":27897:27898  0 */\n      0x00\n        /* \"High_Nft.sol\":27883:27899  to != address(0) */\n      0xffffffffffffffffffffffffffffffffffffffff\n      and\n        /* \"High_Nft.sol\":27883:27885  to */\n      dup5\n        /* \"High_Nft.sol\":27883:27899  to != address(0) */\n      0xffffffffffffffffffffffffffffffffffffffff\n      and\n      eq\n      iszero\n        /* \"High_Nft.sol\":27875:27937  require(to != address(0), \"ERC1155: mint to the zero address\") */\n      tag_281\n      jumpi\n      mload(0x40)\n      0x08c379a000000000000000000000000000000000000000000000000000000000\n      dup2\n      mstore\n      0x04\n      add\n      tag_282\n      swap1\n      tag_283\n      jump\t// in\n    tag_282:\n      mload(0x40)\n      dup1\n      swap2\n      sub\n      swap1\n      revert\n    tag_281:\n        /* \"High_Nft.sol\":27948:27964  address operator */\n      0x00\n        /* \"High_Nft.sol\":27967:27979  _msgSender() */\n      tag_284\n        /* \"High_Nft.sol\":27967:27977  _msgSender */\n      tag_141\n        /* \"High_Nft.sol\":27967:27979  _msgSender() */\n      jump\t// in\n    tag_284:\n        /* \"High_Nft.sol\":27948:27979  address operator = _msgSender() */\n      swap1\n      pop\n        /* \"High_Nft.sol\":27990:28092  _beforeTokenTransfer(operator, address(0), to, _asSingletonArray(id), _asSingletonArray(amount), data) */\n      tag_285\n        /* \"High_Nft.sol\":28011:28019  operator */\n      dup2\n        /* \"High_Nft.sol\":28029:28030  0 */\n      0x00\n        /* \"High_Nft.sol\":28033:28035  to */\n      dup8\n        /* \"High_Nft.sol\":28037:28058  _asSingletonArray(id) */\n      tag_286\n        /* \"High_Nft.sol\":28055:28057  id */\n      dup9\n        /* \"High_Nft.sol\":28037:28054  _asSingletonArray */\n      tag_268\n        /* \"High_Nft.sol\":28037:28058  _asSingletonArray(id) */\n      jump\t// in\n    tag_286:\n        /* \"High_Nft.sol\":28060:28085  _asSingletonArray(amount) */\n      tag_287\n        /* \"High_Nft.sol\":28078:28084  amount */\n      dup9\n        /* \"High_Nft.sol\":28060:28077  _asSingletonArray */\n      tag_268\n        /* \"High_Nft.sol\":28060:28085  _asSingletonArray(amount) */\n      jump\t// in\n    tag_287:\n        /* \"High_Nft.sol\":28087:28091  data */\n      dup8\n        /* \"High_Nft.sol\":27990:28010  _beforeTokenTransfer */\n      tag_243\n        /* \"High_Nft.sol\":27990:28092  _beforeTokenTransfer(operator, address(0), to, _asSingletonArray(id), _asSingletonArray(amount), data) */\n      jump\t// in\n    tag_285:\n        /* \"High_Nft.sol\":28124:28130  amount */\n      dup3\n        /* \"High_Nft.sol\":28103:28112  _balances */\n      0x00\n        /* \"High_Nft.sol\":28103:28116  _balances[id] */\n      dup1\n        /* \"High_Nft.sol\":28113:28115  id */\n      dup7\n        /* \"High_Nft.sol\":28103:28116  _balances[id] */\n      dup2\n      mstore\n      0x20\n      add\n      swap1\n      dup2\n      mstore\n      0x20\n      add\n      0x00\n      keccak256\n        /* \"High_Nft.sol\":28103:28120  _balances[id][to] */\n      0x00\n        /* \"High_Nft.sol\":28117:28119  to */\n      dup8\n        /* \"High_Nft.sol\":28103:28120  _balances[id][to] */\n      0xffffffffffffffffffffffffffffffffffffffff\n      and\n      0xffffffffffffffffffffffffffffffffffffffff\n      and\n      dup2\n      mstore\n      0x20\n      add\n      swap1\n      dup2\n      mstore\n      0x20\n      add\n      0x00\n      keccak256\n      0x00\n        /* \"High_Nft.sol\":28103:28130  _balances[id][to] += amount */\n      dup3\n      dup3\n      sload\n      tag_288\n      swap2\n      swap1\n      tag_197\n      jump\t// in\n    tag_288:\n      swap3\n      pop\n      pop\n      dup2\n      swap1\n      sstore\n      pop\n        /* \"High_Nft.sol\":28182:28184  to */\n      dup5\n        /* \"High_Nft.sol\":28145:28197  TransferSingle(operator, address(0), to, id, amount) */\n      0xffffffffffffffffffffffffffffffffffffffff\n      and\n        /* \"High_Nft.sol\":28178:28179  0 */\n      0x00\n        /* \"High_Nft.sol\":28145:28197  TransferSingle(operator, address(0), to, id, amount) */\n      0xffffffffffffffffffffffffffffffffffffffff\n      and\n        /* \"High_Nft.sol\":28160:28168  operator */\n      dup3\n        /* \"High_Nft.sol\":28145:28197  TransferSingle(operator, address(0), to, id, amount) */\n      0xffffffffffffffffffffffffffffffffffffffff\n      and\n      0xc3d58168c5ae7397731d063d5bbf3d657854427343f4c083240f7aacaa2d0f62\n        /* \"High_Nft.sol\":28186:28188  id */\n      dup8\n        /* \"High_Nft.sol\":28190:28196  amount */\n      dup8\n        /* \"High_Nft.sol\":28145:28197  TransferSingle(operator, address(0), to, id, amount) */\n      mload(0x40)\n      tag_289\n      swap3\n      swap2\n      swap1\n      tag_274\n      jump\t// in\n    tag_289:\n      mload(0x40)\n      dup1\n      swap2\n      sub\n      swap1\n      log4\n        /* \"High_Nft.sol\":28208:28282  _doSafeTransferAcceptanceCheck(operator, address(0), to, id, amount, data) */\n      tag_290\n        /* \"High_Nft.sol\":28239:28247  operator */\n      dup2\n        /* \"High_Nft.sol\":28257:28258  0 */\n      0x00\n        /* \"High_Nft.sol\":28261:28263  to */\n      dup8\n        /* \"High_Nft.sol\":28265:28267  id */\n      dup8\n        /* \"High_Nft.sol\":28269:28275  amount */\n      dup8\n        /* \"High_Nft.sol\":28277:28281  data */\n      dup8\n        /* \"High_Nft.sol\":28208:28238  _doSafeTransferAcceptanceCheck */\n      tag_291\n        /* \"High_Nft.sol\":28208:28282  _doSafeTransferAcceptanceCheck(operator, address(0), to, id, amount, data) */\n      jump\t// in\n    tag_290:\n        /* \"High_Nft.sol\":27865:28289  {... */\n      pop\n        /* \"High_Nft.sol\":27736:28289  function _mint(... */\n      pop\n      pop\n      pop\n      pop\n      jump\t// out\n        /* \"High_Nft.sol\":27277:27363  function _setURI(string memory newuri) internal virtual {... */\n    tag_193:\n        /* \"High_Nft.sol\":27350:27356  newuri */\n      dup1\n        /* \"High_Nft.sol\":27343:27347  _uri */\n      0x02\n        /* \"High_Nft.sol\":27343:27356  _uri = newuri */\n      swap1\n      dup1\n      mload\n      swap1\n      0x20\n      add\n      swap1\n      tag_293\n      swap3\n      swap2\n      swap1\n      tag_195\n      jump\t// in\n    tag_293:\n      pop\n        /* \"High_Nft.sol\":27277:27363  function _setURI(string memory newuri) internal virtual {... */\n      pop\n      jump\t// out\n        /* \"High_Nft.sol\":24266:25063  function _safeTransferFrom(... */\n    tag_220:\n        /* \"High_Nft.sol\":24461:24462  0 */\n      0x00\n        /* \"High_Nft.sol\":24447:24463  to != address(0) */\n      0xffffffffffffffffffffffffffffffffffffffff\n      and\n        /* \"High_Nft.sol\":24447:24449  to */\n      dup5\n        /* \"High_Nft.sol\":24447:24463  to != address(0) */\n      0xffffffffffffffffffffffffffffffffffffffff\n      and\n      eq\n      iszero\n        /* \"High_Nft.sol\":24439:24505  require(to != address(0), \"ERC1155: transfer to the zero address\") */\n      tag_295\n      jumpi\n      mload(0x40)\n      0x08c379a000000000000000000000000000000000000000000000000000000000\n      dup2\n      mstore\n      0x04\n      add\n      tag_296\n      swap1\n      tag_240\n      jump\t// in\n    tag_296:\n      mload(0x40)\n      dup1\n      swap2\n      sub\n      swap1\n      revert\n    tag_295:\n        /* \"High_Nft.sol\":24516:24532  address operator */\n      0x00\n        /* \"High_Nft.sol\":24535:24547  _msgSender() */\n      tag_297\n        /* \"High_Nft.sol\":24535:24545  _msgSender */\n      tag_141\n        /* \"High_Nft.sol\":24535:24547  _msgSender() */\n      jump\t// in\n    tag_297:\n        /* \"High_Nft.sol\":24516:24547  address operator = _msgSender() */\n      swap1\n      pop\n        /* \"High_Nft.sol\":24558:24654  _beforeTokenTransfer(operator, from, to, _asSingletonArray(id), _asSingletonArray(amount), data) */\n      tag_298\n        /* \"High_Nft.sol\":24579:24587  operator */\n      dup2\n        /* \"High_Nft.sol\":24589:24593  from */\n      dup8\n        /* \"High_Nft.sol\":24595:24597  to */\n      dup8\n        /* \"High_Nft.sol\":24599:24620  _asSingletonArray(id) */\n      tag_299\n        /* \"High_Nft.sol\":24617:24619  id */\n      dup9\n        /* \"High_Nft.sol\":24599:24616  _asSingletonArray */\n      tag_268\n        /* \"High_Nft.sol\":24599:24620  _asSingletonArray(id) */\n      jump\t// in\n    tag_299:\n        /* \"High_Nft.sol\":24622:24647  _asSingletonArray(amount) */\n      tag_300\n        /* \"High_Nft.sol\":24640:24646  amount */\n      dup9\n        /* \"High_Nft.sol\":24622:24639  _asSingletonArray */\n      tag_268\n        /* \"High_Nft.sol\":24622:24647  _asSingletonArray(amount) */\n      jump\t// in\n    tag_300:\n        /* \"High_Nft.sol\":24649:24653  data */\n      dup8\n        /* \"High_Nft.sol\":24558:24578  _beforeTokenTransfer */\n      tag_243\n        /* \"High_Nft.sol\":24558:24654  _beforeTokenTransfer(operator, from, to, _asSingletonArray(id), _asSingletonArray(amount), data) */\n      jump\t// in\n    tag_298:\n        /* \"High_Nft.sol\":24665:24684  uint256 fromBalance */\n      0x00\n        /* \"High_Nft.sol\":24687:24696  _balances */\n      dup1\n        /* \"High_Nft.sol\":24687:24700  _balances[id] */\n      0x00\n        /* \"High_Nft.sol\":24697:24699  id */\n      dup7\n        /* \"High_Nft.sol\":24687:24700  _balances[id] */\n      dup2\n      mstore\n      0x20\n      add\n      swap1\n      dup2\n      mstore\n      0x20\n      add\n      0x00\n      keccak256\n        /* \"High_Nft.sol\":24687:24706  _balances[id][from] */\n      0x00\n        /* \"High_Nft.sol\":24701:24705  from */\n      dup9\n        /* \"High_Nft.sol\":24687:24706  _balances[id][from] */\n      0xffffffffffffffffffffffffffffffffffffffff\n      and\n      0xffffffffffffffffffffffffffffffffffffffff\n      and\n      dup2\n      mstore\n      0x20\n      add\n      swap1\n      dup2\n      mstore\n      0x20\n      add\n      0x00\n      keccak256\n      sload\n        /* \"High_Nft.sol\":24665:24706  uint256 fromBalance = _balances[id][from] */\n      swap1\n      pop\n        /* \"High_Nft.sol\":24739:24745  amount */\n      dup4\n        /* \"High_Nft.sol\":24724:24735  fromBalance */\n      dup2\n        /* \"High_Nft.sol\":24724:24745  fromBalance >= amount */\n      lt\n      iszero\n        /* \"High_Nft.sol\":24716:24792  require(fromBalance >= amount, \"ERC1155: insufficient balance for transfer\") */\n      tag_301\n      jumpi\n      mload(0x40)\n      0x08c379a000000000000000000000000000000000000000000000000000000000\n      dup2\n      mstore\n      0x04\n      add\n      tag_302\n      swap1\n      tag_253\n      jump\t// in\n    tag_302:\n      mload(0x40)\n      dup1\n      swap2\n      sub\n      swap1\n      revert\n    tag_301:\n        /* \"High_Nft.sol\":24862:24868  amount */\n      dup4\n        /* \"High_Nft.sol\":24848:24859  fromBalance */\n      dup2\n        /* \"High_Nft.sol\":24848:24868  fromBalance - amount */\n      sub\n        /* \"High_Nft.sol\":24826:24835  _balances */\n      0x00\n        /* \"High_Nft.sol\":24826:24839  _balances[id] */\n      dup1\n        /* \"High_Nft.sol\":24836:24838  id */\n      dup8\n        /* \"High_Nft.sol\":24826:24839  _balances[id] */\n      dup2\n      mstore\n      0x20\n      add\n      swap1\n      dup2\n      mstore\n      0x20\n      add\n      0x00\n      keccak256\n        /* \"High_Nft.sol\":24826:24845  _balances[id][from] */\n      0x00\n        /* \"High_Nft.sol\":24840:24844  from */\n      dup10\n        /* \"High_Nft.sol\":24826:24845  _balances[id][from] */\n      0xffffffffffffffffffffffffffffffffffffffff\n      and\n      0xffffffffffffffffffffffffffffffffffffffff\n      and\n      dup2\n      mstore\n      0x20\n      add\n      swap1\n      dup2\n      mstore\n      0x20\n      add\n      0x00\n      keccak256\n        /* \"High_Nft.sol\":24826:24868  _balances[id][from] = fromBalance - amount */\n      dup2\n      swap1\n      sstore\n      pop\n        /* \"High_Nft.sol\":24909:24915  amount */\n      dup4\n        /* \"High_Nft.sol\":24888:24897  _balances */\n      0x00\n        /* \"High_Nft.sol\":24888:24901  _balances[id] */\n      dup1\n        /* \"High_Nft.sol\":24898:24900  id */\n      dup8\n        /* \"High_Nft.sol\":24888:24901  _balances[id] */\n      dup2\n      mstore\n      0x20\n      add\n      swap1\n      dup2\n      mstore\n      0x20\n      add\n      0x00\n      keccak256\n        /* \"High_Nft.sol\":24888:24905  _balances[id][to] */\n      0x00\n        /* \"High_Nft.sol\":24902:24904  to */\n      dup9\n        /* \"High_Nft.sol\":24888:24905  _balances[id][to] */\n      0xffffffffffffffffffffffffffffffffffffffff\n      and\n      0xffffffffffffffffffffffffffffffffffffffff\n      and\n      dup2\n      mstore\n      0x20\n      add\n      swap1\n      dup2\n      mstore\n      0x20\n      add\n      0x00\n      keccak256\n      0x00\n        /* \"High_Nft.sol\":24888:24915  _balances[id][to] += amount */\n      dup3\n      dup3\n      sload\n      tag_303\n      swap2\n      swap1\n      tag_197\n      jump\t// in\n    tag_303:\n      swap3\n      pop\n      pop\n      dup2\n      swap1\n      sstore\n      pop\n        /* \"High_Nft.sol\":24962:24964  to */\n      dup6\n        /* \"High_Nft.sol\":24931:24977  TransferSingle(operator, from, to, id, amount) */\n      0xffffffffffffffffffffffffffffffffffffffff\n      and\n        /* \"High_Nft.sol\":24956:24960  from */\n      dup8\n        /* \"High_Nft.sol\":24931:24977  TransferSingle(operator, from, to, id, amount) */\n      0xffffffffffffffffffffffffffffffffffffffff\n      and\n        /* \"High_Nft.sol\":24946:24954  operator */\n      dup4\n        /* \"High_Nft.sol\":24931:24977  TransferSingle(operator, from, to, id, amount) */\n      0xffffffffffffffffffffffffffffffffffffffff\n      and\n      0xc3d58168c5ae7397731d063d5bbf3d657854427343f4c083240f7aacaa2d0f62\n        /* \"High_Nft.sol\":24966:24968  id */\n      dup9\n        /* \"High_Nft.sol\":24970:24976  amount */\n      dup9\n        /* \"High_Nft.sol\":24931:24977  TransferSingle(operator, from, to, id, amount) */\n      mload(0x40)\n      tag_304\n      swap3\n      swap2\n      swap1\n      tag_274\n      jump\t// in\n    tag_304:\n      mload(0x40)\n      dup1\n      swap2\n      sub\n      swap1\n      log4\n        /* \"High_Nft.sol\":24988:25056  _doSafeTransferAcceptanceCheck(operator, from, to, id, amount, data) */\n      tag_305\n        /* \"High_Nft.sol\":25019:25027  operator */\n      dup3\n        /* \"High_Nft.sol\":25029:25033  from */\n      dup9\n        /* \"High_Nft.sol\":25035:25037  to */\n      dup9\n        /* \"High_Nft.sol\":25039:25041  id */\n      dup9\n        /* \"High_Nft.sol\":25043:25049  amount */\n      dup9\n        /* \"High_Nft.sol\":25051:25055  data */\n      dup9\n        /* \"High_Nft.sol\":24988:25018  _doSafeTransferAcceptanceCheck */\n      tag_291\n        /* \"High_Nft.sol\":24988:25056  _doSafeTransferAcceptanceCheck(operator, from, to, id, amount, data) */\n      jump\t// in\n    tag_305:\n        /* \"High_Nft.sol\":24429:25063  {... */\n      pop\n      pop\n        /* \"High_Nft.sol\":24266:25063  function _safeTransferFrom(... */\n      pop\n      pop\n      pop\n      pop\n      pop\n      jump\t// out\n        /* \"High_Nft.sol\":32672:32886  function _beforeTokenTransfer(... */\n    tag_243:\n      pop\n      pop\n      pop\n      pop\n      pop\n      pop\n      jump\t// out\n        /* \"High_Nft.sol\":33623:34415  function _doSafeBatchTransferAcceptanceCheck(... */\n    tag_259:\n        /* \"High_Nft.sol\":33855:33870  to.isContract() */\n      tag_308\n        /* \"High_Nft.sol\":33855:33857  to */\n      dup5\n        /* \"High_Nft.sol\":33855:33868  to.isContract */\n      0xffffffffffffffffffffffffffffffffffffffff\n      and\n      tag_116\n        /* \"High_Nft.sol\":33855:33870  to.isContract() */\n      jump\t// in\n    tag_308:\n        /* \"High_Nft.sol\":33851:34409  if (to.isContract()) {... */\n      iszero\n      tag_309\n      jumpi\n        /* \"High_Nft.sol\":33907:33909  to */\n      dup4\n        /* \"High_Nft.sol\":33890:33933  IERC1155Receiver(to).onERC1155BatchReceived */\n      0xffffffffffffffffffffffffffffffffffffffff\n      and\n      0xbc197c81\n        /* \"High_Nft.sol\":33934:33942  operator */\n      dup8\n        /* \"High_Nft.sol\":33944:33948  from */\n      dup8\n        /* \"High_Nft.sol\":33950:33953  ids */\n      dup7\n        /* \"High_Nft.sol\":33955:33962  amounts */\n      dup7\n        /* \"High_Nft.sol\":33964:33968  data */\n      dup7\n        /* \"High_Nft.sol\":33890:33969  IERC1155Receiver(to).onERC1155BatchReceived(operator, from, ids, amounts, data) */\n      mload(0x40)\n      dup7\n      0xffffffff\n      and\n      0xe0\n      shl\n      dup2\n      mstore\n      0x04\n      add\n      tag_310\n      swap6\n      swap5\n      swap4\n      swap3\n      swap2\n      swap1\n      tag_311\n      jump\t// in\n    tag_310:\n      0x20\n      mload(0x40)\n      dup1\n      dup4\n      sub\n      dup2\n      0x00\n      dup8\n      gas\n      call\n      swap3\n      pop\n      pop\n      pop\n      dup1\n      iszero\n      tag_312\n      jumpi\n      pop\n      mload(0x40)\n      returndatasize\n      not(0x1f)\n      0x1f\n      dup3\n      add\n      and\n      dup3\n      add\n      dup1\n      0x40\n      mstore\n      pop\n      dup2\n      add\n      swap1\n      tag_313\n      swap2\n      swap1\n      tag_314\n      jump\t// in\n    tag_313:\n      0x01\n    tag_312:\n        /* \"High_Nft.sol\":33886:34399  try IERC1155Receiver(to).onERC1155BatchReceived(operator, from, ids, amounts, data) returns (... */\n      tag_315\n      jumpi\n      tag_319\n      tag_320\n      jump\t// in\n    tag_319:\n      dup1\n      0x08c379a0\n      eq\n      iszero\n      tag_318\n      jumpi\n      pop\n      tag_321\n      tag_322\n      jump\t// in\n    tag_321:\n      dup1\n      tag_323\n      jumpi\n      pop\n      jump(tag_317)\n    tag_323:\n        /* \"High_Nft.sol\":34275:34281  reason */\n      dup1\n        /* \"High_Nft.sol\":34268:34282  revert(reason) */\n      mload(0x40)\n      0x08c379a000000000000000000000000000000000000000000000000000000000\n      dup2\n      mstore\n      0x04\n      add\n      tag_324\n      swap2\n      swap1\n      tag_52\n      jump\t// in\n    tag_324:\n      mload(0x40)\n      dup1\n      swap2\n      sub\n      swap1\n      revert\n        /* \"High_Nft.sol\":33886:34399  try IERC1155Receiver(to).onERC1155BatchReceived(operator, from, ids, amounts, data) returns (... */\n    tag_318:\n      pop\n    tag_317:\n        /* \"High_Nft.sol\":34322:34384  revert(\"ERC1155: transfer to non ERC1155Receiver implementer\") */\n      mload(0x40)\n      0x08c379a000000000000000000000000000000000000000000000000000000000\n      dup2\n      mstore\n      0x04\n      add\n      tag_325\n      swap1\n      tag_326\n      jump\t// in\n    tag_325:\n      mload(0x40)\n      dup1\n      swap2\n      sub\n      swap1\n      revert\n        /* \"High_Nft.sol\":33886:34399  try IERC1155Receiver(to).onERC1155BatchReceived(operator, from, ids, amounts, data) returns (... */\n    tag_315:\n        /* \"High_Nft.sol\":34060:34108  IERC1155Receiver.onERC1155BatchReceived.selector */\n      shl(0xe0, 0xbc197c81)\n        /* \"High_Nft.sol\":34048:34108  response != IERC1155Receiver.onERC1155BatchReceived.selector */\n      not(0xffffffffffffffffffffffffffffffffffffffffffffffffffffffff)\n      and\n        /* \"High_Nft.sol\":34048:34056  response */\n      dup2\n        /* \"High_Nft.sol\":34048:34108  response != IERC1155Receiver.onERC1155BatchReceived.selector */\n      not(0xffffffffffffffffffffffffffffffffffffffffffffffffffffffff)\n      and\n      eq\n        /* \"High_Nft.sol\":34044:34201  if (response != IERC1155Receiver.onERC1155BatchReceived.selector) {... */\n      tag_328\n      jumpi\n        /* \"High_Nft.sol\":34132:34182  revert(\"ERC1155: ERC1155Receiver rejected tokens\") */\n      mload(0x40)\n      0x08c379a000000000000000000000000000000000000000000000000000000000\n      dup2\n      mstore\n      0x04\n      add\n      tag_329\n      swap1\n      tag_330\n      jump\t// in\n    tag_329:\n      mload(0x40)\n      dup1\n      swap2\n      sub\n      swap1\n      revert\n        /* \"High_Nft.sol\":34044:34201  if (response != IERC1155Receiver.onERC1155BatchReceived.selector) {... */\n    tag_328:\n        /* \"High_Nft.sol\":33970:34215  returns (... */\n      pop\n        /* \"High_Nft.sol\":33851:34409  if (to.isContract()) {... */\n    tag_309:\n        /* \"High_Nft.sol\":33623:34415  function _doSafeBatchTransferAcceptanceCheck(... */\n      pop\n      pop\n      pop\n      pop\n      pop\n      pop\n      jump\t// out\n        /* \"High_Nft.sol\":34421:34614  function _asSingletonArray(uint256 element) private pure returns (uint256[] memory) {... */\n    tag_268:\n        /* \"High_Nft.sol\":34487:34503  uint256[] memory */\n      0x60\n        /* \"High_Nft.sol\":34515:34537  uint256[] memory array */\n      0x00\n        /* \"High_Nft.sol\":34554:34555  1 */\n      0x01\n        /* \"High_Nft.sol\":34540:34556  new uint256[](1) */\n      0xffffffffffffffff\n      dup2\n      gt\n      iszero\n      tag_332\n      jumpi\n      tag_333\n      tag_156\n      jump\t// in\n    tag_333:\n    tag_332:\n      mload(0x40)\n      swap1\n      dup1\n      dup3\n      mstore\n      dup1\n      0x20\n      mul\n      0x20\n      add\n      dup3\n      add\n      0x40\n      mstore\n      dup1\n      iszero\n      tag_334\n      jumpi\n      dup2\n      0x20\n      add\n      0x20\n      dup3\n      mul\n      dup1\n      calldatasize\n      dup4\n      calldatacopy\n      dup1\n      dup3\n      add\n      swap2\n      pop\n      pop\n      swap1\n      pop\n    tag_334:\n      pop\n        /* \"High_Nft.sol\":34515:34556  uint256[] memory array = new uint256[](1) */\n      swap1\n      pop\n        /* \"High_Nft.sol\":34577:34584  element */\n      dup3\n        /* \"High_Nft.sol\":34566:34571  array */\n      dup2\n        /* \"High_Nft.sol\":34572:34573  0 */\n      0x00\n        /* \"High_Nft.sol\":34566:34574  array[0] */\n      dup2\n      mload\n      dup2\n      lt\n      tag_335\n      jumpi\n      tag_336\n      tag_164\n      jump\t// in\n    tag_336:\n    tag_335:\n      0x20\n      mul\n      0x20\n      add\n      add\n        /* \"High_Nft.sol\":34566:34584  array[0] = element */\n      dup2\n      dup2\n      mstore\n      pop\n      pop\n        /* \"High_Nft.sol\":34602:34607  array */\n      dup1\n        /* \"High_Nft.sol\":34595:34607  return array */\n      swap2\n      pop\n      pop\n        /* \"High_Nft.sol\":34421:34614  function _asSingletonArray(uint256 element) private pure returns (uint256[] memory) {... */\n      swap2\n      swap1\n      pop\n      jump\t// out\n        /* \"High_Nft.sol\":32892:33617  function _doSafeTransferAcceptanceCheck(... */\n    tag_291:\n        /* \"High_Nft.sol\":33099:33114  to.isContract() */\n      tag_338\n        /* \"High_Nft.sol\":33099:33101  to */\n      dup5\n        /* \"High_Nft.sol\":33099:33112  to.isContract */\n      0xffffffffffffffffffffffffffffffffffffffff\n      and\n      tag_116\n        /* \"High_Nft.sol\":33099:33114  to.isContract() */\n      jump\t// in\n    tag_338:\n        /* \"High_Nft.sol\":33095:33611  if (to.isContract()) {... */\n      iszero\n      tag_339\n      jumpi\n        /* \"High_Nft.sol\":33151:33153  to */\n      dup4\n        /* \"High_Nft.sol\":33134:33172  IERC1155Receiver(to).onERC1155Received */\n      0xffffffffffffffffffffffffffffffffffffffff\n      and\n      0xf23a6e61\n        /* \"High_Nft.sol\":33173:33181  operator */\n      dup8\n        /* \"High_Nft.sol\":33183:33187  from */\n      dup8\n        /* \"High_Nft.sol\":33189:33191  id */\n      dup7\n        /* \"High_Nft.sol\":33193:33199  amount */\n      dup7\n        /* \"High_Nft.sol\":33201:33205  data */\n      dup7\n        /* \"High_Nft.sol\":33134:33206  IERC1155Receiver(to).onERC1155Received(operator, from, id, amount, data) */\n      mload(0x40)\n      dup7\n      0xffffffff\n      and\n      0xe0\n      shl\n      dup2\n      mstore\n      0x04\n      add\n      tag_340\n      swap6\n      swap5\n      swap4\n      swap3\n      swap2\n      swap1\n      tag_341\n      jump\t// in\n    tag_340:\n      0x20\n      mload(0x40)\n      dup1\n      dup4\n      sub\n      dup2\n      0x00\n      dup8\n      gas\n      call\n      swap3\n      pop\n      pop\n      pop\n      dup1\n      iszero\n      tag_342\n      jumpi\n      pop\n      mload(0x40)\n      returndatasize\n      not(0x1f)\n      0x1f\n      dup3\n      add\n      and\n      dup3\n      add\n      dup1\n      0x40\n      mstore\n      pop\n      dup2\n      add\n      swap1\n      tag_343\n      swap2\n      swap1\n      tag_314\n      jump\t// in\n    tag_343:\n      0x01\n    tag_342:\n        /* \"High_Nft.sol\":33130:33601  try IERC1155Receiver(to).onERC1155Received(operator, from, id, amount, data) returns (bytes4 response) {... */\n      tag_344\n      jumpi\n      tag_348\n      tag_320\n      jump\t// in\n    tag_348:\n      dup1\n      0x08c379a0\n      eq\n      iszero\n      tag_347\n      jumpi\n      pop\n      tag_349\n      tag_322\n      jump\t// in\n    tag_349:\n      dup1\n      tag_350\n      jumpi\n      pop\n      jump(tag_346)\n    tag_350:\n        /* \"High_Nft.sol\":33477:33483  reason */\n      dup1\n        /* \"High_Nft.sol\":33470:33484  revert(reason) */\n      mload(0x40)\n      0x08c379a000000000000000000000000000000000000000000000000000000000\n      dup2\n      mstore\n      0x04\n      add\n      tag_351\n      swap2\n      swap1\n      tag_52\n      jump\t// in\n    tag_351:\n      mload(0x40)\n      dup1\n      swap2\n      sub\n      swap1\n      revert\n        /* \"High_Nft.sol\":33130:33601  try IERC1155Receiver(to).onERC1155Received(operator, from, id, amount, data) returns (bytes4 response) {... */\n    tag_347:\n      pop\n    tag_346:\n        /* \"High_Nft.sol\":33524:33586  revert(\"ERC1155: transfer to non ERC1155Receiver implementer\") */\n      mload(0x40)\n      0x08c379a000000000000000000000000000000000000000000000000000000000\n      dup2\n      mstore\n      0x04\n      add\n      tag_352\n      swap1\n      tag_326\n      jump\t// in\n    tag_352:\n      mload(0x40)\n      dup1\n      swap2\n      sub\n      swap1\n      revert\n        /* \"High_Nft.sol\":33130:33601  try IERC1155Receiver(to).onERC1155Received(operator, from, id, amount, data) returns (bytes4 response) {... */\n    tag_344:\n        /* \"High_Nft.sol\":33267:33310  IERC1155Receiver.onERC1155Received.selector */\n      shl(0xe0, 0xf23a6e61)\n        /* \"High_Nft.sol\":33255:33310  response != IERC1155Receiver.onERC1155Received.selector */\n      not(0xffffffffffffffffffffffffffffffffffffffffffffffffffffffff)\n      and\n        /* \"High_Nft.sol\":33255:33263  response */\n      dup2\n        /* \"High_Nft.sol\":33255:33310  response != IERC1155Receiver.onERC1155Received.selector */\n      not(0xffffffffffffffffffffffffffffffffffffffffffffffffffffffff)\n      and\n      eq\n        /* \"High_Nft.sol\":33251:33403  if (response != IERC1155Receiver.onERC1155Received.selector) {... */\n      tag_354\n      jumpi\n        /* \"High_Nft.sol\":33334:33384  revert(\"ERC1155: ERC1155Receiver rejected tokens\") */\n      mload(0x40)\n      0x08c379a000000000000000000000000000000000000000000000000000000000\n      dup2\n      mstore\n      0x04\n      add\n      tag_355\n      swap1\n      tag_330\n      jump\t// in\n    tag_355:\n      mload(0x40)\n      dup1\n      swap2\n      sub\n      swap1\n      revert\n        /* \"High_Nft.sol\":33251:33403  if (response != IERC1155Receiver.onERC1155Received.selector) {... */\n    tag_354:\n        /* \"High_Nft.sol\":33207:33417  returns (bytes4 response) {... */\n      pop\n        /* \"High_Nft.sol\":33095:33611  if (to.isContract()) {... */\n    tag_339:\n        /* \"High_Nft.sol\":32892:33617  function _doSafeTransferAcceptanceCheck(... */\n      pop\n      pop\n      pop\n      pop\n      pop\n      pop\n      jump\t// out\n    tag_195:\n      dup3\n      dup1\n      sload\n      tag_356\n      swap1\n      tag_134\n      jump\t// in\n    tag_356:\n      swap1\n      0x00\n      mstore\n      keccak256(0x00, 0x20)\n      swap1\n      0x1f\n      add\n      0x20\n      swap1\n      div\n      dup2\n      add\n      swap3\n      dup3\n      tag_358\n      jumpi\n      0x00\n      dup6\n      sstore\n      jump(tag_357)\n    tag_358:\n      dup3\n      0x1f\n      lt\n      tag_359\n      jumpi\n      dup1\n      mload\n      not(0xff)\n      and\n      dup4\n      dup1\n      add\n      or\n      dup6\n      sstore\n      jump(tag_357)\n    tag_359:\n      dup3\n      dup1\n      add\n      0x01\n      add\n      dup6\n      sstore\n      dup3\n      iszero\n      tag_357\n      jumpi\n      swap2\n      dup3\n      add\n    tag_360:\n      dup3\n      dup2\n      gt\n      iszero\n      tag_361\n      jumpi\n      dup3\n      mload\n      dup3\n      sstore\n      swap2\n      0x20\n      add\n      swap2\n      swap1\n      0x01\n      add\n      swap1\n      jump(tag_360)\n    tag_361:\n    tag_357:\n      pop\n      swap1\n      pop\n      tag_362\n      swap2\n      swap1\n      tag_363\n      jump\t// in\n    tag_362:\n      pop\n      swap1\n      jump\t// out\n    tag_363:\n    tag_364:\n      dup1\n      dup3\n      gt\n      iszero\n      tag_365\n      jumpi\n      0x00\n      dup2\n      0x00\n      swap1\n      sstore\n      pop\n      0x01\n      add\n      jump(tag_364)\n    tag_365:\n      pop\n      swap1\n      jump\t// out\n        /* \"#utility.yul\":7:82   */\n    tag_366:\n        /* \"#utility.yul\":40:46   */\n      0x00\n        /* \"#utility.yul\":73:75   */\n      0x40\n        /* \"#utility.yul\":67:76   */\n      mload\n        /* \"#utility.yul\":57:76   */\n      swap1\n      pop\n        /* \"#utility.yul\":7:82   */\n      swap1\n      jump\t// out\n        /* \"#utility.yul\":88:205   */\n    tag_367:\n        /* \"#utility.yul\":197:198   */\n      0x00\n        /* \"#utility.yul\":194:195   */\n      dup1\n        /* \"#utility.yul\":187:199   */\n      revert\n        /* \"#utility.yul\":211:328   */\n    tag_368:\n        /* \"#utility.yul\":320:321   */\n      0x00\n        /* \"#utility.yul\":317:318   */\n      dup1\n        /* \"#utility.yul\":310:322   */\n      revert\n        /* \"#utility.yul\":334:460   */\n    tag_369:\n        /* \"#utility.yul\":371:378   */\n      0x00\n        /* \"#utility.yul\":411:453   */\n      0xffffffffffffffffffffffffffffffffffffffff\n        /* \"#utility.yul\":404:409   */\n      dup3\n        /* \"#utility.yul\":400:454   */\n      and\n        /* \"#utility.yul\":389:454   */\n      swap1\n      pop\n        /* \"#utility.yul\":334:460   */\n      swap2\n      swap1\n      pop\n      jump\t// out\n        /* \"#utility.yul\":466:562   */\n    tag_370:\n        /* \"#utility.yul\":503:510   */\n      0x00\n        /* \"#utility.yul\":532:556   */\n      tag_460\n        /* \"#utility.yul\":550:555   */\n      dup3\n        /* \"#utility.yul\":532:556   */\n      tag_369\n      jump\t// in\n    tag_460:\n        /* \"#utility.yul\":521:556   */\n      swap1\n      pop\n        /* \"#utility.yul\":466:562   */\n      swap2\n      swap1\n      pop\n      jump\t// out\n        /* \"#utility.yul\":568:690   */\n    tag_371:\n        /* \"#utility.yul\":641:665   */\n      tag_462\n        /* \"#utility.yul\":659:664   */\n      dup2\n        /* \"#utility.yul\":641:665   */\n      tag_370\n      jump\t// in\n    tag_462:\n        /* \"#utility.yul\":634:639   */\n      dup2\n        /* \"#utility.yul\":631:666   */\n      eq\n        /* \"#utility.yul\":621:684   */\n      tag_463\n      jumpi\n        /* \"#utility.yul\":680:681   */\n      0x00\n        /* \"#utility.yul\":677:678   */\n      dup1\n        /* \"#utility.yul\":670:682   */\n      revert\n        /* \"#utility.yul\":621:684   */\n    tag_463:\n        /* \"#utility.yul\":568:690   */\n      pop\n      jump\t// out\n        /* \"#utility.yul\":696:835   */\n    tag_372:\n        /* \"#utility.yul\":742:747   */\n      0x00\n        /* \"#utility.yul\":780:786   */\n      dup2\n        /* \"#utility.yul\":767:787   */\n      calldataload\n        /* \"#utility.yul\":758:787   */\n      swap1\n      pop\n        /* \"#utility.yul\":796:829   */\n      tag_465\n        /* \"#utility.yul\":823:828   */\n      dup2\n        /* \"#utility.yul\":796:829   */\n      tag_371\n      jump\t// in\n    tag_465:\n        /* \"#utility.yul\":696:835   */\n      swap3\n      swap2\n      pop\n      pop\n      jump\t// out\n        /* \"#utility.yul\":841:918   */\n    tag_373:\n        /* \"#utility.yul\":878:885   */\n      0x00\n        /* \"#utility.yul\":907:912   */\n      dup2\n        /* \"#utility.yul\":896:912   */\n      swap1\n      pop\n        /* \"#utility.yul\":841:918   */\n      swap2\n      swap1\n      pop\n      jump\t// out\n        /* \"#utility.yul\":924:1046   */\n    tag_374:\n        /* \"#utility.yul\":997:1021   */\n      tag_468\n        /* \"#utility.yul\":1015:1020   */\n      dup2\n        /* \"#utility.yul\":997:1021   */\n      tag_373\n      jump\t// in\n    tag_468:\n        /* \"#utility.yul\":990:995   */\n      dup2\n        /* \"#utility.yul\":987:1022   */\n      eq\n        /* \"#utility.yul\":977:1040   */\n      tag_469\n      jumpi\n        /* \"#utility.yul\":1036:1037   */\n      0x00\n        /* \"#utility.yul\":1033:1034   */\n      dup1\n        /* \"#utility.yul\":1026:1038   */\n      revert\n        /* \"#utility.yul\":977:1040   */\n    tag_469:\n        /* \"#utility.yul\":924:1046   */\n      pop\n      jump\t// out\n        /* \"#utility.yul\":1052:1191   */\n    tag_375:\n        /* \"#utility.yul\":1098:1103   */\n      0x00\n        /* \"#utility.yul\":1136:1142   */\n      dup2\n        /* \"#utility.yul\":1123:1143   */\n      calldataload\n        /* \"#utility.yul\":1114:1143   */\n      swap1\n      pop\n        /* \"#utility.yul\":1152:1185   */\n      tag_471\n        /* \"#utility.yul\":1179:1184   */\n      dup2\n        /* \"#utility.yul\":1152:1185   */\n      tag_374\n      jump\t// in\n    tag_471:\n        /* \"#utility.yul\":1052:1191   */\n      swap3\n      swap2\n      pop\n      pop\n      jump\t// out\n        /* \"#utility.yul\":1197:1671   */\n    tag_30:\n        /* \"#utility.yul\":1265:1271   */\n      0x00\n        /* \"#utility.yul\":1273:1279   */\n      dup1\n        /* \"#utility.yul\":1322:1324   */\n      0x40\n        /* \"#utility.yul\":1310:1319   */\n      dup4\n        /* \"#utility.yul\":1301:1308   */\n      dup6\n        /* \"#utility.yul\":1297:1320   */\n      sub\n        /* \"#utility.yul\":1293:1325   */\n      slt\n        /* \"#utility.yul\":1290:1409   */\n      iszero\n      tag_473\n      jumpi\n        /* \"#utility.yul\":1328:1407   */\n      tag_474\n      tag_367\n      jump\t// in\n    tag_474:\n        /* \"#utility.yul\":1290:1409   */\n    tag_473:\n        /* \"#utility.yul\":1448:1449   */\n      0x00\n        /* \"#utility.yul\":1473:1526   */\n      tag_475\n        /* \"#utility.yul\":1518:1525   */\n      dup6\n        /* \"#utility.yul\":1509:1515   */\n      dup3\n        /* \"#utility.yul\":1498:1507   */\n      dup7\n        /* \"#utility.yul\":1494:1516   */\n      add\n        /* \"#utility.yul\":1473:1526   */\n      tag_372\n      jump\t// in\n    tag_475:\n        /* \"#utility.yul\":1463:1526   */\n      swap3\n      pop\n        /* \"#utility.yul\":1419:1536   */\n      pop\n        /* \"#utility.yul\":1575:1577   */\n      0x20\n        /* \"#utility.yul\":1601:1654   */\n      tag_476\n        /* \"#utility.yul\":1646:1653   */\n      dup6\n        /* \"#utility.yul\":1637:1643   */\n      dup3\n        /* \"#utility.yul\":1626:1635   */\n      dup7\n        /* \"#utility.yul\":1622:1644   */\n      add\n        /* \"#utility.yul\":1601:1654   */\n      tag_375\n      jump\t// in\n    tag_476:\n        /* \"#utility.yul\":1591:1654   */\n      swap2\n      pop\n        /* \"#utility.yul\":1546:1664   */\n      pop\n        /* \"#utility.yul\":1197:1671   */\n      swap3\n      pop\n      swap3\n      swap1\n      pop\n      jump\t// out\n        /* \"#utility.yul\":1677:1795   */\n    tag_376:\n        /* \"#utility.yul\":1764:1788   */\n      tag_478\n        /* \"#utility.yul\":1782:1787   */\n      dup2\n        /* \"#utility.yul\":1764:1788   */\n      tag_373\n      jump\t// in\n    tag_478:\n        /* \"#utility.yul\":1759:1762   */\n      dup3\n        /* \"#utility.yul\":1752:1789   */\n      mstore\n        /* \"#utility.yul\":1677:1795   */\n      pop\n      pop\n      jump\t// out\n        /* \"#utility.yul\":1801:2023   */\n    tag_33:\n        /* \"#utility.yul\":1894:1898   */\n      0x00\n        /* \"#utility.yul\":1932:1934   */\n      0x20\n        /* \"#utility.yul\":1921:1930   */\n      dup3\n        /* \"#utility.yul\":1917:1935   */\n      add\n        /* \"#utility.yul\":1909:1935   */\n      swap1\n      pop\n        /* \"#utility.yul\":1945:2016   */\n      tag_480\n        /* \"#utility.yul\":2013:2014   */\n      0x00\n        /* \"#utility.yul\":2002:2011   */\n      dup4\n        /* \"#utility.yul\":1998:2015   */\n      add\n        /* \"#utility.yul\":1989:1995   */\n      dup5\n        /* \"#utility.yul\":1945:2016   */\n      tag_376\n      jump\t// in\n    tag_480:\n        /* \"#utility.yul\":1801:2023   */\n      swap3\n      swap2\n      pop\n      pop\n      jump\t// out\n        /* \"#utility.yul\":2029:2178   */\n    tag_377:\n        /* \"#utility.yul\":2065:2072   */\n      0x00\n        /* \"#utility.yul\":2105:2171   */\n      0xffffffff00000000000000000000000000000000000000000000000000000000\n        /* \"#utility.yul\":2098:2103   */\n      dup3\n        /* \"#utility.yul\":2094:2172   */\n      and\n        /* \"#utility.yul\":2083:2172   */\n      swap1\n      pop\n        /* \"#utility.yul\":2029:2178   */\n      swap2\n      swap1\n      pop\n      jump\t// out\n        /* \"#utility.yul\":2184:2304   */\n    tag_378:\n        /* \"#utility.yul\":2256:2279   */\n      tag_483\n        /* \"#utility.yul\":2273:2278   */\n      dup2\n        /* \"#utility.yul\":2256:2279   */\n      tag_377\n      jump\t// in\n    tag_483:\n        /* \"#utility.yul\":2249:2254   */\n      dup2\n        /* \"#utility.yul\":2246:2280   */\n      eq\n        /* \"#utility.yul\":2236:2298   */\n      tag_484\n      jumpi\n        /* \"#utility.yul\":2294:2295   */\n      0x00\n        /* \"#utility.yul\":2291:2292   */\n      dup1\n        /* \"#utility.yul\":2284:2296   */\n      revert\n        /* \"#utility.yul\":2236:2298   */\n    tag_484:\n        /* \"#utility.yul\":2184:2304   */\n      pop\n      jump\t// out\n        /* \"#utility.yul\":2310:2447   */\n    tag_379:\n        /* \"#utility.yul\":2355:2360   */\n      0x00\n        /* \"#utility.yul\":2393:2399   */\n      dup2\n        /* \"#utility.yul\":2380:2400   */\n      calldataload\n        /* \"#utility.yul\":2371:2400   */\n      swap1\n      pop\n        /* \"#utility.yul\":2409:2441   */\n      tag_486\n        /* \"#utility.yul\":2435:2440   */\n      dup2\n        /* \"#utility.yul\":2409:2441   */\n      tag_378\n      jump\t// in\n    tag_486:\n        /* \"#utility.yul\":2310:2447   */\n      swap3\n      swap2\n      pop\n      pop\n      jump\t// out\n        /* \"#utility.yul\":2453:2780   */\n    tag_36:\n        /* \"#utility.yul\":2511:2517   */\n      0x00\n        /* \"#utility.yul\":2560:2562   */\n      0x20\n        /* \"#utility.yul\":2548:2557   */\n      dup3\n        /* \"#utility.yul\":2539:2546   */\n      dup5\n        /* \"#utility.yul\":2535:2558   */\n      sub\n        /* \"#utility.yul\":2531:2563   */\n      slt\n        /* \"#utility.yul\":2528:2647   */\n      iszero\n      tag_488\n      jumpi\n        /* \"#utility.yul\":2566:2645   */\n      tag_489\n      tag_367\n      jump\t// in\n    tag_489:\n        /* \"#utility.yul\":2528:2647   */\n    tag_488:\n        /* \"#utility.yul\":2686:2687   */\n      0x00\n        /* \"#utility.yul\":2711:2763   */\n      tag_490\n        /* \"#utility.yul\":2755:2762   */\n      dup5\n        /* \"#utility.yul\":2746:2752   */\n      dup3\n        /* \"#utility.yul\":2735:2744   */\n      dup6\n        /* \"#utility.yul\":2731:2753   */\n      add\n        /* \"#utility.yul\":2711:2763   */\n      tag_379\n      jump\t// in\n    tag_490:\n        /* \"#utility.yul\":2701:2763   */\n      swap2\n      pop\n        /* \"#utility.yul\":2657:2773   */\n      pop\n        /* \"#utility.yul\":2453:2780   */\n      swap3\n      swap2\n      pop\n      pop\n      jump\t// out\n        /* \"#utility.yul\":2786:2876   */\n    tag_380:\n        /* \"#utility.yul\":2820:2827   */\n      0x00\n        /* \"#utility.yul\":2863:2868   */\n      dup2\n        /* \"#utility.yul\":2856:2869   */\n      iszero\n        /* \"#utility.yul\":2849:2870   */\n      iszero\n        /* \"#utility.yul\":2838:2870   */\n      swap1\n      pop\n        /* \"#utility.yul\":2786:2876   */\n      swap2\n      swap1\n      pop\n      jump\t// out\n        /* \"#utility.yul\":2882:2991   */\n    tag_381:\n        /* \"#utility.yul\":2963:2984   */\n      tag_493\n        /* \"#utility.yul\":2978:2983   */\n      dup2\n        /* \"#utility.yul\":2963:2984   */\n      tag_380\n      jump\t// in\n    tag_493:\n        /* \"#utility.yul\":2958:2961   */\n      dup3\n        /* \"#utility.yul\":2951:2985   */\n      mstore\n        /* \"#utility.yul\":2882:2991   */\n      pop\n      pop\n      jump\t// out\n        /* \"#utility.yul\":2997:3207   */\n    tag_39:\n        /* \"#utility.yul\":3084:3088   */\n      0x00\n        /* \"#utility.yul\":3122:3124   */\n      0x20\n        /* \"#utility.yul\":3111:3120   */\n      dup3\n        /* \"#utility.yul\":3107:3125   */\n      add\n        /* \"#utility.yul\":3099:3125   */\n      swap1\n      pop\n        /* \"#utility.yul\":3135:3200   */\n      tag_495\n        /* \"#utility.yul\":3197:3198   */\n      0x00\n        /* \"#utility.yul\":3186:3195   */\n      dup4\n        /* \"#utility.yul\":3182:3199   */\n      add\n        /* \"#utility.yul\":3173:3179   */\n      dup5\n        /* \"#utility.yul\":3135:3200   */\n      tag_381\n      jump\t// in\n    tag_495:\n        /* \"#utility.yul\":2997:3207   */\n      swap3\n      swap2\n      pop\n      pop\n      jump\t// out\n        /* \"#utility.yul\":3213:3542   */\n    tag_45:\n        /* \"#utility.yul\":3272:3278   */\n      0x00\n        /* \"#utility.yul\":3321:3323   */\n      0x20\n        /* \"#utility.yul\":3309:3318   */\n      dup3\n        /* \"#utility.yul\":3300:3307   */\n      dup5\n        /* \"#utility.yul\":3296:3319   */\n      sub\n        /* \"#utility.yul\":3292:3324   */\n      slt\n        /* \"#utility.yul\":3289:3408   */\n      iszero\n      tag_497\n      jumpi\n        /* \"#utility.yul\":3327:3406   */\n      tag_498\n      tag_367\n      jump\t// in\n    tag_498:\n        /* \"#utility.yul\":3289:3408   */\n    tag_497:\n        /* \"#utility.yul\":3447:3448   */\n      0x00\n        /* \"#utility.yul\":3472:3525   */\n      tag_499\n        /* \"#utility.yul\":3517:3524   */\n      dup5\n        /* \"#utility.yul\":3508:3514   */\n      dup3\n        /* \"#utility.yul\":3497:3506   */\n      dup6\n        /* \"#utility.yul\":3493:3515   */\n      add\n        /* \"#utility.yul\":3472:3525   */\n      tag_372\n      jump\t// in\n    tag_499:\n        /* \"#utility.yul\":3462:3525   */\n      swap2\n      pop\n        /* \"#utility.yul\":3418:3535   */\n      pop\n        /* \"#utility.yul\":3213:3542   */\n      swap3\n      swap2\n      pop\n      pop\n      jump\t// out\n        /* \"#utility.yul\":3548:3877   */\n    tag_49:\n        /* \"#utility.yul\":3607:3613   */\n      0x00\n        /* \"#utility.yul\":3656:3658   */\n      0x20\n        /* \"#utility.yul\":3644:3653   */\n      dup3\n        /* \"#utility.yul\":3635:3642   */\n      dup5\n        /* \"#utility.yul\":3631:3654   */\n      sub\n        /* \"#utility.yul\":3627:3659   */\n      slt\n        /* \"#utility.yul\":3624:3743   */\n      iszero\n      tag_501\n      jumpi\n        /* \"#utility.yul\":3662:3741   */\n      tag_502\n      tag_367\n      jump\t// in\n    tag_502:\n        /* \"#utility.yul\":3624:3743   */\n    tag_501:\n        /* \"#utility.yul\":3782:3783   */\n      0x00\n        /* \"#utility.yul\":3807:3860   */\n      tag_503\n        /* \"#utility.yul\":3852:3859   */\n      dup5\n        /* \"#utility.yul\":3843:3849   */\n      dup3\n        /* \"#utility.yul\":3832:3841   */\n      dup6\n        /* \"#utility.yul\":3828:3850   */\n      add\n        /* \"#utility.yul\":3807:3860   */\n      tag_375\n      jump\t// in\n    tag_503:\n        /* \"#utility.yul\":3797:3860   */\n      swap2\n      pop\n        /* \"#utility.yul\":3753:3870   */\n      pop\n        /* \"#utility.yul\":3548:3877   */\n      swap3\n      swap2\n      pop\n      pop\n      jump\t// out\n        /* \"#utility.yul\":3883:3982   */\n    tag_382:\n        /* \"#utility.yul\":3935:3941   */\n      0x00\n        /* \"#utility.yul\":3969:3974   */\n      dup2\n        /* \"#utility.yul\":3963:3975   */\n      mload\n        /* \"#utility.yul\":3953:3975   */\n      swap1\n      pop\n        /* \"#utility.yul\":3883:3982   */\n      swap2\n      swap1\n      pop\n      jump\t// out\n        /* \"#utility.yul\":3988:4157   */\n    tag_383:\n        /* \"#utility.yul\":4072:4083   */\n      0x00\n        /* \"#utility.yul\":4106:4112   */\n      dup3\n        /* \"#utility.yul\":4101:4104   */\n      dup3\n        /* \"#utility.yul\":4094:4113   */\n      mstore\n        /* \"#utility.yul\":4146:4150   */\n      0x20\n        /* \"#utility.yul\":4141:4144   */\n      dup3\n        /* \"#utility.yul\":4137:4151   */\n      add\n        /* \"#utility.yul\":4122:4151   */\n      swap1\n      pop\n        /* \"#utility.yul\":3988:4157   */\n      swap3\n      swap2\n      pop\n      pop\n      jump\t// out\n        /* \"#utility.yul\":4163:4470   */\n    tag_384:\n        /* \"#utility.yul\":4231:4232   */\n      0x00\n        /* \"#utility.yul\":4241:4354   */\n    tag_507:\n        /* \"#utility.yul\":4255:4261   */\n      dup4\n        /* \"#utility.yul\":4252:4253   */\n      dup2\n        /* \"#utility.yul\":4249:4262   */\n      lt\n        /* \"#utility.yul\":4241:4354   */\n      iszero\n      tag_509\n      jumpi\n        /* \"#utility.yul\":4340:4341   */\n      dup1\n        /* \"#utility.yul\":4335:4338   */\n      dup3\n        /* \"#utility.yul\":4331:4342   */\n      add\n        /* \"#utility.yul\":4325:4343   */\n      mload\n        /* \"#utility.yul\":4321:4322   */\n      dup2\n        /* \"#utility.yul\":4316:4319   */\n      dup5\n        /* \"#utility.yul\":4312:4323   */\n      add\n        /* \"#utility.yul\":4305:4344   */\n      mstore\n        /* \"#utility.yul\":4277:4279   */\n      0x20\n        /* \"#utility.yul\":4274:4275   */\n      dup2\n        /* \"#utility.yul\":4270:4280   */\n      add\n        /* \"#utility.yul\":4265:4280   */\n      swap1\n      pop\n        /* \"#utility.yul\":4241:4354   */\n      jump(tag_507)\n    tag_509:\n        /* \"#utility.yul\":4372:4378   */\n      dup4\n        /* \"#utility.yul\":4369:4370   */\n      dup2\n        /* \"#utility.yul\":4366:4379   */\n      gt\n        /* \"#utility.yul\":4363:4464   */\n      iszero\n      tag_510\n      jumpi\n        /* \"#utility.yul\":4452:4453   */\n      0x00\n        /* \"#utility.yul\":4443:4449   */\n      dup5\n        /* \"#utility.yul\":4438:4441   */\n      dup5\n        /* \"#utility.yul\":4434:4450   */\n      add\n        /* \"#utility.yul\":4427:4454   */\n      mstore\n        /* \"#utility.yul\":4363:4464   */\n    tag_510:\n        /* \"#utility.yul\":4212:4470   */\n      pop\n        /* \"#utility.yul\":4163:4470   */\n      pop\n      pop\n      pop\n      jump\t// out\n        /* \"#utility.yul\":4476:4578   */\n    tag_385:\n        /* \"#utility.yul\":4517:4523   */\n      0x00\n        /* \"#utility.yul\":4568:4570   */\n      0x1f\n        /* \"#utility.yul\":4564:4571   */\n      not\n        /* \"#utility.yul\":4559:4561   */\n      0x1f\n        /* \"#utility.yul\":4552:4557   */\n      dup4\n        /* \"#utility.yul\":4548:4562   */\n      add\n        /* \"#utility.yul\":4544:4572   */\n      and\n        /* \"#utility.yul\":4534:4572   */\n      swap1\n      pop\n        /* \"#utility.yul\":4476:4578   */\n      swap2\n      swap1\n      pop\n      jump\t// out\n        /* \"#utility.yul\":4584:4948   */\n    tag_386:\n        /* \"#utility.yul\":4672:4675   */\n      0x00\n        /* \"#utility.yul\":4700:4739   */\n      tag_513\n        /* \"#utility.yul\":4733:4738   */\n      dup3\n        /* \"#utility.yul\":4700:4739   */\n      tag_382\n      jump\t// in\n    tag_513:\n        /* \"#utility.yul\":4755:4826   */\n      tag_514\n        /* \"#utility.yul\":4819:4825   */\n      dup2\n        /* \"#utility.yul\":4814:4817   */\n      dup6\n        /* \"#utility.yul\":4755:4826   */\n      tag_383\n      jump\t// in\n    tag_514:\n        /* \"#utility.yul\":4748:4826   */\n      swap4\n      pop\n        /* \"#utility.yul\":4835:4887   */\n      tag_515\n        /* \"#utility.yul\":4880:4886   */\n      dup2\n        /* \"#utility.yul\":4875:4878   */\n      dup6\n        /* \"#utility.yul\":4868:4872   */\n      0x20\n        /* \"#utility.yul\":4861:4866   */\n      dup7\n        /* \"#utility.yul\":4857:4873   */\n      add\n        /* \"#utility.yul\":4835:4887   */\n      tag_384\n      jump\t// in\n    tag_515:\n        /* \"#utility.yul\":4912:4941   */\n      tag_516\n        /* \"#utility.yul\":4934:4940   */\n      dup2\n        /* \"#utility.yul\":4912:4941   */\n      tag_385\n      jump\t// in\n    tag_516:\n        /* \"#utility.yul\":4907:4910   */\n      dup5\n        /* \"#utility.yul\":4903:4942   */\n      add\n        /* \"#utility.yul\":4896:4942   */\n      swap2\n      pop\n        /* \"#utility.yul\":4676:4948   */\n      pop\n        /* \"#utility.yul\":4584:4948   */\n      swap3\n      swap2\n      pop\n      pop\n      jump\t// out\n        /* \"#utility.yul\":4954:5267   */\n    tag_52:\n        /* \"#utility.yul\":5067:5071   */\n      0x00\n        /* \"#utility.yul\":5105:5107   */\n      0x20\n        /* \"#utility.yul\":5094:5103   */\n      dup3\n        /* \"#utility.yul\":5090:5108   */\n      add\n        /* \"#utility.yul\":5082:5108   */\n      swap1\n      pop\n        /* \"#utility.yul\":5154:5163   */\n      dup2\n        /* \"#utility.yul\":5148:5152   */\n      dup2\n        /* \"#utility.yul\":5144:5164   */\n      sub\n        /* \"#utility.yul\":5140:5141   */\n      0x00\n        /* \"#utility.yul\":5129:5138   */\n      dup4\n        /* \"#utility.yul\":5125:5142   */\n      add\n        /* \"#utility.yul\":5118:5165   */\n      mstore\n        /* \"#utility.yul\":5182:5260   */\n      tag_518\n        /* \"#utility.yul\":5255:5259   */\n      dup2\n        /* \"#utility.yul\":5246:5252   */\n      dup5\n        /* \"#utility.yul\":5182:5260   */\n      tag_386\n      jump\t// in\n    tag_518:\n        /* \"#utility.yul\":5174:5260   */\n      swap1\n      pop\n        /* \"#utility.yul\":4954:5267   */\n      swap3\n      swap2\n      pop\n      pop\n      jump\t// out\n        /* \"#utility.yul\":5273:5390   */\n    tag_387:\n        /* \"#utility.yul\":5382:5383   */\n      0x00\n        /* \"#utility.yul\":5379:5380   */\n      dup1\n        /* \"#utility.yul\":5372:5384   */\n      revert\n        /* \"#utility.yul\":5396:5576   */\n    tag_156:\n        /* \"#utility.yul\":5444:5521   */\n      0x4e487b7100000000000000000000000000000000000000000000000000000000\n        /* \"#utility.yul\":5441:5442   */\n      0x00\n        /* \"#utility.yul\":5434:5522   */\n      mstore\n        /* \"#utility.yul\":5541:5545   */\n      0x41\n        /* \"#utility.yul\":5538:5539   */\n      0x04\n        /* \"#utility.yul\":5531:5546   */\n      mstore\n        /* \"#utility.yul\":5565:5569   */\n      0x24\n        /* \"#utility.yul\":5562:5563   */\n      0x00\n        /* \"#utility.yul\":5555:5570   */\n      revert\n        /* \"#utility.yul\":5582:5863   */\n    tag_388:\n        /* \"#utility.yul\":5665:5692   */\n      tag_522\n        /* \"#utility.yul\":5687:5691   */\n      dup3\n        /* \"#utility.yul\":5665:5692   */\n      tag_385\n      jump\t// in\n    tag_522:\n        /* \"#utility.yul\":5657:5663   */\n      dup2\n        /* \"#utility.yul\":5653:5693   */\n      add\n        /* \"#utility.yul\":5795:5801   */\n      dup2\n        /* \"#utility.yul\":5783:5793   */\n      dup2\n        /* \"#utility.yul\":5780:5802   */\n      lt\n        /* \"#utility.yul\":5759:5777   */\n      0xffffffffffffffff\n        /* \"#utility.yul\":5747:5757   */\n      dup3\n        /* \"#utility.yul\":5744:5778   */\n      gt\n        /* \"#utility.yul\":5741:5803   */\n      or\n        /* \"#utility.yul\":5738:5826   */\n      iszero\n      tag_523\n      jumpi\n        /* \"#utility.yul\":5806:5824   */\n      tag_524\n      tag_156\n      jump\t// in\n    tag_524:\n        /* \"#utility.yul\":5738:5826   */\n    tag_523:\n        /* \"#utility.yul\":5846:5856   */\n      dup1\n        /* \"#utility.yul\":5842:5844   */\n      0x40\n        /* \"#utility.yul\":5835:5857   */\n      mstore\n        /* \"#utility.yul\":5625:5863   */\n      pop\n        /* \"#utility.yul\":5582:5863   */\n      pop\n      pop\n      jump\t// out\n        /* \"#utility.yul\":5869:5998   */\n    tag_389:\n        /* \"#utility.yul\":5903:5909   */\n      0x00\n        /* \"#utility.yul\":5930:5950   */\n      tag_526\n      tag_366\n      jump\t// in\n    tag_526:\n        /* \"#utility.yul\":5920:5950   */\n      swap1\n      pop\n        /* \"#utility.yul\":5959:5992   */\n      tag_527\n        /* \"#utility.yul\":5987:5991   */\n      dup3\n        /* \"#utility.yul\":5979:5985   */\n      dup3\n        /* \"#utility.yul\":5959:5992   */\n      tag_388\n      jump\t// in\n    tag_527:\n        /* \"#utility.yul\":5869:5998   */\n      swap2\n      swap1\n      pop\n      jump\t// out\n        /* \"#utility.yul\":6004:6315   */\n    tag_390:\n        /* \"#utility.yul\":6081:6085   */\n      0x00\n        /* \"#utility.yul\":6171:6189   */\n      0xffffffffffffffff\n        /* \"#utility.yul\":6163:6169   */\n      dup3\n        /* \"#utility.yul\":6160:6190   */\n      gt\n        /* \"#utility.yul\":6157:6213   */\n      iszero\n      tag_529\n      jumpi\n        /* \"#utility.yul\":6193:6211   */\n      tag_530\n      tag_156\n      jump\t// in\n    tag_530:\n        /* \"#utility.yul\":6157:6213   */\n    tag_529:\n        /* \"#utility.yul\":6243:6247   */\n      0x20\n        /* \"#utility.yul\":6235:6241   */\n      dup3\n        /* \"#utility.yul\":6231:6248   */\n      mul\n        /* \"#utility.yul\":6223:6248   */\n      swap1\n      pop\n        /* \"#utility.yul\":6303:6307   */\n      0x20\n        /* \"#utility.yul\":6297:6301   */\n      dup2\n        /* \"#utility.yul\":6293:6308   */\n      add\n        /* \"#utility.yul\":6285:6308   */\n      swap1\n      pop\n        /* \"#utility.yul\":6004:6315   */\n      swap2\n      swap1\n      pop\n      jump\t// out\n        /* \"#utility.yul\":6321:6438   */\n    tag_391:\n        /* \"#utility.yul\":6430:6431   */\n      0x00\n        /* \"#utility.yul\":6427:6428   */\n      dup1\n        /* \"#utility.yul\":6420:6432   */\n      revert\n        /* \"#utility.yul\":6461:7171   */\n    tag_392:\n        /* \"#utility.yul\":6557:6562   */\n      0x00\n        /* \"#utility.yul\":6582:6663   */\n      tag_533\n        /* \"#utility.yul\":6598:6662   */\n      tag_534\n        /* \"#utility.yul\":6655:6661   */\n      dup5\n        /* \"#utility.yul\":6598:6662   */\n      tag_390\n      jump\t// in\n    tag_534:\n        /* \"#utility.yul\":6582:6663   */\n      tag_389\n      jump\t// in\n    tag_533:\n        /* \"#utility.yul\":6573:6663   */\n      swap1\n      pop\n        /* \"#utility.yul\":6683:6688   */\n      dup1\n        /* \"#utility.yul\":6712:6718   */\n      dup4\n        /* \"#utility.yul\":6705:6710   */\n      dup3\n        /* \"#utility.yul\":6698:6719   */\n      mstore\n        /* \"#utility.yul\":6746:6750   */\n      0x20\n        /* \"#utility.yul\":6739:6744   */\n      dup3\n        /* \"#utility.yul\":6735:6751   */\n      add\n        /* \"#utility.yul\":6728:6751   */\n      swap1\n      pop\n        /* \"#utility.yul\":6799:6803   */\n      0x20\n        /* \"#utility.yul\":6791:6797   */\n      dup5\n        /* \"#utility.yul\":6787:6804   */\n      mul\n        /* \"#utility.yul\":6779:6785   */\n      dup4\n        /* \"#utility.yul\":6775:6805   */\n      add\n        /* \"#utility.yul\":6828:6831   */\n      dup6\n        /* \"#utility.yul\":6820:6826   */\n      dup2\n        /* \"#utility.yul\":6817:6832   */\n      gt\n        /* \"#utility.yul\":6814:6936   */\n      iszero\n      tag_535\n      jumpi\n        /* \"#utility.yul\":6847:6926   */\n      tag_536\n      tag_391\n      jump\t// in\n    tag_536:\n        /* \"#utility.yul\":6814:6936   */\n    tag_535:\n        /* \"#utility.yul\":6962:6968   */\n      dup4\n        /* \"#utility.yul\":6945:7165   */\n    tag_537:\n        /* \"#utility.yul\":6979:6985   */\n      dup2\n        /* \"#utility.yul\":6974:6977   */\n      dup2\n        /* \"#utility.yul\":6971:6986   */\n      lt\n        /* \"#utility.yul\":6945:7165   */\n      iszero\n      tag_539\n      jumpi\n        /* \"#utility.yul\":7054:7057   */\n      dup1\n        /* \"#utility.yul\":7083:7120   */\n      tag_540\n        /* \"#utility.yul\":7116:7119   */\n      dup9\n        /* \"#utility.yul\":7104:7114   */\n      dup3\n        /* \"#utility.yul\":7083:7120   */\n      tag_375\n      jump\t// in\n    tag_540:\n        /* \"#utility.yul\":7078:7081   */\n      dup5\n        /* \"#utility.yul\":7071:7121   */\n      mstore\n        /* \"#utility.yul\":7150:7154   */\n      0x20\n        /* \"#utility.yul\":7145:7148   */\n      dup5\n        /* \"#utility.yul\":7141:7155   */\n      add\n        /* \"#utility.yul\":7134:7155   */\n      swap4\n      pop\n        /* \"#utility.yul\":7021:7165   */\n      pop\n        /* \"#utility.yul\":7005:7009   */\n      0x20\n        /* \"#utility.yul\":7000:7003   */\n      dup2\n        /* \"#utility.yul\":6996:7010   */\n      add\n        /* \"#utility.yul\":6989:7010   */\n      swap1\n      pop\n        /* \"#utility.yul\":6945:7165   */\n      jump(tag_537)\n    tag_539:\n        /* \"#utility.yul\":6949:6970   */\n      pop\n        /* \"#utility.yul\":6563:7171   */\n      pop\n      pop\n        /* \"#utility.yul\":6461:7171   */\n      swap4\n      swap3\n      pop\n      pop\n      pop\n      jump\t// out\n        /* \"#utility.yul\":7194:7564   */\n    tag_393:\n        /* \"#utility.yul\":7265:7270   */\n      0x00\n        /* \"#utility.yul\":7314:7317   */\n      dup3\n        /* \"#utility.yul\":7307:7311   */\n      0x1f\n        /* \"#utility.yul\":7299:7305   */\n      dup4\n        /* \"#utility.yul\":7295:7312   */\n      add\n        /* \"#utility.yul\":7291:7318   */\n      slt\n        /* \"#utility.yul\":7281:7403   */\n      tag_542\n      jumpi\n        /* \"#utility.yul\":7322:7401   */\n      tag_543\n      tag_387\n      jump\t// in\n    tag_543:\n        /* \"#utility.yul\":7281:7403   */\n    tag_542:\n        /* \"#utility.yul\":7439:7445   */\n      dup2\n        /* \"#utility.yul\":7426:7446   */\n      calldataload\n        /* \"#utility.yul\":7464:7558   */\n      tag_544\n        /* \"#utility.yul\":7554:7557   */\n      dup5\n        /* \"#utility.yul\":7546:7552   */\n      dup3\n        /* \"#utility.yul\":7539:7543   */\n      0x20\n        /* \"#utility.yul\":7531:7537   */\n      dup7\n        /* \"#utility.yul\":7527:7544   */\n      add\n        /* \"#utility.yul\":7464:7558   */\n      tag_392\n      jump\t// in\n    tag_544:\n        /* \"#utility.yul\":7455:7558   */\n      swap2\n      pop\n        /* \"#utility.yul\":7271:7564   */\n      pop\n        /* \"#utility.yul\":7194:7564   */\n      swap3\n      swap2\n      pop\n      pop\n      jump\t// out\n        /* \"#utility.yul\":7570:7687   */\n    tag_394:\n        /* \"#utility.yul\":7679:7680   */\n      0x00\n        /* \"#utility.yul\":7676:7677   */\n      dup1\n        /* \"#utility.yul\":7669:7681   */\n      revert\n        /* \"#utility.yul\":7693:8000   */\n    tag_395:\n        /* \"#utility.yul\":7754:7758   */\n      0x00\n        /* \"#utility.yul\":7844:7862   */\n      0xffffffffffffffff\n        /* \"#utility.yul\":7836:7842   */\n      dup3\n        /* \"#utility.yul\":7833:7863   */\n      gt\n        /* \"#utility.yul\":7830:7886   */\n      iszero\n      tag_547\n      jumpi\n        /* \"#utility.yul\":7866:7884   */\n      tag_548\n      tag_156\n      jump\t// in\n    tag_548:\n        /* \"#utility.yul\":7830:7886   */\n    tag_547:\n        /* \"#utility.yul\":7904:7933   */\n      tag_549\n        /* \"#utility.yul\":7926:7932   */\n      dup3\n        /* \"#utility.yul\":7904:7933   */\n      tag_385\n      jump\t// in\n    tag_549:\n        /* \"#utility.yul\":7896:7933   */\n      swap1\n      pop\n        /* \"#utility.yul\":7988:7992   */\n      0x20\n        /* \"#utility.yul\":7982:7986   */\n      dup2\n        /* \"#utility.yul\":7978:7993   */\n      add\n        /* \"#utility.yul\":7970:7993   */\n      swap1\n      pop\n        /* \"#utility.yul\":7693:8000   */\n      swap2\n      swap1\n      pop\n      jump\t// out\n        /* \"#utility.yul\":8006:8160   */\n    tag_396:\n        /* \"#utility.yul\":8090:8096   */\n      dup3\n        /* \"#utility.yul\":8085:8088   */\n      dup2\n        /* \"#utility.yul\":8080:8083   */\n      dup4\n        /* \"#utility.yul\":8067:8097   */\n      calldatacopy\n        /* \"#utility.yul\":8152:8153   */\n      0x00\n        /* \"#utility.yul\":8143:8149   */\n      dup4\n        /* \"#utility.yul\":8138:8141   */\n      dup4\n        /* \"#utility.yul\":8134:8150   */\n      add\n        /* \"#utility.yul\":8127:8154   */\n      mstore\n        /* \"#utility.yul\":8006:8160   */\n      pop\n      pop\n      pop\n      jump\t// out\n        /* \"#utility.yul\":8166:8576   */\n    tag_397:\n        /* \"#utility.yul\":8243:8248   */\n      0x00\n        /* \"#utility.yul\":8268:8333   */\n      tag_552\n        /* \"#utility.yul\":8284:8332   */\n      tag_553\n        /* \"#utility.yul\":8325:8331   */\n      dup5\n        /* \"#utility.yul\":8284:8332   */\n      tag_395\n      jump\t// in\n    tag_553:\n        /* \"#utility.yul\":8268:8333   */\n      tag_389\n      jump\t// in\n    tag_552:\n        /* \"#utility.yul\":8259:8333   */\n      swap1\n      pop\n        /* \"#utility.yul\":8356:8362   */\n      dup3\n        /* \"#utility.yul\":8349:8354   */\n      dup2\n        /* \"#utility.yul\":8342:8363   */\n      mstore\n        /* \"#utility.yul\":8394:8398   */\n      0x20\n        /* \"#utility.yul\":8387:8392   */\n      dup2\n        /* \"#utility.yul\":8383:8399   */\n      add\n        /* \"#utility.yul\":8432:8435   */\n      dup5\n        /* \"#utility.yul\":8423:8429   */\n      dup5\n        /* \"#utility.yul\":8418:8421   */\n      dup5\n        /* \"#utility.yul\":8414:8430   */\n      add\n        /* \"#utility.yul\":8411:8436   */\n      gt\n        /* \"#utility.yul\":8408:8520   */\n      iszero\n      tag_554\n      jumpi\n        /* \"#utility.yul\":8439:8518   */\n      tag_555\n      tag_394\n      jump\t// in\n    tag_555:\n        /* \"#utility.yul\":8408:8520   */\n    tag_554:\n        /* \"#utility.yul\":8529:8570   */\n      tag_556\n        /* \"#utility.yul\":8563:8569   */\n      dup5\n        /* \"#utility.yul\":8558:8561   */\n      dup3\n        /* \"#utility.yul\":8553:8556   */\n      dup6\n        /* \"#utility.yul\":8529:8570   */\n      tag_396\n      jump\t// in\n    tag_556:\n        /* \"#utility.yul\":8249:8576   */\n      pop\n        /* \"#utility.yul\":8166:8576   */\n      swap4\n      swap3\n      pop\n      pop\n      pop\n      jump\t// out\n        /* \"#utility.yul\":8595:8933   */\n    tag_398:\n        /* \"#utility.yul\":8650:8655   */\n      0x00\n        /* \"#utility.yul\":8699:8702   */\n      dup3\n        /* \"#utility.yul\":8692:8696   */\n      0x1f\n        /* \"#utility.yul\":8684:8690   */\n      dup4\n        /* \"#utility.yul\":8680:8697   */\n      add\n        /* \"#utility.yul\":8676:8703   */\n      slt\n        /* \"#utility.yul\":8666:8788   */\n      tag_558\n      jumpi\n        /* \"#utility.yul\":8707:8786   */\n      tag_559\n      tag_387\n      jump\t// in\n    tag_559:\n        /* \"#utility.yul\":8666:8788   */\n    tag_558:\n        /* \"#utility.yul\":8824:8830   */\n      dup2\n        /* \"#utility.yul\":8811:8831   */\n      calldataload\n        /* \"#utility.yul\":8849:8927   */\n      tag_560\n        /* \"#utility.yul\":8923:8926   */\n      dup5\n        /* \"#utility.yul\":8915:8921   */\n      dup3\n        /* \"#utility.yul\":8908:8912   */\n      0x20\n        /* \"#utility.yul\":8900:8906   */\n      dup7\n        /* \"#utility.yul\":8896:8913   */\n      add\n        /* \"#utility.yul\":8849:8927   */\n      tag_397\n      jump\t// in\n    tag_560:\n        /* \"#utility.yul\":8840:8927   */\n      swap2\n      pop\n        /* \"#utility.yul\":8656:8933   */\n      pop\n        /* \"#utility.yul\":8595:8933   */\n      swap3\n      swap2\n      pop\n      pop\n      jump\t// out\n        /* \"#utility.yul\":8939:10448   */\n    tag_55:\n        /* \"#utility.yul\":9093:9099   */\n      0x00\n        /* \"#utility.yul\":9101:9107   */\n      dup1\n        /* \"#utility.yul\":9109:9115   */\n      0x00\n        /* \"#utility.yul\":9117:9123   */\n      dup1\n        /* \"#utility.yul\":9125:9131   */\n      0x00\n        /* \"#utility.yul\":9174:9177   */\n      0xa0\n        /* \"#utility.yul\":9162:9171   */\n      dup7\n        /* \"#utility.yul\":9153:9160   */\n      dup9\n        /* \"#utility.yul\":9149:9172   */\n      sub\n        /* \"#utility.yul\":9145:9178   */\n      slt\n        /* \"#utility.yul\":9142:9262   */\n      iszero\n      tag_562\n      jumpi\n        /* \"#utility.yul\":9181:9260   */\n      tag_563\n      tag_367\n      jump\t// in\n    tag_563:\n        /* \"#utility.yul\":9142:9262   */\n    tag_562:\n        /* \"#utility.yul\":9301:9302   */\n      0x00\n        /* \"#utility.yul\":9326:9379   */\n      tag_564\n        /* \"#utility.yul\":9371:9378   */\n      dup9\n        /* \"#utility.yul\":9362:9368   */\n      dup3\n        /* \"#utility.yul\":9351:9360   */\n      dup10\n        /* \"#utility.yul\":9347:9369   */\n      add\n        /* \"#utility.yul\":9326:9379   */\n      tag_372\n      jump\t// in\n    tag_564:\n        /* \"#utility.yul\":9316:9379   */\n      swap6\n      pop\n        /* \"#utility.yul\":9272:9389   */\n      pop\n        /* \"#utility.yul\":9428:9430   */\n      0x20\n        /* \"#utility.yul\":9454:9507   */\n      tag_565\n        /* \"#utility.yul\":9499:9506   */\n      dup9\n        /* \"#utility.yul\":9490:9496   */\n      dup3\n        /* \"#utility.yul\":9479:9488   */\n      dup10\n        /* \"#utility.yul\":9475:9497   */\n      add\n        /* \"#utility.yul\":9454:9507   */\n      tag_372\n      jump\t// in\n    tag_565:\n        /* \"#utility.yul\":9444:9507   */\n      swap5\n      pop\n        /* \"#utility.yul\":9399:9517   */\n      pop\n        /* \"#utility.yul\":9584:9586   */\n      0x40\n        /* \"#utility.yul\":9573:9582   */\n      dup7\n        /* \"#utility.yul\":9569:9587   */\n      add\n        /* \"#utility.yul\":9556:9588   */\n      calldataload\n        /* \"#utility.yul\":9615:9633   */\n      0xffffffffffffffff\n        /* \"#utility.yul\":9607:9613   */\n      dup2\n        /* \"#utility.yul\":9604:9634   */\n      gt\n        /* \"#utility.yul\":9601:9718   */\n      iszero\n      tag_566\n      jumpi\n        /* \"#utility.yul\":9637:9716   */\n      tag_567\n      tag_368\n      jump\t// in\n    tag_567:\n        /* \"#utility.yul\":9601:9718   */\n    tag_566:\n        /* \"#utility.yul\":9742:9820   */\n      tag_568\n        /* \"#utility.yul\":9812:9819   */\n      dup9\n        /* \"#utility.yul\":9803:9809   */\n      dup3\n        /* \"#utility.yul\":9792:9801   */\n      dup10\n        /* \"#utility.yul\":9788:9810   */\n      add\n        /* \"#utility.yul\":9742:9820   */\n      tag_393\n      jump\t// in\n    tag_568:\n        /* \"#utility.yul\":9732:9820   */\n      swap4\n      pop\n        /* \"#utility.yul\":9527:9830   */\n      pop\n        /* \"#utility.yul\":9897:9899   */\n      0x60\n        /* \"#utility.yul\":9886:9895   */\n      dup7\n        /* \"#utility.yul\":9882:9900   */\n      add\n        /* \"#utility.yul\":9869:9901   */\n      calldataload\n        /* \"#utility.yul\":9928:9946   */\n      0xffffffffffffffff\n        /* \"#utility.yul\":9920:9926   */\n      dup2\n        /* \"#utility.yul\":9917:9947   */\n      gt\n        /* \"#utility.yul\":9914:10031   */\n      iszero\n      tag_569\n      jumpi\n        /* \"#utility.yul\":9950:10029   */\n      tag_570\n      tag_368\n      jump\t// in\n    tag_570:\n        /* \"#utility.yul\":9914:10031   */\n    tag_569:\n        /* \"#utility.yul\":10055:10133   */\n      tag_571\n        /* \"#utility.yul\":10125:10132   */\n      dup9\n        /* \"#utility.yul\":10116:10122   */\n      dup3\n        /* \"#utility.yul\":10105:10114   */\n      dup10\n        /* \"#utility.yul\":10101:10123   */\n      add\n        /* \"#utility.yul\":10055:10133   */\n      tag_393\n      jump\t// in\n    tag_571:\n        /* \"#utility.yul\":10045:10133   */\n      swap3\n      pop\n        /* \"#utility.yul\":9840:10143   */\n      pop\n        /* \"#utility.yul\":10210:10213   */\n      0x80\n        /* \"#utility.yul\":10199:10208   */\n      dup7\n        /* \"#utility.yul\":10195:10214   */\n      add\n        /* \"#utility.yul\":10182:10215   */\n      calldataload\n        /* \"#utility.yul\":10242:10260   */\n      0xffffffffffffffff\n        /* \"#utility.yul\":10234:10240   */\n      dup2\n        /* \"#utility.yul\":10231:10261   */\n      gt\n        /* \"#utility.yul\":10228:10345   */\n      iszero\n      tag_572\n      jumpi\n        /* \"#utility.yul\":10264:10343   */\n      tag_573\n      tag_368\n      jump\t// in\n    tag_573:\n        /* \"#utility.yul\":10228:10345   */\n    tag_572:\n        /* \"#utility.yul\":10369:10431   */\n      tag_574\n        /* \"#utility.yul\":10423:10430   */\n      dup9\n        /* \"#utility.yul\":10414:10420   */\n      dup3\n        /* \"#utility.yul\":10403:10412   */\n      dup10\n        /* \"#utility.yul\":10399:10421   */\n      add\n        /* \"#utility.yul\":10369:10431   */\n      tag_398\n      jump\t// in\n    tag_574:\n        /* \"#utility.yul\":10359:10431   */\n      swap2\n      pop\n        /* \"#utility.yul\":10153:10441   */\n      pop\n        /* \"#utility.yul\":8939:10448   */\n      swap3\n      swap6\n      pop\n      swap3\n      swap6\n      swap1\n      swap4\n      pop\n      jump\t// out\n        /* \"#utility.yul\":10454:10765   */\n    tag_399:\n        /* \"#utility.yul\":10531:10535   */\n      0x00\n        /* \"#utility.yul\":10621:10639   */\n      0xffffffffffffffff\n        /* \"#utility.yul\":10613:10619   */\n      dup3\n        /* \"#utility.yul\":10610:10640   */\n      gt\n        /* \"#utility.yul\":10607:10663   */\n      iszero\n      tag_576\n      jumpi\n        /* \"#utility.yul\":10643:10661   */\n      tag_577\n      tag_156\n      jump\t// in\n    tag_577:\n        /* \"#utility.yul\":10607:10663   */\n    tag_576:\n        /* \"#utility.yul\":10693:10697   */\n      0x20\n        /* \"#utility.yul\":10685:10691   */\n      dup3\n        /* \"#utility.yul\":10681:10698   */\n      mul\n        /* \"#utility.yul\":10673:10698   */\n      swap1\n      pop\n        /* \"#utility.yul\":10753:10757   */\n      0x20\n        /* \"#utility.yul\":10747:10751   */\n      dup2\n        /* \"#utility.yul\":10743:10758   */\n      add\n        /* \"#utility.yul\":10735:10758   */\n      swap1\n      pop\n        /* \"#utility.yul\":10454:10765   */\n      swap2\n      swap1\n      pop\n      jump\t// out\n        /* \"#utility.yul\":10788:11498   */\n    tag_400:\n        /* \"#utility.yul\":10884:10889   */\n      0x00\n        /* \"#utility.yul\":10909:10990   */\n      tag_579\n        /* \"#utility.yul\":10925:10989   */\n      tag_580\n        /* \"#utility.yul\":10982:10988   */\n      dup5\n        /* \"#utility.yul\":10925:10989   */\n      tag_399\n      jump\t// in\n    tag_580:\n        /* \"#utility.yul\":10909:10990   */\n      tag_389\n      jump\t// in\n    tag_579:\n        /* \"#utility.yul\":10900:10990   */\n      swap1\n      pop\n        /* \"#utility.yul\":11010:11015   */\n      dup1\n        /* \"#utility.yul\":11039:11045   */\n      dup4\n        /* \"#utility.yul\":11032:11037   */\n      dup3\n        /* \"#utility.yul\":11025:11046   */\n      mstore\n        /* \"#utility.yul\":11073:11077   */\n      0x20\n        /* \"#utility.yul\":11066:11071   */\n      dup3\n        /* \"#utility.yul\":11062:11078   */\n      add\n        /* \"#utility.yul\":11055:11078   */\n      swap1\n      pop\n        /* \"#utility.yul\":11126:11130   */\n      0x20\n        /* \"#utility.yul\":11118:11124   */\n      dup5\n        /* \"#utility.yul\":11114:11131   */\n      mul\n        /* \"#utility.yul\":11106:11112   */\n      dup4\n        /* \"#utility.yul\":11102:11132   */\n      add\n        /* \"#utility.yul\":11155:11158   */\n      dup6\n        /* \"#utility.yul\":11147:11153   */\n      dup2\n        /* \"#utility.yul\":11144:11159   */\n      gt\n        /* \"#utility.yul\":11141:11263   */\n      iszero\n      tag_581\n      jumpi\n        /* \"#utility.yul\":11174:11253   */\n      tag_582\n      tag_391\n      jump\t// in\n    tag_582:\n        /* \"#utility.yul\":11141:11263   */\n    tag_581:\n        /* \"#utility.yul\":11289:11295   */\n      dup4\n        /* \"#utility.yul\":11272:11492   */\n    tag_583:\n        /* \"#utility.yul\":11306:11312   */\n      dup2\n        /* \"#utility.yul\":11301:11304   */\n      dup2\n        /* \"#utility.yul\":11298:11313   */\n      lt\n        /* \"#utility.yul\":11272:11492   */\n      iszero\n      tag_585\n      jumpi\n        /* \"#utility.yul\":11381:11384   */\n      dup1\n        /* \"#utility.yul\":11410:11447   */\n      tag_586\n        /* \"#utility.yul\":11443:11446   */\n      dup9\n        /* \"#utility.yul\":11431:11441   */\n      dup3\n        /* \"#utility.yul\":11410:11447   */\n      tag_372\n      jump\t// in\n    tag_586:\n        /* \"#utility.yul\":11405:11408   */\n      dup5\n        /* \"#utility.yul\":11398:11448   */\n      mstore\n        /* \"#utility.yul\":11477:11481   */\n      0x20\n        /* \"#utility.yul\":11472:11475   */\n      dup5\n        /* \"#utility.yul\":11468:11482   */\n      add\n        /* \"#utility.yul\":11461:11482   */\n      swap4\n      pop\n        /* \"#utility.yul\":11348:11492   */\n      pop\n        /* \"#utility.yul\":11332:11336   */\n      0x20\n        /* \"#utility.yul\":11327:11330   */\n      dup2\n        /* \"#utility.yul\":11323:11337   */\n      add\n        /* \"#utility.yul\":11316:11337   */\n      swap1\n      pop\n        /* \"#utility.yul\":11272:11492   */\n      jump(tag_583)\n    tag_585:\n        /* \"#utility.yul\":11276:11297   */\n      pop\n        /* \"#utility.yul\":10890:11498   */\n      pop\n      pop\n        /* \"#utility.yul\":10788:11498   */\n      swap4\n      swap3\n      pop\n      pop\n      pop\n      jump\t// out\n        /* \"#utility.yul\":11521:11891   */\n    tag_401:\n        /* \"#utility.yul\":11592:11597   */\n      0x00\n        /* \"#utility.yul\":11641:11644   */\n      dup3\n        /* \"#utility.yul\":11634:11638   */\n      0x1f\n        /* \"#utility.yul\":11626:11632   */\n      dup4\n        /* \"#utility.yul\":11622:11639   */\n      add\n        /* \"#utility.yul\":11618:11645   */\n      slt\n        /* \"#utility.yul\":11608:11730   */\n      tag_588\n      jumpi\n        /* \"#utility.yul\":11649:11728   */\n      tag_589\n      tag_387\n      jump\t// in\n    tag_589:\n        /* \"#utility.yul\":11608:11730   */\n    tag_588:\n        /* \"#utility.yul\":11766:11772   */\n      dup2\n        /* \"#utility.yul\":11753:11773   */\n      calldataload\n        /* \"#utility.yul\":11791:11885   */\n      tag_590\n        /* \"#utility.yul\":11881:11884   */\n      dup5\n        /* \"#utility.yul\":11873:11879   */\n      dup3\n        /* \"#utility.yul\":11866:11870   */\n      0x20\n        /* \"#utility.yul\":11858:11864   */\n      dup7\n        /* \"#utility.yul\":11854:11871   */\n      add\n        /* \"#utility.yul\":11791:11885   */\n      tag_400\n      jump\t// in\n    tag_590:\n        /* \"#utility.yul\":11782:11885   */\n      swap2\n      pop\n        /* \"#utility.yul\":11598:11891   */\n      pop\n        /* \"#utility.yul\":11521:11891   */\n      swap3\n      swap2\n      pop\n      pop\n      jump\t// out\n        /* \"#utility.yul\":11897:12791   */\n    tag_63:\n        /* \"#utility.yul\":12015:12021   */\n      0x00\n        /* \"#utility.yul\":12023:12029   */\n      dup1\n        /* \"#utility.yul\":12072:12074   */\n      0x40\n        /* \"#utility.yul\":12060:12069   */\n      dup4\n        /* \"#utility.yul\":12051:12058   */\n      dup6\n        /* \"#utility.yul\":12047:12070   */\n      sub\n        /* \"#utility.yul\":12043:12075   */\n      slt\n        /* \"#utility.yul\":12040:12159   */\n      iszero\n      tag_592\n      jumpi\n        /* \"#utility.yul\":12078:12157   */\n      tag_593\n      tag_367\n      jump\t// in\n    tag_593:\n        /* \"#utility.yul\":12040:12159   */\n    tag_592:\n        /* \"#utility.yul\":12226:12227   */\n      0x00\n        /* \"#utility.yul\":12215:12224   */\n      dup4\n        /* \"#utility.yul\":12211:12228   */\n      add\n        /* \"#utility.yul\":12198:12229   */\n      calldataload\n        /* \"#utility.yul\":12256:12274   */\n      0xffffffffffffffff\n        /* \"#utility.yul\":12248:12254   */\n      dup2\n        /* \"#utility.yul\":12245:12275   */\n      gt\n        /* \"#utility.yul\":12242:12359   */\n      iszero\n      tag_594\n      jumpi\n        /* \"#utility.yul\":12278:12357   */\n      tag_595\n      tag_368\n      jump\t// in\n    tag_595:\n        /* \"#utility.yul\":12242:12359   */\n    tag_594:\n        /* \"#utility.yul\":12383:12461   */\n      tag_596\n        /* \"#utility.yul\":12453:12460   */\n      dup6\n        /* \"#utility.yul\":12444:12450   */\n      dup3\n        /* \"#utility.yul\":12433:12442   */\n      dup7\n        /* \"#utility.yul\":12429:12451   */\n      add\n        /* \"#utility.yul\":12383:12461   */\n      tag_401\n      jump\t// in\n    tag_596:\n        /* \"#utility.yul\":12373:12461   */\n      swap3\n      pop\n        /* \"#utility.yul\":12169:12471   */\n      pop\n        /* \"#utility.yul\":12538:12540   */\n      0x20\n        /* \"#utility.yul\":12527:12536   */\n      dup4\n        /* \"#utility.yul\":12523:12541   */\n      add\n        /* \"#utility.yul\":12510:12542   */\n      calldataload\n        /* \"#utility.yul\":12569:12587   */\n      0xffffffffffffffff\n        /* \"#utility.yul\":12561:12567   */\n      dup2\n        /* \"#utility.yul\":12558:12588   */\n      gt\n        /* \"#utility.yul\":12555:12672   */\n      iszero\n      tag_597\n      jumpi\n        /* \"#utility.yul\":12591:12670   */\n      tag_598\n      tag_368\n      jump\t// in\n    tag_598:\n        /* \"#utility.yul\":12555:12672   */\n    tag_597:\n        /* \"#utility.yul\":12696:12774   */\n      tag_599\n        /* \"#utility.yul\":12766:12773   */\n      dup6\n        /* \"#utility.yul\":12757:12763   */\n      dup3\n        /* \"#utility.yul\":12746:12755   */\n      dup7\n        /* \"#utility.yul\":12742:12764   */\n      add\n        /* \"#utility.yul\":12696:12774   */\n      tag_393\n      jump\t// in\n    tag_599:\n        /* \"#utility.yul\":12686:12774   */\n      swap2\n      pop\n        /* \"#utility.yul\":12481:12784   */\n      pop\n        /* \"#utility.yul\":11897:12791   */\n      swap3\n      pop\n      swap3\n      swap1\n      pop\n      jump\t// out\n        /* \"#utility.yul\":12797:12911   */\n    tag_402:\n        /* \"#utility.yul\":12864:12870   */\n      0x00\n        /* \"#utility.yul\":12898:12903   */\n      dup2\n        /* \"#utility.yul\":12892:12904   */\n      mload\n        /* \"#utility.yul\":12882:12904   */\n      swap1\n      pop\n        /* \"#utility.yul\":12797:12911   */\n      swap2\n      swap1\n      pop\n      jump\t// out\n        /* \"#utility.yul\":12917:13101   */\n    tag_403:\n        /* \"#utility.yul\":13016:13027   */\n      0x00\n        /* \"#utility.yul\":13050:13056   */\n      dup3\n        /* \"#utility.yul\":13045:13048   */\n      dup3\n        /* \"#utility.yul\":13038:13057   */\n      mstore\n        /* \"#utility.yul\":13090:13094   */\n      0x20\n        /* \"#utility.yul\":13085:13088   */\n      dup3\n        /* \"#utility.yul\":13081:13095   */\n      add\n        /* \"#utility.yul\":13066:13095   */\n      swap1\n      pop\n        /* \"#utility.yul\":12917:13101   */\n      swap3\n      swap2\n      pop\n      pop\n      jump\t// out\n        /* \"#utility.yul\":13107:13239   */\n    tag_404:\n        /* \"#utility.yul\":13174:13178   */\n      0x00\n        /* \"#utility.yul\":13197:13200   */\n      dup2\n        /* \"#utility.yul\":13189:13200   */\n      swap1\n      pop\n        /* \"#utility.yul\":13227:13231   */\n      0x20\n        /* \"#utility.yul\":13222:13225   */\n      dup3\n        /* \"#utility.yul\":13218:13232   */\n      add\n        /* \"#utility.yul\":13210:13232   */\n      swap1\n      pop\n        /* \"#utility.yul\":13107:13239   */\n      swap2\n      swap1\n      pop\n      jump\t// out\n        /* \"#utility.yul\":13245:13353   */\n    tag_405:\n        /* \"#utility.yul\":13322:13346   */\n      tag_604\n        /* \"#utility.yul\":13340:13345   */\n      dup2\n        /* \"#utility.yul\":13322:13346   */\n      tag_373\n      jump\t// in\n    tag_604:\n        /* \"#utility.yul\":13317:13320   */\n      dup3\n        /* \"#utility.yul\":13310:13347   */\n      mstore\n        /* \"#utility.yul\":13245:13353   */\n      pop\n      pop\n      jump\t// out\n        /* \"#utility.yul\":13359:13538   */\n    tag_406:\n        /* \"#utility.yul\":13428:13438   */\n      0x00\n        /* \"#utility.yul\":13449:13495   */\n      tag_606\n        /* \"#utility.yul\":13491:13494   */\n      dup4\n        /* \"#utility.yul\":13483:13489   */\n      dup4\n        /* \"#utility.yul\":13449:13495   */\n      tag_405\n      jump\t// in\n    tag_606:\n        /* \"#utility.yul\":13527:13531   */\n      0x20\n        /* \"#utility.yul\":13522:13525   */\n      dup4\n        /* \"#utility.yul\":13518:13532   */\n      add\n        /* \"#utility.yul\":13504:13532   */\n      swap1\n      pop\n        /* \"#utility.yul\":13359:13538   */\n      swap3\n      swap2\n      pop\n      pop\n      jump\t// out\n        /* \"#utility.yul\":13544:13657   */\n    tag_407:\n        /* \"#utility.yul\":13614:13618   */\n      0x00\n        /* \"#utility.yul\":13646:13650   */\n      0x20\n        /* \"#utility.yul\":13641:13644   */\n      dup3\n        /* \"#utility.yul\":13637:13651   */\n      add\n        /* \"#utility.yul\":13629:13651   */\n      swap1\n      pop\n        /* \"#utility.yul\":13544:13657   */\n      swap2\n      swap1\n      pop\n      jump\t// out\n        /* \"#utility.yul\":13693:14425   */\n    tag_408:\n        /* \"#utility.yul\":13812:13815   */\n      0x00\n        /* \"#utility.yul\":13841:13895   */\n      tag_609\n        /* \"#utility.yul\":13889:13894   */\n      dup3\n        /* \"#utility.yul\":13841:13895   */\n      tag_402\n      jump\t// in\n    tag_609:\n        /* \"#utility.yul\":13911:13997   */\n      tag_610\n        /* \"#utility.yul\":13990:13996   */\n      dup2\n        /* \"#utility.yul\":13985:13988   */\n      dup6\n        /* \"#utility.yul\":13911:13997   */\n      tag_403\n      jump\t// in\n    tag_610:\n        /* \"#utility.yul\":13904:13997   */\n      swap4\n      pop\n        /* \"#utility.yul\":14021:14077   */\n      tag_611\n        /* \"#utility.yul\":14071:14076   */\n      dup4\n        /* \"#utility.yul\":14021:14077   */\n      tag_404\n      jump\t// in\n    tag_611:\n        /* \"#utility.yul\":14100:14107   */\n      dup1\n        /* \"#utility.yul\":14131:14132   */\n      0x00\n        /* \"#utility.yul\":14116:14400   */\n    tag_612:\n        /* \"#utility.yul\":14141:14147   */\n      dup4\n        /* \"#utility.yul\":14138:14139   */\n      dup2\n        /* \"#utility.yul\":14135:14148   */\n      lt\n        /* \"#utility.yul\":14116:14400   */\n      iszero\n      tag_614\n      jumpi\n        /* \"#utility.yul\":14217:14223   */\n      dup2\n        /* \"#utility.yul\":14211:14224   */\n      mload\n        /* \"#utility.yul\":14244:14307   */\n      tag_615\n        /* \"#utility.yul\":14303:14306   */\n      dup9\n        /* \"#utility.yul\":14288:14301   */\n      dup3\n        /* \"#utility.yul\":14244:14307   */\n      tag_406\n      jump\t// in\n    tag_615:\n        /* \"#utility.yul\":14237:14307   */\n      swap8\n      pop\n        /* \"#utility.yul\":14330:14390   */\n      tag_616\n        /* \"#utility.yul\":14383:14389   */\n      dup4\n        /* \"#utility.yul\":14330:14390   */\n      tag_407\n      jump\t// in\n    tag_616:\n        /* \"#utility.yul\":14320:14390   */\n      swap3\n      pop\n        /* \"#utility.yul\":14176:14400   */\n      pop\n        /* \"#utility.yul\":14163:14164   */\n      0x01\n        /* \"#utility.yul\":14160:14161   */\n      dup2\n        /* \"#utility.yul\":14156:14165   */\n      add\n        /* \"#utility.yul\":14151:14165   */\n      swap1\n      pop\n        /* \"#utility.yul\":14116:14400   */\n      jump(tag_612)\n    tag_614:\n        /* \"#utility.yul\":14120:14134   */\n      pop\n        /* \"#utility.yul\":14416:14419   */\n      dup6\n        /* \"#utility.yul\":14409:14419   */\n      swap4\n      pop\n        /* \"#utility.yul\":13817:14425   */\n      pop\n      pop\n      pop\n        /* \"#utility.yul\":13693:14425   */\n      swap3\n      swap2\n      pop\n      pop\n      jump\t// out\n        /* \"#utility.yul\":14431:14804   */\n    tag_66:\n        /* \"#utility.yul\":14574:14578   */\n      0x00\n        /* \"#utility.yul\":14612:14614   */\n      0x20\n        /* \"#utility.yul\":14601:14610   */\n      dup3\n        /* \"#utility.yul\":14597:14615   */\n      add\n        /* \"#utility.yul\":14589:14615   */\n      swap1\n      pop\n        /* \"#utility.yul\":14661:14670   */\n      dup2\n        /* \"#utility.yul\":14655:14659   */\n      dup2\n        /* \"#utility.yul\":14651:14671   */\n      sub\n        /* \"#utility.yul\":14647:14648   */\n      0x00\n        /* \"#utility.yul\":14636:14645   */\n      dup4\n        /* \"#utility.yul\":14632:14649   */\n      add\n        /* \"#utility.yul\":14625:14672   */\n      mstore\n        /* \"#utility.yul\":14689:14797   */\n      tag_618\n        /* \"#utility.yul\":14792:14796   */\n      dup2\n        /* \"#utility.yul\":14783:14789   */\n      dup5\n        /* \"#utility.yul\":14689:14797   */\n      tag_408\n      jump\t// in\n    tag_618:\n        /* \"#utility.yul\":14681:14797   */\n      swap1\n      pop\n        /* \"#utility.yul\":14431:14804   */\n      swap3\n      swap2\n      pop\n      pop\n      jump\t// out\n        /* \"#utility.yul\":14810:14928   */\n    tag_409:\n        /* \"#utility.yul\":14897:14921   */\n      tag_620\n        /* \"#utility.yul\":14915:14920   */\n      dup2\n        /* \"#utility.yul\":14897:14921   */\n      tag_370\n      jump\t// in\n    tag_620:\n        /* \"#utility.yul\":14892:14895   */\n      dup3\n        /* \"#utility.yul\":14885:14922   */\n      mstore\n        /* \"#utility.yul\":14810:14928   */\n      pop\n      pop\n      jump\t// out\n        /* \"#utility.yul\":14934:15156   */\n    tag_72:\n        /* \"#utility.yul\":15027:15031   */\n      0x00\n        /* \"#utility.yul\":15065:15067   */\n      0x20\n        /* \"#utility.yul\":15054:15063   */\n      dup3\n        /* \"#utility.yul\":15050:15068   */\n      add\n        /* \"#utility.yul\":15042:15068   */\n      swap1\n      pop\n        /* \"#utility.yul\":15078:15149   */\n      tag_622\n        /* \"#utility.yul\":15146:15147   */\n      0x00\n        /* \"#utility.yul\":15135:15144   */\n      dup4\n        /* \"#utility.yul\":15131:15148   */\n      add\n        /* \"#utility.yul\":15122:15128   */\n      dup5\n        /* \"#utility.yul\":15078:15149   */\n      tag_409\n      jump\t// in\n    tag_622:\n        /* \"#utility.yul\":14934:15156   */\n      swap3\n      swap2\n      pop\n      pop\n      jump\t// out\n        /* \"#utility.yul\":15162:15278   */\n    tag_410:\n        /* \"#utility.yul\":15232:15253   */\n      tag_624\n        /* \"#utility.yul\":15247:15252   */\n      dup2\n        /* \"#utility.yul\":15232:15253   */\n      tag_380\n      jump\t// in\n    tag_624:\n        /* \"#utility.yul\":15225:15230   */\n      dup2\n        /* \"#utility.yul\":15222:15254   */\n      eq\n        /* \"#utility.yul\":15212:15272   */\n      tag_625\n      jumpi\n        /* \"#utility.yul\":15268:15269   */\n      0x00\n        /* \"#utility.yul\":15265:15266   */\n      dup1\n        /* \"#utility.yul\":15258:15270   */\n      revert\n        /* \"#utility.yul\":15212:15272   */\n    tag_625:\n        /* \"#utility.yul\":15162:15278   */\n      pop\n      jump\t// out\n        /* \"#utility.yul\":15284:15417   */\n    tag_411:\n        /* \"#utility.yul\":15327:15332   */\n      0x00\n        /* \"#utility.yul\":15365:15371   */\n      dup2\n        /* \"#utility.yul\":15352:15372   */\n      calldataload\n        /* \"#utility.yul\":15343:15372   */\n      swap1\n      pop\n        /* \"#utility.yul\":15381:15411   */\n      tag_627\n        /* \"#utility.yul\":15405:15410   */\n      dup2\n        /* \"#utility.yul\":15381:15411   */\n      tag_410\n      jump\t// in\n    tag_627:\n        /* \"#utility.yul\":15284:15417   */\n      swap3\n      swap2\n      pop\n      pop\n      jump\t// out\n        /* \"#utility.yul\":15423:15891   */\n    tag_82:\n        /* \"#utility.yul\":15488:15494   */\n      0x00\n        /* \"#utility.yul\":15496:15502   */\n      dup1\n        /* \"#utility.yul\":15545:15547   */\n      0x40\n        /* \"#utility.yul\":15533:15542   */\n      dup4\n        /* \"#utility.yul\":15524:15531   */\n      dup6\n        /* \"#utility.yul\":15520:15543   */\n      sub\n        /* \"#utility.yul\":15516:15548   */\n      slt\n        /* \"#utility.yul\":15513:15632   */\n      iszero\n      tag_629\n      jumpi\n        /* \"#utility.yul\":15551:15630   */\n      tag_630\n      tag_367\n      jump\t// in\n    tag_630:\n        /* \"#utility.yul\":15513:15632   */\n    tag_629:\n        /* \"#utility.yul\":15671:15672   */\n      0x00\n        /* \"#utility.yul\":15696:15749   */\n      tag_631\n        /* \"#utility.yul\":15741:15748   */\n      dup6\n        /* \"#utility.yul\":15732:15738   */\n      dup3\n        /* \"#utility.yul\":15721:15730   */\n      dup7\n        /* \"#utility.yul\":15717:15739   */\n      add\n        /* \"#utility.yul\":15696:15749   */\n      tag_372\n      jump\t// in\n    tag_631:\n        /* \"#utility.yul\":15686:15749   */\n      swap3\n      pop\n        /* \"#utility.yul\":15642:15759   */\n      pop\n        /* \"#utility.yul\":15798:15800   */\n      0x20\n        /* \"#utility.yul\":15824:15874   */\n      tag_632\n        /* \"#utility.yul\":15866:15873   */\n      dup6\n        /* \"#utility.yul\":15857:15863   */\n      dup3\n        /* \"#utility.yul\":15846:15855   */\n      dup7\n        /* \"#utility.yul\":15842:15864   */\n      add\n        /* \"#utility.yul\":15824:15874   */\n      tag_411\n      jump\t// in\n    tag_632:\n        /* \"#utility.yul\":15814:15874   */\n      swap2\n      pop\n        /* \"#utility.yul\":15769:15884   */\n      pop\n        /* \"#utility.yul\":15423:15891   */\n      swap3\n      pop\n      swap3\n      swap1\n      pop\n      jump\t// out\n        /* \"#utility.yul\":15897:16205   */\n    tag_412:\n        /* \"#utility.yul\":15959:15963   */\n      0x00\n        /* \"#utility.yul\":16049:16067   */\n      0xffffffffffffffff\n        /* \"#utility.yul\":16041:16047   */\n      dup3\n        /* \"#utility.yul\":16038:16068   */\n      gt\n        /* \"#utility.yul\":16035:16091   */\n      iszero\n      tag_634\n      jumpi\n        /* \"#utility.yul\":16071:16089   */\n      tag_635\n      tag_156\n      jump\t// in\n    tag_635:\n        /* \"#utility.yul\":16035:16091   */\n    tag_634:\n        /* \"#utility.yul\":16109:16138   */\n      tag_636\n        /* \"#utility.yul\":16131:16137   */\n      dup3\n        /* \"#utility.yul\":16109:16138   */\n      tag_385\n      jump\t// in\n    tag_636:\n        /* \"#utility.yul\":16101:16138   */\n      swap1\n      pop\n        /* \"#utility.yul\":16193:16197   */\n      0x20\n        /* \"#utility.yul\":16187:16191   */\n      dup2\n        /* \"#utility.yul\":16183:16198   */\n      add\n        /* \"#utility.yul\":16175:16198   */\n      swap1\n      pop\n        /* \"#utility.yul\":15897:16205   */\n      swap2\n      swap1\n      pop\n      jump\t// out\n        /* \"#utility.yul\":16211:16623   */\n    tag_413:\n        /* \"#utility.yul\":16289:16294   */\n      0x00\n        /* \"#utility.yul\":16314:16380   */\n      tag_638\n        /* \"#utility.yul\":16330:16379   */\n      tag_639\n        /* \"#utility.yul\":16372:16378   */\n      dup5\n        /* \"#utility.yul\":16330:16379   */\n      tag_412\n      jump\t// in\n    tag_639:\n        /* \"#utility.yul\":16314:16380   */\n      tag_389\n      jump\t// in\n    tag_638:\n        /* \"#utility.yul\":16305:16380   */\n      swap1\n      pop\n        /* \"#utility.yul\":16403:16409   */\n      dup3\n        /* \"#utility.yul\":16396:16401   */\n      dup2\n        /* \"#utility.yul\":16389:16410   */\n      mstore\n        /* \"#utility.yul\":16441:16445   */\n      0x20\n        /* \"#utility.yul\":16434:16439   */\n      dup2\n        /* \"#utility.yul\":16430:16446   */\n      add\n        /* \"#utility.yul\":16479:16482   */\n      dup5\n        /* \"#utility.yul\":16470:16476   */\n      dup5\n        /* \"#utility.yul\":16465:16468   */\n      dup5\n        /* \"#utility.yul\":16461:16477   */\n      add\n        /* \"#utility.yul\":16458:16483   */\n      gt\n        /* \"#utility.yul\":16455:16567   */\n      iszero\n      tag_640\n      jumpi\n        /* \"#utility.yul\":16486:16565   */\n      tag_641\n      tag_394\n      jump\t// in\n    tag_641:\n        /* \"#utility.yul\":16455:16567   */\n    tag_640:\n        /* \"#utility.yul\":16576:16617   */\n      tag_642\n        /* \"#utility.yul\":16610:16616   */\n      dup5\n        /* \"#utility.yul\":16605:16608   */\n      dup3\n        /* \"#utility.yul\":16600:16603   */\n      dup6\n        /* \"#utility.yul\":16576:16617   */\n      tag_396\n      jump\t// in\n    tag_642:\n        /* \"#utility.yul\":16295:16623   */\n      pop\n        /* \"#utility.yul\":16211:16623   */\n      swap4\n      swap3\n      pop\n      pop\n      pop\n      jump\t// out\n        /* \"#utility.yul\":16643:16983   */\n    tag_414:\n        /* \"#utility.yul\":16699:16704   */\n      0x00\n        /* \"#utility.yul\":16748:16751   */\n      dup3\n        /* \"#utility.yul\":16741:16745   */\n      0x1f\n        /* \"#utility.yul\":16733:16739   */\n      dup4\n        /* \"#utility.yul\":16729:16746   */\n      add\n        /* \"#utility.yul\":16725:16752   */\n      slt\n        /* \"#utility.yul\":16715:16837   */\n      tag_644\n      jumpi\n        /* \"#utility.yul\":16756:16835   */\n      tag_645\n      tag_387\n      jump\t// in\n    tag_645:\n        /* \"#utility.yul\":16715:16837   */\n    tag_644:\n        /* \"#utility.yul\":16873:16879   */\n      dup2\n        /* \"#utility.yul\":16860:16880   */\n      calldataload\n        /* \"#utility.yul\":16898:16977   */\n      tag_646\n        /* \"#utility.yul\":16973:16976   */\n      dup5\n        /* \"#utility.yul\":16965:16971   */\n      dup3\n        /* \"#utility.yul\":16958:16962   */\n      0x20\n        /* \"#utility.yul\":16950:16956   */\n      dup7\n        /* \"#utility.yul\":16946:16963   */\n      add\n        /* \"#utility.yul\":16898:16977   */\n      tag_413\n      jump\t// in\n    tag_646:\n        /* \"#utility.yul\":16889:16977   */\n      swap2\n      pop\n        /* \"#utility.yul\":16705:16983   */\n      pop\n        /* \"#utility.yul\":16643:16983   */\n      swap3\n      swap2\n      pop\n      pop\n      jump\t// out\n        /* \"#utility.yul\":16989:17498   */\n    tag_89:\n        /* \"#utility.yul\":17058:17064   */\n      0x00\n        /* \"#utility.yul\":17107:17109   */\n      0x20\n        /* \"#utility.yul\":17095:17104   */\n      dup3\n        /* \"#utility.yul\":17086:17093   */\n      dup5\n        /* \"#utility.yul\":17082:17105   */\n      sub\n        /* \"#utility.yul\":17078:17110   */\n      slt\n        /* \"#utility.yul\":17075:17194   */\n      iszero\n      tag_648\n      jumpi\n        /* \"#utility.yul\":17113:17192   */\n      tag_649\n      tag_367\n      jump\t// in\n    tag_649:\n        /* \"#utility.yul\":17075:17194   */\n    tag_648:\n        /* \"#utility.yul\":17261:17262   */\n      0x00\n        /* \"#utility.yul\":17250:17259   */\n      dup3\n        /* \"#utility.yul\":17246:17263   */\n      add\n        /* \"#utility.yul\":17233:17264   */\n      calldataload\n        /* \"#utility.yul\":17291:17309   */\n      0xffffffffffffffff\n        /* \"#utility.yul\":17283:17289   */\n      dup2\n        /* \"#utility.yul\":17280:17310   */\n      gt\n        /* \"#utility.yul\":17277:17394   */\n      iszero\n      tag_650\n      jumpi\n        /* \"#utility.yul\":17313:17392   */\n      tag_651\n      tag_368\n      jump\t// in\n    tag_651:\n        /* \"#utility.yul\":17277:17394   */\n    tag_650:\n        /* \"#utility.yul\":17418:17481   */\n      tag_652\n        /* \"#utility.yul\":17473:17480   */\n      dup5\n        /* \"#utility.yul\":17464:17470   */\n      dup3\n        /* \"#utility.yul\":17453:17462   */\n      dup6\n        /* \"#utility.yul\":17449:17471   */\n      add\n        /* \"#utility.yul\":17418:17481   */\n      tag_414\n      jump\t// in\n    tag_652:\n        /* \"#utility.yul\":17408:17481   */\n      swap2\n      pop\n        /* \"#utility.yul\":17204:17491   */\n      pop\n        /* \"#utility.yul\":16989:17498   */\n      swap3\n      swap2\n      pop\n      pop\n      jump\t// out\n        /* \"#utility.yul\":17504:17978   */\n    tag_96:\n        /* \"#utility.yul\":17572:17578   */\n      0x00\n        /* \"#utility.yul\":17580:17586   */\n      dup1\n        /* \"#utility.yul\":17629:17631   */\n      0x40\n        /* \"#utility.yul\":17617:17626   */\n      dup4\n        /* \"#utility.yul\":17608:17615   */\n      dup6\n        /* \"#utility.yul\":17604:17627   */\n      sub\n        /* \"#utility.yul\":17600:17632   */\n      slt\n        /* \"#utility.yul\":17597:17716   */\n      iszero\n      tag_654\n      jumpi\n        /* \"#utility.yul\":17635:17714   */\n      tag_655\n      tag_367\n      jump\t// in\n    tag_655:\n        /* \"#utility.yul\":17597:17716   */\n    tag_654:\n        /* \"#utility.yul\":17755:17756   */\n      0x00\n        /* \"#utility.yul\":17780:17833   */\n      tag_656\n        /* \"#utility.yul\":17825:17832   */\n      dup6\n        /* \"#utility.yul\":17816:17822   */\n      dup3\n        /* \"#utility.yul\":17805:17814   */\n      dup7\n        /* \"#utility.yul\":17801:17823   */\n      add\n        /* \"#utility.yul\":17780:17833   */\n      tag_372\n      jump\t// in\n    tag_656:\n        /* \"#utility.yul\":17770:17833   */\n      swap3\n      pop\n        /* \"#utility.yul\":17726:17843   */\n      pop\n        /* \"#utility.yul\":17882:17884   */\n      0x20\n        /* \"#utility.yul\":17908:17961   */\n      tag_657\n        /* \"#utility.yul\":17953:17960   */\n      dup6\n        /* \"#utility.yul\":17944:17950   */\n      dup3\n        /* \"#utility.yul\":17933:17942   */\n      dup7\n        /* \"#utility.yul\":17929:17951   */\n      add\n        /* \"#utility.yul\":17908:17961   */\n      tag_372\n      jump\t// in\n    tag_657:\n        /* \"#utility.yul\":17898:17961   */\n      swap2\n      pop\n        /* \"#utility.yul\":17853:17971   */\n      pop\n        /* \"#utility.yul\":17504:17978   */\n      swap3\n      pop\n      swap3\n      swap1\n      pop\n      jump\t// out\n        /* \"#utility.yul\":17984:19073   */\n    tag_105:\n        /* \"#utility.yul\":18088:18094   */\n      0x00\n        /* \"#utility.yul\":18096:18102   */\n      dup1\n        /* \"#utility.yul\":18104:18110   */\n      0x00\n        /* \"#utility.yul\":18112:18118   */\n      dup1\n        /* \"#utility.yul\":18120:18126   */\n      0x00\n        /* \"#utility.yul\":18169:18172   */\n      0xa0\n        /* \"#utility.yul\":18157:18166   */\n      dup7\n        /* \"#utility.yul\":18148:18155   */\n      dup9\n        /* \"#utility.yul\":18144:18167   */\n      sub\n        /* \"#utility.yul\":18140:18173   */\n      slt\n        /* \"#utility.yul\":18137:18257   */\n      iszero\n      tag_659\n      jumpi\n        /* \"#utility.yul\":18176:18255   */\n      tag_660\n      tag_367\n      jump\t// in\n    tag_660:\n        /* \"#utility.yul\":18137:18257   */\n    tag_659:\n        /* \"#utility.yul\":18296:18297   */\n      0x00\n        /* \"#utility.yul\":18321:18374   */\n      tag_661\n        /* \"#utility.yul\":18366:18373   */\n      dup9\n        /* \"#utility.yul\":18357:18363   */\n      dup3\n        /* \"#utility.yul\":18346:18355   */\n      dup10\n        /* \"#utility.yul\":18342:18364   */\n      add\n        /* \"#utility.yul\":18321:18374   */\n      tag_372\n      jump\t// in\n    tag_661:\n        /* \"#utility.yul\":18311:18374   */\n      swap6\n      pop\n        /* \"#utility.yul\":18267:18384   */\n      pop\n        /* \"#utility.yul\":18423:18425   */\n      0x20\n        /* \"#utility.yul\":18449:18502   */\n      tag_662\n        /* \"#utility.yul\":18494:18501   */\n      dup9\n        /* \"#utility.yul\":18485:18491   */\n      dup3\n        /* \"#utility.yul\":18474:18483   */\n      dup10\n        /* \"#utility.yul\":18470:18492   */\n      add\n        /* \"#utility.yul\":18449:18502   */\n      tag_372\n      jump\t// in\n    tag_662:\n        /* \"#utility.yul\":18439:18502   */\n      swap5\n      pop\n        /* \"#utility.yul\":18394:18512   */\n      pop\n        /* \"#utility.yul\":18551:18553   */\n      0x40\n        /* \"#utility.yul\":18577:18630   */\n      tag_663\n        /* \"#utility.yul\":18622:18629   */\n      dup9\n        /* \"#utility.yul\":18613:18619   */\n      dup3\n        /* \"#utility.yul\":18602:18611   */\n      dup10\n        /* \"#utility.yul\":18598:18620   */\n      add\n        /* \"#utility.yul\":18577:18630   */\n      tag_375\n      jump\t// in\n    tag_663:\n        /* \"#utility.yul\":18567:18630   */\n      swap4\n      pop\n        /* \"#utility.yul\":18522:18640   */\n      pop\n        /* \"#utility.yul\":18679:18681   */\n      0x60\n        /* \"#utility.yul\":18705:18758   */\n      tag_664\n        /* \"#utility.yul\":18750:18757   */\n      dup9\n        /* \"#utility.yul\":18741:18747   */\n      dup3\n        /* \"#utility.yul\":18730:18739   */\n      dup10\n        /* \"#utility.yul\":18726:18748   */\n      add\n        /* \"#utility.yul\":18705:18758   */\n      tag_375\n      jump\t// in\n    tag_664:\n        /* \"#utility.yul\":18695:18758   */\n      swap3\n      pop\n        /* \"#utility.yul\":18650:18768   */\n      pop\n        /* \"#utility.yul\":18835:18838   */\n      0x80\n        /* \"#utility.yul\":18824:18833   */\n      dup7\n        /* \"#utility.yul\":18820:18839   */\n      add\n        /* \"#utility.yul\":18807:18840   */\n      calldataload\n        /* \"#utility.yul\":18867:18885   */\n      0xffffffffffffffff\n        /* \"#utility.yul\":18859:18865   */\n      dup2\n        /* \"#utility.yul\":18856:18886   */\n      gt\n        /* \"#utility.yul\":18853:18970   */\n      iszero\n      tag_665\n      jumpi\n        /* \"#utility.yul\":18889:18968   */\n      tag_666\n      tag_368\n      jump\t// in\n    tag_666:\n        /* \"#utility.yul\":18853:18970   */\n    tag_665:\n        /* \"#utility.yul\":18994:19056   */\n      tag_667\n        /* \"#utility.yul\":19048:19055   */\n      dup9\n        /* \"#utility.yul\":19039:19045   */\n      dup3\n        /* \"#utility.yul\":19028:19037   */\n      dup10\n        /* \"#utility.yul\":19024:19046   */\n      add\n        /* \"#utility.yul\":18994:19056   */\n      tag_398\n      jump\t// in\n    tag_667:\n        /* \"#utility.yul\":18984:19056   */\n      swap2\n      pop\n        /* \"#utility.yul\":18778:19066   */\n      pop\n        /* \"#utility.yul\":17984:19073   */\n      swap3\n      swap6\n      pop\n      swap3\n      swap6\n      swap1\n      swap4\n      pop\n      jump\t// out\n        /* \"#utility.yul\":19079:19309   */\n    tag_415:\n        /* \"#utility.yul\":19219:19253   */\n      0x455243313135353a2062616c616e636520717565727920666f7220746865207a\n        /* \"#utility.yul\":19215:19216   */\n      0x00\n        /* \"#utility.yul\":19207:19213   */\n      dup3\n        /* \"#utility.yul\":19203:19217   */\n      add\n        /* \"#utility.yul\":19196:19254   */\n      mstore\n        /* \"#utility.yul\":19288:19301   */\n      0x65726f2061646472657373000000000000000000000000000000000000000000\n        /* \"#utility.yul\":19283:19285   */\n      0x20\n        /* \"#utility.yul\":19275:19281   */\n      dup3\n        /* \"#utility.yul\":19271:19286   */\n      add\n        /* \"#utility.yul\":19264:19302   */\n      mstore\n        /* \"#utility.yul\":19079:19309   */\n      pop\n      jump\t// out\n        /* \"#utility.yul\":19315:19681   */\n    tag_416:\n        /* \"#utility.yul\":19457:19460   */\n      0x00\n        /* \"#utility.yul\":19478:19545   */\n      tag_670\n        /* \"#utility.yul\":19542:19544   */\n      0x2b\n        /* \"#utility.yul\":19537:19540   */\n      dup4\n        /* \"#utility.yul\":19478:19545   */\n      tag_383\n      jump\t// in\n    tag_670:\n        /* \"#utility.yul\":19471:19545   */\n      swap2\n      pop\n        /* \"#utility.yul\":19554:19647   */\n      tag_671\n        /* \"#utility.yul\":19643:19646   */\n      dup3\n        /* \"#utility.yul\":19554:19647   */\n      tag_415\n      jump\t// in\n    tag_671:\n        /* \"#utility.yul\":19672:19674   */\n      0x40\n        /* \"#utility.yul\":19667:19670   */\n      dup3\n        /* \"#utility.yul\":19663:19675   */\n      add\n        /* \"#utility.yul\":19656:19675   */\n      swap1\n      pop\n        /* \"#utility.yul\":19315:19681   */\n      swap2\n      swap1\n      pop\n      jump\t// out\n        /* \"#utility.yul\":19687:20106   */\n    tag_120:\n        /* \"#utility.yul\":19853:19857   */\n      0x00\n        /* \"#utility.yul\":19891:19893   */\n      0x20\n        /* \"#utility.yul\":19880:19889   */\n      dup3\n        /* \"#utility.yul\":19876:19894   */\n      add\n        /* \"#utility.yul\":19868:19894   */\n      swap1\n      pop\n        /* \"#utility.yul\":19940:19949   */\n      dup2\n        /* \"#utility.yul\":19934:19938   */\n      dup2\n        /* \"#utility.yul\":19930:19950   */\n      sub\n        /* \"#utility.yul\":19926:19927   */\n      0x00\n        /* \"#utility.yul\":19915:19924   */\n      dup4\n        /* \"#utility.yul\":19911:19928   */\n      add\n        /* \"#utility.yul\":19904:19951   */\n      mstore\n        /* \"#utility.yul\":19968:20099   */\n      tag_673\n        /* \"#utility.yul\":20094:20098   */\n      dup2\n        /* \"#utility.yul\":19968:20099   */\n      tag_416\n      jump\t// in\n    tag_673:\n        /* \"#utility.yul\":19960:20099   */\n      swap1\n      pop\n        /* \"#utility.yul\":19687:20106   */\n      swap2\n      swap1\n      pop\n      jump\t// out\n        /* \"#utility.yul\":20112:20337   */\n    tag_417:\n        /* \"#utility.yul\":20252:20286   */\n      0x46756e6374696f6e206f6e6c7920617661696c61626c6520666f722074686520\n        /* \"#utility.yul\":20248:20249   */\n      0x00\n        /* \"#utility.yul\":20240:20246   */\n      dup3\n        /* \"#utility.yul\":20236:20250   */\n      add\n        /* \"#utility.yul\":20229:20287   */\n      mstore\n        /* \"#utility.yul\":20321:20329   */\n      0x61646d696e2e0000000000000000000000000000000000000000000000000000\n        /* \"#utility.yul\":20316:20318   */\n      0x20\n        /* \"#utility.yul\":20308:20314   */\n      dup3\n        /* \"#utility.yul\":20304:20319   */\n      add\n        /* \"#utility.yul\":20297:20330   */\n      mstore\n        /* \"#utility.yul\":20112:20337   */\n      pop\n      jump\t// out\n        /* \"#utility.yul\":20343:20709   */\n    tag_418:\n        /* \"#utility.yul\":20485:20488   */\n      0x00\n        /* \"#utility.yul\":20506:20573   */\n      tag_676\n        /* \"#utility.yul\":20570:20572   */\n      0x26\n        /* \"#utility.yul\":20565:20568   */\n      dup4\n        /* \"#utility.yul\":20506:20573   */\n      tag_383\n      jump\t// in\n    tag_676:\n        /* \"#utility.yul\":20499:20573   */\n      swap2\n      pop\n        /* \"#utility.yul\":20582:20675   */\n      tag_677\n        /* \"#utility.yul\":20671:20674   */\n      dup3\n        /* \"#utility.yul\":20582:20675   */\n      tag_417\n      jump\t// in\n    tag_677:\n        /* \"#utility.yul\":20700:20702   */\n      0x40\n        /* \"#utility.yul\":20695:20698   */\n      dup3\n        /* \"#utility.yul\":20691:20703   */\n      add\n        /* \"#utility.yul\":20684:20703   */\n      swap1\n      pop\n        /* \"#utility.yul\":20343:20709   */\n      swap2\n      swap1\n      pop\n      jump\t// out\n        /* \"#utility.yul\":20715:21134   */\n    tag_129:\n        /* \"#utility.yul\":20881:20885   */\n      0x00\n        /* \"#utility.yul\":20919:20921   */\n      0x20\n        /* \"#utility.yul\":20908:20917   */\n      dup3\n        /* \"#utility.yul\":20904:20922   */\n      add\n        /* \"#utility.yul\":20896:20922   */\n      swap1\n      pop\n        /* \"#utility.yul\":20968:20977   */\n      dup2\n        /* \"#utility.yul\":20962:20966   */\n      dup2\n        /* \"#utility.yul\":20958:20978   */\n      sub\n        /* \"#utility.yul\":20954:20955   */\n      0x00\n        /* \"#utility.yul\":20943:20952   */\n      dup4\n        /* \"#utility.yul\":20939:20956   */\n      add\n        /* \"#utility.yul\":20932:20979   */\n      mstore\n        /* \"#utility.yul\":20996:21127   */\n      tag_679\n        /* \"#utility.yul\":21122:21126   */\n      dup2\n        /* \"#utility.yul\":20996:21127   */\n      tag_418\n      jump\t// in\n    tag_679:\n        /* \"#utility.yul\":20988:21127   */\n      swap1\n      pop\n        /* \"#utility.yul\":20715:21134   */\n      swap2\n      swap1\n      pop\n      jump\t// out\n        /* \"#utility.yul\":21140:21320   */\n    tag_419:\n        /* \"#utility.yul\":21188:21265   */\n      0x4e487b7100000000000000000000000000000000000000000000000000000000\n        /* \"#utility.yul\":21185:21186   */\n      0x00\n        /* \"#utility.yul\":21178:21266   */\n      mstore\n        /* \"#utility.yul\":21285:21289   */\n      0x22\n        /* \"#utility.yul\":21282:21283   */\n      0x04\n        /* \"#utility.yul\":21275:21290   */\n      mstore\n        /* \"#utility.yul\":21309:21313   */\n      0x24\n        /* \"#utility.yul\":21306:21307   */\n      0x00\n        /* \"#utility.yul\":21299:21314   */\n      revert\n        /* \"#utility.yul\":21326:21646   */\n    tag_134:\n        /* \"#utility.yul\":21370:21376   */\n      0x00\n        /* \"#utility.yul\":21407:21408   */\n      0x02\n        /* \"#utility.yul\":21401:21405   */\n      dup3\n        /* \"#utility.yul\":21397:21409   */\n      div\n        /* \"#utility.yul\":21387:21409   */\n      swap1\n      pop\n        /* \"#utility.yul\":21454:21455   */\n      0x01\n        /* \"#utility.yul\":21448:21452   */\n      dup3\n        /* \"#utility.yul\":21444:21456   */\n      and\n        /* \"#utility.yul\":21475:21493   */\n      dup1\n        /* \"#utility.yul\":21465:21546   */\n      tag_682\n      jumpi\n        /* \"#utility.yul\":21531:21535   */\n      0x7f\n        /* \"#utility.yul\":21523:21529   */\n      dup3\n        /* \"#utility.yul\":21519:21536   */\n      and\n        /* \"#utility.yul\":21509:21536   */\n      swap2\n      pop\n        /* \"#utility.yul\":21465:21546   */\n    tag_682:\n        /* \"#utility.yul\":21593:21595   */\n      0x20\n        /* \"#utility.yul\":21585:21591   */\n      dup3\n        /* \"#utility.yul\":21582:21596   */\n      lt\n        /* \"#utility.yul\":21562:21580   */\n      dup2\n        /* \"#utility.yul\":21559:21597   */\n      eq\n        /* \"#utility.yul\":21556:21640   */\n      iszero\n      tag_683\n      jumpi\n        /* \"#utility.yul\":21612:21630   */\n      tag_684\n      tag_419\n      jump\t// in\n    tag_684:\n        /* \"#utility.yul\":21556:21640   */\n    tag_683:\n        /* \"#utility.yul\":21377:21646   */\n      pop\n        /* \"#utility.yul\":21326:21646   */\n      swap2\n      swap1\n      pop\n      jump\t// out\n        /* \"#utility.yul\":21652:21889   */\n    tag_420:\n        /* \"#utility.yul\":21792:21826   */\n      0x455243313135353a207472616e736665722063616c6c6572206973206e6f7420\n        /* \"#utility.yul\":21788:21789   */\n      0x00\n        /* \"#utility.yul\":21780:21786   */\n      dup3\n        /* \"#utility.yul\":21776:21790   */\n      add\n        /* \"#utility.yul\":21769:21827   */\n      mstore\n        /* \"#utility.yul\":21861:21881   */\n      0x6f776e6572206e6f7220617070726f7665640000000000000000000000000000\n        /* \"#utility.yul\":21856:21858   */\n      0x20\n        /* \"#utility.yul\":21848:21854   */\n      dup3\n        /* \"#utility.yul\":21844:21859   */\n      add\n        /* \"#utility.yul\":21837:21882   */\n      mstore\n        /* \"#utility.yul\":21652:21889   */\n      pop\n      jump\t// out\n        /* \"#utility.yul\":21895:22261   */\n    tag_421:\n        /* \"#utility.yul\":22037:22040   */\n      0x00\n        /* \"#utility.yul\":22058:22125   */\n      tag_687\n        /* \"#utility.yul\":22122:22124   */\n      0x32\n        /* \"#utility.yul\":22117:22120   */\n      dup4\n        /* \"#utility.yul\":22058:22125   */\n      tag_383\n      jump\t// in\n    tag_687:\n        /* \"#utility.yul\":22051:22125   */\n      swap2\n      pop\n        /* \"#utility.yul\":22134:22227   */\n      tag_688\n        /* \"#utility.yul\":22223:22226   */\n      dup3\n        /* \"#utility.yul\":22134:22227   */\n      tag_420\n      jump\t// in\n    tag_688:\n        /* \"#utility.yul\":22252:22254   */\n      0x40\n        /* \"#utility.yul\":22247:22250   */\n      dup3\n        /* \"#utility.yul\":22243:22255   */\n      add\n        /* \"#utility.yul\":22236:22255   */\n      swap1\n      pop\n        /* \"#utility.yul\":21895:22261   */\n      swap2\n      swap1\n      pop\n      jump\t// out\n        /* \"#utility.yul\":22267:22686   */\n    tag_147:\n        /* \"#utility.yul\":22433:22437   */\n      0x00\n        /* \"#utility.yul\":22471:22473   */\n      0x20\n        /* \"#utility.yul\":22460:22469   */\n      dup3\n        /* \"#utility.yul\":22456:22474   */\n      add\n        /* \"#utility.yul\":22448:22474   */\n      swap1\n      pop\n        /* \"#utility.yul\":22520:22529   */\n      dup2\n        /* \"#utility.yul\":22514:22518   */\n      dup2\n        /* \"#utility.yul\":22510:22530   */\n      sub\n        /* \"#utility.yul\":22506:22507   */\n      0x00\n        /* \"#utility.yul\":22495:22504   */\n      dup4\n        /* \"#utility.yul\":22491:22508   */\n      add\n        /* \"#utility.yul\":22484:22531   */\n      mstore\n        /* \"#utility.yul\":22548:22679   */\n      tag_690\n        /* \"#utility.yul\":22674:22678   */\n      dup2\n        /* \"#utility.yul\":22548:22679   */\n      tag_421\n      jump\t// in\n    tag_690:\n        /* \"#utility.yul\":22540:22679   */\n      swap1\n      pop\n        /* \"#utility.yul\":22267:22686   */\n      swap2\n      swap1\n      pop\n      jump\t// out\n        /* \"#utility.yul\":22692:22920   */\n    tag_422:\n        /* \"#utility.yul\":22832:22866   */\n      0x455243313135353a206163636f756e747320616e6420696473206c656e677468\n        /* \"#utility.yul\":22828:22829   */\n      0x00\n        /* \"#utility.yul\":22820:22826   */\n      dup3\n        /* \"#utility.yul\":22816:22830   */\n      add\n        /* \"#utility.yul\":22809:22867   */\n      mstore\n        /* \"#utility.yul\":22901:22912   */\n      0x206d69736d617463680000000000000000000000000000000000000000000000\n        /* \"#utility.yul\":22896:22898   */\n      0x20\n        /* \"#utility.yul\":22888:22894   */\n      dup3\n        /* \"#utility.yul\":22884:22899   */\n      add\n        /* \"#utility.yul\":22877:22913   */\n      mstore\n        /* \"#utility.yul\":22692:22920   */\n      pop\n      jump\t// out\n        /* \"#utility.yul\":22926:23292   */\n    tag_423:\n        /* \"#utility.yul\":23068:23071   */\n      0x00\n        /* \"#utility.yul\":23089:23156   */\n      tag_693\n        /* \"#utility.yul\":23153:23155   */\n      0x29\n        /* \"#utility.yul\":23148:23151   */\n      dup4\n        /* \"#utility.yul\":23089:23156   */\n      tag_383\n      jump\t// in\n    tag_693:\n        /* \"#utility.yul\":23082:23156   */\n      swap2\n      pop\n        /* \"#utility.yul\":23165:23258   */\n      tag_694\n        /* \"#utility.yul\":23254:23257   */\n      dup3\n        /* \"#utility.yul\":23165:23258   */\n      tag_422\n      jump\t// in\n    tag_694:\n        /* \"#utility.yul\":23283:23285   */\n      0x40\n        /* \"#utility.yul\":23278:23281   */\n      dup3\n        /* \"#utility.yul\":23274:23286   */\n      add\n        /* \"#utility.yul\":23267:23286   */\n      swap1\n      pop\n        /* \"#utility.yul\":22926:23292   */\n      swap2\n      swap1\n      pop\n      jump\t// out\n        /* \"#utility.yul\":23298:23717   */\n    tag_153:\n        /* \"#utility.yul\":23464:23468   */\n      0x00\n        /* \"#utility.yul\":23502:23504   */\n      0x20\n        /* \"#utility.yul\":23491:23500   */\n      dup3\n        /* \"#utility.yul\":23487:23505   */\n      add\n        /* \"#utility.yul\":23479:23505   */\n      swap1\n      pop\n        /* \"#utility.yul\":23551:23560   */\n      dup2\n        /* \"#utility.yul\":23545:23549   */\n      dup2\n        /* \"#utility.yul\":23541:23561   */\n      sub\n        /* \"#utility.yul\":23537:23538   */\n      0x00\n        /* \"#utility.yul\":23526:23535   */\n      dup4\n        /* \"#utility.yul\":23522:23539   */\n      add\n        /* \"#utility.yul\":23515:23562   */\n      mstore\n        /* \"#utility.yul\":23579:23710   */\n      tag_696\n        /* \"#utility.yul\":23705:23709   */\n      dup2\n        /* \"#utility.yul\":23579:23710   */\n      tag_423\n      jump\t// in\n    tag_696:\n        /* \"#utility.yul\":23571:23710   */\n      swap1\n      pop\n        /* \"#utility.yul\":23298:23717   */\n      swap2\n      swap1\n      pop\n      jump\t// out\n        /* \"#utility.yul\":23723:23903   */\n    tag_164:\n        /* \"#utility.yul\":23771:23848   */\n      0x4e487b7100000000000000000000000000000000000000000000000000000000\n        /* \"#utility.yul\":23768:23769   */\n      0x00\n        /* \"#utility.yul\":23761:23849   */\n      mstore\n        /* \"#utility.yul\":23868:23872   */\n      0x32\n        /* \"#utility.yul\":23865:23866   */\n      0x04\n        /* \"#utility.yul\":23858:23873   */\n      mstore\n        /* \"#utility.yul\":23892:23896   */\n      0x24\n        /* \"#utility.yul\":23889:23890   */\n      0x00\n        /* \"#utility.yul\":23882:23897   */\n      revert\n        /* \"#utility.yul\":23909:24089   */\n    tag_424:\n        /* \"#utility.yul\":23957:24034   */\n      0x4e487b7100000000000000000000000000000000000000000000000000000000\n        /* \"#utility.yul\":23954:23955   */\n      0x00\n        /* \"#utility.yul\":23947:24035   */\n      mstore\n        /* \"#utility.yul\":24054:24058   */\n      0x11\n        /* \"#utility.yul\":24051:24052   */\n      0x04\n        /* \"#utility.yul\":24044:24059   */\n      mstore\n        /* \"#utility.yul\":24078:24082   */\n      0x24\n        /* \"#utility.yul\":24075:24076   */\n      0x00\n        /* \"#utility.yul\":24068:24083   */\n      revert\n        /* \"#utility.yul\":24095:24328   */\n    tag_170:\n        /* \"#utility.yul\":24134:24137   */\n      0x00\n        /* \"#utility.yul\":24157:24181   */\n      tag_700\n        /* \"#utility.yul\":24175:24180   */\n      dup3\n        /* \"#utility.yul\":24157:24181   */\n      tag_373\n      jump\t// in\n    tag_700:\n        /* \"#utility.yul\":24148:24181   */\n      swap2\n      pop\n        /* \"#utility.yul\":24203:24269   */\n      0xffffffffffffffffffffffffffffffffffffffffffffffffffffffffffffffff\n        /* \"#utility.yul\":24196:24201   */\n      dup3\n        /* \"#utility.yul\":24193:24270   */\n      eq\n        /* \"#utility.yul\":24190:24293   */\n      iszero\n      tag_701\n      jumpi\n        /* \"#utility.yul\":24273:24291   */\n      tag_702\n      tag_424\n      jump\t// in\n    tag_702:\n        /* \"#utility.yul\":24190:24293   */\n    tag_701:\n        /* \"#utility.yul\":24320:24321   */\n      0x01\n        /* \"#utility.yul\":24313:24318   */\n      dup3\n        /* \"#utility.yul\":24309:24322   */\n      add\n        /* \"#utility.yul\":24302:24322   */\n      swap1\n      pop\n        /* \"#utility.yul\":24095:24328   */\n      swap2\n      swap1\n      pop\n      jump\t// out\n        /* \"#utility.yul\":24334:24516   */\n    tag_425:\n        /* \"#utility.yul\":24474:24508   */\n      0x4f776e61626c653a2063616c6c6572206973206e6f7420746865206f776e6572\n        /* \"#utility.yul\":24470:24471   */\n      0x00\n        /* \"#utility.yul\":24462:24468   */\n      dup3\n        /* \"#utility.yul\":24458:24472   */\n      add\n        /* \"#utility.yul\":24451:24509   */\n      mstore\n        /* \"#utility.yul\":24334:24516   */\n      pop\n      jump\t// out\n        /* \"#utility.yul\":24522:24888   */\n    tag_426:\n        /* \"#utility.yul\":24664:24667   */\n      0x00\n        /* \"#utility.yul\":24685:24752   */\n      tag_705\n        /* \"#utility.yul\":24749:24751   */\n      0x20\n        /* \"#utility.yul\":24744:24747   */\n      dup4\n        /* \"#utility.yul\":24685:24752   */\n      tag_383\n      jump\t// in\n    tag_705:\n        /* \"#utility.yul\":24678:24752   */\n      swap2\n      pop\n        /* \"#utility.yul\":24761:24854   */\n      tag_706\n        /* \"#utility.yul\":24850:24853   */\n      dup3\n        /* \"#utility.yul\":24761:24854   */\n      tag_425\n      jump\t// in\n    tag_706:\n        /* \"#utility.yul\":24879:24881   */\n      0x20\n        /* \"#utility.yul\":24874:24877   */\n      dup3\n        /* \"#utility.yul\":24870:24882   */\n      add\n        /* \"#utility.yul\":24863:24882   */\n      swap1\n      pop\n        /* \"#utility.yul\":24522:24888   */\n      swap2\n      swap1\n      pop\n      jump\t// out\n        /* \"#utility.yul\":24894:25313   */\n    tag_176:\n        /* \"#utility.yul\":25060:25064   */\n      0x00\n        /* \"#utility.yul\":25098:25100   */\n      0x20\n        /* \"#utility.yul\":25087:25096   */\n      dup3\n        /* \"#utility.yul\":25083:25101   */\n      add\n        /* \"#utility.yul\":25075:25101   */\n      swap1\n      pop\n        /* \"#utility.yul\":25147:25156   */\n      dup2\n        /* \"#utility.yul\":25141:25145   */\n      dup2\n        /* \"#utility.yul\":25137:25157   */\n      sub\n        /* \"#utility.yul\":25133:25134   */\n      0x00\n        /* \"#utility.yul\":25122:25131   */\n      dup4\n        /* \"#utility.yul\":25118:25135   */\n      add\n        /* \"#utility.yul\":25111:25158   */\n      mstore\n        /* \"#utility.yul\":25175:25306   */\n      tag_708\n        /* \"#utility.yul\":25301:25305   */\n      dup2\n        /* \"#utility.yul\":25175:25306   */\n      tag_426\n      jump\t// in\n    tag_708:\n        /* \"#utility.yul\":25167:25306   */\n      swap1\n      pop\n        /* \"#utility.yul\":24894:25313   */\n      swap2\n      swap1\n      pop\n      jump\t// out\n        /* \"#utility.yul\":25319:25624   */\n    tag_197:\n        /* \"#utility.yul\":25359:25362   */\n      0x00\n        /* \"#utility.yul\":25378:25398   */\n      tag_710\n        /* \"#utility.yul\":25396:25397   */\n      dup3\n        /* \"#utility.yul\":25378:25398   */\n      tag_373\n      jump\t// in\n    tag_710:\n        /* \"#utility.yul\":25373:25398   */\n      swap2\n      pop\n        /* \"#utility.yul\":25412:25432   */\n      tag_711\n        /* \"#utility.yul\":25430:25431   */\n      dup4\n        /* \"#utility.yul\":25412:25432   */\n      tag_373\n      jump\t// in\n    tag_711:\n        /* \"#utility.yul\":25407:25432   */\n      swap3\n      pop\n        /* \"#utility.yul\":25566:25567   */\n      dup3\n        /* \"#utility.yul\":25498:25564   */\n      0xffffffffffffffffffffffffffffffffffffffffffffffffffffffffffffffff\n        /* \"#utility.yul\":25494:25568   */\n      sub\n        /* \"#utility.yul\":25491:25492   */\n      dup3\n        /* \"#utility.yul\":25488:25569   */\n      gt\n        /* \"#utility.yul\":25485:25592   */\n      iszero\n      tag_712\n      jumpi\n        /* \"#utility.yul\":25572:25590   */\n      tag_713\n      tag_424\n      jump\t// in\n    tag_713:\n        /* \"#utility.yul\":25485:25592   */\n    tag_712:\n        /* \"#utility.yul\":25616:25617   */\n      dup3\n        /* \"#utility.yul\":25613:25614   */\n      dup3\n        /* \"#utility.yul\":25609:25618   */\n      add\n        /* \"#utility.yul\":25602:25618   */\n      swap1\n      pop\n        /* \"#utility.yul\":25319:25624   */\n      swap3\n      swap2\n      pop\n      pop\n      jump\t// out\n        /* \"#utility.yul\":25630:25858   */\n    tag_427:\n        /* \"#utility.yul\":25770:25804   */\n      0x455243313135353a2063616c6c6572206973206e6f74206f776e6572206e6f72\n        /* \"#utility.yul\":25766:25767   */\n      0x00\n        /* \"#utility.yul\":25758:25764   */\n      dup3\n        /* \"#utility.yul\":25754:25768   */\n      add\n        /* \"#utility.yul\":25747:25805   */\n      mstore\n        /* \"#utility.yul\":25839:25850   */\n      0x20617070726f7665640000000000000000000000000000000000000000000000\n        /* \"#utility.yul\":25834:25836   */\n      0x20\n        /* \"#utility.yul\":25826:25832   */\n      dup3\n        /* \"#utility.yul\":25822:25837   */\n      add\n        /* \"#utility.yul\":25815:25851   */\n      mstore\n        /* \"#utility.yul\":25630:25858   */\n      pop\n      jump\t// out\n        /* \"#utility.yul\":25864:26230   */\n    tag_428:\n        /* \"#utility.yul\":26006:26009   */\n      0x00\n        /* \"#utility.yul\":26027:26094   */\n      tag_716\n        /* \"#utility.yul\":26091:26093   */\n      0x29\n        /* \"#utility.yul\":26086:26089   */\n      dup4\n        /* \"#utility.yul\":26027:26094   */\n      tag_383\n      jump\t// in\n    tag_716:\n        /* \"#utility.yul\":26020:26094   */\n      swap2\n      pop\n        /* \"#utility.yul\":26103:26196   */\n      tag_717\n        /* \"#utility.yul\":26192:26195   */\n      dup3\n        /* \"#utility.yul\":26103:26196   */\n      tag_427\n      jump\t// in\n    tag_717:\n        /* \"#utility.yul\":26221:26223   */\n      0x40\n        /* \"#utility.yul\":26216:26219   */\n      dup3\n        /* \"#utility.yul\":26212:26224   */\n      add\n        /* \"#utility.yul\":26205:26224   */\n      swap1\n      pop\n        /* \"#utility.yul\":25864:26230   */\n      swap2\n      swap1\n      pop\n      jump\t// out\n        /* \"#utility.yul\":26236:26655   */\n    tag_218:\n        /* \"#utility.yul\":26402:26406   */\n      0x00\n        /* \"#utility.yul\":26440:26442   */\n      0x20\n        /* \"#utility.yul\":26429:26438   */\n      dup3\n        /* \"#utility.yul\":26425:26443   */\n      add\n        /* \"#utility.yul\":26417:26443   */\n      swap1\n      pop\n        /* \"#utility.yul\":26489:26498   */\n      dup2\n        /* \"#utility.yul\":26483:26487   */\n      dup2\n        /* \"#utility.yul\":26479:26499   */\n      sub\n        /* \"#utility.yul\":26475:26476   */\n      0x00\n        /* \"#utility.yul\":26464:26473   */\n      dup4\n        /* \"#utility.yul\":26460:26477   */\n      add\n        /* \"#utility.yul\":26453:26500   */\n      mstore\n        /* \"#utility.yul\":26517:26648   */\n      tag_719\n        /* \"#utility.yul\":26643:26647   */\n      dup2\n        /* \"#utility.yul\":26517:26648   */\n      tag_428\n      jump\t// in\n    tag_719:\n        /* \"#utility.yul\":26509:26648   */\n      swap1\n      pop\n        /* \"#utility.yul\":26236:26655   */\n      swap2\n      swap1\n      pop\n      jump\t// out\n        /* \"#utility.yul\":26661:26886   */\n    tag_429:\n        /* \"#utility.yul\":26801:26835   */\n      0x4f776e61626c653a206e6577206f776e657220697320746865207a65726f2061\n        /* \"#utility.yul\":26797:26798   */\n      0x00\n        /* \"#utility.yul\":26789:26795   */\n      dup3\n        /* \"#utility.yul\":26785:26799   */\n      add\n        /* \"#utility.yul\":26778:26836   */\n      mstore\n        /* \"#utility.yul\":26870:26878   */\n      0x6464726573730000000000000000000000000000000000000000000000000000\n        /* \"#utility.yul\":26865:26867   */\n      0x20\n        /* \"#utility.yul\":26857:26863   */\n      dup3\n        /* \"#utility.yul\":26853:26868   */\n      add\n        /* \"#utility.yul\":26846:26879   */\n      mstore\n        /* \"#utility.yul\":26661:26886   */\n      pop\n      jump\t// out\n        /* \"#utility.yul\":26892:27258   */\n    tag_430:\n        /* \"#utility.yul\":27034:27037   */\n      0x00\n        /* \"#utility.yul\":27055:27122   */\n      tag_722\n        /* \"#utility.yul\":27119:27121   */\n      0x26\n        /* \"#utility.yul\":27114:27117   */\n      dup4\n        /* \"#utility.yul\":27055:27122   */\n      tag_383\n      jump\t// in\n    tag_722:\n        /* \"#utility.yul\":27048:27122   */\n      swap2\n      pop\n        /* \"#utility.yul\":27131:27224   */\n      tag_723\n        /* \"#utility.yul\":27220:27223   */\n      dup3\n        /* \"#utility.yul\":27131:27224   */\n      tag_429\n      jump\t// in\n    tag_723:\n        /* \"#utility.yul\":27249:27251   */\n      0x40\n        /* \"#utility.yul\":27244:27247   */\n      dup3\n        /* \"#utility.yul\":27240:27252   */\n      add\n        /* \"#utility.yul\":27233:27252   */\n      swap1\n      pop\n        /* \"#utility.yul\":26892:27258   */\n      swap2\n      swap1\n      pop\n      jump\t// out\n        /* \"#utility.yul\":27264:27683   */\n    tag_229:\n        /* \"#utility.yul\":27430:27434   */\n      0x00\n        /* \"#utility.yul\":27468:27470   */\n      0x20\n        /* \"#utility.yul\":27457:27466   */\n      dup3\n        /* \"#utility.yul\":27453:27471   */\n      add\n        /* \"#utility.yul\":27445:27471   */\n      swap1\n      pop\n        /* \"#utility.yul\":27517:27526   */\n      dup2\n        /* \"#utility.yul\":27511:27515   */\n      dup2\n        /* \"#utility.yul\":27507:27527   */\n      sub\n        /* \"#utility.yul\":27503:27504   */\n      0x00\n        /* \"#utility.yul\":27492:27501   */\n      dup4\n        /* \"#utility.yul\":27488:27505   */\n      add\n        /* \"#utility.yul\":27481:27528   */\n      mstore\n        /* \"#utility.yul\":27545:27676   */\n      tag_725\n        /* \"#utility.yul\":27671:27675   */\n      dup2\n        /* \"#utility.yul\":27545:27676   */\n      tag_430\n      jump\t// in\n    tag_725:\n        /* \"#utility.yul\":27537:27676   */\n      swap1\n      pop\n        /* \"#utility.yul\":27264:27683   */\n      swap2\n      swap1\n      pop\n      jump\t// out\n        /* \"#utility.yul\":27689:27916   */\n    tag_431:\n        /* \"#utility.yul\":27829:27863   */\n      0x455243313135353a2069647320616e6420616d6f756e7473206c656e67746820\n        /* \"#utility.yul\":27825:27826   */\n      0x00\n        /* \"#utility.yul\":27817:27823   */\n      dup3\n        /* \"#utility.yul\":27813:27827   */\n      add\n        /* \"#utility.yul\":27806:27864   */\n      mstore\n        /* \"#utility.yul\":27898:27908   */\n      0x6d69736d61746368000000000000000000000000000000000000000000000000\n        /* \"#utility.yul\":27893:27895   */\n      0x20\n        /* \"#utility.yul\":27885:27891   */\n      dup3\n        /* \"#utility.yul\":27881:27896   */\n      add\n        /* \"#utility.yul\":27874:27909   */\n      mstore\n        /* \"#utility.yul\":27689:27916   */\n      pop\n      jump\t// out\n        /* \"#utility.yul\":27922:28288   */\n    tag_432:\n        /* \"#utility.yul\":28064:28067   */\n      0x00\n        /* \"#utility.yul\":28085:28152   */\n      tag_728\n        /* \"#utility.yul\":28149:28151   */\n      0x28\n        /* \"#utility.yul\":28144:28147   */\n      dup4\n        /* \"#utility.yul\":28085:28152   */\n      tag_383\n      jump\t// in\n    tag_728:\n        /* \"#utility.yul\":28078:28152   */\n      swap2\n      pop\n        /* \"#utility.yul\":28161:28254   */\n      tag_729\n        /* \"#utility.yul\":28250:28253   */\n      dup3\n        /* \"#utility.yul\":28161:28254   */\n      tag_431\n      jump\t// in\n    tag_729:\n        /* \"#utility.yul\":28279:28281   */\n      0x40\n        /* \"#utility.yul\":28274:28277   */\n      dup3\n        /* \"#utility.yul\":28270:28282   */\n      add\n        /* \"#utility.yul\":28263:28282   */\n      swap1\n      pop\n        /* \"#utility.yul\":27922:28288   */\n      swap2\n      swap1\n      pop\n      jump\t// out\n        /* \"#utility.yul\":28294:28713   */\n    tag_237:\n        /* \"#utility.yul\":28460:28464   */\n      0x00\n        /* \"#utility.yul\":28498:28500   */\n      0x20\n        /* \"#utility.yul\":28487:28496   */\n      dup3\n        /* \"#utility.yul\":28483:28501   */\n      add\n        /* \"#utility.yul\":28475:28501   */\n      swap1\n      pop\n        /* \"#utility.yul\":28547:28556   */\n      dup2\n        /* \"#utility.yul\":28541:28545   */\n      dup2\n        /* \"#utility.yul\":28537:28557   */\n      sub\n        /* \"#utility.yul\":28533:28534   */\n      0x00\n        /* \"#utility.yul\":28522:28531   */\n      dup4\n        /* \"#utility.yul\":28518:28535   */\n      add\n        /* \"#utility.yul\":28511:28558   */\n      mstore\n        /* \"#utility.yul\":28575:28706   */\n      tag_731\n        /* \"#utility.yul\":28701:28705   */\n      dup2\n        /* \"#utility.yul\":28575:28706   */\n      tag_432\n      jump\t// in\n    tag_731:\n        /* \"#utility.yul\":28567:28706   */\n      swap1\n      pop\n        /* \"#utility.yul\":28294:28713   */\n      swap2\n      swap1\n      pop\n      jump\t// out\n        /* \"#utility.yul\":28719:28943   */\n    tag_433:\n        /* \"#utility.yul\":28859:28893   */\n      0x455243313135353a207472616e7366657220746f20746865207a65726f206164\n        /* \"#utility.yul\":28855:28856   */\n      0x00\n        /* \"#utility.yul\":28847:28853   */\n      dup3\n        /* \"#utility.yul\":28843:28857   */\n      add\n        /* \"#utility.yul\":28836:28894   */\n      mstore\n        /* \"#utility.yul\":28928:28935   */\n      0x6472657373000000000000000000000000000000000000000000000000000000\n        /* \"#utility.yul\":28923:28925   */\n      0x20\n        /* \"#utility.yul\":28915:28921   */\n      dup3\n        /* \"#utility.yul\":28911:28926   */\n      add\n        /* \"#utility.yul\":28904:28936   */\n      mstore\n        /* \"#utility.yul\":28719:28943   */\n      pop\n      jump\t// out\n        /* \"#utility.yul\":28949:29315   */\n    tag_434:\n        /* \"#utility.yul\":29091:29094   */\n      0x00\n        /* \"#utility.yul\":29112:29179   */\n      tag_734\n        /* \"#utility.yul\":29176:29178   */\n      0x25\n        /* \"#utility.yul\":29171:29174   */\n      dup4\n        /* \"#utility.yul\":29112:29179   */\n      tag_383\n      jump\t// in\n    tag_734:\n        /* \"#utility.yul\":29105:29179   */\n      swap2\n      pop\n        /* \"#utility.yul\":29188:29281   */\n      tag_735\n        /* \"#utility.yul\":29277:29280   */\n      dup3\n        /* \"#utility.yul\":29188:29281   */\n      tag_433\n      jump\t// in\n    tag_735:\n        /* \"#utility.yul\":29306:29308   */\n      0x40\n        /* \"#utility.yul\":29301:29304   */\n      dup3\n        /* \"#utility.yul\":29297:29309   */\n      add\n        /* \"#utility.yul\":29290:29309   */\n      swap1\n      pop\n        /* \"#utility.yul\":28949:29315   */\n      swap2\n      swap1\n      pop\n      jump\t// out\n        /* \"#utility.yul\":29321:29740   */\n    tag_240:\n        /* \"#utility.yul\":29487:29491   */\n      0x00\n        /* \"#utility.yul\":29525:29527   */\n      0x20\n        /* \"#utility.yul\":29514:29523   */\n      dup3\n        /* \"#utility.yul\":29510:29528   */\n      add\n        /* \"#utility.yul\":29502:29528   */\n      swap1\n      pop\n        /* \"#utility.yul\":29574:29583   */\n      dup2\n        /* \"#utility.yul\":29568:29572   */\n      dup2\n        /* \"#utility.yul\":29564:29584   */\n      sub\n        /* \"#utility.yul\":29560:29561   */\n      0x00\n        /* \"#utility.yul\":29549:29558   */\n      dup4\n        /* \"#utility.yul\":29545:29562   */\n      add\n        /* \"#utility.yul\":29538:29585   */\n      mstore\n        /* \"#utility.yul\":29602:29733   */\n      tag_737\n        /* \"#utility.yul\":29728:29732   */\n      dup2\n        /* \"#utility.yul\":29602:29733   */\n      tag_434\n      jump\t// in\n    tag_737:\n        /* \"#utility.yul\":29594:29733   */\n      swap1\n      pop\n        /* \"#utility.yul\":29321:29740   */\n      swap2\n      swap1\n      pop\n      jump\t// out\n        /* \"#utility.yul\":29746:29975   */\n    tag_435:\n        /* \"#utility.yul\":29886:29920   */\n      0x455243313135353a20696e73756666696369656e742062616c616e636520666f\n        /* \"#utility.yul\":29882:29883   */\n      0x00\n        /* \"#utility.yul\":29874:29880   */\n      dup3\n        /* \"#utility.yul\":29870:29884   */\n      add\n        /* \"#utility.yul\":29863:29921   */\n      mstore\n        /* \"#utility.yul\":29955:29967   */\n      0x72207472616e7366657200000000000000000000000000000000000000000000\n        /* \"#utility.yul\":29950:29952   */\n      0x20\n        /* \"#utility.yul\":29942:29948   */\n      dup3\n        /* \"#utility.yul\":29938:29953   */\n      add\n        /* \"#utility.yul\":29931:29968   */\n      mstore\n        /* \"#utility.yul\":29746:29975   */\n      pop\n      jump\t// out\n        /* \"#utility.yul\":29981:30347   */\n    tag_436:\n        /* \"#utility.yul\":30123:30126   */\n      0x00\n        /* \"#utility.yul\":30144:30211   */\n      tag_740\n        /* \"#utility.yul\":30208:30210   */\n      0x2a\n        /* \"#utility.yul\":30203:30206   */\n      dup4\n        /* \"#utility.yul\":30144:30211   */\n      tag_383\n      jump\t// in\n    tag_740:\n        /* \"#utility.yul\":30137:30211   */\n      swap2\n      pop\n        /* \"#utility.yul\":30220:30313   */\n      tag_741\n        /* \"#utility.yul\":30309:30312   */\n      dup3\n        /* \"#utility.yul\":30220:30313   */\n      tag_435\n      jump\t// in\n    tag_741:\n        /* \"#utility.yul\":30338:30340   */\n      0x40\n        /* \"#utility.yul\":30333:30336   */\n      dup3\n        /* \"#utility.yul\":30329:30341   */\n      add\n        /* \"#utility.yul\":30322:30341   */\n      swap1\n      pop\n        /* \"#utility.yul\":29981:30347   */\n      swap2\n      swap1\n      pop\n      jump\t// out\n        /* \"#utility.yul\":30353:30772   */\n    tag_253:\n        /* \"#utility.yul\":30519:30523   */\n      0x00\n        /* \"#utility.yul\":30557:30559   */\n      0x20\n        /* \"#utility.yul\":30546:30555   */\n      dup3\n        /* \"#utility.yul\":30542:30560   */\n      add\n        /* \"#utility.yul\":30534:30560   */\n      swap1\n      pop\n        /* \"#utility.yul\":30606:30615   */\n      dup2\n        /* \"#utility.yul\":30600:30604   */\n      dup2\n        /* \"#utility.yul\":30596:30616   */\n      sub\n        /* \"#utility.yul\":30592:30593   */\n      0x00\n        /* \"#utility.yul\":30581:30590   */\n      dup4\n        /* \"#utility.yul\":30577:30594   */\n      add\n        /* \"#utility.yul\":30570:30617   */\n      mstore\n        /* \"#utility.yul\":30634:30765   */\n      tag_743\n        /* \"#utility.yul\":30760:30764   */\n      dup2\n        /* \"#utility.yul\":30634:30765   */\n      tag_436\n      jump\t// in\n    tag_743:\n        /* \"#utility.yul\":30626:30765   */\n      swap1\n      pop\n        /* \"#utility.yul\":30353:30772   */\n      swap2\n      swap1\n      pop\n      jump\t// out\n        /* \"#utility.yul\":30778:31412   */\n    tag_257:\n        /* \"#utility.yul\":30999:31003   */\n      0x00\n        /* \"#utility.yul\":31037:31039   */\n      0x40\n        /* \"#utility.yul\":31026:31035   */\n      dup3\n        /* \"#utility.yul\":31022:31040   */\n      add\n        /* \"#utility.yul\":31014:31040   */\n      swap1\n      pop\n        /* \"#utility.yul\":31086:31095   */\n      dup2\n        /* \"#utility.yul\":31080:31084   */\n      dup2\n        /* \"#utility.yul\":31076:31096   */\n      sub\n        /* \"#utility.yul\":31072:31073   */\n      0x00\n        /* \"#utility.yul\":31061:31070   */\n      dup4\n        /* \"#utility.yul\":31057:31074   */\n      add\n        /* \"#utility.yul\":31050:31097   */\n      mstore\n        /* \"#utility.yul\":31114:31222   */\n      tag_745\n        /* \"#utility.yul\":31217:31221   */\n      dup2\n        /* \"#utility.yul\":31208:31214   */\n      dup6\n        /* \"#utility.yul\":31114:31222   */\n      tag_408\n      jump\t// in\n    tag_745:\n        /* \"#utility.yul\":31106:31222   */\n      swap1\n      pop\n        /* \"#utility.yul\":31269:31278   */\n      dup2\n        /* \"#utility.yul\":31263:31267   */\n      dup2\n        /* \"#utility.yul\":31259:31279   */\n      sub\n        /* \"#utility.yul\":31254:31256   */\n      0x20\n        /* \"#utility.yul\":31243:31252   */\n      dup4\n        /* \"#utility.yul\":31239:31257   */\n      add\n        /* \"#utility.yul\":31232:31280   */\n      mstore\n        /* \"#utility.yul\":31297:31405   */\n      tag_746\n        /* \"#utility.yul\":31400:31404   */\n      dup2\n        /* \"#utility.yul\":31391:31397   */\n      dup5\n        /* \"#utility.yul\":31297:31405   */\n      tag_408\n      jump\t// in\n    tag_746:\n        /* \"#utility.yul\":31289:31405   */\n      swap1\n      pop\n        /* \"#utility.yul\":30778:31412   */\n      swap4\n      swap3\n      pop\n      pop\n      pop\n      jump\t// out\n        /* \"#utility.yul\":31418:31640   */\n    tag_437:\n        /* \"#utility.yul\":31558:31592   */\n      0x455243313135353a206275726e2066726f6d20746865207a65726f2061646472\n        /* \"#utility.yul\":31554:31555   */\n      0x00\n        /* \"#utility.yul\":31546:31552   */\n      dup3\n        /* \"#utility.yul\":31542:31556   */\n      add\n        /* \"#utility.yul\":31535:31593   */\n      mstore\n        /* \"#utility.yul\":31627:31632   */\n      0x6573730000000000000000000000000000000000000000000000000000000000\n        /* \"#utility.yul\":31622:31624   */\n      0x20\n        /* \"#utility.yul\":31614:31620   */\n      dup3\n        /* \"#utility.yul\":31610:31625   */\n      add\n        /* \"#utility.yul\":31603:31633   */\n      mstore\n        /* \"#utility.yul\":31418:31640   */\n      pop\n      jump\t// out\n        /* \"#utility.yul\":31646:32012   */\n    tag_438:\n        /* \"#utility.yul\":31788:31791   */\n      0x00\n        /* \"#utility.yul\":31809:31876   */\n      tag_749\n        /* \"#utility.yul\":31873:31875   */\n      0x23\n        /* \"#utility.yul\":31868:31871   */\n      dup4\n        /* \"#utility.yul\":31809:31876   */\n      tag_383\n      jump\t// in\n    tag_749:\n        /* \"#utility.yul\":31802:31876   */\n      swap2\n      pop\n        /* \"#utility.yul\":31885:31978   */\n      tag_750\n        /* \"#utility.yul\":31974:31977   */\n      dup3\n        /* \"#utility.yul\":31885:31978   */\n      tag_437\n      jump\t// in\n    tag_750:\n        /* \"#utility.yul\":32003:32005   */\n      0x40\n        /* \"#utility.yul\":31998:32001   */\n      dup3\n        /* \"#utility.yul\":31994:32006   */\n      add\n        /* \"#utility.yul\":31987:32006   */\n      swap1\n      pop\n        /* \"#utility.yul\":31646:32012   */\n      swap2\n      swap1\n      pop\n      jump\t// out\n        /* \"#utility.yul\":32018:32437   */\n    tag_264:\n        /* \"#utility.yul\":32184:32188   */\n      0x00\n        /* \"#utility.yul\":32222:32224   */\n      0x20\n        /* \"#utility.yul\":32211:32220   */\n      dup3\n        /* \"#utility.yul\":32207:32225   */\n      add\n        /* \"#utility.yul\":32199:32225   */\n      swap1\n      pop\n        /* \"#utility.yul\":32271:32280   */\n      dup2\n        /* \"#utility.yul\":32265:32269   */\n      dup2\n        /* \"#utility.yul\":32261:32281   */\n      sub\n        /* \"#utility.yul\":32257:32258   */\n      0x00\n        /* \"#utility.yul\":32246:32255   */\n      dup4\n        /* \"#utility.yul\":32242:32259   */\n      add\n        /* \"#utility.yul\":32235:32282   */\n      mstore\n        /* \"#utility.yul\":32299:32430   */\n      tag_752\n        /* \"#utility.yul\":32425:32429   */\n      dup2\n        /* \"#utility.yul\":32299:32430   */\n      tag_438\n      jump\t// in\n    tag_752:\n        /* \"#utility.yul\":32291:32430   */\n      swap1\n      pop\n        /* \"#utility.yul\":32018:32437   */\n      swap2\n      swap1\n      pop\n      jump\t// out\n        /* \"#utility.yul\":32443:32666   */\n    tag_439:\n        /* \"#utility.yul\":32583:32617   */\n      0x455243313135353a206275726e20616d6f756e7420657863656564732062616c\n        /* \"#utility.yul\":32579:32580   */\n      0x00\n        /* \"#utility.yul\":32571:32577   */\n      dup3\n        /* \"#utility.yul\":32567:32581   */\n      add\n        /* \"#utility.yul\":32560:32618   */\n      mstore\n        /* \"#utility.yul\":32652:32658   */\n      0x616e636500000000000000000000000000000000000000000000000000000000\n        /* \"#utility.yul\":32647:32649   */\n      0x20\n        /* \"#utility.yul\":32639:32645   */\n      dup3\n        /* \"#utility.yul\":32635:32650   */\n      add\n        /* \"#utility.yul\":32628:32659   */\n      mstore\n        /* \"#utility.yul\":32443:32666   */\n      pop\n      jump\t// out\n        /* \"#utility.yul\":32672:33038   */\n    tag_440:\n        /* \"#utility.yul\":32814:32817   */\n      0x00\n        /* \"#utility.yul\":32835:32902   */\n      tag_755\n        /* \"#utility.yul\":32899:32901   */\n      0x24\n        /* \"#utility.yul\":32894:32897   */\n      dup4\n        /* \"#utility.yul\":32835:32902   */\n      tag_383\n      jump\t// in\n    tag_755:\n        /* \"#utility.yul\":32828:32902   */\n      swap2\n      pop\n        /* \"#utility.yul\":32911:33004   */\n      tag_756\n        /* \"#utility.yul\":33000:33003   */\n      dup3\n        /* \"#utility.yul\":32911:33004   */\n      tag_439\n      jump\t// in\n    tag_756:\n        /* \"#utility.yul\":33029:33031   */\n      0x40\n        /* \"#utility.yul\":33024:33027   */\n      dup3\n        /* \"#utility.yul\":33020:33032   */\n      add\n        /* \"#utility.yul\":33013:33032   */\n      swap1\n      pop\n        /* \"#utility.yul\":32672:33038   */\n      swap2\n      swap1\n      pop\n      jump\t// out\n        /* \"#utility.yul\":33044:33463   */\n    tag_272:\n        /* \"#utility.yul\":33210:33214   */\n      0x00\n        /* \"#utility.yul\":33248:33250   */\n      0x20\n        /* \"#utility.yul\":33237:33246   */\n      dup3\n        /* \"#utility.yul\":33233:33251   */\n      add\n        /* \"#utility.yul\":33225:33251   */\n      swap1\n      pop\n        /* \"#utility.yul\":33297:33306   */\n      dup2\n        /* \"#utility.yul\":33291:33295   */\n      dup2\n        /* \"#utility.yul\":33287:33307   */\n      sub\n        /* \"#utility.yul\":33283:33284   */\n      0x00\n        /* \"#utility.yul\":33272:33281   */\n      dup4\n        /* \"#utility.yul\":33268:33285   */\n      add\n        /* \"#utility.yul\":33261:33308   */\n      mstore\n        /* \"#utility.yul\":33325:33456   */\n      tag_758\n        /* \"#utility.yul\":33451:33455   */\n      dup2\n        /* \"#utility.yul\":33325:33456   */\n      tag_440\n      jump\t// in\n    tag_758:\n        /* \"#utility.yul\":33317:33456   */\n      swap1\n      pop\n        /* \"#utility.yul\":33044:33463   */\n      swap2\n      swap1\n      pop\n      jump\t// out\n        /* \"#utility.yul\":33469:33801   */\n    tag_274:\n        /* \"#utility.yul\":33590:33594   */\n      0x00\n        /* \"#utility.yul\":33628:33630   */\n      0x40\n        /* \"#utility.yul\":33617:33626   */\n      dup3\n        /* \"#utility.yul\":33613:33631   */\n      add\n        /* \"#utility.yul\":33605:33631   */\n      swap1\n      pop\n        /* \"#utility.yul\":33641:33712   */\n      tag_760\n        /* \"#utility.yul\":33709:33710   */\n      0x00\n        /* \"#utility.yul\":33698:33707   */\n      dup4\n        /* \"#utility.yul\":33694:33711   */\n      add\n        /* \"#utility.yul\":33685:33691   */\n      dup6\n        /* \"#utility.yul\":33641:33712   */\n      tag_376\n      jump\t// in\n    tag_760:\n        /* \"#utility.yul\":33722:33794   */\n      tag_761\n        /* \"#utility.yul\":33790:33792   */\n      0x20\n        /* \"#utility.yul\":33779:33788   */\n      dup4\n        /* \"#utility.yul\":33775:33793   */\n      add\n        /* \"#utility.yul\":33766:33772   */\n      dup5\n        /* \"#utility.yul\":33722:33794   */\n      tag_376\n      jump\t// in\n    tag_761:\n        /* \"#utility.yul\":33469:33801   */\n      swap4\n      swap3\n      pop\n      pop\n      pop\n      jump\t// out\n        /* \"#utility.yul\":33807:34035   */\n    tag_441:\n        /* \"#utility.yul\":33947:33981   */\n      0x455243313135353a2073657474696e6720617070726f76616c20737461747573\n        /* \"#utility.yul\":33943:33944   */\n      0x00\n        /* \"#utility.yul\":33935:33941   */\n      dup3\n        /* \"#utility.yul\":33931:33945   */\n      add\n        /* \"#utility.yul\":33924:33982   */\n      mstore\n        /* \"#utility.yul\":34016:34027   */\n      0x20666f722073656c660000000000000000000000000000000000000000000000\n        /* \"#utility.yul\":34011:34013   */\n      0x20\n        /* \"#utility.yul\":34003:34009   */\n      dup3\n        /* \"#utility.yul\":33999:34014   */\n      add\n        /* \"#utility.yul\":33992:34028   */\n      mstore\n        /* \"#utility.yul\":33807:34035   */\n      pop\n      jump\t// out\n        /* \"#utility.yul\":34041:34407   */\n    tag_442:\n        /* \"#utility.yul\":34183:34186   */\n      0x00\n        /* \"#utility.yul\":34204:34271   */\n      tag_764\n        /* \"#utility.yul\":34268:34270   */\n      0x29\n        /* \"#utility.yul\":34263:34266   */\n      dup4\n        /* \"#utility.yul\":34204:34271   */\n      tag_383\n      jump\t// in\n    tag_764:\n        /* \"#utility.yul\":34197:34271   */\n      swap2\n      pop\n        /* \"#utility.yul\":34280:34373   */\n      tag_765\n        /* \"#utility.yul\":34369:34372   */\n      dup3\n        /* \"#utility.yul\":34280:34373   */\n      tag_441\n      jump\t// in\n    tag_765:\n        /* \"#utility.yul\":34398:34400   */\n      0x40\n        /* \"#utility.yul\":34393:34396   */\n      dup3\n        /* \"#utility.yul\":34389:34401   */\n      add\n        /* \"#utility.yul\":34382:34401   */\n      swap1\n      pop\n        /* \"#utility.yul\":34041:34407   */\n      swap2\n      swap1\n      pop\n      jump\t// out\n        /* \"#utility.yul\":34413:34832   */\n    tag_278:\n        /* \"#utility.yul\":34579:34583   */\n      0x00\n        /* \"#utility.yul\":34617:34619   */\n      0x20\n        /* \"#utility.yul\":34606:34615   */\n      dup3\n        /* \"#utility.yul\":34602:34620   */\n      add\n        /* \"#utility.yul\":34594:34620   */\n      swap1\n      pop\n        /* \"#utility.yul\":34666:34675   */\n      dup2\n        /* \"#utility.yul\":34660:34664   */\n      dup2\n        /* \"#utility.yul\":34656:34676   */\n      sub\n        /* \"#utility.yul\":34652:34653   */\n      0x00\n        /* \"#utility.yul\":34641:34650   */\n      dup4\n        /* \"#utility.yul\":34637:34654   */\n      add\n        /* \"#utility.yul\":34630:34677   */\n      mstore\n        /* \"#utility.yul\":34694:34825   */\n      tag_767\n        /* \"#utility.yul\":34820:34824   */\n      dup2\n        /* \"#utility.yul\":34694:34825   */\n      tag_442\n      jump\t// in\n    tag_767:\n        /* \"#utility.yul\":34686:34825   */\n      swap1\n      pop\n        /* \"#utility.yul\":34413:34832   */\n      swap2\n      swap1\n      pop\n      jump\t// out\n        /* \"#utility.yul\":34838:35058   */\n    tag_443:\n        /* \"#utility.yul\":34978:35012   */\n      0x455243313135353a206d696e7420746f20746865207a65726f20616464726573\n        /* \"#utility.yul\":34974:34975   */\n      0x00\n        /* \"#utility.yul\":34966:34972   */\n      dup3\n        /* \"#utility.yul\":34962:34976   */\n      add\n        /* \"#utility.yul\":34955:35013   */\n      mstore\n        /* \"#utility.yul\":35047:35050   */\n      0x7300000000000000000000000000000000000000000000000000000000000000\n        /* \"#utility.yul\":35042:35044   */\n      0x20\n        /* \"#utility.yul\":35034:35040   */\n      dup3\n        /* \"#utility.yul\":35030:35045   */\n      add\n        /* \"#utility.yul\":35023:35051   */\n      mstore\n        /* \"#utility.yul\":34838:35058   */\n      pop\n      jump\t// out\n        /* \"#utility.yul\":35064:35430   */\n    tag_444:\n        /* \"#utility.yul\":35206:35209   */\n      0x00\n        /* \"#utility.yul\":35227:35294   */\n      tag_770\n        /* \"#utility.yul\":35291:35293   */\n      0x21\n        /* \"#utility.yul\":35286:35289   */\n      dup4\n        /* \"#utility.yul\":35227:35294   */\n      tag_383\n      jump\t// in\n    tag_770:\n        /* \"#utility.yul\":35220:35294   */\n      swap2\n      pop\n        /* \"#utility.yul\":35303:35396   */\n      tag_771\n        /* \"#utility.yul\":35392:35395   */\n      dup3\n        /* \"#utility.yul\":35303:35396   */\n      tag_443\n      jump\t// in\n    tag_771:\n        /* \"#utility.yul\":35421:35423   */\n      0x40\n        /* \"#utility.yul\":35416:35419   */\n      dup3\n        /* \"#utility.yul\":35412:35424   */\n      add\n        /* \"#utility.yul\":35405:35424   */\n      swap1\n      pop\n        /* \"#utility.yul\":35064:35430   */\n      swap2\n      swap1\n      pop\n      jump\t// out\n        /* \"#utility.yul\":35436:35855   */\n    tag_283:\n        /* \"#utility.yul\":35602:35606   */\n      0x00\n        /* \"#utility.yul\":35640:35642   */\n      0x20\n        /* \"#utility.yul\":35629:35638   */\n      dup3\n        /* \"#utility.yul\":35625:35643   */\n      add\n        /* \"#utility.yul\":35617:35643   */\n      swap1\n      pop\n        /* \"#utility.yul\":35689:35698   */\n      dup2\n        /* \"#utility.yul\":35683:35687   */\n      dup2\n        /* \"#utility.yul\":35679:35699   */\n      sub\n        /* \"#utility.yul\":35675:35676   */\n      0x00\n        /* \"#utility.yul\":35664:35673   */\n      dup4\n        /* \"#utility.yul\":35660:35677   */\n      add\n        /* \"#utility.yul\":35653:35700   */\n      mstore\n        /* \"#utility.yul\":35717:35848   */\n      tag_773\n        /* \"#utility.yul\":35843:35847   */\n      dup2\n        /* \"#utility.yul\":35717:35848   */\n      tag_444\n      jump\t// in\n    tag_773:\n        /* \"#utility.yul\":35709:35848   */\n      swap1\n      pop\n        /* \"#utility.yul\":35436:35855   */\n      swap2\n      swap1\n      pop\n      jump\t// out\n        /* \"#utility.yul\":35861:35959   */\n    tag_445:\n        /* \"#utility.yul\":35912:35918   */\n      0x00\n        /* \"#utility.yul\":35946:35951   */\n      dup2\n        /* \"#utility.yul\":35940:35952   */\n      mload\n        /* \"#utility.yul\":35930:35952   */\n      swap1\n      pop\n        /* \"#utility.yul\":35861:35959   */\n      swap2\n      swap1\n      pop\n      jump\t// out\n        /* \"#utility.yul\":35965:36133   */\n    tag_446:\n        /* \"#utility.yul\":36048:36059   */\n      0x00\n        /* \"#utility.yul\":36082:36088   */\n      dup3\n        /* \"#utility.yul\":36077:36080   */\n      dup3\n        /* \"#utility.yul\":36070:36089   */\n      mstore\n        /* \"#utility.yul\":36122:36126   */\n      0x20\n        /* \"#utility.yul\":36117:36120   */\n      dup3\n        /* \"#utility.yul\":36113:36127   */\n      add\n        /* \"#utility.yul\":36098:36127   */\n      swap1\n      pop\n        /* \"#utility.yul\":35965:36133   */\n      swap3\n      swap2\n      pop\n      pop\n      jump\t// out\n        /* \"#utility.yul\":36139:36499   */\n    tag_447:\n        /* \"#utility.yul\":36225:36228   */\n      0x00\n        /* \"#utility.yul\":36253:36291   */\n      tag_777\n        /* \"#utility.yul\":36285:36290   */\n      dup3\n        /* \"#utility.yul\":36253:36291   */\n      tag_445\n      jump\t// in\n    tag_777:\n        /* \"#utility.yul\":36307:36377   */\n      tag_778\n        /* \"#utility.yul\":36370:36376   */\n      dup2\n        /* \"#utility.yul\":36365:36368   */\n      dup6\n        /* \"#utility.yul\":36307:36377   */\n      tag_446\n      jump\t// in\n    tag_778:\n        /* \"#utility.yul\":36300:36377   */\n      swap4\n      pop\n        /* \"#utility.yul\":36386:36438   */\n      tag_779\n        /* \"#utility.yul\":36431:36437   */\n      dup2\n        /* \"#utility.yul\":36426:36429   */\n      dup6\n        /* \"#utility.yul\":36419:36423   */\n      0x20\n        /* \"#utility.yul\":36412:36417   */\n      dup7\n        /* \"#utility.yul\":36408:36424   */\n      add\n        /* \"#utility.yul\":36386:36438   */\n      tag_384\n      jump\t// in\n    tag_779:\n        /* \"#utility.yul\":36463:36492   */\n      tag_780\n        /* \"#utility.yul\":36485:36491   */\n      dup2\n        /* \"#utility.yul\":36463:36492   */\n      tag_385\n      jump\t// in\n    tag_780:\n        /* \"#utility.yul\":36458:36461   */\n      dup5\n        /* \"#utility.yul\":36454:36493   */\n      add\n        /* \"#utility.yul\":36447:36493   */\n      swap2\n      pop\n        /* \"#utility.yul\":36229:36499   */\n      pop\n        /* \"#utility.yul\":36139:36499   */\n      swap3\n      swap2\n      pop\n      pop\n      jump\t// out\n        /* \"#utility.yul\":36505:37558   */\n    tag_311:\n        /* \"#utility.yul\":36828:36832   */\n      0x00\n        /* \"#utility.yul\":36866:36869   */\n      0xa0\n        /* \"#utility.yul\":36855:36864   */\n      dup3\n        /* \"#utility.yul\":36851:36870   */\n      add\n        /* \"#utility.yul\":36843:36870   */\n      swap1\n      pop\n        /* \"#utility.yul\":36880:36951   */\n      tag_782\n        /* \"#utility.yul\":36948:36949   */\n      0x00\n        /* \"#utility.yul\":36937:36946   */\n      dup4\n        /* \"#utility.yul\":36933:36950   */\n      add\n        /* \"#utility.yul\":36924:36930   */\n      dup9\n        /* \"#utility.yul\":36880:36951   */\n      tag_409\n      jump\t// in\n    tag_782:\n        /* \"#utility.yul\":36961:37033   */\n      tag_783\n        /* \"#utility.yul\":37029:37031   */\n      0x20\n        /* \"#utility.yul\":37018:37027   */\n      dup4\n        /* \"#utility.yul\":37014:37032   */\n      add\n        /* \"#utility.yul\":37005:37011   */\n      dup8\n        /* \"#utility.yul\":36961:37033   */\n      tag_409\n      jump\t// in\n    tag_783:\n        /* \"#utility.yul\":37080:37089   */\n      dup2\n        /* \"#utility.yul\":37074:37078   */\n      dup2\n        /* \"#utility.yul\":37070:37090   */\n      sub\n        /* \"#utility.yul\":37065:37067   */\n      0x40\n        /* \"#utility.yul\":37054:37063   */\n      dup4\n        /* \"#utility.yul\":37050:37068   */\n      add\n        /* \"#utility.yul\":37043:37091   */\n      mstore\n        /* \"#utility.yul\":37108:37216   */\n      tag_784\n        /* \"#utility.yul\":37211:37215   */\n      dup2\n        /* \"#utility.yul\":37202:37208   */\n      dup7\n        /* \"#utility.yul\":37108:37216   */\n      tag_408\n      jump\t// in\n    tag_784:\n        /* \"#utility.yul\":37100:37216   */\n      swap1\n      pop\n        /* \"#utility.yul\":37263:37272   */\n      dup2\n        /* \"#utility.yul\":37257:37261   */\n      dup2\n        /* \"#utility.yul\":37253:37273   */\n      sub\n        /* \"#utility.yul\":37248:37250   */\n      0x60\n        /* \"#utility.yul\":37237:37246   */\n      dup4\n        /* \"#utility.yul\":37233:37251   */\n      add\n        /* \"#utility.yul\":37226:37274   */\n      mstore\n        /* \"#utility.yul\":37291:37399   */\n      tag_785\n        /* \"#utility.yul\":37394:37398   */\n      dup2\n        /* \"#utility.yul\":37385:37391   */\n      dup6\n        /* \"#utility.yul\":37291:37399   */\n      tag_408\n      jump\t// in\n    tag_785:\n        /* \"#utility.yul\":37283:37399   */\n      swap1\n      pop\n        /* \"#utility.yul\":37447:37456   */\n      dup2\n        /* \"#utility.yul\":37441:37445   */\n      dup2\n        /* \"#utility.yul\":37437:37457   */\n      sub\n        /* \"#utility.yul\":37431:37434   */\n      0x80\n        /* \"#utility.yul\":37420:37429   */\n      dup4\n        /* \"#utility.yul\":37416:37435   */\n      add\n        /* \"#utility.yul\":37409:37458   */\n      mstore\n        /* \"#utility.yul\":37475:37551   */\n      tag_786\n        /* \"#utility.yul\":37546:37550   */\n      dup2\n        /* \"#utility.yul\":37537:37543   */\n      dup5\n        /* \"#utility.yul\":37475:37551   */\n      tag_447\n      jump\t// in\n    tag_786:\n        /* \"#utility.yul\":37467:37551   */\n      swap1\n      pop\n        /* \"#utility.yul\":36505:37558   */\n      swap7\n      swap6\n      pop\n      pop\n      pop\n      pop\n      pop\n      pop\n      jump\t// out\n        /* \"#utility.yul\":37564:37705   */\n    tag_448:\n        /* \"#utility.yul\":37620:37625   */\n      0x00\n        /* \"#utility.yul\":37651:37657   */\n      dup2\n        /* \"#utility.yul\":37645:37658   */\n      mload\n        /* \"#utility.yul\":37636:37658   */\n      swap1\n      pop\n        /* \"#utility.yul\":37667:37699   */\n      tag_788\n        /* \"#utility.yul\":37693:37698   */\n      dup2\n        /* \"#utility.yul\":37667:37699   */\n      tag_378\n      jump\t// in\n    tag_788:\n        /* \"#utility.yul\":37564:37705   */\n      swap3\n      swap2\n      pop\n      pop\n      jump\t// out\n        /* \"#utility.yul\":37711:38060   */\n    tag_314:\n        /* \"#utility.yul\":37780:37786   */\n      0x00\n        /* \"#utility.yul\":37829:37831   */\n      0x20\n        /* \"#utility.yul\":37817:37826   */\n      dup3\n        /* \"#utility.yul\":37808:37815   */\n      dup5\n        /* \"#utility.yul\":37804:37827   */\n      sub\n        /* \"#utility.yul\":37800:37832   */\n      slt\n        /* \"#utility.yul\":37797:37916   */\n      iszero\n      tag_790\n      jumpi\n        /* \"#utility.yul\":37835:37914   */\n      tag_791\n      tag_367\n      jump\t// in\n    tag_791:\n        /* \"#utility.yul\":37797:37916   */\n    tag_790:\n        /* \"#utility.yul\":37955:37956   */\n      0x00\n        /* \"#utility.yul\":37980:38043   */\n      tag_792\n        /* \"#utility.yul\":38035:38042   */\n      dup5\n        /* \"#utility.yul\":38026:38032   */\n      dup3\n        /* \"#utility.yul\":38015:38024   */\n      dup6\n        /* \"#utility.yul\":38011:38033   */\n      add\n        /* \"#utility.yul\":37980:38043   */\n      tag_448\n      jump\t// in\n    tag_792:\n        /* \"#utility.yul\":37970:38043   */\n      swap2\n      pop\n        /* \"#utility.yul\":37926:38053   */\n      pop\n        /* \"#utility.yul\":37711:38060   */\n      swap3\n      swap2\n      pop\n      pop\n      jump\t// out\n        /* \"#utility.yul\":38066:38172   */\n    tag_449:\n        /* \"#utility.yul\":38110:38118   */\n      0x00\n        /* \"#utility.yul\":38159:38164   */\n      dup2\n        /* \"#utility.yul\":38154:38157   */\n      0xe0\n        /* \"#utility.yul\":38150:38165   */\n      shr\n        /* \"#utility.yul\":38129:38165   */\n      swap1\n      pop\n        /* \"#utility.yul\":38066:38172   */\n      swap2\n      swap1\n      pop\n      jump\t// out\n        /* \"#utility.yul\":38178:38361   */\n    tag_320:\n        /* \"#utility.yul\":38213:38216   */\n      0x00\n        /* \"#utility.yul\":38251:38252   */\n      0x03\n        /* \"#utility.yul\":38233:38249   */\n      returndatasize\n        /* \"#utility.yul\":38230:38253   */\n      gt\n        /* \"#utility.yul\":38227:38355   */\n      iszero\n      tag_795\n      jumpi\n        /* \"#utility.yul\":38289:38290   */\n      0x04\n        /* \"#utility.yul\":38286:38287   */\n      0x00\n        /* \"#utility.yul\":38283:38284   */\n      dup1\n        /* \"#utility.yul\":38268:38291   */\n      returndatacopy\n        /* \"#utility.yul\":38311:38345   */\n      tag_796\n        /* \"#utility.yul\":38342:38343   */\n      0x00\n        /* \"#utility.yul\":38336:38344   */\n      mload\n        /* \"#utility.yul\":38311:38345   */\n      tag_449\n      jump\t// in\n    tag_796:\n        /* \"#utility.yul\":38304:38345   */\n      swap1\n      pop\n        /* \"#utility.yul\":38227:38355   */\n    tag_795:\n        /* \"#utility.yul\":38178:38361   */\n      swap1\n      jump\t// out\n        /* \"#utility.yul\":38367:39078   */\n    tag_322:\n        /* \"#utility.yul\":38406:38409   */\n      0x00\n        /* \"#utility.yul\":38444:38448   */\n      0x44\n        /* \"#utility.yul\":38426:38442   */\n      returndatasize\n        /* \"#utility.yul\":38423:38449   */\n      lt\n        /* \"#utility.yul\":38420:38459   */\n      iszero\n      tag_798\n      jumpi\n        /* \"#utility.yul\":38452:38457   */\n      jump(tag_797)\n        /* \"#utility.yul\":38420:38459   */\n    tag_798:\n        /* \"#utility.yul\":38481:38501   */\n      tag_799\n      tag_366\n      jump\t// in\n    tag_799:\n        /* \"#utility.yul\":38556:38557   */\n      0x04\n        /* \"#utility.yul\":38538:38554   */\n      returndatasize\n        /* \"#utility.yul\":38534:38558   */\n      sub\n        /* \"#utility.yul\":38531:38532   */\n      0x04\n        /* \"#utility.yul\":38525:38529   */\n      dup3\n        /* \"#utility.yul\":38510:38559   */\n      returndatacopy\n        /* \"#utility.yul\":38589:38593   */\n      dup1\n        /* \"#utility.yul\":38583:38594   */\n      mload\n        /* \"#utility.yul\":38688:38704   */\n      returndatasize\n        /* \"#utility.yul\":38681:38685   */\n      0x24\n        /* \"#utility.yul\":38673:38679   */\n      dup3\n        /* \"#utility.yul\":38669:38686   */\n      add\n        /* \"#utility.yul\":38666:38705   */\n      gt\n        /* \"#utility.yul\":38633:38651   */\n      0xffffffffffffffff\n        /* \"#utility.yul\":38625:38631   */\n      dup3\n        /* \"#utility.yul\":38622:38652   */\n      gt\n        /* \"#utility.yul\":38606:38719   */\n      or\n        /* \"#utility.yul\":38603:38749   */\n      iszero\n      tag_800\n      jumpi\n        /* \"#utility.yul\":38734:38739   */\n      pop\n      pop\n      jump(tag_797)\n        /* \"#utility.yul\":38603:38749   */\n    tag_800:\n        /* \"#utility.yul\":38780:38786   */\n      dup1\n        /* \"#utility.yul\":38774:38778   */\n      dup3\n        /* \"#utility.yul\":38770:38787   */\n      add\n        /* \"#utility.yul\":38816:38819   */\n      dup1\n        /* \"#utility.yul\":38810:38820   */\n      mload\n        /* \"#utility.yul\":38843:38861   */\n      0xffffffffffffffff\n        /* \"#utility.yul\":38835:38841   */\n      dup2\n        /* \"#utility.yul\":38832:38862   */\n      gt\n        /* \"#utility.yul\":38829:38872   */\n      iszero\n      tag_801\n      jumpi\n        /* \"#utility.yul\":38865:38870   */\n      pop\n      pop\n      pop\n      pop\n      jump(tag_797)\n        /* \"#utility.yul\":38829:38872   */\n    tag_801:\n        /* \"#utility.yul\":38913:38919   */\n      dup1\n        /* \"#utility.yul\":38906:38910   */\n      0x20\n        /* \"#utility.yul\":38901:38904   */\n      dup4\n        /* \"#utility.yul\":38897:38911   */\n      add\n        /* \"#utility.yul\":38893:38920   */\n      add\n        /* \"#utility.yul\":38972:38973   */\n      0x04\n        /* \"#utility.yul\":38954:38970   */\n      returndatasize\n        /* \"#utility.yul\":38950:38974   */\n      sub\n        /* \"#utility.yul\":38944:38948   */\n      dup6\n        /* \"#utility.yul\":38940:38975   */\n      add\n        /* \"#utility.yul\":38935:38938   */\n      dup2\n        /* \"#utility.yul\":38932:38976   */\n      gt\n        /* \"#utility.yul\":38929:38986   */\n      iszero\n      tag_802\n      jumpi\n        /* \"#utility.yul\":38979:38984   */\n      pop\n      pop\n      pop\n      pop\n      pop\n      jump(tag_797)\n        /* \"#utility.yul\":38929:38986   */\n    tag_802:\n        /* \"#utility.yul\":38996:39053   */\n      tag_803\n        /* \"#utility.yul\":39044:39050   */\n      dup3\n        /* \"#utility.yul\":39038:39042   */\n      0x20\n        /* \"#utility.yul\":39034:39051   */\n      add\n        /* \"#utility.yul\":39026:39032   */\n      dup6\n        /* \"#utility.yul\":39022:39052   */\n      add\n        /* \"#utility.yul\":39016:39020   */\n      dup7\n        /* \"#utility.yul\":38996:39053   */\n      tag_388\n      jump\t// in\n    tag_803:\n        /* \"#utility.yul\":39069:39072   */\n      dup3\n        /* \"#utility.yul\":39062:39072   */\n      swap6\n      pop\n        /* \"#utility.yul\":38410:39078   */\n      pop\n      pop\n      pop\n      pop\n      pop\n        /* \"#utility.yul\":38367:39078   */\n    tag_797:\n      swap1\n      jump\t// out\n        /* \"#utility.yul\":39084:39323   */\n    tag_450:\n        /* \"#utility.yul\":39224:39258   */\n      0x455243313135353a207472616e7366657220746f206e6f6e2045524331313535\n        /* \"#utility.yul\":39220:39221   */\n      0x00\n        /* \"#utility.yul\":39212:39218   */\n      dup3\n        /* \"#utility.yul\":39208:39222   */\n      add\n        /* \"#utility.yul\":39201:39259   */\n      mstore\n        /* \"#utility.yul\":39293:39315   */\n      0x526563656976657220696d706c656d656e746572000000000000000000000000\n        /* \"#utility.yul\":39288:39290   */\n      0x20\n        /* \"#utility.yul\":39280:39286   */\n      dup3\n        /* \"#utility.yul\":39276:39291   */\n      add\n        /* \"#utility.yul\":39269:39316   */\n      mstore\n        /* \"#utility.yul\":39084:39323   */\n      pop\n      jump\t// out\n        /* \"#utility.yul\":39329:39695   */\n    tag_451:\n        /* \"#utility.yul\":39471:39474   */\n      0x00\n        /* \"#utility.yul\":39492:39559   */\n      tag_806\n        /* \"#utility.yul\":39556:39558   */\n      0x34\n        /* \"#utility.yul\":39551:39554   */\n      dup4\n        /* \"#utility.yul\":39492:39559   */\n      tag_383\n      jump\t// in\n    tag_806:\n        /* \"#utility.yul\":39485:39559   */\n      swap2\n      pop\n        /* \"#utility.yul\":39568:39661   */\n      tag_807\n        /* \"#utility.yul\":39657:39660   */\n      dup3\n        /* \"#utility.yul\":39568:39661   */\n      tag_450\n      jump\t// in\n    tag_807:\n        /* \"#utility.yul\":39686:39688   */\n      0x40\n        /* \"#utility.yul\":39681:39684   */\n      dup3\n        /* \"#utility.yul\":39677:39689   */\n      add\n        /* \"#utility.yul\":39670:39689   */\n      swap1\n      pop\n        /* \"#utility.yul\":39329:39695   */\n      swap2\n      swap1\n      pop\n      jump\t// out\n        /* \"#utility.yul\":39701:40120   */\n    tag_326:\n        /* \"#utility.yul\":39867:39871   */\n      0x00\n        /* \"#utility.yul\":39905:39907   */\n      0x20\n        /* \"#utility.yul\":39894:39903   */\n      dup3\n        /* \"#utility.yul\":39890:39908   */\n      add\n        /* \"#utility.yul\":39882:39908   */\n      swap1\n      pop\n        /* \"#utility.yul\":39954:39963   */\n      dup2\n        /* \"#utility.yul\":39948:39952   */\n      dup2\n        /* \"#utility.yul\":39944:39964   */\n      sub\n        /* \"#utility.yul\":39940:39941   */\n      0x00\n        /* \"#utility.yul\":39929:39938   */\n      dup4\n        /* \"#utility.yul\":39925:39942   */\n      add\n        /* \"#utility.yul\":39918:39965   */\n      mstore\n        /* \"#utility.yul\":39982:40113   */\n      tag_809\n        /* \"#utility.yul\":40108:40112   */\n      dup2\n        /* \"#utility.yul\":39982:40113   */\n      tag_451\n      jump\t// in\n    tag_809:\n        /* \"#utility.yul\":39974:40113   */\n      swap1\n      pop\n        /* \"#utility.yul\":39701:40120   */\n      swap2\n      swap1\n      pop\n      jump\t// out\n        /* \"#utility.yul\":40126:40353   */\n    tag_452:\n        /* \"#utility.yul\":40266:40300   */\n      0x455243313135353a204552433131353552656365697665722072656a65637465\n        /* \"#utility.yul\":40262:40263   */\n      0x00\n        /* \"#utility.yul\":40254:40260   */\n      dup3\n        /* \"#utility.yul\":40250:40264   */\n      add\n        /* \"#utility.yul\":40243:40301   */\n      mstore\n        /* \"#utility.yul\":40335:40345   */\n      0x6420746f6b656e73000000000000000000000000000000000000000000000000\n        /* \"#utility.yul\":40330:40332   */\n      0x20\n        /* \"#utility.yul\":40322:40328   */\n      dup3\n        /* \"#utility.yul\":40318:40333   */\n      add\n        /* \"#utility.yul\":40311:40346   */\n      mstore\n        /* \"#utility.yul\":40126:40353   */\n      pop\n      jump\t// out\n        /* \"#utility.yul\":40359:40725   */\n    tag_453:\n        /* \"#utility.yul\":40501:40504   */\n      0x00\n        /* \"#utility.yul\":40522:40589   */\n      tag_812\n        /* \"#utility.yul\":40586:40588   */\n      0x28\n        /* \"#utility.yul\":40581:40584   */\n      dup4\n        /* \"#utility.yul\":40522:40589   */\n      tag_383\n      jump\t// in\n    tag_812:\n        /* \"#utility.yul\":40515:40589   */\n      swap2\n      pop\n        /* \"#utility.yul\":40598:40691   */\n      tag_813\n        /* \"#utility.yul\":40687:40690   */\n      dup3\n        /* \"#utility.yul\":40598:40691   */\n      tag_452\n      jump\t// in\n    tag_813:\n        /* \"#utility.yul\":40716:40718   */\n      0x40\n        /* \"#utility.yul\":40711:40714   */\n      dup3\n        /* \"#utility.yul\":40707:40719   */\n      add\n        /* \"#utility.yul\":40700:40719   */\n      swap1\n      pop\n        /* \"#utility.yul\":40359:40725   */\n      swap2\n      swap1\n      pop\n      jump\t// out\n        /* \"#utility.yul\":40731:41150   */\n    tag_330:\n        /* \"#utility.yul\":40897:40901   */\n      0x00\n        /* \"#utility.yul\":40935:40937   */\n      0x20\n        /* \"#utility.yul\":40924:40933   */\n      dup3\n        /* \"#utility.yul\":40920:40938   */\n      add\n        /* \"#utility.yul\":40912:40938   */\n      swap1\n      pop\n        /* \"#utility.yul\":40984:40993   */\n      dup2\n        /* \"#utility.yul\":40978:40982   */\n      dup2\n        /* \"#utility.yul\":40974:40994   */\n      sub\n        /* \"#utility.yul\":40970:40971   */\n      0x00\n        /* \"#utility.yul\":40959:40968   */\n      dup4\n        /* \"#utility.yul\":40955:40972   */\n      add\n        /* \"#utility.yul\":40948:40995   */\n      mstore\n        /* \"#utility.yul\":41012:41143   */\n      tag_815\n        /* \"#utility.yul\":41138:41142   */\n      dup2\n        /* \"#utility.yul\":41012:41143   */\n      tag_453\n      jump\t// in\n    tag_815:\n        /* \"#utility.yul\":41004:41143   */\n      swap1\n      pop\n        /* \"#utility.yul\":40731:41150   */\n      swap2\n      swap1\n      pop\n      jump\t// out\n        /* \"#utility.yul\":41156:41907   */\n    tag_341:\n        /* \"#utility.yul\":41379:41383   */\n      0x00\n        /* \"#utility.yul\":41417:41420   */\n      0xa0\n        /* \"#utility.yul\":41406:41415   */\n      dup3\n        /* \"#utility.yul\":41402:41421   */\n      add\n        /* \"#utility.yul\":41394:41421   */\n      swap1\n      pop\n        /* \"#utility.yul\":41431:41502   */\n      tag_817\n        /* \"#utility.yul\":41499:41500   */\n      0x00\n        /* \"#utility.yul\":41488:41497   */\n      dup4\n        /* \"#utility.yul\":41484:41501   */\n      add\n        /* \"#utility.yul\":41475:41481   */\n      dup9\n        /* \"#utility.yul\":41431:41502   */\n      tag_409\n      jump\t// in\n    tag_817:\n        /* \"#utility.yul\":41512:41584   */\n      tag_818\n        /* \"#utility.yul\":41580:41582   */\n      0x20\n        /* \"#utility.yul\":41569:41578   */\n      dup4\n        /* \"#utility.yul\":41565:41583   */\n      add\n        /* \"#utility.yul\":41556:41562   */\n      dup8\n        /* \"#utility.yul\":41512:41584   */\n      tag_409\n      jump\t// in\n    tag_818:\n        /* \"#utility.yul\":41594:41666   */\n      tag_819\n        /* \"#utility.yul\":41662:41664   */\n      0x40\n        /* \"#utility.yul\":41651:41660   */\n      dup4\n        /* \"#utility.yul\":41647:41665   */\n      add\n        /* \"#utility.yul\":41638:41644   */\n      dup7\n        /* \"#utility.yul\":41594:41666   */\n      tag_376\n      jump\t// in\n    tag_819:\n        /* \"#utility.yul\":41676:41748   */\n      tag_820\n        /* \"#utility.yul\":41744:41746   */\n      0x60\n        /* \"#utility.yul\":41733:41742   */\n      dup4\n        /* \"#utility.yul\":41729:41747   */\n      add\n        /* \"#utility.yul\":41720:41726   */\n      dup6\n        /* \"#utility.yul\":41676:41748   */\n      tag_376\n      jump\t// in\n    tag_820:\n        /* \"#utility.yul\":41796:41805   */\n      dup2\n        /* \"#utility.yul\":41790:41794   */\n      dup2\n        /* \"#utility.yul\":41786:41806   */\n      sub\n        /* \"#utility.yul\":41780:41783   */\n      0x80\n        /* \"#utility.yul\":41769:41778   */\n      dup4\n        /* \"#utility.yul\":41765:41784   */\n      add\n        /* \"#utility.yul\":41758:41807   */\n      mstore\n        /* \"#utility.yul\":41824:41900   */\n      tag_821\n        /* \"#utility.yul\":41895:41899   */\n      dup2\n        /* \"#utility.yul\":41886:41892   */\n      dup5\n        /* \"#utility.yul\":41824:41900   */\n      tag_447\n      jump\t// in\n    tag_821:\n        /* \"#utility.yul\":41816:41900   */\n      swap1\n      pop\n        /* \"#utility.yul\":41156:41907   */\n      swap7\n      swap6\n      pop\n      pop\n      pop\n      pop\n      pop\n      pop\n      jump\t// out\n\n    auxdata: 0xa26469706673582212204f1e112c5c33472f2d76cc7c95977d5594ebf56cc147dcd61099f03d3f18f6c564736f6c634300080a0033\n}\n","bytecode":{"linkReferences":{},"object":"6080604052600060045530600960006101000a81548173ffffffffffffffffffffffffffffffffffffffff021916908373ffffffffffffffffffffffffffffffffffffffff1602179055506040518060800160405280605081526020016200468460509139600b90805190602001906200007b929190620006e9565b503480156200008957600080fd5b506040518060800160405280605081526020016200463460509139620000b581620001a460201b60201c565b50620000d6620000ca620001c060201b60201c565b620001c860201b60201c565b33600560006101000a81548173ffffffffffffffffffffffffffffffffffffffff021916908373ffffffffffffffffffffffffffffffffffffffff1602179055506200013d336004546001604051806020016040528060008152506200028e60201b60201c565b6040518060800160405280605081526020016200463460509139600660006004548152602001908152602001600020908051906020019062000181929190620006e9565b50600160046000828254620001979190620007d2565b9250508190555062000e6e565b8060029080519060200190620001bc929190620006e9565b5050565b600033905090565b6000600360009054906101000a900473ffffffffffffffffffffffffffffffffffffffff16905081600360006101000a81548173ffffffffffffffffffffffffffffffffffffffff021916908373ffffffffffffffffffffffffffffffffffffffff1602179055508173ffffffffffffffffffffffffffffffffffffffff168173ffffffffffffffffffffffffffffffffffffffff167f8be0079c531659141344cd1fd0a4f28419497f9722a3daafe3b4186f6b6457e060405160405180910390a35050565b600073ffffffffffffffffffffffffffffffffffffffff168473ffffffffffffffffffffffffffffffffffffffff16141562000301576040517f08c379a0000000000000000000000000000000000000000000000000000000008152600401620002f890620008b6565b60405180910390fd5b600062000313620001c060201b60201c565b90506200034c816000876200032e886200045360201b60201c565b6200033f886200045360201b60201c565b87620004d460201b60201c565b8260008086815260200190815260200160002060008773ffffffffffffffffffffffffffffffffffffffff1673ffffffffffffffffffffffffffffffffffffffff1681526020019081526020016000206000828254620003ad9190620007d2565b925050819055508473ffffffffffffffffffffffffffffffffffffffff16600073ffffffffffffffffffffffffffffffffffffffff168273ffffffffffffffffffffffffffffffffffffffff167fc3d58168c5ae7397731d063d5bbf3d657854427343f4c083240f7aacaa2d0f6287876040516200042d929190620008e9565b60405180910390a46200044c81600087878787620004dc60201b60201c565b5050505050565b60606000600167ffffffffffffffff81111562000475576200047462000916565b5b604051908082528060200260200182016040528015620004a45781602001602082028036833780820191505090505b5090508281600081518110620004bf57620004be62000945565b5b60200260200101818152505080915050919050565b505050505050565b620005088473ffffffffffffffffffffffffffffffffffffffff16620006d660201b62000f9a1760201c565b15620006ce578373ffffffffffffffffffffffffffffffffffffffff1663f23a6e6187878686866040518663ffffffff1660e01b81526004016200055195949392919062000a5d565b6020604051808303816000875af19250505080156200059057506040513d601f19601f820116820180604052508101906200058d919062000b2d565b60015b62000642576200059f62000b6c565b806308c379a01415620006035750620005b762000bc7565b80620005c4575062000605565b806040517f08c379a0000000000000000000000000000000000000000000000000000000008152600401620005fa919062000cb5565b60405180910390fd5b505b6040517f08c379a0000000000000000000000000000000000000000000000000000000008152600401620006399062000d4f565b60405180910390fd5b63f23a6e6160e01b7bffffffffffffffffffffffffffffffffffffffffffffffffffffffff1916817bffffffffffffffffffffffffffffffffffffffffffffffffffffffff191614620006cc576040517f08c379a0000000000000000000000000000000000000000000000000000000008152600401620006c39062000de7565b60405180910390fd5b505b505050505050565b600080823b905060008111915050919050565b828054620006f79062000e38565b90600052602060002090601f0160209004810192826200071b576000855562000767565b82601f106200073657805160ff191683800117855562000767565b8280016001018555821562000767579182015b828111156200076657825182559160200191906001019062000749565b5b5090506200077691906200077a565b5090565b5b80821115620007955760008160009055506001016200077b565b5090565b6000819050919050565b7f4e487b7100000000000000000000000000000000000000000000000000000000600052601160045260246000fd5b6000620007df8262000799565b9150620007ec8362000799565b9250827fffffffffffffffffffffffffffffffffffffffffffffffffffffffffffffffff03821115620008245762000823620007a3565b5b828201905092915050565b600082825260208201905092915050565b7f455243313135353a206d696e7420746f20746865207a65726f2061646472657360008201527f7300000000000000000000000000000000000000000000000000000000000000602082015250565b60006200089e6021836200082f565b9150620008ab8262000840565b604082019050919050565b60006020820190508181036000830152620008d1816200088f565b9050919050565b620008e38162000799565b82525050565b6000604082019050620009006000830185620008d8565b6200090f6020830184620008d8565b9392505050565b7f4e487b7100000000000000000000000000000000000000000000000000000000600052604160045260246000fd5b7f4e487b7100000000000000000000000000000000000000000000000000000000600052603260045260246000fd5b600073ffffffffffffffffffffffffffffffffffffffff82169050919050565b6000620009a18262000974565b9050919050565b620009b38162000994565b82525050565b600081519050919050565b600082825260208201905092915050565b60005b83811015620009f5578082015181840152602081019050620009d8565b8381111562000a05576000848401525b50505050565b6000601f19601f8301169050919050565b600062000a2982620009b9565b62000a358185620009c4565b935062000a47818560208601620009d5565b62000a528162000a0b565b840191505092915050565b600060a08201905062000a746000830188620009a8565b62000a836020830187620009a8565b62000a926040830186620008d8565b62000aa16060830185620008d8565b818103608083015262000ab5818462000a1c565b90509695505050505050565b6000604051905090565b600080fd5b60007fffffffff0000000000000000000000000000000000000000000000000000000082169050919050565b62000b078162000ad0565b811462000b1357600080fd5b50565b60008151905062000b278162000afc565b92915050565b60006020828403121562000b465762000b4562000acb565b5b600062000b568482850162000b16565b91505092915050565b60008160e01c9050919050565b600060033d111562000b8e5760046000803e62000b8b60005162000b5f565b90505b90565b62000b9c8262000a0b565b810181811067ffffffffffffffff8211171562000bbe5762000bbd62000916565b5b80604052505050565b600060443d101562000bd95762000c66565b62000be362000ac1565b60043d036004823e80513d602482011167ffffffffffffffff8211171562000c0d57505062000c66565b808201805167ffffffffffffffff81111562000c2d575050505062000c66565b80602083010160043d03850181111562000c4c57505050505062000c66565b62000c5d8260200185018662000b91565b82955050505050505b90565b600081519050919050565b600062000c818262000c69565b62000c8d81856200082f565b935062000c9f818560208601620009d5565b62000caa8162000a0b565b840191505092915050565b6000602082019050818103600083015262000cd1818462000c74565b905092915050565b7f455243313135353a207472616e7366657220746f206e6f6e204552433131353560008201527f526563656976657220696d706c656d656e746572000000000000000000000000602082015250565b600062000d376034836200082f565b915062000d448262000cd9565b604082019050919050565b6000602082019050818103600083015262000d6a8162000d28565b9050919050565b7f455243313135353a204552433131353552656365697665722072656a6563746560008201527f6420746f6b656e73000000000000000000000000000000000000000000000000602082015250565b600062000dcf6028836200082f565b915062000ddc8262000d71565b604082019050919050565b6000602082019050818103600083015262000e028162000dc0565b9050919050565b7f4e487b7100000000000000000000000000000000000000000000000000000000600052602260045260246000fd5b6000600282049050600182168062000e5157607f821691505b6020821081141562000e685762000e6762000e09565b5b50919050565b6137b68062000e7e6000396000f3fe608060405234801561001057600080fd5b50600436106101415760003560e01c80639dc29fac116100b8578063e985e9c51161007c578063e985e9c514610374578063ed70554d146103a4578063f242432a146103d4578063f2fde38b146103f0578063f851a4401461040c578063fabb70531461042a57610141565b80639dc29fac146102e4578063a22cb46514610300578063abc8c7af1461031c578063d85d3d271461033a578063e8a3d4851461035657610141565b80632eb2c2d61161010a5780632eb2c2d614610210578063370c1bd21461022c5780634e1273f41461025c578063715018a61461028c5780638da5cb5b14610296578063992924a6146102b457610141565b8062fdd58e1461014657806301ffc9a7146101765780630673d7d0146101a65780630ad53bb8146101c45780630e89341c146101e0575b600080fd5b610160600480360381019061015b9190612132565b610448565b60405161016d9190612181565b60405180910390f35b610190600480360381019061018b91906121f4565b610511565b60405161019d919061223c565b60405180910390f35b6101ae6105f3565b6040516101bb9190612181565b60405180910390f35b6101de60048036038101906101d99190612257565b6105f9565b005b6101fa60048036038101906101f59190612284565b6106d8565b604051610207919061234a565b60405180910390f35b61022a60048036038101906102259190612569565b61076c565b005b61024660048036038101906102419190612257565b61080d565b6040516102539190612181565b60405180910390f35b610276600480360381019061027191906126fb565b610825565b6040516102839190612831565b60405180910390f35b61029461093e565b005b61029e6109c6565b6040516102ab9190612862565b60405180910390f35b6102ce60048036038101906102c99190612284565b6109f0565b6040516102db9190612862565b60405180910390f35b6102fe60048036038101906102f99190612132565b610a23565b005b61031a600480360381019061031591906128a9565b610a6b565b005b610324610a81565b6040516103319190612862565b60405180910390f35b610354600480360381019061034f919061298a565b610aa7565b005b61035e610bf3565b60405161036b919061234a565b60405180910390f35b61038e600480360381019061038991906129d3565b610c81565b60405161039b919061223c565b60405180910390f35b6103be60048036038101906103b99190612284565b610d15565b6040516103cb919061234a565b60405180910390f35b6103ee60048036038101906103e99190612a13565b610db5565b005b61040a60048036038101906104059190612257565b610e56565b005b610414610f4e565b6040516104219190612862565b60405180910390f35b610432610f74565b60405161043f9190612862565b60405180910390f35b60008073ffffffffffffffffffffffffffffffffffffffff168373ffffffffffffffffffffffffffffffffffffffff1614156104b9576040517f08c379a00000000000000000000000000000000000000000000000000000000081526004016104b090612b1c565b60405180910390fd5b60008083815260200190815260200160002060008473ffffffffffffffffffffffffffffffffffffffff1673ffffffffffffffffffffffffffffffffffffffff16815260200190815260200160002054905092915050565b60007fd9b67a26000000000000000000000000000000000000000000000000000000007bffffffffffffffffffffffffffffffffffffffffffffffffffffffff1916827bffffffffffffffffffffffffffffffffffffffffffffffffffffffff191614806105dc57507f0e89341c000000000000000000000000000000000000000000000000000000007bffffffffffffffffffffffffffffffffffffffffffffffffffffffff1916827bffffffffffffffffffffffffffffffffffffffffffffffffffffffff1916145b806105ec57506105eb82610fad565b5b9050919050565b60045481565b600560009054906101000a900473ffffffffffffffffffffffffffffffffffffffff1673ffffffffffffffffffffffffffffffffffffffff163373ffffffffffffffffffffffffffffffffffffffff1614610689576040517f08c379a000000000000000000000000000000000000000000000000000000000815260040161068090612bae565b60405180910390fd5b610694816001610a6b565b80600a60006101000a81548173ffffffffffffffffffffffffffffffffffffffff021916908373ffffffffffffffffffffffffffffffffffffffff16021790555050565b6060600280546106e790612bfd565b80601f016020809104026020016040519081016040528092919081815260200182805461071390612bfd565b80156107605780601f1061073557610100808354040283529160200191610760565b820191906000526020600020905b81548152906001019060200180831161074357829003601f168201915b50505050509050919050565b610774611017565b73ffffffffffffffffffffffffffffffffffffffff168573ffffffffffffffffffffffffffffffffffffffff1614806107ba57506107b9856107b4611017565b610c81565b5b6107f9576040517f08c379a00000000000000000000000000000000000000000000000000000000081526004016107f090612ca1565b60405180910390fd5b610806858585858561101f565b5050505050565b60076020528060005260406000206000915090505481565b6060815183511461086b576040517f08c379a000000000000000000000000000000000000000000000000000000000815260040161086290612d33565b60405180910390fd5b6000835167ffffffffffffffff81111561088857610887612371565b5b6040519080825280602002602001820160405280156108b65781602001602082028036833780820191505090505b50905060005b8451811015610933576109038582815181106108db576108da612d53565b5b60200260200101518583815181106108f6576108f5612d53565b5b6020026020010151610448565b82828151811061091657610915612d53565b5b6020026020010181815250508061092c90612db1565b90506108bc565b508091505092915050565b610946611017565b73ffffffffffffffffffffffffffffffffffffffff166109646109c6565b73ffffffffffffffffffffffffffffffffffffffff16146109ba576040517f08c379a00000000000000000000000000000000000000000000000000000000081526004016109b190612e46565b60405180910390fd5b6109c46000611333565b565b6000600360009054906101000a900473ffffffffffffffffffffffffffffffffffffffff16905090565b60086020528060005260406000206000915054906101000a900473ffffffffffffffffffffffffffffffffffffffff1681565b8173ffffffffffffffffffffffffffffffffffffffff163373ffffffffffffffffffffffffffffffffffffffff1614610a5b57600080fd5b610a67828260016113f9565b5050565b610a7d610a76611017565b8383611616565b5050565b600a60009054906101000a900473ffffffffffffffffffffffffffffffffffffffff1681565b6000339050610aca81600454600160405180602001604052806000815250611783565b610ad382611919565b816006600060045481526020019081526020016000209080519060200190610afc929190611fe7565b503360086000600454815260200190815260200160002060006101000a81548173ffffffffffffffffffffffffffffffffffffffff021916908373ffffffffffffffffffffffffffffffffffffffff1602179055506001600760003373ffffffffffffffffffffffffffffffffffffffff1673ffffffffffffffffffffffffffffffffffffffff1681526020019081526020016000206000828254610ba19190612e66565b92505081905550600160046000828254610bbb9190612e66565b92505081905550610bef600a60009054906101000a900473ffffffffffffffffffffffffffffffffffffffff166001610a6b565b5050565b600b8054610c0090612bfd565b80601f0160208091040260200160405190810160405280929190818152602001828054610c2c90612bfd565b8015610c795780601f10610c4e57610100808354040283529160200191610c79565b820191906000526020600020905b815481529060010190602001808311610c5c57829003601f168201915b505050505081565b6000600160008473ffffffffffffffffffffffffffffffffffffffff1673ffffffffffffffffffffffffffffffffffffffff16815260200190815260200160002060008373ffffffffffffffffffffffffffffffffffffffff1673ffffffffffffffffffffffffffffffffffffffff16815260200190815260200160002060009054906101000a900460ff16905092915050565b60066020528060005260406000206000915090508054610d3490612bfd565b80601f0160208091040260200160405190810160405280929190818152602001828054610d6090612bfd565b8015610dad5780601f10610d8257610100808354040283529160200191610dad565b820191906000526020600020905b815481529060010190602001808311610d9057829003601f168201915b505050505081565b610dbd611017565b73ffffffffffffffffffffffffffffffffffffffff168573ffffffffffffffffffffffffffffffffffffffff161480610e035750610e0285610dfd611017565b610c81565b5b610e42576040517f08c379a0000000000000000000000000000000000000000000000000000000008152600401610e3990612f2e565b60405180910390fd5b610e4f8585858585611933565b5050505050565b610e5e611017565b73ffffffffffffffffffffffffffffffffffffffff16610e7c6109c6565b73ffffffffffffffffffffffffffffffffffffffff1614610ed2576040517f08c379a0000000000000000000000000000000000000000000000000000000008152600401610ec990612e46565b60405180910390fd5b600073ffffffffffffffffffffffffffffffffffffffff168173ffffffffffffffffffffffffffffffffffffffff161415610f42576040517f08c379a0000000000000000000000000000000000000000000000000000000008152600401610f3990612fc0565b60405180910390fd5b610f4b81611333565b50565b600560009054906101000a900473ffffffffffffffffffffffffffffffffffffffff1681565b600960009054906101000a900473ffffffffffffffffffffffffffffffffffffffff1681565b600080823b905060008111915050919050565b60007f01ffc9a7000000000000000000000000000000000000000000000000000000007bffffffffffffffffffffffffffffffffffffffffffffffffffffffff1916827bffffffffffffffffffffffffffffffffffffffffffffffffffffffff1916149050919050565b600033905090565b8151835114611063576040517f08c379a000000000000000000000000000000000000000000000000000000000815260040161105a90613052565b60405180910390fd5b600073ffffffffffffffffffffffffffffffffffffffff168473ffffffffffffffffffffffffffffffffffffffff1614156110d3576040517f08c379a00000000000000000000000000000000000000000000000000000000081526004016110ca906130e4565b60405180910390fd5b60006110dd611017565b90506110ed818787878787611bb5565b60005b845181101561129e57600085828151811061110e5761110d612d53565b5b60200260200101519050600085838151811061112d5761112c612d53565b5b60200260200101519050600080600084815260200190815260200160002060008b73ffffffffffffffffffffffffffffffffffffffff1673ffffffffffffffffffffffffffffffffffffffff168152602001908152602001600020549050818110156111ce576040517f08c379a00000000000000000000000000000000000000000000000000000000081526004016111c590613176565b60405180910390fd5b81810360008085815260200190815260200160002060008c73ffffffffffffffffffffffffffffffffffffffff1673ffffffffffffffffffffffffffffffffffffffff168152602001908152602001600020819055508160008085815260200190815260200160002060008b73ffffffffffffffffffffffffffffffffffffffff1673ffffffffffffffffffffffffffffffffffffffff16815260200190815260200160002060008282546112839190612e66565b925050819055505050508061129790612db1565b90506110f0565b508473ffffffffffffffffffffffffffffffffffffffff168673ffffffffffffffffffffffffffffffffffffffff168273ffffffffffffffffffffffffffffffffffffffff167f4a39dc06d4c0dbc64b70af90fd698a233a518aa5d07e595d983b8c0526c8f7fb8787604051611315929190613196565b60405180910390a461132b818787878787611bbd565b505050505050565b6000600360009054906101000a900473ffffffffffffffffffffffffffffffffffffffff16905081600360006101000a81548173ffffffffffffffffffffffffffffffffffffffff021916908373ffffffffffffffffffffffffffffffffffffffff1602179055508173ffffffffffffffffffffffffffffffffffffffff168173ffffffffffffffffffffffffffffffffffffffff167f8be0079c531659141344cd1fd0a4f28419497f9722a3daafe3b4186f6b6457e060405160405180910390a35050565b600073ffffffffffffffffffffffffffffffffffffffff168373ffffffffffffffffffffffffffffffffffffffff161415611469576040517f08c379a00000000000000000000000000000000000000000000000000000000081526004016114609061323f565b60405180910390fd5b6000611473611017565b90506114a38185600061148587611d95565b61148e87611d95565b60405180602001604052806000815250611bb5565b600080600085815260200190815260200160002060008673ffffffffffffffffffffffffffffffffffffffff1673ffffffffffffffffffffffffffffffffffffffff1681526020019081526020016000205490508281101561153a576040517f08c379a0000000000000000000000000000000000000000000000000000000008152600401611531906132d1565b60405180910390fd5b82810360008086815260200190815260200160002060008773ffffffffffffffffffffffffffffffffffffffff1673ffffffffffffffffffffffffffffffffffffffff16815260200190815260200160002081905550600073ffffffffffffffffffffffffffffffffffffffff168573ffffffffffffffffffffffffffffffffffffffff168373ffffffffffffffffffffffffffffffffffffffff167fc3d58168c5ae7397731d063d5bbf3d657854427343f4c083240f7aacaa2d0f6287876040516116079291906132f1565b60405180910390a45050505050565b8173ffffffffffffffffffffffffffffffffffffffff168373ffffffffffffffffffffffffffffffffffffffff161415611685576040517f08c379a000000000000000000000000000000000000000000000000000000000815260040161167c9061338c565b60405180910390fd5b80600160008573ffffffffffffffffffffffffffffffffffffffff1673ffffffffffffffffffffffffffffffffffffffff16815260200190815260200160002060008473ffffffffffffffffffffffffffffffffffffffff1673ffffffffffffffffffffffffffffffffffffffff16815260200190815260200160002060006101000a81548160ff0219169083151502179055508173ffffffffffffffffffffffffffffffffffffffff168373ffffffffffffffffffffffffffffffffffffffff167f17307eab39ab6107e8899845ad3d59bd9653f200f220920489ca2b5937696c3183604051611776919061223c565b60405180910390a3505050565b600073ffffffffffffffffffffffffffffffffffffffff168473ffffffffffffffffffffffffffffffffffffffff1614156117f3576040517f08c379a00000000000000000000000000000000000000000000000000000000081526004016117ea9061341e565b60405180910390fd5b60006117fd611017565b905061181e8160008761180f88611d95565b61181888611d95565b87611bb5565b8260008086815260200190815260200160002060008773ffffffffffffffffffffffffffffffffffffffff1673ffffffffffffffffffffffffffffffffffffffff168152602001908152602001600020600082825461187d9190612e66565b925050819055508473ffffffffffffffffffffffffffffffffffffffff16600073ffffffffffffffffffffffffffffffffffffffff168273ffffffffffffffffffffffffffffffffffffffff167fc3d58168c5ae7397731d063d5bbf3d657854427343f4c083240f7aacaa2d0f6287876040516118fb9291906132f1565b60405180910390a461191281600087878787611e0f565b5050505050565b806002908051906020019061192f929190611fe7565b5050565b600073ffffffffffffffffffffffffffffffffffffffff168473ffffffffffffffffffffffffffffffffffffffff1614156119a3576040517f08c379a000000000000000000000000000000000000000000000000000000000815260040161199a906130e4565b60405180910390fd5b60006119ad611017565b90506119cd8187876119be88611d95565b6119c788611d95565b87611bb5565b600080600086815260200190815260200160002060008873ffffffffffffffffffffffffffffffffffffffff1673ffffffffffffffffffffffffffffffffffffffff16815260200190815260200160002054905083811015611a64576040517f08c379a0000000000000000000000000000000000000000000000000000000008152600401611a5b90613176565b60405180910390fd5b83810360008087815260200190815260200160002060008973ffffffffffffffffffffffffffffffffffffffff1673ffffffffffffffffffffffffffffffffffffffff168152602001908152602001600020819055508360008087815260200190815260200160002060008873ffffffffffffffffffffffffffffffffffffffff1673ffffffffffffffffffffffffffffffffffffffff1681526020019081526020016000206000828254611b199190612e66565b925050819055508573ffffffffffffffffffffffffffffffffffffffff168773ffffffffffffffffffffffffffffffffffffffff168373ffffffffffffffffffffffffffffffffffffffff167fc3d58168c5ae7397731d063d5bbf3d657854427343f4c083240f7aacaa2d0f628888604051611b969291906132f1565b60405180910390a4611bac828888888888611e0f565b50505050505050565b505050505050565b611bdc8473ffffffffffffffffffffffffffffffffffffffff16610f9a565b15611d8d578373ffffffffffffffffffffffffffffffffffffffff1663bc197c8187878686866040518663ffffffff1660e01b8152600401611c22959493929190613493565b6020604051808303816000875af1925050508015611c5e57506040513d601f19601f82011682018060405250810190611c5b9190613510565b60015b611d0457611c6a61354a565b806308c379a01415611cc75750611c7f61356c565b80611c8a5750611cc9565b806040517f08c379a0000000000000000000000000000000000000000000000000000000008152600401611cbe919061234a565b60405180910390fd5b505b6040517f08c379a0000000000000000000000000000000000000000000000000000000008152600401611cfb90613674565b60405180910390fd5b63bc197c8160e01b7bffffffffffffffffffffffffffffffffffffffffffffffffffffffff1916817bffffffffffffffffffffffffffffffffffffffffffffffffffffffff191614611d8b576040517f08c379a0000000000000000000000000000000000000000000000000000000008152600401611d8290613706565b60405180910390fd5b505b505050505050565b60606000600167ffffffffffffffff811115611db457611db3612371565b5b604051908082528060200260200182016040528015611de25781602001602082028036833780820191505090505b5090508281600081518110611dfa57611df9612d53565b5b60200260200101818152505080915050919050565b611e2e8473ffffffffffffffffffffffffffffffffffffffff16610f9a565b15611fdf578373ffffffffffffffffffffffffffffffffffffffff1663f23a6e6187878686866040518663ffffffff1660e01b8152600401611e74959493929190613726565b6020604051808303816000875af1925050508015611eb057506040513d601f19601f82011682018060405250810190611ead9190613510565b60015b611f5657611ebc61354a565b806308c379a01415611f195750611ed161356c565b80611edc5750611f1b565b806040517f08c379a0000000000000000000000000000000000000000000000000000000008152600401611f10919061234a565b60405180910390fd5b505b6040517f08c379a0000000000000000000000000000000000000000000000000000000008152600401611f4d90613674565b60405180910390fd5b63f23a6e6160e01b7bffffffffffffffffffffffffffffffffffffffffffffffffffffffff1916817bffffffffffffffffffffffffffffffffffffffffffffffffffffffff191614611fdd576040517f08c379a0000000000000000000000000000000000000000000000000000000008152600401611fd490613706565b60405180910390fd5b505b505050505050565b828054611ff390612bfd565b90600052602060002090601f016020900481019282612015576000855561205c565b82601f1061202e57805160ff191683800117855561205c565b8280016001018555821561205c579182015b8281111561205b578251825591602001919060010190612040565b5b509050612069919061206d565b5090565b5b8082111561208657600081600090555060010161206e565b5090565b6000604051905090565b600080fd5b600080fd5b600073ffffffffffffffffffffffffffffffffffffffff82169050919050565b60006120c98261209e565b9050919050565b6120d9816120be565b81146120e457600080fd5b50565b6000813590506120f6816120d0565b92915050565b6000819050919050565b61210f816120fc565b811461211a57600080fd5b50565b60008135905061212c81612106565b92915050565b6000806040838503121561214957612148612094565b5b6000612157858286016120e7565b92505060206121688582860161211d565b9150509250929050565b61217b816120fc565b82525050565b60006020820190506121966000830184612172565b92915050565b60007fffffffff0000000000000000000000000000000000000000000000000000000082169050919050565b6121d18161219c565b81146121dc57600080fd5b50565b6000813590506121ee816121c8565b92915050565b60006020828403121561220a57612209612094565b5b6000612218848285016121df565b91505092915050565b60008115159050919050565b61223681612221565b82525050565b6000602082019050612251600083018461222d565b92915050565b60006020828403121561226d5761226c612094565b5b600061227b848285016120e7565b91505092915050565b60006020828403121561229a57612299612094565b5b60006122a88482850161211d565b91505092915050565b600081519050919050565b600082825260208201905092915050565b60005b838110156122eb5780820151818401526020810190506122d0565b838111156122fa576000848401525b50505050565b6000601f19601f8301169050919050565b600061231c826122b1565b61232681856122bc565b93506123368185602086016122cd565b61233f81612300565b840191505092915050565b600060208201905081810360008301526123648184612311565b905092915050565b600080fd5b7f4e487b7100000000000000000000000000000000000000000000000000000000600052604160045260246000fd5b6123a982612300565b810181811067ffffffffffffffff821117156123c8576123c7612371565b5b80604052505050565b60006123db61208a565b90506123e782826123a0565b919050565b600067ffffffffffffffff82111561240757612406612371565b5b602082029050602081019050919050565b600080fd5b600061243061242b846123ec565b6123d1565b9050808382526020820190506020840283018581111561245357612452612418565b5b835b8181101561247c5780612468888261211d565b845260208401935050602081019050612455565b5050509392505050565b600082601f83011261249b5761249a61236c565b5b81356124ab84826020860161241d565b91505092915050565b600080fd5b600067ffffffffffffffff8211156124d4576124d3612371565b5b6124dd82612300565b9050602081019050919050565b82818337600083830152505050565b600061250c612507846124b9565b6123d1565b905082815260208101848484011115612528576125276124b4565b5b6125338482856124ea565b509392505050565b600082601f8301126125505761254f61236c565b5b81356125608482602086016124f9565b91505092915050565b600080600080600060a0868803121561258557612584612094565b5b6000612593888289016120e7565b95505060206125a4888289016120e7565b945050604086013567ffffffffffffffff8111156125c5576125c4612099565b5b6125d188828901612486565b935050606086013567ffffffffffffffff8111156125f2576125f1612099565b5b6125fe88828901612486565b925050608086013567ffffffffffffffff81111561261f5761261e612099565b5b61262b8882890161253b565b9150509295509295909350565b600067ffffffffffffffff82111561265357612652612371565b5b602082029050602081019050919050565b600061267761267284612638565b6123d1565b9050808382526020820190506020840283018581111561269a57612699612418565b5b835b818110156126c357806126af88826120e7565b84526020840193505060208101905061269c565b5050509392505050565b600082601f8301126126e2576126e161236c565b5b81356126f2848260208601612664565b91505092915050565b6000806040838503121561271257612711612094565b5b600083013567ffffffffffffffff8111156127305761272f612099565b5b61273c858286016126cd565b925050602083013567ffffffffffffffff81111561275d5761275c612099565b5b61276985828601612486565b9150509250929050565b600081519050919050565b600082825260208201905092915050565b6000819050602082019050919050565b6127a8816120fc565b82525050565b60006127ba838361279f565b60208301905092915050565b6000602082019050919050565b60006127de82612773565b6127e8818561277e565b93506127f38361278f565b8060005b8381101561282457815161280b88826127ae565b9750612816836127c6565b9250506001810190506127f7565b5085935050505092915050565b6000602082019050818103600083015261284b81846127d3565b905092915050565b61285c816120be565b82525050565b60006020820190506128776000830184612853565b92915050565b61288681612221565b811461289157600080fd5b50565b6000813590506128a38161287d565b92915050565b600080604083850312156128c0576128bf612094565b5b60006128ce858286016120e7565b92505060206128df85828601612894565b9150509250929050565b600067ffffffffffffffff82111561290457612903612371565b5b61290d82612300565b9050602081019050919050565b600061292d612928846128e9565b6123d1565b905082815260208101848484011115612949576129486124b4565b5b6129548482856124ea565b509392505050565b600082601f8301126129715761297061236c565b5b813561298184826020860161291a565b91505092915050565b6000602082840312156129a05761299f612094565b5b600082013567ffffffffffffffff8111156129be576129bd612099565b5b6129ca8482850161295c565b91505092915050565b600080604083850312156129ea576129e9612094565b5b60006129f8858286016120e7565b9250506020612a09858286016120e7565b9150509250929050565b600080600080600060a08688031215612a2f57612a2e612094565b5b6000612a3d888289016120e7565b9550506020612a4e888289016120e7565b9450506040612a5f8882890161211d565b9350506060612a708882890161211d565b925050608086013567ffffffffffffffff811115612a9157612a90612099565b5b612a9d8882890161253b565b9150509295509295909350565b7f455243313135353a2062616c616e636520717565727920666f7220746865207a60008201527f65726f2061646472657373000000000000000000000000000000000000000000602082015250565b6000612b06602b836122bc565b9150612b1182612aaa565b604082019050919050565b60006020820190508181036000830152612b3581612af9565b9050919050565b7f46756e6374696f6e206f6e6c7920617661696c61626c6520666f72207468652060008201527f61646d696e2e0000000000000000000000000000000000000000000000000000602082015250565b6000612b986026836122bc565b9150612ba382612b3c565b604082019050919050565b60006020820190508181036000830152612bc781612b8b565b9050919050565b7f4e487b7100000000000000000000000000000000000000000000000000000000600052602260045260246000fd5b60006002820490506001821680612c1557607f821691505b60208210811415612c2957612c28612bce565b5b50919050565b7f455243313135353a207472616e736665722063616c6c6572206973206e6f742060008201527f6f776e6572206e6f7220617070726f7665640000000000000000000000000000602082015250565b6000612c8b6032836122bc565b9150612c9682612c2f565b604082019050919050565b60006020820190508181036000830152612cba81612c7e565b9050919050565b7f455243313135353a206163636f756e747320616e6420696473206c656e67746860008201527f206d69736d617463680000000000000000000000000000000000000000000000602082015250565b6000612d1d6029836122bc565b9150612d2882612cc1565b604082019050919050565b60006020820190508181036000830152612d4c81612d10565b9050919050565b7f4e487b7100000000000000000000000000000000000000000000000000000000600052603260045260246000fd5b7f4e487b7100000000000000000000000000000000000000000000000000000000600052601160045260246000fd5b6000612dbc826120fc565b91507fffffffffffffffffffffffffffffffffffffffffffffffffffffffffffffffff821415612def57612dee612d82565b5b600182019050919050565b7f4f776e61626c653a2063616c6c6572206973206e6f7420746865206f776e6572600082015250565b6000612e306020836122bc565b9150612e3b82612dfa565b602082019050919050565b60006020820190508181036000830152612e5f81612e23565b9050919050565b6000612e71826120fc565b9150612e7c836120fc565b9250827fffffffffffffffffffffffffffffffffffffffffffffffffffffffffffffffff03821115612eb157612eb0612d82565b5b828201905092915050565b7f455243313135353a2063616c6c6572206973206e6f74206f776e6572206e6f7260008201527f20617070726f7665640000000000000000000000000000000000000000000000602082015250565b6000612f186029836122bc565b9150612f2382612ebc565b604082019050919050565b60006020820190508181036000830152612f4781612f0b565b9050919050565b7f4f776e61626c653a206e6577206f776e657220697320746865207a65726f206160008201527f6464726573730000000000000000000000000000000000000000000000000000602082015250565b6000612faa6026836122bc565b9150612fb582612f4e565b604082019050919050565b60006020820190508181036000830152612fd981612f9d565b9050919050565b7f455243313135353a2069647320616e6420616d6f756e7473206c656e6774682060008201527f6d69736d61746368000000000000000000000000000000000000000000000000602082015250565b600061303c6028836122bc565b915061304782612fe0565b604082019050919050565b6000602082019050818103600083015261306b8161302f565b9050919050565b7f455243313135353a207472616e7366657220746f20746865207a65726f20616460008201527f6472657373000000000000000000000000000000000000000000000000000000602082015250565b60006130ce6025836122bc565b91506130d982613072565b604082019050919050565b600060208201905081810360008301526130fd816130c1565b9050919050565b7f455243313135353a20696e73756666696369656e742062616c616e636520666f60008201527f72207472616e7366657200000000000000000000000000000000000000000000602082015250565b6000613160602a836122bc565b915061316b82613104565b604082019050919050565b6000602082019050818103600083015261318f81613153565b9050919050565b600060408201905081810360008301526131b081856127d3565b905081810360208301526131c481846127d3565b90509392505050565b7f455243313135353a206275726e2066726f6d20746865207a65726f206164647260008201527f6573730000000000000000000000000000000000000000000000000000000000602082015250565b60006132296023836122bc565b9150613234826131cd565b604082019050919050565b600060208201905081810360008301526132588161321c565b9050919050565b7f455243313135353a206275726e20616d6f756e7420657863656564732062616c60008201527f616e636500000000000000000000000000000000000000000000000000000000602082015250565b60006132bb6024836122bc565b91506132c68261325f565b604082019050919050565b600060208201905081810360008301526132ea816132ae565b9050919050565b60006040820190506133066000830185612172565b6133136020830184612172565b9392505050565b7f455243313135353a2073657474696e6720617070726f76616c2073746174757360008201527f20666f722073656c660000000000000000000000000000000000000000000000602082015250565b60006133766029836122bc565b91506133818261331a565b604082019050919050565b600060208201905081810360008301526133a581613369565b9050919050565b7f455243313135353a206d696e7420746f20746865207a65726f2061646472657360008201527f7300000000000000000000000000000000000000000000000000000000000000602082015250565b60006134086021836122bc565b9150613413826133ac565b604082019050919050565b60006020820190508181036000830152613437816133fb565b9050919050565b600081519050919050565b600082825260208201905092915050565b60006134658261343e565b61346f8185613449565b935061347f8185602086016122cd565b61348881612300565b840191505092915050565b600060a0820190506134a86000830188612853565b6134b56020830187612853565b81810360408301526134c781866127d3565b905081810360608301526134db81856127d3565b905081810360808301526134ef818461345a565b90509695505050505050565b60008151905061350a816121c8565b92915050565b60006020828403121561352657613525612094565b5b6000613534848285016134fb565b91505092915050565b60008160e01c9050919050565b600060033d11156135695760046000803e61356660005161353d565b90505b90565b600060443d101561357c576135ff565b61358461208a565b60043d036004823e80513d602482011167ffffffffffffffff821117156135ac5750506135ff565b808201805167ffffffffffffffff8111156135ca57505050506135ff565b80602083010160043d0385018111156135e75750505050506135ff565b6135f6826020018501866123a0565b82955050505050505b90565b7f455243313135353a207472616e7366657220746f206e6f6e204552433131353560008201527f526563656976657220696d706c656d656e746572000000000000000000000000602082015250565b600061365e6034836122bc565b915061366982613602565b604082019050919050565b6000602082019050818103600083015261368d81613651565b9050919050565b7f455243313135353a204552433131353552656365697665722072656a6563746560008201527f6420746f6b656e73000000000000000000000000000000000000000000000000602082015250565b60006136f06028836122bc565b91506136fb82613694565b604082019050919050565b6000602082019050818103600083015261371f816136e3565b9050919050565b600060a08201905061373b6000830188612853565b6137486020830187612853565b6137556040830186612172565b6137626060830185612172565b8181036080830152613774818461345a565b9050969550505050505056fea26469706673582212204f1e112c5c33472f2d76cc7c95977d5594ebf56cc147dcd61099f03d3f18f6c564736f6c634300080a003368747470733a2f2f676174657761792e70696e6174612e636c6f75642f697066732f516d614a476a47746d5a706262584a53686d6568515066415677527070565a697a6e6261535739546b684659425a68747470733a2f2f676174657761792e70696e6174612e636c6f75642f697066732f516d614a7a524d4778573159614744614e7a6a48746e744e61436e6b6e697362426f31704c51336f59484d714373","opcodes":"PUSH1 0x80 PUSH1 0x40 MSTORE PUSH1 0x0 PUSH1 0x4 SSTORE ADDRESS PUSH1 0x9 PUSH1 0x0 PUSH2 0x100 EXP DUP2 SLOAD DUP2 PUSH20 0xFFFFFFFFFFFFFFFFFFFFFFFFFFFFFFFFFFFFFFFF MUL NOT AND SWAP1 DUP4 PUSH20 0xFFFFFFFFFFFFFFFFFFFFFFFFFFFFFFFFFFFFFFFF AND MUL OR SWAP1 SSTORE POP PUSH1 0x40 MLOAD DUP1 PUSH1 0x80 ADD PUSH1 0x40 MSTORE DUP1 PUSH1 0x50 DUP2 MSTORE PUSH1 0x20 ADD PUSH3 0x4684 PUSH1 0x50 SWAP2 CODECOPY PUSH1 0xB SWAP1 DUP1 MLOAD SWAP1 PUSH1 0x20 ADD SWAP1 PUSH3 0x7B SWAP3 SWAP2 SWAP1 PUSH3 0x6E9 JUMP JUMPDEST POP CALLVALUE DUP1 ISZERO PUSH3 0x89 JUMPI PUSH1 0x0 DUP1 REVERT JUMPDEST POP PUSH1 0x40 MLOAD DUP1 PUSH1 0x80 ADD PUSH1 0x40 MSTORE DUP1 PUSH1 0x50 DUP2 MSTORE PUSH1 0x20 ADD PUSH3 0x4634 PUSH1 0x50 SWAP2 CODECOPY PUSH3 0xB5 DUP2 PUSH3 0x1A4 PUSH1 0x20 SHL PUSH1 0x20 SHR JUMP JUMPDEST POP PUSH3 0xD6 PUSH3 0xCA PUSH3 0x1C0 PUSH1 0x20 SHL PUSH1 0x20 SHR JUMP JUMPDEST PUSH3 0x1C8 PUSH1 0x20 SHL PUSH1 0x20 SHR JUMP JUMPDEST CALLER PUSH1 0x5 PUSH1 0x0 PUSH2 0x100 EXP DUP2 SLOAD DUP2 PUSH20 0xFFFFFFFFFFFFFFFFFFFFFFFFFFFFFFFFFFFFFFFF MUL NOT AND SWAP1 DUP4 PUSH20 0xFFFFFFFFFFFFFFFFFFFFFFFFFFFFFFFFFFFFFFFF AND MUL OR SWAP1 SSTORE POP PUSH3 0x13D CALLER PUSH1 0x4 SLOAD PUSH1 0x1 PUSH1 0x40 MLOAD DUP1 PUSH1 0x20 ADD PUSH1 0x40 MSTORE DUP1 PUSH1 0x0 DUP2 MSTORE POP PUSH3 0x28E PUSH1 0x20 SHL PUSH1 0x20 SHR JUMP JUMPDEST PUSH1 0x40 MLOAD DUP1 PUSH1 0x80 ADD PUSH1 0x40 MSTORE DUP1 PUSH1 0x50 DUP2 MSTORE PUSH1 0x20 ADD PUSH3 0x4634 PUSH1 0x50 SWAP2 CODECOPY PUSH1 0x6 PUSH1 0x0 PUSH1 0x4 SLOAD DUP2 MSTORE PUSH1 0x20 ADD SWAP1 DUP2 MSTORE PUSH1 0x20 ADD PUSH1 0x0 KECCAK256 SWAP1 DUP1 MLOAD SWAP1 PUSH1 0x20 ADD SWAP1 PUSH3 0x181 SWAP3 SWAP2 SWAP1 PUSH3 0x6E9 JUMP JUMPDEST POP PUSH1 0x1 PUSH1 0x4 PUSH1 0x0 DUP3 DUP3 SLOAD PUSH3 0x197 SWAP2 SWAP1 PUSH3 0x7D2 JUMP JUMPDEST SWAP3 POP POP DUP2 SWAP1 SSTORE POP PUSH3 0xE6E JUMP JUMPDEST DUP1 PUSH1 0x2 SWAP1 DUP1 MLOAD SWAP1 PUSH1 0x20 ADD SWAP1 PUSH3 0x1BC SWAP3 SWAP2 SWAP1 PUSH3 0x6E9 JUMP JUMPDEST POP POP JUMP JUMPDEST PUSH1 0x0 CALLER SWAP1 POP SWAP1 JUMP JUMPDEST PUSH1 0x0 PUSH1 0x3 PUSH1 0x0 SWAP1 SLOAD SWAP1 PUSH2 0x100 EXP SWAP1 DIV PUSH20 0xFFFFFFFFFFFFFFFFFFFFFFFFFFFFFFFFFFFFFFFF AND SWAP1 POP DUP2 PUSH1 0x3 PUSH1 0x0 PUSH2 0x100 EXP DUP2 SLOAD DUP2 PUSH20 0xFFFFFFFFFFFFFFFFFFFFFFFFFFFFFFFFFFFFFFFF MUL NOT AND SWAP1 DUP4 PUSH20 0xFFFFFFFFFFFFFFFFFFFFFFFFFFFFFFFFFFFFFFFF AND MUL OR SWAP1 SSTORE POP DUP2 PUSH20 0xFFFFFFFFFFFFFFFFFFFFFFFFFFFFFFFFFFFFFFFF AND DUP2 PUSH20 0xFFFFFFFFFFFFFFFFFFFFFFFFFFFFFFFFFFFFFFFF AND PUSH32 0x8BE0079C531659141344CD1FD0A4F28419497F9722A3DAAFE3B4186F6B6457E0 PUSH1 0x40 MLOAD PUSH1 0x40 MLOAD DUP1 SWAP2 SUB SWAP1 LOG3 POP POP JUMP JUMPDEST PUSH1 0x0 PUSH20 0xFFFFFFFFFFFFFFFFFFFFFFFFFFFFFFFFFFFFFFFF AND DUP5 PUSH20 0xFFFFFFFFFFFFFFFFFFFFFFFFFFFFFFFFFFFFFFFF AND EQ ISZERO PUSH3 0x301 JUMPI PUSH1 0x40 MLOAD PUSH32 0x8C379A000000000000000000000000000000000000000000000000000000000 DUP2 MSTORE PUSH1 0x4 ADD PUSH3 0x2F8 SWAP1 PUSH3 0x8B6 JUMP JUMPDEST PUSH1 0x40 MLOAD DUP1 SWAP2 SUB SWAP1 REVERT JUMPDEST PUSH1 0x0 PUSH3 0x313 PUSH3 0x1C0 PUSH1 0x20 SHL PUSH1 0x20 SHR JUMP JUMPDEST SWAP1 POP PUSH3 0x34C DUP2 PUSH1 0x0 DUP8 PUSH3 0x32E DUP9 PUSH3 0x453 PUSH1 0x20 SHL PUSH1 0x20 SHR JUMP JUMPDEST PUSH3 0x33F DUP9 PUSH3 0x453 PUSH1 0x20 SHL PUSH1 0x20 SHR JUMP JUMPDEST DUP8 PUSH3 0x4D4 PUSH1 0x20 SHL PUSH1 0x20 SHR JUMP JUMPDEST DUP3 PUSH1 0x0 DUP1 DUP7 DUP2 MSTORE PUSH1 0x20 ADD SWAP1 DUP2 MSTORE PUSH1 0x20 ADD PUSH1 0x0 KECCAK256 PUSH1 0x0 DUP8 PUSH20 0xFFFFFFFFFFFFFFFFFFFFFFFFFFFFFFFFFFFFFFFF AND PUSH20 0xFFFFFFFFFFFFFFFFFFFFFFFFFFFFFFFFFFFFFFFF AND DUP2 MSTORE PUSH1 0x20 ADD SWAP1 DUP2 MSTORE PUSH1 0x20 ADD PUSH1 0x0 KECCAK256 PUSH1 0x0 DUP3 DUP3 SLOAD PUSH3 0x3AD SWAP2 SWAP1 PUSH3 0x7D2 JUMP JUMPDEST SWAP3 POP POP DUP2 SWAP1 SSTORE POP DUP5 PUSH20 0xFFFFFFFFFFFFFFFFFFFFFFFFFFFFFFFFFFFFFFFF AND PUSH1 0x0 PUSH20 0xFFFFFFFFFFFFFFFFFFFFFFFFFFFFFFFFFFFFFFFF AND DUP3 PUSH20 0xFFFFFFFFFFFFFFFFFFFFFFFFFFFFFFFFFFFFFFFF AND PUSH32 0xC3D58168C5AE7397731D063D5BBF3D657854427343F4C083240F7AACAA2D0F62 DUP8 DUP8 PUSH1 0x40 MLOAD PUSH3 0x42D SWAP3 SWAP2 SWAP1 PUSH3 0x8E9 JUMP JUMPDEST PUSH1 0x40 MLOAD DUP1 SWAP2 SUB SWAP1 LOG4 PUSH3 0x44C DUP2 PUSH1 0x0 DUP8 DUP8 DUP8 DUP8 PUSH3 0x4DC PUSH1 0x20 SHL PUSH1 0x20 SHR JUMP JUMPDEST POP POP POP POP POP JUMP JUMPDEST PUSH1 0x60 PUSH1 0x0 PUSH1 0x1 PUSH8 0xFFFFFFFFFFFFFFFF DUP2 GT ISZERO PUSH3 0x475 JUMPI PUSH3 0x474 PUSH3 0x916 JUMP JUMPDEST JUMPDEST PUSH1 0x40 MLOAD SWAP1 DUP1 DUP3 MSTORE DUP1 PUSH1 0x20 MUL PUSH1 0x20 ADD DUP3 ADD PUSH1 0x40 MSTORE DUP1 ISZERO PUSH3 0x4A4 JUMPI DUP2 PUSH1 0x20 ADD PUSH1 0x20 DUP3 MUL DUP1 CALLDATASIZE DUP4 CALLDATACOPY DUP1 DUP3 ADD SWAP2 POP POP SWAP1 POP JUMPDEST POP SWAP1 POP DUP3 DUP2 PUSH1 0x0 DUP2 MLOAD DUP2 LT PUSH3 0x4BF JUMPI PUSH3 0x4BE PUSH3 0x945 JUMP JUMPDEST JUMPDEST PUSH1 0x20 MUL PUSH1 0x20 ADD ADD DUP2 DUP2 MSTORE POP POP DUP1 SWAP2 POP POP SWAP2 SWAP1 POP JUMP JUMPDEST POP POP POP POP POP POP JUMP JUMPDEST PUSH3 0x508 DUP5 PUSH20 0xFFFFFFFFFFFFFFFFFFFFFFFFFFFFFFFFFFFFFFFF AND PUSH3 0x6D6 PUSH1 0x20 SHL PUSH3 0xF9A OR PUSH1 0x20 SHR JUMP JUMPDEST ISZERO PUSH3 0x6CE JUMPI DUP4 PUSH20 0xFFFFFFFFFFFFFFFFFFFFFFFFFFFFFFFFFFFFFFFF AND PUSH4 0xF23A6E61 DUP8 DUP8 DUP7 DUP7 DUP7 PUSH1 0x40 MLOAD DUP7 PUSH4 0xFFFFFFFF AND PUSH1 0xE0 SHL DUP2 MSTORE PUSH1 0x4 ADD PUSH3 0x551 SWAP6 SWAP5 SWAP4 SWAP3 SWAP2 SWAP1 PUSH3 0xA5D JUMP JUMPDEST PUSH1 0x20 PUSH1 0x40 MLOAD DUP1 DUP4 SUB DUP2 PUSH1 0x0 DUP8 GAS CALL SWAP3 POP POP POP DUP1 ISZERO PUSH3 0x590 JUMPI POP PUSH1 0x40 MLOAD RETURNDATASIZE PUSH1 0x1F NOT PUSH1 0x1F DUP3 ADD AND DUP3 ADD DUP1 PUSH1 0x40 MSTORE POP DUP2 ADD SWAP1 PUSH3 0x58D SWAP2 SWAP1 PUSH3 0xB2D JUMP JUMPDEST PUSH1 0x1 JUMPDEST PUSH3 0x642 JUMPI PUSH3 0x59F PUSH3 0xB6C JUMP JUMPDEST DUP1 PUSH4 0x8C379A0 EQ ISZERO PUSH3 0x603 JUMPI POP PUSH3 0x5B7 PUSH3 0xBC7 JUMP JUMPDEST DUP1 PUSH3 0x5C4 JUMPI POP PUSH3 0x605 JUMP JUMPDEST DUP1 PUSH1 0x40 MLOAD PUSH32 0x8C379A000000000000000000000000000000000000000000000000000000000 DUP2 MSTORE PUSH1 0x4 ADD PUSH3 0x5FA SWAP2 SWAP1 PUSH3 0xCB5 JUMP JUMPDEST PUSH1 0x40 MLOAD DUP1 SWAP2 SUB SWAP1 REVERT JUMPDEST POP JUMPDEST PUSH1 0x40 MLOAD PUSH32 0x8C379A000000000000000000000000000000000000000000000000000000000 DUP2 MSTORE PUSH1 0x4 ADD PUSH3 0x639 SWAP1 PUSH3 0xD4F JUMP JUMPDEST PUSH1 0x40 MLOAD DUP1 SWAP2 SUB SWAP1 REVERT JUMPDEST PUSH4 0xF23A6E61 PUSH1 0xE0 SHL PUSH28 0xFFFFFFFFFFFFFFFFFFFFFFFFFFFFFFFFFFFFFFFFFFFFFFFFFFFFFFFF NOT AND DUP2 PUSH28 0xFFFFFFFFFFFFFFFFFFFFFFFFFFFFFFFFFFFFFFFFFFFFFFFFFFFFFFFF NOT AND EQ PUSH3 0x6CC JUMPI PUSH1 0x40 MLOAD PUSH32 0x8C379A000000000000000000000000000000000000000000000000000000000 DUP2 MSTORE PUSH1 0x4 ADD PUSH3 0x6C3 SWAP1 PUSH3 0xDE7 JUMP JUMPDEST PUSH1 0x40 MLOAD DUP1 SWAP2 SUB SWAP1 REVERT JUMPDEST POP JUMPDEST POP POP POP POP POP POP JUMP JUMPDEST PUSH1 0x0 DUP1 DUP3 EXTCODESIZE SWAP1 POP PUSH1 0x0 DUP2 GT SWAP2 POP POP SWAP2 SWAP1 POP JUMP JUMPDEST DUP3 DUP1 SLOAD PUSH3 0x6F7 SWAP1 PUSH3 0xE38 JUMP JUMPDEST SWAP1 PUSH1 0x0 MSTORE PUSH1 0x20 PUSH1 0x0 KECCAK256 SWAP1 PUSH1 0x1F ADD PUSH1 0x20 SWAP1 DIV DUP2 ADD SWAP3 DUP3 PUSH3 0x71B JUMPI PUSH1 0x0 DUP6 SSTORE PUSH3 0x767 JUMP JUMPDEST DUP3 PUSH1 0x1F LT PUSH3 0x736 JUMPI DUP1 MLOAD PUSH1 0xFF NOT AND DUP4 DUP1 ADD OR DUP6 SSTORE PUSH3 0x767 JUMP JUMPDEST DUP3 DUP1 ADD PUSH1 0x1 ADD DUP6 SSTORE DUP3 ISZERO PUSH3 0x767 JUMPI SWAP2 DUP3 ADD JUMPDEST DUP3 DUP2 GT ISZERO PUSH3 0x766 JUMPI DUP3 MLOAD DUP3 SSTORE SWAP2 PUSH1 0x20 ADD SWAP2 SWAP1 PUSH1 0x1 ADD SWAP1 PUSH3 0x749 JUMP JUMPDEST JUMPDEST POP SWAP1 POP PUSH3 0x776 SWAP2 SWAP1 PUSH3 0x77A JUMP JUMPDEST POP SWAP1 JUMP JUMPDEST JUMPDEST DUP1 DUP3 GT ISZERO PUSH3 0x795 JUMPI PUSH1 0x0 DUP2 PUSH1 0x0 SWAP1 SSTORE POP PUSH1 0x1 ADD PUSH3 0x77B JUMP JUMPDEST POP SWAP1 JUMP JUMPDEST PUSH1 0x0 DUP2 SWAP1 POP SWAP2 SWAP1 POP JUMP JUMPDEST PUSH32 0x4E487B7100000000000000000000000000000000000000000000000000000000 PUSH1 0x0 MSTORE PUSH1 0x11 PUSH1 0x4 MSTORE PUSH1 0x24 PUSH1 0x0 REVERT JUMPDEST PUSH1 0x0 PUSH3 0x7DF DUP3 PUSH3 0x799 JUMP JUMPDEST SWAP2 POP PUSH3 0x7EC DUP4 PUSH3 0x799 JUMP JUMPDEST SWAP3 POP DUP3 PUSH32 0xFFFFFFFFFFFFFFFFFFFFFFFFFFFFFFFFFFFFFFFFFFFFFFFFFFFFFFFFFFFFFFFF SUB DUP3 GT ISZERO PUSH3 0x824 JUMPI PUSH3 0x823 PUSH3 0x7A3 JUMP JUMPDEST JUMPDEST DUP3 DUP3 ADD SWAP1 POP SWAP3 SWAP2 POP POP JUMP JUMPDEST PUSH1 0x0 DUP3 DUP3 MSTORE PUSH1 0x20 DUP3 ADD SWAP1 POP SWAP3 SWAP2 POP POP JUMP JUMPDEST PUSH32 0x455243313135353A206D696E7420746F20746865207A65726F20616464726573 PUSH1 0x0 DUP3 ADD MSTORE PUSH32 0x7300000000000000000000000000000000000000000000000000000000000000 PUSH1 0x20 DUP3 ADD MSTORE POP JUMP JUMPDEST PUSH1 0x0 PUSH3 0x89E PUSH1 0x21 DUP4 PUSH3 0x82F JUMP JUMPDEST SWAP2 POP PUSH3 0x8AB DUP3 PUSH3 0x840 JUMP JUMPDEST PUSH1 0x40 DUP3 ADD SWAP1 POP SWAP2 SWAP1 POP JUMP JUMPDEST PUSH1 0x0 PUSH1 0x20 DUP3 ADD SWAP1 POP DUP2 DUP2 SUB PUSH1 0x0 DUP4 ADD MSTORE PUSH3 0x8D1 DUP2 PUSH3 0x88F JUMP JUMPDEST SWAP1 POP SWAP2 SWAP1 POP JUMP JUMPDEST PUSH3 0x8E3 DUP2 PUSH3 0x799 JUMP JUMPDEST DUP3 MSTORE POP POP JUMP JUMPDEST PUSH1 0x0 PUSH1 0x40 DUP3 ADD SWAP1 POP PUSH3 0x900 PUSH1 0x0 DUP4 ADD DUP6 PUSH3 0x8D8 JUMP JUMPDEST PUSH3 0x90F PUSH1 0x20 DUP4 ADD DUP5 PUSH3 0x8D8 JUMP JUMPDEST SWAP4 SWAP3 POP POP POP JUMP JUMPDEST PUSH32 0x4E487B7100000000000000000000000000000000000000000000000000000000 PUSH1 0x0 MSTORE PUSH1 0x41 PUSH1 0x4 MSTORE PUSH1 0x24 PUSH1 0x0 REVERT JUMPDEST PUSH32 0x4E487B7100000000000000000000000000000000000000000000000000000000 PUSH1 0x0 MSTORE PUSH1 0x32 PUSH1 0x4 MSTORE PUSH1 0x24 PUSH1 0x0 REVERT JUMPDEST PUSH1 0x0 PUSH20 0xFFFFFFFFFFFFFFFFFFFFFFFFFFFFFFFFFFFFFFFF DUP3 AND SWAP1 POP SWAP2 SWAP1 POP JUMP JUMPDEST PUSH1 0x0 PUSH3 0x9A1 DUP3 PUSH3 0x974 JUMP JUMPDEST SWAP1 POP SWAP2 SWAP1 POP JUMP JUMPDEST PUSH3 0x9B3 DUP2 PUSH3 0x994 JUMP JUMPDEST DUP3 MSTORE POP POP JUMP JUMPDEST PUSH1 0x0 DUP2 MLOAD SWAP1 POP SWAP2 SWAP1 POP JUMP JUMPDEST PUSH1 0x0 DUP3 DUP3 MSTORE PUSH1 0x20 DUP3 ADD SWAP1 POP SWAP3 SWAP2 POP POP JUMP JUMPDEST PUSH1 0x0 JUMPDEST DUP4 DUP2 LT ISZERO PUSH3 0x9F5 JUMPI DUP1 DUP3 ADD MLOAD DUP2 DUP5 ADD MSTORE PUSH1 0x20 DUP2 ADD SWAP1 POP PUSH3 0x9D8 JUMP JUMPDEST DUP4 DUP2 GT ISZERO PUSH3 0xA05 JUMPI PUSH1 0x0 DUP5 DUP5 ADD MSTORE JUMPDEST POP POP POP POP JUMP JUMPDEST PUSH1 0x0 PUSH1 0x1F NOT PUSH1 0x1F DUP4 ADD AND SWAP1 POP SWAP2 SWAP1 POP JUMP JUMPDEST PUSH1 0x0 PUSH3 0xA29 DUP3 PUSH3 0x9B9 JUMP JUMPDEST PUSH3 0xA35 DUP2 DUP6 PUSH3 0x9C4 JUMP JUMPDEST SWAP4 POP PUSH3 0xA47 DUP2 DUP6 PUSH1 0x20 DUP7 ADD PUSH3 0x9D5 JUMP JUMPDEST PUSH3 0xA52 DUP2 PUSH3 0xA0B JUMP JUMPDEST DUP5 ADD SWAP2 POP POP SWAP3 SWAP2 POP POP JUMP JUMPDEST PUSH1 0x0 PUSH1 0xA0 DUP3 ADD SWAP1 POP PUSH3 0xA74 PUSH1 0x0 DUP4 ADD DUP9 PUSH3 0x9A8 JUMP JUMPDEST PUSH3 0xA83 PUSH1 0x20 DUP4 ADD DUP8 PUSH3 0x9A8 JUMP JUMPDEST PUSH3 0xA92 PUSH1 0x40 DUP4 ADD DUP7 PUSH3 0x8D8 JUMP JUMPDEST PUSH3 0xAA1 PUSH1 0x60 DUP4 ADD DUP6 PUSH3 0x8D8 JUMP JUMPDEST DUP2 DUP2 SUB PUSH1 0x80 DUP4 ADD MSTORE PUSH3 0xAB5 DUP2 DUP5 PUSH3 0xA1C JUMP JUMPDEST SWAP1 POP SWAP7 SWAP6 POP POP POP POP POP POP JUMP JUMPDEST PUSH1 0x0 PUSH1 0x40 MLOAD SWAP1 POP SWAP1 JUMP JUMPDEST PUSH1 0x0 DUP1 REVERT JUMPDEST PUSH1 0x0 PUSH32 0xFFFFFFFF00000000000000000000000000000000000000000000000000000000 DUP3 AND SWAP1 POP SWAP2 SWAP1 POP JUMP JUMPDEST PUSH3 0xB07 DUP2 PUSH3 0xAD0 JUMP JUMPDEST DUP2 EQ PUSH3 0xB13 JUMPI PUSH1 0x0 DUP1 REVERT JUMPDEST POP JUMP JUMPDEST PUSH1 0x0 DUP2 MLOAD SWAP1 POP PUSH3 0xB27 DUP2 PUSH3 0xAFC JUMP JUMPDEST SWAP3 SWAP2 POP POP JUMP JUMPDEST PUSH1 0x0 PUSH1 0x20 DUP3 DUP5 SUB SLT ISZERO PUSH3 0xB46 JUMPI PUSH3 0xB45 PUSH3 0xACB JUMP JUMPDEST JUMPDEST PUSH1 0x0 PUSH3 0xB56 DUP5 DUP3 DUP6 ADD PUSH3 0xB16 JUMP JUMPDEST SWAP2 POP POP SWAP3 SWAP2 POP POP JUMP JUMPDEST PUSH1 0x0 DUP2 PUSH1 0xE0 SHR SWAP1 POP SWAP2 SWAP1 POP JUMP JUMPDEST PUSH1 0x0 PUSH1 0x3 RETURNDATASIZE GT ISZERO PUSH3 0xB8E JUMPI PUSH1 0x4 PUSH1 0x0 DUP1 RETURNDATACOPY PUSH3 0xB8B PUSH1 0x0 MLOAD PUSH3 0xB5F JUMP JUMPDEST SWAP1 POP JUMPDEST SWAP1 JUMP JUMPDEST PUSH3 0xB9C DUP3 PUSH3 0xA0B JUMP JUMPDEST DUP2 ADD DUP2 DUP2 LT PUSH8 0xFFFFFFFFFFFFFFFF DUP3 GT OR ISZERO PUSH3 0xBBE JUMPI PUSH3 0xBBD PUSH3 0x916 JUMP JUMPDEST JUMPDEST DUP1 PUSH1 0x40 MSTORE POP POP POP JUMP JUMPDEST PUSH1 0x0 PUSH1 0x44 RETURNDATASIZE LT ISZERO PUSH3 0xBD9 JUMPI PUSH3 0xC66 JUMP JUMPDEST PUSH3 0xBE3 PUSH3 0xAC1 JUMP JUMPDEST PUSH1 0x4 RETURNDATASIZE SUB PUSH1 0x4 DUP3 RETURNDATACOPY DUP1 MLOAD RETURNDATASIZE PUSH1 0x24 DUP3 ADD GT PUSH8 0xFFFFFFFFFFFFFFFF DUP3 GT OR ISZERO PUSH3 0xC0D JUMPI POP POP PUSH3 0xC66 JUMP JUMPDEST DUP1 DUP3 ADD DUP1 MLOAD PUSH8 0xFFFFFFFFFFFFFFFF DUP2 GT ISZERO PUSH3 0xC2D JUMPI POP POP POP POP PUSH3 0xC66 JUMP JUMPDEST DUP1 PUSH1 0x20 DUP4 ADD ADD PUSH1 0x4 RETURNDATASIZE SUB DUP6 ADD DUP2 GT ISZERO PUSH3 0xC4C JUMPI POP POP POP POP POP PUSH3 0xC66 JUMP JUMPDEST PUSH3 0xC5D DUP3 PUSH1 0x20 ADD DUP6 ADD DUP7 PUSH3 0xB91 JUMP JUMPDEST DUP3 SWAP6 POP POP POP POP POP POP JUMPDEST SWAP1 JUMP JUMPDEST PUSH1 0x0 DUP2 MLOAD SWAP1 POP SWAP2 SWAP1 POP JUMP JUMPDEST PUSH1 0x0 PUSH3 0xC81 DUP3 PUSH3 0xC69 JUMP JUMPDEST PUSH3 0xC8D DUP2 DUP6 PUSH3 0x82F JUMP JUMPDEST SWAP4 POP PUSH3 0xC9F DUP2 DUP6 PUSH1 0x20 DUP7 ADD PUSH3 0x9D5 JUMP JUMPDEST PUSH3 0xCAA DUP2 PUSH3 0xA0B JUMP JUMPDEST DUP5 ADD SWAP2 POP POP SWAP3 SWAP2 POP POP JUMP JUMPDEST PUSH1 0x0 PUSH1 0x20 DUP3 ADD SWAP1 POP DUP2 DUP2 SUB PUSH1 0x0 DUP4 ADD MSTORE PUSH3 0xCD1 DUP2 DUP5 PUSH3 0xC74 JUMP JUMPDEST SWAP1 POP SWAP3 SWAP2 POP POP JUMP JUMPDEST PUSH32 0x455243313135353A207472616E7366657220746F206E6F6E2045524331313535 PUSH1 0x0 DUP3 ADD MSTORE PUSH32 0x526563656976657220696D706C656D656E746572000000000000000000000000 PUSH1 0x20 DUP3 ADD MSTORE POP JUMP JUMPDEST PUSH1 0x0 PUSH3 0xD37 PUSH1 0x34 DUP4 PUSH3 0x82F JUMP JUMPDEST SWAP2 POP PUSH3 0xD44 DUP3 PUSH3 0xCD9 JUMP JUMPDEST PUSH1 0x40 DUP3 ADD SWAP1 POP SWAP2 SWAP1 POP JUMP JUMPDEST PUSH1 0x0 PUSH1 0x20 DUP3 ADD SWAP1 POP DUP2 DUP2 SUB PUSH1 0x0 DUP4 ADD MSTORE PUSH3 0xD6A DUP2 PUSH3 0xD28 JUMP JUMPDEST SWAP1 POP SWAP2 SWAP1 POP JUMP JUMPDEST PUSH32 0x455243313135353A204552433131353552656365697665722072656A65637465 PUSH1 0x0 DUP3 ADD MSTORE PUSH32 0x6420746F6B656E73000000000000000000000000000000000000000000000000 PUSH1 0x20 DUP3 ADD MSTORE POP JUMP JUMPDEST PUSH1 0x0 PUSH3 0xDCF PUSH1 0x28 DUP4 PUSH3 0x82F JUMP JUMPDEST SWAP2 POP PUSH3 0xDDC DUP3 PUSH3 0xD71 JUMP JUMPDEST PUSH1 0x40 DUP3 ADD SWAP1 POP SWAP2 SWAP1 POP JUMP JUMPDEST PUSH1 0x0 PUSH1 0x20 DUP3 ADD SWAP1 POP DUP2 DUP2 SUB PUSH1 0x0 DUP4 ADD MSTORE PUSH3 0xE02 DUP2 PUSH3 0xDC0 JUMP JUMPDEST SWAP1 POP SWAP2 SWAP1 POP JUMP JUMPDEST PUSH32 0x4E487B7100000000000000000000000000000000000000000000000000000000 PUSH1 0x0 MSTORE PUSH1 0x22 PUSH1 0x4 MSTORE PUSH1 0x24 PUSH1 0x0 REVERT JUMPDEST PUSH1 0x0 PUSH1 0x2 DUP3 DIV SWAP1 POP PUSH1 0x1 DUP3 AND DUP1 PUSH3 0xE51 JUMPI PUSH1 0x7F DUP3 AND SWAP2 POP JUMPDEST PUSH1 0x20 DUP3 LT DUP2 EQ ISZERO PUSH3 0xE68 JUMPI PUSH3 0xE67 PUSH3 0xE09 JUMP JUMPDEST JUMPDEST POP SWAP2 SWAP1 POP JUMP JUMPDEST PUSH2 0x37B6 DUP1 PUSH3 0xE7E PUSH1 0x0 CODECOPY PUSH1 0x0 RETURN INVALID PUSH1 0x80 PUSH1 0x40 MSTORE CALLVALUE DUP1 ISZERO PUSH2 0x10 JUMPI PUSH1 0x0 DUP1 REVERT JUMPDEST POP PUSH1 0x4 CALLDATASIZE LT PUSH2 0x141 JUMPI PUSH1 0x0 CALLDATALOAD PUSH1 0xE0 SHR DUP1 PUSH4 0x9DC29FAC GT PUSH2 0xB8 JUMPI DUP1 PUSH4 0xE985E9C5 GT PUSH2 0x7C JUMPI DUP1 PUSH4 0xE985E9C5 EQ PUSH2 0x374 JUMPI DUP1 PUSH4 0xED70554D EQ PUSH2 0x3A4 JUMPI DUP1 PUSH4 0xF242432A EQ PUSH2 0x3D4 JUMPI DUP1 PUSH4 0xF2FDE38B EQ PUSH2 0x3F0 JUMPI DUP1 PUSH4 0xF851A440 EQ PUSH2 0x40C JUMPI DUP1 PUSH4 0xFABB7053 EQ PUSH2 0x42A JUMPI PUSH2 0x141 JUMP JUMPDEST DUP1 PUSH4 0x9DC29FAC EQ PUSH2 0x2E4 JUMPI DUP1 PUSH4 0xA22CB465 EQ PUSH2 0x300 JUMPI DUP1 PUSH4 0xABC8C7AF EQ PUSH2 0x31C JUMPI DUP1 PUSH4 0xD85D3D27 EQ PUSH2 0x33A JUMPI DUP1 PUSH4 0xE8A3D485 EQ PUSH2 0x356 JUMPI PUSH2 0x141 JUMP JUMPDEST DUP1 PUSH4 0x2EB2C2D6 GT PUSH2 0x10A JUMPI DUP1 PUSH4 0x2EB2C2D6 EQ PUSH2 0x210 JUMPI DUP1 PUSH4 0x370C1BD2 EQ PUSH2 0x22C JUMPI DUP1 PUSH4 0x4E1273F4 EQ PUSH2 0x25C JUMPI DUP1 PUSH4 0x715018A6 EQ PUSH2 0x28C JUMPI DUP1 PUSH4 0x8DA5CB5B EQ PUSH2 0x296 JUMPI DUP1 PUSH4 0x992924A6 EQ PUSH2 0x2B4 JUMPI PUSH2 0x141 JUMP JUMPDEST DUP1 PUSH3 0xFDD58E EQ PUSH2 0x146 JUMPI DUP1 PUSH4 0x1FFC9A7 EQ PUSH2 0x176 JUMPI DUP1 PUSH4 0x673D7D0 EQ PUSH2 0x1A6 JUMPI DUP1 PUSH4 0xAD53BB8 EQ PUSH2 0x1C4 JUMPI DUP1 PUSH4 0xE89341C EQ PUSH2 0x1E0 JUMPI JUMPDEST PUSH1 0x0 DUP1 REVERT JUMPDEST PUSH2 0x160 PUSH1 0x4 DUP1 CALLDATASIZE SUB DUP2 ADD SWAP1 PUSH2 0x15B SWAP2 SWAP1 PUSH2 0x2132 JUMP JUMPDEST PUSH2 0x448 JUMP JUMPDEST PUSH1 0x40 MLOAD PUSH2 0x16D SWAP2 SWAP1 PUSH2 0x2181 JUMP JUMPDEST PUSH1 0x40 MLOAD DUP1 SWAP2 SUB SWAP1 RETURN JUMPDEST PUSH2 0x190 PUSH1 0x4 DUP1 CALLDATASIZE SUB DUP2 ADD SWAP1 PUSH2 0x18B SWAP2 SWAP1 PUSH2 0x21F4 JUMP JUMPDEST PUSH2 0x511 JUMP JUMPDEST PUSH1 0x40 MLOAD PUSH2 0x19D SWAP2 SWAP1 PUSH2 0x223C JUMP JUMPDEST PUSH1 0x40 MLOAD DUP1 SWAP2 SUB SWAP1 RETURN JUMPDEST PUSH2 0x1AE PUSH2 0x5F3 JUMP JUMPDEST PUSH1 0x40 MLOAD PUSH2 0x1BB SWAP2 SWAP1 PUSH2 0x2181 JUMP JUMPDEST PUSH1 0x40 MLOAD DUP1 SWAP2 SUB SWAP1 RETURN JUMPDEST PUSH2 0x1DE PUSH1 0x4 DUP1 CALLDATASIZE SUB DUP2 ADD SWAP1 PUSH2 0x1D9 SWAP2 SWAP1 PUSH2 0x2257 JUMP JUMPDEST PUSH2 0x5F9 JUMP JUMPDEST STOP JUMPDEST PUSH2 0x1FA PUSH1 0x4 DUP1 CALLDATASIZE SUB DUP2 ADD SWAP1 PUSH2 0x1F5 SWAP2 SWAP1 PUSH2 0x2284 JUMP JUMPDEST PUSH2 0x6D8 JUMP JUMPDEST PUSH1 0x40 MLOAD PUSH2 0x207 SWAP2 SWAP1 PUSH2 0x234A JUMP JUMPDEST PUSH1 0x40 MLOAD DUP1 SWAP2 SUB SWAP1 RETURN JUMPDEST PUSH2 0x22A PUSH1 0x4 DUP1 CALLDATASIZE SUB DUP2 ADD SWAP1 PUSH2 0x225 SWAP2 SWAP1 PUSH2 0x2569 JUMP JUMPDEST PUSH2 0x76C JUMP JUMPDEST STOP JUMPDEST PUSH2 0x246 PUSH1 0x4 DUP1 CALLDATASIZE SUB DUP2 ADD SWAP1 PUSH2 0x241 SWAP2 SWAP1 PUSH2 0x2257 JUMP JUMPDEST PUSH2 0x80D JUMP JUMPDEST PUSH1 0x40 MLOAD PUSH2 0x253 SWAP2 SWAP1 PUSH2 0x2181 JUMP JUMPDEST PUSH1 0x40 MLOAD DUP1 SWAP2 SUB SWAP1 RETURN JUMPDEST PUSH2 0x276 PUSH1 0x4 DUP1 CALLDATASIZE SUB DUP2 ADD SWAP1 PUSH2 0x271 SWAP2 SWAP1 PUSH2 0x26FB JUMP JUMPDEST PUSH2 0x825 JUMP JUMPDEST PUSH1 0x40 MLOAD PUSH2 0x283 SWAP2 SWAP1 PUSH2 0x2831 JUMP JUMPDEST PUSH1 0x40 MLOAD DUP1 SWAP2 SUB SWAP1 RETURN JUMPDEST PUSH2 0x294 PUSH2 0x93E JUMP JUMPDEST STOP JUMPDEST PUSH2 0x29E PUSH2 0x9C6 JUMP JUMPDEST PUSH1 0x40 MLOAD PUSH2 0x2AB SWAP2 SWAP1 PUSH2 0x2862 JUMP JUMPDEST PUSH1 0x40 MLOAD DUP1 SWAP2 SUB SWAP1 RETURN JUMPDEST PUSH2 0x2CE PUSH1 0x4 DUP1 CALLDATASIZE SUB DUP2 ADD SWAP1 PUSH2 0x2C9 SWAP2 SWAP1 PUSH2 0x2284 JUMP JUMPDEST PUSH2 0x9F0 JUMP JUMPDEST PUSH1 0x40 MLOAD PUSH2 0x2DB SWAP2 SWAP1 PUSH2 0x2862 JUMP JUMPDEST PUSH1 0x40 MLOAD DUP1 SWAP2 SUB SWAP1 RETURN JUMPDEST PUSH2 0x2FE PUSH1 0x4 DUP1 CALLDATASIZE SUB DUP2 ADD SWAP1 PUSH2 0x2F9 SWAP2 SWAP1 PUSH2 0x2132 JUMP JUMPDEST PUSH2 0xA23 JUMP JUMPDEST STOP JUMPDEST PUSH2 0x31A PUSH1 0x4 DUP1 CALLDATASIZE SUB DUP2 ADD SWAP1 PUSH2 0x315 SWAP2 SWAP1 PUSH2 0x28A9 JUMP JUMPDEST PUSH2 0xA6B JUMP JUMPDEST STOP JUMPDEST PUSH2 0x324 PUSH2 0xA81 JUMP JUMPDEST PUSH1 0x40 MLOAD PUSH2 0x331 SWAP2 SWAP1 PUSH2 0x2862 JUMP JUMPDEST PUSH1 0x40 MLOAD DUP1 SWAP2 SUB SWAP1 RETURN JUMPDEST PUSH2 0x354 PUSH1 0x4 DUP1 CALLDATASIZE SUB DUP2 ADD SWAP1 PUSH2 0x34F SWAP2 SWAP1 PUSH2 0x298A JUMP JUMPDEST PUSH2 0xAA7 JUMP JUMPDEST STOP JUMPDEST PUSH2 0x35E PUSH2 0xBF3 JUMP JUMPDEST PUSH1 0x40 MLOAD PUSH2 0x36B SWAP2 SWAP1 PUSH2 0x234A JUMP JUMPDEST PUSH1 0x40 MLOAD DUP1 SWAP2 SUB SWAP1 RETURN JUMPDEST PUSH2 0x38E PUSH1 0x4 DUP1 CALLDATASIZE SUB DUP2 ADD SWAP1 PUSH2 0x389 SWAP2 SWAP1 PUSH2 0x29D3 JUMP JUMPDEST PUSH2 0xC81 JUMP JUMPDEST PUSH1 0x40 MLOAD PUSH2 0x39B SWAP2 SWAP1 PUSH2 0x223C JUMP JUMPDEST PUSH1 0x40 MLOAD DUP1 SWAP2 SUB SWAP1 RETURN JUMPDEST PUSH2 0x3BE PUSH1 0x4 DUP1 CALLDATASIZE SUB DUP2 ADD SWAP1 PUSH2 0x3B9 SWAP2 SWAP1 PUSH2 0x2284 JUMP JUMPDEST PUSH2 0xD15 JUMP JUMPDEST PUSH1 0x40 MLOAD PUSH2 0x3CB SWAP2 SWAP1 PUSH2 0x234A JUMP JUMPDEST PUSH1 0x40 MLOAD DUP1 SWAP2 SUB SWAP1 RETURN JUMPDEST PUSH2 0x3EE PUSH1 0x4 DUP1 CALLDATASIZE SUB DUP2 ADD SWAP1 PUSH2 0x3E9 SWAP2 SWAP1 PUSH2 0x2A13 JUMP JUMPDEST PUSH2 0xDB5 JUMP JUMPDEST STOP JUMPDEST PUSH2 0x40A PUSH1 0x4 DUP1 CALLDATASIZE SUB DUP2 ADD SWAP1 PUSH2 0x405 SWAP2 SWAP1 PUSH2 0x2257 JUMP JUMPDEST PUSH2 0xE56 JUMP JUMPDEST STOP JUMPDEST PUSH2 0x414 PUSH2 0xF4E JUMP JUMPDEST PUSH1 0x40 MLOAD PUSH2 0x421 SWAP2 SWAP1 PUSH2 0x2862 JUMP JUMPDEST PUSH1 0x40 MLOAD DUP1 SWAP2 SUB SWAP1 RETURN JUMPDEST PUSH2 0x432 PUSH2 0xF74 JUMP JUMPDEST PUSH1 0x40 MLOAD PUSH2 0x43F SWAP2 SWAP1 PUSH2 0x2862 JUMP JUMPDEST PUSH1 0x40 MLOAD DUP1 SWAP2 SUB SWAP1 RETURN JUMPDEST PUSH1 0x0 DUP1 PUSH20 0xFFFFFFFFFFFFFFFFFFFFFFFFFFFFFFFFFFFFFFFF AND DUP4 PUSH20 0xFFFFFFFFFFFFFFFFFFFFFFFFFFFFFFFFFFFFFFFF AND EQ ISZERO PUSH2 0x4B9 JUMPI PUSH1 0x40 MLOAD PUSH32 0x8C379A000000000000000000000000000000000000000000000000000000000 DUP2 MSTORE PUSH1 0x4 ADD PUSH2 0x4B0 SWAP1 PUSH2 0x2B1C JUMP JUMPDEST PUSH1 0x40 MLOAD DUP1 SWAP2 SUB SWAP1 REVERT JUMPDEST PUSH1 0x0 DUP1 DUP4 DUP2 MSTORE PUSH1 0x20 ADD SWAP1 DUP2 MSTORE PUSH1 0x20 ADD PUSH1 0x0 KECCAK256 PUSH1 0x0 DUP5 PUSH20 0xFFFFFFFFFFFFFFFFFFFFFFFFFFFFFFFFFFFFFFFF AND PUSH20 0xFFFFFFFFFFFFFFFFFFFFFFFFFFFFFFFFFFFFFFFF AND DUP2 MSTORE PUSH1 0x20 ADD SWAP1 DUP2 MSTORE PUSH1 0x20 ADD PUSH1 0x0 KECCAK256 SLOAD SWAP1 POP SWAP3 SWAP2 POP POP JUMP JUMPDEST PUSH1 0x0 PUSH32 0xD9B67A2600000000000000000000000000000000000000000000000000000000 PUSH28 0xFFFFFFFFFFFFFFFFFFFFFFFFFFFFFFFFFFFFFFFFFFFFFFFFFFFFFFFF NOT AND DUP3 PUSH28 0xFFFFFFFFFFFFFFFFFFFFFFFFFFFFFFFFFFFFFFFFFFFFFFFFFFFFFFFF NOT AND EQ DUP1 PUSH2 0x5DC JUMPI POP PUSH32 0xE89341C00000000000000000000000000000000000000000000000000000000 PUSH28 0xFFFFFFFFFFFFFFFFFFFFFFFFFFFFFFFFFFFFFFFFFFFFFFFFFFFFFFFF NOT AND DUP3 PUSH28 0xFFFFFFFFFFFFFFFFFFFFFFFFFFFFFFFFFFFFFFFFFFFFFFFFFFFFFFFF NOT AND EQ JUMPDEST DUP1 PUSH2 0x5EC JUMPI POP PUSH2 0x5EB DUP3 PUSH2 0xFAD JUMP JUMPDEST JUMPDEST SWAP1 POP SWAP2 SWAP1 POP JUMP JUMPDEST PUSH1 0x4 SLOAD DUP2 JUMP JUMPDEST PUSH1 0x5 PUSH1 0x0 SWAP1 SLOAD SWAP1 PUSH2 0x100 EXP SWAP1 DIV PUSH20 0xFFFFFFFFFFFFFFFFFFFFFFFFFFFFFFFFFFFFFFFF AND PUSH20 0xFFFFFFFFFFFFFFFFFFFFFFFFFFFFFFFFFFFFFFFF AND CALLER PUSH20 0xFFFFFFFFFFFFFFFFFFFFFFFFFFFFFFFFFFFFFFFF AND EQ PUSH2 0x689 JUMPI PUSH1 0x40 MLOAD PUSH32 0x8C379A000000000000000000000000000000000000000000000000000000000 DUP2 MSTORE PUSH1 0x4 ADD PUSH2 0x680 SWAP1 PUSH2 0x2BAE JUMP JUMPDEST PUSH1 0x40 MLOAD DUP1 SWAP2 SUB SWAP1 REVERT JUMPDEST PUSH2 0x694 DUP2 PUSH1 0x1 PUSH2 0xA6B JUMP JUMPDEST DUP1 PUSH1 0xA PUSH1 0x0 PUSH2 0x100 EXP DUP2 SLOAD DUP2 PUSH20 0xFFFFFFFFFFFFFFFFFFFFFFFFFFFFFFFFFFFFFFFF MUL NOT AND SWAP1 DUP4 PUSH20 0xFFFFFFFFFFFFFFFFFFFFFFFFFFFFFFFFFFFFFFFF AND MUL OR SWAP1 SSTORE POP POP JUMP JUMPDEST PUSH1 0x60 PUSH1 0x2 DUP1 SLOAD PUSH2 0x6E7 SWAP1 PUSH2 0x2BFD JUMP JUMPDEST DUP1 PUSH1 0x1F ADD PUSH1 0x20 DUP1 SWAP2 DIV MUL PUSH1 0x20 ADD PUSH1 0x40 MLOAD SWAP1 DUP2 ADD PUSH1 0x40 MSTORE DUP1 SWAP3 SWAP2 SWAP1 DUP2 DUP2 MSTORE PUSH1 0x20 ADD DUP3 DUP1 SLOAD PUSH2 0x713 SWAP1 PUSH2 0x2BFD JUMP JUMPDEST DUP1 ISZERO PUSH2 0x760 JUMPI DUP1 PUSH1 0x1F LT PUSH2 0x735 JUMPI PUSH2 0x100 DUP1 DUP4 SLOAD DIV MUL DUP4 MSTORE SWAP2 PUSH1 0x20 ADD SWAP2 PUSH2 0x760 JUMP JUMPDEST DUP3 ADD SWAP2 SWAP1 PUSH1 0x0 MSTORE PUSH1 0x20 PUSH1 0x0 KECCAK256 SWAP1 JUMPDEST DUP2 SLOAD DUP2 MSTORE SWAP1 PUSH1 0x1 ADD SWAP1 PUSH1 0x20 ADD DUP1 DUP4 GT PUSH2 0x743 JUMPI DUP3 SWAP1 SUB PUSH1 0x1F AND DUP3 ADD SWAP2 JUMPDEST POP POP POP POP POP SWAP1 POP SWAP2 SWAP1 POP JUMP JUMPDEST PUSH2 0x774 PUSH2 0x1017 JUMP JUMPDEST PUSH20 0xFFFFFFFFFFFFFFFFFFFFFFFFFFFFFFFFFFFFFFFF AND DUP6 PUSH20 0xFFFFFFFFFFFFFFFFFFFFFFFFFFFFFFFFFFFFFFFF AND EQ DUP1 PUSH2 0x7BA JUMPI POP PUSH2 0x7B9 DUP6 PUSH2 0x7B4 PUSH2 0x1017 JUMP JUMPDEST PUSH2 0xC81 JUMP JUMPDEST JUMPDEST PUSH2 0x7F9 JUMPI PUSH1 0x40 MLOAD PUSH32 0x8C379A000000000000000000000000000000000000000000000000000000000 DUP2 MSTORE PUSH1 0x4 ADD PUSH2 0x7F0 SWAP1 PUSH2 0x2CA1 JUMP JUMPDEST PUSH1 0x40 MLOAD DUP1 SWAP2 SUB SWAP1 REVERT JUMPDEST PUSH2 0x806 DUP6 DUP6 DUP6 DUP6 DUP6 PUSH2 0x101F JUMP JUMPDEST POP POP POP POP POP JUMP JUMPDEST PUSH1 0x7 PUSH1 0x20 MSTORE DUP1 PUSH1 0x0 MSTORE PUSH1 0x40 PUSH1 0x0 KECCAK256 PUSH1 0x0 SWAP2 POP SWAP1 POP SLOAD DUP2 JUMP JUMPDEST PUSH1 0x60 DUP2 MLOAD DUP4 MLOAD EQ PUSH2 0x86B JUMPI PUSH1 0x40 MLOAD PUSH32 0x8C379A000000000000000000000000000000000000000000000000000000000 DUP2 MSTORE PUSH1 0x4 ADD PUSH2 0x862 SWAP1 PUSH2 0x2D33 JUMP JUMPDEST PUSH1 0x40 MLOAD DUP1 SWAP2 SUB SWAP1 REVERT JUMPDEST PUSH1 0x0 DUP4 MLOAD PUSH8 0xFFFFFFFFFFFFFFFF DUP2 GT ISZERO PUSH2 0x888 JUMPI PUSH2 0x887 PUSH2 0x2371 JUMP JUMPDEST JUMPDEST PUSH1 0x40 MLOAD SWAP1 DUP1 DUP3 MSTORE DUP1 PUSH1 0x20 MUL PUSH1 0x20 ADD DUP3 ADD PUSH1 0x40 MSTORE DUP1 ISZERO PUSH2 0x8B6 JUMPI DUP2 PUSH1 0x20 ADD PUSH1 0x20 DUP3 MUL DUP1 CALLDATASIZE DUP4 CALLDATACOPY DUP1 DUP3 ADD SWAP2 POP POP SWAP1 POP JUMPDEST POP SWAP1 POP PUSH1 0x0 JUMPDEST DUP5 MLOAD DUP2 LT ISZERO PUSH2 0x933 JUMPI PUSH2 0x903 DUP6 DUP3 DUP2 MLOAD DUP2 LT PUSH2 0x8DB JUMPI PUSH2 0x8DA PUSH2 0x2D53 JUMP JUMPDEST JUMPDEST PUSH1 0x20 MUL PUSH1 0x20 ADD ADD MLOAD DUP6 DUP4 DUP2 MLOAD DUP2 LT PUSH2 0x8F6 JUMPI PUSH2 0x8F5 PUSH2 0x2D53 JUMP JUMPDEST JUMPDEST PUSH1 0x20 MUL PUSH1 0x20 ADD ADD MLOAD PUSH2 0x448 JUMP JUMPDEST DUP3 DUP3 DUP2 MLOAD DUP2 LT PUSH2 0x916 JUMPI PUSH2 0x915 PUSH2 0x2D53 JUMP JUMPDEST JUMPDEST PUSH1 0x20 MUL PUSH1 0x20 ADD ADD DUP2 DUP2 MSTORE POP POP DUP1 PUSH2 0x92C SWAP1 PUSH2 0x2DB1 JUMP JUMPDEST SWAP1 POP PUSH2 0x8BC JUMP JUMPDEST POP DUP1 SWAP2 POP POP SWAP3 SWAP2 POP POP JUMP JUMPDEST PUSH2 0x946 PUSH2 0x1017 JUMP JUMPDEST PUSH20 0xFFFFFFFFFFFFFFFFFFFFFFFFFFFFFFFFFFFFFFFF AND PUSH2 0x964 PUSH2 0x9C6 JUMP JUMPDEST PUSH20 0xFFFFFFFFFFFFFFFFFFFFFFFFFFFFFFFFFFFFFFFF AND EQ PUSH2 0x9BA JUMPI PUSH1 0x40 MLOAD PUSH32 0x8C379A000000000000000000000000000000000000000000000000000000000 DUP2 MSTORE PUSH1 0x4 ADD PUSH2 0x9B1 SWAP1 PUSH2 0x2E46 JUMP JUMPDEST PUSH1 0x40 MLOAD DUP1 SWAP2 SUB SWAP1 REVERT JUMPDEST PUSH2 0x9C4 PUSH1 0x0 PUSH2 0x1333 JUMP JUMPDEST JUMP JUMPDEST PUSH1 0x0 PUSH1 0x3 PUSH1 0x0 SWAP1 SLOAD SWAP1 PUSH2 0x100 EXP SWAP1 DIV PUSH20 0xFFFFFFFFFFFFFFFFFFFFFFFFFFFFFFFFFFFFFFFF AND SWAP1 POP SWAP1 JUMP JUMPDEST PUSH1 0x8 PUSH1 0x20 MSTORE DUP1 PUSH1 0x0 MSTORE PUSH1 0x40 PUSH1 0x0 KECCAK256 PUSH1 0x0 SWAP2 POP SLOAD SWAP1 PUSH2 0x100 EXP SWAP1 DIV PUSH20 0xFFFFFFFFFFFFFFFFFFFFFFFFFFFFFFFFFFFFFFFF AND DUP2 JUMP JUMPDEST DUP2 PUSH20 0xFFFFFFFFFFFFFFFFFFFFFFFFFFFFFFFFFFFFFFFF AND CALLER PUSH20 0xFFFFFFFFFFFFFFFFFFFFFFFFFFFFFFFFFFFFFFFF AND EQ PUSH2 0xA5B JUMPI PUSH1 0x0 DUP1 REVERT JUMPDEST PUSH2 0xA67 DUP3 DUP3 PUSH1 0x1 PUSH2 0x13F9 JUMP JUMPDEST POP POP JUMP JUMPDEST PUSH2 0xA7D PUSH2 0xA76 PUSH2 0x1017 JUMP JUMPDEST DUP4 DUP4 PUSH2 0x1616 JUMP JUMPDEST POP POP JUMP JUMPDEST PUSH1 0xA PUSH1 0x0 SWAP1 SLOAD SWAP1 PUSH2 0x100 EXP SWAP1 DIV PUSH20 0xFFFFFFFFFFFFFFFFFFFFFFFFFFFFFFFFFFFFFFFF AND DUP2 JUMP JUMPDEST PUSH1 0x0 CALLER SWAP1 POP PUSH2 0xACA DUP2 PUSH1 0x4 SLOAD PUSH1 0x1 PUSH1 0x40 MLOAD DUP1 PUSH1 0x20 ADD PUSH1 0x40 MSTORE DUP1 PUSH1 0x0 DUP2 MSTORE POP PUSH2 0x1783 JUMP JUMPDEST PUSH2 0xAD3 DUP3 PUSH2 0x1919 JUMP JUMPDEST DUP2 PUSH1 0x6 PUSH1 0x0 PUSH1 0x4 SLOAD DUP2 MSTORE PUSH1 0x20 ADD SWAP1 DUP2 MSTORE PUSH1 0x20 ADD PUSH1 0x0 KECCAK256 SWAP1 DUP1 MLOAD SWAP1 PUSH1 0x20 ADD SWAP1 PUSH2 0xAFC SWAP3 SWAP2 SWAP1 PUSH2 0x1FE7 JUMP JUMPDEST POP CALLER PUSH1 0x8 PUSH1 0x0 PUSH1 0x4 SLOAD DUP2 MSTORE PUSH1 0x20 ADD SWAP1 DUP2 MSTORE PUSH1 0x20 ADD PUSH1 0x0 KECCAK256 PUSH1 0x0 PUSH2 0x100 EXP DUP2 SLOAD DUP2 PUSH20 0xFFFFFFFFFFFFFFFFFFFFFFFFFFFFFFFFFFFFFFFF MUL NOT AND SWAP1 DUP4 PUSH20 0xFFFFFFFFFFFFFFFFFFFFFFFFFFFFFFFFFFFFFFFF AND MUL OR SWAP1 SSTORE POP PUSH1 0x1 PUSH1 0x7 PUSH1 0x0 CALLER PUSH20 0xFFFFFFFFFFFFFFFFFFFFFFFFFFFFFFFFFFFFFFFF AND PUSH20 0xFFFFFFFFFFFFFFFFFFFFFFFFFFFFFFFFFFFFFFFF AND DUP2 MSTORE PUSH1 0x20 ADD SWAP1 DUP2 MSTORE PUSH1 0x20 ADD PUSH1 0x0 KECCAK256 PUSH1 0x0 DUP3 DUP3 SLOAD PUSH2 0xBA1 SWAP2 SWAP1 PUSH2 0x2E66 JUMP JUMPDEST SWAP3 POP POP DUP2 SWAP1 SSTORE POP PUSH1 0x1 PUSH1 0x4 PUSH1 0x0 DUP3 DUP3 SLOAD PUSH2 0xBBB SWAP2 SWAP1 PUSH2 0x2E66 JUMP JUMPDEST SWAP3 POP POP DUP2 SWAP1 SSTORE POP PUSH2 0xBEF PUSH1 0xA PUSH1 0x0 SWAP1 SLOAD SWAP1 PUSH2 0x100 EXP SWAP1 DIV PUSH20 0xFFFFFFFFFFFFFFFFFFFFFFFFFFFFFFFFFFFFFFFF AND PUSH1 0x1 PUSH2 0xA6B JUMP JUMPDEST POP POP JUMP JUMPDEST PUSH1 0xB DUP1 SLOAD PUSH2 0xC00 SWAP1 PUSH2 0x2BFD JUMP JUMPDEST DUP1 PUSH1 0x1F ADD PUSH1 0x20 DUP1 SWAP2 DIV MUL PUSH1 0x20 ADD PUSH1 0x40 MLOAD SWAP1 DUP2 ADD PUSH1 0x40 MSTORE DUP1 SWAP3 SWAP2 SWAP1 DUP2 DUP2 MSTORE PUSH1 0x20 ADD DUP3 DUP1 SLOAD PUSH2 0xC2C SWAP1 PUSH2 0x2BFD JUMP JUMPDEST DUP1 ISZERO PUSH2 0xC79 JUMPI DUP1 PUSH1 0x1F LT PUSH2 0xC4E JUMPI PUSH2 0x100 DUP1 DUP4 SLOAD DIV MUL DUP4 MSTORE SWAP2 PUSH1 0x20 ADD SWAP2 PUSH2 0xC79 JUMP JUMPDEST DUP3 ADD SWAP2 SWAP1 PUSH1 0x0 MSTORE PUSH1 0x20 PUSH1 0x0 KECCAK256 SWAP1 JUMPDEST DUP2 SLOAD DUP2 MSTORE SWAP1 PUSH1 0x1 ADD SWAP1 PUSH1 0x20 ADD DUP1 DUP4 GT PUSH2 0xC5C JUMPI DUP3 SWAP1 SUB PUSH1 0x1F AND DUP3 ADD SWAP2 JUMPDEST POP POP POP POP POP DUP2 JUMP JUMPDEST PUSH1 0x0 PUSH1 0x1 PUSH1 0x0 DUP5 PUSH20 0xFFFFFFFFFFFFFFFFFFFFFFFFFFFFFFFFFFFFFFFF AND PUSH20 0xFFFFFFFFFFFFFFFFFFFFFFFFFFFFFFFFFFFFFFFF AND DUP2 MSTORE PUSH1 0x20 ADD SWAP1 DUP2 MSTORE PUSH1 0x20 ADD PUSH1 0x0 KECCAK256 PUSH1 0x0 DUP4 PUSH20 0xFFFFFFFFFFFFFFFFFFFFFFFFFFFFFFFFFFFFFFFF AND PUSH20 0xFFFFFFFFFFFFFFFFFFFFFFFFFFFFFFFFFFFFFFFF AND DUP2 MSTORE PUSH1 0x20 ADD SWAP1 DUP2 MSTORE PUSH1 0x20 ADD PUSH1 0x0 KECCAK256 PUSH1 0x0 SWAP1 SLOAD SWAP1 PUSH2 0x100 EXP SWAP1 DIV PUSH1 0xFF AND SWAP1 POP SWAP3 SWAP2 POP POP JUMP JUMPDEST PUSH1 0x6 PUSH1 0x20 MSTORE DUP1 PUSH1 0x0 MSTORE PUSH1 0x40 PUSH1 0x0 KECCAK256 PUSH1 0x0 SWAP2 POP SWAP1 POP DUP1 SLOAD PUSH2 0xD34 SWAP1 PUSH2 0x2BFD JUMP JUMPDEST DUP1 PUSH1 0x1F ADD PUSH1 0x20 DUP1 SWAP2 DIV MUL PUSH1 0x20 ADD PUSH1 0x40 MLOAD SWAP1 DUP2 ADD PUSH1 0x40 MSTORE DUP1 SWAP3 SWAP2 SWAP1 DUP2 DUP2 MSTORE PUSH1 0x20 ADD DUP3 DUP1 SLOAD PUSH2 0xD60 SWAP1 PUSH2 0x2BFD JUMP JUMPDEST DUP1 ISZERO PUSH2 0xDAD JUMPI DUP1 PUSH1 0x1F LT PUSH2 0xD82 JUMPI PUSH2 0x100 DUP1 DUP4 SLOAD DIV MUL DUP4 MSTORE SWAP2 PUSH1 0x20 ADD SWAP2 PUSH2 0xDAD JUMP JUMPDEST DUP3 ADD SWAP2 SWAP1 PUSH1 0x0 MSTORE PUSH1 0x20 PUSH1 0x0 KECCAK256 SWAP1 JUMPDEST DUP2 SLOAD DUP2 MSTORE SWAP1 PUSH1 0x1 ADD SWAP1 PUSH1 0x20 ADD DUP1 DUP4 GT PUSH2 0xD90 JUMPI DUP3 SWAP1 SUB PUSH1 0x1F AND DUP3 ADD SWAP2 JUMPDEST POP POP POP POP POP DUP2 JUMP JUMPDEST PUSH2 0xDBD PUSH2 0x1017 JUMP JUMPDEST PUSH20 0xFFFFFFFFFFFFFFFFFFFFFFFFFFFFFFFFFFFFFFFF AND DUP6 PUSH20 0xFFFFFFFFFFFFFFFFFFFFFFFFFFFFFFFFFFFFFFFF AND EQ DUP1 PUSH2 0xE03 JUMPI POP PUSH2 0xE02 DUP6 PUSH2 0xDFD PUSH2 0x1017 JUMP JUMPDEST PUSH2 0xC81 JUMP JUMPDEST JUMPDEST PUSH2 0xE42 JUMPI PUSH1 0x40 MLOAD PUSH32 0x8C379A000000000000000000000000000000000000000000000000000000000 DUP2 MSTORE PUSH1 0x4 ADD PUSH2 0xE39 SWAP1 PUSH2 0x2F2E JUMP JUMPDEST PUSH1 0x40 MLOAD DUP1 SWAP2 SUB SWAP1 REVERT JUMPDEST PUSH2 0xE4F DUP6 DUP6 DUP6 DUP6 DUP6 PUSH2 0x1933 JUMP JUMPDEST POP POP POP POP POP JUMP JUMPDEST PUSH2 0xE5E PUSH2 0x1017 JUMP JUMPDEST PUSH20 0xFFFFFFFFFFFFFFFFFFFFFFFFFFFFFFFFFFFFFFFF AND PUSH2 0xE7C PUSH2 0x9C6 JUMP JUMPDEST PUSH20 0xFFFFFFFFFFFFFFFFFFFFFFFFFFFFFFFFFFFFFFFF AND EQ PUSH2 0xED2 JUMPI PUSH1 0x40 MLOAD PUSH32 0x8C379A000000000000000000000000000000000000000000000000000000000 DUP2 MSTORE PUSH1 0x4 ADD PUSH2 0xEC9 SWAP1 PUSH2 0x2E46 JUMP JUMPDEST PUSH1 0x40 MLOAD DUP1 SWAP2 SUB SWAP1 REVERT JUMPDEST PUSH1 0x0 PUSH20 0xFFFFFFFFFFFFFFFFFFFFFFFFFFFFFFFFFFFFFFFF AND DUP2 PUSH20 0xFFFFFFFFFFFFFFFFFFFFFFFFFFFFFFFFFFFFFFFF AND EQ ISZERO PUSH2 0xF42 JUMPI PUSH1 0x40 MLOAD PUSH32 0x8C379A000000000000000000000000000000000000000000000000000000000 DUP2 MSTORE PUSH1 0x4 ADD PUSH2 0xF39 SWAP1 PUSH2 0x2FC0 JUMP JUMPDEST PUSH1 0x40 MLOAD DUP1 SWAP2 SUB SWAP1 REVERT JUMPDEST PUSH2 0xF4B DUP2 PUSH2 0x1333 JUMP JUMPDEST POP JUMP JUMPDEST PUSH1 0x5 PUSH1 0x0 SWAP1 SLOAD SWAP1 PUSH2 0x100 EXP SWAP1 DIV PUSH20 0xFFFFFFFFFFFFFFFFFFFFFFFFFFFFFFFFFFFFFFFF AND DUP2 JUMP JUMPDEST PUSH1 0x9 PUSH1 0x0 SWAP1 SLOAD SWAP1 PUSH2 0x100 EXP SWAP1 DIV PUSH20 0xFFFFFFFFFFFFFFFFFFFFFFFFFFFFFFFFFFFFFFFF AND DUP2 JUMP JUMPDEST PUSH1 0x0 DUP1 DUP3 EXTCODESIZE SWAP1 POP PUSH1 0x0 DUP2 GT SWAP2 POP POP SWAP2 SWAP1 POP JUMP JUMPDEST PUSH1 0x0 PUSH32 0x1FFC9A700000000000000000000000000000000000000000000000000000000 PUSH28 0xFFFFFFFFFFFFFFFFFFFFFFFFFFFFFFFFFFFFFFFFFFFFFFFFFFFFFFFF NOT AND DUP3 PUSH28 0xFFFFFFFFFFFFFFFFFFFFFFFFFFFFFFFFFFFFFFFFFFFFFFFFFFFFFFFF NOT AND EQ SWAP1 POP SWAP2 SWAP1 POP JUMP JUMPDEST PUSH1 0x0 CALLER SWAP1 POP SWAP1 JUMP JUMPDEST DUP2 MLOAD DUP4 MLOAD EQ PUSH2 0x1063 JUMPI PUSH1 0x40 MLOAD PUSH32 0x8C379A000000000000000000000000000000000000000000000000000000000 DUP2 MSTORE PUSH1 0x4 ADD PUSH2 0x105A SWAP1 PUSH2 0x3052 JUMP JUMPDEST PUSH1 0x40 MLOAD DUP1 SWAP2 SUB SWAP1 REVERT JUMPDEST PUSH1 0x0 PUSH20 0xFFFFFFFFFFFFFFFFFFFFFFFFFFFFFFFFFFFFFFFF AND DUP5 PUSH20 0xFFFFFFFFFFFFFFFFFFFFFFFFFFFFFFFFFFFFFFFF AND EQ ISZERO PUSH2 0x10D3 JUMPI PUSH1 0x40 MLOAD PUSH32 0x8C379A000000000000000000000000000000000000000000000000000000000 DUP2 MSTORE PUSH1 0x4 ADD PUSH2 0x10CA SWAP1 PUSH2 0x30E4 JUMP JUMPDEST PUSH1 0x40 MLOAD DUP1 SWAP2 SUB SWAP1 REVERT JUMPDEST PUSH1 0x0 PUSH2 0x10DD PUSH2 0x1017 JUMP JUMPDEST SWAP1 POP PUSH2 0x10ED DUP2 DUP8 DUP8 DUP8 DUP8 DUP8 PUSH2 0x1BB5 JUMP JUMPDEST PUSH1 0x0 JUMPDEST DUP5 MLOAD DUP2 LT ISZERO PUSH2 0x129E JUMPI PUSH1 0x0 DUP6 DUP3 DUP2 MLOAD DUP2 LT PUSH2 0x110E JUMPI PUSH2 0x110D PUSH2 0x2D53 JUMP JUMPDEST JUMPDEST PUSH1 0x20 MUL PUSH1 0x20 ADD ADD MLOAD SWAP1 POP PUSH1 0x0 DUP6 DUP4 DUP2 MLOAD DUP2 LT PUSH2 0x112D JUMPI PUSH2 0x112C PUSH2 0x2D53 JUMP JUMPDEST JUMPDEST PUSH1 0x20 MUL PUSH1 0x20 ADD ADD MLOAD SWAP1 POP PUSH1 0x0 DUP1 PUSH1 0x0 DUP5 DUP2 MSTORE PUSH1 0x20 ADD SWAP1 DUP2 MSTORE PUSH1 0x20 ADD PUSH1 0x0 KECCAK256 PUSH1 0x0 DUP12 PUSH20 0xFFFFFFFFFFFFFFFFFFFFFFFFFFFFFFFFFFFFFFFF AND PUSH20 0xFFFFFFFFFFFFFFFFFFFFFFFFFFFFFFFFFFFFFFFF AND DUP2 MSTORE PUSH1 0x20 ADD SWAP1 DUP2 MSTORE PUSH1 0x20 ADD PUSH1 0x0 KECCAK256 SLOAD SWAP1 POP DUP2 DUP2 LT ISZERO PUSH2 0x11CE JUMPI PUSH1 0x40 MLOAD PUSH32 0x8C379A000000000000000000000000000000000000000000000000000000000 DUP2 MSTORE PUSH1 0x4 ADD PUSH2 0x11C5 SWAP1 PUSH2 0x3176 JUMP JUMPDEST PUSH1 0x40 MLOAD DUP1 SWAP2 SUB SWAP1 REVERT JUMPDEST DUP2 DUP2 SUB PUSH1 0x0 DUP1 DUP6 DUP2 MSTORE PUSH1 0x20 ADD SWAP1 DUP2 MSTORE PUSH1 0x20 ADD PUSH1 0x0 KECCAK256 PUSH1 0x0 DUP13 PUSH20 0xFFFFFFFFFFFFFFFFFFFFFFFFFFFFFFFFFFFFFFFF AND PUSH20 0xFFFFFFFFFFFFFFFFFFFFFFFFFFFFFFFFFFFFFFFF AND DUP2 MSTORE PUSH1 0x20 ADD SWAP1 DUP2 MSTORE PUSH1 0x20 ADD PUSH1 0x0 KECCAK256 DUP2 SWAP1 SSTORE POP DUP2 PUSH1 0x0 DUP1 DUP6 DUP2 MSTORE PUSH1 0x20 ADD SWAP1 DUP2 MSTORE PUSH1 0x20 ADD PUSH1 0x0 KECCAK256 PUSH1 0x0 DUP12 PUSH20 0xFFFFFFFFFFFFFFFFFFFFFFFFFFFFFFFFFFFFFFFF AND PUSH20 0xFFFFFFFFFFFFFFFFFFFFFFFFFFFFFFFFFFFFFFFF AND DUP2 MSTORE PUSH1 0x20 ADD SWAP1 DUP2 MSTORE PUSH1 0x20 ADD PUSH1 0x0 KECCAK256 PUSH1 0x0 DUP3 DUP3 SLOAD PUSH2 0x1283 SWAP2 SWAP1 PUSH2 0x2E66 JUMP JUMPDEST SWAP3 POP POP DUP2 SWAP1 SSTORE POP POP POP POP DUP1 PUSH2 0x1297 SWAP1 PUSH2 0x2DB1 JUMP JUMPDEST SWAP1 POP PUSH2 0x10F0 JUMP JUMPDEST POP DUP5 PUSH20 0xFFFFFFFFFFFFFFFFFFFFFFFFFFFFFFFFFFFFFFFF AND DUP7 PUSH20 0xFFFFFFFFFFFFFFFFFFFFFFFFFFFFFFFFFFFFFFFF AND DUP3 PUSH20 0xFFFFFFFFFFFFFFFFFFFFFFFFFFFFFFFFFFFFFFFF AND PUSH32 0x4A39DC06D4C0DBC64B70AF90FD698A233A518AA5D07E595D983B8C0526C8F7FB DUP8 DUP8 PUSH1 0x40 MLOAD PUSH2 0x1315 SWAP3 SWAP2 SWAP1 PUSH2 0x3196 JUMP JUMPDEST PUSH1 0x40 MLOAD DUP1 SWAP2 SUB SWAP1 LOG4 PUSH2 0x132B DUP2 DUP8 DUP8 DUP8 DUP8 DUP8 PUSH2 0x1BBD JUMP JUMPDEST POP POP POP POP POP POP JUMP JUMPDEST PUSH1 0x0 PUSH1 0x3 PUSH1 0x0 SWAP1 SLOAD SWAP1 PUSH2 0x100 EXP SWAP1 DIV PUSH20 0xFFFFFFFFFFFFFFFFFFFFFFFFFFFFFFFFFFFFFFFF AND SWAP1 POP DUP2 PUSH1 0x3 PUSH1 0x0 PUSH2 0x100 EXP DUP2 SLOAD DUP2 PUSH20 0xFFFFFFFFFFFFFFFFFFFFFFFFFFFFFFFFFFFFFFFF MUL NOT AND SWAP1 DUP4 PUSH20 0xFFFFFFFFFFFFFFFFFFFFFFFFFFFFFFFFFFFFFFFF AND MUL OR SWAP1 SSTORE POP DUP2 PUSH20 0xFFFFFFFFFFFFFFFFFFFFFFFFFFFFFFFFFFFFFFFF AND DUP2 PUSH20 0xFFFFFFFFFFFFFFFFFFFFFFFFFFFFFFFFFFFFFFFF AND PUSH32 0x8BE0079C531659141344CD1FD0A4F28419497F9722A3DAAFE3B4186F6B6457E0 PUSH1 0x40 MLOAD PUSH1 0x40 MLOAD DUP1 SWAP2 SUB SWAP1 LOG3 POP POP JUMP JUMPDEST PUSH1 0x0 PUSH20 0xFFFFFFFFFFFFFFFFFFFFFFFFFFFFFFFFFFFFFFFF AND DUP4 PUSH20 0xFFFFFFFFFFFFFFFFFFFFFFFFFFFFFFFFFFFFFFFF AND EQ ISZERO PUSH2 0x1469 JUMPI PUSH1 0x40 MLOAD PUSH32 0x8C379A000000000000000000000000000000000000000000000000000000000 DUP2 MSTORE PUSH1 0x4 ADD PUSH2 0x1460 SWAP1 PUSH2 0x323F JUMP JUMPDEST PUSH1 0x40 MLOAD DUP1 SWAP2 SUB SWAP1 REVERT JUMPDEST PUSH1 0x0 PUSH2 0x1473 PUSH2 0x1017 JUMP JUMPDEST SWAP1 POP PUSH2 0x14A3 DUP2 DUP6 PUSH1 0x0 PUSH2 0x1485 DUP8 PUSH2 0x1D95 JUMP JUMPDEST PUSH2 0x148E DUP8 PUSH2 0x1D95 JUMP JUMPDEST PUSH1 0x40 MLOAD DUP1 PUSH1 0x20 ADD PUSH1 0x40 MSTORE DUP1 PUSH1 0x0 DUP2 MSTORE POP PUSH2 0x1BB5 JUMP JUMPDEST PUSH1 0x0 DUP1 PUSH1 0x0 DUP6 DUP2 MSTORE PUSH1 0x20 ADD SWAP1 DUP2 MSTORE PUSH1 0x20 ADD PUSH1 0x0 KECCAK256 PUSH1 0x0 DUP7 PUSH20 0xFFFFFFFFFFFFFFFFFFFFFFFFFFFFFFFFFFFFFFFF AND PUSH20 0xFFFFFFFFFFFFFFFFFFFFFFFFFFFFFFFFFFFFFFFF AND DUP2 MSTORE PUSH1 0x20 ADD SWAP1 DUP2 MSTORE PUSH1 0x20 ADD PUSH1 0x0 KECCAK256 SLOAD SWAP1 POP DUP3 DUP2 LT ISZERO PUSH2 0x153A JUMPI PUSH1 0x40 MLOAD PUSH32 0x8C379A000000000000000000000000000000000000000000000000000000000 DUP2 MSTORE PUSH1 0x4 ADD PUSH2 0x1531 SWAP1 PUSH2 0x32D1 JUMP JUMPDEST PUSH1 0x40 MLOAD DUP1 SWAP2 SUB SWAP1 REVERT JUMPDEST DUP3 DUP2 SUB PUSH1 0x0 DUP1 DUP7 DUP2 MSTORE PUSH1 0x20 ADD SWAP1 DUP2 MSTORE PUSH1 0x20 ADD PUSH1 0x0 KECCAK256 PUSH1 0x0 DUP8 PUSH20 0xFFFFFFFFFFFFFFFFFFFFFFFFFFFFFFFFFFFFFFFF AND PUSH20 0xFFFFFFFFFFFFFFFFFFFFFFFFFFFFFFFFFFFFFFFF AND DUP2 MSTORE PUSH1 0x20 ADD SWAP1 DUP2 MSTORE PUSH1 0x20 ADD PUSH1 0x0 KECCAK256 DUP2 SWAP1 SSTORE POP PUSH1 0x0 PUSH20 0xFFFFFFFFFFFFFFFFFFFFFFFFFFFFFFFFFFFFFFFF AND DUP6 PUSH20 0xFFFFFFFFFFFFFFFFFFFFFFFFFFFFFFFFFFFFFFFF AND DUP4 PUSH20 0xFFFFFFFFFFFFFFFFFFFFFFFFFFFFFFFFFFFFFFFF AND PUSH32 0xC3D58168C5AE7397731D063D5BBF3D657854427343F4C083240F7AACAA2D0F62 DUP8 DUP8 PUSH1 0x40 MLOAD PUSH2 0x1607 SWAP3 SWAP2 SWAP1 PUSH2 0x32F1 JUMP JUMPDEST PUSH1 0x40 MLOAD DUP1 SWAP2 SUB SWAP1 LOG4 POP POP POP POP POP JUMP JUMPDEST DUP2 PUSH20 0xFFFFFFFFFFFFFFFFFFFFFFFFFFFFFFFFFFFFFFFF AND DUP4 PUSH20 0xFFFFFFFFFFFFFFFFFFFFFFFFFFFFFFFFFFFFFFFF AND EQ ISZERO PUSH2 0x1685 JUMPI PUSH1 0x40 MLOAD PUSH32 0x8C379A000000000000000000000000000000000000000000000000000000000 DUP2 MSTORE PUSH1 0x4 ADD PUSH2 0x167C SWAP1 PUSH2 0x338C JUMP JUMPDEST PUSH1 0x40 MLOAD DUP1 SWAP2 SUB SWAP1 REVERT JUMPDEST DUP1 PUSH1 0x1 PUSH1 0x0 DUP6 PUSH20 0xFFFFFFFFFFFFFFFFFFFFFFFFFFFFFFFFFFFFFFFF AND PUSH20 0xFFFFFFFFFFFFFFFFFFFFFFFFFFFFFFFFFFFFFFFF AND DUP2 MSTORE PUSH1 0x20 ADD SWAP1 DUP2 MSTORE PUSH1 0x20 ADD PUSH1 0x0 KECCAK256 PUSH1 0x0 DUP5 PUSH20 0xFFFFFFFFFFFFFFFFFFFFFFFFFFFFFFFFFFFFFFFF AND PUSH20 0xFFFFFFFFFFFFFFFFFFFFFFFFFFFFFFFFFFFFFFFF AND DUP2 MSTORE PUSH1 0x20 ADD SWAP1 DUP2 MSTORE PUSH1 0x20 ADD PUSH1 0x0 KECCAK256 PUSH1 0x0 PUSH2 0x100 EXP DUP2 SLOAD DUP2 PUSH1 0xFF MUL NOT AND SWAP1 DUP4 ISZERO ISZERO MUL OR SWAP1 SSTORE POP DUP2 PUSH20 0xFFFFFFFFFFFFFFFFFFFFFFFFFFFFFFFFFFFFFFFF AND DUP4 PUSH20 0xFFFFFFFFFFFFFFFFFFFFFFFFFFFFFFFFFFFFFFFF AND PUSH32 0x17307EAB39AB6107E8899845AD3D59BD9653F200F220920489CA2B5937696C31 DUP4 PUSH1 0x40 MLOAD PUSH2 0x1776 SWAP2 SWAP1 PUSH2 0x223C JUMP JUMPDEST PUSH1 0x40 MLOAD DUP1 SWAP2 SUB SWAP1 LOG3 POP POP POP JUMP JUMPDEST PUSH1 0x0 PUSH20 0xFFFFFFFFFFFFFFFFFFFFFFFFFFFFFFFFFFFFFFFF AND DUP5 PUSH20 0xFFFFFFFFFFFFFFFFFFFFFFFFFFFFFFFFFFFFFFFF AND EQ ISZERO PUSH2 0x17F3 JUMPI PUSH1 0x40 MLOAD PUSH32 0x8C379A000000000000000000000000000000000000000000000000000000000 DUP2 MSTORE PUSH1 0x4 ADD PUSH2 0x17EA SWAP1 PUSH2 0x341E JUMP JUMPDEST PUSH1 0x40 MLOAD DUP1 SWAP2 SUB SWAP1 REVERT JUMPDEST PUSH1 0x0 PUSH2 0x17FD PUSH2 0x1017 JUMP JUMPDEST SWAP1 POP PUSH2 0x181E DUP2 PUSH1 0x0 DUP8 PUSH2 0x180F DUP9 PUSH2 0x1D95 JUMP JUMPDEST PUSH2 0x1818 DUP9 PUSH2 0x1D95 JUMP JUMPDEST DUP8 PUSH2 0x1BB5 JUMP JUMPDEST DUP3 PUSH1 0x0 DUP1 DUP7 DUP2 MSTORE PUSH1 0x20 ADD SWAP1 DUP2 MSTORE PUSH1 0x20 ADD PUSH1 0x0 KECCAK256 PUSH1 0x0 DUP8 PUSH20 0xFFFFFFFFFFFFFFFFFFFFFFFFFFFFFFFFFFFFFFFF AND PUSH20 0xFFFFFFFFFFFFFFFFFFFFFFFFFFFFFFFFFFFFFFFF AND DUP2 MSTORE PUSH1 0x20 ADD SWAP1 DUP2 MSTORE PUSH1 0x20 ADD PUSH1 0x0 KECCAK256 PUSH1 0x0 DUP3 DUP3 SLOAD PUSH2 0x187D SWAP2 SWAP1 PUSH2 0x2E66 JUMP JUMPDEST SWAP3 POP POP DUP2 SWAP1 SSTORE POP DUP5 PUSH20 0xFFFFFFFFFFFFFFFFFFFFFFFFFFFFFFFFFFFFFFFF AND PUSH1 0x0 PUSH20 0xFFFFFFFFFFFFFFFFFFFFFFFFFFFFFFFFFFFFFFFF AND DUP3 PUSH20 0xFFFFFFFFFFFFFFFFFFFFFFFFFFFFFFFFFFFFFFFF AND PUSH32 0xC3D58168C5AE7397731D063D5BBF3D657854427343F4C083240F7AACAA2D0F62 DUP8 DUP8 PUSH1 0x40 MLOAD PUSH2 0x18FB SWAP3 SWAP2 SWAP1 PUSH2 0x32F1 JUMP JUMPDEST PUSH1 0x40 MLOAD DUP1 SWAP2 SUB SWAP1 LOG4 PUSH2 0x1912 DUP2 PUSH1 0x0 DUP8 DUP8 DUP8 DUP8 PUSH2 0x1E0F JUMP JUMPDEST POP POP POP POP POP JUMP JUMPDEST DUP1 PUSH1 0x2 SWAP1 DUP1 MLOAD SWAP1 PUSH1 0x20 ADD SWAP1 PUSH2 0x192F SWAP3 SWAP2 SWAP1 PUSH2 0x1FE7 JUMP JUMPDEST POP POP JUMP JUMPDEST PUSH1 0x0 PUSH20 0xFFFFFFFFFFFFFFFFFFFFFFFFFFFFFFFFFFFFFFFF AND DUP5 PUSH20 0xFFFFFFFFFFFFFFFFFFFFFFFFFFFFFFFFFFFFFFFF AND EQ ISZERO PUSH2 0x19A3 JUMPI PUSH1 0x40 MLOAD PUSH32 0x8C379A000000000000000000000000000000000000000000000000000000000 DUP2 MSTORE PUSH1 0x4 ADD PUSH2 0x199A SWAP1 PUSH2 0x30E4 JUMP JUMPDEST PUSH1 0x40 MLOAD DUP1 SWAP2 SUB SWAP1 REVERT JUMPDEST PUSH1 0x0 PUSH2 0x19AD PUSH2 0x1017 JUMP JUMPDEST SWAP1 POP PUSH2 0x19CD DUP2 DUP8 DUP8 PUSH2 0x19BE DUP9 PUSH2 0x1D95 JUMP JUMPDEST PUSH2 0x19C7 DUP9 PUSH2 0x1D95 JUMP JUMPDEST DUP8 PUSH2 0x1BB5 JUMP JUMPDEST PUSH1 0x0 DUP1 PUSH1 0x0 DUP7 DUP2 MSTORE PUSH1 0x20 ADD SWAP1 DUP2 MSTORE PUSH1 0x20 ADD PUSH1 0x0 KECCAK256 PUSH1 0x0 DUP9 PUSH20 0xFFFFFFFFFFFFFFFFFFFFFFFFFFFFFFFFFFFFFFFF AND PUSH20 0xFFFFFFFFFFFFFFFFFFFFFFFFFFFFFFFFFFFFFFFF AND DUP2 MSTORE PUSH1 0x20 ADD SWAP1 DUP2 MSTORE PUSH1 0x20 ADD PUSH1 0x0 KECCAK256 SLOAD SWAP1 POP DUP4 DUP2 LT ISZERO PUSH2 0x1A64 JUMPI PUSH1 0x40 MLOAD PUSH32 0x8C379A000000000000000000000000000000000000000000000000000000000 DUP2 MSTORE PUSH1 0x4 ADD PUSH2 0x1A5B SWAP1 PUSH2 0x3176 JUMP JUMPDEST PUSH1 0x40 MLOAD DUP1 SWAP2 SUB SWAP1 REVERT JUMPDEST DUP4 DUP2 SUB PUSH1 0x0 DUP1 DUP8 DUP2 MSTORE PUSH1 0x20 ADD SWAP1 DUP2 MSTORE PUSH1 0x20 ADD PUSH1 0x0 KECCAK256 PUSH1 0x0 DUP10 PUSH20 0xFFFFFFFFFFFFFFFFFFFFFFFFFFFFFFFFFFFFFFFF AND PUSH20 0xFFFFFFFFFFFFFFFFFFFFFFFFFFFFFFFFFFFFFFFF AND DUP2 MSTORE PUSH1 0x20 ADD SWAP1 DUP2 MSTORE PUSH1 0x20 ADD PUSH1 0x0 KECCAK256 DUP2 SWAP1 SSTORE POP DUP4 PUSH1 0x0 DUP1 DUP8 DUP2 MSTORE PUSH1 0x20 ADD SWAP1 DUP2 MSTORE PUSH1 0x20 ADD PUSH1 0x0 KECCAK256 PUSH1 0x0 DUP9 PUSH20 0xFFFFFFFFFFFFFFFFFFFFFFFFFFFFFFFFFFFFFFFF AND PUSH20 0xFFFFFFFFFFFFFFFFFFFFFFFFFFFFFFFFFFFFFFFF AND DUP2 MSTORE PUSH1 0x20 ADD SWAP1 DUP2 MSTORE PUSH1 0x20 ADD PUSH1 0x0 KECCAK256 PUSH1 0x0 DUP3 DUP3 SLOAD PUSH2 0x1B19 SWAP2 SWAP1 PUSH2 0x2E66 JUMP JUMPDEST SWAP3 POP POP DUP2 SWAP1 SSTORE POP DUP6 PUSH20 0xFFFFFFFFFFFFFFFFFFFFFFFFFFFFFFFFFFFFFFFF AND DUP8 PUSH20 0xFFFFFFFFFFFFFFFFFFFFFFFFFFFFFFFFFFFFFFFF AND DUP4 PUSH20 0xFFFFFFFFFFFFFFFFFFFFFFFFFFFFFFFFFFFFFFFF AND PUSH32 0xC3D58168C5AE7397731D063D5BBF3D657854427343F4C083240F7AACAA2D0F62 DUP9 DUP9 PUSH1 0x40 MLOAD PUSH2 0x1B96 SWAP3 SWAP2 SWAP1 PUSH2 0x32F1 JUMP JUMPDEST PUSH1 0x40 MLOAD DUP1 SWAP2 SUB SWAP1 LOG4 PUSH2 0x1BAC DUP3 DUP9 DUP9 DUP9 DUP9 DUP9 PUSH2 0x1E0F JUMP JUMPDEST POP POP POP POP POP POP POP JUMP JUMPDEST POP POP POP POP POP POP JUMP JUMPDEST PUSH2 0x1BDC DUP5 PUSH20 0xFFFFFFFFFFFFFFFFFFFFFFFFFFFFFFFFFFFFFFFF AND PUSH2 0xF9A JUMP JUMPDEST ISZERO PUSH2 0x1D8D JUMPI DUP4 PUSH20 0xFFFFFFFFFFFFFFFFFFFFFFFFFFFFFFFFFFFFFFFF AND PUSH4 0xBC197C81 DUP8 DUP8 DUP7 DUP7 DUP7 PUSH1 0x40 MLOAD DUP7 PUSH4 0xFFFFFFFF AND PUSH1 0xE0 SHL DUP2 MSTORE PUSH1 0x4 ADD PUSH2 0x1C22 SWAP6 SWAP5 SWAP4 SWAP3 SWAP2 SWAP1 PUSH2 0x3493 JUMP JUMPDEST PUSH1 0x20 PUSH1 0x40 MLOAD DUP1 DUP4 SUB DUP2 PUSH1 0x0 DUP8 GAS CALL SWAP3 POP POP POP DUP1 ISZERO PUSH2 0x1C5E JUMPI POP PUSH1 0x40 MLOAD RETURNDATASIZE PUSH1 0x1F NOT PUSH1 0x1F DUP3 ADD AND DUP3 ADD DUP1 PUSH1 0x40 MSTORE POP DUP2 ADD SWAP1 PUSH2 0x1C5B SWAP2 SWAP1 PUSH2 0x3510 JUMP JUMPDEST PUSH1 0x1 JUMPDEST PUSH2 0x1D04 JUMPI PUSH2 0x1C6A PUSH2 0x354A JUMP JUMPDEST DUP1 PUSH4 0x8C379A0 EQ ISZERO PUSH2 0x1CC7 JUMPI POP PUSH2 0x1C7F PUSH2 0x356C JUMP JUMPDEST DUP1 PUSH2 0x1C8A JUMPI POP PUSH2 0x1CC9 JUMP JUMPDEST DUP1 PUSH1 0x40 MLOAD PUSH32 0x8C379A000000000000000000000000000000000000000000000000000000000 DUP2 MSTORE PUSH1 0x4 ADD PUSH2 0x1CBE SWAP2 SWAP1 PUSH2 0x234A JUMP JUMPDEST PUSH1 0x40 MLOAD DUP1 SWAP2 SUB SWAP1 REVERT JUMPDEST POP JUMPDEST PUSH1 0x40 MLOAD PUSH32 0x8C379A000000000000000000000000000000000000000000000000000000000 DUP2 MSTORE PUSH1 0x4 ADD PUSH2 0x1CFB SWAP1 PUSH2 0x3674 JUMP JUMPDEST PUSH1 0x40 MLOAD DUP1 SWAP2 SUB SWAP1 REVERT JUMPDEST PUSH4 0xBC197C81 PUSH1 0xE0 SHL PUSH28 0xFFFFFFFFFFFFFFFFFFFFFFFFFFFFFFFFFFFFFFFFFFFFFFFFFFFFFFFF NOT AND DUP2 PUSH28 0xFFFFFFFFFFFFFFFFFFFFFFFFFFFFFFFFFFFFFFFFFFFFFFFFFFFFFFFF NOT AND EQ PUSH2 0x1D8B JUMPI PUSH1 0x40 MLOAD PUSH32 0x8C379A000000000000000000000000000000000000000000000000000000000 DUP2 MSTORE PUSH1 0x4 ADD PUSH2 0x1D82 SWAP1 PUSH2 0x3706 JUMP JUMPDEST PUSH1 0x40 MLOAD DUP1 SWAP2 SUB SWAP1 REVERT JUMPDEST POP JUMPDEST POP POP POP POP POP POP JUMP JUMPDEST PUSH1 0x60 PUSH1 0x0 PUSH1 0x1 PUSH8 0xFFFFFFFFFFFFFFFF DUP2 GT ISZERO PUSH2 0x1DB4 JUMPI PUSH2 0x1DB3 PUSH2 0x2371 JUMP JUMPDEST JUMPDEST PUSH1 0x40 MLOAD SWAP1 DUP1 DUP3 MSTORE DUP1 PUSH1 0x20 MUL PUSH1 0x20 ADD DUP3 ADD PUSH1 0x40 MSTORE DUP1 ISZERO PUSH2 0x1DE2 JUMPI DUP2 PUSH1 0x20 ADD PUSH1 0x20 DUP3 MUL DUP1 CALLDATASIZE DUP4 CALLDATACOPY DUP1 DUP3 ADD SWAP2 POP POP SWAP1 POP JUMPDEST POP SWAP1 POP DUP3 DUP2 PUSH1 0x0 DUP2 MLOAD DUP2 LT PUSH2 0x1DFA JUMPI PUSH2 0x1DF9 PUSH2 0x2D53 JUMP JUMPDEST JUMPDEST PUSH1 0x20 MUL PUSH1 0x20 ADD ADD DUP2 DUP2 MSTORE POP POP DUP1 SWAP2 POP POP SWAP2 SWAP1 POP JUMP JUMPDEST PUSH2 0x1E2E DUP5 PUSH20 0xFFFFFFFFFFFFFFFFFFFFFFFFFFFFFFFFFFFFFFFF AND PUSH2 0xF9A JUMP JUMPDEST ISZERO PUSH2 0x1FDF JUMPI DUP4 PUSH20 0xFFFFFFFFFFFFFFFFFFFFFFFFFFFFFFFFFFFFFFFF AND PUSH4 0xF23A6E61 DUP8 DUP8 DUP7 DUP7 DUP7 PUSH1 0x40 MLOAD DUP7 PUSH4 0xFFFFFFFF AND PUSH1 0xE0 SHL DUP2 MSTORE PUSH1 0x4 ADD PUSH2 0x1E74 SWAP6 SWAP5 SWAP4 SWAP3 SWAP2 SWAP1 PUSH2 0x3726 JUMP JUMPDEST PUSH1 0x20 PUSH1 0x40 MLOAD DUP1 DUP4 SUB DUP2 PUSH1 0x0 DUP8 GAS CALL SWAP3 POP POP POP DUP1 ISZERO PUSH2 0x1EB0 JUMPI POP PUSH1 0x40 MLOAD RETURNDATASIZE PUSH1 0x1F NOT PUSH1 0x1F DUP3 ADD AND DUP3 ADD DUP1 PUSH1 0x40 MSTORE POP DUP2 ADD SWAP1 PUSH2 0x1EAD SWAP2 SWAP1 PUSH2 0x3510 JUMP JUMPDEST PUSH1 0x1 JUMPDEST PUSH2 0x1F56 JUMPI PUSH2 0x1EBC PUSH2 0x354A JUMP JUMPDEST DUP1 PUSH4 0x8C379A0 EQ ISZERO PUSH2 0x1F19 JUMPI POP PUSH2 0x1ED1 PUSH2 0x356C JUMP JUMPDEST DUP1 PUSH2 0x1EDC JUMPI POP PUSH2 0x1F1B JUMP JUMPDEST DUP1 PUSH1 0x40 MLOAD PUSH32 0x8C379A000000000000000000000000000000000000000000000000000000000 DUP2 MSTORE PUSH1 0x4 ADD PUSH2 0x1F10 SWAP2 SWAP1 PUSH2 0x234A JUMP JUMPDEST PUSH1 0x40 MLOAD DUP1 SWAP2 SUB SWAP1 REVERT JUMPDEST POP JUMPDEST PUSH1 0x40 MLOAD PUSH32 0x8C379A000000000000000000000000000000000000000000000000000000000 DUP2 MSTORE PUSH1 0x4 ADD PUSH2 0x1F4D SWAP1 PUSH2 0x3674 JUMP JUMPDEST PUSH1 0x40 MLOAD DUP1 SWAP2 SUB SWAP1 REVERT JUMPDEST PUSH4 0xF23A6E61 PUSH1 0xE0 SHL PUSH28 0xFFFFFFFFFFFFFFFFFFFFFFFFFFFFFFFFFFFFFFFFFFFFFFFFFFFFFFFF NOT AND DUP2 PUSH28 0xFFFFFFFFFFFFFFFFFFFFFFFFFFFFFFFFFFFFFFFFFFFFFFFFFFFFFFFF NOT AND EQ PUSH2 0x1FDD JUMPI PUSH1 0x40 MLOAD PUSH32 0x8C379A000000000000000000000000000000000000000000000000000000000 DUP2 MSTORE PUSH1 0x4 ADD PUSH2 0x1FD4 SWAP1 PUSH2 0x3706 JUMP JUMPDEST PUSH1 0x40 MLOAD DUP1 SWAP2 SUB SWAP1 REVERT JUMPDEST POP JUMPDEST POP POP POP POP POP POP JUMP JUMPDEST DUP3 DUP1 SLOAD PUSH2 0x1FF3 SWAP1 PUSH2 0x2BFD JUMP JUMPDEST SWAP1 PUSH1 0x0 MSTORE PUSH1 0x20 PUSH1 0x0 KECCAK256 SWAP1 PUSH1 0x1F ADD PUSH1 0x20 SWAP1 DIV DUP2 ADD SWAP3 DUP3 PUSH2 0x2015 JUMPI PUSH1 0x0 DUP6 SSTORE PUSH2 0x205C JUMP JUMPDEST DUP3 PUSH1 0x1F LT PUSH2 0x202E JUMPI DUP1 MLOAD PUSH1 0xFF NOT AND DUP4 DUP1 ADD OR DUP6 SSTORE PUSH2 0x205C JUMP JUMPDEST DUP3 DUP1 ADD PUSH1 0x1 ADD DUP6 SSTORE DUP3 ISZERO PUSH2 0x205C JUMPI SWAP2 DUP3 ADD JUMPDEST DUP3 DUP2 GT ISZERO PUSH2 0x205B JUMPI DUP3 MLOAD DUP3 SSTORE SWAP2 PUSH1 0x20 ADD SWAP2 SWAP1 PUSH1 0x1 ADD SWAP1 PUSH2 0x2040 JUMP JUMPDEST JUMPDEST POP SWAP1 POP PUSH2 0x2069 SWAP2 SWAP1 PUSH2 0x206D JUMP JUMPDEST POP SWAP1 JUMP JUMPDEST JUMPDEST DUP1 DUP3 GT ISZERO PUSH2 0x2086 JUMPI PUSH1 0x0 DUP2 PUSH1 0x0 SWAP1 SSTORE POP PUSH1 0x1 ADD PUSH2 0x206E JUMP JUMPDEST POP SWAP1 JUMP JUMPDEST PUSH1 0x0 PUSH1 0x40 MLOAD SWAP1 POP SWAP1 JUMP JUMPDEST PUSH1 0x0 DUP1 REVERT JUMPDEST PUSH1 0x0 DUP1 REVERT JUMPDEST PUSH1 0x0 PUSH20 0xFFFFFFFFFFFFFFFFFFFFFFFFFFFFFFFFFFFFFFFF DUP3 AND SWAP1 POP SWAP2 SWAP1 POP JUMP JUMPDEST PUSH1 0x0 PUSH2 0x20C9 DUP3 PUSH2 0x209E JUMP JUMPDEST SWAP1 POP SWAP2 SWAP1 POP JUMP JUMPDEST PUSH2 0x20D9 DUP2 PUSH2 0x20BE JUMP JUMPDEST DUP2 EQ PUSH2 0x20E4 JUMPI PUSH1 0x0 DUP1 REVERT JUMPDEST POP JUMP JUMPDEST PUSH1 0x0 DUP2 CALLDATALOAD SWAP1 POP PUSH2 0x20F6 DUP2 PUSH2 0x20D0 JUMP JUMPDEST SWAP3 SWAP2 POP POP JUMP JUMPDEST PUSH1 0x0 DUP2 SWAP1 POP SWAP2 SWAP1 POP JUMP JUMPDEST PUSH2 0x210F DUP2 PUSH2 0x20FC JUMP JUMPDEST DUP2 EQ PUSH2 0x211A JUMPI PUSH1 0x0 DUP1 REVERT JUMPDEST POP JUMP JUMPDEST PUSH1 0x0 DUP2 CALLDATALOAD SWAP1 POP PUSH2 0x212C DUP2 PUSH2 0x2106 JUMP JUMPDEST SWAP3 SWAP2 POP POP JUMP JUMPDEST PUSH1 0x0 DUP1 PUSH1 0x40 DUP4 DUP6 SUB SLT ISZERO PUSH2 0x2149 JUMPI PUSH2 0x2148 PUSH2 0x2094 JUMP JUMPDEST JUMPDEST PUSH1 0x0 PUSH2 0x2157 DUP6 DUP3 DUP7 ADD PUSH2 0x20E7 JUMP JUMPDEST SWAP3 POP POP PUSH1 0x20 PUSH2 0x2168 DUP6 DUP3 DUP7 ADD PUSH2 0x211D JUMP JUMPDEST SWAP2 POP POP SWAP3 POP SWAP3 SWAP1 POP JUMP JUMPDEST PUSH2 0x217B DUP2 PUSH2 0x20FC JUMP JUMPDEST DUP3 MSTORE POP POP JUMP JUMPDEST PUSH1 0x0 PUSH1 0x20 DUP3 ADD SWAP1 POP PUSH2 0x2196 PUSH1 0x0 DUP4 ADD DUP5 PUSH2 0x2172 JUMP JUMPDEST SWAP3 SWAP2 POP POP JUMP JUMPDEST PUSH1 0x0 PUSH32 0xFFFFFFFF00000000000000000000000000000000000000000000000000000000 DUP3 AND SWAP1 POP SWAP2 SWAP1 POP JUMP JUMPDEST PUSH2 0x21D1 DUP2 PUSH2 0x219C JUMP JUMPDEST DUP2 EQ PUSH2 0x21DC JUMPI PUSH1 0x0 DUP1 REVERT JUMPDEST POP JUMP JUMPDEST PUSH1 0x0 DUP2 CALLDATALOAD SWAP1 POP PUSH2 0x21EE DUP2 PUSH2 0x21C8 JUMP JUMPDEST SWAP3 SWAP2 POP POP JUMP JUMPDEST PUSH1 0x0 PUSH1 0x20 DUP3 DUP5 SUB SLT ISZERO PUSH2 0x220A JUMPI PUSH2 0x2209 PUSH2 0x2094 JUMP JUMPDEST JUMPDEST PUSH1 0x0 PUSH2 0x2218 DUP5 DUP3 DUP6 ADD PUSH2 0x21DF JUMP JUMPDEST SWAP2 POP POP SWAP3 SWAP2 POP POP JUMP JUMPDEST PUSH1 0x0 DUP2 ISZERO ISZERO SWAP1 POP SWAP2 SWAP1 POP JUMP JUMPDEST PUSH2 0x2236 DUP2 PUSH2 0x2221 JUMP JUMPDEST DUP3 MSTORE POP POP JUMP JUMPDEST PUSH1 0x0 PUSH1 0x20 DUP3 ADD SWAP1 POP PUSH2 0x2251 PUSH1 0x0 DUP4 ADD DUP5 PUSH2 0x222D JUMP JUMPDEST SWAP3 SWAP2 POP POP JUMP JUMPDEST PUSH1 0x0 PUSH1 0x20 DUP3 DUP5 SUB SLT ISZERO PUSH2 0x226D JUMPI PUSH2 0x226C PUSH2 0x2094 JUMP JUMPDEST JUMPDEST PUSH1 0x0 PUSH2 0x227B DUP5 DUP3 DUP6 ADD PUSH2 0x20E7 JUMP JUMPDEST SWAP2 POP POP SWAP3 SWAP2 POP POP JUMP JUMPDEST PUSH1 0x0 PUSH1 0x20 DUP3 DUP5 SUB SLT ISZERO PUSH2 0x229A JUMPI PUSH2 0x2299 PUSH2 0x2094 JUMP JUMPDEST JUMPDEST PUSH1 0x0 PUSH2 0x22A8 DUP5 DUP3 DUP6 ADD PUSH2 0x211D JUMP JUMPDEST SWAP2 POP POP SWAP3 SWAP2 POP POP JUMP JUMPDEST PUSH1 0x0 DUP2 MLOAD SWAP1 POP SWAP2 SWAP1 POP JUMP JUMPDEST PUSH1 0x0 DUP3 DUP3 MSTORE PUSH1 0x20 DUP3 ADD SWAP1 POP SWAP3 SWAP2 POP POP JUMP JUMPDEST PUSH1 0x0 JUMPDEST DUP4 DUP2 LT ISZERO PUSH2 0x22EB JUMPI DUP1 DUP3 ADD MLOAD DUP2 DUP5 ADD MSTORE PUSH1 0x20 DUP2 ADD SWAP1 POP PUSH2 0x22D0 JUMP JUMPDEST DUP4 DUP2 GT ISZERO PUSH2 0x22FA JUMPI PUSH1 0x0 DUP5 DUP5 ADD MSTORE JUMPDEST POP POP POP POP JUMP JUMPDEST PUSH1 0x0 PUSH1 0x1F NOT PUSH1 0x1F DUP4 ADD AND SWAP1 POP SWAP2 SWAP1 POP JUMP JUMPDEST PUSH1 0x0 PUSH2 0x231C DUP3 PUSH2 0x22B1 JUMP JUMPDEST PUSH2 0x2326 DUP2 DUP6 PUSH2 0x22BC JUMP JUMPDEST SWAP4 POP PUSH2 0x2336 DUP2 DUP6 PUSH1 0x20 DUP7 ADD PUSH2 0x22CD JUMP JUMPDEST PUSH2 0x233F DUP2 PUSH2 0x2300 JUMP JUMPDEST DUP5 ADD SWAP2 POP POP SWAP3 SWAP2 POP POP JUMP JUMPDEST PUSH1 0x0 PUSH1 0x20 DUP3 ADD SWAP1 POP DUP2 DUP2 SUB PUSH1 0x0 DUP4 ADD MSTORE PUSH2 0x2364 DUP2 DUP5 PUSH2 0x2311 JUMP JUMPDEST SWAP1 POP SWAP3 SWAP2 POP POP JUMP JUMPDEST PUSH1 0x0 DUP1 REVERT JUMPDEST PUSH32 0x4E487B7100000000000000000000000000000000000000000000000000000000 PUSH1 0x0 MSTORE PUSH1 0x41 PUSH1 0x4 MSTORE PUSH1 0x24 PUSH1 0x0 REVERT JUMPDEST PUSH2 0x23A9 DUP3 PUSH2 0x2300 JUMP JUMPDEST DUP2 ADD DUP2 DUP2 LT PUSH8 0xFFFFFFFFFFFFFFFF DUP3 GT OR ISZERO PUSH2 0x23C8 JUMPI PUSH2 0x23C7 PUSH2 0x2371 JUMP JUMPDEST JUMPDEST DUP1 PUSH1 0x40 MSTORE POP POP POP JUMP JUMPDEST PUSH1 0x0 PUSH2 0x23DB PUSH2 0x208A JUMP JUMPDEST SWAP1 POP PUSH2 0x23E7 DUP3 DUP3 PUSH2 0x23A0 JUMP JUMPDEST SWAP2 SWAP1 POP JUMP JUMPDEST PUSH1 0x0 PUSH8 0xFFFFFFFFFFFFFFFF DUP3 GT ISZERO PUSH2 0x2407 JUMPI PUSH2 0x2406 PUSH2 0x2371 JUMP JUMPDEST JUMPDEST PUSH1 0x20 DUP3 MUL SWAP1 POP PUSH1 0x20 DUP2 ADD SWAP1 POP SWAP2 SWAP1 POP JUMP JUMPDEST PUSH1 0x0 DUP1 REVERT JUMPDEST PUSH1 0x0 PUSH2 0x2430 PUSH2 0x242B DUP5 PUSH2 0x23EC JUMP JUMPDEST PUSH2 0x23D1 JUMP JUMPDEST SWAP1 POP DUP1 DUP4 DUP3 MSTORE PUSH1 0x20 DUP3 ADD SWAP1 POP PUSH1 0x20 DUP5 MUL DUP4 ADD DUP6 DUP2 GT ISZERO PUSH2 0x2453 JUMPI PUSH2 0x2452 PUSH2 0x2418 JUMP JUMPDEST JUMPDEST DUP4 JUMPDEST DUP2 DUP2 LT ISZERO PUSH2 0x247C JUMPI DUP1 PUSH2 0x2468 DUP9 DUP3 PUSH2 0x211D JUMP JUMPDEST DUP5 MSTORE PUSH1 0x20 DUP5 ADD SWAP4 POP POP PUSH1 0x20 DUP2 ADD SWAP1 POP PUSH2 0x2455 JUMP JUMPDEST POP POP POP SWAP4 SWAP3 POP POP POP JUMP JUMPDEST PUSH1 0x0 DUP3 PUSH1 0x1F DUP4 ADD SLT PUSH2 0x249B JUMPI PUSH2 0x249A PUSH2 0x236C JUMP JUMPDEST JUMPDEST DUP2 CALLDATALOAD PUSH2 0x24AB DUP5 DUP3 PUSH1 0x20 DUP7 ADD PUSH2 0x241D JUMP JUMPDEST SWAP2 POP POP SWAP3 SWAP2 POP POP JUMP JUMPDEST PUSH1 0x0 DUP1 REVERT JUMPDEST PUSH1 0x0 PUSH8 0xFFFFFFFFFFFFFFFF DUP3 GT ISZERO PUSH2 0x24D4 JUMPI PUSH2 0x24D3 PUSH2 0x2371 JUMP JUMPDEST JUMPDEST PUSH2 0x24DD DUP3 PUSH2 0x2300 JUMP JUMPDEST SWAP1 POP PUSH1 0x20 DUP2 ADD SWAP1 POP SWAP2 SWAP1 POP JUMP JUMPDEST DUP3 DUP2 DUP4 CALLDATACOPY PUSH1 0x0 DUP4 DUP4 ADD MSTORE POP POP POP JUMP JUMPDEST PUSH1 0x0 PUSH2 0x250C PUSH2 0x2507 DUP5 PUSH2 0x24B9 JUMP JUMPDEST PUSH2 0x23D1 JUMP JUMPDEST SWAP1 POP DUP3 DUP2 MSTORE PUSH1 0x20 DUP2 ADD DUP5 DUP5 DUP5 ADD GT ISZERO PUSH2 0x2528 JUMPI PUSH2 0x2527 PUSH2 0x24B4 JUMP JUMPDEST JUMPDEST PUSH2 0x2533 DUP5 DUP3 DUP6 PUSH2 0x24EA JUMP JUMPDEST POP SWAP4 SWAP3 POP POP POP JUMP JUMPDEST PUSH1 0x0 DUP3 PUSH1 0x1F DUP4 ADD SLT PUSH2 0x2550 JUMPI PUSH2 0x254F PUSH2 0x236C JUMP JUMPDEST JUMPDEST DUP2 CALLDATALOAD PUSH2 0x2560 DUP5 DUP3 PUSH1 0x20 DUP7 ADD PUSH2 0x24F9 JUMP JUMPDEST SWAP2 POP POP SWAP3 SWAP2 POP POP JUMP JUMPDEST PUSH1 0x0 DUP1 PUSH1 0x0 DUP1 PUSH1 0x0 PUSH1 0xA0 DUP7 DUP9 SUB SLT ISZERO PUSH2 0x2585 JUMPI PUSH2 0x2584 PUSH2 0x2094 JUMP JUMPDEST JUMPDEST PUSH1 0x0 PUSH2 0x2593 DUP9 DUP3 DUP10 ADD PUSH2 0x20E7 JUMP JUMPDEST SWAP6 POP POP PUSH1 0x20 PUSH2 0x25A4 DUP9 DUP3 DUP10 ADD PUSH2 0x20E7 JUMP JUMPDEST SWAP5 POP POP PUSH1 0x40 DUP7 ADD CALLDATALOAD PUSH8 0xFFFFFFFFFFFFFFFF DUP2 GT ISZERO PUSH2 0x25C5 JUMPI PUSH2 0x25C4 PUSH2 0x2099 JUMP JUMPDEST JUMPDEST PUSH2 0x25D1 DUP9 DUP3 DUP10 ADD PUSH2 0x2486 JUMP JUMPDEST SWAP4 POP POP PUSH1 0x60 DUP7 ADD CALLDATALOAD PUSH8 0xFFFFFFFFFFFFFFFF DUP2 GT ISZERO PUSH2 0x25F2 JUMPI PUSH2 0x25F1 PUSH2 0x2099 JUMP JUMPDEST JUMPDEST PUSH2 0x25FE DUP9 DUP3 DUP10 ADD PUSH2 0x2486 JUMP JUMPDEST SWAP3 POP POP PUSH1 0x80 DUP7 ADD CALLDATALOAD PUSH8 0xFFFFFFFFFFFFFFFF DUP2 GT ISZERO PUSH2 0x261F JUMPI PUSH2 0x261E PUSH2 0x2099 JUMP JUMPDEST JUMPDEST PUSH2 0x262B DUP9 DUP3 DUP10 ADD PUSH2 0x253B JUMP JUMPDEST SWAP2 POP POP SWAP3 SWAP6 POP SWAP3 SWAP6 SWAP1 SWAP4 POP JUMP JUMPDEST PUSH1 0x0 PUSH8 0xFFFFFFFFFFFFFFFF DUP3 GT ISZERO PUSH2 0x2653 JUMPI PUSH2 0x2652 PUSH2 0x2371 JUMP JUMPDEST JUMPDEST PUSH1 0x20 DUP3 MUL SWAP1 POP PUSH1 0x20 DUP2 ADD SWAP1 POP SWAP2 SWAP1 POP JUMP JUMPDEST PUSH1 0x0 PUSH2 0x2677 PUSH2 0x2672 DUP5 PUSH2 0x2638 JUMP JUMPDEST PUSH2 0x23D1 JUMP JUMPDEST SWAP1 POP DUP1 DUP4 DUP3 MSTORE PUSH1 0x20 DUP3 ADD SWAP1 POP PUSH1 0x20 DUP5 MUL DUP4 ADD DUP6 DUP2 GT ISZERO PUSH2 0x269A JUMPI PUSH2 0x2699 PUSH2 0x2418 JUMP JUMPDEST JUMPDEST DUP4 JUMPDEST DUP2 DUP2 LT ISZERO PUSH2 0x26C3 JUMPI DUP1 PUSH2 0x26AF DUP9 DUP3 PUSH2 0x20E7 JUMP JUMPDEST DUP5 MSTORE PUSH1 0x20 DUP5 ADD SWAP4 POP POP PUSH1 0x20 DUP2 ADD SWAP1 POP PUSH2 0x269C JUMP JUMPDEST POP POP POP SWAP4 SWAP3 POP POP POP JUMP JUMPDEST PUSH1 0x0 DUP3 PUSH1 0x1F DUP4 ADD SLT PUSH2 0x26E2 JUMPI PUSH2 0x26E1 PUSH2 0x236C JUMP JUMPDEST JUMPDEST DUP2 CALLDATALOAD PUSH2 0x26F2 DUP5 DUP3 PUSH1 0x20 DUP7 ADD PUSH2 0x2664 JUMP JUMPDEST SWAP2 POP POP SWAP3 SWAP2 POP POP JUMP JUMPDEST PUSH1 0x0 DUP1 PUSH1 0x40 DUP4 DUP6 SUB SLT ISZERO PUSH2 0x2712 JUMPI PUSH2 0x2711 PUSH2 0x2094 JUMP JUMPDEST JUMPDEST PUSH1 0x0 DUP4 ADD CALLDATALOAD PUSH8 0xFFFFFFFFFFFFFFFF DUP2 GT ISZERO PUSH2 0x2730 JUMPI PUSH2 0x272F PUSH2 0x2099 JUMP JUMPDEST JUMPDEST PUSH2 0x273C DUP6 DUP3 DUP7 ADD PUSH2 0x26CD JUMP JUMPDEST SWAP3 POP POP PUSH1 0x20 DUP4 ADD CALLDATALOAD PUSH8 0xFFFFFFFFFFFFFFFF DUP2 GT ISZERO PUSH2 0x275D JUMPI PUSH2 0x275C PUSH2 0x2099 JUMP JUMPDEST JUMPDEST PUSH2 0x2769 DUP6 DUP3 DUP7 ADD PUSH2 0x2486 JUMP JUMPDEST SWAP2 POP POP SWAP3 POP SWAP3 SWAP1 POP JUMP JUMPDEST PUSH1 0x0 DUP2 MLOAD SWAP1 POP SWAP2 SWAP1 POP JUMP JUMPDEST PUSH1 0x0 DUP3 DUP3 MSTORE PUSH1 0x20 DUP3 ADD SWAP1 POP SWAP3 SWAP2 POP POP JUMP JUMPDEST PUSH1 0x0 DUP2 SWAP1 POP PUSH1 0x20 DUP3 ADD SWAP1 POP SWAP2 SWAP1 POP JUMP JUMPDEST PUSH2 0x27A8 DUP2 PUSH2 0x20FC JUMP JUMPDEST DUP3 MSTORE POP POP JUMP JUMPDEST PUSH1 0x0 PUSH2 0x27BA DUP4 DUP4 PUSH2 0x279F JUMP JUMPDEST PUSH1 0x20 DUP4 ADD SWAP1 POP SWAP3 SWAP2 POP POP JUMP JUMPDEST PUSH1 0x0 PUSH1 0x20 DUP3 ADD SWAP1 POP SWAP2 SWAP1 POP JUMP JUMPDEST PUSH1 0x0 PUSH2 0x27DE DUP3 PUSH2 0x2773 JUMP JUMPDEST PUSH2 0x27E8 DUP2 DUP6 PUSH2 0x277E JUMP JUMPDEST SWAP4 POP PUSH2 0x27F3 DUP4 PUSH2 0x278F JUMP JUMPDEST DUP1 PUSH1 0x0 JUMPDEST DUP4 DUP2 LT ISZERO PUSH2 0x2824 JUMPI DUP2 MLOAD PUSH2 0x280B DUP9 DUP3 PUSH2 0x27AE JUMP JUMPDEST SWAP8 POP PUSH2 0x2816 DUP4 PUSH2 0x27C6 JUMP JUMPDEST SWAP3 POP POP PUSH1 0x1 DUP2 ADD SWAP1 POP PUSH2 0x27F7 JUMP JUMPDEST POP DUP6 SWAP4 POP POP POP POP SWAP3 SWAP2 POP POP JUMP JUMPDEST PUSH1 0x0 PUSH1 0x20 DUP3 ADD SWAP1 POP DUP2 DUP2 SUB PUSH1 0x0 DUP4 ADD MSTORE PUSH2 0x284B DUP2 DUP5 PUSH2 0x27D3 JUMP JUMPDEST SWAP1 POP SWAP3 SWAP2 POP POP JUMP JUMPDEST PUSH2 0x285C DUP2 PUSH2 0x20BE JUMP JUMPDEST DUP3 MSTORE POP POP JUMP JUMPDEST PUSH1 0x0 PUSH1 0x20 DUP3 ADD SWAP1 POP PUSH2 0x2877 PUSH1 0x0 DUP4 ADD DUP5 PUSH2 0x2853 JUMP JUMPDEST SWAP3 SWAP2 POP POP JUMP JUMPDEST PUSH2 0x2886 DUP2 PUSH2 0x2221 JUMP JUMPDEST DUP2 EQ PUSH2 0x2891 JUMPI PUSH1 0x0 DUP1 REVERT JUMPDEST POP JUMP JUMPDEST PUSH1 0x0 DUP2 CALLDATALOAD SWAP1 POP PUSH2 0x28A3 DUP2 PUSH2 0x287D JUMP JUMPDEST SWAP3 SWAP2 POP POP JUMP JUMPDEST PUSH1 0x0 DUP1 PUSH1 0x40 DUP4 DUP6 SUB SLT ISZERO PUSH2 0x28C0 JUMPI PUSH2 0x28BF PUSH2 0x2094 JUMP JUMPDEST JUMPDEST PUSH1 0x0 PUSH2 0x28CE DUP6 DUP3 DUP7 ADD PUSH2 0x20E7 JUMP JUMPDEST SWAP3 POP POP PUSH1 0x20 PUSH2 0x28DF DUP6 DUP3 DUP7 ADD PUSH2 0x2894 JUMP JUMPDEST SWAP2 POP POP SWAP3 POP SWAP3 SWAP1 POP JUMP JUMPDEST PUSH1 0x0 PUSH8 0xFFFFFFFFFFFFFFFF DUP3 GT ISZERO PUSH2 0x2904 JUMPI PUSH2 0x2903 PUSH2 0x2371 JUMP JUMPDEST JUMPDEST PUSH2 0x290D DUP3 PUSH2 0x2300 JUMP JUMPDEST SWAP1 POP PUSH1 0x20 DUP2 ADD SWAP1 POP SWAP2 SWAP1 POP JUMP JUMPDEST PUSH1 0x0 PUSH2 0x292D PUSH2 0x2928 DUP5 PUSH2 0x28E9 JUMP JUMPDEST PUSH2 0x23D1 JUMP JUMPDEST SWAP1 POP DUP3 DUP2 MSTORE PUSH1 0x20 DUP2 ADD DUP5 DUP5 DUP5 ADD GT ISZERO PUSH2 0x2949 JUMPI PUSH2 0x2948 PUSH2 0x24B4 JUMP JUMPDEST JUMPDEST PUSH2 0x2954 DUP5 DUP3 DUP6 PUSH2 0x24EA JUMP JUMPDEST POP SWAP4 SWAP3 POP POP POP JUMP JUMPDEST PUSH1 0x0 DUP3 PUSH1 0x1F DUP4 ADD SLT PUSH2 0x2971 JUMPI PUSH2 0x2970 PUSH2 0x236C JUMP JUMPDEST JUMPDEST DUP2 CALLDATALOAD PUSH2 0x2981 DUP5 DUP3 PUSH1 0x20 DUP7 ADD PUSH2 0x291A JUMP JUMPDEST SWAP2 POP POP SWAP3 SWAP2 POP POP JUMP JUMPDEST PUSH1 0x0 PUSH1 0x20 DUP3 DUP5 SUB SLT ISZERO PUSH2 0x29A0 JUMPI PUSH2 0x299F PUSH2 0x2094 JUMP JUMPDEST JUMPDEST PUSH1 0x0 DUP3 ADD CALLDATALOAD PUSH8 0xFFFFFFFFFFFFFFFF DUP2 GT ISZERO PUSH2 0x29BE JUMPI PUSH2 0x29BD PUSH2 0x2099 JUMP JUMPDEST JUMPDEST PUSH2 0x29CA DUP5 DUP3 DUP6 ADD PUSH2 0x295C JUMP JUMPDEST SWAP2 POP POP SWAP3 SWAP2 POP POP JUMP JUMPDEST PUSH1 0x0 DUP1 PUSH1 0x40 DUP4 DUP6 SUB SLT ISZERO PUSH2 0x29EA JUMPI PUSH2 0x29E9 PUSH2 0x2094 JUMP JUMPDEST JUMPDEST PUSH1 0x0 PUSH2 0x29F8 DUP6 DUP3 DUP7 ADD PUSH2 0x20E7 JUMP JUMPDEST SWAP3 POP POP PUSH1 0x20 PUSH2 0x2A09 DUP6 DUP3 DUP7 ADD PUSH2 0x20E7 JUMP JUMPDEST SWAP2 POP POP SWAP3 POP SWAP3 SWAP1 POP JUMP JUMPDEST PUSH1 0x0 DUP1 PUSH1 0x0 DUP1 PUSH1 0x0 PUSH1 0xA0 DUP7 DUP9 SUB SLT ISZERO PUSH2 0x2A2F JUMPI PUSH2 0x2A2E PUSH2 0x2094 JUMP JUMPDEST JUMPDEST PUSH1 0x0 PUSH2 0x2A3D DUP9 DUP3 DUP10 ADD PUSH2 0x20E7 JUMP JUMPDEST SWAP6 POP POP PUSH1 0x20 PUSH2 0x2A4E DUP9 DUP3 DUP10 ADD PUSH2 0x20E7 JUMP JUMPDEST SWAP5 POP POP PUSH1 0x40 PUSH2 0x2A5F DUP9 DUP3 DUP10 ADD PUSH2 0x211D JUMP JUMPDEST SWAP4 POP POP PUSH1 0x60 PUSH2 0x2A70 DUP9 DUP3 DUP10 ADD PUSH2 0x211D JUMP JUMPDEST SWAP3 POP POP PUSH1 0x80 DUP7 ADD CALLDATALOAD PUSH8 0xFFFFFFFFFFFFFFFF DUP2 GT ISZERO PUSH2 0x2A91 JUMPI PUSH2 0x2A90 PUSH2 0x2099 JUMP JUMPDEST JUMPDEST PUSH2 0x2A9D DUP9 DUP3 DUP10 ADD PUSH2 0x253B JUMP JUMPDEST SWAP2 POP POP SWAP3 SWAP6 POP SWAP3 SWAP6 SWAP1 SWAP4 POP JUMP JUMPDEST PUSH32 0x455243313135353A2062616C616E636520717565727920666F7220746865207A PUSH1 0x0 DUP3 ADD MSTORE PUSH32 0x65726F2061646472657373000000000000000000000000000000000000000000 PUSH1 0x20 DUP3 ADD MSTORE POP JUMP JUMPDEST PUSH1 0x0 PUSH2 0x2B06 PUSH1 0x2B DUP4 PUSH2 0x22BC JUMP JUMPDEST SWAP2 POP PUSH2 0x2B11 DUP3 PUSH2 0x2AAA JUMP JUMPDEST PUSH1 0x40 DUP3 ADD SWAP1 POP SWAP2 SWAP1 POP JUMP JUMPDEST PUSH1 0x0 PUSH1 0x20 DUP3 ADD SWAP1 POP DUP2 DUP2 SUB PUSH1 0x0 DUP4 ADD MSTORE PUSH2 0x2B35 DUP2 PUSH2 0x2AF9 JUMP JUMPDEST SWAP1 POP SWAP2 SWAP1 POP JUMP JUMPDEST PUSH32 0x46756E6374696F6E206F6E6C7920617661696C61626C6520666F722074686520 PUSH1 0x0 DUP3 ADD MSTORE PUSH32 0x61646D696E2E0000000000000000000000000000000000000000000000000000 PUSH1 0x20 DUP3 ADD MSTORE POP JUMP JUMPDEST PUSH1 0x0 PUSH2 0x2B98 PUSH1 0x26 DUP4 PUSH2 0x22BC JUMP JUMPDEST SWAP2 POP PUSH2 0x2BA3 DUP3 PUSH2 0x2B3C JUMP JUMPDEST PUSH1 0x40 DUP3 ADD SWAP1 POP SWAP2 SWAP1 POP JUMP JUMPDEST PUSH1 0x0 PUSH1 0x20 DUP3 ADD SWAP1 POP DUP2 DUP2 SUB PUSH1 0x0 DUP4 ADD MSTORE PUSH2 0x2BC7 DUP2 PUSH2 0x2B8B JUMP JUMPDEST SWAP1 POP SWAP2 SWAP1 POP JUMP JUMPDEST PUSH32 0x4E487B7100000000000000000000000000000000000000000000000000000000 PUSH1 0x0 MSTORE PUSH1 0x22 PUSH1 0x4 MSTORE PUSH1 0x24 PUSH1 0x0 REVERT JUMPDEST PUSH1 0x0 PUSH1 0x2 DUP3 DIV SWAP1 POP PUSH1 0x1 DUP3 AND DUP1 PUSH2 0x2C15 JUMPI PUSH1 0x7F DUP3 AND SWAP2 POP JUMPDEST PUSH1 0x20 DUP3 LT DUP2 EQ ISZERO PUSH2 0x2C29 JUMPI PUSH2 0x2C28 PUSH2 0x2BCE JUMP JUMPDEST JUMPDEST POP SWAP2 SWAP1 POP JUMP JUMPDEST PUSH32 0x455243313135353A207472616E736665722063616C6C6572206973206E6F7420 PUSH1 0x0 DUP3 ADD MSTORE PUSH32 0x6F776E6572206E6F7220617070726F7665640000000000000000000000000000 PUSH1 0x20 DUP3 ADD MSTORE POP JUMP JUMPDEST PUSH1 0x0 PUSH2 0x2C8B PUSH1 0x32 DUP4 PUSH2 0x22BC JUMP JUMPDEST SWAP2 POP PUSH2 0x2C96 DUP3 PUSH2 0x2C2F JUMP JUMPDEST PUSH1 0x40 DUP3 ADD SWAP1 POP SWAP2 SWAP1 POP JUMP JUMPDEST PUSH1 0x0 PUSH1 0x20 DUP3 ADD SWAP1 POP DUP2 DUP2 SUB PUSH1 0x0 DUP4 ADD MSTORE PUSH2 0x2CBA DUP2 PUSH2 0x2C7E JUMP JUMPDEST SWAP1 POP SWAP2 SWAP1 POP JUMP JUMPDEST PUSH32 0x455243313135353A206163636F756E747320616E6420696473206C656E677468 PUSH1 0x0 DUP3 ADD MSTORE PUSH32 0x206D69736D617463680000000000000000000000000000000000000000000000 PUSH1 0x20 DUP3 ADD MSTORE POP JUMP JUMPDEST PUSH1 0x0 PUSH2 0x2D1D PUSH1 0x29 DUP4 PUSH2 0x22BC JUMP JUMPDEST SWAP2 POP PUSH2 0x2D28 DUP3 PUSH2 0x2CC1 JUMP JUMPDEST PUSH1 0x40 DUP3 ADD SWAP1 POP SWAP2 SWAP1 POP JUMP JUMPDEST PUSH1 0x0 PUSH1 0x20 DUP3 ADD SWAP1 POP DUP2 DUP2 SUB PUSH1 0x0 DUP4 ADD MSTORE PUSH2 0x2D4C DUP2 PUSH2 0x2D10 JUMP JUMPDEST SWAP1 POP SWAP2 SWAP1 POP JUMP JUMPDEST PUSH32 0x4E487B7100000000000000000000000000000000000000000000000000000000 PUSH1 0x0 MSTORE PUSH1 0x32 PUSH1 0x4 MSTORE PUSH1 0x24 PUSH1 0x0 REVERT JUMPDEST PUSH32 0x4E487B7100000000000000000000000000000000000000000000000000000000 PUSH1 0x0 MSTORE PUSH1 0x11 PUSH1 0x4 MSTORE PUSH1 0x24 PUSH1 0x0 REVERT JUMPDEST PUSH1 0x0 PUSH2 0x2DBC DUP3 PUSH2 0x20FC JUMP JUMPDEST SWAP2 POP PUSH32 0xFFFFFFFFFFFFFFFFFFFFFFFFFFFFFFFFFFFFFFFFFFFFFFFFFFFFFFFFFFFFFFFF DUP3 EQ ISZERO PUSH2 0x2DEF JUMPI PUSH2 0x2DEE PUSH2 0x2D82 JUMP JUMPDEST JUMPDEST PUSH1 0x1 DUP3 ADD SWAP1 POP SWAP2 SWAP1 POP JUMP JUMPDEST PUSH32 0x4F776E61626C653A2063616C6C6572206973206E6F7420746865206F776E6572 PUSH1 0x0 DUP3 ADD MSTORE POP JUMP JUMPDEST PUSH1 0x0 PUSH2 0x2E30 PUSH1 0x20 DUP4 PUSH2 0x22BC JUMP JUMPDEST SWAP2 POP PUSH2 0x2E3B DUP3 PUSH2 0x2DFA JUMP JUMPDEST PUSH1 0x20 DUP3 ADD SWAP1 POP SWAP2 SWAP1 POP JUMP JUMPDEST PUSH1 0x0 PUSH1 0x20 DUP3 ADD SWAP1 POP DUP2 DUP2 SUB PUSH1 0x0 DUP4 ADD MSTORE PUSH2 0x2E5F DUP2 PUSH2 0x2E23 JUMP JUMPDEST SWAP1 POP SWAP2 SWAP1 POP JUMP JUMPDEST PUSH1 0x0 PUSH2 0x2E71 DUP3 PUSH2 0x20FC JUMP JUMPDEST SWAP2 POP PUSH2 0x2E7C DUP4 PUSH2 0x20FC JUMP JUMPDEST SWAP3 POP DUP3 PUSH32 0xFFFFFFFFFFFFFFFFFFFFFFFFFFFFFFFFFFFFFFFFFFFFFFFFFFFFFFFFFFFFFFFF SUB DUP3 GT ISZERO PUSH2 0x2EB1 JUMPI PUSH2 0x2EB0 PUSH2 0x2D82 JUMP JUMPDEST JUMPDEST DUP3 DUP3 ADD SWAP1 POP SWAP3 SWAP2 POP POP JUMP JUMPDEST PUSH32 0x455243313135353A2063616C6C6572206973206E6F74206F776E6572206E6F72 PUSH1 0x0 DUP3 ADD MSTORE PUSH32 0x20617070726F7665640000000000000000000000000000000000000000000000 PUSH1 0x20 DUP3 ADD MSTORE POP JUMP JUMPDEST PUSH1 0x0 PUSH2 0x2F18 PUSH1 0x29 DUP4 PUSH2 0x22BC JUMP JUMPDEST SWAP2 POP PUSH2 0x2F23 DUP3 PUSH2 0x2EBC JUMP JUMPDEST PUSH1 0x40 DUP3 ADD SWAP1 POP SWAP2 SWAP1 POP JUMP JUMPDEST PUSH1 0x0 PUSH1 0x20 DUP3 ADD SWAP1 POP DUP2 DUP2 SUB PUSH1 0x0 DUP4 ADD MSTORE PUSH2 0x2F47 DUP2 PUSH2 0x2F0B JUMP JUMPDEST SWAP1 POP SWAP2 SWAP1 POP JUMP JUMPDEST PUSH32 0x4F776E61626C653A206E6577206F776E657220697320746865207A65726F2061 PUSH1 0x0 DUP3 ADD MSTORE PUSH32 0x6464726573730000000000000000000000000000000000000000000000000000 PUSH1 0x20 DUP3 ADD MSTORE POP JUMP JUMPDEST PUSH1 0x0 PUSH2 0x2FAA PUSH1 0x26 DUP4 PUSH2 0x22BC JUMP JUMPDEST SWAP2 POP PUSH2 0x2FB5 DUP3 PUSH2 0x2F4E JUMP JUMPDEST PUSH1 0x40 DUP3 ADD SWAP1 POP SWAP2 SWAP1 POP JUMP JUMPDEST PUSH1 0x0 PUSH1 0x20 DUP3 ADD SWAP1 POP DUP2 DUP2 SUB PUSH1 0x0 DUP4 ADD MSTORE PUSH2 0x2FD9 DUP2 PUSH2 0x2F9D JUMP JUMPDEST SWAP1 POP SWAP2 SWAP1 POP JUMP JUMPDEST PUSH32 0x455243313135353A2069647320616E6420616D6F756E7473206C656E67746820 PUSH1 0x0 DUP3 ADD MSTORE PUSH32 0x6D69736D61746368000000000000000000000000000000000000000000000000 PUSH1 0x20 DUP3 ADD MSTORE POP JUMP JUMPDEST PUSH1 0x0 PUSH2 0x303C PUSH1 0x28 DUP4 PUSH2 0x22BC JUMP JUMPDEST SWAP2 POP PUSH2 0x3047 DUP3 PUSH2 0x2FE0 JUMP JUMPDEST PUSH1 0x40 DUP3 ADD SWAP1 POP SWAP2 SWAP1 POP JUMP JUMPDEST PUSH1 0x0 PUSH1 0x20 DUP3 ADD SWAP1 POP DUP2 DUP2 SUB PUSH1 0x0 DUP4 ADD MSTORE PUSH2 0x306B DUP2 PUSH2 0x302F JUMP JUMPDEST SWAP1 POP SWAP2 SWAP1 POP JUMP JUMPDEST PUSH32 0x455243313135353A207472616E7366657220746F20746865207A65726F206164 PUSH1 0x0 DUP3 ADD MSTORE PUSH32 0x6472657373000000000000000000000000000000000000000000000000000000 PUSH1 0x20 DUP3 ADD MSTORE POP JUMP JUMPDEST PUSH1 0x0 PUSH2 0x30CE PUSH1 0x25 DUP4 PUSH2 0x22BC JUMP JUMPDEST SWAP2 POP PUSH2 0x30D9 DUP3 PUSH2 0x3072 JUMP JUMPDEST PUSH1 0x40 DUP3 ADD SWAP1 POP SWAP2 SWAP1 POP JUMP JUMPDEST PUSH1 0x0 PUSH1 0x20 DUP3 ADD SWAP1 POP DUP2 DUP2 SUB PUSH1 0x0 DUP4 ADD MSTORE PUSH2 0x30FD DUP2 PUSH2 0x30C1 JUMP JUMPDEST SWAP1 POP SWAP2 SWAP1 POP JUMP JUMPDEST PUSH32 0x455243313135353A20696E73756666696369656E742062616C616E636520666F PUSH1 0x0 DUP3 ADD MSTORE PUSH32 0x72207472616E7366657200000000000000000000000000000000000000000000 PUSH1 0x20 DUP3 ADD MSTORE POP JUMP JUMPDEST PUSH1 0x0 PUSH2 0x3160 PUSH1 0x2A DUP4 PUSH2 0x22BC JUMP JUMPDEST SWAP2 POP PUSH2 0x316B DUP3 PUSH2 0x3104 JUMP JUMPDEST PUSH1 0x40 DUP3 ADD SWAP1 POP SWAP2 SWAP1 POP JUMP JUMPDEST PUSH1 0x0 PUSH1 0x20 DUP3 ADD SWAP1 POP DUP2 DUP2 SUB PUSH1 0x0 DUP4 ADD MSTORE PUSH2 0x318F DUP2 PUSH2 0x3153 JUMP JUMPDEST SWAP1 POP SWAP2 SWAP1 POP JUMP JUMPDEST PUSH1 0x0 PUSH1 0x40 DUP3 ADD SWAP1 POP DUP2 DUP2 SUB PUSH1 0x0 DUP4 ADD MSTORE PUSH2 0x31B0 DUP2 DUP6 PUSH2 0x27D3 JUMP JUMPDEST SWAP1 POP DUP2 DUP2 SUB PUSH1 0x20 DUP4 ADD MSTORE PUSH2 0x31C4 DUP2 DUP5 PUSH2 0x27D3 JUMP JUMPDEST SWAP1 POP SWAP4 SWAP3 POP POP POP JUMP JUMPDEST PUSH32 0x455243313135353A206275726E2066726F6D20746865207A65726F2061646472 PUSH1 0x0 DUP3 ADD MSTORE PUSH32 0x6573730000000000000000000000000000000000000000000000000000000000 PUSH1 0x20 DUP3 ADD MSTORE POP JUMP JUMPDEST PUSH1 0x0 PUSH2 0x3229 PUSH1 0x23 DUP4 PUSH2 0x22BC JUMP JUMPDEST SWAP2 POP PUSH2 0x3234 DUP3 PUSH2 0x31CD JUMP JUMPDEST PUSH1 0x40 DUP3 ADD SWAP1 POP SWAP2 SWAP1 POP JUMP JUMPDEST PUSH1 0x0 PUSH1 0x20 DUP3 ADD SWAP1 POP DUP2 DUP2 SUB PUSH1 0x0 DUP4 ADD MSTORE PUSH2 0x3258 DUP2 PUSH2 0x321C JUMP JUMPDEST SWAP1 POP SWAP2 SWAP1 POP JUMP JUMPDEST PUSH32 0x455243313135353A206275726E20616D6F756E7420657863656564732062616C PUSH1 0x0 DUP3 ADD MSTORE PUSH32 0x616E636500000000000000000000000000000000000000000000000000000000 PUSH1 0x20 DUP3 ADD MSTORE POP JUMP JUMPDEST PUSH1 0x0 PUSH2 0x32BB PUSH1 0x24 DUP4 PUSH2 0x22BC JUMP JUMPDEST SWAP2 POP PUSH2 0x32C6 DUP3 PUSH2 0x325F JUMP JUMPDEST PUSH1 0x40 DUP3 ADD SWAP1 POP SWAP2 SWAP1 POP JUMP JUMPDEST PUSH1 0x0 PUSH1 0x20 DUP3 ADD SWAP1 POP DUP2 DUP2 SUB PUSH1 0x0 DUP4 ADD MSTORE PUSH2 0x32EA DUP2 PUSH2 0x32AE JUMP JUMPDEST SWAP1 POP SWAP2 SWAP1 POP JUMP JUMPDEST PUSH1 0x0 PUSH1 0x40 DUP3 ADD SWAP1 POP PUSH2 0x3306 PUSH1 0x0 DUP4 ADD DUP6 PUSH2 0x2172 JUMP JUMPDEST PUSH2 0x3313 PUSH1 0x20 DUP4 ADD DUP5 PUSH2 0x2172 JUMP JUMPDEST SWAP4 SWAP3 POP POP POP JUMP JUMPDEST PUSH32 0x455243313135353A2073657474696E6720617070726F76616C20737461747573 PUSH1 0x0 DUP3 ADD MSTORE PUSH32 0x20666F722073656C660000000000000000000000000000000000000000000000 PUSH1 0x20 DUP3 ADD MSTORE POP JUMP JUMPDEST PUSH1 0x0 PUSH2 0x3376 PUSH1 0x29 DUP4 PUSH2 0x22BC JUMP JUMPDEST SWAP2 POP PUSH2 0x3381 DUP3 PUSH2 0x331A JUMP JUMPDEST PUSH1 0x40 DUP3 ADD SWAP1 POP SWAP2 SWAP1 POP JUMP JUMPDEST PUSH1 0x0 PUSH1 0x20 DUP3 ADD SWAP1 POP DUP2 DUP2 SUB PUSH1 0x0 DUP4 ADD MSTORE PUSH2 0x33A5 DUP2 PUSH2 0x3369 JUMP JUMPDEST SWAP1 POP SWAP2 SWAP1 POP JUMP JUMPDEST PUSH32 0x455243313135353A206D696E7420746F20746865207A65726F20616464726573 PUSH1 0x0 DUP3 ADD MSTORE PUSH32 0x7300000000000000000000000000000000000000000000000000000000000000 PUSH1 0x20 DUP3 ADD MSTORE POP JUMP JUMPDEST PUSH1 0x0 PUSH2 0x3408 PUSH1 0x21 DUP4 PUSH2 0x22BC JUMP JUMPDEST SWAP2 POP PUSH2 0x3413 DUP3 PUSH2 0x33AC JUMP JUMPDEST PUSH1 0x40 DUP3 ADD SWAP1 POP SWAP2 SWAP1 POP JUMP JUMPDEST PUSH1 0x0 PUSH1 0x20 DUP3 ADD SWAP1 POP DUP2 DUP2 SUB PUSH1 0x0 DUP4 ADD MSTORE PUSH2 0x3437 DUP2 PUSH2 0x33FB JUMP JUMPDEST SWAP1 POP SWAP2 SWAP1 POP JUMP JUMPDEST PUSH1 0x0 DUP2 MLOAD SWAP1 POP SWAP2 SWAP1 POP JUMP JUMPDEST PUSH1 0x0 DUP3 DUP3 MSTORE PUSH1 0x20 DUP3 ADD SWAP1 POP SWAP3 SWAP2 POP POP JUMP JUMPDEST PUSH1 0x0 PUSH2 0x3465 DUP3 PUSH2 0x343E JUMP JUMPDEST PUSH2 0x346F DUP2 DUP6 PUSH2 0x3449 JUMP JUMPDEST SWAP4 POP PUSH2 0x347F DUP2 DUP6 PUSH1 0x20 DUP7 ADD PUSH2 0x22CD JUMP JUMPDEST PUSH2 0x3488 DUP2 PUSH2 0x2300 JUMP JUMPDEST DUP5 ADD SWAP2 POP POP SWAP3 SWAP2 POP POP JUMP JUMPDEST PUSH1 0x0 PUSH1 0xA0 DUP3 ADD SWAP1 POP PUSH2 0x34A8 PUSH1 0x0 DUP4 ADD DUP9 PUSH2 0x2853 JUMP JUMPDEST PUSH2 0x34B5 PUSH1 0x20 DUP4 ADD DUP8 PUSH2 0x2853 JUMP JUMPDEST DUP2 DUP2 SUB PUSH1 0x40 DUP4 ADD MSTORE PUSH2 0x34C7 DUP2 DUP7 PUSH2 0x27D3 JUMP JUMPDEST SWAP1 POP DUP2 DUP2 SUB PUSH1 0x60 DUP4 ADD MSTORE PUSH2 0x34DB DUP2 DUP6 PUSH2 0x27D3 JUMP JUMPDEST SWAP1 POP DUP2 DUP2 SUB PUSH1 0x80 DUP4 ADD MSTORE PUSH2 0x34EF DUP2 DUP5 PUSH2 0x345A JUMP JUMPDEST SWAP1 POP SWAP7 SWAP6 POP POP POP POP POP POP JUMP JUMPDEST PUSH1 0x0 DUP2 MLOAD SWAP1 POP PUSH2 0x350A DUP2 PUSH2 0x21C8 JUMP JUMPDEST SWAP3 SWAP2 POP POP JUMP JUMPDEST PUSH1 0x0 PUSH1 0x20 DUP3 DUP5 SUB SLT ISZERO PUSH2 0x3526 JUMPI PUSH2 0x3525 PUSH2 0x2094 JUMP JUMPDEST JUMPDEST PUSH1 0x0 PUSH2 0x3534 DUP5 DUP3 DUP6 ADD PUSH2 0x34FB JUMP JUMPDEST SWAP2 POP POP SWAP3 SWAP2 POP POP JUMP JUMPDEST PUSH1 0x0 DUP2 PUSH1 0xE0 SHR SWAP1 POP SWAP2 SWAP1 POP JUMP JUMPDEST PUSH1 0x0 PUSH1 0x3 RETURNDATASIZE GT ISZERO PUSH2 0x3569 JUMPI PUSH1 0x4 PUSH1 0x0 DUP1 RETURNDATACOPY PUSH2 0x3566 PUSH1 0x0 MLOAD PUSH2 0x353D JUMP JUMPDEST SWAP1 POP JUMPDEST SWAP1 JUMP JUMPDEST PUSH1 0x0 PUSH1 0x44 RETURNDATASIZE LT ISZERO PUSH2 0x357C JUMPI PUSH2 0x35FF JUMP JUMPDEST PUSH2 0x3584 PUSH2 0x208A JUMP JUMPDEST PUSH1 0x4 RETURNDATASIZE SUB PUSH1 0x4 DUP3 RETURNDATACOPY DUP1 MLOAD RETURNDATASIZE PUSH1 0x24 DUP3 ADD GT PUSH8 0xFFFFFFFFFFFFFFFF DUP3 GT OR ISZERO PUSH2 0x35AC JUMPI POP POP PUSH2 0x35FF JUMP JUMPDEST DUP1 DUP3 ADD DUP1 MLOAD PUSH8 0xFFFFFFFFFFFFFFFF DUP2 GT ISZERO PUSH2 0x35CA JUMPI POP POP POP POP PUSH2 0x35FF JUMP JUMPDEST DUP1 PUSH1 0x20 DUP4 ADD ADD PUSH1 0x4 RETURNDATASIZE SUB DUP6 ADD DUP2 GT ISZERO PUSH2 0x35E7 JUMPI POP POP POP POP POP PUSH2 0x35FF JUMP JUMPDEST PUSH2 0x35F6 DUP3 PUSH1 0x20 ADD DUP6 ADD DUP7 PUSH2 0x23A0 JUMP JUMPDEST DUP3 SWAP6 POP POP POP POP POP POP JUMPDEST SWAP1 JUMP JUMPDEST PUSH32 0x455243313135353A207472616E7366657220746F206E6F6E2045524331313535 PUSH1 0x0 DUP3 ADD MSTORE PUSH32 0x526563656976657220696D706C656D656E746572000000000000000000000000 PUSH1 0x20 DUP3 ADD MSTORE POP JUMP JUMPDEST PUSH1 0x0 PUSH2 0x365E PUSH1 0x34 DUP4 PUSH2 0x22BC JUMP JUMPDEST SWAP2 POP PUSH2 0x3669 DUP3 PUSH2 0x3602 JUMP JUMPDEST PUSH1 0x40 DUP3 ADD SWAP1 POP SWAP2 SWAP1 POP JUMP JUMPDEST PUSH1 0x0 PUSH1 0x20 DUP3 ADD SWAP1 POP DUP2 DUP2 SUB PUSH1 0x0 DUP4 ADD MSTORE PUSH2 0x368D DUP2 PUSH2 0x3651 JUMP JUMPDEST SWAP1 POP SWAP2 SWAP1 POP JUMP JUMPDEST PUSH32 0x455243313135353A204552433131353552656365697665722072656A65637465 PUSH1 0x0 DUP3 ADD MSTORE PUSH32 0x6420746F6B656E73000000000000000000000000000000000000000000000000 PUSH1 0x20 DUP3 ADD MSTORE POP JUMP JUMPDEST PUSH1 0x0 PUSH2 0x36F0 PUSH1 0x28 DUP4 PUSH2 0x22BC JUMP JUMPDEST SWAP2 POP PUSH2 0x36FB DUP3 PUSH2 0x3694 JUMP JUMPDEST PUSH1 0x40 DUP3 ADD SWAP1 POP SWAP2 SWAP1 POP JUMP JUMPDEST PUSH1 0x0 PUSH1 0x20 DUP3 ADD SWAP1 POP DUP2 DUP2 SUB PUSH1 0x0 DUP4 ADD MSTORE PUSH2 0x371F DUP2 PUSH2 0x36E3 JUMP JUMPDEST SWAP1 POP SWAP2 SWAP1 POP JUMP JUMPDEST PUSH1 0x0 PUSH1 0xA0 DUP3 ADD SWAP1 POP PUSH2 0x373B PUSH1 0x0 DUP4 ADD DUP9 PUSH2 0x2853 JUMP JUMPDEST PUSH2 0x3748 PUSH1 0x20 DUP4 ADD DUP8 PUSH2 0x2853 JUMP JUMPDEST PUSH2 0x3755 PUSH1 0x40 DUP4 ADD DUP7 PUSH2 0x2172 JUMP JUMPDEST PUSH2 0x3762 PUSH1 0x60 DUP4 ADD DUP6 PUSH2 0x2172 JUMP JUMPDEST DUP2 DUP2 SUB PUSH1 0x80 DUP4 ADD MSTORE PUSH2 0x3774 DUP2 DUP5 PUSH2 0x345A JUMP JUMPDEST SWAP1 POP SWAP7 SWAP6 POP POP POP POP POP POP JUMP INVALID LOG2 PUSH5 0x6970667358 0x22 SLT KECCAK256 0x4F 0x1E GT 0x2C 0x5C CALLER SELFBALANCE 0x2F 0x2D PUSH23 0xCC7C95977D5594EBF56CC147DCD61099F03D3F18F6C564 PUSH20 0x6F6C634300080A003368747470733A2F2F676174 PUSH6 0x7761792E7069 PUSH15 0x6174612E636C6F75642F697066732F MLOAD PUSH14 0x614A476A47746D5A706262584A53 PUSH9 0x6D6568515066415677 MSTORE PUSH17 0x70565A697A6E6261535739546B68465942 GAS PUSH9 0x747470733A2F2F6761 PUSH21 0x657761792E70696E6174612E636C6F75642F697066 PUSH20 0x2F516D614A7A524D4778573159614744614E7A6A BASEFEE PUSH21 0x6E744E61436E6B6E697362426F31704C51336F5948 0x4D PUSH18 0x437300000000000000000000000000000000 "},"gasEstimates":{"creation":{"codeDepositCost":"2852400","executionCost":"infinite","totalCost":"infinite"},"external":{"Token_Id()":"2497","_number_of_owned_nfts(address)":"2859","_owners(uint256)":"2972","_tokens(uint256)":"infinite","address_of_nft_contract()":"2646","admin()":"2624","balanceOf(address,uint256)":"infinite","balanceOfBatch(address[],uint256[])":"infinite","burn(address,uint256)":"infinite","contractURI()":"infinite","isApprovedForAll(address,address)":"infinite","marketplace()":"2581","mint(string)":"infinite","owner()":"2633","renounceOwnership()":"30463","safeBatchTransferFrom(address,address,uint256[],uint256[],bytes)":"infinite","safeTransferFrom(address,address,uint256,uint256,bytes)":"infinite","setApprovalForAll(address,bool)":"infinite","set_NFT_contract(address)":"53539","supportsInterface(bytes4)":"819","transferOwnership(address)":"30811","uri(uint256)":"infinite"}},"methodIdentifiers":{"Token_Id()":"0673d7d0","_number_of_owned_nfts(address)":"370c1bd2","_owners(uint256)":"992924a6","_tokens(uint256)":"ed70554d","address_of_nft_contract()":"fabb7053","admin()":"f851a440","balanceOf(address,uint256)":"00fdd58e","balanceOfBatch(address[],uint256[])":"4e1273f4","burn(address,uint256)":"9dc29fac","contractURI()":"e8a3d485","isApprovedForAll(address,address)":"e985e9c5","marketplace()":"abc8c7af","mint(string)":"d85d3d27","owner()":"8da5cb5b","renounceOwnership()":"715018a6","safeBatchTransferFrom(address,address,uint256[],uint256[],bytes)":"2eb2c2d6","safeTransferFrom(address,address,uint256,uint256,bytes)":"f242432a","setApprovalForAll(address,bool)":"a22cb465","set_NFT_contract(address)":"0ad53bb8","supportsInterface(bytes4)":"01ffc9a7","transferOwnership(address)":"f2fde38b","uri(uint256)":"0e89341c"}},"storageLayout":{"storage":[{"astId":643,"contract":"High_Nft.sol:High_NFT","label":"_balances","offset":0,"slot":"0","type":"t_mapping(t_uint256,t_mapping(t_address,t_uint256))"},{"astId":649,"contract":"High_Nft.sol:High_NFT","label":"_operatorApprovals","offset":0,"slot":"1","type":"t_mapping(t_address,t_mapping(t_address,t_bool))"},{"astId":651,"contract":"High_Nft.sol:High_NFT","label":"_uri","offset":0,"slot":"2","type":"t_string_storage"},{"astId":528,"contract":"High_Nft.sol:High_NFT","label":"_owner","offset":0,"slot":"3","type":"t_address"},{"astId":1720,"contract":"High_Nft.sol:High_NFT","label":"Token_Id","offset":0,"slot":"4","type":"t_uint256"},{"astId":1722,"contract":"High_Nft.sol:High_NFT","label":"admin","offset":0,"slot":"5","type":"t_address"},{"astId":1726,"contract":"High_Nft.sol:High_NFT","label":"_tokens","offset":0,"slot":"6","type":"t_mapping(t_uint256,t_string_storage)"},{"astId":1730,"contract":"High_Nft.sol:High_NFT","label":"_number_of_owned_nfts","offset":0,"slot":"7","type":"t_mapping(t_address,t_uint256)"},{"astId":1734,"contract":"High_Nft.sol:High_NFT","label":"_owners","offset":0,"slot":"8","type":"t_mapping(t_uint256,t_address)"},{"astId":1740,"contract":"High_Nft.sol:High_NFT","label":"address_of_nft_contract","offset":0,"slot":"9","type":"t_address"},{"astId":1742,"contract":"High_Nft.sol:High_NFT","label":"marketplace","offset":0,"slot":"10","type":"t_address"},{"astId":1745,"contract":"High_Nft.sol:High_NFT","label":"contractURI","offset":0,"slot":"11","type":"t_string_storage"}],"types":{"t_address":{"encoding":"inplace","label":"address","numberOfBytes":"20"},"t_bool":{"encoding":"inplace","label":"bool","numberOfBytes":"1"},"t_mapping(t_address,t_bool)":{"encoding":"mapping","key":"t_address","label":"mapping(address => bool)","numberOfBytes":"32","value":"t_bool"},"t_mapping(t_address,t_mapping(t_address,t_bool))":{"encoding":"mapping","key":"t_address","label":"mapping(address => mapping(address => bool))","numberOfBytes":"32","value":"t_mapping(t_address,t_bool)"},"t_mapping(t_address,t_uint256)":{"encoding":"mapping","key":"t_address","label":"mapping(address => uint256)","numberOfBytes":"32","value":"t_uint256"},"t_mapping(t_uint256,t_address)":{"encoding":"mapping","key":"t_uint256","label":"mapping(uint256 => address)","numberOfBytes":"32","value":"t_address"},"t_mapping(t_uint256,t_mapping(t_address,t_uint256))":{"encoding":"mapping","key":"t_uint256","label":"mapping(uint256 => mapping(address => uint256))","numberOfBytes":"32","value":"t_mapping(t_address,t_uint256)"},"t_mapping(t_uint256,t_string_storage)":{"encoding":"mapping","key":"t_uint256","label":"mapping(uint256 => string)","numberOfBytes":"32","value":"t_string_storage"},"t_string_storage":{"encoding":"bytes","label":"string","numberOfBytes":"32"},"t_uint256":{"encoding":"inplace","label":"uint256","numberOfBytes":"32"}}},"userdoc":{"kind":"user","methods":{},"version":1}}