{"abi":[{"inputs":[],"stateMutability":"nonpayable","type":"constructor"},{"anonymous":false,"inputs":[{"indexed":true,"internalType":"address","name":"account","type":"address"},{"indexed":true,"internalType":"address","name":"operator","type":"address"},{"indexed":false,"internalType":"bool","name":"approved","type":"bool"}],"name":"ApprovalForAll","type":"event"},{"anonymous":false,"inputs":[{"indexed":true,"internalType":"address","name":"previousOwner","type":"address"},{"indexed":true,"internalType":"address","name":"newOwner","type":"address"}],"name":"OwnershipTransferred","type":"event"},{"anonymous":false,"inputs":[{"indexed":true,"internalType":"address","name":"operator","type":"address"},{"indexed":true,"internalType":"address","name":"from","type":"address"},{"indexed":true,"internalType":"address","name":"to","type":"address"},{"indexed":false,"internalType":"uint256[]","name":"ids","type":"uint256[]"},{"indexed":false,"internalType":"uint256[]","name":"values","type":"uint256[]"}],"name":"TransferBatch","type":"event"},{"anonymous":false,"inputs":[{"indexed":true,"internalType":"address","name":"operator","type":"address"},{"indexed":true,"internalType":"address","name":"from","type":"address"},{"indexed":true,"internalType":"address","name":"to","type":"address"},{"indexed":false,"internalType":"uint256","name":"id","type":"uint256"},{"indexed":false,"internalType":"uint256","name":"value","type":"uint256"}],"name":"TransferSingle","type":"event"},{"anonymous":false,"inputs":[{"indexed":false,"internalType":"string","name":"value","type":"string"},{"indexed":true,"internalType":"uint256","name":"id","type":"uint256"}],"name":"URI","type":"event"},{"inputs":[],"name":"Token_Id","outputs":[{"internalType":"uint256","name":"","type":"uint256"}],"stateMutability":"view","type":"function"},{"inputs":[{"internalType":"uint256","name":"","type":"uint256"}],"name":"_tokens","outputs":[{"internalType":"string","name":"","type":"string"}],"stateMutability":"view","type":"function"},{"inputs":[{"internalType":"address","name":"account","type":"address"},{"internalType":"uint256","name":"id","type":"uint256"}],"name":"balanceOf","outputs":[{"internalType":"uint256","name":"","type":"uint256"}],"stateMutability":"view","type":"function"},{"inputs":[{"internalType":"address[]","name":"accounts","type":"address[]"},{"internalType":"uint256[]","name":"ids","type":"uint256[]"}],"name":"balanceOfBatch","outputs":[{"internalType":"uint256[]","name":"","type":"uint256[]"}],"stateMutability":"view","type":"function"},{"inputs":[{"internalType":"address","name":"account","type":"address"},{"internalType":"uint256","name":"id","type":"uint256"}],"name":"burn","outputs":[],"stateMutability":"nonpayable","type":"function"},{"inputs":[],"name":"contractURI","outputs":[{"internalType":"string","name":"","type":"string"}],"stateMutability":"view","type":"function"},{"inputs":[{"internalType":"address","name":"account","type":"address"},{"internalType":"address","name":"operator","type":"address"}],"name":"isApprovedForAll","outputs":[{"internalType":"bool","name":"","type":"bool"}],"stateMutability":"view","type":"function"},{"inputs":[{"internalType":"string","name":"newuri","type":"string"}],"name":"mint","outputs":[],"stateMutability":"nonpayable","type":"function"},{"inputs":[],"name":"owner","outputs":[{"internalType":"address","name":"","type":"address"}],"stateMutability":"view","type":"function"},{"inputs":[],"name":"renounceOwnership","outputs":[],"stateMutability":"nonpayable","type":"function"},{"inputs":[{"internalType":"address","name":"from","type":"address"},{"internalType":"address","name":"to","type":"address"},{"internalType":"uint256[]","name":"ids","type":"uint256[]"},{"internalType":"uint256[]","name":"amounts","type":"uint256[]"},{"internalType":"bytes","name":"data","type":"bytes"}],"name":"safeBatchTransferFrom","outputs":[],"stateMutability":"nonpayable","type":"function"},{"inputs":[{"internalType":"address","name":"from","type":"address"},{"internalType":"address","name":"to","type":"address"},{"internalType":"uint256","name":"id","type":"uint256"},{"internalType":"uint256","name":"amount","type":"uint256"},{"internalType":"bytes","name":"data","type":"bytes"}],"name":"safeTransferFrom","outputs":[],"stateMutability":"nonpayable","type":"function"},{"inputs":[{"internalType":"address","name":"operator","type":"address"},{"internalType":"bool","name":"approved","type":"bool"}],"name":"setApprovalForAll","outputs":[],"stateMutability":"nonpayable","type":"function"},{"inputs":[{"internalType":"bytes4","name":"interfaceId","type":"bytes4"}],"name":"supportsInterface","outputs":[{"internalType":"bool","name":"","type":"bool"}],"stateMutability":"view","type":"function"},{"inputs":[{"internalType":"address","name":"newOwner","type":"address"}],"name":"transferOwnership","outputs":[],"stateMutability":"nonpayable","type":"function"},{"inputs":[{"internalType":"uint256","name":"","type":"uint256"}],"name":"uri","outputs":[{"internalType":"string","name":"","type":"string"}],"stateMutability":"view","type":"function"}],"devdoc":{"kind":"dev","methods":{"balanceOf(address,uint256)":{"details":"See {IERC1155-balanceOf}. Requirements: - `account` cannot be the zero address."},"balanceOfBatch(address[],uint256[])":{"details":"See {IERC1155-balanceOfBatch}. Requirements: - `accounts` and `ids` must have the same length."},"isApprovedForAll(address,address)":{"details":"See {IERC1155-isApprovedForAll}."},"owner()":{"details":"Returns the address of the current owner."},"renounceOwnership()":{"details":"Leaves the contract without owner. It will not be possible to call `onlyOwner` functions anymore. Can only be called by the current owner. NOTE: Renouncing ownership will leave the contract without an owner, thereby removing any functionality that is only available to the owner."},"safeBatchTransferFrom(address,address,uint256[],uint256[],bytes)":{"details":"See {IERC1155-safeBatchTransferFrom}."},"safeTransferFrom(address,address,uint256,uint256,bytes)":{"details":"See {IERC1155-safeTransferFrom}."},"setApprovalForAll(address,bool)":{"details":"See {IERC1155-setApprovalForAll}."},"supportsInterface(bytes4)":{"details":"See {IERC165-supportsInterface}."},"transferOwnership(address)":{"details":"Transfers ownership of the contract to a new account (`newOwner`). Can only be called by the current owner."},"uri(uint256)":{"details":"See {IERC1155MetadataURI-uri}. This implementation returns the same URI for *all* token types. It relies on the token type ID substitution mechanism https://eips.ethereum.org/EIPS/eip-1155#metadata[defined in the EIP]. Clients calling this function must replace the `\\{id\\}` substring with the actual token type ID."}},"version":1},"evm":{"assembly":"    /* \"High_Nft.sol\":34614:35470  contract High_NFT is ERC1155, Ownable {... */\n  mstore(0x40, 0x80)\n    /* \"High_Nft.sol\":34686:34687  0 */\n  0x00\n    /* \"High_Nft.sol\":34660:34687  uint256 public Token_Id = 0 */\n  0x04\n  sstore\n    /* \"High_Nft.sol\":34736:34846  string public contractURI = \"https://gateway.pinata.cloud/ipfs/QmNfKF6qyHYK6BKSNBUrFJkmZH53Z4b79WjX8GBq3jYK4J\" */\n  mload(0x40)\n  dup1\n  0x80\n  add\n  0x40\n  mstore\n  dup1\n  0x50\n  dup2\n  mstore\n  0x20\n  add\n  data_bf2e54bae776a0c08cb6baea323573da7e93cbb899d2ed78d069ad05be0fea87\n  0x50\n  swap2\n  codecopy\n  0x06\n  swap1\n  dup1\n  mload\n  swap1\n  0x20\n  add\n  swap1\n  tag_1\n  swap3\n  swap2\n  swap1\n  tag_2\n  jump\t// in\ntag_1:\n  pop\n    /* \"High_Nft.sol\":34853:35105  constructor() ERC1155(\"https://gateway.pinata.cloud/ipfs/QmZ9jfWXkV5Vvnytecqy28a9bPnrzoEhqzt1eiXfcyxugv\") {... */\n  callvalue\n  dup1\n  iszero\n  tag_3\n  jumpi\n  0x00\n  dup1\n  revert\ntag_3:\n  pop\n    /* \"High_Nft.sol\":20400:20462  constructor(string memory uri_) {... */\n  mload(0x40)\n  dup1\n  0x80\n  add\n  0x40\n  mstore\n  dup1\n  0x50\n  dup2\n  mstore\n  0x20\n  add\n  data_d1fb7066f40d0147987be585b3791ccf1531c73b5c17e5889530146546d44a08\n  0x50\n  swap2\n  codecopy\n    /* \"High_Nft.sol\":20442:20455  _setURI(uri_) */\n  tag_8\n    /* \"High_Nft.sol\":20450:20454  uri_ */\n  dup2\n    /* \"High_Nft.sol\":20442:20449  _setURI */\n  shl(0x20, tag_9)\n    /* \"High_Nft.sol\":20442:20455  _setURI(uri_) */\n  0x20\n  shr\n  jump\t// in\ntag_8:\n    /* \"High_Nft.sol\":20400:20462  constructor(string memory uri_) {... */\n  pop\n    /* \"High_Nft.sol\":18210:18233  _setOwner(_msgSender()) */\n  tag_11\n    /* \"High_Nft.sol\":18220:18232  _msgSender() */\n  tag_12\n    /* \"High_Nft.sol\":18220:18230  _msgSender */\n  shl(0x20, tag_13)\n    /* \"High_Nft.sol\":18220:18232  _msgSender() */\n  0x20\n  shr\n  jump\t// in\ntag_12:\n    /* \"High_Nft.sol\":18210:18219  _setOwner */\n  shl(0x20, tag_14)\n    /* \"High_Nft.sol\":18210:18233  _setOwner(_msgSender()) */\n  0x20\n  shr\n  jump\t// in\ntag_11:\n    /* \"High_Nft.sol\":34987:35021  _mint(msg.sender, Token_Id, 1, \"\") */\n  tag_16\n    /* \"High_Nft.sol\":34993:35003  msg.sender */\n  caller\n    /* \"High_Nft.sol\":35005:35013  Token_Id */\n  sload(0x04)\n    /* \"High_Nft.sol\":35015:35016  1 */\n  0x01\n    /* \"High_Nft.sol\":34987:35021  _mint(msg.sender, Token_Id, 1, \"\") */\n  mload(0x40)\n  dup1\n  0x20\n  add\n  0x40\n  mstore\n  dup1\n  0x00\n  dup2\n  mstore\n  pop\n    /* \"High_Nft.sol\":34987:34992  _mint */\n  shl(0x20, tag_17)\n    /* \"High_Nft.sol\":34987:35021  _mint(msg.sender, Token_Id, 1, \"\") */\n  0x20\n  shr\n  jump\t// in\ntag_16:\n    /* \"High_Nft.sol\":35052:35063  contractURI */\n  0x06\n    /* \"High_Nft.sol\":35032:35039  _tokens */\n  0x05\n    /* \"High_Nft.sol\":35032:35049  _tokens[Token_Id] */\n  0x00\n    /* \"High_Nft.sol\":35040:35048  Token_Id */\n  sload(0x04)\n    /* \"High_Nft.sol\":35032:35049  _tokens[Token_Id] */\n  dup2\n  mstore\n  0x20\n  add\n  swap1\n  dup2\n  mstore\n  0x20\n  add\n  0x00\n  keccak256\n    /* \"High_Nft.sol\":35032:35063  _tokens[Token_Id] = contractURI */\n  swap1\n  dup1\n  sload\n  tag_18\n  swap1\n  tag_19\n  jump\t// in\ntag_18:\n  tag_20\n  swap3\n  swap2\n  swap1\n  tag_21\n  jump\t// in\ntag_20:\n  pop\n    /* \"High_Nft.sol\":35086:35087  1 */\n  0x01\n    /* \"High_Nft.sol\":35074:35082  Token_Id */\n  0x04\n  0x00\n    /* \"High_Nft.sol\":35074:35087  Token_Id += 1 */\n  dup3\n  dup3\n  sload\n  tag_22\n  swap2\n  swap1\n  tag_23\n  jump\t// in\ntag_22:\n  swap3\n  pop\n  pop\n  dup2\n  swap1\n  sstore\n  pop\n    /* \"High_Nft.sol\":34614:35470  contract High_NFT is ERC1155, Ownable {... */\n  jump(tag_24)\n    /* \"High_Nft.sol\":27244:27330  function _setURI(string memory newuri) internal virtual {... */\ntag_9:\n    /* \"High_Nft.sol\":27317:27323  newuri */\n  dup1\n    /* \"High_Nft.sol\":27310:27314  _uri */\n  0x02\n    /* \"High_Nft.sol\":27310:27323  _uri = newuri */\n  swap1\n  dup1\n  mload\n  swap1\n  0x20\n  add\n  swap1\n  tag_26\n  swap3\n  swap2\n  swap1\n  tag_2\n  jump\t// in\ntag_26:\n  pop\n    /* \"High_Nft.sol\":27244:27330  function _setURI(string memory newuri) internal virtual {... */\n  pop\n  jump\t// out\n    /* \"High_Nft.sol\":554:650  function _msgSender() internal view virtual returns (address) {... */\ntag_13:\n    /* \"High_Nft.sol\":607:614  address */\n  0x00\n    /* \"High_Nft.sol\":633:643  msg.sender */\n  caller\n    /* \"High_Nft.sol\":626:643  return msg.sender */\n  swap1\n  pop\n    /* \"High_Nft.sol\":554:650  function _msgSender() internal view virtual returns (address) {... */\n  swap1\n  jump\t// out\n    /* \"High_Nft.sol\":19384:19553  function _setOwner(address newOwner) private {... */\ntag_14:\n    /* \"High_Nft.sol\":19439:19455  address oldOwner */\n  0x00\n    /* \"High_Nft.sol\":19458:19464  _owner */\n  0x03\n  0x00\n  swap1\n  sload\n  swap1\n  0x0100\n  exp\n  swap1\n  div\n  0xffffffffffffffffffffffffffffffffffffffff\n  and\n    /* \"High_Nft.sol\":19439:19464  address oldOwner = _owner */\n  swap1\n  pop\n    /* \"High_Nft.sol\":19483:19491  newOwner */\n  dup2\n    /* \"High_Nft.sol\":19474:19480  _owner */\n  0x03\n  0x00\n    /* \"High_Nft.sol\":19474:19491  _owner = newOwner */\n  0x0100\n  exp\n  dup2\n  sload\n  dup2\n  0xffffffffffffffffffffffffffffffffffffffff\n  mul\n  not\n  and\n  swap1\n  dup4\n  0xffffffffffffffffffffffffffffffffffffffff\n  and\n  mul\n  or\n  swap1\n  sstore\n  pop\n    /* \"High_Nft.sol\":19537:19545  newOwner */\n  dup2\n    /* \"High_Nft.sol\":19506:19546  OwnershipTransferred(oldOwner, newOwner) */\n  0xffffffffffffffffffffffffffffffffffffffff\n  and\n    /* \"High_Nft.sol\":19527:19535  oldOwner */\n  dup2\n    /* \"High_Nft.sol\":19506:19546  OwnershipTransferred(oldOwner, newOwner) */\n  0xffffffffffffffffffffffffffffffffffffffff\n  and\n  0x8be0079c531659141344cd1fd0a4f28419497f9722a3daafe3b4186f6b6457e0\n  mload(0x40)\n  mload(0x40)\n  dup1\n  swap2\n  sub\n  swap1\n  log3\n    /* \"High_Nft.sol\":19429:19553  {... */\n  pop\n    /* \"High_Nft.sol\":19384:19553  function _setOwner(address newOwner) private {... */\n  pop\n  jump\t// out\n    /* \"High_Nft.sol\":27703:28256  function _mint(... */\ntag_17:\n    /* \"High_Nft.sol\":27864:27865  0 */\n  0x00\n    /* \"High_Nft.sol\":27850:27866  to != address(0) */\n  0xffffffffffffffffffffffffffffffffffffffff\n  and\n    /* \"High_Nft.sol\":27850:27852  to */\n  dup5\n    /* \"High_Nft.sol\":27850:27866  to != address(0) */\n  0xffffffffffffffffffffffffffffffffffffffff\n  and\n  eq\n  iszero\n    /* \"High_Nft.sol\":27842:27904  require(to != address(0), \"ERC1155: mint to the zero address\") */\n  tag_30\n  jumpi\n  mload(0x40)\n  0x08c379a000000000000000000000000000000000000000000000000000000000\n  dup2\n  mstore\n  0x04\n  add\n  tag_31\n  swap1\n  tag_32\n  jump\t// in\ntag_31:\n  mload(0x40)\n  dup1\n  swap2\n  sub\n  swap1\n  revert\ntag_30:\n    /* \"High_Nft.sol\":27915:27931  address operator */\n  0x00\n    /* \"High_Nft.sol\":27934:27946  _msgSender() */\n  tag_33\n    /* \"High_Nft.sol\":27934:27944  _msgSender */\n  shl(0x20, tag_13)\n    /* \"High_Nft.sol\":27934:27946  _msgSender() */\n  0x20\n  shr\n  jump\t// in\ntag_33:\n    /* \"High_Nft.sol\":27915:27946  address operator = _msgSender() */\n  swap1\n  pop\n    /* \"High_Nft.sol\":27957:28059  _beforeTokenTransfer(operator, address(0), to, _asSingletonArray(id), _asSingletonArray(amount), data) */\n  tag_34\n    /* \"High_Nft.sol\":27978:27986  operator */\n  dup2\n    /* \"High_Nft.sol\":27996:27997  0 */\n  0x00\n    /* \"High_Nft.sol\":28000:28002  to */\n  dup8\n    /* \"High_Nft.sol\":28004:28025  _asSingletonArray(id) */\n  tag_35\n    /* \"High_Nft.sol\":28022:28024  id */\n  dup9\n    /* \"High_Nft.sol\":28004:28021  _asSingletonArray */\n  shl(0x20, tag_36)\n    /* \"High_Nft.sol\":28004:28025  _asSingletonArray(id) */\n  0x20\n  shr\n  jump\t// in\ntag_35:\n    /* \"High_Nft.sol\":28027:28052  _asSingletonArray(amount) */\n  tag_37\n    /* \"High_Nft.sol\":28045:28051  amount */\n  dup9\n    /* \"High_Nft.sol\":28027:28044  _asSingletonArray */\n  shl(0x20, tag_36)\n    /* \"High_Nft.sol\":28027:28052  _asSingletonArray(amount) */\n  0x20\n  shr\n  jump\t// in\ntag_37:\n    /* \"High_Nft.sol\":28054:28058  data */\n  dup8\n    /* \"High_Nft.sol\":27957:27977  _beforeTokenTransfer */\n  shl(0x20, tag_38)\n    /* \"High_Nft.sol\":27957:28059  _beforeTokenTransfer(operator, address(0), to, _asSingletonArray(id), _asSingletonArray(amount), data) */\n  0x20\n  shr\n  jump\t// in\ntag_34:\n    /* \"High_Nft.sol\":28091:28097  amount */\n  dup3\n    /* \"High_Nft.sol\":28070:28079  _balances */\n  0x00\n    /* \"High_Nft.sol\":28070:28083  _balances[id] */\n  dup1\n    /* \"High_Nft.sol\":28080:28082  id */\n  dup7\n    /* \"High_Nft.sol\":28070:28083  _balances[id] */\n  dup2\n  mstore\n  0x20\n  add\n  swap1\n  dup2\n  mstore\n  0x20\n  add\n  0x00\n  keccak256\n    /* \"High_Nft.sol\":28070:28087  _balances[id][to] */\n  0x00\n    /* \"High_Nft.sol\":28084:28086  to */\n  dup8\n    /* \"High_Nft.sol\":28070:28087  _balances[id][to] */\n  0xffffffffffffffffffffffffffffffffffffffff\n  and\n  0xffffffffffffffffffffffffffffffffffffffff\n  and\n  dup2\n  mstore\n  0x20\n  add\n  swap1\n  dup2\n  mstore\n  0x20\n  add\n  0x00\n  keccak256\n  0x00\n    /* \"High_Nft.sol\":28070:28097  _balances[id][to] += amount */\n  dup3\n  dup3\n  sload\n  tag_39\n  swap2\n  swap1\n  tag_23\n  jump\t// in\ntag_39:\n  swap3\n  pop\n  pop\n  dup2\n  swap1\n  sstore\n  pop\n    /* \"High_Nft.sol\":28149:28151  to */\n  dup5\n    /* \"High_Nft.sol\":28112:28164  TransferSingle(operator, address(0), to, id, amount) */\n  0xffffffffffffffffffffffffffffffffffffffff\n  and\n    /* \"High_Nft.sol\":28145:28146  0 */\n  0x00\n    /* \"High_Nft.sol\":28112:28164  TransferSingle(operator, address(0), to, id, amount) */\n  0xffffffffffffffffffffffffffffffffffffffff\n  and\n    /* \"High_Nft.sol\":28127:28135  operator */\n  dup3\n    /* \"High_Nft.sol\":28112:28164  TransferSingle(operator, address(0), to, id, amount) */\n  0xffffffffffffffffffffffffffffffffffffffff\n  and\n  0xc3d58168c5ae7397731d063d5bbf3d657854427343f4c083240f7aacaa2d0f62\n    /* \"High_Nft.sol\":28153:28155  id */\n  dup8\n    /* \"High_Nft.sol\":28157:28163  amount */\n  dup8\n    /* \"High_Nft.sol\":28112:28164  TransferSingle(operator, address(0), to, id, amount) */\n  mload(0x40)\n  tag_40\n  swap3\n  swap2\n  swap1\n  tag_41\n  jump\t// in\ntag_40:\n  mload(0x40)\n  dup1\n  swap2\n  sub\n  swap1\n  log4\n    /* \"High_Nft.sol\":28175:28249  _doSafeTransferAcceptanceCheck(operator, address(0), to, id, amount, data) */\n  tag_42\n    /* \"High_Nft.sol\":28206:28214  operator */\n  dup2\n    /* \"High_Nft.sol\":28224:28225  0 */\n  0x00\n    /* \"High_Nft.sol\":28228:28230  to */\n  dup8\n    /* \"High_Nft.sol\":28232:28234  id */\n  dup8\n    /* \"High_Nft.sol\":28236:28242  amount */\n  dup8\n    /* \"High_Nft.sol\":28244:28248  data */\n  dup8\n    /* \"High_Nft.sol\":28175:28205  _doSafeTransferAcceptanceCheck */\n  shl(0x20, tag_43)\n    /* \"High_Nft.sol\":28175:28249  _doSafeTransferAcceptanceCheck(operator, address(0), to, id, amount, data) */\n  0x20\n  shr\n  jump\t// in\ntag_42:\n    /* \"High_Nft.sol\":27832:28256  {... */\n  pop\n    /* \"High_Nft.sol\":27703:28256  function _mint(... */\n  pop\n  pop\n  pop\n  pop\n  jump\t// out\n    /* \"High_Nft.sol\":34388:34581  function _asSingletonArray(uint256 element) private pure returns (uint256[] memory) {... */\ntag_36:\n    /* \"High_Nft.sol\":34454:34470  uint256[] memory */\n  0x60\n    /* \"High_Nft.sol\":34482:34504  uint256[] memory array */\n  0x00\n    /* \"High_Nft.sol\":34521:34522  1 */\n  0x01\n    /* \"High_Nft.sol\":34507:34523  new uint256[](1) */\n  0xffffffffffffffff\n  dup2\n  gt\n  iszero\n  tag_45\n  jumpi\n  tag_46\n  tag_47\n  jump\t// in\ntag_46:\ntag_45:\n  mload(0x40)\n  swap1\n  dup1\n  dup3\n  mstore\n  dup1\n  0x20\n  mul\n  0x20\n  add\n  dup3\n  add\n  0x40\n  mstore\n  dup1\n  iszero\n  tag_48\n  jumpi\n  dup2\n  0x20\n  add\n  0x20\n  dup3\n  mul\n  dup1\n  calldatasize\n  dup4\n  calldatacopy\n  dup1\n  dup3\n  add\n  swap2\n  pop\n  pop\n  swap1\n  pop\ntag_48:\n  pop\n    /* \"High_Nft.sol\":34482:34523  uint256[] memory array = new uint256[](1) */\n  swap1\n  pop\n    /* \"High_Nft.sol\":34544:34551  element */\n  dup3\n    /* \"High_Nft.sol\":34533:34538  array */\n  dup2\n    /* \"High_Nft.sol\":34539:34540  0 */\n  0x00\n    /* \"High_Nft.sol\":34533:34541  array[0] */\n  dup2\n  mload\n  dup2\n  lt\n  tag_49\n  jumpi\n  tag_50\n  tag_51\n  jump\t// in\ntag_50:\ntag_49:\n  0x20\n  mul\n  0x20\n  add\n  add\n    /* \"High_Nft.sol\":34533:34551  array[0] = element */\n  dup2\n  dup2\n  mstore\n  pop\n  pop\n    /* \"High_Nft.sol\":34569:34574  array */\n  dup1\n    /* \"High_Nft.sol\":34562:34574  return array */\n  swap2\n  pop\n  pop\n    /* \"High_Nft.sol\":34388:34581  function _asSingletonArray(uint256 element) private pure returns (uint256[] memory) {... */\n  swap2\n  swap1\n  pop\n  jump\t// out\n    /* \"High_Nft.sol\":32639:32853  function _beforeTokenTransfer(... */\ntag_38:\n  pop\n  pop\n  pop\n  pop\n  pop\n  pop\n  jump\t// out\n    /* \"High_Nft.sol\":32859:33584  function _doSafeTransferAcceptanceCheck(... */\ntag_43:\n    /* \"High_Nft.sol\":33066:33081  to.isContract() */\n  tag_54\n    /* \"High_Nft.sol\":33066:33068  to */\n  dup5\n    /* \"High_Nft.sol\":33066:33079  to.isContract */\n  0xffffffffffffffffffffffffffffffffffffffff\n  and\n  or(tag_0_90, shl(0x20, tag_55))\n    /* \"High_Nft.sol\":33066:33081  to.isContract() */\n  0x20\n  shr\n  jump\t// in\ntag_54:\n    /* \"High_Nft.sol\":33062:33578  if (to.isContract()) {... */\n  iszero\n  tag_56\n  jumpi\n    /* \"High_Nft.sol\":33118:33120  to */\n  dup4\n    /* \"High_Nft.sol\":33101:33139  IERC1155Receiver(to).onERC1155Received */\n  0xffffffffffffffffffffffffffffffffffffffff\n  and\n  0xf23a6e61\n    /* \"High_Nft.sol\":33140:33148  operator */\n  dup8\n    /* \"High_Nft.sol\":33150:33154  from */\n  dup8\n    /* \"High_Nft.sol\":33156:33158  id */\n  dup7\n    /* \"High_Nft.sol\":33160:33166  amount */\n  dup7\n    /* \"High_Nft.sol\":33168:33172  data */\n  dup7\n    /* \"High_Nft.sol\":33101:33173  IERC1155Receiver(to).onERC1155Received(operator, from, id, amount, data) */\n  mload(0x40)\n  dup7\n  0xffffffff\n  and\n  0xe0\n  shl\n  dup2\n  mstore\n  0x04\n  add\n  tag_57\n  swap6\n  swap5\n  swap4\n  swap3\n  swap2\n  swap1\n  tag_58\n  jump\t// in\ntag_57:\n  0x20\n  mload(0x40)\n  dup1\n  dup4\n  sub\n  dup2\n  0x00\n  dup8\n  gas\n  call\n  swap3\n  pop\n  pop\n  pop\n  dup1\n  iszero\n  tag_59\n  jumpi\n  pop\n  mload(0x40)\n  returndatasize\n  not(0x1f)\n  0x1f\n  dup3\n  add\n  and\n  dup3\n  add\n  dup1\n  0x40\n  mstore\n  pop\n  dup2\n  add\n  swap1\n  tag_60\n  swap2\n  swap1\n  tag_61\n  jump\t// in\ntag_60:\n  0x01\ntag_59:\n    /* \"High_Nft.sol\":33097:33568  try IERC1155Receiver(to).onERC1155Received(operator, from, id, amount, data) returns (bytes4 response) {... */\n  tag_62\n  jumpi\n  tag_66\n  tag_67\n  jump\t// in\ntag_66:\n  dup1\n  0x08c379a0\n  eq\n  iszero\n  tag_65\n  jumpi\n  pop\n  tag_68\n  tag_69\n  jump\t// in\ntag_68:\n  dup1\n  tag_70\n  jumpi\n  pop\n  jump(tag_64)\ntag_70:\n    /* \"High_Nft.sol\":33444:33450  reason */\n  dup1\n    /* \"High_Nft.sol\":33437:33451  revert(reason) */\n  mload(0x40)\n  0x08c379a000000000000000000000000000000000000000000000000000000000\n  dup2\n  mstore\n  0x04\n  add\n  tag_71\n  swap2\n  swap1\n  tag_72\n  jump\t// in\ntag_71:\n  mload(0x40)\n  dup1\n  swap2\n  sub\n  swap1\n  revert\n    /* \"High_Nft.sol\":33097:33568  try IERC1155Receiver(to).onERC1155Received(operator, from, id, amount, data) returns (bytes4 response) {... */\ntag_65:\n  pop\ntag_64:\n    /* \"High_Nft.sol\":33491:33553  revert(\"ERC1155: transfer to non ERC1155Receiver implementer\") */\n  mload(0x40)\n  0x08c379a000000000000000000000000000000000000000000000000000000000\n  dup2\n  mstore\n  0x04\n  add\n  tag_73\n  swap1\n  tag_74\n  jump\t// in\ntag_73:\n  mload(0x40)\n  dup1\n  swap2\n  sub\n  swap1\n  revert\n    /* \"High_Nft.sol\":33097:33568  try IERC1155Receiver(to).onERC1155Received(operator, from, id, amount, data) returns (bytes4 response) {... */\ntag_62:\n    /* \"High_Nft.sol\":33234:33277  IERC1155Receiver.onERC1155Received.selector */\n  shl(0xe0, 0xf23a6e61)\n    /* \"High_Nft.sol\":33222:33277  response != IERC1155Receiver.onERC1155Received.selector */\n  not(0xffffffffffffffffffffffffffffffffffffffffffffffffffffffff)\n  and\n    /* \"High_Nft.sol\":33222:33230  response */\n  dup2\n    /* \"High_Nft.sol\":33222:33277  response != IERC1155Receiver.onERC1155Received.selector */\n  not(0xffffffffffffffffffffffffffffffffffffffffffffffffffffffff)\n  and\n  eq\n    /* \"High_Nft.sol\":33218:33370  if (response != IERC1155Receiver.onERC1155Received.selector) {... */\n  tag_76\n  jumpi\n    /* \"High_Nft.sol\":33301:33351  revert(\"ERC1155: ERC1155Receiver rejected tokens\") */\n  mload(0x40)\n  0x08c379a000000000000000000000000000000000000000000000000000000000\n  dup2\n  mstore\n  0x04\n  add\n  tag_77\n  swap1\n  tag_78\n  jump\t// in\ntag_77:\n  mload(0x40)\n  dup1\n  swap2\n  sub\n  swap1\n  revert\n    /* \"High_Nft.sol\":33218:33370  if (response != IERC1155Receiver.onERC1155Received.selector) {... */\ntag_76:\n    /* \"High_Nft.sol\":33174:33384  returns (bytes4 response) {... */\n  pop\n    /* \"High_Nft.sol\":33062:33578  if (to.isContract()) {... */\ntag_56:\n    /* \"High_Nft.sol\":32859:33584  function _doSafeTransferAcceptanceCheck(... */\n  pop\n  pop\n  pop\n  pop\n  pop\n  pop\n  jump\t// out\n    /* \"High_Nft.sol\":9229:9606  function isContract(address account) internal view returns (bool) {... */\ntag_55:\n    /* \"High_Nft.sol\":9289:9293  bool */\n  0x00\n    /* \"High_Nft.sol\":9492:9504  uint256 size */\n  dup1\n    /* \"High_Nft.sol\":9557:9564  account */\n  dup3\n    /* \"High_Nft.sol\":9545:9565  extcodesize(account) */\n  extcodesize\n    /* \"High_Nft.sol\":9537:9565  size := extcodesize(account) */\n  swap1\n  pop\n    /* \"High_Nft.sol\":9598:9599  0 */\n  0x00\n    /* \"High_Nft.sol\":9591:9595  size */\n  dup2\n    /* \"High_Nft.sol\":9591:9599  size > 0 */\n  gt\n    /* \"High_Nft.sol\":9584:9599  return size > 0 */\n  swap2\n  pop\n  pop\n    /* \"High_Nft.sol\":9229:9606  function isContract(address account) internal view returns (bool) {... */\n  swap2\n  swap1\n  pop\n  jump\t// out\n    /* \"High_Nft.sol\":34614:35470  contract High_NFT is ERC1155, Ownable {... */\ntag_2:\n  dup3\n  dup1\n  sload\n  tag_80\n  swap1\n  tag_19\n  jump\t// in\ntag_80:\n  swap1\n  0x00\n  mstore\n  keccak256(0x00, 0x20)\n  swap1\n  0x1f\n  add\n  0x20\n  swap1\n  div\n  dup2\n  add\n  swap3\n  dup3\n  tag_82\n  jumpi\n  0x00\n  dup6\n  sstore\n  jump(tag_81)\ntag_82:\n  dup3\n  0x1f\n  lt\n  tag_83\n  jumpi\n  dup1\n  mload\n  not(0xff)\n  and\n  dup4\n  dup1\n  add\n  or\n  dup6\n  sstore\n  jump(tag_81)\ntag_83:\n  dup3\n  dup1\n  add\n  0x01\n  add\n  dup6\n  sstore\n  dup3\n  iszero\n  tag_81\n  jumpi\n  swap2\n  dup3\n  add\ntag_84:\n  dup3\n  dup2\n  gt\n  iszero\n  tag_85\n  jumpi\n  dup3\n  mload\n  dup3\n  sstore\n  swap2\n  0x20\n  add\n  swap2\n  swap1\n  0x01\n  add\n  swap1\n  jump(tag_84)\ntag_85:\ntag_81:\n  pop\n  swap1\n  pop\n  tag_86\n  swap2\n  swap1\n  tag_87\n  jump\t// in\ntag_86:\n  pop\n  swap1\n  jump\t// out\ntag_21:\n  dup3\n  dup1\n  sload\n  tag_88\n  swap1\n  tag_19\n  jump\t// in\ntag_88:\n  swap1\n  0x00\n  mstore\n  keccak256(0x00, 0x20)\n  swap1\n  0x1f\n  add\n  0x20\n  swap1\n  div\n  dup2\n  add\n  swap3\n  dup3\n  tag_90\n  jumpi\n  0x00\n  dup6\n  sstore\n  jump(tag_89)\ntag_90:\n  dup3\n  0x1f\n  lt\n  tag_91\n  jumpi\n  dup1\n  sload\n  dup6\n  sstore\n  jump(tag_89)\ntag_91:\n  dup3\n  dup1\n  add\n  0x01\n  add\n  dup6\n  sstore\n  dup3\n  iszero\n  tag_89\n  jumpi\n  0x00\n  mstore\n  keccak256(0x00, 0x20)\n  swap2\n  0x1f\n  add\n  0x20\n  swap1\n  div\n  dup3\n  add\ntag_92:\n  dup3\n  dup2\n  gt\n  iszero\n  tag_93\n  jumpi\n  dup3\n  sload\n  dup3\n  sstore\n  swap2\n  0x01\n  add\n  swap2\n  swap1\n  0x01\n  add\n  swap1\n  jump(tag_92)\ntag_93:\ntag_89:\n  pop\n  swap1\n  pop\n  tag_94\n  swap2\n  swap1\n  tag_87\n  jump\t// in\ntag_94:\n  pop\n  swap1\n  jump\t// out\ntag_87:\ntag_95:\n  dup1\n  dup3\n  gt\n  iszero\n  tag_96\n  jumpi\n  0x00\n  dup2\n  0x00\n  swap1\n  sstore\n  pop\n  0x01\n  add\n  jump(tag_95)\ntag_96:\n  pop\n  swap1\n  jump\t// out\n    /* \"#utility.yul\":7:187   */\ntag_97:\n    /* \"#utility.yul\":55:132   */\n  0x4e487b7100000000000000000000000000000000000000000000000000000000\n    /* \"#utility.yul\":52:53   */\n  0x00\n    /* \"#utility.yul\":45:133   */\n  mstore\n    /* \"#utility.yul\":152:156   */\n  0x22\n    /* \"#utility.yul\":149:150   */\n  0x04\n    /* \"#utility.yul\":142:157   */\n  mstore\n    /* \"#utility.yul\":176:180   */\n  0x24\n    /* \"#utility.yul\":173:174   */\n  0x00\n    /* \"#utility.yul\":166:181   */\n  revert\n    /* \"#utility.yul\":193:513   */\ntag_19:\n    /* \"#utility.yul\":237:243   */\n  0x00\n    /* \"#utility.yul\":274:275   */\n  0x02\n    /* \"#utility.yul\":268:272   */\n  dup3\n    /* \"#utility.yul\":264:276   */\n  div\n    /* \"#utility.yul\":254:276   */\n  swap1\n  pop\n    /* \"#utility.yul\":321:322   */\n  0x01\n    /* \"#utility.yul\":315:319   */\n  dup3\n    /* \"#utility.yul\":311:323   */\n  and\n    /* \"#utility.yul\":342:360   */\n  dup1\n    /* \"#utility.yul\":332:413   */\n  tag_129\n  jumpi\n    /* \"#utility.yul\":398:402   */\n  0x7f\n    /* \"#utility.yul\":390:396   */\n  dup3\n    /* \"#utility.yul\":386:403   */\n  and\n    /* \"#utility.yul\":376:403   */\n  swap2\n  pop\n    /* \"#utility.yul\":332:413   */\ntag_129:\n    /* \"#utility.yul\":460:462   */\n  0x20\n    /* \"#utility.yul\":452:458   */\n  dup3\n    /* \"#utility.yul\":449:463   */\n  lt\n    /* \"#utility.yul\":429:447   */\n  dup2\n    /* \"#utility.yul\":426:464   */\n  eq\n    /* \"#utility.yul\":423:507   */\n  iszero\n  tag_130\n  jumpi\n    /* \"#utility.yul\":479:497   */\n  tag_131\n  tag_97\n  jump\t// in\ntag_131:\n    /* \"#utility.yul\":423:507   */\ntag_130:\n    /* \"#utility.yul\":244:513   */\n  pop\n    /* \"#utility.yul\":193:513   */\n  swap2\n  swap1\n  pop\n  jump\t// out\n    /* \"#utility.yul\":519:596   */\ntag_98:\n    /* \"#utility.yul\":556:563   */\n  0x00\n    /* \"#utility.yul\":585:590   */\n  dup2\n    /* \"#utility.yul\":574:590   */\n  swap1\n  pop\n    /* \"#utility.yul\":519:596   */\n  swap2\n  swap1\n  pop\n  jump\t// out\n    /* \"#utility.yul\":602:782   */\ntag_99:\n    /* \"#utility.yul\":650:727   */\n  0x4e487b7100000000000000000000000000000000000000000000000000000000\n    /* \"#utility.yul\":647:648   */\n  0x00\n    /* \"#utility.yul\":640:728   */\n  mstore\n    /* \"#utility.yul\":747:751   */\n  0x11\n    /* \"#utility.yul\":744:745   */\n  0x04\n    /* \"#utility.yul\":737:752   */\n  mstore\n    /* \"#utility.yul\":771:775   */\n  0x24\n    /* \"#utility.yul\":768:769   */\n  0x00\n    /* \"#utility.yul\":761:776   */\n  revert\n    /* \"#utility.yul\":788:1093   */\ntag_23:\n    /* \"#utility.yul\":828:831   */\n  0x00\n    /* \"#utility.yul\":847:867   */\n  tag_135\n    /* \"#utility.yul\":865:866   */\n  dup3\n    /* \"#utility.yul\":847:867   */\n  tag_98\n  jump\t// in\ntag_135:\n    /* \"#utility.yul\":842:867   */\n  swap2\n  pop\n    /* \"#utility.yul\":881:901   */\n  tag_136\n    /* \"#utility.yul\":899:900   */\n  dup4\n    /* \"#utility.yul\":881:901   */\n  tag_98\n  jump\t// in\ntag_136:\n    /* \"#utility.yul\":876:901   */\n  swap3\n  pop\n    /* \"#utility.yul\":1035:1036   */\n  dup3\n    /* \"#utility.yul\":967:1033   */\n  0xffffffffffffffffffffffffffffffffffffffffffffffffffffffffffffffff\n    /* \"#utility.yul\":963:1037   */\n  sub\n    /* \"#utility.yul\":960:961   */\n  dup3\n    /* \"#utility.yul\":957:1038   */\n  gt\n    /* \"#utility.yul\":954:1061   */\n  iszero\n  tag_137\n  jumpi\n    /* \"#utility.yul\":1041:1059   */\n  tag_138\n  tag_99\n  jump\t// in\ntag_138:\n    /* \"#utility.yul\":954:1061   */\ntag_137:\n    /* \"#utility.yul\":1085:1086   */\n  dup3\n    /* \"#utility.yul\":1082:1083   */\n  dup3\n    /* \"#utility.yul\":1078:1087   */\n  add\n    /* \"#utility.yul\":1071:1087   */\n  swap1\n  pop\n    /* \"#utility.yul\":788:1093   */\n  swap3\n  swap2\n  pop\n  pop\n  jump\t// out\n    /* \"#utility.yul\":1099:1268   */\ntag_100:\n    /* \"#utility.yul\":1183:1194   */\n  0x00\n    /* \"#utility.yul\":1217:1223   */\n  dup3\n    /* \"#utility.yul\":1212:1215   */\n  dup3\n    /* \"#utility.yul\":1205:1224   */\n  mstore\n    /* \"#utility.yul\":1257:1261   */\n  0x20\n    /* \"#utility.yul\":1252:1255   */\n  dup3\n    /* \"#utility.yul\":1248:1262   */\n  add\n    /* \"#utility.yul\":1233:1262   */\n  swap1\n  pop\n    /* \"#utility.yul\":1099:1268   */\n  swap3\n  swap2\n  pop\n  pop\n  jump\t// out\n    /* \"#utility.yul\":1274:1494   */\ntag_101:\n    /* \"#utility.yul\":1414:1448   */\n  0x455243313135353a206d696e7420746f20746865207a65726f20616464726573\n    /* \"#utility.yul\":1410:1411   */\n  0x00\n    /* \"#utility.yul\":1402:1408   */\n  dup3\n    /* \"#utility.yul\":1398:1412   */\n  add\n    /* \"#utility.yul\":1391:1449   */\n  mstore\n    /* \"#utility.yul\":1483:1486   */\n  0x7300000000000000000000000000000000000000000000000000000000000000\n    /* \"#utility.yul\":1478:1480   */\n  0x20\n    /* \"#utility.yul\":1470:1476   */\n  dup3\n    /* \"#utility.yul\":1466:1481   */\n  add\n    /* \"#utility.yul\":1459:1487   */\n  mstore\n    /* \"#utility.yul\":1274:1494   */\n  pop\n  jump\t// out\n    /* \"#utility.yul\":1500:1866   */\ntag_102:\n    /* \"#utility.yul\":1642:1645   */\n  0x00\n    /* \"#utility.yul\":1663:1730   */\n  tag_142\n    /* \"#utility.yul\":1727:1729   */\n  0x21\n    /* \"#utility.yul\":1722:1725   */\n  dup4\n    /* \"#utility.yul\":1663:1730   */\n  tag_100\n  jump\t// in\ntag_142:\n    /* \"#utility.yul\":1656:1730   */\n  swap2\n  pop\n    /* \"#utility.yul\":1739:1832   */\n  tag_143\n    /* \"#utility.yul\":1828:1831   */\n  dup3\n    /* \"#utility.yul\":1739:1832   */\n  tag_101\n  jump\t// in\ntag_143:\n    /* \"#utility.yul\":1857:1859   */\n  0x40\n    /* \"#utility.yul\":1852:1855   */\n  dup3\n    /* \"#utility.yul\":1848:1860   */\n  add\n    /* \"#utility.yul\":1841:1860   */\n  swap1\n  pop\n    /* \"#utility.yul\":1500:1866   */\n  swap2\n  swap1\n  pop\n  jump\t// out\n    /* \"#utility.yul\":1872:2291   */\ntag_32:\n    /* \"#utility.yul\":2038:2042   */\n  0x00\n    /* \"#utility.yul\":2076:2078   */\n  0x20\n    /* \"#utility.yul\":2065:2074   */\n  dup3\n    /* \"#utility.yul\":2061:2079   */\n  add\n    /* \"#utility.yul\":2053:2079   */\n  swap1\n  pop\n    /* \"#utility.yul\":2125:2134   */\n  dup2\n    /* \"#utility.yul\":2119:2123   */\n  dup2\n    /* \"#utility.yul\":2115:2135   */\n  sub\n    /* \"#utility.yul\":2111:2112   */\n  0x00\n    /* \"#utility.yul\":2100:2109   */\n  dup4\n    /* \"#utility.yul\":2096:2113   */\n  add\n    /* \"#utility.yul\":2089:2136   */\n  mstore\n    /* \"#utility.yul\":2153:2284   */\n  tag_145\n    /* \"#utility.yul\":2279:2283   */\n  dup2\n    /* \"#utility.yul\":2153:2284   */\n  tag_102\n  jump\t// in\ntag_145:\n    /* \"#utility.yul\":2145:2284   */\n  swap1\n  pop\n    /* \"#utility.yul\":1872:2291   */\n  swap2\n  swap1\n  pop\n  jump\t// out\n    /* \"#utility.yul\":2297:2415   */\ntag_103:\n    /* \"#utility.yul\":2384:2408   */\n  tag_147\n    /* \"#utility.yul\":2402:2407   */\n  dup2\n    /* \"#utility.yul\":2384:2408   */\n  tag_98\n  jump\t// in\ntag_147:\n    /* \"#utility.yul\":2379:2382   */\n  dup3\n    /* \"#utility.yul\":2372:2409   */\n  mstore\n    /* \"#utility.yul\":2297:2415   */\n  pop\n  pop\n  jump\t// out\n    /* \"#utility.yul\":2421:2753   */\ntag_41:\n    /* \"#utility.yul\":2542:2546   */\n  0x00\n    /* \"#utility.yul\":2580:2582   */\n  0x40\n    /* \"#utility.yul\":2569:2578   */\n  dup3\n    /* \"#utility.yul\":2565:2583   */\n  add\n    /* \"#utility.yul\":2557:2583   */\n  swap1\n  pop\n    /* \"#utility.yul\":2593:2664   */\n  tag_149\n    /* \"#utility.yul\":2661:2662   */\n  0x00\n    /* \"#utility.yul\":2650:2659   */\n  dup4\n    /* \"#utility.yul\":2646:2663   */\n  add\n    /* \"#utility.yul\":2637:2643   */\n  dup6\n    /* \"#utility.yul\":2593:2664   */\n  tag_103\n  jump\t// in\ntag_149:\n    /* \"#utility.yul\":2674:2746   */\n  tag_150\n    /* \"#utility.yul\":2742:2744   */\n  0x20\n    /* \"#utility.yul\":2731:2740   */\n  dup4\n    /* \"#utility.yul\":2727:2745   */\n  add\n    /* \"#utility.yul\":2718:2724   */\n  dup5\n    /* \"#utility.yul\":2674:2746   */\n  tag_103\n  jump\t// in\ntag_150:\n    /* \"#utility.yul\":2421:2753   */\n  swap4\n  swap3\n  pop\n  pop\n  pop\n  jump\t// out\n    /* \"#utility.yul\":2759:2939   */\ntag_47:\n    /* \"#utility.yul\":2807:2884   */\n  0x4e487b7100000000000000000000000000000000000000000000000000000000\n    /* \"#utility.yul\":2804:2805   */\n  0x00\n    /* \"#utility.yul\":2797:2885   */\n  mstore\n    /* \"#utility.yul\":2904:2908   */\n  0x41\n    /* \"#utility.yul\":2901:2902   */\n  0x04\n    /* \"#utility.yul\":2894:2909   */\n  mstore\n    /* \"#utility.yul\":2928:2932   */\n  0x24\n    /* \"#utility.yul\":2925:2926   */\n  0x00\n    /* \"#utility.yul\":2918:2933   */\n  revert\n    /* \"#utility.yul\":2945:3125   */\ntag_51:\n    /* \"#utility.yul\":2993:3070   */\n  0x4e487b7100000000000000000000000000000000000000000000000000000000\n    /* \"#utility.yul\":2990:2991   */\n  0x00\n    /* \"#utility.yul\":2983:3071   */\n  mstore\n    /* \"#utility.yul\":3090:3094   */\n  0x32\n    /* \"#utility.yul\":3087:3088   */\n  0x04\n    /* \"#utility.yul\":3080:3095   */\n  mstore\n    /* \"#utility.yul\":3114:3118   */\n  0x24\n    /* \"#utility.yul\":3111:3112   */\n  0x00\n    /* \"#utility.yul\":3104:3119   */\n  revert\n    /* \"#utility.yul\":3131:3257   */\ntag_104:\n    /* \"#utility.yul\":3168:3175   */\n  0x00\n    /* \"#utility.yul\":3208:3250   */\n  0xffffffffffffffffffffffffffffffffffffffff\n    /* \"#utility.yul\":3201:3206   */\n  dup3\n    /* \"#utility.yul\":3197:3251   */\n  and\n    /* \"#utility.yul\":3186:3251   */\n  swap1\n  pop\n    /* \"#utility.yul\":3131:3257   */\n  swap2\n  swap1\n  pop\n  jump\t// out\n    /* \"#utility.yul\":3263:3359   */\ntag_105:\n    /* \"#utility.yul\":3300:3307   */\n  0x00\n    /* \"#utility.yul\":3329:3353   */\n  tag_155\n    /* \"#utility.yul\":3347:3352   */\n  dup3\n    /* \"#utility.yul\":3329:3353   */\n  tag_104\n  jump\t// in\ntag_155:\n    /* \"#utility.yul\":3318:3353   */\n  swap1\n  pop\n    /* \"#utility.yul\":3263:3359   */\n  swap2\n  swap1\n  pop\n  jump\t// out\n    /* \"#utility.yul\":3365:3483   */\ntag_106:\n    /* \"#utility.yul\":3452:3476   */\n  tag_157\n    /* \"#utility.yul\":3470:3475   */\n  dup2\n    /* \"#utility.yul\":3452:3476   */\n  tag_105\n  jump\t// in\ntag_157:\n    /* \"#utility.yul\":3447:3450   */\n  dup3\n    /* \"#utility.yul\":3440:3477   */\n  mstore\n    /* \"#utility.yul\":3365:3483   */\n  pop\n  pop\n  jump\t// out\n    /* \"#utility.yul\":3489:3587   */\ntag_107:\n    /* \"#utility.yul\":3540:3546   */\n  0x00\n    /* \"#utility.yul\":3574:3579   */\n  dup2\n    /* \"#utility.yul\":3568:3580   */\n  mload\n    /* \"#utility.yul\":3558:3580   */\n  swap1\n  pop\n    /* \"#utility.yul\":3489:3587   */\n  swap2\n  swap1\n  pop\n  jump\t// out\n    /* \"#utility.yul\":3593:3761   */\ntag_108:\n    /* \"#utility.yul\":3676:3687   */\n  0x00\n    /* \"#utility.yul\":3710:3716   */\n  dup3\n    /* \"#utility.yul\":3705:3708   */\n  dup3\n    /* \"#utility.yul\":3698:3717   */\n  mstore\n    /* \"#utility.yul\":3750:3754   */\n  0x20\n    /* \"#utility.yul\":3745:3748   */\n  dup3\n    /* \"#utility.yul\":3741:3755   */\n  add\n    /* \"#utility.yul\":3726:3755   */\n  swap1\n  pop\n    /* \"#utility.yul\":3593:3761   */\n  swap3\n  swap2\n  pop\n  pop\n  jump\t// out\n    /* \"#utility.yul\":3767:4074   */\ntag_109:\n    /* \"#utility.yul\":3835:3836   */\n  0x00\n    /* \"#utility.yul\":3845:3958   */\ntag_161:\n    /* \"#utility.yul\":3859:3865   */\n  dup4\n    /* \"#utility.yul\":3856:3857   */\n  dup2\n    /* \"#utility.yul\":3853:3866   */\n  lt\n    /* \"#utility.yul\":3845:3958   */\n  iszero\n  tag_163\n  jumpi\n    /* \"#utility.yul\":3944:3945   */\n  dup1\n    /* \"#utility.yul\":3939:3942   */\n  dup3\n    /* \"#utility.yul\":3935:3946   */\n  add\n    /* \"#utility.yul\":3929:3947   */\n  mload\n    /* \"#utility.yul\":3925:3926   */\n  dup2\n    /* \"#utility.yul\":3920:3923   */\n  dup5\n    /* \"#utility.yul\":3916:3927   */\n  add\n    /* \"#utility.yul\":3909:3948   */\n  mstore\n    /* \"#utility.yul\":3881:3883   */\n  0x20\n    /* \"#utility.yul\":3878:3879   */\n  dup2\n    /* \"#utility.yul\":3874:3884   */\n  add\n    /* \"#utility.yul\":3869:3884   */\n  swap1\n  pop\n    /* \"#utility.yul\":3845:3958   */\n  jump(tag_161)\ntag_163:\n    /* \"#utility.yul\":3976:3982   */\n  dup4\n    /* \"#utility.yul\":3973:3974   */\n  dup2\n    /* \"#utility.yul\":3970:3983   */\n  gt\n    /* \"#utility.yul\":3967:4068   */\n  iszero\n  tag_164\n  jumpi\n    /* \"#utility.yul\":4056:4057   */\n  0x00\n    /* \"#utility.yul\":4047:4053   */\n  dup5\n    /* \"#utility.yul\":4042:4045   */\n  dup5\n    /* \"#utility.yul\":4038:4054   */\n  add\n    /* \"#utility.yul\":4031:4058   */\n  mstore\n    /* \"#utility.yul\":3967:4068   */\ntag_164:\n    /* \"#utility.yul\":3816:4074   */\n  pop\n    /* \"#utility.yul\":3767:4074   */\n  pop\n  pop\n  pop\n  jump\t// out\n    /* \"#utility.yul\":4080:4182   */\ntag_110:\n    /* \"#utility.yul\":4121:4127   */\n  0x00\n    /* \"#utility.yul\":4172:4174   */\n  0x1f\n    /* \"#utility.yul\":4168:4175   */\n  not\n    /* \"#utility.yul\":4163:4165   */\n  0x1f\n    /* \"#utility.yul\":4156:4161   */\n  dup4\n    /* \"#utility.yul\":4152:4166   */\n  add\n    /* \"#utility.yul\":4148:4176   */\n  and\n    /* \"#utility.yul\":4138:4176   */\n  swap1\n  pop\n    /* \"#utility.yul\":4080:4182   */\n  swap2\n  swap1\n  pop\n  jump\t// out\n    /* \"#utility.yul\":4188:4548   */\ntag_111:\n    /* \"#utility.yul\":4274:4277   */\n  0x00\n    /* \"#utility.yul\":4302:4340   */\n  tag_167\n    /* \"#utility.yul\":4334:4339   */\n  dup3\n    /* \"#utility.yul\":4302:4340   */\n  tag_107\n  jump\t// in\ntag_167:\n    /* \"#utility.yul\":4356:4426   */\n  tag_168\n    /* \"#utility.yul\":4419:4425   */\n  dup2\n    /* \"#utility.yul\":4414:4417   */\n  dup6\n    /* \"#utility.yul\":4356:4426   */\n  tag_108\n  jump\t// in\ntag_168:\n    /* \"#utility.yul\":4349:4426   */\n  swap4\n  pop\n    /* \"#utility.yul\":4435:4487   */\n  tag_169\n    /* \"#utility.yul\":4480:4486   */\n  dup2\n    /* \"#utility.yul\":4475:4478   */\n  dup6\n    /* \"#utility.yul\":4468:4472   */\n  0x20\n    /* \"#utility.yul\":4461:4466   */\n  dup7\n    /* \"#utility.yul\":4457:4473   */\n  add\n    /* \"#utility.yul\":4435:4487   */\n  tag_109\n  jump\t// in\ntag_169:\n    /* \"#utility.yul\":4512:4541   */\n  tag_170\n    /* \"#utility.yul\":4534:4540   */\n  dup2\n    /* \"#utility.yul\":4512:4541   */\n  tag_110\n  jump\t// in\ntag_170:\n    /* \"#utility.yul\":4507:4510   */\n  dup5\n    /* \"#utility.yul\":4503:4542   */\n  add\n    /* \"#utility.yul\":4496:4542   */\n  swap2\n  pop\n    /* \"#utility.yul\":4278:4548   */\n  pop\n    /* \"#utility.yul\":4188:4548   */\n  swap3\n  swap2\n  pop\n  pop\n  jump\t// out\n    /* \"#utility.yul\":4554:5305   */\ntag_58:\n    /* \"#utility.yul\":4777:4781   */\n  0x00\n    /* \"#utility.yul\":4815:4818   */\n  0xa0\n    /* \"#utility.yul\":4804:4813   */\n  dup3\n    /* \"#utility.yul\":4800:4819   */\n  add\n    /* \"#utility.yul\":4792:4819   */\n  swap1\n  pop\n    /* \"#utility.yul\":4829:4900   */\n  tag_172\n    /* \"#utility.yul\":4897:4898   */\n  0x00\n    /* \"#utility.yul\":4886:4895   */\n  dup4\n    /* \"#utility.yul\":4882:4899   */\n  add\n    /* \"#utility.yul\":4873:4879   */\n  dup9\n    /* \"#utility.yul\":4829:4900   */\n  tag_106\n  jump\t// in\ntag_172:\n    /* \"#utility.yul\":4910:4982   */\n  tag_173\n    /* \"#utility.yul\":4978:4980   */\n  0x20\n    /* \"#utility.yul\":4967:4976   */\n  dup4\n    /* \"#utility.yul\":4963:4981   */\n  add\n    /* \"#utility.yul\":4954:4960   */\n  dup8\n    /* \"#utility.yul\":4910:4982   */\n  tag_106\n  jump\t// in\ntag_173:\n    /* \"#utility.yul\":4992:5064   */\n  tag_174\n    /* \"#utility.yul\":5060:5062   */\n  0x40\n    /* \"#utility.yul\":5049:5058   */\n  dup4\n    /* \"#utility.yul\":5045:5063   */\n  add\n    /* \"#utility.yul\":5036:5042   */\n  dup7\n    /* \"#utility.yul\":4992:5064   */\n  tag_103\n  jump\t// in\ntag_174:\n    /* \"#utility.yul\":5074:5146   */\n  tag_175\n    /* \"#utility.yul\":5142:5144   */\n  0x60\n    /* \"#utility.yul\":5131:5140   */\n  dup4\n    /* \"#utility.yul\":5127:5145   */\n  add\n    /* \"#utility.yul\":5118:5124   */\n  dup6\n    /* \"#utility.yul\":5074:5146   */\n  tag_103\n  jump\t// in\ntag_175:\n    /* \"#utility.yul\":5194:5203   */\n  dup2\n    /* \"#utility.yul\":5188:5192   */\n  dup2\n    /* \"#utility.yul\":5184:5204   */\n  sub\n    /* \"#utility.yul\":5178:5181   */\n  0x80\n    /* \"#utility.yul\":5167:5176   */\n  dup4\n    /* \"#utility.yul\":5163:5182   */\n  add\n    /* \"#utility.yul\":5156:5205   */\n  mstore\n    /* \"#utility.yul\":5222:5298   */\n  tag_176\n    /* \"#utility.yul\":5293:5297   */\n  dup2\n    /* \"#utility.yul\":5284:5290   */\n  dup5\n    /* \"#utility.yul\":5222:5298   */\n  tag_111\n  jump\t// in\ntag_176:\n    /* \"#utility.yul\":5214:5298   */\n  swap1\n  pop\n    /* \"#utility.yul\":4554:5305   */\n  swap7\n  swap6\n  pop\n  pop\n  pop\n  pop\n  pop\n  pop\n  jump\t// out\n    /* \"#utility.yul\":5311:5386   */\ntag_112:\n    /* \"#utility.yul\":5344:5350   */\n  0x00\n    /* \"#utility.yul\":5377:5379   */\n  0x40\n    /* \"#utility.yul\":5371:5380   */\n  mload\n    /* \"#utility.yul\":5361:5380   */\n  swap1\n  pop\n    /* \"#utility.yul\":5311:5386   */\n  swap1\n  jump\t// out\n    /* \"#utility.yul\":5392:5509   */\ntag_113:\n    /* \"#utility.yul\":5501:5502   */\n  0x00\n    /* \"#utility.yul\":5498:5499   */\n  dup1\n    /* \"#utility.yul\":5491:5503   */\n  revert\n    /* \"#utility.yul\":5638:5787   */\ntag_115:\n    /* \"#utility.yul\":5674:5681   */\n  0x00\n    /* \"#utility.yul\":5714:5780   */\n  0xffffffff00000000000000000000000000000000000000000000000000000000\n    /* \"#utility.yul\":5707:5712   */\n  dup3\n    /* \"#utility.yul\":5703:5781   */\n  and\n    /* \"#utility.yul\":5692:5781   */\n  swap1\n  pop\n    /* \"#utility.yul\":5638:5787   */\n  swap2\n  swap1\n  pop\n  jump\t// out\n    /* \"#utility.yul\":5793:5913   */\ntag_116:\n    /* \"#utility.yul\":5865:5888   */\n  tag_182\n    /* \"#utility.yul\":5882:5887   */\n  dup2\n    /* \"#utility.yul\":5865:5888   */\n  tag_115\n  jump\t// in\ntag_182:\n    /* \"#utility.yul\":5858:5863   */\n  dup2\n    /* \"#utility.yul\":5855:5889   */\n  eq\n    /* \"#utility.yul\":5845:5907   */\n  tag_183\n  jumpi\n    /* \"#utility.yul\":5903:5904   */\n  0x00\n    /* \"#utility.yul\":5900:5901   */\n  dup1\n    /* \"#utility.yul\":5893:5905   */\n  revert\n    /* \"#utility.yul\":5845:5907   */\ntag_183:\n    /* \"#utility.yul\":5793:5913   */\n  pop\n  jump\t// out\n    /* \"#utility.yul\":5919:6060   */\ntag_117:\n    /* \"#utility.yul\":5975:5980   */\n  0x00\n    /* \"#utility.yul\":6006:6012   */\n  dup2\n    /* \"#utility.yul\":6000:6013   */\n  mload\n    /* \"#utility.yul\":5991:6013   */\n  swap1\n  pop\n    /* \"#utility.yul\":6022:6054   */\n  tag_185\n    /* \"#utility.yul\":6048:6053   */\n  dup2\n    /* \"#utility.yul\":6022:6054   */\n  tag_116\n  jump\t// in\ntag_185:\n    /* \"#utility.yul\":5919:6060   */\n  swap3\n  swap2\n  pop\n  pop\n  jump\t// out\n    /* \"#utility.yul\":6066:6415   */\ntag_61:\n    /* \"#utility.yul\":6135:6141   */\n  0x00\n    /* \"#utility.yul\":6184:6186   */\n  0x20\n    /* \"#utility.yul\":6172:6181   */\n  dup3\n    /* \"#utility.yul\":6163:6170   */\n  dup5\n    /* \"#utility.yul\":6159:6182   */\n  sub\n    /* \"#utility.yul\":6155:6187   */\n  slt\n    /* \"#utility.yul\":6152:6271   */\n  iszero\n  tag_187\n  jumpi\n    /* \"#utility.yul\":6190:6269   */\n  tag_188\n  tag_113\n  jump\t// in\ntag_188:\n    /* \"#utility.yul\":6152:6271   */\ntag_187:\n    /* \"#utility.yul\":6310:6311   */\n  0x00\n    /* \"#utility.yul\":6335:6398   */\n  tag_189\n    /* \"#utility.yul\":6390:6397   */\n  dup5\n    /* \"#utility.yul\":6381:6387   */\n  dup3\n    /* \"#utility.yul\":6370:6379   */\n  dup6\n    /* \"#utility.yul\":6366:6388   */\n  add\n    /* \"#utility.yul\":6335:6398   */\n  tag_117\n  jump\t// in\ntag_189:\n    /* \"#utility.yul\":6325:6398   */\n  swap2\n  pop\n    /* \"#utility.yul\":6281:6408   */\n  pop\n    /* \"#utility.yul\":6066:6415   */\n  swap3\n  swap2\n  pop\n  pop\n  jump\t// out\n    /* \"#utility.yul\":6421:6527   */\ntag_118:\n    /* \"#utility.yul\":6465:6473   */\n  0x00\n    /* \"#utility.yul\":6514:6519   */\n  dup2\n    /* \"#utility.yul\":6509:6512   */\n  0xe0\n    /* \"#utility.yul\":6505:6520   */\n  shr\n    /* \"#utility.yul\":6484:6520   */\n  swap1\n  pop\n    /* \"#utility.yul\":6421:6527   */\n  swap2\n  swap1\n  pop\n  jump\t// out\n    /* \"#utility.yul\":6533:6716   */\ntag_67:\n    /* \"#utility.yul\":6568:6571   */\n  0x00\n    /* \"#utility.yul\":6606:6607   */\n  0x03\n    /* \"#utility.yul\":6588:6604   */\n  returndatasize\n    /* \"#utility.yul\":6585:6608   */\n  gt\n    /* \"#utility.yul\":6582:6710   */\n  iszero\n  tag_192\n  jumpi\n    /* \"#utility.yul\":6644:6645   */\n  0x04\n    /* \"#utility.yul\":6641:6642   */\n  0x00\n    /* \"#utility.yul\":6638:6639   */\n  dup1\n    /* \"#utility.yul\":6623:6646   */\n  returndatacopy\n    /* \"#utility.yul\":6666:6700   */\n  tag_193\n    /* \"#utility.yul\":6697:6698   */\n  0x00\n    /* \"#utility.yul\":6691:6699   */\n  mload\n    /* \"#utility.yul\":6666:6700   */\n  tag_118\n  jump\t// in\ntag_193:\n    /* \"#utility.yul\":6659:6700   */\n  swap1\n  pop\n    /* \"#utility.yul\":6582:6710   */\ntag_192:\n    /* \"#utility.yul\":6533:6716   */\n  swap1\n  jump\t// out\n    /* \"#utility.yul\":6722:7003   */\ntag_119:\n    /* \"#utility.yul\":6805:6832   */\n  tag_195\n    /* \"#utility.yul\":6827:6831   */\n  dup3\n    /* \"#utility.yul\":6805:6832   */\n  tag_110\n  jump\t// in\ntag_195:\n    /* \"#utility.yul\":6797:6803   */\n  dup2\n    /* \"#utility.yul\":6793:6833   */\n  add\n    /* \"#utility.yul\":6935:6941   */\n  dup2\n    /* \"#utility.yul\":6923:6933   */\n  dup2\n    /* \"#utility.yul\":6920:6942   */\n  lt\n    /* \"#utility.yul\":6899:6917   */\n  0xffffffffffffffff\n    /* \"#utility.yul\":6887:6897   */\n  dup3\n    /* \"#utility.yul\":6884:6918   */\n  gt\n    /* \"#utility.yul\":6881:6943   */\n  or\n    /* \"#utility.yul\":6878:6966   */\n  iszero\n  tag_196\n  jumpi\n    /* \"#utility.yul\":6946:6964   */\n  tag_197\n  tag_47\n  jump\t// in\ntag_197:\n    /* \"#utility.yul\":6878:6966   */\ntag_196:\n    /* \"#utility.yul\":6986:6996   */\n  dup1\n    /* \"#utility.yul\":6982:6984   */\n  0x40\n    /* \"#utility.yul\":6975:6997   */\n  mstore\n    /* \"#utility.yul\":6765:7003   */\n  pop\n    /* \"#utility.yul\":6722:7003   */\n  pop\n  pop\n  jump\t// out\n    /* \"#utility.yul\":7009:7720   */\ntag_69:\n    /* \"#utility.yul\":7048:7051   */\n  0x00\n    /* \"#utility.yul\":7086:7090   */\n  0x44\n    /* \"#utility.yul\":7068:7084   */\n  returndatasize\n    /* \"#utility.yul\":7065:7091   */\n  lt\n    /* \"#utility.yul\":7062:7101   */\n  iszero\n  tag_199\n  jumpi\n    /* \"#utility.yul\":7094:7099   */\n  jump(tag_198)\n    /* \"#utility.yul\":7062:7101   */\ntag_199:\n    /* \"#utility.yul\":7123:7143   */\n  tag_200\n  tag_112\n  jump\t// in\ntag_200:\n    /* \"#utility.yul\":7198:7199   */\n  0x04\n    /* \"#utility.yul\":7180:7196   */\n  returndatasize\n    /* \"#utility.yul\":7176:7200   */\n  sub\n    /* \"#utility.yul\":7173:7174   */\n  0x04\n    /* \"#utility.yul\":7167:7171   */\n  dup3\n    /* \"#utility.yul\":7152:7201   */\n  returndatacopy\n    /* \"#utility.yul\":7231:7235   */\n  dup1\n    /* \"#utility.yul\":7225:7236   */\n  mload\n    /* \"#utility.yul\":7330:7346   */\n  returndatasize\n    /* \"#utility.yul\":7323:7327   */\n  0x24\n    /* \"#utility.yul\":7315:7321   */\n  dup3\n    /* \"#utility.yul\":7311:7328   */\n  add\n    /* \"#utility.yul\":7308:7347   */\n  gt\n    /* \"#utility.yul\":7275:7293   */\n  0xffffffffffffffff\n    /* \"#utility.yul\":7267:7273   */\n  dup3\n    /* \"#utility.yul\":7264:7294   */\n  gt\n    /* \"#utility.yul\":7248:7361   */\n  or\n    /* \"#utility.yul\":7245:7391   */\n  iszero\n  tag_201\n  jumpi\n    /* \"#utility.yul\":7376:7381   */\n  pop\n  pop\n  jump(tag_198)\n    /* \"#utility.yul\":7245:7391   */\ntag_201:\n    /* \"#utility.yul\":7422:7428   */\n  dup1\n    /* \"#utility.yul\":7416:7420   */\n  dup3\n    /* \"#utility.yul\":7412:7429   */\n  add\n    /* \"#utility.yul\":7458:7461   */\n  dup1\n    /* \"#utility.yul\":7452:7462   */\n  mload\n    /* \"#utility.yul\":7485:7503   */\n  0xffffffffffffffff\n    /* \"#utility.yul\":7477:7483   */\n  dup2\n    /* \"#utility.yul\":7474:7504   */\n  gt\n    /* \"#utility.yul\":7471:7514   */\n  iszero\n  tag_202\n  jumpi\n    /* \"#utility.yul\":7507:7512   */\n  pop\n  pop\n  pop\n  pop\n  jump(tag_198)\n    /* \"#utility.yul\":7471:7514   */\ntag_202:\n    /* \"#utility.yul\":7555:7561   */\n  dup1\n    /* \"#utility.yul\":7548:7552   */\n  0x20\n    /* \"#utility.yul\":7543:7546   */\n  dup4\n    /* \"#utility.yul\":7539:7553   */\n  add\n    /* \"#utility.yul\":7535:7562   */\n  add\n    /* \"#utility.yul\":7614:7615   */\n  0x04\n    /* \"#utility.yul\":7596:7612   */\n  returndatasize\n    /* \"#utility.yul\":7592:7616   */\n  sub\n    /* \"#utility.yul\":7586:7590   */\n  dup6\n    /* \"#utility.yul\":7582:7617   */\n  add\n    /* \"#utility.yul\":7577:7580   */\n  dup2\n    /* \"#utility.yul\":7574:7618   */\n  gt\n    /* \"#utility.yul\":7571:7628   */\n  iszero\n  tag_203\n  jumpi\n    /* \"#utility.yul\":7621:7626   */\n  pop\n  pop\n  pop\n  pop\n  pop\n  jump(tag_198)\n    /* \"#utility.yul\":7571:7628   */\ntag_203:\n    /* \"#utility.yul\":7638:7695   */\n  tag_204\n    /* \"#utility.yul\":7686:7692   */\n  dup3\n    /* \"#utility.yul\":7680:7684   */\n  0x20\n    /* \"#utility.yul\":7676:7693   */\n  add\n    /* \"#utility.yul\":7668:7674   */\n  dup6\n    /* \"#utility.yul\":7664:7694   */\n  add\n    /* \"#utility.yul\":7658:7662   */\n  dup7\n    /* \"#utility.yul\":7638:7695   */\n  tag_119\n  jump\t// in\ntag_204:\n    /* \"#utility.yul\":7711:7714   */\n  dup3\n    /* \"#utility.yul\":7704:7714   */\n  swap6\n  pop\n    /* \"#utility.yul\":7052:7720   */\n  pop\n  pop\n  pop\n  pop\n  pop\n    /* \"#utility.yul\":7009:7720   */\ntag_198:\n  swap1\n  jump\t// out\n    /* \"#utility.yul\":7726:7825   */\ntag_120:\n    /* \"#utility.yul\":7778:7784   */\n  0x00\n    /* \"#utility.yul\":7812:7817   */\n  dup2\n    /* \"#utility.yul\":7806:7818   */\n  mload\n    /* \"#utility.yul\":7796:7818   */\n  swap1\n  pop\n    /* \"#utility.yul\":7726:7825   */\n  swap2\n  swap1\n  pop\n  jump\t// out\n    /* \"#utility.yul\":7831:8195   */\ntag_121:\n    /* \"#utility.yul\":7919:7922   */\n  0x00\n    /* \"#utility.yul\":7947:7986   */\n  tag_207\n    /* \"#utility.yul\":7980:7985   */\n  dup3\n    /* \"#utility.yul\":7947:7986   */\n  tag_120\n  jump\t// in\ntag_207:\n    /* \"#utility.yul\":8002:8073   */\n  tag_208\n    /* \"#utility.yul\":8066:8072   */\n  dup2\n    /* \"#utility.yul\":8061:8064   */\n  dup6\n    /* \"#utility.yul\":8002:8073   */\n  tag_100\n  jump\t// in\ntag_208:\n    /* \"#utility.yul\":7995:8073   */\n  swap4\n  pop\n    /* \"#utility.yul\":8082:8134   */\n  tag_209\n    /* \"#utility.yul\":8127:8133   */\n  dup2\n    /* \"#utility.yul\":8122:8125   */\n  dup6\n    /* \"#utility.yul\":8115:8119   */\n  0x20\n    /* \"#utility.yul\":8108:8113   */\n  dup7\n    /* \"#utility.yul\":8104:8120   */\n  add\n    /* \"#utility.yul\":8082:8134   */\n  tag_109\n  jump\t// in\ntag_209:\n    /* \"#utility.yul\":8159:8188   */\n  tag_210\n    /* \"#utility.yul\":8181:8187   */\n  dup2\n    /* \"#utility.yul\":8159:8188   */\n  tag_110\n  jump\t// in\ntag_210:\n    /* \"#utility.yul\":8154:8157   */\n  dup5\n    /* \"#utility.yul\":8150:8189   */\n  add\n    /* \"#utility.yul\":8143:8189   */\n  swap2\n  pop\n    /* \"#utility.yul\":7923:8195   */\n  pop\n    /* \"#utility.yul\":7831:8195   */\n  swap3\n  swap2\n  pop\n  pop\n  jump\t// out\n    /* \"#utility.yul\":8201:8514   */\ntag_72:\n    /* \"#utility.yul\":8314:8318   */\n  0x00\n    /* \"#utility.yul\":8352:8354   */\n  0x20\n    /* \"#utility.yul\":8341:8350   */\n  dup3\n    /* \"#utility.yul\":8337:8355   */\n  add\n    /* \"#utility.yul\":8329:8355   */\n  swap1\n  pop\n    /* \"#utility.yul\":8401:8410   */\n  dup2\n    /* \"#utility.yul\":8395:8399   */\n  dup2\n    /* \"#utility.yul\":8391:8411   */\n  sub\n    /* \"#utility.yul\":8387:8388   */\n  0x00\n    /* \"#utility.yul\":8376:8385   */\n  dup4\n    /* \"#utility.yul\":8372:8389   */\n  add\n    /* \"#utility.yul\":8365:8412   */\n  mstore\n    /* \"#utility.yul\":8429:8507   */\n  tag_212\n    /* \"#utility.yul\":8502:8506   */\n  dup2\n    /* \"#utility.yul\":8493:8499   */\n  dup5\n    /* \"#utility.yul\":8429:8507   */\n  tag_121\n  jump\t// in\ntag_212:\n    /* \"#utility.yul\":8421:8507   */\n  swap1\n  pop\n    /* \"#utility.yul\":8201:8514   */\n  swap3\n  swap2\n  pop\n  pop\n  jump\t// out\n    /* \"#utility.yul\":8520:8759   */\ntag_122:\n    /* \"#utility.yul\":8660:8694   */\n  0x455243313135353a207472616e7366657220746f206e6f6e2045524331313535\n    /* \"#utility.yul\":8656:8657   */\n  0x00\n    /* \"#utility.yul\":8648:8654   */\n  dup3\n    /* \"#utility.yul\":8644:8658   */\n  add\n    /* \"#utility.yul\":8637:8695   */\n  mstore\n    /* \"#utility.yul\":8729:8751   */\n  0x526563656976657220696d706c656d656e746572000000000000000000000000\n    /* \"#utility.yul\":8724:8726   */\n  0x20\n    /* \"#utility.yul\":8716:8722   */\n  dup3\n    /* \"#utility.yul\":8712:8727   */\n  add\n    /* \"#utility.yul\":8705:8752   */\n  mstore\n    /* \"#utility.yul\":8520:8759   */\n  pop\n  jump\t// out\n    /* \"#utility.yul\":8765:9131   */\ntag_123:\n    /* \"#utility.yul\":8907:8910   */\n  0x00\n    /* \"#utility.yul\":8928:8995   */\n  tag_215\n    /* \"#utility.yul\":8992:8994   */\n  0x34\n    /* \"#utility.yul\":8987:8990   */\n  dup4\n    /* \"#utility.yul\":8928:8995   */\n  tag_100\n  jump\t// in\ntag_215:\n    /* \"#utility.yul\":8921:8995   */\n  swap2\n  pop\n    /* \"#utility.yul\":9004:9097   */\n  tag_216\n    /* \"#utility.yul\":9093:9096   */\n  dup3\n    /* \"#utility.yul\":9004:9097   */\n  tag_122\n  jump\t// in\ntag_216:\n    /* \"#utility.yul\":9122:9124   */\n  0x40\n    /* \"#utility.yul\":9117:9120   */\n  dup3\n    /* \"#utility.yul\":9113:9125   */\n  add\n    /* \"#utility.yul\":9106:9125   */\n  swap1\n  pop\n    /* \"#utility.yul\":8765:9131   */\n  swap2\n  swap1\n  pop\n  jump\t// out\n    /* \"#utility.yul\":9137:9556   */\ntag_74:\n    /* \"#utility.yul\":9303:9307   */\n  0x00\n    /* \"#utility.yul\":9341:9343   */\n  0x20\n    /* \"#utility.yul\":9330:9339   */\n  dup3\n    /* \"#utility.yul\":9326:9344   */\n  add\n    /* \"#utility.yul\":9318:9344   */\n  swap1\n  pop\n    /* \"#utility.yul\":9390:9399   */\n  dup2\n    /* \"#utility.yul\":9384:9388   */\n  dup2\n    /* \"#utility.yul\":9380:9400   */\n  sub\n    /* \"#utility.yul\":9376:9377   */\n  0x00\n    /* \"#utility.yul\":9365:9374   */\n  dup4\n    /* \"#utility.yul\":9361:9378   */\n  add\n    /* \"#utility.yul\":9354:9401   */\n  mstore\n    /* \"#utility.yul\":9418:9549   */\n  tag_218\n    /* \"#utility.yul\":9544:9548   */\n  dup2\n    /* \"#utility.yul\":9418:9549   */\n  tag_123\n  jump\t// in\ntag_218:\n    /* \"#utility.yul\":9410:9549   */\n  swap1\n  pop\n    /* \"#utility.yul\":9137:9556   */\n  swap2\n  swap1\n  pop\n  jump\t// out\n    /* \"#utility.yul\":9562:9789   */\ntag_124:\n    /* \"#utility.yul\":9702:9736   */\n  0x455243313135353a204552433131353552656365697665722072656a65637465\n    /* \"#utility.yul\":9698:9699   */\n  0x00\n    /* \"#utility.yul\":9690:9696   */\n  dup3\n    /* \"#utility.yul\":9686:9700   */\n  add\n    /* \"#utility.yul\":9679:9737   */\n  mstore\n    /* \"#utility.yul\":9771:9781   */\n  0x6420746f6b656e73000000000000000000000000000000000000000000000000\n    /* \"#utility.yul\":9766:9768   */\n  0x20\n    /* \"#utility.yul\":9758:9764   */\n  dup3\n    /* \"#utility.yul\":9754:9769   */\n  add\n    /* \"#utility.yul\":9747:9782   */\n  mstore\n    /* \"#utility.yul\":9562:9789   */\n  pop\n  jump\t// out\n    /* \"#utility.yul\":9795:10161   */\ntag_125:\n    /* \"#utility.yul\":9937:9940   */\n  0x00\n    /* \"#utility.yul\":9958:10025   */\n  tag_221\n    /* \"#utility.yul\":10022:10024   */\n  0x28\n    /* \"#utility.yul\":10017:10020   */\n  dup4\n    /* \"#utility.yul\":9958:10025   */\n  tag_100\n  jump\t// in\ntag_221:\n    /* \"#utility.yul\":9951:10025   */\n  swap2\n  pop\n    /* \"#utility.yul\":10034:10127   */\n  tag_222\n    /* \"#utility.yul\":10123:10126   */\n  dup3\n    /* \"#utility.yul\":10034:10127   */\n  tag_124\n  jump\t// in\ntag_222:\n    /* \"#utility.yul\":10152:10154   */\n  0x40\n    /* \"#utility.yul\":10147:10150   */\n  dup3\n    /* \"#utility.yul\":10143:10155   */\n  add\n    /* \"#utility.yul\":10136:10155   */\n  swap1\n  pop\n    /* \"#utility.yul\":9795:10161   */\n  swap2\n  swap1\n  pop\n  jump\t// out\n    /* \"#utility.yul\":10167:10586   */\ntag_78:\n    /* \"#utility.yul\":10333:10337   */\n  0x00\n    /* \"#utility.yul\":10371:10373   */\n  0x20\n    /* \"#utility.yul\":10360:10369   */\n  dup3\n    /* \"#utility.yul\":10356:10374   */\n  add\n    /* \"#utility.yul\":10348:10374   */\n  swap1\n  pop\n    /* \"#utility.yul\":10420:10429   */\n  dup2\n    /* \"#utility.yul\":10414:10418   */\n  dup2\n    /* \"#utility.yul\":10410:10430   */\n  sub\n    /* \"#utility.yul\":10406:10407   */\n  0x00\n    /* \"#utility.yul\":10395:10404   */\n  dup4\n    /* \"#utility.yul\":10391:10408   */\n  add\n    /* \"#utility.yul\":10384:10431   */\n  mstore\n    /* \"#utility.yul\":10448:10579   */\n  tag_224\n    /* \"#utility.yul\":10574:10578   */\n  dup2\n    /* \"#utility.yul\":10448:10579   */\n  tag_125\n  jump\t// in\ntag_224:\n    /* \"#utility.yul\":10440:10579   */\n  swap1\n  pop\n    /* \"#utility.yul\":10167:10586   */\n  swap2\n  swap1\n  pop\n  jump\t// out\n    /* \"High_Nft.sol\":34614:35470  contract High_NFT is ERC1155, Ownable {... */\ntag_24:\n  dataSize(sub_0)\n  dup1\n  dataOffset(sub_0)\n  0x00\n  codecopy\n  0x00\n  return\nstop\ndata_bf2e54bae776a0c08cb6baea323573da7e93cbb899d2ed78d069ad05be0fea87 68747470733a2f2f676174657761792e70696e6174612e636c6f75642f697066732f516d4e664b4636717948594b36424b534e425572464a6b6d5a4835335a34623739576a5838474271336a594b344a\ndata_d1fb7066f40d0147987be585b3791ccf1531c73b5c17e5889530146546d44a08 68747470733a2f2f676174657761792e70696e6174612e636c6f75642f697066732f516d5a396a6657586b563556766e7974656371793238613962506e727a6f4568717a743165695866637978756776\n\nsub_0: assembly {\n        /* \"High_Nft.sol\":34614:35470  contract High_NFT is ERC1155, Ownable {... */\n      mstore(0x40, 0x80)\n      callvalue\n      dup1\n      iszero\n      tag_1\n      jumpi\n      0x00\n      dup1\n      revert\n    tag_1:\n      pop\n      jumpi(tag_2, lt(calldatasize, 0x04))\n      shr(0xe0, calldataload(0x00))\n      dup1\n      0x9dc29fac\n      gt\n      tag_19\n      jumpi\n      dup1\n      0xe985e9c5\n      gt\n      tag_20\n      jumpi\n      dup1\n      0xe985e9c5\n      eq\n      tag_15\n      jumpi\n      dup1\n      0xed70554d\n      eq\n      tag_16\n      jumpi\n      dup1\n      0xf242432a\n      eq\n      tag_17\n      jumpi\n      dup1\n      0xf2fde38b\n      eq\n      tag_18\n      jumpi\n      jump(tag_2)\n    tag_20:\n      dup1\n      0x9dc29fac\n      eq\n      tag_11\n      jumpi\n      dup1\n      0xa22cb465\n      eq\n      tag_12\n      jumpi\n      dup1\n      0xd85d3d27\n      eq\n      tag_13\n      jumpi\n      dup1\n      0xe8a3d485\n      eq\n      tag_14\n      jumpi\n      jump(tag_2)\n    tag_19:\n      dup1\n      0x2eb2c2d6\n      gt\n      tag_21\n      jumpi\n      dup1\n      0x2eb2c2d6\n      eq\n      tag_7\n      jumpi\n      dup1\n      0x4e1273f4\n      eq\n      tag_8\n      jumpi\n      dup1\n      0x715018a6\n      eq\n      tag_9\n      jumpi\n      dup1\n      0x8da5cb5b\n      eq\n      tag_10\n      jumpi\n      jump(tag_2)\n    tag_21:\n      dup1\n      0xfdd58e\n      eq\n      tag_3\n      jumpi\n      dup1\n      0x01ffc9a7\n      eq\n      tag_4\n      jumpi\n      dup1\n      0x0673d7d0\n      eq\n      tag_5\n      jumpi\n      dup1\n      0x0e89341c\n      eq\n      tag_6\n      jumpi\n    tag_2:\n      0x00\n      dup1\n      revert\n        /* \"High_Nft.sol\":21478:21706  function balanceOf(address account, uint256 id) public view virtual override returns (uint256) {... */\n    tag_3:\n      tag_22\n      0x04\n      dup1\n      calldatasize\n      sub\n      dup2\n      add\n      swap1\n      tag_23\n      swap2\n      swap1\n      tag_24\n      jump\t// in\n    tag_23:\n      tag_25\n      jump\t// in\n    tag_22:\n      mload(0x40)\n      tag_26\n      swap2\n      swap1\n      tag_27\n      jump\t// in\n    tag_26:\n      mload(0x40)\n      dup1\n      swap2\n      sub\n      swap1\n      return\n        /* \"High_Nft.sol\":20529:20834  function supportsInterface(bytes4 interfaceId) public view virtual override(ERC165, IERC165) returns (bool) {... */\n    tag_4:\n      tag_28\n      0x04\n      dup1\n      calldatasize\n      sub\n      dup2\n      add\n      swap1\n      tag_29\n      swap2\n      swap1\n      tag_30\n      jump\t// in\n    tag_29:\n      tag_31\n      jump\t// in\n    tag_28:\n      mload(0x40)\n      tag_32\n      swap2\n      swap1\n      tag_33\n      jump\t// in\n    tag_32:\n      mload(0x40)\n      dup1\n      swap2\n      sub\n      swap1\n      return\n        /* \"High_Nft.sol\":34660:34687  uint256 public Token_Id = 0 */\n    tag_5:\n      tag_34\n      tag_35\n      jump\t// in\n    tag_34:\n      mload(0x40)\n      tag_36\n      swap2\n      swap1\n      tag_27\n      jump\t// in\n    tag_36:\n      mload(0x40)\n      dup1\n      swap2\n      sub\n      swap1\n      return\n        /* \"High_Nft.sol\":21233:21336  function uri(uint256) public view virtual override returns (string memory) {... */\n    tag_6:\n      tag_37\n      0x04\n      dup1\n      calldatasize\n      sub\n      dup2\n      add\n      swap1\n      tag_38\n      swap2\n      swap1\n      tag_39\n      jump\t// in\n    tag_38:\n      tag_40\n      jump\t// in\n    tag_37:\n      mload(0x40)\n      tag_41\n      swap2\n      swap1\n      tag_42\n      jump\t// in\n    tag_41:\n      mload(0x40)\n      dup1\n      swap2\n      sub\n      swap1\n      return\n        /* \"High_Nft.sol\":23353:23783  function safeBatchTransferFrom(... */\n    tag_7:\n      tag_43\n      0x04\n      dup1\n      calldatasize\n      sub\n      dup2\n      add\n      swap1\n      tag_44\n      swap2\n      swap1\n      tag_45\n      jump\t// in\n    tag_44:\n      tag_46\n      jump\t// in\n    tag_43:\n      stop\n        /* \"High_Nft.sol\":21863:22371  function balanceOfBatch(address[] memory accounts, uint256[] memory ids)... */\n    tag_8:\n      tag_47\n      0x04\n      dup1\n      calldatasize\n      sub\n      dup2\n      add\n      swap1\n      tag_48\n      swap2\n      swap1\n      tag_49\n      jump\t// in\n    tag_48:\n      tag_50\n      jump\t// in\n    tag_47:\n      mload(0x40)\n      tag_51\n      swap2\n      swap1\n      tag_52\n      jump\t// in\n    tag_51:\n      mload(0x40)\n      dup1\n      swap2\n      sub\n      swap1\n      return\n        /* \"High_Nft.sol\":18948:19040  function renounceOwnership() public virtual onlyOwner {... */\n    tag_9:\n      tag_53\n      tag_54\n      jump\t// in\n    tag_53:\n      stop\n        /* \"High_Nft.sol\":18316:18401  function owner() public view virtual returns (address) {... */\n    tag_10:\n      tag_55\n      tag_56\n      jump\t// in\n    tag_55:\n      mload(0x40)\n      tag_57\n      swap2\n      swap1\n      tag_58\n      jump\t// in\n    tag_57:\n      mload(0x40)\n      dup1\n      swap2\n      sub\n      swap1\n      return\n        /* \"High_Nft.sol\":35338:35467  function burn(address account, uint256 id) public ... */\n    tag_11:\n      tag_59\n      0x04\n      dup1\n      calldatasize\n      sub\n      dup2\n      add\n      swap1\n      tag_60\n      swap2\n      swap1\n      tag_24\n      jump\t// in\n    tag_60:\n      tag_61\n      jump\t// in\n    tag_59:\n      stop\n        /* \"High_Nft.sol\":22439:22592  function setApprovalForAll(address operator, bool approved) public virtual override {... */\n    tag_12:\n      tag_62\n      0x04\n      dup1\n      calldatasize\n      sub\n      dup2\n      add\n      swap1\n      tag_63\n      swap2\n      swap1\n      tag_64\n      jump\t// in\n    tag_63:\n      tag_65\n      jump\t// in\n    tag_62:\n      stop\n        /* \"High_Nft.sol\":35110:35323  function mint (string memory newuri) public {... */\n    tag_13:\n      tag_66\n      0x04\n      dup1\n      calldatasize\n      sub\n      dup2\n      add\n      swap1\n      tag_67\n      swap2\n      swap1\n      tag_68\n      jump\t// in\n    tag_67:\n      tag_69\n      jump\t// in\n    tag_66:\n      stop\n        /* \"High_Nft.sol\":34736:34846  string public contractURI = \"https://gateway.pinata.cloud/ipfs/QmNfKF6qyHYK6BKSNBUrFJkmZH53Z4b79WjX8GBq3jYK4J\" */\n    tag_14:\n      tag_70\n      tag_71\n      jump\t// in\n    tag_70:\n      mload(0x40)\n      tag_72\n      swap2\n      swap1\n      tag_42\n      jump\t// in\n    tag_72:\n      mload(0x40)\n      dup1\n      swap2\n      sub\n      swap1\n      return\n        /* \"High_Nft.sol\":22659:22825  function isApprovedForAll(address account, address operator) public view virtual override returns (bool) {... */\n    tag_15:\n      tag_73\n      0x04\n      dup1\n      calldatasize\n      sub\n      dup2\n      add\n      swap1\n      tag_74\n      swap2\n      swap1\n      tag_75\n      jump\t// in\n    tag_74:\n      tag_76\n      jump\t// in\n    tag_73:\n      mload(0x40)\n      tag_77\n      swap2\n      swap1\n      tag_33\n      jump\t// in\n    tag_77:\n      mload(0x40)\n      dup1\n      swap2\n      sub\n      swap1\n      return\n        /* \"High_Nft.sol\":34691:34733  mapping (uint256 => string) public _tokens */\n    tag_16:\n      tag_78\n      0x04\n      dup1\n      calldatasize\n      sub\n      dup2\n      add\n      swap1\n      tag_79\n      swap2\n      swap1\n      tag_39\n      jump\t// in\n    tag_79:\n      tag_80\n      jump\t// in\n    tag_78:\n      mload(0x40)\n      tag_81\n      swap2\n      swap1\n      tag_42\n      jump\t// in\n    tag_81:\n      mload(0x40)\n      dup1\n      swap2\n      sub\n      swap1\n      return\n        /* \"High_Nft.sol\":22892:23281  function safeTransferFrom(... */\n    tag_17:\n      tag_82\n      0x04\n      dup1\n      calldatasize\n      sub\n      dup2\n      add\n      swap1\n      tag_83\n      swap2\n      swap1\n      tag_84\n      jump\t// in\n    tag_83:\n      tag_85\n      jump\t// in\n    tag_82:\n      stop\n        /* \"High_Nft.sol\":19189:19378  function transferOwnership(address newOwner) public virtual onlyOwner {... */\n    tag_18:\n      tag_86\n      0x04\n      dup1\n      calldatasize\n      sub\n      dup2\n      add\n      swap1\n      tag_87\n      swap2\n      swap1\n      tag_88\n      jump\t// in\n    tag_87:\n      tag_89\n      jump\t// in\n    tag_86:\n      stop\n        /* \"High_Nft.sol\":21478:21706  function balanceOf(address account, uint256 id) public view virtual override returns (uint256) {... */\n    tag_25:\n        /* \"High_Nft.sol\":21564:21571  uint256 */\n      0x00\n        /* \"High_Nft.sol\":21610:21611  0 */\n      dup1\n        /* \"High_Nft.sol\":21591:21612  account != address(0) */\n      0xffffffffffffffffffffffffffffffffffffffff\n      and\n        /* \"High_Nft.sol\":21591:21598  account */\n      dup4\n        /* \"High_Nft.sol\":21591:21612  account != address(0) */\n      0xffffffffffffffffffffffffffffffffffffffff\n      and\n      eq\n      iszero\n        /* \"High_Nft.sol\":21583:21660  require(account != address(0), \"ERC1155: balance query for the zero address\") */\n      tag_92\n      jumpi\n      mload(0x40)\n      0x08c379a000000000000000000000000000000000000000000000000000000000\n      dup2\n      mstore\n      0x04\n      add\n      tag_93\n      swap1\n      tag_94\n      jump\t// in\n    tag_93:\n      mload(0x40)\n      dup1\n      swap2\n      sub\n      swap1\n      revert\n    tag_92:\n        /* \"High_Nft.sol\":21677:21686  _balances */\n      0x00\n        /* \"High_Nft.sol\":21677:21690  _balances[id] */\n      dup1\n        /* \"High_Nft.sol\":21687:21689  id */\n      dup4\n        /* \"High_Nft.sol\":21677:21690  _balances[id] */\n      dup2\n      mstore\n      0x20\n      add\n      swap1\n      dup2\n      mstore\n      0x20\n      add\n      0x00\n      keccak256\n        /* \"High_Nft.sol\":21677:21699  _balances[id][account] */\n      0x00\n        /* \"High_Nft.sol\":21691:21698  account */\n      dup5\n        /* \"High_Nft.sol\":21677:21699  _balances[id][account] */\n      0xffffffffffffffffffffffffffffffffffffffff\n      and\n      0xffffffffffffffffffffffffffffffffffffffff\n      and\n      dup2\n      mstore\n      0x20\n      add\n      swap1\n      dup2\n      mstore\n      0x20\n      add\n      0x00\n      keccak256\n      sload\n        /* \"High_Nft.sol\":21670:21699  return _balances[id][account] */\n      swap1\n      pop\n        /* \"High_Nft.sol\":21478:21706  function balanceOf(address account, uint256 id) public view virtual override returns (uint256) {... */\n      swap3\n      swap2\n      pop\n      pop\n      jump\t// out\n        /* \"High_Nft.sol\":20529:20834  function supportsInterface(bytes4 interfaceId) public view virtual override(ERC165, IERC165) returns (bool) {... */\n    tag_31:\n        /* \"High_Nft.sol\":20631:20635  bool */\n      0x00\n        /* \"High_Nft.sol\":20681:20707  type(IERC1155).interfaceId */\n      0xd9b67a2600000000000000000000000000000000000000000000000000000000\n        /* \"High_Nft.sol\":20666:20707  interfaceId == type(IERC1155).interfaceId */\n      not(0xffffffffffffffffffffffffffffffffffffffffffffffffffffffff)\n      and\n        /* \"High_Nft.sol\":20666:20677  interfaceId */\n      dup3\n        /* \"High_Nft.sol\":20666:20707  interfaceId == type(IERC1155).interfaceId */\n      not(0xffffffffffffffffffffffffffffffffffffffffffffffffffffffff)\n      and\n      eq\n        /* \"High_Nft.sol\":20666:20775  interfaceId == type(IERC1155).interfaceId ||... */\n      dup1\n      tag_96\n      jumpi\n      pop\n        /* \"High_Nft.sol\":20738:20775  type(IERC1155MetadataURI).interfaceId */\n      0x0e89341c00000000000000000000000000000000000000000000000000000000\n        /* \"High_Nft.sol\":20723:20775  interfaceId == type(IERC1155MetadataURI).interfaceId */\n      not(0xffffffffffffffffffffffffffffffffffffffffffffffffffffffff)\n      and\n        /* \"High_Nft.sol\":20723:20734  interfaceId */\n      dup3\n        /* \"High_Nft.sol\":20723:20775  interfaceId == type(IERC1155MetadataURI).interfaceId */\n      not(0xffffffffffffffffffffffffffffffffffffffffffffffffffffffff)\n      and\n      eq\n        /* \"High_Nft.sol\":20666:20775  interfaceId == type(IERC1155).interfaceId ||... */\n    tag_96:\n        /* \"High_Nft.sol\":20666:20827  interfaceId == type(IERC1155).interfaceId ||... */\n      dup1\n      tag_97\n      jumpi\n      pop\n        /* \"High_Nft.sol\":20791:20827  super.supportsInterface(interfaceId) */\n      tag_98\n        /* \"High_Nft.sol\":20815:20826  interfaceId */\n      dup3\n        /* \"High_Nft.sol\":20791:20814  super.supportsInterface */\n      tag_99\n        /* \"High_Nft.sol\":20791:20827  super.supportsInterface(interfaceId) */\n      jump\t// in\n    tag_98:\n        /* \"High_Nft.sol\":20666:20827  interfaceId == type(IERC1155).interfaceId ||... */\n    tag_97:\n        /* \"High_Nft.sol\":20647:20827  return... */\n      swap1\n      pop\n        /* \"High_Nft.sol\":20529:20834  function supportsInterface(bytes4 interfaceId) public view virtual override(ERC165, IERC165) returns (bool) {... */\n      swap2\n      swap1\n      pop\n      jump\t// out\n        /* \"High_Nft.sol\":34660:34687  uint256 public Token_Id = 0 */\n    tag_35:\n      sload(0x04)\n      dup2\n      jump\t// out\n        /* \"High_Nft.sol\":21233:21336  function uri(uint256) public view virtual override returns (string memory) {... */\n    tag_40:\n        /* \"High_Nft.sol\":21293:21306  string memory */\n      0x60\n        /* \"High_Nft.sol\":21325:21329  _uri */\n      0x02\n        /* \"High_Nft.sol\":21318:21329  return _uri */\n      dup1\n      sload\n      tag_101\n      swap1\n      tag_102\n      jump\t// in\n    tag_101:\n      dup1\n      0x1f\n      add\n      0x20\n      dup1\n      swap2\n      div\n      mul\n      0x20\n      add\n      mload(0x40)\n      swap1\n      dup2\n      add\n      0x40\n      mstore\n      dup1\n      swap3\n      swap2\n      swap1\n      dup2\n      dup2\n      mstore\n      0x20\n      add\n      dup3\n      dup1\n      sload\n      tag_103\n      swap1\n      tag_102\n      jump\t// in\n    tag_103:\n      dup1\n      iszero\n      tag_104\n      jumpi\n      dup1\n      0x1f\n      lt\n      tag_105\n      jumpi\n      0x0100\n      dup1\n      dup4\n      sload\n      div\n      mul\n      dup4\n      mstore\n      swap2\n      0x20\n      add\n      swap2\n      jump(tag_104)\n    tag_105:\n      dup3\n      add\n      swap2\n      swap1\n      0x00\n      mstore\n      keccak256(0x00, 0x20)\n      swap1\n    tag_106:\n      dup2\n      sload\n      dup2\n      mstore\n      swap1\n      0x01\n      add\n      swap1\n      0x20\n      add\n      dup1\n      dup4\n      gt\n      tag_106\n      jumpi\n      dup3\n      swap1\n      sub\n      0x1f\n      and\n      dup3\n      add\n      swap2\n    tag_104:\n      pop\n      pop\n      pop\n      pop\n      pop\n      swap1\n      pop\n        /* \"High_Nft.sol\":21233:21336  function uri(uint256) public view virtual override returns (string memory) {... */\n      swap2\n      swap1\n      pop\n      jump\t// out\n        /* \"High_Nft.sol\":23353:23783  function safeBatchTransferFrom(... */\n    tag_46:\n        /* \"High_Nft.sol\":23586:23598  _msgSender() */\n      tag_108\n        /* \"High_Nft.sol\":23586:23596  _msgSender */\n      tag_109\n        /* \"High_Nft.sol\":23586:23598  _msgSender() */\n      jump\t// in\n    tag_108:\n        /* \"High_Nft.sol\":23578:23598  from == _msgSender() */\n      0xffffffffffffffffffffffffffffffffffffffff\n      and\n        /* \"High_Nft.sol\":23578:23582  from */\n      dup6\n        /* \"High_Nft.sol\":23578:23598  from == _msgSender() */\n      0xffffffffffffffffffffffffffffffffffffffff\n      and\n      eq\n        /* \"High_Nft.sol\":23578:23638  from == _msgSender() || isApprovedForAll(from, _msgSender()) */\n      dup1\n      tag_110\n      jumpi\n      pop\n        /* \"High_Nft.sol\":23602:23638  isApprovedForAll(from, _msgSender()) */\n      tag_111\n        /* \"High_Nft.sol\":23619:23623  from */\n      dup6\n        /* \"High_Nft.sol\":23625:23637  _msgSender() */\n      tag_112\n        /* \"High_Nft.sol\":23625:23635  _msgSender */\n      tag_109\n        /* \"High_Nft.sol\":23625:23637  _msgSender() */\n      jump\t// in\n    tag_112:\n        /* \"High_Nft.sol\":23602:23618  isApprovedForAll */\n      tag_76\n        /* \"High_Nft.sol\":23602:23638  isApprovedForAll(from, _msgSender()) */\n      jump\t// in\n    tag_111:\n        /* \"High_Nft.sol\":23578:23638  from == _msgSender() || isApprovedForAll(from, _msgSender()) */\n    tag_110:\n        /* \"High_Nft.sol\":23557:23714  require(... */\n      tag_113\n      jumpi\n      mload(0x40)\n      0x08c379a000000000000000000000000000000000000000000000000000000000\n      dup2\n      mstore\n      0x04\n      add\n      tag_114\n      swap1\n      tag_115\n      jump\t// in\n    tag_114:\n      mload(0x40)\n      dup1\n      swap2\n      sub\n      swap1\n      revert\n    tag_113:\n        /* \"High_Nft.sol\":23724:23776  _safeBatchTransferFrom(from, to, ids, amounts, data) */\n      tag_116\n        /* \"High_Nft.sol\":23747:23751  from */\n      dup6\n        /* \"High_Nft.sol\":23753:23755  to */\n      dup6\n        /* \"High_Nft.sol\":23757:23760  ids */\n      dup6\n        /* \"High_Nft.sol\":23762:23769  amounts */\n      dup6\n        /* \"High_Nft.sol\":23771:23775  data */\n      dup6\n        /* \"High_Nft.sol\":23724:23746  _safeBatchTransferFrom */\n      tag_117\n        /* \"High_Nft.sol\":23724:23776  _safeBatchTransferFrom(from, to, ids, amounts, data) */\n      jump\t// in\n    tag_116:\n        /* \"High_Nft.sol\":23353:23783  function safeBatchTransferFrom(... */\n      pop\n      pop\n      pop\n      pop\n      pop\n      jump\t// out\n        /* \"High_Nft.sol\":21863:22371  function balanceOfBatch(address[] memory accounts, uint256[] memory ids)... */\n    tag_50:\n        /* \"High_Nft.sol\":22014:22030  uint256[] memory */\n      0x60\n        /* \"High_Nft.sol\":22073:22076  ids */\n      dup2\n        /* \"High_Nft.sol\":22073:22083  ids.length */\n      mload\n        /* \"High_Nft.sol\":22054:22062  accounts */\n      dup4\n        /* \"High_Nft.sol\":22054:22069  accounts.length */\n      mload\n        /* \"High_Nft.sol\":22054:22083  accounts.length == ids.length */\n      eq\n        /* \"High_Nft.sol\":22046:22129  require(accounts.length == ids.length, \"ERC1155: accounts and ids length mismatch\") */\n      tag_119\n      jumpi\n      mload(0x40)\n      0x08c379a000000000000000000000000000000000000000000000000000000000\n      dup2\n      mstore\n      0x04\n      add\n      tag_120\n      swap1\n      tag_121\n      jump\t// in\n    tag_120:\n      mload(0x40)\n      dup1\n      swap2\n      sub\n      swap1\n      revert\n    tag_119:\n        /* \"High_Nft.sol\":22140:22170  uint256[] memory batchBalances */\n      0x00\n        /* \"High_Nft.sol\":22187:22195  accounts */\n      dup4\n        /* \"High_Nft.sol\":22187:22202  accounts.length */\n      mload\n        /* \"High_Nft.sol\":22173:22203  new uint256[](accounts.length) */\n      0xffffffffffffffff\n      dup2\n      gt\n      iszero\n      tag_122\n      jumpi\n      tag_123\n      tag_124\n      jump\t// in\n    tag_123:\n    tag_122:\n      mload(0x40)\n      swap1\n      dup1\n      dup3\n      mstore\n      dup1\n      0x20\n      mul\n      0x20\n      add\n      dup3\n      add\n      0x40\n      mstore\n      dup1\n      iszero\n      tag_125\n      jumpi\n      dup2\n      0x20\n      add\n      0x20\n      dup3\n      mul\n      dup1\n      calldatasize\n      dup4\n      calldatacopy\n      dup1\n      dup3\n      add\n      swap2\n      pop\n      pop\n      swap1\n      pop\n    tag_125:\n      pop\n        /* \"High_Nft.sol\":22140:22203  uint256[] memory batchBalances = new uint256[](accounts.length) */\n      swap1\n      pop\n        /* \"High_Nft.sol\":22219:22228  uint256 i */\n      0x00\n        /* \"High_Nft.sol\":22214:22334  for (uint256 i = 0; i < accounts.length; ++i) {... */\n    tag_126:\n        /* \"High_Nft.sol\":22238:22246  accounts */\n      dup5\n        /* \"High_Nft.sol\":22238:22253  accounts.length */\n      mload\n        /* \"High_Nft.sol\":22234:22235  i */\n      dup2\n        /* \"High_Nft.sol\":22234:22253  i < accounts.length */\n      lt\n        /* \"High_Nft.sol\":22214:22334  for (uint256 i = 0; i < accounts.length; ++i) {... */\n      iszero\n      tag_127\n      jumpi\n        /* \"High_Nft.sol\":22293:22323  balanceOf(accounts[i], ids[i]) */\n      tag_129\n        /* \"High_Nft.sol\":22303:22311  accounts */\n      dup6\n        /* \"High_Nft.sol\":22312:22313  i */\n      dup3\n        /* \"High_Nft.sol\":22303:22314  accounts[i] */\n      dup2\n      mload\n      dup2\n      lt\n      tag_130\n      jumpi\n      tag_131\n      tag_132\n      jump\t// in\n    tag_131:\n    tag_130:\n      0x20\n      mul\n      0x20\n      add\n      add\n      mload\n        /* \"High_Nft.sol\":22316:22319  ids */\n      dup6\n        /* \"High_Nft.sol\":22320:22321  i */\n      dup4\n        /* \"High_Nft.sol\":22316:22322  ids[i] */\n      dup2\n      mload\n      dup2\n      lt\n      tag_133\n      jumpi\n      tag_134\n      tag_132\n      jump\t// in\n    tag_134:\n    tag_133:\n      0x20\n      mul\n      0x20\n      add\n      add\n      mload\n        /* \"High_Nft.sol\":22293:22302  balanceOf */\n      tag_25\n        /* \"High_Nft.sol\":22293:22323  balanceOf(accounts[i], ids[i]) */\n      jump\t// in\n    tag_129:\n        /* \"High_Nft.sol\":22274:22287  batchBalances */\n      dup3\n        /* \"High_Nft.sol\":22288:22289  i */\n      dup3\n        /* \"High_Nft.sol\":22274:22290  batchBalances[i] */\n      dup2\n      mload\n      dup2\n      lt\n      tag_135\n      jumpi\n      tag_136\n      tag_132\n      jump\t// in\n    tag_136:\n    tag_135:\n      0x20\n      mul\n      0x20\n      add\n      add\n        /* \"High_Nft.sol\":22274:22323  batchBalances[i] = balanceOf(accounts[i], ids[i]) */\n      dup2\n      dup2\n      mstore\n      pop\n      pop\n        /* \"High_Nft.sol\":22255:22258  ++i */\n      dup1\n      tag_137\n      swap1\n      tag_138\n      jump\t// in\n    tag_137:\n      swap1\n      pop\n        /* \"High_Nft.sol\":22214:22334  for (uint256 i = 0; i < accounts.length; ++i) {... */\n      jump(tag_126)\n    tag_127:\n      pop\n        /* \"High_Nft.sol\":22351:22364  batchBalances */\n      dup1\n        /* \"High_Nft.sol\":22344:22364  return batchBalances */\n      swap2\n      pop\n      pop\n        /* \"High_Nft.sol\":21863:22371  function balanceOfBatch(address[] memory accounts, uint256[] memory ids)... */\n      swap3\n      swap2\n      pop\n      pop\n      jump\t// out\n        /* \"High_Nft.sol\":18948:19040  function renounceOwnership() public virtual onlyOwner {... */\n    tag_54:\n        /* \"High_Nft.sol\":18539:18551  _msgSender() */\n      tag_140\n        /* \"High_Nft.sol\":18539:18549  _msgSender */\n      tag_109\n        /* \"High_Nft.sol\":18539:18551  _msgSender() */\n      jump\t// in\n    tag_140:\n        /* \"High_Nft.sol\":18528:18551  owner() == _msgSender() */\n      0xffffffffffffffffffffffffffffffffffffffff\n      and\n        /* \"High_Nft.sol\":18528:18535  owner() */\n      tag_141\n        /* \"High_Nft.sol\":18528:18533  owner */\n      tag_56\n        /* \"High_Nft.sol\":18528:18535  owner() */\n      jump\t// in\n    tag_141:\n        /* \"High_Nft.sol\":18528:18551  owner() == _msgSender() */\n      0xffffffffffffffffffffffffffffffffffffffff\n      and\n      eq\n        /* \"High_Nft.sol\":18520:18588  require(owner() == _msgSender(), \"Ownable: caller is not the owner\") */\n      tag_142\n      jumpi\n      mload(0x40)\n      0x08c379a000000000000000000000000000000000000000000000000000000000\n      dup2\n      mstore\n      0x04\n      add\n      tag_143\n      swap1\n      tag_144\n      jump\t// in\n    tag_143:\n      mload(0x40)\n      dup1\n      swap2\n      sub\n      swap1\n      revert\n    tag_142:\n        /* \"High_Nft.sol\":19012:19033  _setOwner(address(0)) */\n      tag_146\n        /* \"High_Nft.sol\":19030:19031  0 */\n      0x00\n        /* \"High_Nft.sol\":19012:19021  _setOwner */\n      tag_147\n        /* \"High_Nft.sol\":19012:19033  _setOwner(address(0)) */\n      jump\t// in\n    tag_146:\n        /* \"High_Nft.sol\":18948:19040  function renounceOwnership() public virtual onlyOwner {... */\n      jump\t// out\n        /* \"High_Nft.sol\":18316:18401  function owner() public view virtual returns (address) {... */\n    tag_56:\n        /* \"High_Nft.sol\":18362:18369  address */\n      0x00\n        /* \"High_Nft.sol\":18388:18394  _owner */\n      0x03\n      0x00\n      swap1\n      sload\n      swap1\n      0x0100\n      exp\n      swap1\n      div\n      0xffffffffffffffffffffffffffffffffffffffff\n      and\n        /* \"High_Nft.sol\":18381:18394  return _owner */\n      swap1\n      pop\n        /* \"High_Nft.sol\":18316:18401  function owner() public view virtual returns (address) {... */\n      swap1\n      jump\t// out\n        /* \"High_Nft.sol\":35338:35467  function burn(address account, uint256 id) public ... */\n    tag_61:\n        /* \"High_Nft.sol\":35422:35429  account */\n      dup2\n        /* \"High_Nft.sol\":35408:35429  msg.sender == account */\n      0xffffffffffffffffffffffffffffffffffffffff\n      and\n        /* \"High_Nft.sol\":35408:35418  msg.sender */\n      caller\n        /* \"High_Nft.sol\":35408:35429  msg.sender == account */\n      0xffffffffffffffffffffffffffffffffffffffff\n      and\n      eq\n        /* \"High_Nft.sol\":35399:35430  require (msg.sender == account) */\n      tag_150\n      jumpi\n      0x00\n      dup1\n      revert\n    tag_150:\n        /* \"High_Nft.sol\":35439:35460  _burn(account, id, 1) */\n      tag_151\n        /* \"High_Nft.sol\":35445:35452  account */\n      dup3\n        /* \"High_Nft.sol\":35454:35456  id */\n      dup3\n        /* \"High_Nft.sol\":35458:35459  1 */\n      0x01\n        /* \"High_Nft.sol\":35439:35444  _burn */\n      tag_152\n        /* \"High_Nft.sol\":35439:35460  _burn(account, id, 1) */\n      jump\t// in\n    tag_151:\n        /* \"High_Nft.sol\":35338:35467  function burn(address account, uint256 id) public ... */\n      pop\n      pop\n      jump\t// out\n        /* \"High_Nft.sol\":22439:22592  function setApprovalForAll(address operator, bool approved) public virtual override {... */\n    tag_65:\n        /* \"High_Nft.sol\":22533:22585  _setApprovalForAll(_msgSender(), operator, approved) */\n      tag_154\n        /* \"High_Nft.sol\":22552:22564  _msgSender() */\n      tag_155\n        /* \"High_Nft.sol\":22552:22562  _msgSender */\n      tag_109\n        /* \"High_Nft.sol\":22552:22564  _msgSender() */\n      jump\t// in\n    tag_155:\n        /* \"High_Nft.sol\":22566:22574  operator */\n      dup4\n        /* \"High_Nft.sol\":22576:22584  approved */\n      dup4\n        /* \"High_Nft.sol\":22533:22551  _setApprovalForAll */\n      tag_156\n        /* \"High_Nft.sol\":22533:22585  _setApprovalForAll(_msgSender(), operator, approved) */\n      jump\t// in\n    tag_154:\n        /* \"High_Nft.sol\":22439:22592  function setApprovalForAll(address operator, bool approved) public virtual override {... */\n      pop\n      pop\n      jump\t// out\n        /* \"High_Nft.sol\":35110:35323  function mint (string memory newuri) public {... */\n    tag_69:\n        /* \"High_Nft.sol\":35164:35179  address account */\n      0x00\n        /* \"High_Nft.sol\":35182:35192  msg.sender */\n      caller\n        /* \"High_Nft.sol\":35164:35192  address account = msg.sender */\n      swap1\n      pop\n        /* \"High_Nft.sol\":35202:35232  _mint(account, Token_Id, 1,\"\") */\n      tag_158\n        /* \"High_Nft.sol\":35208:35215  account */\n      dup2\n        /* \"High_Nft.sol\":35217:35225  Token_Id */\n      sload(0x04)\n        /* \"High_Nft.sol\":35227:35228  1 */\n      0x01\n        /* \"High_Nft.sol\":35202:35232  _mint(account, Token_Id, 1,\"\") */\n      mload(0x40)\n      dup1\n      0x20\n      add\n      0x40\n      mstore\n      dup1\n      0x00\n      dup2\n      mstore\n      pop\n        /* \"High_Nft.sol\":35202:35207  _mint */\n      tag_159\n        /* \"High_Nft.sol\":35202:35232  _mint(account, Token_Id, 1,\"\") */\n      jump\t// in\n    tag_158:\n        /* \"High_Nft.sol\":35242:35257  _setURI(newuri) */\n      tag_160\n        /* \"High_Nft.sol\":35250:35256  newuri */\n      dup3\n        /* \"High_Nft.sol\":35242:35249  _setURI */\n      tag_161\n        /* \"High_Nft.sol\":35242:35257  _setURI(newuri) */\n      jump\t// in\n    tag_160:\n        /* \"High_Nft.sol\":35287:35293  newuri */\n      dup2\n        /* \"High_Nft.sol\":35267:35274  _tokens */\n      0x05\n        /* \"High_Nft.sol\":35267:35284  _tokens[Token_Id] */\n      0x00\n        /* \"High_Nft.sol\":35275:35283  Token_Id */\n      sload(0x04)\n        /* \"High_Nft.sol\":35267:35284  _tokens[Token_Id] */\n      dup2\n      mstore\n      0x20\n      add\n      swap1\n      dup2\n      mstore\n      0x20\n      add\n      0x00\n      keccak256\n        /* \"High_Nft.sol\":35267:35293  _tokens[Token_Id] = newuri */\n      swap1\n      dup1\n      mload\n      swap1\n      0x20\n      add\n      swap1\n      tag_162\n      swap3\n      swap2\n      swap1\n      tag_163\n      jump\t// in\n    tag_162:\n      pop\n        /* \"High_Nft.sol\":35315:35316  1 */\n      0x01\n        /* \"High_Nft.sol\":35303:35311  Token_Id */\n      0x04\n      0x00\n        /* \"High_Nft.sol\":35303:35316  Token_Id += 1 */\n      dup3\n      dup3\n      sload\n      tag_164\n      swap2\n      swap1\n      tag_165\n      jump\t// in\n    tag_164:\n      swap3\n      pop\n      pop\n      dup2\n      swap1\n      sstore\n      pop\n        /* \"High_Nft.sol\":35154:35323  {... */\n      pop\n        /* \"High_Nft.sol\":35110:35323  function mint (string memory newuri) public {... */\n      pop\n      jump\t// out\n        /* \"High_Nft.sol\":34736:34846  string public contractURI = \"https://gateway.pinata.cloud/ipfs/QmNfKF6qyHYK6BKSNBUrFJkmZH53Z4b79WjX8GBq3jYK4J\" */\n    tag_71:\n      0x06\n      dup1\n      sload\n      tag_166\n      swap1\n      tag_102\n      jump\t// in\n    tag_166:\n      dup1\n      0x1f\n      add\n      0x20\n      dup1\n      swap2\n      div\n      mul\n      0x20\n      add\n      mload(0x40)\n      swap1\n      dup2\n      add\n      0x40\n      mstore\n      dup1\n      swap3\n      swap2\n      swap1\n      dup2\n      dup2\n      mstore\n      0x20\n      add\n      dup3\n      dup1\n      sload\n      tag_167\n      swap1\n      tag_102\n      jump\t// in\n    tag_167:\n      dup1\n      iszero\n      tag_168\n      jumpi\n      dup1\n      0x1f\n      lt\n      tag_169\n      jumpi\n      0x0100\n      dup1\n      dup4\n      sload\n      div\n      mul\n      dup4\n      mstore\n      swap2\n      0x20\n      add\n      swap2\n      jump(tag_168)\n    tag_169:\n      dup3\n      add\n      swap2\n      swap1\n      0x00\n      mstore\n      keccak256(0x00, 0x20)\n      swap1\n    tag_170:\n      dup2\n      sload\n      dup2\n      mstore\n      swap1\n      0x01\n      add\n      swap1\n      0x20\n      add\n      dup1\n      dup4\n      gt\n      tag_170\n      jumpi\n      dup3\n      swap1\n      sub\n      0x1f\n      and\n      dup3\n      add\n      swap2\n    tag_168:\n      pop\n      pop\n      pop\n      pop\n      pop\n      dup2\n      jump\t// out\n        /* \"High_Nft.sol\":22659:22825  function isApprovedForAll(address account, address operator) public view virtual override returns (bool) {... */\n    tag_76:\n        /* \"High_Nft.sol\":22758:22762  bool */\n      0x00\n        /* \"High_Nft.sol\":22781:22799  _operatorApprovals */\n      0x01\n        /* \"High_Nft.sol\":22781:22808  _operatorApprovals[account] */\n      0x00\n        /* \"High_Nft.sol\":22800:22807  account */\n      dup5\n        /* \"High_Nft.sol\":22781:22808  _operatorApprovals[account] */\n      0xffffffffffffffffffffffffffffffffffffffff\n      and\n      0xffffffffffffffffffffffffffffffffffffffff\n      and\n      dup2\n      mstore\n      0x20\n      add\n      swap1\n      dup2\n      mstore\n      0x20\n      add\n      0x00\n      keccak256\n        /* \"High_Nft.sol\":22781:22818  _operatorApprovals[account][operator] */\n      0x00\n        /* \"High_Nft.sol\":22809:22817  operator */\n      dup4\n        /* \"High_Nft.sol\":22781:22818  _operatorApprovals[account][operator] */\n      0xffffffffffffffffffffffffffffffffffffffff\n      and\n      0xffffffffffffffffffffffffffffffffffffffff\n      and\n      dup2\n      mstore\n      0x20\n      add\n      swap1\n      dup2\n      mstore\n      0x20\n      add\n      0x00\n      keccak256\n      0x00\n      swap1\n      sload\n      swap1\n      0x0100\n      exp\n      swap1\n      div\n      0xff\n      and\n        /* \"High_Nft.sol\":22774:22818  return _operatorApprovals[account][operator] */\n      swap1\n      pop\n        /* \"High_Nft.sol\":22659:22825  function isApprovedForAll(address account, address operator) public view virtual override returns (bool) {... */\n      swap3\n      swap2\n      pop\n      pop\n      jump\t// out\n        /* \"High_Nft.sol\":34691:34733  mapping (uint256 => string) public _tokens */\n    tag_80:\n      mstore(0x20, 0x05)\n      dup1\n      0x00\n      mstore\n      keccak256(0x00, 0x40)\n      0x00\n      swap2\n      pop\n      swap1\n      pop\n      dup1\n      sload\n      tag_172\n      swap1\n      tag_102\n      jump\t// in\n    tag_172:\n      dup1\n      0x1f\n      add\n      0x20\n      dup1\n      swap2\n      div\n      mul\n      0x20\n      add\n      mload(0x40)\n      swap1\n      dup2\n      add\n      0x40\n      mstore\n      dup1\n      swap3\n      swap2\n      swap1\n      dup2\n      dup2\n      mstore\n      0x20\n      add\n      dup3\n      dup1\n      sload\n      tag_173\n      swap1\n      tag_102\n      jump\t// in\n    tag_173:\n      dup1\n      iszero\n      tag_174\n      jumpi\n      dup1\n      0x1f\n      lt\n      tag_175\n      jumpi\n      0x0100\n      dup1\n      dup4\n      sload\n      div\n      mul\n      dup4\n      mstore\n      swap2\n      0x20\n      add\n      swap2\n      jump(tag_174)\n    tag_175:\n      dup3\n      add\n      swap2\n      swap1\n      0x00\n      mstore\n      keccak256(0x00, 0x20)\n      swap1\n    tag_176:\n      dup2\n      sload\n      dup2\n      mstore\n      swap1\n      0x01\n      add\n      swap1\n      0x20\n      add\n      dup1\n      dup4\n      gt\n      tag_176\n      jumpi\n      dup3\n      swap1\n      sub\n      0x1f\n      and\n      dup3\n      add\n      swap2\n    tag_174:\n      pop\n      pop\n      pop\n      pop\n      pop\n      dup2\n      jump\t// out\n        /* \"High_Nft.sol\":22892:23281  function safeTransferFrom(... */\n    tag_85:\n        /* \"High_Nft.sol\":23100:23112  _msgSender() */\n      tag_178\n        /* \"High_Nft.sol\":23100:23110  _msgSender */\n      tag_109\n        /* \"High_Nft.sol\":23100:23112  _msgSender() */\n      jump\t// in\n    tag_178:\n        /* \"High_Nft.sol\":23092:23112  from == _msgSender() */\n      0xffffffffffffffffffffffffffffffffffffffff\n      and\n        /* \"High_Nft.sol\":23092:23096  from */\n      dup6\n        /* \"High_Nft.sol\":23092:23112  from == _msgSender() */\n      0xffffffffffffffffffffffffffffffffffffffff\n      and\n      eq\n        /* \"High_Nft.sol\":23092:23152  from == _msgSender() || isApprovedForAll(from, _msgSender()) */\n      dup1\n      tag_179\n      jumpi\n      pop\n        /* \"High_Nft.sol\":23116:23152  isApprovedForAll(from, _msgSender()) */\n      tag_180\n        /* \"High_Nft.sol\":23133:23137  from */\n      dup6\n        /* \"High_Nft.sol\":23139:23151  _msgSender() */\n      tag_181\n        /* \"High_Nft.sol\":23139:23149  _msgSender */\n      tag_109\n        /* \"High_Nft.sol\":23139:23151  _msgSender() */\n      jump\t// in\n    tag_181:\n        /* \"High_Nft.sol\":23116:23132  isApprovedForAll */\n      tag_76\n        /* \"High_Nft.sol\":23116:23152  isApprovedForAll(from, _msgSender()) */\n      jump\t// in\n    tag_180:\n        /* \"High_Nft.sol\":23092:23152  from == _msgSender() || isApprovedForAll(from, _msgSender()) */\n    tag_179:\n        /* \"High_Nft.sol\":23071:23219  require(... */\n      tag_182\n      jumpi\n      mload(0x40)\n      0x08c379a000000000000000000000000000000000000000000000000000000000\n      dup2\n      mstore\n      0x04\n      add\n      tag_183\n      swap1\n      tag_184\n      jump\t// in\n    tag_183:\n      mload(0x40)\n      dup1\n      swap2\n      sub\n      swap1\n      revert\n    tag_182:\n        /* \"High_Nft.sol\":23229:23274  _safeTransferFrom(from, to, id, amount, data) */\n      tag_185\n        /* \"High_Nft.sol\":23247:23251  from */\n      dup6\n        /* \"High_Nft.sol\":23253:23255  to */\n      dup6\n        /* \"High_Nft.sol\":23257:23259  id */\n      dup6\n        /* \"High_Nft.sol\":23261:23267  amount */\n      dup6\n        /* \"High_Nft.sol\":23269:23273  data */\n      dup6\n        /* \"High_Nft.sol\":23229:23246  _safeTransferFrom */\n      tag_186\n        /* \"High_Nft.sol\":23229:23274  _safeTransferFrom(from, to, id, amount, data) */\n      jump\t// in\n    tag_185:\n        /* \"High_Nft.sol\":22892:23281  function safeTransferFrom(... */\n      pop\n      pop\n      pop\n      pop\n      pop\n      jump\t// out\n        /* \"High_Nft.sol\":19189:19378  function transferOwnership(address newOwner) public virtual onlyOwner {... */\n    tag_89:\n        /* \"High_Nft.sol\":18539:18551  _msgSender() */\n      tag_188\n        /* \"High_Nft.sol\":18539:18549  _msgSender */\n      tag_109\n        /* \"High_Nft.sol\":18539:18551  _msgSender() */\n      jump\t// in\n    tag_188:\n        /* \"High_Nft.sol\":18528:18551  owner() == _msgSender() */\n      0xffffffffffffffffffffffffffffffffffffffff\n      and\n        /* \"High_Nft.sol\":18528:18535  owner() */\n      tag_189\n        /* \"High_Nft.sol\":18528:18533  owner */\n      tag_56\n        /* \"High_Nft.sol\":18528:18535  owner() */\n      jump\t// in\n    tag_189:\n        /* \"High_Nft.sol\":18528:18551  owner() == _msgSender() */\n      0xffffffffffffffffffffffffffffffffffffffff\n      and\n      eq\n        /* \"High_Nft.sol\":18520:18588  require(owner() == _msgSender(), \"Ownable: caller is not the owner\") */\n      tag_190\n      jumpi\n      mload(0x40)\n      0x08c379a000000000000000000000000000000000000000000000000000000000\n      dup2\n      mstore\n      0x04\n      add\n      tag_191\n      swap1\n      tag_144\n      jump\t// in\n    tag_191:\n      mload(0x40)\n      dup1\n      swap2\n      sub\n      swap1\n      revert\n    tag_190:\n        /* \"High_Nft.sol\":19297:19298  0 */\n      0x00\n        /* \"High_Nft.sol\":19277:19299  newOwner != address(0) */\n      0xffffffffffffffffffffffffffffffffffffffff\n      and\n        /* \"High_Nft.sol\":19277:19285  newOwner */\n      dup2\n        /* \"High_Nft.sol\":19277:19299  newOwner != address(0) */\n      0xffffffffffffffffffffffffffffffffffffffff\n      and\n      eq\n      iszero\n        /* \"High_Nft.sol\":19269:19342  require(newOwner != address(0), \"Ownable: new owner is the zero address\") */\n      tag_193\n      jumpi\n      mload(0x40)\n      0x08c379a000000000000000000000000000000000000000000000000000000000\n      dup2\n      mstore\n      0x04\n      add\n      tag_194\n      swap1\n      tag_195\n      jump\t// in\n    tag_194:\n      mload(0x40)\n      dup1\n      swap2\n      sub\n      swap1\n      revert\n    tag_193:\n        /* \"High_Nft.sol\":19352:19371  _setOwner(newOwner) */\n      tag_196\n        /* \"High_Nft.sol\":19362:19370  newOwner */\n      dup2\n        /* \"High_Nft.sol\":19352:19361  _setOwner */\n      tag_147\n        /* \"High_Nft.sol\":19352:19371  _setOwner(newOwner) */\n      jump\t// in\n    tag_196:\n        /* \"High_Nft.sol\":19189:19378  function transferOwnership(address newOwner) public virtual onlyOwner {... */\n      pop\n      jump\t// out\n        /* \"High_Nft.sol\":9229:9606  function isContract(address account) internal view returns (bool) {... */\n    tag_90:\n        /* \"High_Nft.sol\":9289:9293  bool */\n      0x00\n        /* \"High_Nft.sol\":9492:9504  uint256 size */\n      dup1\n        /* \"High_Nft.sol\":9557:9564  account */\n      dup3\n        /* \"High_Nft.sol\":9545:9565  extcodesize(account) */\n      extcodesize\n        /* \"High_Nft.sol\":9537:9565  size := extcodesize(account) */\n      swap1\n      pop\n        /* \"High_Nft.sol\":9598:9599  0 */\n      0x00\n        /* \"High_Nft.sol\":9591:9595  size */\n      dup2\n        /* \"High_Nft.sol\":9591:9599  size > 0 */\n      gt\n        /* \"High_Nft.sol\":9584:9599  return size > 0 */\n      swap2\n      pop\n      pop\n        /* \"High_Nft.sol\":9229:9606  function isContract(address account) internal view returns (bool) {... */\n      swap2\n      swap1\n      pop\n      jump\t// out\n        /* \"High_Nft.sol\":17194:17349  function supportsInterface(bytes4 interfaceId) public view virtual override returns (bool) {... */\n    tag_99:\n        /* \"High_Nft.sol\":17279:17283  bool */\n      0x00\n        /* \"High_Nft.sol\":17317:17342  type(IERC165).interfaceId */\n      0x01ffc9a700000000000000000000000000000000000000000000000000000000\n        /* \"High_Nft.sol\":17302:17342  interfaceId == type(IERC165).interfaceId */\n      not(0xffffffffffffffffffffffffffffffffffffffffffffffffffffffff)\n      and\n        /* \"High_Nft.sol\":17302:17313  interfaceId */\n      dup3\n        /* \"High_Nft.sol\":17302:17342  interfaceId == type(IERC165).interfaceId */\n      not(0xffffffffffffffffffffffffffffffffffffffffffffffffffffffff)\n      and\n      eq\n        /* \"High_Nft.sol\":17295:17342  return interfaceId == type(IERC165).interfaceId */\n      swap1\n      pop\n        /* \"High_Nft.sol\":17194:17349  function supportsInterface(bytes4 interfaceId) public view virtual override returns (bool) {... */\n      swap2\n      swap1\n      pop\n      jump\t// out\n        /* \"High_Nft.sol\":554:650  function _msgSender() internal view virtual returns (address) {... */\n    tag_109:\n        /* \"High_Nft.sol\":607:614  address */\n      0x00\n        /* \"High_Nft.sol\":633:643  msg.sender */\n      caller\n        /* \"High_Nft.sol\":626:643  return msg.sender */\n      swap1\n      pop\n        /* \"High_Nft.sol\":554:650  function _msgSender() internal view virtual returns (address) {... */\n      swap1\n      jump\t// out\n        /* \"High_Nft.sol\":25376:26421  function _safeBatchTransferFrom(... */\n    tag_117:\n        /* \"High_Nft.sol\":25596:25603  amounts */\n      dup2\n        /* \"High_Nft.sol\":25596:25610  amounts.length */\n      mload\n        /* \"High_Nft.sol\":25582:25585  ids */\n      dup4\n        /* \"High_Nft.sol\":25582:25592  ids.length */\n      mload\n        /* \"High_Nft.sol\":25582:25610  ids.length == amounts.length */\n      eq\n        /* \"High_Nft.sol\":25574:25655  require(ids.length == amounts.length, \"ERC1155: ids and amounts length mismatch\") */\n      tag_201\n      jumpi\n      mload(0x40)\n      0x08c379a000000000000000000000000000000000000000000000000000000000\n      dup2\n      mstore\n      0x04\n      add\n      tag_202\n      swap1\n      tag_203\n      jump\t// in\n    tag_202:\n      mload(0x40)\n      dup1\n      swap2\n      sub\n      swap1\n      revert\n    tag_201:\n        /* \"High_Nft.sol\":25687:25688  0 */\n      0x00\n        /* \"High_Nft.sol\":25673:25689  to != address(0) */\n      0xffffffffffffffffffffffffffffffffffffffff\n      and\n        /* \"High_Nft.sol\":25673:25675  to */\n      dup5\n        /* \"High_Nft.sol\":25673:25689  to != address(0) */\n      0xffffffffffffffffffffffffffffffffffffffff\n      and\n      eq\n      iszero\n        /* \"High_Nft.sol\":25665:25731  require(to != address(0), \"ERC1155: transfer to the zero address\") */\n      tag_204\n      jumpi\n      mload(0x40)\n      0x08c379a000000000000000000000000000000000000000000000000000000000\n      dup2\n      mstore\n      0x04\n      add\n      tag_205\n      swap1\n      tag_206\n      jump\t// in\n    tag_205:\n      mload(0x40)\n      dup1\n      swap2\n      sub\n      swap1\n      revert\n    tag_204:\n        /* \"High_Nft.sol\":25742:25758  address operator */\n      0x00\n        /* \"High_Nft.sol\":25761:25773  _msgSender() */\n      tag_207\n        /* \"High_Nft.sol\":25761:25771  _msgSender */\n      tag_109\n        /* \"High_Nft.sol\":25761:25773  _msgSender() */\n      jump\t// in\n    tag_207:\n        /* \"High_Nft.sol\":25742:25773  address operator = _msgSender() */\n      swap1\n      pop\n        /* \"High_Nft.sol\":25784:25844  _beforeTokenTransfer(operator, from, to, ids, amounts, data) */\n      tag_208\n        /* \"High_Nft.sol\":25805:25813  operator */\n      dup2\n        /* \"High_Nft.sol\":25815:25819  from */\n      dup8\n        /* \"High_Nft.sol\":25821:25823  to */\n      dup8\n        /* \"High_Nft.sol\":25825:25828  ids */\n      dup8\n        /* \"High_Nft.sol\":25830:25837  amounts */\n      dup8\n        /* \"High_Nft.sol\":25839:25843  data */\n      dup8\n        /* \"High_Nft.sol\":25784:25804  _beforeTokenTransfer */\n      tag_209\n        /* \"High_Nft.sol\":25784:25844  _beforeTokenTransfer(operator, from, to, ids, amounts, data) */\n      jump\t// in\n    tag_208:\n        /* \"High_Nft.sol\":25860:25869  uint256 i */\n      0x00\n        /* \"High_Nft.sol\":25855:26266  for (uint256 i = 0; i < ids.length; ++i) {... */\n    tag_210:\n        /* \"High_Nft.sol\":25879:25882  ids */\n      dup5\n        /* \"High_Nft.sol\":25879:25889  ids.length */\n      mload\n        /* \"High_Nft.sol\":25875:25876  i */\n      dup2\n        /* \"High_Nft.sol\":25875:25889  i < ids.length */\n      lt\n        /* \"High_Nft.sol\":25855:26266  for (uint256 i = 0; i < ids.length; ++i) {... */\n      iszero\n      tag_211\n      jumpi\n        /* \"High_Nft.sol\":25910:25920  uint256 id */\n      0x00\n        /* \"High_Nft.sol\":25923:25926  ids */\n      dup6\n        /* \"High_Nft.sol\":25927:25928  i */\n      dup3\n        /* \"High_Nft.sol\":25923:25929  ids[i] */\n      dup2\n      mload\n      dup2\n      lt\n      tag_213\n      jumpi\n      tag_214\n      tag_132\n      jump\t// in\n    tag_214:\n    tag_213:\n      0x20\n      mul\n      0x20\n      add\n      add\n      mload\n        /* \"High_Nft.sol\":25910:25929  uint256 id = ids[i] */\n      swap1\n      pop\n        /* \"High_Nft.sol\":25943:25957  uint256 amount */\n      0x00\n        /* \"High_Nft.sol\":25960:25967  amounts */\n      dup6\n        /* \"High_Nft.sol\":25968:25969  i */\n      dup4\n        /* \"High_Nft.sol\":25960:25970  amounts[i] */\n      dup2\n      mload\n      dup2\n      lt\n      tag_215\n      jumpi\n      tag_216\n      tag_132\n      jump\t// in\n    tag_216:\n    tag_215:\n      0x20\n      mul\n      0x20\n      add\n      add\n      mload\n        /* \"High_Nft.sol\":25943:25970  uint256 amount = amounts[i] */\n      swap1\n      pop\n        /* \"High_Nft.sol\":25985:26004  uint256 fromBalance */\n      0x00\n        /* \"High_Nft.sol\":26007:26016  _balances */\n      dup1\n        /* \"High_Nft.sol\":26007:26020  _balances[id] */\n      0x00\n        /* \"High_Nft.sol\":26017:26019  id */\n      dup5\n        /* \"High_Nft.sol\":26007:26020  _balances[id] */\n      dup2\n      mstore\n      0x20\n      add\n      swap1\n      dup2\n      mstore\n      0x20\n      add\n      0x00\n      keccak256\n        /* \"High_Nft.sol\":26007:26026  _balances[id][from] */\n      0x00\n        /* \"High_Nft.sol\":26021:26025  from */\n      dup12\n        /* \"High_Nft.sol\":26007:26026  _balances[id][from] */\n      0xffffffffffffffffffffffffffffffffffffffff\n      and\n      0xffffffffffffffffffffffffffffffffffffffff\n      and\n      dup2\n      mstore\n      0x20\n      add\n      swap1\n      dup2\n      mstore\n      0x20\n      add\n      0x00\n      keccak256\n      sload\n        /* \"High_Nft.sol\":25985:26026  uint256 fromBalance = _balances[id][from] */\n      swap1\n      pop\n        /* \"High_Nft.sol\":26063:26069  amount */\n      dup2\n        /* \"High_Nft.sol\":26048:26059  fromBalance */\n      dup2\n        /* \"High_Nft.sol\":26048:26069  fromBalance >= amount */\n      lt\n      iszero\n        /* \"High_Nft.sol\":26040:26116  require(fromBalance >= amount, \"ERC1155: insufficient balance for transfer\") */\n      tag_217\n      jumpi\n      mload(0x40)\n      0x08c379a000000000000000000000000000000000000000000000000000000000\n      dup2\n      mstore\n      0x04\n      add\n      tag_218\n      swap1\n      tag_219\n      jump\t// in\n    tag_218:\n      mload(0x40)\n      dup1\n      swap2\n      sub\n      swap1\n      revert\n    tag_217:\n        /* \"High_Nft.sol\":26194:26200  amount */\n      dup2\n        /* \"High_Nft.sol\":26180:26191  fromBalance */\n      dup2\n        /* \"High_Nft.sol\":26180:26200  fromBalance - amount */\n      sub\n        /* \"High_Nft.sol\":26158:26167  _balances */\n      0x00\n        /* \"High_Nft.sol\":26158:26171  _balances[id] */\n      dup1\n        /* \"High_Nft.sol\":26168:26170  id */\n      dup6\n        /* \"High_Nft.sol\":26158:26171  _balances[id] */\n      dup2\n      mstore\n      0x20\n      add\n      swap1\n      dup2\n      mstore\n      0x20\n      add\n      0x00\n      keccak256\n        /* \"High_Nft.sol\":26158:26177  _balances[id][from] */\n      0x00\n        /* \"High_Nft.sol\":26172:26176  from */\n      dup13\n        /* \"High_Nft.sol\":26158:26177  _balances[id][from] */\n      0xffffffffffffffffffffffffffffffffffffffff\n      and\n      0xffffffffffffffffffffffffffffffffffffffff\n      and\n      dup2\n      mstore\n      0x20\n      add\n      swap1\n      dup2\n      mstore\n      0x20\n      add\n      0x00\n      keccak256\n        /* \"High_Nft.sol\":26158:26200  _balances[id][from] = fromBalance - amount */\n      dup2\n      swap1\n      sstore\n      pop\n        /* \"High_Nft.sol\":26249:26255  amount */\n      dup2\n        /* \"High_Nft.sol\":26228:26237  _balances */\n      0x00\n        /* \"High_Nft.sol\":26228:26241  _balances[id] */\n      dup1\n        /* \"High_Nft.sol\":26238:26240  id */\n      dup6\n        /* \"High_Nft.sol\":26228:26241  _balances[id] */\n      dup2\n      mstore\n      0x20\n      add\n      swap1\n      dup2\n      mstore\n      0x20\n      add\n      0x00\n      keccak256\n        /* \"High_Nft.sol\":26228:26245  _balances[id][to] */\n      0x00\n        /* \"High_Nft.sol\":26242:26244  to */\n      dup12\n        /* \"High_Nft.sol\":26228:26245  _balances[id][to] */\n      0xffffffffffffffffffffffffffffffffffffffff\n      and\n      0xffffffffffffffffffffffffffffffffffffffff\n      and\n      dup2\n      mstore\n      0x20\n      add\n      swap1\n      dup2\n      mstore\n      0x20\n      add\n      0x00\n      keccak256\n      0x00\n        /* \"High_Nft.sol\":26228:26255  _balances[id][to] += amount */\n      dup3\n      dup3\n      sload\n      tag_220\n      swap2\n      swap1\n      tag_165\n      jump\t// in\n    tag_220:\n      swap3\n      pop\n      pop\n      dup2\n      swap1\n      sstore\n      pop\n        /* \"High_Nft.sol\":25896:26266  {... */\n      pop\n      pop\n      pop\n        /* \"High_Nft.sol\":25891:25894  ++i */\n      dup1\n      tag_221\n      swap1\n      tag_138\n      jump\t// in\n    tag_221:\n      swap1\n      pop\n        /* \"High_Nft.sol\":25855:26266  for (uint256 i = 0; i < ids.length; ++i) {... */\n      jump(tag_210)\n    tag_211:\n      pop\n        /* \"High_Nft.sol\":26311:26313  to */\n      dup5\n        /* \"High_Nft.sol\":26281:26328  TransferBatch(operator, from, to, ids, amounts) */\n      0xffffffffffffffffffffffffffffffffffffffff\n      and\n        /* \"High_Nft.sol\":26305:26309  from */\n      dup7\n        /* \"High_Nft.sol\":26281:26328  TransferBatch(operator, from, to, ids, amounts) */\n      0xffffffffffffffffffffffffffffffffffffffff\n      and\n        /* \"High_Nft.sol\":26295:26303  operator */\n      dup3\n        /* \"High_Nft.sol\":26281:26328  TransferBatch(operator, from, to, ids, amounts) */\n      0xffffffffffffffffffffffffffffffffffffffff\n      and\n      0x4a39dc06d4c0dbc64b70af90fd698a233a518aa5d07e595d983b8c0526c8f7fb\n        /* \"High_Nft.sol\":26315:26318  ids */\n      dup8\n        /* \"High_Nft.sol\":26320:26327  amounts */\n      dup8\n        /* \"High_Nft.sol\":26281:26328  TransferBatch(operator, from, to, ids, amounts) */\n      mload(0x40)\n      tag_222\n      swap3\n      swap2\n      swap1\n      tag_223\n      jump\t// in\n    tag_222:\n      mload(0x40)\n      dup1\n      swap2\n      sub\n      swap1\n      log4\n        /* \"High_Nft.sol\":26339:26414  _doSafeBatchTransferAcceptanceCheck(operator, from, to, ids, amounts, data) */\n      tag_224\n        /* \"High_Nft.sol\":26375:26383  operator */\n      dup2\n        /* \"High_Nft.sol\":26385:26389  from */\n      dup8\n        /* \"High_Nft.sol\":26391:26393  to */\n      dup8\n        /* \"High_Nft.sol\":26395:26398  ids */\n      dup8\n        /* \"High_Nft.sol\":26400:26407  amounts */\n      dup8\n        /* \"High_Nft.sol\":26409:26413  data */\n      dup8\n        /* \"High_Nft.sol\":26339:26374  _doSafeBatchTransferAcceptanceCheck */\n      tag_225\n        /* \"High_Nft.sol\":26339:26414  _doSafeBatchTransferAcceptanceCheck(operator, from, to, ids, amounts, data) */\n      jump\t// in\n    tag_224:\n        /* \"High_Nft.sol\":25564:26421  {... */\n      pop\n        /* \"High_Nft.sol\":25376:26421  function _safeBatchTransferFrom(... */\n      pop\n      pop\n      pop\n      pop\n      pop\n      jump\t// out\n        /* \"High_Nft.sol\":19384:19553  function _setOwner(address newOwner) private {... */\n    tag_147:\n        /* \"High_Nft.sol\":19439:19455  address oldOwner */\n      0x00\n        /* \"High_Nft.sol\":19458:19464  _owner */\n      0x03\n      0x00\n      swap1\n      sload\n      swap1\n      0x0100\n      exp\n      swap1\n      div\n      0xffffffffffffffffffffffffffffffffffffffff\n      and\n        /* \"High_Nft.sol\":19439:19464  address oldOwner = _owner */\n      swap1\n      pop\n        /* \"High_Nft.sol\":19483:19491  newOwner */\n      dup2\n        /* \"High_Nft.sol\":19474:19480  _owner */\n      0x03\n      0x00\n        /* \"High_Nft.sol\":19474:19491  _owner = newOwner */\n      0x0100\n      exp\n      dup2\n      sload\n      dup2\n      0xffffffffffffffffffffffffffffffffffffffff\n      mul\n      not\n      and\n      swap1\n      dup4\n      0xffffffffffffffffffffffffffffffffffffffff\n      and\n      mul\n      or\n      swap1\n      sstore\n      pop\n        /* \"High_Nft.sol\":19537:19545  newOwner */\n      dup2\n        /* \"High_Nft.sol\":19506:19546  OwnershipTransferred(oldOwner, newOwner) */\n      0xffffffffffffffffffffffffffffffffffffffff\n      and\n        /* \"High_Nft.sol\":19527:19535  oldOwner */\n      dup2\n        /* \"High_Nft.sol\":19506:19546  OwnershipTransferred(oldOwner, newOwner) */\n      0xffffffffffffffffffffffffffffffffffffffff\n      and\n      0x8be0079c531659141344cd1fd0a4f28419497f9722a3daafe3b4186f6b6457e0\n      mload(0x40)\n      mload(0x40)\n      dup1\n      swap2\n      sub\n      swap1\n      log3\n        /* \"High_Nft.sol\":19429:19553  {... */\n      pop\n        /* \"High_Nft.sol\":19384:19553  function _setOwner(address newOwner) private {... */\n      pop\n      jump\t// out\n        /* \"High_Nft.sol\":29556:30186  function _burn(... */\n    tag_152:\n        /* \"High_Nft.sol\":29694:29695  0 */\n      0x00\n        /* \"High_Nft.sol\":29678:29696  from != address(0) */\n      0xffffffffffffffffffffffffffffffffffffffff\n      and\n        /* \"High_Nft.sol\":29678:29682  from */\n      dup4\n        /* \"High_Nft.sol\":29678:29696  from != address(0) */\n      0xffffffffffffffffffffffffffffffffffffffff\n      and\n      eq\n      iszero\n        /* \"High_Nft.sol\":29670:29736  require(from != address(0), \"ERC1155: burn from the zero address\") */\n      tag_228\n      jumpi\n      mload(0x40)\n      0x08c379a000000000000000000000000000000000000000000000000000000000\n      dup2\n      mstore\n      0x04\n      add\n      tag_229\n      swap1\n      tag_230\n      jump\t// in\n    tag_229:\n      mload(0x40)\n      dup1\n      swap2\n      sub\n      swap1\n      revert\n    tag_228:\n        /* \"High_Nft.sol\":29747:29763  address operator */\n      0x00\n        /* \"High_Nft.sol\":29766:29778  _msgSender() */\n      tag_231\n        /* \"High_Nft.sol\":29766:29776  _msgSender */\n      tag_109\n        /* \"High_Nft.sol\":29766:29778  _msgSender() */\n      jump\t// in\n    tag_231:\n        /* \"High_Nft.sol\":29747:29778  address operator = _msgSender() */\n      swap1\n      pop\n        /* \"High_Nft.sol\":29789:29891  _beforeTokenTransfer(operator, from, address(0), _asSingletonArray(id), _asSingletonArray(amount), \"\") */\n      tag_232\n        /* \"High_Nft.sol\":29810:29818  operator */\n      dup2\n        /* \"High_Nft.sol\":29820:29824  from */\n      dup6\n        /* \"High_Nft.sol\":29834:29835  0 */\n      0x00\n        /* \"High_Nft.sol\":29838:29859  _asSingletonArray(id) */\n      tag_233\n        /* \"High_Nft.sol\":29856:29858  id */\n      dup8\n        /* \"High_Nft.sol\":29838:29855  _asSingletonArray */\n      tag_234\n        /* \"High_Nft.sol\":29838:29859  _asSingletonArray(id) */\n      jump\t// in\n    tag_233:\n        /* \"High_Nft.sol\":29861:29886  _asSingletonArray(amount) */\n      tag_235\n        /* \"High_Nft.sol\":29879:29885  amount */\n      dup8\n        /* \"High_Nft.sol\":29861:29878  _asSingletonArray */\n      tag_234\n        /* \"High_Nft.sol\":29861:29886  _asSingletonArray(amount) */\n      jump\t// in\n    tag_235:\n        /* \"High_Nft.sol\":29789:29891  _beforeTokenTransfer(operator, from, address(0), _asSingletonArray(id), _asSingletonArray(amount), \"\") */\n      mload(0x40)\n      dup1\n      0x20\n      add\n      0x40\n      mstore\n      dup1\n      0x00\n      dup2\n      mstore\n      pop\n        /* \"High_Nft.sol\":29789:29809  _beforeTokenTransfer */\n      tag_209\n        /* \"High_Nft.sol\":29789:29891  _beforeTokenTransfer(operator, from, address(0), _asSingletonArray(id), _asSingletonArray(amount), \"\") */\n      jump\t// in\n    tag_232:\n        /* \"High_Nft.sol\":29902:29921  uint256 fromBalance */\n      0x00\n        /* \"High_Nft.sol\":29924:29933  _balances */\n      dup1\n        /* \"High_Nft.sol\":29924:29937  _balances[id] */\n      0x00\n        /* \"High_Nft.sol\":29934:29936  id */\n      dup6\n        /* \"High_Nft.sol\":29924:29937  _balances[id] */\n      dup2\n      mstore\n      0x20\n      add\n      swap1\n      dup2\n      mstore\n      0x20\n      add\n      0x00\n      keccak256\n        /* \"High_Nft.sol\":29924:29943  _balances[id][from] */\n      0x00\n        /* \"High_Nft.sol\":29938:29942  from */\n      dup7\n        /* \"High_Nft.sol\":29924:29943  _balances[id][from] */\n      0xffffffffffffffffffffffffffffffffffffffff\n      and\n      0xffffffffffffffffffffffffffffffffffffffff\n      and\n      dup2\n      mstore\n      0x20\n      add\n      swap1\n      dup2\n      mstore\n      0x20\n      add\n      0x00\n      keccak256\n      sload\n        /* \"High_Nft.sol\":29902:29943  uint256 fromBalance = _balances[id][from] */\n      swap1\n      pop\n        /* \"High_Nft.sol\":29976:29982  amount */\n      dup3\n        /* \"High_Nft.sol\":29961:29972  fromBalance */\n      dup2\n        /* \"High_Nft.sol\":29961:29982  fromBalance >= amount */\n      lt\n      iszero\n        /* \"High_Nft.sol\":29953:30023  require(fromBalance >= amount, \"ERC1155: burn amount exceeds balance\") */\n      tag_236\n      jumpi\n      mload(0x40)\n      0x08c379a000000000000000000000000000000000000000000000000000000000\n      dup2\n      mstore\n      0x04\n      add\n      tag_237\n      swap1\n      tag_238\n      jump\t// in\n    tag_237:\n      mload(0x40)\n      dup1\n      swap2\n      sub\n      swap1\n      revert\n    tag_236:\n        /* \"High_Nft.sol\":30093:30099  amount */\n      dup3\n        /* \"High_Nft.sol\":30079:30090  fromBalance */\n      dup2\n        /* \"High_Nft.sol\":30079:30099  fromBalance - amount */\n      sub\n        /* \"High_Nft.sol\":30057:30066  _balances */\n      0x00\n        /* \"High_Nft.sol\":30057:30070  _balances[id] */\n      dup1\n        /* \"High_Nft.sol\":30067:30069  id */\n      dup7\n        /* \"High_Nft.sol\":30057:30070  _balances[id] */\n      dup2\n      mstore\n      0x20\n      add\n      swap1\n      dup2\n      mstore\n      0x20\n      add\n      0x00\n      keccak256\n        /* \"High_Nft.sol\":30057:30076  _balances[id][from] */\n      0x00\n        /* \"High_Nft.sol\":30071:30075  from */\n      dup8\n        /* \"High_Nft.sol\":30057:30076  _balances[id][from] */\n      0xffffffffffffffffffffffffffffffffffffffff\n      and\n      0xffffffffffffffffffffffffffffffffffffffff\n      and\n      dup2\n      mstore\n      0x20\n      add\n      swap1\n      dup2\n      mstore\n      0x20\n      add\n      0x00\n      keccak256\n        /* \"High_Nft.sol\":30057:30099  _balances[id][from] = fromBalance - amount */\n      dup2\n      swap1\n      sstore\n      pop\n        /* \"High_Nft.sol\":30164:30165  0 */\n      0x00\n        /* \"High_Nft.sol\":30125:30179  TransferSingle(operator, from, address(0), id, amount) */\n      0xffffffffffffffffffffffffffffffffffffffff\n      and\n        /* \"High_Nft.sol\":30150:30154  from */\n      dup6\n        /* \"High_Nft.sol\":30125:30179  TransferSingle(operator, from, address(0), id, amount) */\n      0xffffffffffffffffffffffffffffffffffffffff\n      and\n        /* \"High_Nft.sol\":30140:30148  operator */\n      dup4\n        /* \"High_Nft.sol\":30125:30179  TransferSingle(operator, from, address(0), id, amount) */\n      0xffffffffffffffffffffffffffffffffffffffff\n      and\n      0xc3d58168c5ae7397731d063d5bbf3d657854427343f4c083240f7aacaa2d0f62\n        /* \"High_Nft.sol\":30168:30170  id */\n      dup8\n        /* \"High_Nft.sol\":30172:30178  amount */\n      dup8\n        /* \"High_Nft.sol\":30125:30179  TransferSingle(operator, from, address(0), id, amount) */\n      mload(0x40)\n      tag_239\n      swap3\n      swap2\n      swap1\n      tag_240\n      jump\t// in\n    tag_239:\n      mload(0x40)\n      dup1\n      swap2\n      sub\n      swap1\n      log4\n        /* \"High_Nft.sol\":29660:30186  {... */\n      pop\n      pop\n        /* \"High_Nft.sol\":29556:30186  function _burn(... */\n      pop\n      pop\n      pop\n      jump\t// out\n        /* \"High_Nft.sol\":31382:31705  function _setApprovalForAll(... */\n    tag_156:\n        /* \"High_Nft.sol\":31532:31540  operator */\n      dup2\n        /* \"High_Nft.sol\":31523:31540  owner != operator */\n      0xffffffffffffffffffffffffffffffffffffffff\n      and\n        /* \"High_Nft.sol\":31523:31528  owner */\n      dup4\n        /* \"High_Nft.sol\":31523:31540  owner != operator */\n      0xffffffffffffffffffffffffffffffffffffffff\n      and\n      eq\n      iszero\n        /* \"High_Nft.sol\":31515:31586  require(owner != operator, \"ERC1155: setting approval status for self\") */\n      tag_242\n      jumpi\n      mload(0x40)\n      0x08c379a000000000000000000000000000000000000000000000000000000000\n      dup2\n      mstore\n      0x04\n      add\n      tag_243\n      swap1\n      tag_244\n      jump\t// in\n    tag_243:\n      mload(0x40)\n      dup1\n      swap2\n      sub\n      swap1\n      revert\n    tag_242:\n        /* \"High_Nft.sol\":31634:31642  approved */\n      dup1\n        /* \"High_Nft.sol\":31596:31614  _operatorApprovals */\n      0x01\n        /* \"High_Nft.sol\":31596:31621  _operatorApprovals[owner] */\n      0x00\n        /* \"High_Nft.sol\":31615:31620  owner */\n      dup6\n        /* \"High_Nft.sol\":31596:31621  _operatorApprovals[owner] */\n      0xffffffffffffffffffffffffffffffffffffffff\n      and\n      0xffffffffffffffffffffffffffffffffffffffff\n      and\n      dup2\n      mstore\n      0x20\n      add\n      swap1\n      dup2\n      mstore\n      0x20\n      add\n      0x00\n      keccak256\n        /* \"High_Nft.sol\":31596:31631  _operatorApprovals[owner][operator] */\n      0x00\n        /* \"High_Nft.sol\":31622:31630  operator */\n      dup5\n        /* \"High_Nft.sol\":31596:31631  _operatorApprovals[owner][operator] */\n      0xffffffffffffffffffffffffffffffffffffffff\n      and\n      0xffffffffffffffffffffffffffffffffffffffff\n      and\n      dup2\n      mstore\n      0x20\n      add\n      swap1\n      dup2\n      mstore\n      0x20\n      add\n      0x00\n      keccak256\n      0x00\n        /* \"High_Nft.sol\":31596:31642  _operatorApprovals[owner][operator] = approved */\n      0x0100\n      exp\n      dup2\n      sload\n      dup2\n      0xff\n      mul\n      not\n      and\n      swap1\n      dup4\n      iszero\n      iszero\n      mul\n      or\n      swap1\n      sstore\n      pop\n        /* \"High_Nft.sol\":31679:31687  operator */\n      dup2\n        /* \"High_Nft.sol\":31657:31698  ApprovalForAll(owner, operator, approved) */\n      0xffffffffffffffffffffffffffffffffffffffff\n      and\n        /* \"High_Nft.sol\":31672:31677  owner */\n      dup4\n        /* \"High_Nft.sol\":31657:31698  ApprovalForAll(owner, operator, approved) */\n      0xffffffffffffffffffffffffffffffffffffffff\n      and\n      0x17307eab39ab6107e8899845ad3d59bd9653f200f220920489ca2b5937696c31\n        /* \"High_Nft.sol\":31689:31697  approved */\n      dup4\n        /* \"High_Nft.sol\":31657:31698  ApprovalForAll(owner, operator, approved) */\n      mload(0x40)\n      tag_245\n      swap2\n      swap1\n      tag_33\n      jump\t// in\n    tag_245:\n      mload(0x40)\n      dup1\n      swap2\n      sub\n      swap1\n      log3\n        /* \"High_Nft.sol\":31382:31705  function _setApprovalForAll(... */\n      pop\n      pop\n      pop\n      jump\t// out\n        /* \"High_Nft.sol\":27703:28256  function _mint(... */\n    tag_159:\n        /* \"High_Nft.sol\":27864:27865  0 */\n      0x00\n        /* \"High_Nft.sol\":27850:27866  to != address(0) */\n      0xffffffffffffffffffffffffffffffffffffffff\n      and\n        /* \"High_Nft.sol\":27850:27852  to */\n      dup5\n        /* \"High_Nft.sol\":27850:27866  to != address(0) */\n      0xffffffffffffffffffffffffffffffffffffffff\n      and\n      eq\n      iszero\n        /* \"High_Nft.sol\":27842:27904  require(to != address(0), \"ERC1155: mint to the zero address\") */\n      tag_247\n      jumpi\n      mload(0x40)\n      0x08c379a000000000000000000000000000000000000000000000000000000000\n      dup2\n      mstore\n      0x04\n      add\n      tag_248\n      swap1\n      tag_249\n      jump\t// in\n    tag_248:\n      mload(0x40)\n      dup1\n      swap2\n      sub\n      swap1\n      revert\n    tag_247:\n        /* \"High_Nft.sol\":27915:27931  address operator */\n      0x00\n        /* \"High_Nft.sol\":27934:27946  _msgSender() */\n      tag_250\n        /* \"High_Nft.sol\":27934:27944  _msgSender */\n      tag_109\n        /* \"High_Nft.sol\":27934:27946  _msgSender() */\n      jump\t// in\n    tag_250:\n        /* \"High_Nft.sol\":27915:27946  address operator = _msgSender() */\n      swap1\n      pop\n        /* \"High_Nft.sol\":27957:28059  _beforeTokenTransfer(operator, address(0), to, _asSingletonArray(id), _asSingletonArray(amount), data) */\n      tag_251\n        /* \"High_Nft.sol\":27978:27986  operator */\n      dup2\n        /* \"High_Nft.sol\":27996:27997  0 */\n      0x00\n        /* \"High_Nft.sol\":28000:28002  to */\n      dup8\n        /* \"High_Nft.sol\":28004:28025  _asSingletonArray(id) */\n      tag_252\n        /* \"High_Nft.sol\":28022:28024  id */\n      dup9\n        /* \"High_Nft.sol\":28004:28021  _asSingletonArray */\n      tag_234\n        /* \"High_Nft.sol\":28004:28025  _asSingletonArray(id) */\n      jump\t// in\n    tag_252:\n        /* \"High_Nft.sol\":28027:28052  _asSingletonArray(amount) */\n      tag_253\n        /* \"High_Nft.sol\":28045:28051  amount */\n      dup9\n        /* \"High_Nft.sol\":28027:28044  _asSingletonArray */\n      tag_234\n        /* \"High_Nft.sol\":28027:28052  _asSingletonArray(amount) */\n      jump\t// in\n    tag_253:\n        /* \"High_Nft.sol\":28054:28058  data */\n      dup8\n        /* \"High_Nft.sol\":27957:27977  _beforeTokenTransfer */\n      tag_209\n        /* \"High_Nft.sol\":27957:28059  _beforeTokenTransfer(operator, address(0), to, _asSingletonArray(id), _asSingletonArray(amount), data) */\n      jump\t// in\n    tag_251:\n        /* \"High_Nft.sol\":28091:28097  amount */\n      dup3\n        /* \"High_Nft.sol\":28070:28079  _balances */\n      0x00\n        /* \"High_Nft.sol\":28070:28083  _balances[id] */\n      dup1\n        /* \"High_Nft.sol\":28080:28082  id */\n      dup7\n        /* \"High_Nft.sol\":28070:28083  _balances[id] */\n      dup2\n      mstore\n      0x20\n      add\n      swap1\n      dup2\n      mstore\n      0x20\n      add\n      0x00\n      keccak256\n        /* \"High_Nft.sol\":28070:28087  _balances[id][to] */\n      0x00\n        /* \"High_Nft.sol\":28084:28086  to */\n      dup8\n        /* \"High_Nft.sol\":28070:28087  _balances[id][to] */\n      0xffffffffffffffffffffffffffffffffffffffff\n      and\n      0xffffffffffffffffffffffffffffffffffffffff\n      and\n      dup2\n      mstore\n      0x20\n      add\n      swap1\n      dup2\n      mstore\n      0x20\n      add\n      0x00\n      keccak256\n      0x00\n        /* \"High_Nft.sol\":28070:28097  _balances[id][to] += amount */\n      dup3\n      dup3\n      sload\n      tag_254\n      swap2\n      swap1\n      tag_165\n      jump\t// in\n    tag_254:\n      swap3\n      pop\n      pop\n      dup2\n      swap1\n      sstore\n      pop\n        /* \"High_Nft.sol\":28149:28151  to */\n      dup5\n        /* \"High_Nft.sol\":28112:28164  TransferSingle(operator, address(0), to, id, amount) */\n      0xffffffffffffffffffffffffffffffffffffffff\n      and\n        /* \"High_Nft.sol\":28145:28146  0 */\n      0x00\n        /* \"High_Nft.sol\":28112:28164  TransferSingle(operator, address(0), to, id, amount) */\n      0xffffffffffffffffffffffffffffffffffffffff\n      and\n        /* \"High_Nft.sol\":28127:28135  operator */\n      dup3\n        /* \"High_Nft.sol\":28112:28164  TransferSingle(operator, address(0), to, id, amount) */\n      0xffffffffffffffffffffffffffffffffffffffff\n      and\n      0xc3d58168c5ae7397731d063d5bbf3d657854427343f4c083240f7aacaa2d0f62\n        /* \"High_Nft.sol\":28153:28155  id */\n      dup8\n        /* \"High_Nft.sol\":28157:28163  amount */\n      dup8\n        /* \"High_Nft.sol\":28112:28164  TransferSingle(operator, address(0), to, id, amount) */\n      mload(0x40)\n      tag_255\n      swap3\n      swap2\n      swap1\n      tag_240\n      jump\t// in\n    tag_255:\n      mload(0x40)\n      dup1\n      swap2\n      sub\n      swap1\n      log4\n        /* \"High_Nft.sol\":28175:28249  _doSafeTransferAcceptanceCheck(operator, address(0), to, id, amount, data) */\n      tag_256\n        /* \"High_Nft.sol\":28206:28214  operator */\n      dup2\n        /* \"High_Nft.sol\":28224:28225  0 */\n      0x00\n        /* \"High_Nft.sol\":28228:28230  to */\n      dup8\n        /* \"High_Nft.sol\":28232:28234  id */\n      dup8\n        /* \"High_Nft.sol\":28236:28242  amount */\n      dup8\n        /* \"High_Nft.sol\":28244:28248  data */\n      dup8\n        /* \"High_Nft.sol\":28175:28205  _doSafeTransferAcceptanceCheck */\n      tag_257\n        /* \"High_Nft.sol\":28175:28249  _doSafeTransferAcceptanceCheck(operator, address(0), to, id, amount, data) */\n      jump\t// in\n    tag_256:\n        /* \"High_Nft.sol\":27832:28256  {... */\n      pop\n        /* \"High_Nft.sol\":27703:28256  function _mint(... */\n      pop\n      pop\n      pop\n      pop\n      jump\t// out\n        /* \"High_Nft.sol\":27244:27330  function _setURI(string memory newuri) internal virtual {... */\n    tag_161:\n        /* \"High_Nft.sol\":27317:27323  newuri */\n      dup1\n        /* \"High_Nft.sol\":27310:27314  _uri */\n      0x02\n        /* \"High_Nft.sol\":27310:27323  _uri = newuri */\n      swap1\n      dup1\n      mload\n      swap1\n      0x20\n      add\n      swap1\n      tag_259\n      swap3\n      swap2\n      swap1\n      tag_163\n      jump\t// in\n    tag_259:\n      pop\n        /* \"High_Nft.sol\":27244:27330  function _setURI(string memory newuri) internal virtual {... */\n      pop\n      jump\t// out\n        /* \"High_Nft.sol\":24233:25030  function _safeTransferFrom(... */\n    tag_186:\n        /* \"High_Nft.sol\":24428:24429  0 */\n      0x00\n        /* \"High_Nft.sol\":24414:24430  to != address(0) */\n      0xffffffffffffffffffffffffffffffffffffffff\n      and\n        /* \"High_Nft.sol\":24414:24416  to */\n      dup5\n        /* \"High_Nft.sol\":24414:24430  to != address(0) */\n      0xffffffffffffffffffffffffffffffffffffffff\n      and\n      eq\n      iszero\n        /* \"High_Nft.sol\":24406:24472  require(to != address(0), \"ERC1155: transfer to the zero address\") */\n      tag_261\n      jumpi\n      mload(0x40)\n      0x08c379a000000000000000000000000000000000000000000000000000000000\n      dup2\n      mstore\n      0x04\n      add\n      tag_262\n      swap1\n      tag_206\n      jump\t// in\n    tag_262:\n      mload(0x40)\n      dup1\n      swap2\n      sub\n      swap1\n      revert\n    tag_261:\n        /* \"High_Nft.sol\":24483:24499  address operator */\n      0x00\n        /* \"High_Nft.sol\":24502:24514  _msgSender() */\n      tag_263\n        /* \"High_Nft.sol\":24502:24512  _msgSender */\n      tag_109\n        /* \"High_Nft.sol\":24502:24514  _msgSender() */\n      jump\t// in\n    tag_263:\n        /* \"High_Nft.sol\":24483:24514  address operator = _msgSender() */\n      swap1\n      pop\n        /* \"High_Nft.sol\":24525:24621  _beforeTokenTransfer(operator, from, to, _asSingletonArray(id), _asSingletonArray(amount), data) */\n      tag_264\n        /* \"High_Nft.sol\":24546:24554  operator */\n      dup2\n        /* \"High_Nft.sol\":24556:24560  from */\n      dup8\n        /* \"High_Nft.sol\":24562:24564  to */\n      dup8\n        /* \"High_Nft.sol\":24566:24587  _asSingletonArray(id) */\n      tag_265\n        /* \"High_Nft.sol\":24584:24586  id */\n      dup9\n        /* \"High_Nft.sol\":24566:24583  _asSingletonArray */\n      tag_234\n        /* \"High_Nft.sol\":24566:24587  _asSingletonArray(id) */\n      jump\t// in\n    tag_265:\n        /* \"High_Nft.sol\":24589:24614  _asSingletonArray(amount) */\n      tag_266\n        /* \"High_Nft.sol\":24607:24613  amount */\n      dup9\n        /* \"High_Nft.sol\":24589:24606  _asSingletonArray */\n      tag_234\n        /* \"High_Nft.sol\":24589:24614  _asSingletonArray(amount) */\n      jump\t// in\n    tag_266:\n        /* \"High_Nft.sol\":24616:24620  data */\n      dup8\n        /* \"High_Nft.sol\":24525:24545  _beforeTokenTransfer */\n      tag_209\n        /* \"High_Nft.sol\":24525:24621  _beforeTokenTransfer(operator, from, to, _asSingletonArray(id), _asSingletonArray(amount), data) */\n      jump\t// in\n    tag_264:\n        /* \"High_Nft.sol\":24632:24651  uint256 fromBalance */\n      0x00\n        /* \"High_Nft.sol\":24654:24663  _balances */\n      dup1\n        /* \"High_Nft.sol\":24654:24667  _balances[id] */\n      0x00\n        /* \"High_Nft.sol\":24664:24666  id */\n      dup7\n        /* \"High_Nft.sol\":24654:24667  _balances[id] */\n      dup2\n      mstore\n      0x20\n      add\n      swap1\n      dup2\n      mstore\n      0x20\n      add\n      0x00\n      keccak256\n        /* \"High_Nft.sol\":24654:24673  _balances[id][from] */\n      0x00\n        /* \"High_Nft.sol\":24668:24672  from */\n      dup9\n        /* \"High_Nft.sol\":24654:24673  _balances[id][from] */\n      0xffffffffffffffffffffffffffffffffffffffff\n      and\n      0xffffffffffffffffffffffffffffffffffffffff\n      and\n      dup2\n      mstore\n      0x20\n      add\n      swap1\n      dup2\n      mstore\n      0x20\n      add\n      0x00\n      keccak256\n      sload\n        /* \"High_Nft.sol\":24632:24673  uint256 fromBalance = _balances[id][from] */\n      swap1\n      pop\n        /* \"High_Nft.sol\":24706:24712  amount */\n      dup4\n        /* \"High_Nft.sol\":24691:24702  fromBalance */\n      dup2\n        /* \"High_Nft.sol\":24691:24712  fromBalance >= amount */\n      lt\n      iszero\n        /* \"High_Nft.sol\":24683:24759  require(fromBalance >= amount, \"ERC1155: insufficient balance for transfer\") */\n      tag_267\n      jumpi\n      mload(0x40)\n      0x08c379a000000000000000000000000000000000000000000000000000000000\n      dup2\n      mstore\n      0x04\n      add\n      tag_268\n      swap1\n      tag_219\n      jump\t// in\n    tag_268:\n      mload(0x40)\n      dup1\n      swap2\n      sub\n      swap1\n      revert\n    tag_267:\n        /* \"High_Nft.sol\":24829:24835  amount */\n      dup4\n        /* \"High_Nft.sol\":24815:24826  fromBalance */\n      dup2\n        /* \"High_Nft.sol\":24815:24835  fromBalance - amount */\n      sub\n        /* \"High_Nft.sol\":24793:24802  _balances */\n      0x00\n        /* \"High_Nft.sol\":24793:24806  _balances[id] */\n      dup1\n        /* \"High_Nft.sol\":24803:24805  id */\n      dup8\n        /* \"High_Nft.sol\":24793:24806  _balances[id] */\n      dup2\n      mstore\n      0x20\n      add\n      swap1\n      dup2\n      mstore\n      0x20\n      add\n      0x00\n      keccak256\n        /* \"High_Nft.sol\":24793:24812  _balances[id][from] */\n      0x00\n        /* \"High_Nft.sol\":24807:24811  from */\n      dup10\n        /* \"High_Nft.sol\":24793:24812  _balances[id][from] */\n      0xffffffffffffffffffffffffffffffffffffffff\n      and\n      0xffffffffffffffffffffffffffffffffffffffff\n      and\n      dup2\n      mstore\n      0x20\n      add\n      swap1\n      dup2\n      mstore\n      0x20\n      add\n      0x00\n      keccak256\n        /* \"High_Nft.sol\":24793:24835  _balances[id][from] = fromBalance - amount */\n      dup2\n      swap1\n      sstore\n      pop\n        /* \"High_Nft.sol\":24876:24882  amount */\n      dup4\n        /* \"High_Nft.sol\":24855:24864  _balances */\n      0x00\n        /* \"High_Nft.sol\":24855:24868  _balances[id] */\n      dup1\n        /* \"High_Nft.sol\":24865:24867  id */\n      dup8\n        /* \"High_Nft.sol\":24855:24868  _balances[id] */\n      dup2\n      mstore\n      0x20\n      add\n      swap1\n      dup2\n      mstore\n      0x20\n      add\n      0x00\n      keccak256\n        /* \"High_Nft.sol\":24855:24872  _balances[id][to] */\n      0x00\n        /* \"High_Nft.sol\":24869:24871  to */\n      dup9\n        /* \"High_Nft.sol\":24855:24872  _balances[id][to] */\n      0xffffffffffffffffffffffffffffffffffffffff\n      and\n      0xffffffffffffffffffffffffffffffffffffffff\n      and\n      dup2\n      mstore\n      0x20\n      add\n      swap1\n      dup2\n      mstore\n      0x20\n      add\n      0x00\n      keccak256\n      0x00\n        /* \"High_Nft.sol\":24855:24882  _balances[id][to] += amount */\n      dup3\n      dup3\n      sload\n      tag_269\n      swap2\n      swap1\n      tag_165\n      jump\t// in\n    tag_269:\n      swap3\n      pop\n      pop\n      dup2\n      swap1\n      sstore\n      pop\n        /* \"High_Nft.sol\":24929:24931  to */\n      dup6\n        /* \"High_Nft.sol\":24898:24944  TransferSingle(operator, from, to, id, amount) */\n      0xffffffffffffffffffffffffffffffffffffffff\n      and\n        /* \"High_Nft.sol\":24923:24927  from */\n      dup8\n        /* \"High_Nft.sol\":24898:24944  TransferSingle(operator, from, to, id, amount) */\n      0xffffffffffffffffffffffffffffffffffffffff\n      and\n        /* \"High_Nft.sol\":24913:24921  operator */\n      dup4\n        /* \"High_Nft.sol\":24898:24944  TransferSingle(operator, from, to, id, amount) */\n      0xffffffffffffffffffffffffffffffffffffffff\n      and\n      0xc3d58168c5ae7397731d063d5bbf3d657854427343f4c083240f7aacaa2d0f62\n        /* \"High_Nft.sol\":24933:24935  id */\n      dup9\n        /* \"High_Nft.sol\":24937:24943  amount */\n      dup9\n        /* \"High_Nft.sol\":24898:24944  TransferSingle(operator, from, to, id, amount) */\n      mload(0x40)\n      tag_270\n      swap3\n      swap2\n      swap1\n      tag_240\n      jump\t// in\n    tag_270:\n      mload(0x40)\n      dup1\n      swap2\n      sub\n      swap1\n      log4\n        /* \"High_Nft.sol\":24955:25023  _doSafeTransferAcceptanceCheck(operator, from, to, id, amount, data) */\n      tag_271\n        /* \"High_Nft.sol\":24986:24994  operator */\n      dup3\n        /* \"High_Nft.sol\":24996:25000  from */\n      dup9\n        /* \"High_Nft.sol\":25002:25004  to */\n      dup9\n        /* \"High_Nft.sol\":25006:25008  id */\n      dup9\n        /* \"High_Nft.sol\":25010:25016  amount */\n      dup9\n        /* \"High_Nft.sol\":25018:25022  data */\n      dup9\n        /* \"High_Nft.sol\":24955:24985  _doSafeTransferAcceptanceCheck */\n      tag_257\n        /* \"High_Nft.sol\":24955:25023  _doSafeTransferAcceptanceCheck(operator, from, to, id, amount, data) */\n      jump\t// in\n    tag_271:\n        /* \"High_Nft.sol\":24396:25030  {... */\n      pop\n      pop\n        /* \"High_Nft.sol\":24233:25030  function _safeTransferFrom(... */\n      pop\n      pop\n      pop\n      pop\n      pop\n      jump\t// out\n        /* \"High_Nft.sol\":32639:32853  function _beforeTokenTransfer(... */\n    tag_209:\n      pop\n      pop\n      pop\n      pop\n      pop\n      pop\n      jump\t// out\n        /* \"High_Nft.sol\":33590:34382  function _doSafeBatchTransferAcceptanceCheck(... */\n    tag_225:\n        /* \"High_Nft.sol\":33822:33837  to.isContract() */\n      tag_274\n        /* \"High_Nft.sol\":33822:33824  to */\n      dup5\n        /* \"High_Nft.sol\":33822:33835  to.isContract */\n      0xffffffffffffffffffffffffffffffffffffffff\n      and\n      tag_90\n        /* \"High_Nft.sol\":33822:33837  to.isContract() */\n      jump\t// in\n    tag_274:\n        /* \"High_Nft.sol\":33818:34376  if (to.isContract()) {... */\n      iszero\n      tag_275\n      jumpi\n        /* \"High_Nft.sol\":33874:33876  to */\n      dup4\n        /* \"High_Nft.sol\":33857:33900  IERC1155Receiver(to).onERC1155BatchReceived */\n      0xffffffffffffffffffffffffffffffffffffffff\n      and\n      0xbc197c81\n        /* \"High_Nft.sol\":33901:33909  operator */\n      dup8\n        /* \"High_Nft.sol\":33911:33915  from */\n      dup8\n        /* \"High_Nft.sol\":33917:33920  ids */\n      dup7\n        /* \"High_Nft.sol\":33922:33929  amounts */\n      dup7\n        /* \"High_Nft.sol\":33931:33935  data */\n      dup7\n        /* \"High_Nft.sol\":33857:33936  IERC1155Receiver(to).onERC1155BatchReceived(operator, from, ids, amounts, data) */\n      mload(0x40)\n      dup7\n      0xffffffff\n      and\n      0xe0\n      shl\n      dup2\n      mstore\n      0x04\n      add\n      tag_276\n      swap6\n      swap5\n      swap4\n      swap3\n      swap2\n      swap1\n      tag_277\n      jump\t// in\n    tag_276:\n      0x20\n      mload(0x40)\n      dup1\n      dup4\n      sub\n      dup2\n      0x00\n      dup8\n      gas\n      call\n      swap3\n      pop\n      pop\n      pop\n      dup1\n      iszero\n      tag_278\n      jumpi\n      pop\n      mload(0x40)\n      returndatasize\n      not(0x1f)\n      0x1f\n      dup3\n      add\n      and\n      dup3\n      add\n      dup1\n      0x40\n      mstore\n      pop\n      dup2\n      add\n      swap1\n      tag_279\n      swap2\n      swap1\n      tag_280\n      jump\t// in\n    tag_279:\n      0x01\n    tag_278:\n        /* \"High_Nft.sol\":33853:34366  try IERC1155Receiver(to).onERC1155BatchReceived(operator, from, ids, amounts, data) returns (... */\n      tag_281\n      jumpi\n      tag_285\n      tag_286\n      jump\t// in\n    tag_285:\n      dup1\n      0x08c379a0\n      eq\n      iszero\n      tag_284\n      jumpi\n      pop\n      tag_287\n      tag_288\n      jump\t// in\n    tag_287:\n      dup1\n      tag_289\n      jumpi\n      pop\n      jump(tag_283)\n    tag_289:\n        /* \"High_Nft.sol\":34242:34248  reason */\n      dup1\n        /* \"High_Nft.sol\":34235:34249  revert(reason) */\n      mload(0x40)\n      0x08c379a000000000000000000000000000000000000000000000000000000000\n      dup2\n      mstore\n      0x04\n      add\n      tag_290\n      swap2\n      swap1\n      tag_42\n      jump\t// in\n    tag_290:\n      mload(0x40)\n      dup1\n      swap2\n      sub\n      swap1\n      revert\n        /* \"High_Nft.sol\":33853:34366  try IERC1155Receiver(to).onERC1155BatchReceived(operator, from, ids, amounts, data) returns (... */\n    tag_284:\n      pop\n    tag_283:\n        /* \"High_Nft.sol\":34289:34351  revert(\"ERC1155: transfer to non ERC1155Receiver implementer\") */\n      mload(0x40)\n      0x08c379a000000000000000000000000000000000000000000000000000000000\n      dup2\n      mstore\n      0x04\n      add\n      tag_291\n      swap1\n      tag_292\n      jump\t// in\n    tag_291:\n      mload(0x40)\n      dup1\n      swap2\n      sub\n      swap1\n      revert\n        /* \"High_Nft.sol\":33853:34366  try IERC1155Receiver(to).onERC1155BatchReceived(operator, from, ids, amounts, data) returns (... */\n    tag_281:\n        /* \"High_Nft.sol\":34027:34075  IERC1155Receiver.onERC1155BatchReceived.selector */\n      shl(0xe0, 0xbc197c81)\n        /* \"High_Nft.sol\":34015:34075  response != IERC1155Receiver.onERC1155BatchReceived.selector */\n      not(0xffffffffffffffffffffffffffffffffffffffffffffffffffffffff)\n      and\n        /* \"High_Nft.sol\":34015:34023  response */\n      dup2\n        /* \"High_Nft.sol\":34015:34075  response != IERC1155Receiver.onERC1155BatchReceived.selector */\n      not(0xffffffffffffffffffffffffffffffffffffffffffffffffffffffff)\n      and\n      eq\n        /* \"High_Nft.sol\":34011:34168  if (response != IERC1155Receiver.onERC1155BatchReceived.selector) {... */\n      tag_294\n      jumpi\n        /* \"High_Nft.sol\":34099:34149  revert(\"ERC1155: ERC1155Receiver rejected tokens\") */\n      mload(0x40)\n      0x08c379a000000000000000000000000000000000000000000000000000000000\n      dup2\n      mstore\n      0x04\n      add\n      tag_295\n      swap1\n      tag_296\n      jump\t// in\n    tag_295:\n      mload(0x40)\n      dup1\n      swap2\n      sub\n      swap1\n      revert\n        /* \"High_Nft.sol\":34011:34168  if (response != IERC1155Receiver.onERC1155BatchReceived.selector) {... */\n    tag_294:\n        /* \"High_Nft.sol\":33937:34182  returns (... */\n      pop\n        /* \"High_Nft.sol\":33818:34376  if (to.isContract()) {... */\n    tag_275:\n        /* \"High_Nft.sol\":33590:34382  function _doSafeBatchTransferAcceptanceCheck(... */\n      pop\n      pop\n      pop\n      pop\n      pop\n      pop\n      jump\t// out\n        /* \"High_Nft.sol\":34388:34581  function _asSingletonArray(uint256 element) private pure returns (uint256[] memory) {... */\n    tag_234:\n        /* \"High_Nft.sol\":34454:34470  uint256[] memory */\n      0x60\n        /* \"High_Nft.sol\":34482:34504  uint256[] memory array */\n      0x00\n        /* \"High_Nft.sol\":34521:34522  1 */\n      0x01\n        /* \"High_Nft.sol\":34507:34523  new uint256[](1) */\n      0xffffffffffffffff\n      dup2\n      gt\n      iszero\n      tag_298\n      jumpi\n      tag_299\n      tag_124\n      jump\t// in\n    tag_299:\n    tag_298:\n      mload(0x40)\n      swap1\n      dup1\n      dup3\n      mstore\n      dup1\n      0x20\n      mul\n      0x20\n      add\n      dup3\n      add\n      0x40\n      mstore\n      dup1\n      iszero\n      tag_300\n      jumpi\n      dup2\n      0x20\n      add\n      0x20\n      dup3\n      mul\n      dup1\n      calldatasize\n      dup4\n      calldatacopy\n      dup1\n      dup3\n      add\n      swap2\n      pop\n      pop\n      swap1\n      pop\n    tag_300:\n      pop\n        /* \"High_Nft.sol\":34482:34523  uint256[] memory array = new uint256[](1) */\n      swap1\n      pop\n        /* \"High_Nft.sol\":34544:34551  element */\n      dup3\n        /* \"High_Nft.sol\":34533:34538  array */\n      dup2\n        /* \"High_Nft.sol\":34539:34540  0 */\n      0x00\n        /* \"High_Nft.sol\":34533:34541  array[0] */\n      dup2\n      mload\n      dup2\n      lt\n      tag_301\n      jumpi\n      tag_302\n      tag_132\n      jump\t// in\n    tag_302:\n    tag_301:\n      0x20\n      mul\n      0x20\n      add\n      add\n        /* \"High_Nft.sol\":34533:34551  array[0] = element */\n      dup2\n      dup2\n      mstore\n      pop\n      pop\n        /* \"High_Nft.sol\":34569:34574  array */\n      dup1\n        /* \"High_Nft.sol\":34562:34574  return array */\n      swap2\n      pop\n      pop\n        /* \"High_Nft.sol\":34388:34581  function _asSingletonArray(uint256 element) private pure returns (uint256[] memory) {... */\n      swap2\n      swap1\n      pop\n      jump\t// out\n        /* \"High_Nft.sol\":32859:33584  function _doSafeTransferAcceptanceCheck(... */\n    tag_257:\n        /* \"High_Nft.sol\":33066:33081  to.isContract() */\n      tag_304\n        /* \"High_Nft.sol\":33066:33068  to */\n      dup5\n        /* \"High_Nft.sol\":33066:33079  to.isContract */\n      0xffffffffffffffffffffffffffffffffffffffff\n      and\n      tag_90\n        /* \"High_Nft.sol\":33066:33081  to.isContract() */\n      jump\t// in\n    tag_304:\n        /* \"High_Nft.sol\":33062:33578  if (to.isContract()) {... */\n      iszero\n      tag_305\n      jumpi\n        /* \"High_Nft.sol\":33118:33120  to */\n      dup4\n        /* \"High_Nft.sol\":33101:33139  IERC1155Receiver(to).onERC1155Received */\n      0xffffffffffffffffffffffffffffffffffffffff\n      and\n      0xf23a6e61\n        /* \"High_Nft.sol\":33140:33148  operator */\n      dup8\n        /* \"High_Nft.sol\":33150:33154  from */\n      dup8\n        /* \"High_Nft.sol\":33156:33158  id */\n      dup7\n        /* \"High_Nft.sol\":33160:33166  amount */\n      dup7\n        /* \"High_Nft.sol\":33168:33172  data */\n      dup7\n        /* \"High_Nft.sol\":33101:33173  IERC1155Receiver(to).onERC1155Received(operator, from, id, amount, data) */\n      mload(0x40)\n      dup7\n      0xffffffff\n      and\n      0xe0\n      shl\n      dup2\n      mstore\n      0x04\n      add\n      tag_306\n      swap6\n      swap5\n      swap4\n      swap3\n      swap2\n      swap1\n      tag_307\n      jump\t// in\n    tag_306:\n      0x20\n      mload(0x40)\n      dup1\n      dup4\n      sub\n      dup2\n      0x00\n      dup8\n      gas\n      call\n      swap3\n      pop\n      pop\n      pop\n      dup1\n      iszero\n      tag_308\n      jumpi\n      pop\n      mload(0x40)\n      returndatasize\n      not(0x1f)\n      0x1f\n      dup3\n      add\n      and\n      dup3\n      add\n      dup1\n      0x40\n      mstore\n      pop\n      dup2\n      add\n      swap1\n      tag_309\n      swap2\n      swap1\n      tag_280\n      jump\t// in\n    tag_309:\n      0x01\n    tag_308:\n        /* \"High_Nft.sol\":33097:33568  try IERC1155Receiver(to).onERC1155Received(operator, from, id, amount, data) returns (bytes4 response) {... */\n      tag_310\n      jumpi\n      tag_314\n      tag_286\n      jump\t// in\n    tag_314:\n      dup1\n      0x08c379a0\n      eq\n      iszero\n      tag_313\n      jumpi\n      pop\n      tag_315\n      tag_288\n      jump\t// in\n    tag_315:\n      dup1\n      tag_316\n      jumpi\n      pop\n      jump(tag_312)\n    tag_316:\n        /* \"High_Nft.sol\":33444:33450  reason */\n      dup1\n        /* \"High_Nft.sol\":33437:33451  revert(reason) */\n      mload(0x40)\n      0x08c379a000000000000000000000000000000000000000000000000000000000\n      dup2\n      mstore\n      0x04\n      add\n      tag_317\n      swap2\n      swap1\n      tag_42\n      jump\t// in\n    tag_317:\n      mload(0x40)\n      dup1\n      swap2\n      sub\n      swap1\n      revert\n        /* \"High_Nft.sol\":33097:33568  try IERC1155Receiver(to).onERC1155Received(operator, from, id, amount, data) returns (bytes4 response) {... */\n    tag_313:\n      pop\n    tag_312:\n        /* \"High_Nft.sol\":33491:33553  revert(\"ERC1155: transfer to non ERC1155Receiver implementer\") */\n      mload(0x40)\n      0x08c379a000000000000000000000000000000000000000000000000000000000\n      dup2\n      mstore\n      0x04\n      add\n      tag_318\n      swap1\n      tag_292\n      jump\t// in\n    tag_318:\n      mload(0x40)\n      dup1\n      swap2\n      sub\n      swap1\n      revert\n        /* \"High_Nft.sol\":33097:33568  try IERC1155Receiver(to).onERC1155Received(operator, from, id, amount, data) returns (bytes4 response) {... */\n    tag_310:\n        /* \"High_Nft.sol\":33234:33277  IERC1155Receiver.onERC1155Received.selector */\n      shl(0xe0, 0xf23a6e61)\n        /* \"High_Nft.sol\":33222:33277  response != IERC1155Receiver.onERC1155Received.selector */\n      not(0xffffffffffffffffffffffffffffffffffffffffffffffffffffffff)\n      and\n        /* \"High_Nft.sol\":33222:33230  response */\n      dup2\n        /* \"High_Nft.sol\":33222:33277  response != IERC1155Receiver.onERC1155Received.selector */\n      not(0xffffffffffffffffffffffffffffffffffffffffffffffffffffffff)\n      and\n      eq\n        /* \"High_Nft.sol\":33218:33370  if (response != IERC1155Receiver.onERC1155Received.selector) {... */\n      tag_320\n      jumpi\n        /* \"High_Nft.sol\":33301:33351  revert(\"ERC1155: ERC1155Receiver rejected tokens\") */\n      mload(0x40)\n      0x08c379a000000000000000000000000000000000000000000000000000000000\n      dup2\n      mstore\n      0x04\n      add\n      tag_321\n      swap1\n      tag_296\n      jump\t// in\n    tag_321:\n      mload(0x40)\n      dup1\n      swap2\n      sub\n      swap1\n      revert\n        /* \"High_Nft.sol\":33218:33370  if (response != IERC1155Receiver.onERC1155Received.selector) {... */\n    tag_320:\n        /* \"High_Nft.sol\":33174:33384  returns (bytes4 response) {... */\n      pop\n        /* \"High_Nft.sol\":33062:33578  if (to.isContract()) {... */\n    tag_305:\n        /* \"High_Nft.sol\":32859:33584  function _doSafeTransferAcceptanceCheck(... */\n      pop\n      pop\n      pop\n      pop\n      pop\n      pop\n      jump\t// out\n    tag_163:\n      dup3\n      dup1\n      sload\n      tag_322\n      swap1\n      tag_102\n      jump\t// in\n    tag_322:\n      swap1\n      0x00\n      mstore\n      keccak256(0x00, 0x20)\n      swap1\n      0x1f\n      add\n      0x20\n      swap1\n      div\n      dup2\n      add\n      swap3\n      dup3\n      tag_324\n      jumpi\n      0x00\n      dup6\n      sstore\n      jump(tag_323)\n    tag_324:\n      dup3\n      0x1f\n      lt\n      tag_325\n      jumpi\n      dup1\n      mload\n      not(0xff)\n      and\n      dup4\n      dup1\n      add\n      or\n      dup6\n      sstore\n      jump(tag_323)\n    tag_325:\n      dup3\n      dup1\n      add\n      0x01\n      add\n      dup6\n      sstore\n      dup3\n      iszero\n      tag_323\n      jumpi\n      swap2\n      dup3\n      add\n    tag_326:\n      dup3\n      dup2\n      gt\n      iszero\n      tag_327\n      jumpi\n      dup3\n      mload\n      dup3\n      sstore\n      swap2\n      0x20\n      add\n      swap2\n      swap1\n      0x01\n      add\n      swap1\n      jump(tag_326)\n    tag_327:\n    tag_323:\n      pop\n      swap1\n      pop\n      tag_328\n      swap2\n      swap1\n      tag_329\n      jump\t// in\n    tag_328:\n      pop\n      swap1\n      jump\t// out\n    tag_329:\n    tag_330:\n      dup1\n      dup3\n      gt\n      iszero\n      tag_331\n      jumpi\n      0x00\n      dup2\n      0x00\n      swap1\n      sstore\n      pop\n      0x01\n      add\n      jump(tag_330)\n    tag_331:\n      pop\n      swap1\n      jump\t// out\n        /* \"#utility.yul\":7:82   */\n    tag_332:\n        /* \"#utility.yul\":40:46   */\n      0x00\n        /* \"#utility.yul\":73:75   */\n      0x40\n        /* \"#utility.yul\":67:76   */\n      mload\n        /* \"#utility.yul\":57:76   */\n      swap1\n      pop\n        /* \"#utility.yul\":7:82   */\n      swap1\n      jump\t// out\n        /* \"#utility.yul\":88:205   */\n    tag_333:\n        /* \"#utility.yul\":197:198   */\n      0x00\n        /* \"#utility.yul\":194:195   */\n      dup1\n        /* \"#utility.yul\":187:199   */\n      revert\n        /* \"#utility.yul\":211:328   */\n    tag_334:\n        /* \"#utility.yul\":320:321   */\n      0x00\n        /* \"#utility.yul\":317:318   */\n      dup1\n        /* \"#utility.yul\":310:322   */\n      revert\n        /* \"#utility.yul\":334:460   */\n    tag_335:\n        /* \"#utility.yul\":371:378   */\n      0x00\n        /* \"#utility.yul\":411:453   */\n      0xffffffffffffffffffffffffffffffffffffffff\n        /* \"#utility.yul\":404:409   */\n      dup3\n        /* \"#utility.yul\":400:454   */\n      and\n        /* \"#utility.yul\":389:454   */\n      swap1\n      pop\n        /* \"#utility.yul\":334:460   */\n      swap2\n      swap1\n      pop\n      jump\t// out\n        /* \"#utility.yul\":466:562   */\n    tag_336:\n        /* \"#utility.yul\":503:510   */\n      0x00\n        /* \"#utility.yul\":532:556   */\n      tag_424\n        /* \"#utility.yul\":550:555   */\n      dup3\n        /* \"#utility.yul\":532:556   */\n      tag_335\n      jump\t// in\n    tag_424:\n        /* \"#utility.yul\":521:556   */\n      swap1\n      pop\n        /* \"#utility.yul\":466:562   */\n      swap2\n      swap1\n      pop\n      jump\t// out\n        /* \"#utility.yul\":568:690   */\n    tag_337:\n        /* \"#utility.yul\":641:665   */\n      tag_426\n        /* \"#utility.yul\":659:664   */\n      dup2\n        /* \"#utility.yul\":641:665   */\n      tag_336\n      jump\t// in\n    tag_426:\n        /* \"#utility.yul\":634:639   */\n      dup2\n        /* \"#utility.yul\":631:666   */\n      eq\n        /* \"#utility.yul\":621:684   */\n      tag_427\n      jumpi\n        /* \"#utility.yul\":680:681   */\n      0x00\n        /* \"#utility.yul\":677:678   */\n      dup1\n        /* \"#utility.yul\":670:682   */\n      revert\n        /* \"#utility.yul\":621:684   */\n    tag_427:\n        /* \"#utility.yul\":568:690   */\n      pop\n      jump\t// out\n        /* \"#utility.yul\":696:835   */\n    tag_338:\n        /* \"#utility.yul\":742:747   */\n      0x00\n        /* \"#utility.yul\":780:786   */\n      dup2\n        /* \"#utility.yul\":767:787   */\n      calldataload\n        /* \"#utility.yul\":758:787   */\n      swap1\n      pop\n        /* \"#utility.yul\":796:829   */\n      tag_429\n        /* \"#utility.yul\":823:828   */\n      dup2\n        /* \"#utility.yul\":796:829   */\n      tag_337\n      jump\t// in\n    tag_429:\n        /* \"#utility.yul\":696:835   */\n      swap3\n      swap2\n      pop\n      pop\n      jump\t// out\n        /* \"#utility.yul\":841:918   */\n    tag_339:\n        /* \"#utility.yul\":878:885   */\n      0x00\n        /* \"#utility.yul\":907:912   */\n      dup2\n        /* \"#utility.yul\":896:912   */\n      swap1\n      pop\n        /* \"#utility.yul\":841:918   */\n      swap2\n      swap1\n      pop\n      jump\t// out\n        /* \"#utility.yul\":924:1046   */\n    tag_340:\n        /* \"#utility.yul\":997:1021   */\n      tag_432\n        /* \"#utility.yul\":1015:1020   */\n      dup2\n        /* \"#utility.yul\":997:1021   */\n      tag_339\n      jump\t// in\n    tag_432:\n        /* \"#utility.yul\":990:995   */\n      dup2\n        /* \"#utility.yul\":987:1022   */\n      eq\n        /* \"#utility.yul\":977:1040   */\n      tag_433\n      jumpi\n        /* \"#utility.yul\":1036:1037   */\n      0x00\n        /* \"#utility.yul\":1033:1034   */\n      dup1\n        /* \"#utility.yul\":1026:1038   */\n      revert\n        /* \"#utility.yul\":977:1040   */\n    tag_433:\n        /* \"#utility.yul\":924:1046   */\n      pop\n      jump\t// out\n        /* \"#utility.yul\":1052:1191   */\n    tag_341:\n        /* \"#utility.yul\":1098:1103   */\n      0x00\n        /* \"#utility.yul\":1136:1142   */\n      dup2\n        /* \"#utility.yul\":1123:1143   */\n      calldataload\n        /* \"#utility.yul\":1114:1143   */\n      swap1\n      pop\n        /* \"#utility.yul\":1152:1185   */\n      tag_435\n        /* \"#utility.yul\":1179:1184   */\n      dup2\n        /* \"#utility.yul\":1152:1185   */\n      tag_340\n      jump\t// in\n    tag_435:\n        /* \"#utility.yul\":1052:1191   */\n      swap3\n      swap2\n      pop\n      pop\n      jump\t// out\n        /* \"#utility.yul\":1197:1671   */\n    tag_24:\n        /* \"#utility.yul\":1265:1271   */\n      0x00\n        /* \"#utility.yul\":1273:1279   */\n      dup1\n        /* \"#utility.yul\":1322:1324   */\n      0x40\n        /* \"#utility.yul\":1310:1319   */\n      dup4\n        /* \"#utility.yul\":1301:1308   */\n      dup6\n        /* \"#utility.yul\":1297:1320   */\n      sub\n        /* \"#utility.yul\":1293:1325   */\n      slt\n        /* \"#utility.yul\":1290:1409   */\n      iszero\n      tag_437\n      jumpi\n        /* \"#utility.yul\":1328:1407   */\n      tag_438\n      tag_333\n      jump\t// in\n    tag_438:\n        /* \"#utility.yul\":1290:1409   */\n    tag_437:\n        /* \"#utility.yul\":1448:1449   */\n      0x00\n        /* \"#utility.yul\":1473:1526   */\n      tag_439\n        /* \"#utility.yul\":1518:1525   */\n      dup6\n        /* \"#utility.yul\":1509:1515   */\n      dup3\n        /* \"#utility.yul\":1498:1507   */\n      dup7\n        /* \"#utility.yul\":1494:1516   */\n      add\n        /* \"#utility.yul\":1473:1526   */\n      tag_338\n      jump\t// in\n    tag_439:\n        /* \"#utility.yul\":1463:1526   */\n      swap3\n      pop\n        /* \"#utility.yul\":1419:1536   */\n      pop\n        /* \"#utility.yul\":1575:1577   */\n      0x20\n        /* \"#utility.yul\":1601:1654   */\n      tag_440\n        /* \"#utility.yul\":1646:1653   */\n      dup6\n        /* \"#utility.yul\":1637:1643   */\n      dup3\n        /* \"#utility.yul\":1626:1635   */\n      dup7\n        /* \"#utility.yul\":1622:1644   */\n      add\n        /* \"#utility.yul\":1601:1654   */\n      tag_341\n      jump\t// in\n    tag_440:\n        /* \"#utility.yul\":1591:1654   */\n      swap2\n      pop\n        /* \"#utility.yul\":1546:1664   */\n      pop\n        /* \"#utility.yul\":1197:1671   */\n      swap3\n      pop\n      swap3\n      swap1\n      pop\n      jump\t// out\n        /* \"#utility.yul\":1677:1795   */\n    tag_342:\n        /* \"#utility.yul\":1764:1788   */\n      tag_442\n        /* \"#utility.yul\":1782:1787   */\n      dup2\n        /* \"#utility.yul\":1764:1788   */\n      tag_339\n      jump\t// in\n    tag_442:\n        /* \"#utility.yul\":1759:1762   */\n      dup3\n        /* \"#utility.yul\":1752:1789   */\n      mstore\n        /* \"#utility.yul\":1677:1795   */\n      pop\n      pop\n      jump\t// out\n        /* \"#utility.yul\":1801:2023   */\n    tag_27:\n        /* \"#utility.yul\":1894:1898   */\n      0x00\n        /* \"#utility.yul\":1932:1934   */\n      0x20\n        /* \"#utility.yul\":1921:1930   */\n      dup3\n        /* \"#utility.yul\":1917:1935   */\n      add\n        /* \"#utility.yul\":1909:1935   */\n      swap1\n      pop\n        /* \"#utility.yul\":1945:2016   */\n      tag_444\n        /* \"#utility.yul\":2013:2014   */\n      0x00\n        /* \"#utility.yul\":2002:2011   */\n      dup4\n        /* \"#utility.yul\":1998:2015   */\n      add\n        /* \"#utility.yul\":1989:1995   */\n      dup5\n        /* \"#utility.yul\":1945:2016   */\n      tag_342\n      jump\t// in\n    tag_444:\n        /* \"#utility.yul\":1801:2023   */\n      swap3\n      swap2\n      pop\n      pop\n      jump\t// out\n        /* \"#utility.yul\":2029:2178   */\n    tag_343:\n        /* \"#utility.yul\":2065:2072   */\n      0x00\n        /* \"#utility.yul\":2105:2171   */\n      0xffffffff00000000000000000000000000000000000000000000000000000000\n        /* \"#utility.yul\":2098:2103   */\n      dup3\n        /* \"#utility.yul\":2094:2172   */\n      and\n        /* \"#utility.yul\":2083:2172   */\n      swap1\n      pop\n        /* \"#utility.yul\":2029:2178   */\n      swap2\n      swap1\n      pop\n      jump\t// out\n        /* \"#utility.yul\":2184:2304   */\n    tag_344:\n        /* \"#utility.yul\":2256:2279   */\n      tag_447\n        /* \"#utility.yul\":2273:2278   */\n      dup2\n        /* \"#utility.yul\":2256:2279   */\n      tag_343\n      jump\t// in\n    tag_447:\n        /* \"#utility.yul\":2249:2254   */\n      dup2\n        /* \"#utility.yul\":2246:2280   */\n      eq\n        /* \"#utility.yul\":2236:2298   */\n      tag_448\n      jumpi\n        /* \"#utility.yul\":2294:2295   */\n      0x00\n        /* \"#utility.yul\":2291:2292   */\n      dup1\n        /* \"#utility.yul\":2284:2296   */\n      revert\n        /* \"#utility.yul\":2236:2298   */\n    tag_448:\n        /* \"#utility.yul\":2184:2304   */\n      pop\n      jump\t// out\n        /* \"#utility.yul\":2310:2447   */\n    tag_345:\n        /* \"#utility.yul\":2355:2360   */\n      0x00\n        /* \"#utility.yul\":2393:2399   */\n      dup2\n        /* \"#utility.yul\":2380:2400   */\n      calldataload\n        /* \"#utility.yul\":2371:2400   */\n      swap1\n      pop\n        /* \"#utility.yul\":2409:2441   */\n      tag_450\n        /* \"#utility.yul\":2435:2440   */\n      dup2\n        /* \"#utility.yul\":2409:2441   */\n      tag_344\n      jump\t// in\n    tag_450:\n        /* \"#utility.yul\":2310:2447   */\n      swap3\n      swap2\n      pop\n      pop\n      jump\t// out\n        /* \"#utility.yul\":2453:2780   */\n    tag_30:\n        /* \"#utility.yul\":2511:2517   */\n      0x00\n        /* \"#utility.yul\":2560:2562   */\n      0x20\n        /* \"#utility.yul\":2548:2557   */\n      dup3\n        /* \"#utility.yul\":2539:2546   */\n      dup5\n        /* \"#utility.yul\":2535:2558   */\n      sub\n        /* \"#utility.yul\":2531:2563   */\n      slt\n        /* \"#utility.yul\":2528:2647   */\n      iszero\n      tag_452\n      jumpi\n        /* \"#utility.yul\":2566:2645   */\n      tag_453\n      tag_333\n      jump\t// in\n    tag_453:\n        /* \"#utility.yul\":2528:2647   */\n    tag_452:\n        /* \"#utility.yul\":2686:2687   */\n      0x00\n        /* \"#utility.yul\":2711:2763   */\n      tag_454\n        /* \"#utility.yul\":2755:2762   */\n      dup5\n        /* \"#utility.yul\":2746:2752   */\n      dup3\n        /* \"#utility.yul\":2735:2744   */\n      dup6\n        /* \"#utility.yul\":2731:2753   */\n      add\n        /* \"#utility.yul\":2711:2763   */\n      tag_345\n      jump\t// in\n    tag_454:\n        /* \"#utility.yul\":2701:2763   */\n      swap2\n      pop\n        /* \"#utility.yul\":2657:2773   */\n      pop\n        /* \"#utility.yul\":2453:2780   */\n      swap3\n      swap2\n      pop\n      pop\n      jump\t// out\n        /* \"#utility.yul\":2786:2876   */\n    tag_346:\n        /* \"#utility.yul\":2820:2827   */\n      0x00\n        /* \"#utility.yul\":2863:2868   */\n      dup2\n        /* \"#utility.yul\":2856:2869   */\n      iszero\n        /* \"#utility.yul\":2849:2870   */\n      iszero\n        /* \"#utility.yul\":2838:2870   */\n      swap1\n      pop\n        /* \"#utility.yul\":2786:2876   */\n      swap2\n      swap1\n      pop\n      jump\t// out\n        /* \"#utility.yul\":2882:2991   */\n    tag_347:\n        /* \"#utility.yul\":2963:2984   */\n      tag_457\n        /* \"#utility.yul\":2978:2983   */\n      dup2\n        /* \"#utility.yul\":2963:2984   */\n      tag_346\n      jump\t// in\n    tag_457:\n        /* \"#utility.yul\":2958:2961   */\n      dup3\n        /* \"#utility.yul\":2951:2985   */\n      mstore\n        /* \"#utility.yul\":2882:2991   */\n      pop\n      pop\n      jump\t// out\n        /* \"#utility.yul\":2997:3207   */\n    tag_33:\n        /* \"#utility.yul\":3084:3088   */\n      0x00\n        /* \"#utility.yul\":3122:3124   */\n      0x20\n        /* \"#utility.yul\":3111:3120   */\n      dup3\n        /* \"#utility.yul\":3107:3125   */\n      add\n        /* \"#utility.yul\":3099:3125   */\n      swap1\n      pop\n        /* \"#utility.yul\":3135:3200   */\n      tag_459\n        /* \"#utility.yul\":3197:3198   */\n      0x00\n        /* \"#utility.yul\":3186:3195   */\n      dup4\n        /* \"#utility.yul\":3182:3199   */\n      add\n        /* \"#utility.yul\":3173:3179   */\n      dup5\n        /* \"#utility.yul\":3135:3200   */\n      tag_347\n      jump\t// in\n    tag_459:\n        /* \"#utility.yul\":2997:3207   */\n      swap3\n      swap2\n      pop\n      pop\n      jump\t// out\n        /* \"#utility.yul\":3213:3542   */\n    tag_39:\n        /* \"#utility.yul\":3272:3278   */\n      0x00\n        /* \"#utility.yul\":3321:3323   */\n      0x20\n        /* \"#utility.yul\":3309:3318   */\n      dup3\n        /* \"#utility.yul\":3300:3307   */\n      dup5\n        /* \"#utility.yul\":3296:3319   */\n      sub\n        /* \"#utility.yul\":3292:3324   */\n      slt\n        /* \"#utility.yul\":3289:3408   */\n      iszero\n      tag_461\n      jumpi\n        /* \"#utility.yul\":3327:3406   */\n      tag_462\n      tag_333\n      jump\t// in\n    tag_462:\n        /* \"#utility.yul\":3289:3408   */\n    tag_461:\n        /* \"#utility.yul\":3447:3448   */\n      0x00\n        /* \"#utility.yul\":3472:3525   */\n      tag_463\n        /* \"#utility.yul\":3517:3524   */\n      dup5\n        /* \"#utility.yul\":3508:3514   */\n      dup3\n        /* \"#utility.yul\":3497:3506   */\n      dup6\n        /* \"#utility.yul\":3493:3515   */\n      add\n        /* \"#utility.yul\":3472:3525   */\n      tag_341\n      jump\t// in\n    tag_463:\n        /* \"#utility.yul\":3462:3525   */\n      swap2\n      pop\n        /* \"#utility.yul\":3418:3535   */\n      pop\n        /* \"#utility.yul\":3213:3542   */\n      swap3\n      swap2\n      pop\n      pop\n      jump\t// out\n        /* \"#utility.yul\":3548:3647   */\n    tag_348:\n        /* \"#utility.yul\":3600:3606   */\n      0x00\n        /* \"#utility.yul\":3634:3639   */\n      dup2\n        /* \"#utility.yul\":3628:3640   */\n      mload\n        /* \"#utility.yul\":3618:3640   */\n      swap1\n      pop\n        /* \"#utility.yul\":3548:3647   */\n      swap2\n      swap1\n      pop\n      jump\t// out\n        /* \"#utility.yul\":3653:3822   */\n    tag_349:\n        /* \"#utility.yul\":3737:3748   */\n      0x00\n        /* \"#utility.yul\":3771:3777   */\n      dup3\n        /* \"#utility.yul\":3766:3769   */\n      dup3\n        /* \"#utility.yul\":3759:3778   */\n      mstore\n        /* \"#utility.yul\":3811:3815   */\n      0x20\n        /* \"#utility.yul\":3806:3809   */\n      dup3\n        /* \"#utility.yul\":3802:3816   */\n      add\n        /* \"#utility.yul\":3787:3816   */\n      swap1\n      pop\n        /* \"#utility.yul\":3653:3822   */\n      swap3\n      swap2\n      pop\n      pop\n      jump\t// out\n        /* \"#utility.yul\":3828:4135   */\n    tag_350:\n        /* \"#utility.yul\":3896:3897   */\n      0x00\n        /* \"#utility.yul\":3906:4019   */\n    tag_467:\n        /* \"#utility.yul\":3920:3926   */\n      dup4\n        /* \"#utility.yul\":3917:3918   */\n      dup2\n        /* \"#utility.yul\":3914:3927   */\n      lt\n        /* \"#utility.yul\":3906:4019   */\n      iszero\n      tag_469\n      jumpi\n        /* \"#utility.yul\":4005:4006   */\n      dup1\n        /* \"#utility.yul\":4000:4003   */\n      dup3\n        /* \"#utility.yul\":3996:4007   */\n      add\n        /* \"#utility.yul\":3990:4008   */\n      mload\n        /* \"#utility.yul\":3986:3987   */\n      dup2\n        /* \"#utility.yul\":3981:3984   */\n      dup5\n        /* \"#utility.yul\":3977:3988   */\n      add\n        /* \"#utility.yul\":3970:4009   */\n      mstore\n        /* \"#utility.yul\":3942:3944   */\n      0x20\n        /* \"#utility.yul\":3939:3940   */\n      dup2\n        /* \"#utility.yul\":3935:3945   */\n      add\n        /* \"#utility.yul\":3930:3945   */\n      swap1\n      pop\n        /* \"#utility.yul\":3906:4019   */\n      jump(tag_467)\n    tag_469:\n        /* \"#utility.yul\":4037:4043   */\n      dup4\n        /* \"#utility.yul\":4034:4035   */\n      dup2\n        /* \"#utility.yul\":4031:4044   */\n      gt\n        /* \"#utility.yul\":4028:4129   */\n      iszero\n      tag_470\n      jumpi\n        /* \"#utility.yul\":4117:4118   */\n      0x00\n        /* \"#utility.yul\":4108:4114   */\n      dup5\n        /* \"#utility.yul\":4103:4106   */\n      dup5\n        /* \"#utility.yul\":4099:4115   */\n      add\n        /* \"#utility.yul\":4092:4119   */\n      mstore\n        /* \"#utility.yul\":4028:4129   */\n    tag_470:\n        /* \"#utility.yul\":3877:4135   */\n      pop\n        /* \"#utility.yul\":3828:4135   */\n      pop\n      pop\n      pop\n      jump\t// out\n        /* \"#utility.yul\":4141:4243   */\n    tag_351:\n        /* \"#utility.yul\":4182:4188   */\n      0x00\n        /* \"#utility.yul\":4233:4235   */\n      0x1f\n        /* \"#utility.yul\":4229:4236   */\n      not\n        /* \"#utility.yul\":4224:4226   */\n      0x1f\n        /* \"#utility.yul\":4217:4222   */\n      dup4\n        /* \"#utility.yul\":4213:4227   */\n      add\n        /* \"#utility.yul\":4209:4237   */\n      and\n        /* \"#utility.yul\":4199:4237   */\n      swap1\n      pop\n        /* \"#utility.yul\":4141:4243   */\n      swap2\n      swap1\n      pop\n      jump\t// out\n        /* \"#utility.yul\":4249:4613   */\n    tag_352:\n        /* \"#utility.yul\":4337:4340   */\n      0x00\n        /* \"#utility.yul\":4365:4404   */\n      tag_473\n        /* \"#utility.yul\":4398:4403   */\n      dup3\n        /* \"#utility.yul\":4365:4404   */\n      tag_348\n      jump\t// in\n    tag_473:\n        /* \"#utility.yul\":4420:4491   */\n      tag_474\n        /* \"#utility.yul\":4484:4490   */\n      dup2\n        /* \"#utility.yul\":4479:4482   */\n      dup6\n        /* \"#utility.yul\":4420:4491   */\n      tag_349\n      jump\t// in\n    tag_474:\n        /* \"#utility.yul\":4413:4491   */\n      swap4\n      pop\n        /* \"#utility.yul\":4500:4552   */\n      tag_475\n        /* \"#utility.yul\":4545:4551   */\n      dup2\n        /* \"#utility.yul\":4540:4543   */\n      dup6\n        /* \"#utility.yul\":4533:4537   */\n      0x20\n        /* \"#utility.yul\":4526:4531   */\n      dup7\n        /* \"#utility.yul\":4522:4538   */\n      add\n        /* \"#utility.yul\":4500:4552   */\n      tag_350\n      jump\t// in\n    tag_475:\n        /* \"#utility.yul\":4577:4606   */\n      tag_476\n        /* \"#utility.yul\":4599:4605   */\n      dup2\n        /* \"#utility.yul\":4577:4606   */\n      tag_351\n      jump\t// in\n    tag_476:\n        /* \"#utility.yul\":4572:4575   */\n      dup5\n        /* \"#utility.yul\":4568:4607   */\n      add\n        /* \"#utility.yul\":4561:4607   */\n      swap2\n      pop\n        /* \"#utility.yul\":4341:4613   */\n      pop\n        /* \"#utility.yul\":4249:4613   */\n      swap3\n      swap2\n      pop\n      pop\n      jump\t// out\n        /* \"#utility.yul\":4619:4932   */\n    tag_42:\n        /* \"#utility.yul\":4732:4736   */\n      0x00\n        /* \"#utility.yul\":4770:4772   */\n      0x20\n        /* \"#utility.yul\":4759:4768   */\n      dup3\n        /* \"#utility.yul\":4755:4773   */\n      add\n        /* \"#utility.yul\":4747:4773   */\n      swap1\n      pop\n        /* \"#utility.yul\":4819:4828   */\n      dup2\n        /* \"#utility.yul\":4813:4817   */\n      dup2\n        /* \"#utility.yul\":4809:4829   */\n      sub\n        /* \"#utility.yul\":4805:4806   */\n      0x00\n        /* \"#utility.yul\":4794:4803   */\n      dup4\n        /* \"#utility.yul\":4790:4807   */\n      add\n        /* \"#utility.yul\":4783:4830   */\n      mstore\n        /* \"#utility.yul\":4847:4925   */\n      tag_478\n        /* \"#utility.yul\":4920:4924   */\n      dup2\n        /* \"#utility.yul\":4911:4917   */\n      dup5\n        /* \"#utility.yul\":4847:4925   */\n      tag_352\n      jump\t// in\n    tag_478:\n        /* \"#utility.yul\":4839:4925   */\n      swap1\n      pop\n        /* \"#utility.yul\":4619:4932   */\n      swap3\n      swap2\n      pop\n      pop\n      jump\t// out\n        /* \"#utility.yul\":4938:5055   */\n    tag_353:\n        /* \"#utility.yul\":5047:5048   */\n      0x00\n        /* \"#utility.yul\":5044:5045   */\n      dup1\n        /* \"#utility.yul\":5037:5049   */\n      revert\n        /* \"#utility.yul\":5061:5241   */\n    tag_124:\n        /* \"#utility.yul\":5109:5186   */\n      0x4e487b7100000000000000000000000000000000000000000000000000000000\n        /* \"#utility.yul\":5106:5107   */\n      0x00\n        /* \"#utility.yul\":5099:5187   */\n      mstore\n        /* \"#utility.yul\":5206:5210   */\n      0x41\n        /* \"#utility.yul\":5203:5204   */\n      0x04\n        /* \"#utility.yul\":5196:5211   */\n      mstore\n        /* \"#utility.yul\":5230:5234   */\n      0x24\n        /* \"#utility.yul\":5227:5228   */\n      0x00\n        /* \"#utility.yul\":5220:5235   */\n      revert\n        /* \"#utility.yul\":5247:5528   */\n    tag_354:\n        /* \"#utility.yul\":5330:5357   */\n      tag_482\n        /* \"#utility.yul\":5352:5356   */\n      dup3\n        /* \"#utility.yul\":5330:5357   */\n      tag_351\n      jump\t// in\n    tag_482:\n        /* \"#utility.yul\":5322:5328   */\n      dup2\n        /* \"#utility.yul\":5318:5358   */\n      add\n        /* \"#utility.yul\":5460:5466   */\n      dup2\n        /* \"#utility.yul\":5448:5458   */\n      dup2\n        /* \"#utility.yul\":5445:5467   */\n      lt\n        /* \"#utility.yul\":5424:5442   */\n      0xffffffffffffffff\n        /* \"#utility.yul\":5412:5422   */\n      dup3\n        /* \"#utility.yul\":5409:5443   */\n      gt\n        /* \"#utility.yul\":5406:5468   */\n      or\n        /* \"#utility.yul\":5403:5491   */\n      iszero\n      tag_483\n      jumpi\n        /* \"#utility.yul\":5471:5489   */\n      tag_484\n      tag_124\n      jump\t// in\n    tag_484:\n        /* \"#utility.yul\":5403:5491   */\n    tag_483:\n        /* \"#utility.yul\":5511:5521   */\n      dup1\n        /* \"#utility.yul\":5507:5509   */\n      0x40\n        /* \"#utility.yul\":5500:5522   */\n      mstore\n        /* \"#utility.yul\":5290:5528   */\n      pop\n        /* \"#utility.yul\":5247:5528   */\n      pop\n      pop\n      jump\t// out\n        /* \"#utility.yul\":5534:5663   */\n    tag_355:\n        /* \"#utility.yul\":5568:5574   */\n      0x00\n        /* \"#utility.yul\":5595:5615   */\n      tag_486\n      tag_332\n      jump\t// in\n    tag_486:\n        /* \"#utility.yul\":5585:5615   */\n      swap1\n      pop\n        /* \"#utility.yul\":5624:5657   */\n      tag_487\n        /* \"#utility.yul\":5652:5656   */\n      dup3\n        /* \"#utility.yul\":5644:5650   */\n      dup3\n        /* \"#utility.yul\":5624:5657   */\n      tag_354\n      jump\t// in\n    tag_487:\n        /* \"#utility.yul\":5534:5663   */\n      swap2\n      swap1\n      pop\n      jump\t// out\n        /* \"#utility.yul\":5669:5980   */\n    tag_356:\n        /* \"#utility.yul\":5746:5750   */\n      0x00\n        /* \"#utility.yul\":5836:5854   */\n      0xffffffffffffffff\n        /* \"#utility.yul\":5828:5834   */\n      dup3\n        /* \"#utility.yul\":5825:5855   */\n      gt\n        /* \"#utility.yul\":5822:5878   */\n      iszero\n      tag_489\n      jumpi\n        /* \"#utility.yul\":5858:5876   */\n      tag_490\n      tag_124\n      jump\t// in\n    tag_490:\n        /* \"#utility.yul\":5822:5878   */\n    tag_489:\n        /* \"#utility.yul\":5908:5912   */\n      0x20\n        /* \"#utility.yul\":5900:5906   */\n      dup3\n        /* \"#utility.yul\":5896:5913   */\n      mul\n        /* \"#utility.yul\":5888:5913   */\n      swap1\n      pop\n        /* \"#utility.yul\":5968:5972   */\n      0x20\n        /* \"#utility.yul\":5962:5966   */\n      dup2\n        /* \"#utility.yul\":5958:5973   */\n      add\n        /* \"#utility.yul\":5950:5973   */\n      swap1\n      pop\n        /* \"#utility.yul\":5669:5980   */\n      swap2\n      swap1\n      pop\n      jump\t// out\n        /* \"#utility.yul\":5986:6103   */\n    tag_357:\n        /* \"#utility.yul\":6095:6096   */\n      0x00\n        /* \"#utility.yul\":6092:6093   */\n      dup1\n        /* \"#utility.yul\":6085:6097   */\n      revert\n        /* \"#utility.yul\":6126:6836   */\n    tag_358:\n        /* \"#utility.yul\":6222:6227   */\n      0x00\n        /* \"#utility.yul\":6247:6328   */\n      tag_493\n        /* \"#utility.yul\":6263:6327   */\n      tag_494\n        /* \"#utility.yul\":6320:6326   */\n      dup5\n        /* \"#utility.yul\":6263:6327   */\n      tag_356\n      jump\t// in\n    tag_494:\n        /* \"#utility.yul\":6247:6328   */\n      tag_355\n      jump\t// in\n    tag_493:\n        /* \"#utility.yul\":6238:6328   */\n      swap1\n      pop\n        /* \"#utility.yul\":6348:6353   */\n      dup1\n        /* \"#utility.yul\":6377:6383   */\n      dup4\n        /* \"#utility.yul\":6370:6375   */\n      dup3\n        /* \"#utility.yul\":6363:6384   */\n      mstore\n        /* \"#utility.yul\":6411:6415   */\n      0x20\n        /* \"#utility.yul\":6404:6409   */\n      dup3\n        /* \"#utility.yul\":6400:6416   */\n      add\n        /* \"#utility.yul\":6393:6416   */\n      swap1\n      pop\n        /* \"#utility.yul\":6464:6468   */\n      0x20\n        /* \"#utility.yul\":6456:6462   */\n      dup5\n        /* \"#utility.yul\":6452:6469   */\n      mul\n        /* \"#utility.yul\":6444:6450   */\n      dup4\n        /* \"#utility.yul\":6440:6470   */\n      add\n        /* \"#utility.yul\":6493:6496   */\n      dup6\n        /* \"#utility.yul\":6485:6491   */\n      dup2\n        /* \"#utility.yul\":6482:6497   */\n      gt\n        /* \"#utility.yul\":6479:6601   */\n      iszero\n      tag_495\n      jumpi\n        /* \"#utility.yul\":6512:6591   */\n      tag_496\n      tag_357\n      jump\t// in\n    tag_496:\n        /* \"#utility.yul\":6479:6601   */\n    tag_495:\n        /* \"#utility.yul\":6627:6633   */\n      dup4\n        /* \"#utility.yul\":6610:6830   */\n    tag_497:\n        /* \"#utility.yul\":6644:6650   */\n      dup2\n        /* \"#utility.yul\":6639:6642   */\n      dup2\n        /* \"#utility.yul\":6636:6651   */\n      lt\n        /* \"#utility.yul\":6610:6830   */\n      iszero\n      tag_499\n      jumpi\n        /* \"#utility.yul\":6719:6722   */\n      dup1\n        /* \"#utility.yul\":6748:6785   */\n      tag_500\n        /* \"#utility.yul\":6781:6784   */\n      dup9\n        /* \"#utility.yul\":6769:6779   */\n      dup3\n        /* \"#utility.yul\":6748:6785   */\n      tag_341\n      jump\t// in\n    tag_500:\n        /* \"#utility.yul\":6743:6746   */\n      dup5\n        /* \"#utility.yul\":6736:6786   */\n      mstore\n        /* \"#utility.yul\":6815:6819   */\n      0x20\n        /* \"#utility.yul\":6810:6813   */\n      dup5\n        /* \"#utility.yul\":6806:6820   */\n      add\n        /* \"#utility.yul\":6799:6820   */\n      swap4\n      pop\n        /* \"#utility.yul\":6686:6830   */\n      pop\n        /* \"#utility.yul\":6670:6674   */\n      0x20\n        /* \"#utility.yul\":6665:6668   */\n      dup2\n        /* \"#utility.yul\":6661:6675   */\n      add\n        /* \"#utility.yul\":6654:6675   */\n      swap1\n      pop\n        /* \"#utility.yul\":6610:6830   */\n      jump(tag_497)\n    tag_499:\n        /* \"#utility.yul\":6614:6635   */\n      pop\n        /* \"#utility.yul\":6228:6836   */\n      pop\n      pop\n        /* \"#utility.yul\":6126:6836   */\n      swap4\n      swap3\n      pop\n      pop\n      pop\n      jump\t// out\n        /* \"#utility.yul\":6859:7229   */\n    tag_359:\n        /* \"#utility.yul\":6930:6935   */\n      0x00\n        /* \"#utility.yul\":6979:6982   */\n      dup3\n        /* \"#utility.yul\":6972:6976   */\n      0x1f\n        /* \"#utility.yul\":6964:6970   */\n      dup4\n        /* \"#utility.yul\":6960:6977   */\n      add\n        /* \"#utility.yul\":6956:6983   */\n      slt\n        /* \"#utility.yul\":6946:7068   */\n      tag_502\n      jumpi\n        /* \"#utility.yul\":6987:7066   */\n      tag_503\n      tag_353\n      jump\t// in\n    tag_503:\n        /* \"#utility.yul\":6946:7068   */\n    tag_502:\n        /* \"#utility.yul\":7104:7110   */\n      dup2\n        /* \"#utility.yul\":7091:7111   */\n      calldataload\n        /* \"#utility.yul\":7129:7223   */\n      tag_504\n        /* \"#utility.yul\":7219:7222   */\n      dup5\n        /* \"#utility.yul\":7211:7217   */\n      dup3\n        /* \"#utility.yul\":7204:7208   */\n      0x20\n        /* \"#utility.yul\":7196:7202   */\n      dup7\n        /* \"#utility.yul\":7192:7209   */\n      add\n        /* \"#utility.yul\":7129:7223   */\n      tag_358\n      jump\t// in\n    tag_504:\n        /* \"#utility.yul\":7120:7223   */\n      swap2\n      pop\n        /* \"#utility.yul\":6936:7229   */\n      pop\n        /* \"#utility.yul\":6859:7229   */\n      swap3\n      swap2\n      pop\n      pop\n      jump\t// out\n        /* \"#utility.yul\":7235:7352   */\n    tag_360:\n        /* \"#utility.yul\":7344:7345   */\n      0x00\n        /* \"#utility.yul\":7341:7342   */\n      dup1\n        /* \"#utility.yul\":7334:7346   */\n      revert\n        /* \"#utility.yul\":7358:7665   */\n    tag_361:\n        /* \"#utility.yul\":7419:7423   */\n      0x00\n        /* \"#utility.yul\":7509:7527   */\n      0xffffffffffffffff\n        /* \"#utility.yul\":7501:7507   */\n      dup3\n        /* \"#utility.yul\":7498:7528   */\n      gt\n        /* \"#utility.yul\":7495:7551   */\n      iszero\n      tag_507\n      jumpi\n        /* \"#utility.yul\":7531:7549   */\n      tag_508\n      tag_124\n      jump\t// in\n    tag_508:\n        /* \"#utility.yul\":7495:7551   */\n    tag_507:\n        /* \"#utility.yul\":7569:7598   */\n      tag_509\n        /* \"#utility.yul\":7591:7597   */\n      dup3\n        /* \"#utility.yul\":7569:7598   */\n      tag_351\n      jump\t// in\n    tag_509:\n        /* \"#utility.yul\":7561:7598   */\n      swap1\n      pop\n        /* \"#utility.yul\":7653:7657   */\n      0x20\n        /* \"#utility.yul\":7647:7651   */\n      dup2\n        /* \"#utility.yul\":7643:7658   */\n      add\n        /* \"#utility.yul\":7635:7658   */\n      swap1\n      pop\n        /* \"#utility.yul\":7358:7665   */\n      swap2\n      swap1\n      pop\n      jump\t// out\n        /* \"#utility.yul\":7671:7825   */\n    tag_362:\n        /* \"#utility.yul\":7755:7761   */\n      dup3\n        /* \"#utility.yul\":7750:7753   */\n      dup2\n        /* \"#utility.yul\":7745:7748   */\n      dup4\n        /* \"#utility.yul\":7732:7762   */\n      calldatacopy\n        /* \"#utility.yul\":7817:7818   */\n      0x00\n        /* \"#utility.yul\":7808:7814   */\n      dup4\n        /* \"#utility.yul\":7803:7806   */\n      dup4\n        /* \"#utility.yul\":7799:7815   */\n      add\n        /* \"#utility.yul\":7792:7819   */\n      mstore\n        /* \"#utility.yul\":7671:7825   */\n      pop\n      pop\n      pop\n      jump\t// out\n        /* \"#utility.yul\":7831:8241   */\n    tag_363:\n        /* \"#utility.yul\":7908:7913   */\n      0x00\n        /* \"#utility.yul\":7933:7998   */\n      tag_512\n        /* \"#utility.yul\":7949:7997   */\n      tag_513\n        /* \"#utility.yul\":7990:7996   */\n      dup5\n        /* \"#utility.yul\":7949:7997   */\n      tag_361\n      jump\t// in\n    tag_513:\n        /* \"#utility.yul\":7933:7998   */\n      tag_355\n      jump\t// in\n    tag_512:\n        /* \"#utility.yul\":7924:7998   */\n      swap1\n      pop\n        /* \"#utility.yul\":8021:8027   */\n      dup3\n        /* \"#utility.yul\":8014:8019   */\n      dup2\n        /* \"#utility.yul\":8007:8028   */\n      mstore\n        /* \"#utility.yul\":8059:8063   */\n      0x20\n        /* \"#utility.yul\":8052:8057   */\n      dup2\n        /* \"#utility.yul\":8048:8064   */\n      add\n        /* \"#utility.yul\":8097:8100   */\n      dup5\n        /* \"#utility.yul\":8088:8094   */\n      dup5\n        /* \"#utility.yul\":8083:8086   */\n      dup5\n        /* \"#utility.yul\":8079:8095   */\n      add\n        /* \"#utility.yul\":8076:8101   */\n      gt\n        /* \"#utility.yul\":8073:8185   */\n      iszero\n      tag_514\n      jumpi\n        /* \"#utility.yul\":8104:8183   */\n      tag_515\n      tag_360\n      jump\t// in\n    tag_515:\n        /* \"#utility.yul\":8073:8185   */\n    tag_514:\n        /* \"#utility.yul\":8194:8235   */\n      tag_516\n        /* \"#utility.yul\":8228:8234   */\n      dup5\n        /* \"#utility.yul\":8223:8226   */\n      dup3\n        /* \"#utility.yul\":8218:8221   */\n      dup6\n        /* \"#utility.yul\":8194:8235   */\n      tag_362\n      jump\t// in\n    tag_516:\n        /* \"#utility.yul\":7914:8241   */\n      pop\n        /* \"#utility.yul\":7831:8241   */\n      swap4\n      swap3\n      pop\n      pop\n      pop\n      jump\t// out\n        /* \"#utility.yul\":8260:8598   */\n    tag_364:\n        /* \"#utility.yul\":8315:8320   */\n      0x00\n        /* \"#utility.yul\":8364:8367   */\n      dup3\n        /* \"#utility.yul\":8357:8361   */\n      0x1f\n        /* \"#utility.yul\":8349:8355   */\n      dup4\n        /* \"#utility.yul\":8345:8362   */\n      add\n        /* \"#utility.yul\":8341:8368   */\n      slt\n        /* \"#utility.yul\":8331:8453   */\n      tag_518\n      jumpi\n        /* \"#utility.yul\":8372:8451   */\n      tag_519\n      tag_353\n      jump\t// in\n    tag_519:\n        /* \"#utility.yul\":8331:8453   */\n    tag_518:\n        /* \"#utility.yul\":8489:8495   */\n      dup2\n        /* \"#utility.yul\":8476:8496   */\n      calldataload\n        /* \"#utility.yul\":8514:8592   */\n      tag_520\n        /* \"#utility.yul\":8588:8591   */\n      dup5\n        /* \"#utility.yul\":8580:8586   */\n      dup3\n        /* \"#utility.yul\":8573:8577   */\n      0x20\n        /* \"#utility.yul\":8565:8571   */\n      dup7\n        /* \"#utility.yul\":8561:8578   */\n      add\n        /* \"#utility.yul\":8514:8592   */\n      tag_363\n      jump\t// in\n    tag_520:\n        /* \"#utility.yul\":8505:8592   */\n      swap2\n      pop\n        /* \"#utility.yul\":8321:8598   */\n      pop\n        /* \"#utility.yul\":8260:8598   */\n      swap3\n      swap2\n      pop\n      pop\n      jump\t// out\n        /* \"#utility.yul\":8604:10113   */\n    tag_45:\n        /* \"#utility.yul\":8758:8764   */\n      0x00\n        /* \"#utility.yul\":8766:8772   */\n      dup1\n        /* \"#utility.yul\":8774:8780   */\n      0x00\n        /* \"#utility.yul\":8782:8788   */\n      dup1\n        /* \"#utility.yul\":8790:8796   */\n      0x00\n        /* \"#utility.yul\":8839:8842   */\n      0xa0\n        /* \"#utility.yul\":8827:8836   */\n      dup7\n        /* \"#utility.yul\":8818:8825   */\n      dup9\n        /* \"#utility.yul\":8814:8837   */\n      sub\n        /* \"#utility.yul\":8810:8843   */\n      slt\n        /* \"#utility.yul\":8807:8927   */\n      iszero\n      tag_522\n      jumpi\n        /* \"#utility.yul\":8846:8925   */\n      tag_523\n      tag_333\n      jump\t// in\n    tag_523:\n        /* \"#utility.yul\":8807:8927   */\n    tag_522:\n        /* \"#utility.yul\":8966:8967   */\n      0x00\n        /* \"#utility.yul\":8991:9044   */\n      tag_524\n        /* \"#utility.yul\":9036:9043   */\n      dup9\n        /* \"#utility.yul\":9027:9033   */\n      dup3\n        /* \"#utility.yul\":9016:9025   */\n      dup10\n        /* \"#utility.yul\":9012:9034   */\n      add\n        /* \"#utility.yul\":8991:9044   */\n      tag_338\n      jump\t// in\n    tag_524:\n        /* \"#utility.yul\":8981:9044   */\n      swap6\n      pop\n        /* \"#utility.yul\":8937:9054   */\n      pop\n        /* \"#utility.yul\":9093:9095   */\n      0x20\n        /* \"#utility.yul\":9119:9172   */\n      tag_525\n        /* \"#utility.yul\":9164:9171   */\n      dup9\n        /* \"#utility.yul\":9155:9161   */\n      dup3\n        /* \"#utility.yul\":9144:9153   */\n      dup10\n        /* \"#utility.yul\":9140:9162   */\n      add\n        /* \"#utility.yul\":9119:9172   */\n      tag_338\n      jump\t// in\n    tag_525:\n        /* \"#utility.yul\":9109:9172   */\n      swap5\n      pop\n        /* \"#utility.yul\":9064:9182   */\n      pop\n        /* \"#utility.yul\":9249:9251   */\n      0x40\n        /* \"#utility.yul\":9238:9247   */\n      dup7\n        /* \"#utility.yul\":9234:9252   */\n      add\n        /* \"#utility.yul\":9221:9253   */\n      calldataload\n        /* \"#utility.yul\":9280:9298   */\n      0xffffffffffffffff\n        /* \"#utility.yul\":9272:9278   */\n      dup2\n        /* \"#utility.yul\":9269:9299   */\n      gt\n        /* \"#utility.yul\":9266:9383   */\n      iszero\n      tag_526\n      jumpi\n        /* \"#utility.yul\":9302:9381   */\n      tag_527\n      tag_334\n      jump\t// in\n    tag_527:\n        /* \"#utility.yul\":9266:9383   */\n    tag_526:\n        /* \"#utility.yul\":9407:9485   */\n      tag_528\n        /* \"#utility.yul\":9477:9484   */\n      dup9\n        /* \"#utility.yul\":9468:9474   */\n      dup3\n        /* \"#utility.yul\":9457:9466   */\n      dup10\n        /* \"#utility.yul\":9453:9475   */\n      add\n        /* \"#utility.yul\":9407:9485   */\n      tag_359\n      jump\t// in\n    tag_528:\n        /* \"#utility.yul\":9397:9485   */\n      swap4\n      pop\n        /* \"#utility.yul\":9192:9495   */\n      pop\n        /* \"#utility.yul\":9562:9564   */\n      0x60\n        /* \"#utility.yul\":9551:9560   */\n      dup7\n        /* \"#utility.yul\":9547:9565   */\n      add\n        /* \"#utility.yul\":9534:9566   */\n      calldataload\n        /* \"#utility.yul\":9593:9611   */\n      0xffffffffffffffff\n        /* \"#utility.yul\":9585:9591   */\n      dup2\n        /* \"#utility.yul\":9582:9612   */\n      gt\n        /* \"#utility.yul\":9579:9696   */\n      iszero\n      tag_529\n      jumpi\n        /* \"#utility.yul\":9615:9694   */\n      tag_530\n      tag_334\n      jump\t// in\n    tag_530:\n        /* \"#utility.yul\":9579:9696   */\n    tag_529:\n        /* \"#utility.yul\":9720:9798   */\n      tag_531\n        /* \"#utility.yul\":9790:9797   */\n      dup9\n        /* \"#utility.yul\":9781:9787   */\n      dup3\n        /* \"#utility.yul\":9770:9779   */\n      dup10\n        /* \"#utility.yul\":9766:9788   */\n      add\n        /* \"#utility.yul\":9720:9798   */\n      tag_359\n      jump\t// in\n    tag_531:\n        /* \"#utility.yul\":9710:9798   */\n      swap3\n      pop\n        /* \"#utility.yul\":9505:9808   */\n      pop\n        /* \"#utility.yul\":9875:9878   */\n      0x80\n        /* \"#utility.yul\":9864:9873   */\n      dup7\n        /* \"#utility.yul\":9860:9879   */\n      add\n        /* \"#utility.yul\":9847:9880   */\n      calldataload\n        /* \"#utility.yul\":9907:9925   */\n      0xffffffffffffffff\n        /* \"#utility.yul\":9899:9905   */\n      dup2\n        /* \"#utility.yul\":9896:9926   */\n      gt\n        /* \"#utility.yul\":9893:10010   */\n      iszero\n      tag_532\n      jumpi\n        /* \"#utility.yul\":9929:10008   */\n      tag_533\n      tag_334\n      jump\t// in\n    tag_533:\n        /* \"#utility.yul\":9893:10010   */\n    tag_532:\n        /* \"#utility.yul\":10034:10096   */\n      tag_534\n        /* \"#utility.yul\":10088:10095   */\n      dup9\n        /* \"#utility.yul\":10079:10085   */\n      dup3\n        /* \"#utility.yul\":10068:10077   */\n      dup10\n        /* \"#utility.yul\":10064:10086   */\n      add\n        /* \"#utility.yul\":10034:10096   */\n      tag_364\n      jump\t// in\n    tag_534:\n        /* \"#utility.yul\":10024:10096   */\n      swap2\n      pop\n        /* \"#utility.yul\":9818:10106   */\n      pop\n        /* \"#utility.yul\":8604:10113   */\n      swap3\n      swap6\n      pop\n      swap3\n      swap6\n      swap1\n      swap4\n      pop\n      jump\t// out\n        /* \"#utility.yul\":10119:10430   */\n    tag_365:\n        /* \"#utility.yul\":10196:10200   */\n      0x00\n        /* \"#utility.yul\":10286:10304   */\n      0xffffffffffffffff\n        /* \"#utility.yul\":10278:10284   */\n      dup3\n        /* \"#utility.yul\":10275:10305   */\n      gt\n        /* \"#utility.yul\":10272:10328   */\n      iszero\n      tag_536\n      jumpi\n        /* \"#utility.yul\":10308:10326   */\n      tag_537\n      tag_124\n      jump\t// in\n    tag_537:\n        /* \"#utility.yul\":10272:10328   */\n    tag_536:\n        /* \"#utility.yul\":10358:10362   */\n      0x20\n        /* \"#utility.yul\":10350:10356   */\n      dup3\n        /* \"#utility.yul\":10346:10363   */\n      mul\n        /* \"#utility.yul\":10338:10363   */\n      swap1\n      pop\n        /* \"#utility.yul\":10418:10422   */\n      0x20\n        /* \"#utility.yul\":10412:10416   */\n      dup2\n        /* \"#utility.yul\":10408:10423   */\n      add\n        /* \"#utility.yul\":10400:10423   */\n      swap1\n      pop\n        /* \"#utility.yul\":10119:10430   */\n      swap2\n      swap1\n      pop\n      jump\t// out\n        /* \"#utility.yul\":10453:11163   */\n    tag_366:\n        /* \"#utility.yul\":10549:10554   */\n      0x00\n        /* \"#utility.yul\":10574:10655   */\n      tag_539\n        /* \"#utility.yul\":10590:10654   */\n      tag_540\n        /* \"#utility.yul\":10647:10653   */\n      dup5\n        /* \"#utility.yul\":10590:10654   */\n      tag_365\n      jump\t// in\n    tag_540:\n        /* \"#utility.yul\":10574:10655   */\n      tag_355\n      jump\t// in\n    tag_539:\n        /* \"#utility.yul\":10565:10655   */\n      swap1\n      pop\n        /* \"#utility.yul\":10675:10680   */\n      dup1\n        /* \"#utility.yul\":10704:10710   */\n      dup4\n        /* \"#utility.yul\":10697:10702   */\n      dup3\n        /* \"#utility.yul\":10690:10711   */\n      mstore\n        /* \"#utility.yul\":10738:10742   */\n      0x20\n        /* \"#utility.yul\":10731:10736   */\n      dup3\n        /* \"#utility.yul\":10727:10743   */\n      add\n        /* \"#utility.yul\":10720:10743   */\n      swap1\n      pop\n        /* \"#utility.yul\":10791:10795   */\n      0x20\n        /* \"#utility.yul\":10783:10789   */\n      dup5\n        /* \"#utility.yul\":10779:10796   */\n      mul\n        /* \"#utility.yul\":10771:10777   */\n      dup4\n        /* \"#utility.yul\":10767:10797   */\n      add\n        /* \"#utility.yul\":10820:10823   */\n      dup6\n        /* \"#utility.yul\":10812:10818   */\n      dup2\n        /* \"#utility.yul\":10809:10824   */\n      gt\n        /* \"#utility.yul\":10806:10928   */\n      iszero\n      tag_541\n      jumpi\n        /* \"#utility.yul\":10839:10918   */\n      tag_542\n      tag_357\n      jump\t// in\n    tag_542:\n        /* \"#utility.yul\":10806:10928   */\n    tag_541:\n        /* \"#utility.yul\":10954:10960   */\n      dup4\n        /* \"#utility.yul\":10937:11157   */\n    tag_543:\n        /* \"#utility.yul\":10971:10977   */\n      dup2\n        /* \"#utility.yul\":10966:10969   */\n      dup2\n        /* \"#utility.yul\":10963:10978   */\n      lt\n        /* \"#utility.yul\":10937:11157   */\n      iszero\n      tag_545\n      jumpi\n        /* \"#utility.yul\":11046:11049   */\n      dup1\n        /* \"#utility.yul\":11075:11112   */\n      tag_546\n        /* \"#utility.yul\":11108:11111   */\n      dup9\n        /* \"#utility.yul\":11096:11106   */\n      dup3\n        /* \"#utility.yul\":11075:11112   */\n      tag_338\n      jump\t// in\n    tag_546:\n        /* \"#utility.yul\":11070:11073   */\n      dup5\n        /* \"#utility.yul\":11063:11113   */\n      mstore\n        /* \"#utility.yul\":11142:11146   */\n      0x20\n        /* \"#utility.yul\":11137:11140   */\n      dup5\n        /* \"#utility.yul\":11133:11147   */\n      add\n        /* \"#utility.yul\":11126:11147   */\n      swap4\n      pop\n        /* \"#utility.yul\":11013:11157   */\n      pop\n        /* \"#utility.yul\":10997:11001   */\n      0x20\n        /* \"#utility.yul\":10992:10995   */\n      dup2\n        /* \"#utility.yul\":10988:11002   */\n      add\n        /* \"#utility.yul\":10981:11002   */\n      swap1\n      pop\n        /* \"#utility.yul\":10937:11157   */\n      jump(tag_543)\n    tag_545:\n        /* \"#utility.yul\":10941:10962   */\n      pop\n        /* \"#utility.yul\":10555:11163   */\n      pop\n      pop\n        /* \"#utility.yul\":10453:11163   */\n      swap4\n      swap3\n      pop\n      pop\n      pop\n      jump\t// out\n        /* \"#utility.yul\":11186:11556   */\n    tag_367:\n        /* \"#utility.yul\":11257:11262   */\n      0x00\n        /* \"#utility.yul\":11306:11309   */\n      dup3\n        /* \"#utility.yul\":11299:11303   */\n      0x1f\n        /* \"#utility.yul\":11291:11297   */\n      dup4\n        /* \"#utility.yul\":11287:11304   */\n      add\n        /* \"#utility.yul\":11283:11310   */\n      slt\n        /* \"#utility.yul\":11273:11395   */\n      tag_548\n      jumpi\n        /* \"#utility.yul\":11314:11393   */\n      tag_549\n      tag_353\n      jump\t// in\n    tag_549:\n        /* \"#utility.yul\":11273:11395   */\n    tag_548:\n        /* \"#utility.yul\":11431:11437   */\n      dup2\n        /* \"#utility.yul\":11418:11438   */\n      calldataload\n        /* \"#utility.yul\":11456:11550   */\n      tag_550\n        /* \"#utility.yul\":11546:11549   */\n      dup5\n        /* \"#utility.yul\":11538:11544   */\n      dup3\n        /* \"#utility.yul\":11531:11535   */\n      0x20\n        /* \"#utility.yul\":11523:11529   */\n      dup7\n        /* \"#utility.yul\":11519:11536   */\n      add\n        /* \"#utility.yul\":11456:11550   */\n      tag_366\n      jump\t// in\n    tag_550:\n        /* \"#utility.yul\":11447:11550   */\n      swap2\n      pop\n        /* \"#utility.yul\":11263:11556   */\n      pop\n        /* \"#utility.yul\":11186:11556   */\n      swap3\n      swap2\n      pop\n      pop\n      jump\t// out\n        /* \"#utility.yul\":11562:12456   */\n    tag_49:\n        /* \"#utility.yul\":11680:11686   */\n      0x00\n        /* \"#utility.yul\":11688:11694   */\n      dup1\n        /* \"#utility.yul\":11737:11739   */\n      0x40\n        /* \"#utility.yul\":11725:11734   */\n      dup4\n        /* \"#utility.yul\":11716:11723   */\n      dup6\n        /* \"#utility.yul\":11712:11735   */\n      sub\n        /* \"#utility.yul\":11708:11740   */\n      slt\n        /* \"#utility.yul\":11705:11824   */\n      iszero\n      tag_552\n      jumpi\n        /* \"#utility.yul\":11743:11822   */\n      tag_553\n      tag_333\n      jump\t// in\n    tag_553:\n        /* \"#utility.yul\":11705:11824   */\n    tag_552:\n        /* \"#utility.yul\":11891:11892   */\n      0x00\n        /* \"#utility.yul\":11880:11889   */\n      dup4\n        /* \"#utility.yul\":11876:11893   */\n      add\n        /* \"#utility.yul\":11863:11894   */\n      calldataload\n        /* \"#utility.yul\":11921:11939   */\n      0xffffffffffffffff\n        /* \"#utility.yul\":11913:11919   */\n      dup2\n        /* \"#utility.yul\":11910:11940   */\n      gt\n        /* \"#utility.yul\":11907:12024   */\n      iszero\n      tag_554\n      jumpi\n        /* \"#utility.yul\":11943:12022   */\n      tag_555\n      tag_334\n      jump\t// in\n    tag_555:\n        /* \"#utility.yul\":11907:12024   */\n    tag_554:\n        /* \"#utility.yul\":12048:12126   */\n      tag_556\n        /* \"#utility.yul\":12118:12125   */\n      dup6\n        /* \"#utility.yul\":12109:12115   */\n      dup3\n        /* \"#utility.yul\":12098:12107   */\n      dup7\n        /* \"#utility.yul\":12094:12116   */\n      add\n        /* \"#utility.yul\":12048:12126   */\n      tag_367\n      jump\t// in\n    tag_556:\n        /* \"#utility.yul\":12038:12126   */\n      swap3\n      pop\n        /* \"#utility.yul\":11834:12136   */\n      pop\n        /* \"#utility.yul\":12203:12205   */\n      0x20\n        /* \"#utility.yul\":12192:12201   */\n      dup4\n        /* \"#utility.yul\":12188:12206   */\n      add\n        /* \"#utility.yul\":12175:12207   */\n      calldataload\n        /* \"#utility.yul\":12234:12252   */\n      0xffffffffffffffff\n        /* \"#utility.yul\":12226:12232   */\n      dup2\n        /* \"#utility.yul\":12223:12253   */\n      gt\n        /* \"#utility.yul\":12220:12337   */\n      iszero\n      tag_557\n      jumpi\n        /* \"#utility.yul\":12256:12335   */\n      tag_558\n      tag_334\n      jump\t// in\n    tag_558:\n        /* \"#utility.yul\":12220:12337   */\n    tag_557:\n        /* \"#utility.yul\":12361:12439   */\n      tag_559\n        /* \"#utility.yul\":12431:12438   */\n      dup6\n        /* \"#utility.yul\":12422:12428   */\n      dup3\n        /* \"#utility.yul\":12411:12420   */\n      dup7\n        /* \"#utility.yul\":12407:12429   */\n      add\n        /* \"#utility.yul\":12361:12439   */\n      tag_359\n      jump\t// in\n    tag_559:\n        /* \"#utility.yul\":12351:12439   */\n      swap2\n      pop\n        /* \"#utility.yul\":12146:12449   */\n      pop\n        /* \"#utility.yul\":11562:12456   */\n      swap3\n      pop\n      swap3\n      swap1\n      pop\n      jump\t// out\n        /* \"#utility.yul\":12462:12576   */\n    tag_368:\n        /* \"#utility.yul\":12529:12535   */\n      0x00\n        /* \"#utility.yul\":12563:12568   */\n      dup2\n        /* \"#utility.yul\":12557:12569   */\n      mload\n        /* \"#utility.yul\":12547:12569   */\n      swap1\n      pop\n        /* \"#utility.yul\":12462:12576   */\n      swap2\n      swap1\n      pop\n      jump\t// out\n        /* \"#utility.yul\":12582:12766   */\n    tag_369:\n        /* \"#utility.yul\":12681:12692   */\n      0x00\n        /* \"#utility.yul\":12715:12721   */\n      dup3\n        /* \"#utility.yul\":12710:12713   */\n      dup3\n        /* \"#utility.yul\":12703:12722   */\n      mstore\n        /* \"#utility.yul\":12755:12759   */\n      0x20\n        /* \"#utility.yul\":12750:12753   */\n      dup3\n        /* \"#utility.yul\":12746:12760   */\n      add\n        /* \"#utility.yul\":12731:12760   */\n      swap1\n      pop\n        /* \"#utility.yul\":12582:12766   */\n      swap3\n      swap2\n      pop\n      pop\n      jump\t// out\n        /* \"#utility.yul\":12772:12904   */\n    tag_370:\n        /* \"#utility.yul\":12839:12843   */\n      0x00\n        /* \"#utility.yul\":12862:12865   */\n      dup2\n        /* \"#utility.yul\":12854:12865   */\n      swap1\n      pop\n        /* \"#utility.yul\":12892:12896   */\n      0x20\n        /* \"#utility.yul\":12887:12890   */\n      dup3\n        /* \"#utility.yul\":12883:12897   */\n      add\n        /* \"#utility.yul\":12875:12897   */\n      swap1\n      pop\n        /* \"#utility.yul\":12772:12904   */\n      swap2\n      swap1\n      pop\n      jump\t// out\n        /* \"#utility.yul\":12910:13018   */\n    tag_371:\n        /* \"#utility.yul\":12987:13011   */\n      tag_564\n        /* \"#utility.yul\":13005:13010   */\n      dup2\n        /* \"#utility.yul\":12987:13011   */\n      tag_339\n      jump\t// in\n    tag_564:\n        /* \"#utility.yul\":12982:12985   */\n      dup3\n        /* \"#utility.yul\":12975:13012   */\n      mstore\n        /* \"#utility.yul\":12910:13018   */\n      pop\n      pop\n      jump\t// out\n        /* \"#utility.yul\":13024:13203   */\n    tag_372:\n        /* \"#utility.yul\":13093:13103   */\n      0x00\n        /* \"#utility.yul\":13114:13160   */\n      tag_566\n        /* \"#utility.yul\":13156:13159   */\n      dup4\n        /* \"#utility.yul\":13148:13154   */\n      dup4\n        /* \"#utility.yul\":13114:13160   */\n      tag_371\n      jump\t// in\n    tag_566:\n        /* \"#utility.yul\":13192:13196   */\n      0x20\n        /* \"#utility.yul\":13187:13190   */\n      dup4\n        /* \"#utility.yul\":13183:13197   */\n      add\n        /* \"#utility.yul\":13169:13197   */\n      swap1\n      pop\n        /* \"#utility.yul\":13024:13203   */\n      swap3\n      swap2\n      pop\n      pop\n      jump\t// out\n        /* \"#utility.yul\":13209:13322   */\n    tag_373:\n        /* \"#utility.yul\":13279:13283   */\n      0x00\n        /* \"#utility.yul\":13311:13315   */\n      0x20\n        /* \"#utility.yul\":13306:13309   */\n      dup3\n        /* \"#utility.yul\":13302:13316   */\n      add\n        /* \"#utility.yul\":13294:13316   */\n      swap1\n      pop\n        /* \"#utility.yul\":13209:13322   */\n      swap2\n      swap1\n      pop\n      jump\t// out\n        /* \"#utility.yul\":13358:14090   */\n    tag_374:\n        /* \"#utility.yul\":13477:13480   */\n      0x00\n        /* \"#utility.yul\":13506:13560   */\n      tag_569\n        /* \"#utility.yul\":13554:13559   */\n      dup3\n        /* \"#utility.yul\":13506:13560   */\n      tag_368\n      jump\t// in\n    tag_569:\n        /* \"#utility.yul\":13576:13662   */\n      tag_570\n        /* \"#utility.yul\":13655:13661   */\n      dup2\n        /* \"#utility.yul\":13650:13653   */\n      dup6\n        /* \"#utility.yul\":13576:13662   */\n      tag_369\n      jump\t// in\n    tag_570:\n        /* \"#utility.yul\":13569:13662   */\n      swap4\n      pop\n        /* \"#utility.yul\":13686:13742   */\n      tag_571\n        /* \"#utility.yul\":13736:13741   */\n      dup4\n        /* \"#utility.yul\":13686:13742   */\n      tag_370\n      jump\t// in\n    tag_571:\n        /* \"#utility.yul\":13765:13772   */\n      dup1\n        /* \"#utility.yul\":13796:13797   */\n      0x00\n        /* \"#utility.yul\":13781:14065   */\n    tag_572:\n        /* \"#utility.yul\":13806:13812   */\n      dup4\n        /* \"#utility.yul\":13803:13804   */\n      dup2\n        /* \"#utility.yul\":13800:13813   */\n      lt\n        /* \"#utility.yul\":13781:14065   */\n      iszero\n      tag_574\n      jumpi\n        /* \"#utility.yul\":13882:13888   */\n      dup2\n        /* \"#utility.yul\":13876:13889   */\n      mload\n        /* \"#utility.yul\":13909:13972   */\n      tag_575\n        /* \"#utility.yul\":13968:13971   */\n      dup9\n        /* \"#utility.yul\":13953:13966   */\n      dup3\n        /* \"#utility.yul\":13909:13972   */\n      tag_372\n      jump\t// in\n    tag_575:\n        /* \"#utility.yul\":13902:13972   */\n      swap8\n      pop\n        /* \"#utility.yul\":13995:14055   */\n      tag_576\n        /* \"#utility.yul\":14048:14054   */\n      dup4\n        /* \"#utility.yul\":13995:14055   */\n      tag_373\n      jump\t// in\n    tag_576:\n        /* \"#utility.yul\":13985:14055   */\n      swap3\n      pop\n        /* \"#utility.yul\":13841:14065   */\n      pop\n        /* \"#utility.yul\":13828:13829   */\n      0x01\n        /* \"#utility.yul\":13825:13826   */\n      dup2\n        /* \"#utility.yul\":13821:13830   */\n      add\n        /* \"#utility.yul\":13816:13830   */\n      swap1\n      pop\n        /* \"#utility.yul\":13781:14065   */\n      jump(tag_572)\n    tag_574:\n        /* \"#utility.yul\":13785:13799   */\n      pop\n        /* \"#utility.yul\":14081:14084   */\n      dup6\n        /* \"#utility.yul\":14074:14084   */\n      swap4\n      pop\n        /* \"#utility.yul\":13482:14090   */\n      pop\n      pop\n      pop\n        /* \"#utility.yul\":13358:14090   */\n      swap3\n      swap2\n      pop\n      pop\n      jump\t// out\n        /* \"#utility.yul\":14096:14469   */\n    tag_52:\n        /* \"#utility.yul\":14239:14243   */\n      0x00\n        /* \"#utility.yul\":14277:14279   */\n      0x20\n        /* \"#utility.yul\":14266:14275   */\n      dup3\n        /* \"#utility.yul\":14262:14280   */\n      add\n        /* \"#utility.yul\":14254:14280   */\n      swap1\n      pop\n        /* \"#utility.yul\":14326:14335   */\n      dup2\n        /* \"#utility.yul\":14320:14324   */\n      dup2\n        /* \"#utility.yul\":14316:14336   */\n      sub\n        /* \"#utility.yul\":14312:14313   */\n      0x00\n        /* \"#utility.yul\":14301:14310   */\n      dup4\n        /* \"#utility.yul\":14297:14314   */\n      add\n        /* \"#utility.yul\":14290:14337   */\n      mstore\n        /* \"#utility.yul\":14354:14462   */\n      tag_578\n        /* \"#utility.yul\":14457:14461   */\n      dup2\n        /* \"#utility.yul\":14448:14454   */\n      dup5\n        /* \"#utility.yul\":14354:14462   */\n      tag_374\n      jump\t// in\n    tag_578:\n        /* \"#utility.yul\":14346:14462   */\n      swap1\n      pop\n        /* \"#utility.yul\":14096:14469   */\n      swap3\n      swap2\n      pop\n      pop\n      jump\t// out\n        /* \"#utility.yul\":14475:14593   */\n    tag_375:\n        /* \"#utility.yul\":14562:14586   */\n      tag_580\n        /* \"#utility.yul\":14580:14585   */\n      dup2\n        /* \"#utility.yul\":14562:14586   */\n      tag_336\n      jump\t// in\n    tag_580:\n        /* \"#utility.yul\":14557:14560   */\n      dup3\n        /* \"#utility.yul\":14550:14587   */\n      mstore\n        /* \"#utility.yul\":14475:14593   */\n      pop\n      pop\n      jump\t// out\n        /* \"#utility.yul\":14599:14821   */\n    tag_58:\n        /* \"#utility.yul\":14692:14696   */\n      0x00\n        /* \"#utility.yul\":14730:14732   */\n      0x20\n        /* \"#utility.yul\":14719:14728   */\n      dup3\n        /* \"#utility.yul\":14715:14733   */\n      add\n        /* \"#utility.yul\":14707:14733   */\n      swap1\n      pop\n        /* \"#utility.yul\":14743:14814   */\n      tag_582\n        /* \"#utility.yul\":14811:14812   */\n      0x00\n        /* \"#utility.yul\":14800:14809   */\n      dup4\n        /* \"#utility.yul\":14796:14813   */\n      add\n        /* \"#utility.yul\":14787:14793   */\n      dup5\n        /* \"#utility.yul\":14743:14814   */\n      tag_375\n      jump\t// in\n    tag_582:\n        /* \"#utility.yul\":14599:14821   */\n      swap3\n      swap2\n      pop\n      pop\n      jump\t// out\n        /* \"#utility.yul\":14827:14943   */\n    tag_376:\n        /* \"#utility.yul\":14897:14918   */\n      tag_584\n        /* \"#utility.yul\":14912:14917   */\n      dup2\n        /* \"#utility.yul\":14897:14918   */\n      tag_346\n      jump\t// in\n    tag_584:\n        /* \"#utility.yul\":14890:14895   */\n      dup2\n        /* \"#utility.yul\":14887:14919   */\n      eq\n        /* \"#utility.yul\":14877:14937   */\n      tag_585\n      jumpi\n        /* \"#utility.yul\":14933:14934   */\n      0x00\n        /* \"#utility.yul\":14930:14931   */\n      dup1\n        /* \"#utility.yul\":14923:14935   */\n      revert\n        /* \"#utility.yul\":14877:14937   */\n    tag_585:\n        /* \"#utility.yul\":14827:14943   */\n      pop\n      jump\t// out\n        /* \"#utility.yul\":14949:15082   */\n    tag_377:\n        /* \"#utility.yul\":14992:14997   */\n      0x00\n        /* \"#utility.yul\":15030:15036   */\n      dup2\n        /* \"#utility.yul\":15017:15037   */\n      calldataload\n        /* \"#utility.yul\":15008:15037   */\n      swap1\n      pop\n        /* \"#utility.yul\":15046:15076   */\n      tag_587\n        /* \"#utility.yul\":15070:15075   */\n      dup2\n        /* \"#utility.yul\":15046:15076   */\n      tag_376\n      jump\t// in\n    tag_587:\n        /* \"#utility.yul\":14949:15082   */\n      swap3\n      swap2\n      pop\n      pop\n      jump\t// out\n        /* \"#utility.yul\":15088:15556   */\n    tag_64:\n        /* \"#utility.yul\":15153:15159   */\n      0x00\n        /* \"#utility.yul\":15161:15167   */\n      dup1\n        /* \"#utility.yul\":15210:15212   */\n      0x40\n        /* \"#utility.yul\":15198:15207   */\n      dup4\n        /* \"#utility.yul\":15189:15196   */\n      dup6\n        /* \"#utility.yul\":15185:15208   */\n      sub\n        /* \"#utility.yul\":15181:15213   */\n      slt\n        /* \"#utility.yul\":15178:15297   */\n      iszero\n      tag_589\n      jumpi\n        /* \"#utility.yul\":15216:15295   */\n      tag_590\n      tag_333\n      jump\t// in\n    tag_590:\n        /* \"#utility.yul\":15178:15297   */\n    tag_589:\n        /* \"#utility.yul\":15336:15337   */\n      0x00\n        /* \"#utility.yul\":15361:15414   */\n      tag_591\n        /* \"#utility.yul\":15406:15413   */\n      dup6\n        /* \"#utility.yul\":15397:15403   */\n      dup3\n        /* \"#utility.yul\":15386:15395   */\n      dup7\n        /* \"#utility.yul\":15382:15404   */\n      add\n        /* \"#utility.yul\":15361:15414   */\n      tag_338\n      jump\t// in\n    tag_591:\n        /* \"#utility.yul\":15351:15414   */\n      swap3\n      pop\n        /* \"#utility.yul\":15307:15424   */\n      pop\n        /* \"#utility.yul\":15463:15465   */\n      0x20\n        /* \"#utility.yul\":15489:15539   */\n      tag_592\n        /* \"#utility.yul\":15531:15538   */\n      dup6\n        /* \"#utility.yul\":15522:15528   */\n      dup3\n        /* \"#utility.yul\":15511:15520   */\n      dup7\n        /* \"#utility.yul\":15507:15529   */\n      add\n        /* \"#utility.yul\":15489:15539   */\n      tag_377\n      jump\t// in\n    tag_592:\n        /* \"#utility.yul\":15479:15539   */\n      swap2\n      pop\n        /* \"#utility.yul\":15434:15549   */\n      pop\n        /* \"#utility.yul\":15088:15556   */\n      swap3\n      pop\n      swap3\n      swap1\n      pop\n      jump\t// out\n        /* \"#utility.yul\":15562:15870   */\n    tag_378:\n        /* \"#utility.yul\":15624:15628   */\n      0x00\n        /* \"#utility.yul\":15714:15732   */\n      0xffffffffffffffff\n        /* \"#utility.yul\":15706:15712   */\n      dup3\n        /* \"#utility.yul\":15703:15733   */\n      gt\n        /* \"#utility.yul\":15700:15756   */\n      iszero\n      tag_594\n      jumpi\n        /* \"#utility.yul\":15736:15754   */\n      tag_595\n      tag_124\n      jump\t// in\n    tag_595:\n        /* \"#utility.yul\":15700:15756   */\n    tag_594:\n        /* \"#utility.yul\":15774:15803   */\n      tag_596\n        /* \"#utility.yul\":15796:15802   */\n      dup3\n        /* \"#utility.yul\":15774:15803   */\n      tag_351\n      jump\t// in\n    tag_596:\n        /* \"#utility.yul\":15766:15803   */\n      swap1\n      pop\n        /* \"#utility.yul\":15858:15862   */\n      0x20\n        /* \"#utility.yul\":15852:15856   */\n      dup2\n        /* \"#utility.yul\":15848:15863   */\n      add\n        /* \"#utility.yul\":15840:15863   */\n      swap1\n      pop\n        /* \"#utility.yul\":15562:15870   */\n      swap2\n      swap1\n      pop\n      jump\t// out\n        /* \"#utility.yul\":15876:16288   */\n    tag_379:\n        /* \"#utility.yul\":15954:15959   */\n      0x00\n        /* \"#utility.yul\":15979:16045   */\n      tag_598\n        /* \"#utility.yul\":15995:16044   */\n      tag_599\n        /* \"#utility.yul\":16037:16043   */\n      dup5\n        /* \"#utility.yul\":15995:16044   */\n      tag_378\n      jump\t// in\n    tag_599:\n        /* \"#utility.yul\":15979:16045   */\n      tag_355\n      jump\t// in\n    tag_598:\n        /* \"#utility.yul\":15970:16045   */\n      swap1\n      pop\n        /* \"#utility.yul\":16068:16074   */\n      dup3\n        /* \"#utility.yul\":16061:16066   */\n      dup2\n        /* \"#utility.yul\":16054:16075   */\n      mstore\n        /* \"#utility.yul\":16106:16110   */\n      0x20\n        /* \"#utility.yul\":16099:16104   */\n      dup2\n        /* \"#utility.yul\":16095:16111   */\n      add\n        /* \"#utility.yul\":16144:16147   */\n      dup5\n        /* \"#utility.yul\":16135:16141   */\n      dup5\n        /* \"#utility.yul\":16130:16133   */\n      dup5\n        /* \"#utility.yul\":16126:16142   */\n      add\n        /* \"#utility.yul\":16123:16148   */\n      gt\n        /* \"#utility.yul\":16120:16232   */\n      iszero\n      tag_600\n      jumpi\n        /* \"#utility.yul\":16151:16230   */\n      tag_601\n      tag_360\n      jump\t// in\n    tag_601:\n        /* \"#utility.yul\":16120:16232   */\n    tag_600:\n        /* \"#utility.yul\":16241:16282   */\n      tag_602\n        /* \"#utility.yul\":16275:16281   */\n      dup5\n        /* \"#utility.yul\":16270:16273   */\n      dup3\n        /* \"#utility.yul\":16265:16268   */\n      dup6\n        /* \"#utility.yul\":16241:16282   */\n      tag_362\n      jump\t// in\n    tag_602:\n        /* \"#utility.yul\":15960:16288   */\n      pop\n        /* \"#utility.yul\":15876:16288   */\n      swap4\n      swap3\n      pop\n      pop\n      pop\n      jump\t// out\n        /* \"#utility.yul\":16308:16648   */\n    tag_380:\n        /* \"#utility.yul\":16364:16369   */\n      0x00\n        /* \"#utility.yul\":16413:16416   */\n      dup3\n        /* \"#utility.yul\":16406:16410   */\n      0x1f\n        /* \"#utility.yul\":16398:16404   */\n      dup4\n        /* \"#utility.yul\":16394:16411   */\n      add\n        /* \"#utility.yul\":16390:16417   */\n      slt\n        /* \"#utility.yul\":16380:16502   */\n      tag_604\n      jumpi\n        /* \"#utility.yul\":16421:16500   */\n      tag_605\n      tag_353\n      jump\t// in\n    tag_605:\n        /* \"#utility.yul\":16380:16502   */\n    tag_604:\n        /* \"#utility.yul\":16538:16544   */\n      dup2\n        /* \"#utility.yul\":16525:16545   */\n      calldataload\n        /* \"#utility.yul\":16563:16642   */\n      tag_606\n        /* \"#utility.yul\":16638:16641   */\n      dup5\n        /* \"#utility.yul\":16630:16636   */\n      dup3\n        /* \"#utility.yul\":16623:16627   */\n      0x20\n        /* \"#utility.yul\":16615:16621   */\n      dup7\n        /* \"#utility.yul\":16611:16628   */\n      add\n        /* \"#utility.yul\":16563:16642   */\n      tag_379\n      jump\t// in\n    tag_606:\n        /* \"#utility.yul\":16554:16642   */\n      swap2\n      pop\n        /* \"#utility.yul\":16370:16648   */\n      pop\n        /* \"#utility.yul\":16308:16648   */\n      swap3\n      swap2\n      pop\n      pop\n      jump\t// out\n        /* \"#utility.yul\":16654:17163   */\n    tag_68:\n        /* \"#utility.yul\":16723:16729   */\n      0x00\n        /* \"#utility.yul\":16772:16774   */\n      0x20\n        /* \"#utility.yul\":16760:16769   */\n      dup3\n        /* \"#utility.yul\":16751:16758   */\n      dup5\n        /* \"#utility.yul\":16747:16770   */\n      sub\n        /* \"#utility.yul\":16743:16775   */\n      slt\n        /* \"#utility.yul\":16740:16859   */\n      iszero\n      tag_608\n      jumpi\n        /* \"#utility.yul\":16778:16857   */\n      tag_609\n      tag_333\n      jump\t// in\n    tag_609:\n        /* \"#utility.yul\":16740:16859   */\n    tag_608:\n        /* \"#utility.yul\":16926:16927   */\n      0x00\n        /* \"#utility.yul\":16915:16924   */\n      dup3\n        /* \"#utility.yul\":16911:16928   */\n      add\n        /* \"#utility.yul\":16898:16929   */\n      calldataload\n        /* \"#utility.yul\":16956:16974   */\n      0xffffffffffffffff\n        /* \"#utility.yul\":16948:16954   */\n      dup2\n        /* \"#utility.yul\":16945:16975   */\n      gt\n        /* \"#utility.yul\":16942:17059   */\n      iszero\n      tag_610\n      jumpi\n        /* \"#utility.yul\":16978:17057   */\n      tag_611\n      tag_334\n      jump\t// in\n    tag_611:\n        /* \"#utility.yul\":16942:17059   */\n    tag_610:\n        /* \"#utility.yul\":17083:17146   */\n      tag_612\n        /* \"#utility.yul\":17138:17145   */\n      dup5\n        /* \"#utility.yul\":17129:17135   */\n      dup3\n        /* \"#utility.yul\":17118:17127   */\n      dup6\n        /* \"#utility.yul\":17114:17136   */\n      add\n        /* \"#utility.yul\":17083:17146   */\n      tag_380\n      jump\t// in\n    tag_612:\n        /* \"#utility.yul\":17073:17146   */\n      swap2\n      pop\n        /* \"#utility.yul\":16869:17156   */\n      pop\n        /* \"#utility.yul\":16654:17163   */\n      swap3\n      swap2\n      pop\n      pop\n      jump\t// out\n        /* \"#utility.yul\":17169:17643   */\n    tag_75:\n        /* \"#utility.yul\":17237:17243   */\n      0x00\n        /* \"#utility.yul\":17245:17251   */\n      dup1\n        /* \"#utility.yul\":17294:17296   */\n      0x40\n        /* \"#utility.yul\":17282:17291   */\n      dup4\n        /* \"#utility.yul\":17273:17280   */\n      dup6\n        /* \"#utility.yul\":17269:17292   */\n      sub\n        /* \"#utility.yul\":17265:17297   */\n      slt\n        /* \"#utility.yul\":17262:17381   */\n      iszero\n      tag_614\n      jumpi\n        /* \"#utility.yul\":17300:17379   */\n      tag_615\n      tag_333\n      jump\t// in\n    tag_615:\n        /* \"#utility.yul\":17262:17381   */\n    tag_614:\n        /* \"#utility.yul\":17420:17421   */\n      0x00\n        /* \"#utility.yul\":17445:17498   */\n      tag_616\n        /* \"#utility.yul\":17490:17497   */\n      dup6\n        /* \"#utility.yul\":17481:17487   */\n      dup3\n        /* \"#utility.yul\":17470:17479   */\n      dup7\n        /* \"#utility.yul\":17466:17488   */\n      add\n        /* \"#utility.yul\":17445:17498   */\n      tag_338\n      jump\t// in\n    tag_616:\n        /* \"#utility.yul\":17435:17498   */\n      swap3\n      pop\n        /* \"#utility.yul\":17391:17508   */\n      pop\n        /* \"#utility.yul\":17547:17549   */\n      0x20\n        /* \"#utility.yul\":17573:17626   */\n      tag_617\n        /* \"#utility.yul\":17618:17625   */\n      dup6\n        /* \"#utility.yul\":17609:17615   */\n      dup3\n        /* \"#utility.yul\":17598:17607   */\n      dup7\n        /* \"#utility.yul\":17594:17616   */\n      add\n        /* \"#utility.yul\":17573:17626   */\n      tag_338\n      jump\t// in\n    tag_617:\n        /* \"#utility.yul\":17563:17626   */\n      swap2\n      pop\n        /* \"#utility.yul\":17518:17636   */\n      pop\n        /* \"#utility.yul\":17169:17643   */\n      swap3\n      pop\n      swap3\n      swap1\n      pop\n      jump\t// out\n        /* \"#utility.yul\":17649:18738   */\n    tag_84:\n        /* \"#utility.yul\":17753:17759   */\n      0x00\n        /* \"#utility.yul\":17761:17767   */\n      dup1\n        /* \"#utility.yul\":17769:17775   */\n      0x00\n        /* \"#utility.yul\":17777:17783   */\n      dup1\n        /* \"#utility.yul\":17785:17791   */\n      0x00\n        /* \"#utility.yul\":17834:17837   */\n      0xa0\n        /* \"#utility.yul\":17822:17831   */\n      dup7\n        /* \"#utility.yul\":17813:17820   */\n      dup9\n        /* \"#utility.yul\":17809:17832   */\n      sub\n        /* \"#utility.yul\":17805:17838   */\n      slt\n        /* \"#utility.yul\":17802:17922   */\n      iszero\n      tag_619\n      jumpi\n        /* \"#utility.yul\":17841:17920   */\n      tag_620\n      tag_333\n      jump\t// in\n    tag_620:\n        /* \"#utility.yul\":17802:17922   */\n    tag_619:\n        /* \"#utility.yul\":17961:17962   */\n      0x00\n        /* \"#utility.yul\":17986:18039   */\n      tag_621\n        /* \"#utility.yul\":18031:18038   */\n      dup9\n        /* \"#utility.yul\":18022:18028   */\n      dup3\n        /* \"#utility.yul\":18011:18020   */\n      dup10\n        /* \"#utility.yul\":18007:18029   */\n      add\n        /* \"#utility.yul\":17986:18039   */\n      tag_338\n      jump\t// in\n    tag_621:\n        /* \"#utility.yul\":17976:18039   */\n      swap6\n      pop\n        /* \"#utility.yul\":17932:18049   */\n      pop\n        /* \"#utility.yul\":18088:18090   */\n      0x20\n        /* \"#utility.yul\":18114:18167   */\n      tag_622\n        /* \"#utility.yul\":18159:18166   */\n      dup9\n        /* \"#utility.yul\":18150:18156   */\n      dup3\n        /* \"#utility.yul\":18139:18148   */\n      dup10\n        /* \"#utility.yul\":18135:18157   */\n      add\n        /* \"#utility.yul\":18114:18167   */\n      tag_338\n      jump\t// in\n    tag_622:\n        /* \"#utility.yul\":18104:18167   */\n      swap5\n      pop\n        /* \"#utility.yul\":18059:18177   */\n      pop\n        /* \"#utility.yul\":18216:18218   */\n      0x40\n        /* \"#utility.yul\":18242:18295   */\n      tag_623\n        /* \"#utility.yul\":18287:18294   */\n      dup9\n        /* \"#utility.yul\":18278:18284   */\n      dup3\n        /* \"#utility.yul\":18267:18276   */\n      dup10\n        /* \"#utility.yul\":18263:18285   */\n      add\n        /* \"#utility.yul\":18242:18295   */\n      tag_341\n      jump\t// in\n    tag_623:\n        /* \"#utility.yul\":18232:18295   */\n      swap4\n      pop\n        /* \"#utility.yul\":18187:18305   */\n      pop\n        /* \"#utility.yul\":18344:18346   */\n      0x60\n        /* \"#utility.yul\":18370:18423   */\n      tag_624\n        /* \"#utility.yul\":18415:18422   */\n      dup9\n        /* \"#utility.yul\":18406:18412   */\n      dup3\n        /* \"#utility.yul\":18395:18404   */\n      dup10\n        /* \"#utility.yul\":18391:18413   */\n      add\n        /* \"#utility.yul\":18370:18423   */\n      tag_341\n      jump\t// in\n    tag_624:\n        /* \"#utility.yul\":18360:18423   */\n      swap3\n      pop\n        /* \"#utility.yul\":18315:18433   */\n      pop\n        /* \"#utility.yul\":18500:18503   */\n      0x80\n        /* \"#utility.yul\":18489:18498   */\n      dup7\n        /* \"#utility.yul\":18485:18504   */\n      add\n        /* \"#utility.yul\":18472:18505   */\n      calldataload\n        /* \"#utility.yul\":18532:18550   */\n      0xffffffffffffffff\n        /* \"#utility.yul\":18524:18530   */\n      dup2\n        /* \"#utility.yul\":18521:18551   */\n      gt\n        /* \"#utility.yul\":18518:18635   */\n      iszero\n      tag_625\n      jumpi\n        /* \"#utility.yul\":18554:18633   */\n      tag_626\n      tag_334\n      jump\t// in\n    tag_626:\n        /* \"#utility.yul\":18518:18635   */\n    tag_625:\n        /* \"#utility.yul\":18659:18721   */\n      tag_627\n        /* \"#utility.yul\":18713:18720   */\n      dup9\n        /* \"#utility.yul\":18704:18710   */\n      dup3\n        /* \"#utility.yul\":18693:18702   */\n      dup10\n        /* \"#utility.yul\":18689:18711   */\n      add\n        /* \"#utility.yul\":18659:18721   */\n      tag_364\n      jump\t// in\n    tag_627:\n        /* \"#utility.yul\":18649:18721   */\n      swap2\n      pop\n        /* \"#utility.yul\":18443:18731   */\n      pop\n        /* \"#utility.yul\":17649:18738   */\n      swap3\n      swap6\n      pop\n      swap3\n      swap6\n      swap1\n      swap4\n      pop\n      jump\t// out\n        /* \"#utility.yul\":18744:19073   */\n    tag_88:\n        /* \"#utility.yul\":18803:18809   */\n      0x00\n        /* \"#utility.yul\":18852:18854   */\n      0x20\n        /* \"#utility.yul\":18840:18849   */\n      dup3\n        /* \"#utility.yul\":18831:18838   */\n      dup5\n        /* \"#utility.yul\":18827:18850   */\n      sub\n        /* \"#utility.yul\":18823:18855   */\n      slt\n        /* \"#utility.yul\":18820:18939   */\n      iszero\n      tag_629\n      jumpi\n        /* \"#utility.yul\":18858:18937   */\n      tag_630\n      tag_333\n      jump\t// in\n    tag_630:\n        /* \"#utility.yul\":18820:18939   */\n    tag_629:\n        /* \"#utility.yul\":18978:18979   */\n      0x00\n        /* \"#utility.yul\":19003:19056   */\n      tag_631\n        /* \"#utility.yul\":19048:19055   */\n      dup5\n        /* \"#utility.yul\":19039:19045   */\n      dup3\n        /* \"#utility.yul\":19028:19037   */\n      dup6\n        /* \"#utility.yul\":19024:19046   */\n      add\n        /* \"#utility.yul\":19003:19056   */\n      tag_338\n      jump\t// in\n    tag_631:\n        /* \"#utility.yul\":18993:19056   */\n      swap2\n      pop\n        /* \"#utility.yul\":18949:19066   */\n      pop\n        /* \"#utility.yul\":18744:19073   */\n      swap3\n      swap2\n      pop\n      pop\n      jump\t// out\n        /* \"#utility.yul\":19079:19309   */\n    tag_381:\n        /* \"#utility.yul\":19219:19253   */\n      0x455243313135353a2062616c616e636520717565727920666f7220746865207a\n        /* \"#utility.yul\":19215:19216   */\n      0x00\n        /* \"#utility.yul\":19207:19213   */\n      dup3\n        /* \"#utility.yul\":19203:19217   */\n      add\n        /* \"#utility.yul\":19196:19254   */\n      mstore\n        /* \"#utility.yul\":19288:19301   */\n      0x65726f2061646472657373000000000000000000000000000000000000000000\n        /* \"#utility.yul\":19283:19285   */\n      0x20\n        /* \"#utility.yul\":19275:19281   */\n      dup3\n        /* \"#utility.yul\":19271:19286   */\n      add\n        /* \"#utility.yul\":19264:19302   */\n      mstore\n        /* \"#utility.yul\":19079:19309   */\n      pop\n      jump\t// out\n        /* \"#utility.yul\":19315:19681   */\n    tag_382:\n        /* \"#utility.yul\":19457:19460   */\n      0x00\n        /* \"#utility.yul\":19478:19545   */\n      tag_634\n        /* \"#utility.yul\":19542:19544   */\n      0x2b\n        /* \"#utility.yul\":19537:19540   */\n      dup4\n        /* \"#utility.yul\":19478:19545   */\n      tag_349\n      jump\t// in\n    tag_634:\n        /* \"#utility.yul\":19471:19545   */\n      swap2\n      pop\n        /* \"#utility.yul\":19554:19647   */\n      tag_635\n        /* \"#utility.yul\":19643:19646   */\n      dup3\n        /* \"#utility.yul\":19554:19647   */\n      tag_381\n      jump\t// in\n    tag_635:\n        /* \"#utility.yul\":19672:19674   */\n      0x40\n        /* \"#utility.yul\":19667:19670   */\n      dup3\n        /* \"#utility.yul\":19663:19675   */\n      add\n        /* \"#utility.yul\":19656:19675   */\n      swap1\n      pop\n        /* \"#utility.yul\":19315:19681   */\n      swap2\n      swap1\n      pop\n      jump\t// out\n        /* \"#utility.yul\":19687:20106   */\n    tag_94:\n        /* \"#utility.yul\":19853:19857   */\n      0x00\n        /* \"#utility.yul\":19891:19893   */\n      0x20\n        /* \"#utility.yul\":19880:19889   */\n      dup3\n        /* \"#utility.yul\":19876:19894   */\n      add\n        /* \"#utility.yul\":19868:19894   */\n      swap1\n      pop\n        /* \"#utility.yul\":19940:19949   */\n      dup2\n        /* \"#utility.yul\":19934:19938   */\n      dup2\n        /* \"#utility.yul\":19930:19950   */\n      sub\n        /* \"#utility.yul\":19926:19927   */\n      0x00\n        /* \"#utility.yul\":19915:19924   */\n      dup4\n        /* \"#utility.yul\":19911:19928   */\n      add\n        /* \"#utility.yul\":19904:19951   */\n      mstore\n        /* \"#utility.yul\":19968:20099   */\n      tag_637\n        /* \"#utility.yul\":20094:20098   */\n      dup2\n        /* \"#utility.yul\":19968:20099   */\n      tag_382\n      jump\t// in\n    tag_637:\n        /* \"#utility.yul\":19960:20099   */\n      swap1\n      pop\n        /* \"#utility.yul\":19687:20106   */\n      swap2\n      swap1\n      pop\n      jump\t// out\n        /* \"#utility.yul\":20112:20292   */\n    tag_383:\n        /* \"#utility.yul\":20160:20237   */\n      0x4e487b7100000000000000000000000000000000000000000000000000000000\n        /* \"#utility.yul\":20157:20158   */\n      0x00\n        /* \"#utility.yul\":20150:20238   */\n      mstore\n        /* \"#utility.yul\":20257:20261   */\n      0x22\n        /* \"#utility.yul\":20254:20255   */\n      0x04\n        /* \"#utility.yul\":20247:20262   */\n      mstore\n        /* \"#utility.yul\":20281:20285   */\n      0x24\n        /* \"#utility.yul\":20278:20279   */\n      0x00\n        /* \"#utility.yul\":20271:20286   */\n      revert\n        /* \"#utility.yul\":20298:20618   */\n    tag_102:\n        /* \"#utility.yul\":20342:20348   */\n      0x00\n        /* \"#utility.yul\":20379:20380   */\n      0x02\n        /* \"#utility.yul\":20373:20377   */\n      dup3\n        /* \"#utility.yul\":20369:20381   */\n      div\n        /* \"#utility.yul\":20359:20381   */\n      swap1\n      pop\n        /* \"#utility.yul\":20426:20427   */\n      0x01\n        /* \"#utility.yul\":20420:20424   */\n      dup3\n        /* \"#utility.yul\":20416:20428   */\n      and\n        /* \"#utility.yul\":20447:20465   */\n      dup1\n        /* \"#utility.yul\":20437:20518   */\n      tag_640\n      jumpi\n        /* \"#utility.yul\":20503:20507   */\n      0x7f\n        /* \"#utility.yul\":20495:20501   */\n      dup3\n        /* \"#utility.yul\":20491:20508   */\n      and\n        /* \"#utility.yul\":20481:20508   */\n      swap2\n      pop\n        /* \"#utility.yul\":20437:20518   */\n    tag_640:\n        /* \"#utility.yul\":20565:20567   */\n      0x20\n        /* \"#utility.yul\":20557:20563   */\n      dup3\n        /* \"#utility.yul\":20554:20568   */\n      lt\n        /* \"#utility.yul\":20534:20552   */\n      dup2\n        /* \"#utility.yul\":20531:20569   */\n      eq\n        /* \"#utility.yul\":20528:20612   */\n      iszero\n      tag_641\n      jumpi\n        /* \"#utility.yul\":20584:20602   */\n      tag_642\n      tag_383\n      jump\t// in\n    tag_642:\n        /* \"#utility.yul\":20528:20612   */\n    tag_641:\n        /* \"#utility.yul\":20349:20618   */\n      pop\n        /* \"#utility.yul\":20298:20618   */\n      swap2\n      swap1\n      pop\n      jump\t// out\n        /* \"#utility.yul\":20624:20861   */\n    tag_384:\n        /* \"#utility.yul\":20764:20798   */\n      0x455243313135353a207472616e736665722063616c6c6572206973206e6f7420\n        /* \"#utility.yul\":20760:20761   */\n      0x00\n        /* \"#utility.yul\":20752:20758   */\n      dup3\n        /* \"#utility.yul\":20748:20762   */\n      add\n        /* \"#utility.yul\":20741:20799   */\n      mstore\n        /* \"#utility.yul\":20833:20853   */\n      0x6f776e6572206e6f7220617070726f7665640000000000000000000000000000\n        /* \"#utility.yul\":20828:20830   */\n      0x20\n        /* \"#utility.yul\":20820:20826   */\n      dup3\n        /* \"#utility.yul\":20816:20831   */\n      add\n        /* \"#utility.yul\":20809:20854   */\n      mstore\n        /* \"#utility.yul\":20624:20861   */\n      pop\n      jump\t// out\n        /* \"#utility.yul\":20867:21233   */\n    tag_385:\n        /* \"#utility.yul\":21009:21012   */\n      0x00\n        /* \"#utility.yul\":21030:21097   */\n      tag_645\n        /* \"#utility.yul\":21094:21096   */\n      0x32\n        /* \"#utility.yul\":21089:21092   */\n      dup4\n        /* \"#utility.yul\":21030:21097   */\n      tag_349\n      jump\t// in\n    tag_645:\n        /* \"#utility.yul\":21023:21097   */\n      swap2\n      pop\n        /* \"#utility.yul\":21106:21199   */\n      tag_646\n        /* \"#utility.yul\":21195:21198   */\n      dup3\n        /* \"#utility.yul\":21106:21199   */\n      tag_384\n      jump\t// in\n    tag_646:\n        /* \"#utility.yul\":21224:21226   */\n      0x40\n        /* \"#utility.yul\":21219:21222   */\n      dup3\n        /* \"#utility.yul\":21215:21227   */\n      add\n        /* \"#utility.yul\":21208:21227   */\n      swap1\n      pop\n        /* \"#utility.yul\":20867:21233   */\n      swap2\n      swap1\n      pop\n      jump\t// out\n        /* \"#utility.yul\":21239:21658   */\n    tag_115:\n        /* \"#utility.yul\":21405:21409   */\n      0x00\n        /* \"#utility.yul\":21443:21445   */\n      0x20\n        /* \"#utility.yul\":21432:21441   */\n      dup3\n        /* \"#utility.yul\":21428:21446   */\n      add\n        /* \"#utility.yul\":21420:21446   */\n      swap1\n      pop\n        /* \"#utility.yul\":21492:21501   */\n      dup2\n        /* \"#utility.yul\":21486:21490   */\n      dup2\n        /* \"#utility.yul\":21482:21502   */\n      sub\n        /* \"#utility.yul\":21478:21479   */\n      0x00\n        /* \"#utility.yul\":21467:21476   */\n      dup4\n        /* \"#utility.yul\":21463:21480   */\n      add\n        /* \"#utility.yul\":21456:21503   */\n      mstore\n        /* \"#utility.yul\":21520:21651   */\n      tag_648\n        /* \"#utility.yul\":21646:21650   */\n      dup2\n        /* \"#utility.yul\":21520:21651   */\n      tag_385\n      jump\t// in\n    tag_648:\n        /* \"#utility.yul\":21512:21651   */\n      swap1\n      pop\n        /* \"#utility.yul\":21239:21658   */\n      swap2\n      swap1\n      pop\n      jump\t// out\n        /* \"#utility.yul\":21664:21892   */\n    tag_386:\n        /* \"#utility.yul\":21804:21838   */\n      0x455243313135353a206163636f756e747320616e6420696473206c656e677468\n        /* \"#utility.yul\":21800:21801   */\n      0x00\n        /* \"#utility.yul\":21792:21798   */\n      dup3\n        /* \"#utility.yul\":21788:21802   */\n      add\n        /* \"#utility.yul\":21781:21839   */\n      mstore\n        /* \"#utility.yul\":21873:21884   */\n      0x206d69736d617463680000000000000000000000000000000000000000000000\n        /* \"#utility.yul\":21868:21870   */\n      0x20\n        /* \"#utility.yul\":21860:21866   */\n      dup3\n        /* \"#utility.yul\":21856:21871   */\n      add\n        /* \"#utility.yul\":21849:21885   */\n      mstore\n        /* \"#utility.yul\":21664:21892   */\n      pop\n      jump\t// out\n        /* \"#utility.yul\":21898:22264   */\n    tag_387:\n        /* \"#utility.yul\":22040:22043   */\n      0x00\n        /* \"#utility.yul\":22061:22128   */\n      tag_651\n        /* \"#utility.yul\":22125:22127   */\n      0x29\n        /* \"#utility.yul\":22120:22123   */\n      dup4\n        /* \"#utility.yul\":22061:22128   */\n      tag_349\n      jump\t// in\n    tag_651:\n        /* \"#utility.yul\":22054:22128   */\n      swap2\n      pop\n        /* \"#utility.yul\":22137:22230   */\n      tag_652\n        /* \"#utility.yul\":22226:22229   */\n      dup3\n        /* \"#utility.yul\":22137:22230   */\n      tag_386\n      jump\t// in\n    tag_652:\n        /* \"#utility.yul\":22255:22257   */\n      0x40\n        /* \"#utility.yul\":22250:22253   */\n      dup3\n        /* \"#utility.yul\":22246:22258   */\n      add\n        /* \"#utility.yul\":22239:22258   */\n      swap1\n      pop\n        /* \"#utility.yul\":21898:22264   */\n      swap2\n      swap1\n      pop\n      jump\t// out\n        /* \"#utility.yul\":22270:22689   */\n    tag_121:\n        /* \"#utility.yul\":22436:22440   */\n      0x00\n        /* \"#utility.yul\":22474:22476   */\n      0x20\n        /* \"#utility.yul\":22463:22472   */\n      dup3\n        /* \"#utility.yul\":22459:22477   */\n      add\n        /* \"#utility.yul\":22451:22477   */\n      swap1\n      pop\n        /* \"#utility.yul\":22523:22532   */\n      dup2\n        /* \"#utility.yul\":22517:22521   */\n      dup2\n        /* \"#utility.yul\":22513:22533   */\n      sub\n        /* \"#utility.yul\":22509:22510   */\n      0x00\n        /* \"#utility.yul\":22498:22507   */\n      dup4\n        /* \"#utility.yul\":22494:22511   */\n      add\n        /* \"#utility.yul\":22487:22534   */\n      mstore\n        /* \"#utility.yul\":22551:22682   */\n      tag_654\n        /* \"#utility.yul\":22677:22681   */\n      dup2\n        /* \"#utility.yul\":22551:22682   */\n      tag_387\n      jump\t// in\n    tag_654:\n        /* \"#utility.yul\":22543:22682   */\n      swap1\n      pop\n        /* \"#utility.yul\":22270:22689   */\n      swap2\n      swap1\n      pop\n      jump\t// out\n        /* \"#utility.yul\":22695:22875   */\n    tag_132:\n        /* \"#utility.yul\":22743:22820   */\n      0x4e487b7100000000000000000000000000000000000000000000000000000000\n        /* \"#utility.yul\":22740:22741   */\n      0x00\n        /* \"#utility.yul\":22733:22821   */\n      mstore\n        /* \"#utility.yul\":22840:22844   */\n      0x32\n        /* \"#utility.yul\":22837:22838   */\n      0x04\n        /* \"#utility.yul\":22830:22845   */\n      mstore\n        /* \"#utility.yul\":22864:22868   */\n      0x24\n        /* \"#utility.yul\":22861:22862   */\n      0x00\n        /* \"#utility.yul\":22854:22869   */\n      revert\n        /* \"#utility.yul\":22881:23061   */\n    tag_388:\n        /* \"#utility.yul\":22929:23006   */\n      0x4e487b7100000000000000000000000000000000000000000000000000000000\n        /* \"#utility.yul\":22926:22927   */\n      0x00\n        /* \"#utility.yul\":22919:23007   */\n      mstore\n        /* \"#utility.yul\":23026:23030   */\n      0x11\n        /* \"#utility.yul\":23023:23024   */\n      0x04\n        /* \"#utility.yul\":23016:23031   */\n      mstore\n        /* \"#utility.yul\":23050:23054   */\n      0x24\n        /* \"#utility.yul\":23047:23048   */\n      0x00\n        /* \"#utility.yul\":23040:23055   */\n      revert\n        /* \"#utility.yul\":23067:23300   */\n    tag_138:\n        /* \"#utility.yul\":23106:23109   */\n      0x00\n        /* \"#utility.yul\":23129:23153   */\n      tag_658\n        /* \"#utility.yul\":23147:23152   */\n      dup3\n        /* \"#utility.yul\":23129:23153   */\n      tag_339\n      jump\t// in\n    tag_658:\n        /* \"#utility.yul\":23120:23153   */\n      swap2\n      pop\n        /* \"#utility.yul\":23175:23241   */\n      0xffffffffffffffffffffffffffffffffffffffffffffffffffffffffffffffff\n        /* \"#utility.yul\":23168:23173   */\n      dup3\n        /* \"#utility.yul\":23165:23242   */\n      eq\n        /* \"#utility.yul\":23162:23265   */\n      iszero\n      tag_659\n      jumpi\n        /* \"#utility.yul\":23245:23263   */\n      tag_660\n      tag_388\n      jump\t// in\n    tag_660:\n        /* \"#utility.yul\":23162:23265   */\n    tag_659:\n        /* \"#utility.yul\":23292:23293   */\n      0x01\n        /* \"#utility.yul\":23285:23290   */\n      dup3\n        /* \"#utility.yul\":23281:23294   */\n      add\n        /* \"#utility.yul\":23274:23294   */\n      swap1\n      pop\n        /* \"#utility.yul\":23067:23300   */\n      swap2\n      swap1\n      pop\n      jump\t// out\n        /* \"#utility.yul\":23306:23488   */\n    tag_389:\n        /* \"#utility.yul\":23446:23480   */\n      0x4f776e61626c653a2063616c6c6572206973206e6f7420746865206f776e6572\n        /* \"#utility.yul\":23442:23443   */\n      0x00\n        /* \"#utility.yul\":23434:23440   */\n      dup3\n        /* \"#utility.yul\":23430:23444   */\n      add\n        /* \"#utility.yul\":23423:23481   */\n      mstore\n        /* \"#utility.yul\":23306:23488   */\n      pop\n      jump\t// out\n        /* \"#utility.yul\":23494:23860   */\n    tag_390:\n        /* \"#utility.yul\":23636:23639   */\n      0x00\n        /* \"#utility.yul\":23657:23724   */\n      tag_663\n        /* \"#utility.yul\":23721:23723   */\n      0x20\n        /* \"#utility.yul\":23716:23719   */\n      dup4\n        /* \"#utility.yul\":23657:23724   */\n      tag_349\n      jump\t// in\n    tag_663:\n        /* \"#utility.yul\":23650:23724   */\n      swap2\n      pop\n        /* \"#utility.yul\":23733:23826   */\n      tag_664\n        /* \"#utility.yul\":23822:23825   */\n      dup3\n        /* \"#utility.yul\":23733:23826   */\n      tag_389\n      jump\t// in\n    tag_664:\n        /* \"#utility.yul\":23851:23853   */\n      0x20\n        /* \"#utility.yul\":23846:23849   */\n      dup3\n        /* \"#utility.yul\":23842:23854   */\n      add\n        /* \"#utility.yul\":23835:23854   */\n      swap1\n      pop\n        /* \"#utility.yul\":23494:23860   */\n      swap2\n      swap1\n      pop\n      jump\t// out\n        /* \"#utility.yul\":23866:24285   */\n    tag_144:\n        /* \"#utility.yul\":24032:24036   */\n      0x00\n        /* \"#utility.yul\":24070:24072   */\n      0x20\n        /* \"#utility.yul\":24059:24068   */\n      dup3\n        /* \"#utility.yul\":24055:24073   */\n      add\n        /* \"#utility.yul\":24047:24073   */\n      swap1\n      pop\n        /* \"#utility.yul\":24119:24128   */\n      dup2\n        /* \"#utility.yul\":24113:24117   */\n      dup2\n        /* \"#utility.yul\":24109:24129   */\n      sub\n        /* \"#utility.yul\":24105:24106   */\n      0x00\n        /* \"#utility.yul\":24094:24103   */\n      dup4\n        /* \"#utility.yul\":24090:24107   */\n      add\n        /* \"#utility.yul\":24083:24130   */\n      mstore\n        /* \"#utility.yul\":24147:24278   */\n      tag_666\n        /* \"#utility.yul\":24273:24277   */\n      dup2\n        /* \"#utility.yul\":24147:24278   */\n      tag_390\n      jump\t// in\n    tag_666:\n        /* \"#utility.yul\":24139:24278   */\n      swap1\n      pop\n        /* \"#utility.yul\":23866:24285   */\n      swap2\n      swap1\n      pop\n      jump\t// out\n        /* \"#utility.yul\":24291:24596   */\n    tag_165:\n        /* \"#utility.yul\":24331:24334   */\n      0x00\n        /* \"#utility.yul\":24350:24370   */\n      tag_668\n        /* \"#utility.yul\":24368:24369   */\n      dup3\n        /* \"#utility.yul\":24350:24370   */\n      tag_339\n      jump\t// in\n    tag_668:\n        /* \"#utility.yul\":24345:24370   */\n      swap2\n      pop\n        /* \"#utility.yul\":24384:24404   */\n      tag_669\n        /* \"#utility.yul\":24402:24403   */\n      dup4\n        /* \"#utility.yul\":24384:24404   */\n      tag_339\n      jump\t// in\n    tag_669:\n        /* \"#utility.yul\":24379:24404   */\n      swap3\n      pop\n        /* \"#utility.yul\":24538:24539   */\n      dup3\n        /* \"#utility.yul\":24470:24536   */\n      0xffffffffffffffffffffffffffffffffffffffffffffffffffffffffffffffff\n        /* \"#utility.yul\":24466:24540   */\n      sub\n        /* \"#utility.yul\":24463:24464   */\n      dup3\n        /* \"#utility.yul\":24460:24541   */\n      gt\n        /* \"#utility.yul\":24457:24564   */\n      iszero\n      tag_670\n      jumpi\n        /* \"#utility.yul\":24544:24562   */\n      tag_671\n      tag_388\n      jump\t// in\n    tag_671:\n        /* \"#utility.yul\":24457:24564   */\n    tag_670:\n        /* \"#utility.yul\":24588:24589   */\n      dup3\n        /* \"#utility.yul\":24585:24586   */\n      dup3\n        /* \"#utility.yul\":24581:24590   */\n      add\n        /* \"#utility.yul\":24574:24590   */\n      swap1\n      pop\n        /* \"#utility.yul\":24291:24596   */\n      swap3\n      swap2\n      pop\n      pop\n      jump\t// out\n        /* \"#utility.yul\":24602:24830   */\n    tag_391:\n        /* \"#utility.yul\":24742:24776   */\n      0x455243313135353a2063616c6c6572206973206e6f74206f776e6572206e6f72\n        /* \"#utility.yul\":24738:24739   */\n      0x00\n        /* \"#utility.yul\":24730:24736   */\n      dup3\n        /* \"#utility.yul\":24726:24740   */\n      add\n        /* \"#utility.yul\":24719:24777   */\n      mstore\n        /* \"#utility.yul\":24811:24822   */\n      0x20617070726f7665640000000000000000000000000000000000000000000000\n        /* \"#utility.yul\":24806:24808   */\n      0x20\n        /* \"#utility.yul\":24798:24804   */\n      dup3\n        /* \"#utility.yul\":24794:24809   */\n      add\n        /* \"#utility.yul\":24787:24823   */\n      mstore\n        /* \"#utility.yul\":24602:24830   */\n      pop\n      jump\t// out\n        /* \"#utility.yul\":24836:25202   */\n    tag_392:\n        /* \"#utility.yul\":24978:24981   */\n      0x00\n        /* \"#utility.yul\":24999:25066   */\n      tag_674\n        /* \"#utility.yul\":25063:25065   */\n      0x29\n        /* \"#utility.yul\":25058:25061   */\n      dup4\n        /* \"#utility.yul\":24999:25066   */\n      tag_349\n      jump\t// in\n    tag_674:\n        /* \"#utility.yul\":24992:25066   */\n      swap2\n      pop\n        /* \"#utility.yul\":25075:25168   */\n      tag_675\n        /* \"#utility.yul\":25164:25167   */\n      dup3\n        /* \"#utility.yul\":25075:25168   */\n      tag_391\n      jump\t// in\n    tag_675:\n        /* \"#utility.yul\":25193:25195   */\n      0x40\n        /* \"#utility.yul\":25188:25191   */\n      dup3\n        /* \"#utility.yul\":25184:25196   */\n      add\n        /* \"#utility.yul\":25177:25196   */\n      swap1\n      pop\n        /* \"#utility.yul\":24836:25202   */\n      swap2\n      swap1\n      pop\n      jump\t// out\n        /* \"#utility.yul\":25208:25627   */\n    tag_184:\n        /* \"#utility.yul\":25374:25378   */\n      0x00\n        /* \"#utility.yul\":25412:25414   */\n      0x20\n        /* \"#utility.yul\":25401:25410   */\n      dup3\n        /* \"#utility.yul\":25397:25415   */\n      add\n        /* \"#utility.yul\":25389:25415   */\n      swap1\n      pop\n        /* \"#utility.yul\":25461:25470   */\n      dup2\n        /* \"#utility.yul\":25455:25459   */\n      dup2\n        /* \"#utility.yul\":25451:25471   */\n      sub\n        /* \"#utility.yul\":25447:25448   */\n      0x00\n        /* \"#utility.yul\":25436:25445   */\n      dup4\n        /* \"#utility.yul\":25432:25449   */\n      add\n        /* \"#utility.yul\":25425:25472   */\n      mstore\n        /* \"#utility.yul\":25489:25620   */\n      tag_677\n        /* \"#utility.yul\":25615:25619   */\n      dup2\n        /* \"#utility.yul\":25489:25620   */\n      tag_392\n      jump\t// in\n    tag_677:\n        /* \"#utility.yul\":25481:25620   */\n      swap1\n      pop\n        /* \"#utility.yul\":25208:25627   */\n      swap2\n      swap1\n      pop\n      jump\t// out\n        /* \"#utility.yul\":25633:25858   */\n    tag_393:\n        /* \"#utility.yul\":25773:25807   */\n      0x4f776e61626c653a206e6577206f776e657220697320746865207a65726f2061\n        /* \"#utility.yul\":25769:25770   */\n      0x00\n        /* \"#utility.yul\":25761:25767   */\n      dup3\n        /* \"#utility.yul\":25757:25771   */\n      add\n        /* \"#utility.yul\":25750:25808   */\n      mstore\n        /* \"#utility.yul\":25842:25850   */\n      0x6464726573730000000000000000000000000000000000000000000000000000\n        /* \"#utility.yul\":25837:25839   */\n      0x20\n        /* \"#utility.yul\":25829:25835   */\n      dup3\n        /* \"#utility.yul\":25825:25840   */\n      add\n        /* \"#utility.yul\":25818:25851   */\n      mstore\n        /* \"#utility.yul\":25633:25858   */\n      pop\n      jump\t// out\n        /* \"#utility.yul\":25864:26230   */\n    tag_394:\n        /* \"#utility.yul\":26006:26009   */\n      0x00\n        /* \"#utility.yul\":26027:26094   */\n      tag_680\n        /* \"#utility.yul\":26091:26093   */\n      0x26\n        /* \"#utility.yul\":26086:26089   */\n      dup4\n        /* \"#utility.yul\":26027:26094   */\n      tag_349\n      jump\t// in\n    tag_680:\n        /* \"#utility.yul\":26020:26094   */\n      swap2\n      pop\n        /* \"#utility.yul\":26103:26196   */\n      tag_681\n        /* \"#utility.yul\":26192:26195   */\n      dup3\n        /* \"#utility.yul\":26103:26196   */\n      tag_393\n      jump\t// in\n    tag_681:\n        /* \"#utility.yul\":26221:26223   */\n      0x40\n        /* \"#utility.yul\":26216:26219   */\n      dup3\n        /* \"#utility.yul\":26212:26224   */\n      add\n        /* \"#utility.yul\":26205:26224   */\n      swap1\n      pop\n        /* \"#utility.yul\":25864:26230   */\n      swap2\n      swap1\n      pop\n      jump\t// out\n        /* \"#utility.yul\":26236:26655   */\n    tag_195:\n        /* \"#utility.yul\":26402:26406   */\n      0x00\n        /* \"#utility.yul\":26440:26442   */\n      0x20\n        /* \"#utility.yul\":26429:26438   */\n      dup3\n        /* \"#utility.yul\":26425:26443   */\n      add\n        /* \"#utility.yul\":26417:26443   */\n      swap1\n      pop\n        /* \"#utility.yul\":26489:26498   */\n      dup2\n        /* \"#utility.yul\":26483:26487   */\n      dup2\n        /* \"#utility.yul\":26479:26499   */\n      sub\n        /* \"#utility.yul\":26475:26476   */\n      0x00\n        /* \"#utility.yul\":26464:26473   */\n      dup4\n        /* \"#utility.yul\":26460:26477   */\n      add\n        /* \"#utility.yul\":26453:26500   */\n      mstore\n        /* \"#utility.yul\":26517:26648   */\n      tag_683\n        /* \"#utility.yul\":26643:26647   */\n      dup2\n        /* \"#utility.yul\":26517:26648   */\n      tag_394\n      jump\t// in\n    tag_683:\n        /* \"#utility.yul\":26509:26648   */\n      swap1\n      pop\n        /* \"#utility.yul\":26236:26655   */\n      swap2\n      swap1\n      pop\n      jump\t// out\n        /* \"#utility.yul\":26661:26888   */\n    tag_395:\n        /* \"#utility.yul\":26801:26835   */\n      0x455243313135353a2069647320616e6420616d6f756e7473206c656e67746820\n        /* \"#utility.yul\":26797:26798   */\n      0x00\n        /* \"#utility.yul\":26789:26795   */\n      dup3\n        /* \"#utility.yul\":26785:26799   */\n      add\n        /* \"#utility.yul\":26778:26836   */\n      mstore\n        /* \"#utility.yul\":26870:26880   */\n      0x6d69736d61746368000000000000000000000000000000000000000000000000\n        /* \"#utility.yul\":26865:26867   */\n      0x20\n        /* \"#utility.yul\":26857:26863   */\n      dup3\n        /* \"#utility.yul\":26853:26868   */\n      add\n        /* \"#utility.yul\":26846:26881   */\n      mstore\n        /* \"#utility.yul\":26661:26888   */\n      pop\n      jump\t// out\n        /* \"#utility.yul\":26894:27260   */\n    tag_396:\n        /* \"#utility.yul\":27036:27039   */\n      0x00\n        /* \"#utility.yul\":27057:27124   */\n      tag_686\n        /* \"#utility.yul\":27121:27123   */\n      0x28\n        /* \"#utility.yul\":27116:27119   */\n      dup4\n        /* \"#utility.yul\":27057:27124   */\n      tag_349\n      jump\t// in\n    tag_686:\n        /* \"#utility.yul\":27050:27124   */\n      swap2\n      pop\n        /* \"#utility.yul\":27133:27226   */\n      tag_687\n        /* \"#utility.yul\":27222:27225   */\n      dup3\n        /* \"#utility.yul\":27133:27226   */\n      tag_395\n      jump\t// in\n    tag_687:\n        /* \"#utility.yul\":27251:27253   */\n      0x40\n        /* \"#utility.yul\":27246:27249   */\n      dup3\n        /* \"#utility.yul\":27242:27254   */\n      add\n        /* \"#utility.yul\":27235:27254   */\n      swap1\n      pop\n        /* \"#utility.yul\":26894:27260   */\n      swap2\n      swap1\n      pop\n      jump\t// out\n        /* \"#utility.yul\":27266:27685   */\n    tag_203:\n        /* \"#utility.yul\":27432:27436   */\n      0x00\n        /* \"#utility.yul\":27470:27472   */\n      0x20\n        /* \"#utility.yul\":27459:27468   */\n      dup3\n        /* \"#utility.yul\":27455:27473   */\n      add\n        /* \"#utility.yul\":27447:27473   */\n      swap1\n      pop\n        /* \"#utility.yul\":27519:27528   */\n      dup2\n        /* \"#utility.yul\":27513:27517   */\n      dup2\n        /* \"#utility.yul\":27509:27529   */\n      sub\n        /* \"#utility.yul\":27505:27506   */\n      0x00\n        /* \"#utility.yul\":27494:27503   */\n      dup4\n        /* \"#utility.yul\":27490:27507   */\n      add\n        /* \"#utility.yul\":27483:27530   */\n      mstore\n        /* \"#utility.yul\":27547:27678   */\n      tag_689\n        /* \"#utility.yul\":27673:27677   */\n      dup2\n        /* \"#utility.yul\":27547:27678   */\n      tag_396\n      jump\t// in\n    tag_689:\n        /* \"#utility.yul\":27539:27678   */\n      swap1\n      pop\n        /* \"#utility.yul\":27266:27685   */\n      swap2\n      swap1\n      pop\n      jump\t// out\n        /* \"#utility.yul\":27691:27915   */\n    tag_397:\n        /* \"#utility.yul\":27831:27865   */\n      0x455243313135353a207472616e7366657220746f20746865207a65726f206164\n        /* \"#utility.yul\":27827:27828   */\n      0x00\n        /* \"#utility.yul\":27819:27825   */\n      dup3\n        /* \"#utility.yul\":27815:27829   */\n      add\n        /* \"#utility.yul\":27808:27866   */\n      mstore\n        /* \"#utility.yul\":27900:27907   */\n      0x6472657373000000000000000000000000000000000000000000000000000000\n        /* \"#utility.yul\":27895:27897   */\n      0x20\n        /* \"#utility.yul\":27887:27893   */\n      dup3\n        /* \"#utility.yul\":27883:27898   */\n      add\n        /* \"#utility.yul\":27876:27908   */\n      mstore\n        /* \"#utility.yul\":27691:27915   */\n      pop\n      jump\t// out\n        /* \"#utility.yul\":27921:28287   */\n    tag_398:\n        /* \"#utility.yul\":28063:28066   */\n      0x00\n        /* \"#utility.yul\":28084:28151   */\n      tag_692\n        /* \"#utility.yul\":28148:28150   */\n      0x25\n        /* \"#utility.yul\":28143:28146   */\n      dup4\n        /* \"#utility.yul\":28084:28151   */\n      tag_349\n      jump\t// in\n    tag_692:\n        /* \"#utility.yul\":28077:28151   */\n      swap2\n      pop\n        /* \"#utility.yul\":28160:28253   */\n      tag_693\n        /* \"#utility.yul\":28249:28252   */\n      dup3\n        /* \"#utility.yul\":28160:28253   */\n      tag_397\n      jump\t// in\n    tag_693:\n        /* \"#utility.yul\":28278:28280   */\n      0x40\n        /* \"#utility.yul\":28273:28276   */\n      dup3\n        /* \"#utility.yul\":28269:28281   */\n      add\n        /* \"#utility.yul\":28262:28281   */\n      swap1\n      pop\n        /* \"#utility.yul\":27921:28287   */\n      swap2\n      swap1\n      pop\n      jump\t// out\n        /* \"#utility.yul\":28293:28712   */\n    tag_206:\n        /* \"#utility.yul\":28459:28463   */\n      0x00\n        /* \"#utility.yul\":28497:28499   */\n      0x20\n        /* \"#utility.yul\":28486:28495   */\n      dup3\n        /* \"#utility.yul\":28482:28500   */\n      add\n        /* \"#utility.yul\":28474:28500   */\n      swap1\n      pop\n        /* \"#utility.yul\":28546:28555   */\n      dup2\n        /* \"#utility.yul\":28540:28544   */\n      dup2\n        /* \"#utility.yul\":28536:28556   */\n      sub\n        /* \"#utility.yul\":28532:28533   */\n      0x00\n        /* \"#utility.yul\":28521:28530   */\n      dup4\n        /* \"#utility.yul\":28517:28534   */\n      add\n        /* \"#utility.yul\":28510:28557   */\n      mstore\n        /* \"#utility.yul\":28574:28705   */\n      tag_695\n        /* \"#utility.yul\":28700:28704   */\n      dup2\n        /* \"#utility.yul\":28574:28705   */\n      tag_398\n      jump\t// in\n    tag_695:\n        /* \"#utility.yul\":28566:28705   */\n      swap1\n      pop\n        /* \"#utility.yul\":28293:28712   */\n      swap2\n      swap1\n      pop\n      jump\t// out\n        /* \"#utility.yul\":28718:28947   */\n    tag_399:\n        /* \"#utility.yul\":28858:28892   */\n      0x455243313135353a20696e73756666696369656e742062616c616e636520666f\n        /* \"#utility.yul\":28854:28855   */\n      0x00\n        /* \"#utility.yul\":28846:28852   */\n      dup3\n        /* \"#utility.yul\":28842:28856   */\n      add\n        /* \"#utility.yul\":28835:28893   */\n      mstore\n        /* \"#utility.yul\":28927:28939   */\n      0x72207472616e7366657200000000000000000000000000000000000000000000\n        /* \"#utility.yul\":28922:28924   */\n      0x20\n        /* \"#utility.yul\":28914:28920   */\n      dup3\n        /* \"#utility.yul\":28910:28925   */\n      add\n        /* \"#utility.yul\":28903:28940   */\n      mstore\n        /* \"#utility.yul\":28718:28947   */\n      pop\n      jump\t// out\n        /* \"#utility.yul\":28953:29319   */\n    tag_400:\n        /* \"#utility.yul\":29095:29098   */\n      0x00\n        /* \"#utility.yul\":29116:29183   */\n      tag_698\n        /* \"#utility.yul\":29180:29182   */\n      0x2a\n        /* \"#utility.yul\":29175:29178   */\n      dup4\n        /* \"#utility.yul\":29116:29183   */\n      tag_349\n      jump\t// in\n    tag_698:\n        /* \"#utility.yul\":29109:29183   */\n      swap2\n      pop\n        /* \"#utility.yul\":29192:29285   */\n      tag_699\n        /* \"#utility.yul\":29281:29284   */\n      dup3\n        /* \"#utility.yul\":29192:29285   */\n      tag_399\n      jump\t// in\n    tag_699:\n        /* \"#utility.yul\":29310:29312   */\n      0x40\n        /* \"#utility.yul\":29305:29308   */\n      dup3\n        /* \"#utility.yul\":29301:29313   */\n      add\n        /* \"#utility.yul\":29294:29313   */\n      swap1\n      pop\n        /* \"#utility.yul\":28953:29319   */\n      swap2\n      swap1\n      pop\n      jump\t// out\n        /* \"#utility.yul\":29325:29744   */\n    tag_219:\n        /* \"#utility.yul\":29491:29495   */\n      0x00\n        /* \"#utility.yul\":29529:29531   */\n      0x20\n        /* \"#utility.yul\":29518:29527   */\n      dup3\n        /* \"#utility.yul\":29514:29532   */\n      add\n        /* \"#utility.yul\":29506:29532   */\n      swap1\n      pop\n        /* \"#utility.yul\":29578:29587   */\n      dup2\n        /* \"#utility.yul\":29572:29576   */\n      dup2\n        /* \"#utility.yul\":29568:29588   */\n      sub\n        /* \"#utility.yul\":29564:29565   */\n      0x00\n        /* \"#utility.yul\":29553:29562   */\n      dup4\n        /* \"#utility.yul\":29549:29566   */\n      add\n        /* \"#utility.yul\":29542:29589   */\n      mstore\n        /* \"#utility.yul\":29606:29737   */\n      tag_701\n        /* \"#utility.yul\":29732:29736   */\n      dup2\n        /* \"#utility.yul\":29606:29737   */\n      tag_400\n      jump\t// in\n    tag_701:\n        /* \"#utility.yul\":29598:29737   */\n      swap1\n      pop\n        /* \"#utility.yul\":29325:29744   */\n      swap2\n      swap1\n      pop\n      jump\t// out\n        /* \"#utility.yul\":29750:30384   */\n    tag_223:\n        /* \"#utility.yul\":29971:29975   */\n      0x00\n        /* \"#utility.yul\":30009:30011   */\n      0x40\n        /* \"#utility.yul\":29998:30007   */\n      dup3\n        /* \"#utility.yul\":29994:30012   */\n      add\n        /* \"#utility.yul\":29986:30012   */\n      swap1\n      pop\n        /* \"#utility.yul\":30058:30067   */\n      dup2\n        /* \"#utility.yul\":30052:30056   */\n      dup2\n        /* \"#utility.yul\":30048:30068   */\n      sub\n        /* \"#utility.yul\":30044:30045   */\n      0x00\n        /* \"#utility.yul\":30033:30042   */\n      dup4\n        /* \"#utility.yul\":30029:30046   */\n      add\n        /* \"#utility.yul\":30022:30069   */\n      mstore\n        /* \"#utility.yul\":30086:30194   */\n      tag_703\n        /* \"#utility.yul\":30189:30193   */\n      dup2\n        /* \"#utility.yul\":30180:30186   */\n      dup6\n        /* \"#utility.yul\":30086:30194   */\n      tag_374\n      jump\t// in\n    tag_703:\n        /* \"#utility.yul\":30078:30194   */\n      swap1\n      pop\n        /* \"#utility.yul\":30241:30250   */\n      dup2\n        /* \"#utility.yul\":30235:30239   */\n      dup2\n        /* \"#utility.yul\":30231:30251   */\n      sub\n        /* \"#utility.yul\":30226:30228   */\n      0x20\n        /* \"#utility.yul\":30215:30224   */\n      dup4\n        /* \"#utility.yul\":30211:30229   */\n      add\n        /* \"#utility.yul\":30204:30252   */\n      mstore\n        /* \"#utility.yul\":30269:30377   */\n      tag_704\n        /* \"#utility.yul\":30372:30376   */\n      dup2\n        /* \"#utility.yul\":30363:30369   */\n      dup5\n        /* \"#utility.yul\":30269:30377   */\n      tag_374\n      jump\t// in\n    tag_704:\n        /* \"#utility.yul\":30261:30377   */\n      swap1\n      pop\n        /* \"#utility.yul\":29750:30384   */\n      swap4\n      swap3\n      pop\n      pop\n      pop\n      jump\t// out\n        /* \"#utility.yul\":30390:30612   */\n    tag_401:\n        /* \"#utility.yul\":30530:30564   */\n      0x455243313135353a206275726e2066726f6d20746865207a65726f2061646472\n        /* \"#utility.yul\":30526:30527   */\n      0x00\n        /* \"#utility.yul\":30518:30524   */\n      dup3\n        /* \"#utility.yul\":30514:30528   */\n      add\n        /* \"#utility.yul\":30507:30565   */\n      mstore\n        /* \"#utility.yul\":30599:30604   */\n      0x6573730000000000000000000000000000000000000000000000000000000000\n        /* \"#utility.yul\":30594:30596   */\n      0x20\n        /* \"#utility.yul\":30586:30592   */\n      dup3\n        /* \"#utility.yul\":30582:30597   */\n      add\n        /* \"#utility.yul\":30575:30605   */\n      mstore\n        /* \"#utility.yul\":30390:30612   */\n      pop\n      jump\t// out\n        /* \"#utility.yul\":30618:30984   */\n    tag_402:\n        /* \"#utility.yul\":30760:30763   */\n      0x00\n        /* \"#utility.yul\":30781:30848   */\n      tag_707\n        /* \"#utility.yul\":30845:30847   */\n      0x23\n        /* \"#utility.yul\":30840:30843   */\n      dup4\n        /* \"#utility.yul\":30781:30848   */\n      tag_349\n      jump\t// in\n    tag_707:\n        /* \"#utility.yul\":30774:30848   */\n      swap2\n      pop\n        /* \"#utility.yul\":30857:30950   */\n      tag_708\n        /* \"#utility.yul\":30946:30949   */\n      dup3\n        /* \"#utility.yul\":30857:30950   */\n      tag_401\n      jump\t// in\n    tag_708:\n        /* \"#utility.yul\":30975:30977   */\n      0x40\n        /* \"#utility.yul\":30970:30973   */\n      dup3\n        /* \"#utility.yul\":30966:30978   */\n      add\n        /* \"#utility.yul\":30959:30978   */\n      swap1\n      pop\n        /* \"#utility.yul\":30618:30984   */\n      swap2\n      swap1\n      pop\n      jump\t// out\n        /* \"#utility.yul\":30990:31409   */\n    tag_230:\n        /* \"#utility.yul\":31156:31160   */\n      0x00\n        /* \"#utility.yul\":31194:31196   */\n      0x20\n        /* \"#utility.yul\":31183:31192   */\n      dup3\n        /* \"#utility.yul\":31179:31197   */\n      add\n        /* \"#utility.yul\":31171:31197   */\n      swap1\n      pop\n        /* \"#utility.yul\":31243:31252   */\n      dup2\n        /* \"#utility.yul\":31237:31241   */\n      dup2\n        /* \"#utility.yul\":31233:31253   */\n      sub\n        /* \"#utility.yul\":31229:31230   */\n      0x00\n        /* \"#utility.yul\":31218:31227   */\n      dup4\n        /* \"#utility.yul\":31214:31231   */\n      add\n        /* \"#utility.yul\":31207:31254   */\n      mstore\n        /* \"#utility.yul\":31271:31402   */\n      tag_710\n        /* \"#utility.yul\":31397:31401   */\n      dup2\n        /* \"#utility.yul\":31271:31402   */\n      tag_402\n      jump\t// in\n    tag_710:\n        /* \"#utility.yul\":31263:31402   */\n      swap1\n      pop\n        /* \"#utility.yul\":30990:31409   */\n      swap2\n      swap1\n      pop\n      jump\t// out\n        /* \"#utility.yul\":31415:31638   */\n    tag_403:\n        /* \"#utility.yul\":31555:31589   */\n      0x455243313135353a206275726e20616d6f756e7420657863656564732062616c\n        /* \"#utility.yul\":31551:31552   */\n      0x00\n        /* \"#utility.yul\":31543:31549   */\n      dup3\n        /* \"#utility.yul\":31539:31553   */\n      add\n        /* \"#utility.yul\":31532:31590   */\n      mstore\n        /* \"#utility.yul\":31624:31630   */\n      0x616e636500000000000000000000000000000000000000000000000000000000\n        /* \"#utility.yul\":31619:31621   */\n      0x20\n        /* \"#utility.yul\":31611:31617   */\n      dup3\n        /* \"#utility.yul\":31607:31622   */\n      add\n        /* \"#utility.yul\":31600:31631   */\n      mstore\n        /* \"#utility.yul\":31415:31638   */\n      pop\n      jump\t// out\n        /* \"#utility.yul\":31644:32010   */\n    tag_404:\n        /* \"#utility.yul\":31786:31789   */\n      0x00\n        /* \"#utility.yul\":31807:31874   */\n      tag_713\n        /* \"#utility.yul\":31871:31873   */\n      0x24\n        /* \"#utility.yul\":31866:31869   */\n      dup4\n        /* \"#utility.yul\":31807:31874   */\n      tag_349\n      jump\t// in\n    tag_713:\n        /* \"#utility.yul\":31800:31874   */\n      swap2\n      pop\n        /* \"#utility.yul\":31883:31976   */\n      tag_714\n        /* \"#utility.yul\":31972:31975   */\n      dup3\n        /* \"#utility.yul\":31883:31976   */\n      tag_403\n      jump\t// in\n    tag_714:\n        /* \"#utility.yul\":32001:32003   */\n      0x40\n        /* \"#utility.yul\":31996:31999   */\n      dup3\n        /* \"#utility.yul\":31992:32004   */\n      add\n        /* \"#utility.yul\":31985:32004   */\n      swap1\n      pop\n        /* \"#utility.yul\":31644:32010   */\n      swap2\n      swap1\n      pop\n      jump\t// out\n        /* \"#utility.yul\":32016:32435   */\n    tag_238:\n        /* \"#utility.yul\":32182:32186   */\n      0x00\n        /* \"#utility.yul\":32220:32222   */\n      0x20\n        /* \"#utility.yul\":32209:32218   */\n      dup3\n        /* \"#utility.yul\":32205:32223   */\n      add\n        /* \"#utility.yul\":32197:32223   */\n      swap1\n      pop\n        /* \"#utility.yul\":32269:32278   */\n      dup2\n        /* \"#utility.yul\":32263:32267   */\n      dup2\n        /* \"#utility.yul\":32259:32279   */\n      sub\n        /* \"#utility.yul\":32255:32256   */\n      0x00\n        /* \"#utility.yul\":32244:32253   */\n      dup4\n        /* \"#utility.yul\":32240:32257   */\n      add\n        /* \"#utility.yul\":32233:32280   */\n      mstore\n        /* \"#utility.yul\":32297:32428   */\n      tag_716\n        /* \"#utility.yul\":32423:32427   */\n      dup2\n        /* \"#utility.yul\":32297:32428   */\n      tag_404\n      jump\t// in\n    tag_716:\n        /* \"#utility.yul\":32289:32428   */\n      swap1\n      pop\n        /* \"#utility.yul\":32016:32435   */\n      swap2\n      swap1\n      pop\n      jump\t// out\n        /* \"#utility.yul\":32441:32773   */\n    tag_240:\n        /* \"#utility.yul\":32562:32566   */\n      0x00\n        /* \"#utility.yul\":32600:32602   */\n      0x40\n        /* \"#utility.yul\":32589:32598   */\n      dup3\n        /* \"#utility.yul\":32585:32603   */\n      add\n        /* \"#utility.yul\":32577:32603   */\n      swap1\n      pop\n        /* \"#utility.yul\":32613:32684   */\n      tag_718\n        /* \"#utility.yul\":32681:32682   */\n      0x00\n        /* \"#utility.yul\":32670:32679   */\n      dup4\n        /* \"#utility.yul\":32666:32683   */\n      add\n        /* \"#utility.yul\":32657:32663   */\n      dup6\n        /* \"#utility.yul\":32613:32684   */\n      tag_342\n      jump\t// in\n    tag_718:\n        /* \"#utility.yul\":32694:32766   */\n      tag_719\n        /* \"#utility.yul\":32762:32764   */\n      0x20\n        /* \"#utility.yul\":32751:32760   */\n      dup4\n        /* \"#utility.yul\":32747:32765   */\n      add\n        /* \"#utility.yul\":32738:32744   */\n      dup5\n        /* \"#utility.yul\":32694:32766   */\n      tag_342\n      jump\t// in\n    tag_719:\n        /* \"#utility.yul\":32441:32773   */\n      swap4\n      swap3\n      pop\n      pop\n      pop\n      jump\t// out\n        /* \"#utility.yul\":32779:33007   */\n    tag_405:\n        /* \"#utility.yul\":32919:32953   */\n      0x455243313135353a2073657474696e6720617070726f76616c20737461747573\n        /* \"#utility.yul\":32915:32916   */\n      0x00\n        /* \"#utility.yul\":32907:32913   */\n      dup3\n        /* \"#utility.yul\":32903:32917   */\n      add\n        /* \"#utility.yul\":32896:32954   */\n      mstore\n        /* \"#utility.yul\":32988:32999   */\n      0x20666f722073656c660000000000000000000000000000000000000000000000\n        /* \"#utility.yul\":32983:32985   */\n      0x20\n        /* \"#utility.yul\":32975:32981   */\n      dup3\n        /* \"#utility.yul\":32971:32986   */\n      add\n        /* \"#utility.yul\":32964:33000   */\n      mstore\n        /* \"#utility.yul\":32779:33007   */\n      pop\n      jump\t// out\n        /* \"#utility.yul\":33013:33379   */\n    tag_406:\n        /* \"#utility.yul\":33155:33158   */\n      0x00\n        /* \"#utility.yul\":33176:33243   */\n      tag_722\n        /* \"#utility.yul\":33240:33242   */\n      0x29\n        /* \"#utility.yul\":33235:33238   */\n      dup4\n        /* \"#utility.yul\":33176:33243   */\n      tag_349\n      jump\t// in\n    tag_722:\n        /* \"#utility.yul\":33169:33243   */\n      swap2\n      pop\n        /* \"#utility.yul\":33252:33345   */\n      tag_723\n        /* \"#utility.yul\":33341:33344   */\n      dup3\n        /* \"#utility.yul\":33252:33345   */\n      tag_405\n      jump\t// in\n    tag_723:\n        /* \"#utility.yul\":33370:33372   */\n      0x40\n        /* \"#utility.yul\":33365:33368   */\n      dup3\n        /* \"#utility.yul\":33361:33373   */\n      add\n        /* \"#utility.yul\":33354:33373   */\n      swap1\n      pop\n        /* \"#utility.yul\":33013:33379   */\n      swap2\n      swap1\n      pop\n      jump\t// out\n        /* \"#utility.yul\":33385:33804   */\n    tag_244:\n        /* \"#utility.yul\":33551:33555   */\n      0x00\n        /* \"#utility.yul\":33589:33591   */\n      0x20\n        /* \"#utility.yul\":33578:33587   */\n      dup3\n        /* \"#utility.yul\":33574:33592   */\n      add\n        /* \"#utility.yul\":33566:33592   */\n      swap1\n      pop\n        /* \"#utility.yul\":33638:33647   */\n      dup2\n        /* \"#utility.yul\":33632:33636   */\n      dup2\n        /* \"#utility.yul\":33628:33648   */\n      sub\n        /* \"#utility.yul\":33624:33625   */\n      0x00\n        /* \"#utility.yul\":33613:33622   */\n      dup4\n        /* \"#utility.yul\":33609:33626   */\n      add\n        /* \"#utility.yul\":33602:33649   */\n      mstore\n        /* \"#utility.yul\":33666:33797   */\n      tag_725\n        /* \"#utility.yul\":33792:33796   */\n      dup2\n        /* \"#utility.yul\":33666:33797   */\n      tag_406\n      jump\t// in\n    tag_725:\n        /* \"#utility.yul\":33658:33797   */\n      swap1\n      pop\n        /* \"#utility.yul\":33385:33804   */\n      swap2\n      swap1\n      pop\n      jump\t// out\n        /* \"#utility.yul\":33810:34030   */\n    tag_407:\n        /* \"#utility.yul\":33950:33984   */\n      0x455243313135353a206d696e7420746f20746865207a65726f20616464726573\n        /* \"#utility.yul\":33946:33947   */\n      0x00\n        /* \"#utility.yul\":33938:33944   */\n      dup3\n        /* \"#utility.yul\":33934:33948   */\n      add\n        /* \"#utility.yul\":33927:33985   */\n      mstore\n        /* \"#utility.yul\":34019:34022   */\n      0x7300000000000000000000000000000000000000000000000000000000000000\n        /* \"#utility.yul\":34014:34016   */\n      0x20\n        /* \"#utility.yul\":34006:34012   */\n      dup3\n        /* \"#utility.yul\":34002:34017   */\n      add\n        /* \"#utility.yul\":33995:34023   */\n      mstore\n        /* \"#utility.yul\":33810:34030   */\n      pop\n      jump\t// out\n        /* \"#utility.yul\":34036:34402   */\n    tag_408:\n        /* \"#utility.yul\":34178:34181   */\n      0x00\n        /* \"#utility.yul\":34199:34266   */\n      tag_728\n        /* \"#utility.yul\":34263:34265   */\n      0x21\n        /* \"#utility.yul\":34258:34261   */\n      dup4\n        /* \"#utility.yul\":34199:34266   */\n      tag_349\n      jump\t// in\n    tag_728:\n        /* \"#utility.yul\":34192:34266   */\n      swap2\n      pop\n        /* \"#utility.yul\":34275:34368   */\n      tag_729\n        /* \"#utility.yul\":34364:34367   */\n      dup3\n        /* \"#utility.yul\":34275:34368   */\n      tag_407\n      jump\t// in\n    tag_729:\n        /* \"#utility.yul\":34393:34395   */\n      0x40\n        /* \"#utility.yul\":34388:34391   */\n      dup3\n        /* \"#utility.yul\":34384:34396   */\n      add\n        /* \"#utility.yul\":34377:34396   */\n      swap1\n      pop\n        /* \"#utility.yul\":34036:34402   */\n      swap2\n      swap1\n      pop\n      jump\t// out\n        /* \"#utility.yul\":34408:34827   */\n    tag_249:\n        /* \"#utility.yul\":34574:34578   */\n      0x00\n        /* \"#utility.yul\":34612:34614   */\n      0x20\n        /* \"#utility.yul\":34601:34610   */\n      dup3\n        /* \"#utility.yul\":34597:34615   */\n      add\n        /* \"#utility.yul\":34589:34615   */\n      swap1\n      pop\n        /* \"#utility.yul\":34661:34670   */\n      dup2\n        /* \"#utility.yul\":34655:34659   */\n      dup2\n        /* \"#utility.yul\":34651:34671   */\n      sub\n        /* \"#utility.yul\":34647:34648   */\n      0x00\n        /* \"#utility.yul\":34636:34645   */\n      dup4\n        /* \"#utility.yul\":34632:34649   */\n      add\n        /* \"#utility.yul\":34625:34672   */\n      mstore\n        /* \"#utility.yul\":34689:34820   */\n      tag_731\n        /* \"#utility.yul\":34815:34819   */\n      dup2\n        /* \"#utility.yul\":34689:34820   */\n      tag_408\n      jump\t// in\n    tag_731:\n        /* \"#utility.yul\":34681:34820   */\n      swap1\n      pop\n        /* \"#utility.yul\":34408:34827   */\n      swap2\n      swap1\n      pop\n      jump\t// out\n        /* \"#utility.yul\":34833:34931   */\n    tag_409:\n        /* \"#utility.yul\":34884:34890   */\n      0x00\n        /* \"#utility.yul\":34918:34923   */\n      dup2\n        /* \"#utility.yul\":34912:34924   */\n      mload\n        /* \"#utility.yul\":34902:34924   */\n      swap1\n      pop\n        /* \"#utility.yul\":34833:34931   */\n      swap2\n      swap1\n      pop\n      jump\t// out\n        /* \"#utility.yul\":34937:35105   */\n    tag_410:\n        /* \"#utility.yul\":35020:35031   */\n      0x00\n        /* \"#utility.yul\":35054:35060   */\n      dup3\n        /* \"#utility.yul\":35049:35052   */\n      dup3\n        /* \"#utility.yul\":35042:35061   */\n      mstore\n        /* \"#utility.yul\":35094:35098   */\n      0x20\n        /* \"#utility.yul\":35089:35092   */\n      dup3\n        /* \"#utility.yul\":35085:35099   */\n      add\n        /* \"#utility.yul\":35070:35099   */\n      swap1\n      pop\n        /* \"#utility.yul\":34937:35105   */\n      swap3\n      swap2\n      pop\n      pop\n      jump\t// out\n        /* \"#utility.yul\":35111:35471   */\n    tag_411:\n        /* \"#utility.yul\":35197:35200   */\n      0x00\n        /* \"#utility.yul\":35225:35263   */\n      tag_735\n        /* \"#utility.yul\":35257:35262   */\n      dup3\n        /* \"#utility.yul\":35225:35263   */\n      tag_409\n      jump\t// in\n    tag_735:\n        /* \"#utility.yul\":35279:35349   */\n      tag_736\n        /* \"#utility.yul\":35342:35348   */\n      dup2\n        /* \"#utility.yul\":35337:35340   */\n      dup6\n        /* \"#utility.yul\":35279:35349   */\n      tag_410\n      jump\t// in\n    tag_736:\n        /* \"#utility.yul\":35272:35349   */\n      swap4\n      pop\n        /* \"#utility.yul\":35358:35410   */\n      tag_737\n        /* \"#utility.yul\":35403:35409   */\n      dup2\n        /* \"#utility.yul\":35398:35401   */\n      dup6\n        /* \"#utility.yul\":35391:35395   */\n      0x20\n        /* \"#utility.yul\":35384:35389   */\n      dup7\n        /* \"#utility.yul\":35380:35396   */\n      add\n        /* \"#utility.yul\":35358:35410   */\n      tag_350\n      jump\t// in\n    tag_737:\n        /* \"#utility.yul\":35435:35464   */\n      tag_738\n        /* \"#utility.yul\":35457:35463   */\n      dup2\n        /* \"#utility.yul\":35435:35464   */\n      tag_351\n      jump\t// in\n    tag_738:\n        /* \"#utility.yul\":35430:35433   */\n      dup5\n        /* \"#utility.yul\":35426:35465   */\n      add\n        /* \"#utility.yul\":35419:35465   */\n      swap2\n      pop\n        /* \"#utility.yul\":35201:35471   */\n      pop\n        /* \"#utility.yul\":35111:35471   */\n      swap3\n      swap2\n      pop\n      pop\n      jump\t// out\n        /* \"#utility.yul\":35477:36530   */\n    tag_277:\n        /* \"#utility.yul\":35800:35804   */\n      0x00\n        /* \"#utility.yul\":35838:35841   */\n      0xa0\n        /* \"#utility.yul\":35827:35836   */\n      dup3\n        /* \"#utility.yul\":35823:35842   */\n      add\n        /* \"#utility.yul\":35815:35842   */\n      swap1\n      pop\n        /* \"#utility.yul\":35852:35923   */\n      tag_740\n        /* \"#utility.yul\":35920:35921   */\n      0x00\n        /* \"#utility.yul\":35909:35918   */\n      dup4\n        /* \"#utility.yul\":35905:35922   */\n      add\n        /* \"#utility.yul\":35896:35902   */\n      dup9\n        /* \"#utility.yul\":35852:35923   */\n      tag_375\n      jump\t// in\n    tag_740:\n        /* \"#utility.yul\":35933:36005   */\n      tag_741\n        /* \"#utility.yul\":36001:36003   */\n      0x20\n        /* \"#utility.yul\":35990:35999   */\n      dup4\n        /* \"#utility.yul\":35986:36004   */\n      add\n        /* \"#utility.yul\":35977:35983   */\n      dup8\n        /* \"#utility.yul\":35933:36005   */\n      tag_375\n      jump\t// in\n    tag_741:\n        /* \"#utility.yul\":36052:36061   */\n      dup2\n        /* \"#utility.yul\":36046:36050   */\n      dup2\n        /* \"#utility.yul\":36042:36062   */\n      sub\n        /* \"#utility.yul\":36037:36039   */\n      0x40\n        /* \"#utility.yul\":36026:36035   */\n      dup4\n        /* \"#utility.yul\":36022:36040   */\n      add\n        /* \"#utility.yul\":36015:36063   */\n      mstore\n        /* \"#utility.yul\":36080:36188   */\n      tag_742\n        /* \"#utility.yul\":36183:36187   */\n      dup2\n        /* \"#utility.yul\":36174:36180   */\n      dup7\n        /* \"#utility.yul\":36080:36188   */\n      tag_374\n      jump\t// in\n    tag_742:\n        /* \"#utility.yul\":36072:36188   */\n      swap1\n      pop\n        /* \"#utility.yul\":36235:36244   */\n      dup2\n        /* \"#utility.yul\":36229:36233   */\n      dup2\n        /* \"#utility.yul\":36225:36245   */\n      sub\n        /* \"#utility.yul\":36220:36222   */\n      0x60\n        /* \"#utility.yul\":36209:36218   */\n      dup4\n        /* \"#utility.yul\":36205:36223   */\n      add\n        /* \"#utility.yul\":36198:36246   */\n      mstore\n        /* \"#utility.yul\":36263:36371   */\n      tag_743\n        /* \"#utility.yul\":36366:36370   */\n      dup2\n        /* \"#utility.yul\":36357:36363   */\n      dup6\n        /* \"#utility.yul\":36263:36371   */\n      tag_374\n      jump\t// in\n    tag_743:\n        /* \"#utility.yul\":36255:36371   */\n      swap1\n      pop\n        /* \"#utility.yul\":36419:36428   */\n      dup2\n        /* \"#utility.yul\":36413:36417   */\n      dup2\n        /* \"#utility.yul\":36409:36429   */\n      sub\n        /* \"#utility.yul\":36403:36406   */\n      0x80\n        /* \"#utility.yul\":36392:36401   */\n      dup4\n        /* \"#utility.yul\":36388:36407   */\n      add\n        /* \"#utility.yul\":36381:36430   */\n      mstore\n        /* \"#utility.yul\":36447:36523   */\n      tag_744\n        /* \"#utility.yul\":36518:36522   */\n      dup2\n        /* \"#utility.yul\":36509:36515   */\n      dup5\n        /* \"#utility.yul\":36447:36523   */\n      tag_411\n      jump\t// in\n    tag_744:\n        /* \"#utility.yul\":36439:36523   */\n      swap1\n      pop\n        /* \"#utility.yul\":35477:36530   */\n      swap7\n      swap6\n      pop\n      pop\n      pop\n      pop\n      pop\n      pop\n      jump\t// out\n        /* \"#utility.yul\":36536:36677   */\n    tag_412:\n        /* \"#utility.yul\":36592:36597   */\n      0x00\n        /* \"#utility.yul\":36623:36629   */\n      dup2\n        /* \"#utility.yul\":36617:36630   */\n      mload\n        /* \"#utility.yul\":36608:36630   */\n      swap1\n      pop\n        /* \"#utility.yul\":36639:36671   */\n      tag_746\n        /* \"#utility.yul\":36665:36670   */\n      dup2\n        /* \"#utility.yul\":36639:36671   */\n      tag_344\n      jump\t// in\n    tag_746:\n        /* \"#utility.yul\":36536:36677   */\n      swap3\n      swap2\n      pop\n      pop\n      jump\t// out\n        /* \"#utility.yul\":36683:37032   */\n    tag_280:\n        /* \"#utility.yul\":36752:36758   */\n      0x00\n        /* \"#utility.yul\":36801:36803   */\n      0x20\n        /* \"#utility.yul\":36789:36798   */\n      dup3\n        /* \"#utility.yul\":36780:36787   */\n      dup5\n        /* \"#utility.yul\":36776:36799   */\n      sub\n        /* \"#utility.yul\":36772:36804   */\n      slt\n        /* \"#utility.yul\":36769:36888   */\n      iszero\n      tag_748\n      jumpi\n        /* \"#utility.yul\":36807:36886   */\n      tag_749\n      tag_333\n      jump\t// in\n    tag_749:\n        /* \"#utility.yul\":36769:36888   */\n    tag_748:\n        /* \"#utility.yul\":36927:36928   */\n      0x00\n        /* \"#utility.yul\":36952:37015   */\n      tag_750\n        /* \"#utility.yul\":37007:37014   */\n      dup5\n        /* \"#utility.yul\":36998:37004   */\n      dup3\n        /* \"#utility.yul\":36987:36996   */\n      dup6\n        /* \"#utility.yul\":36983:37005   */\n      add\n        /* \"#utility.yul\":36952:37015   */\n      tag_412\n      jump\t// in\n    tag_750:\n        /* \"#utility.yul\":36942:37015   */\n      swap2\n      pop\n        /* \"#utility.yul\":36898:37025   */\n      pop\n        /* \"#utility.yul\":36683:37032   */\n      swap3\n      swap2\n      pop\n      pop\n      jump\t// out\n        /* \"#utility.yul\":37038:37144   */\n    tag_413:\n        /* \"#utility.yul\":37082:37090   */\n      0x00\n        /* \"#utility.yul\":37131:37136   */\n      dup2\n        /* \"#utility.yul\":37126:37129   */\n      0xe0\n        /* \"#utility.yul\":37122:37137   */\n      shr\n        /* \"#utility.yul\":37101:37137   */\n      swap1\n      pop\n        /* \"#utility.yul\":37038:37144   */\n      swap2\n      swap1\n      pop\n      jump\t// out\n        /* \"#utility.yul\":37150:37333   */\n    tag_286:\n        /* \"#utility.yul\":37185:37188   */\n      0x00\n        /* \"#utility.yul\":37223:37224   */\n      0x03\n        /* \"#utility.yul\":37205:37221   */\n      returndatasize\n        /* \"#utility.yul\":37202:37225   */\n      gt\n        /* \"#utility.yul\":37199:37327   */\n      iszero\n      tag_753\n      jumpi\n        /* \"#utility.yul\":37261:37262   */\n      0x04\n        /* \"#utility.yul\":37258:37259   */\n      0x00\n        /* \"#utility.yul\":37255:37256   */\n      dup1\n        /* \"#utility.yul\":37240:37263   */\n      returndatacopy\n        /* \"#utility.yul\":37283:37317   */\n      tag_754\n        /* \"#utility.yul\":37314:37315   */\n      0x00\n        /* \"#utility.yul\":37308:37316   */\n      mload\n        /* \"#utility.yul\":37283:37317   */\n      tag_413\n      jump\t// in\n    tag_754:\n        /* \"#utility.yul\":37276:37317   */\n      swap1\n      pop\n        /* \"#utility.yul\":37199:37327   */\n    tag_753:\n        /* \"#utility.yul\":37150:37333   */\n      swap1\n      jump\t// out\n        /* \"#utility.yul\":37339:38050   */\n    tag_288:\n        /* \"#utility.yul\":37378:37381   */\n      0x00\n        /* \"#utility.yul\":37416:37420   */\n      0x44\n        /* \"#utility.yul\":37398:37414   */\n      returndatasize\n        /* \"#utility.yul\":37395:37421   */\n      lt\n        /* \"#utility.yul\":37392:37431   */\n      iszero\n      tag_756\n      jumpi\n        /* \"#utility.yul\":37424:37429   */\n      jump(tag_755)\n        /* \"#utility.yul\":37392:37431   */\n    tag_756:\n        /* \"#utility.yul\":37453:37473   */\n      tag_757\n      tag_332\n      jump\t// in\n    tag_757:\n        /* \"#utility.yul\":37528:37529   */\n      0x04\n        /* \"#utility.yul\":37510:37526   */\n      returndatasize\n        /* \"#utility.yul\":37506:37530   */\n      sub\n        /* \"#utility.yul\":37503:37504   */\n      0x04\n        /* \"#utility.yul\":37497:37501   */\n      dup3\n        /* \"#utility.yul\":37482:37531   */\n      returndatacopy\n        /* \"#utility.yul\":37561:37565   */\n      dup1\n        /* \"#utility.yul\":37555:37566   */\n      mload\n        /* \"#utility.yul\":37660:37676   */\n      returndatasize\n        /* \"#utility.yul\":37653:37657   */\n      0x24\n        /* \"#utility.yul\":37645:37651   */\n      dup3\n        /* \"#utility.yul\":37641:37658   */\n      add\n        /* \"#utility.yul\":37638:37677   */\n      gt\n        /* \"#utility.yul\":37605:37623   */\n      0xffffffffffffffff\n        /* \"#utility.yul\":37597:37603   */\n      dup3\n        /* \"#utility.yul\":37594:37624   */\n      gt\n        /* \"#utility.yul\":37578:37691   */\n      or\n        /* \"#utility.yul\":37575:37721   */\n      iszero\n      tag_758\n      jumpi\n        /* \"#utility.yul\":37706:37711   */\n      pop\n      pop\n      jump(tag_755)\n        /* \"#utility.yul\":37575:37721   */\n    tag_758:\n        /* \"#utility.yul\":37752:37758   */\n      dup1\n        /* \"#utility.yul\":37746:37750   */\n      dup3\n        /* \"#utility.yul\":37742:37759   */\n      add\n        /* \"#utility.yul\":37788:37791   */\n      dup1\n        /* \"#utility.yul\":37782:37792   */\n      mload\n        /* \"#utility.yul\":37815:37833   */\n      0xffffffffffffffff\n        /* \"#utility.yul\":37807:37813   */\n      dup2\n        /* \"#utility.yul\":37804:37834   */\n      gt\n        /* \"#utility.yul\":37801:37844   */\n      iszero\n      tag_759\n      jumpi\n        /* \"#utility.yul\":37837:37842   */\n      pop\n      pop\n      pop\n      pop\n      jump(tag_755)\n        /* \"#utility.yul\":37801:37844   */\n    tag_759:\n        /* \"#utility.yul\":37885:37891   */\n      dup1\n        /* \"#utility.yul\":37878:37882   */\n      0x20\n        /* \"#utility.yul\":37873:37876   */\n      dup4\n        /* \"#utility.yul\":37869:37883   */\n      add\n        /* \"#utility.yul\":37865:37892   */\n      add\n        /* \"#utility.yul\":37944:37945   */\n      0x04\n        /* \"#utility.yul\":37926:37942   */\n      returndatasize\n        /* \"#utility.yul\":37922:37946   */\n      sub\n        /* \"#utility.yul\":37916:37920   */\n      dup6\n        /* \"#utility.yul\":37912:37947   */\n      add\n        /* \"#utility.yul\":37907:37910   */\n      dup2\n        /* \"#utility.yul\":37904:37948   */\n      gt\n        /* \"#utility.yul\":37901:37958   */\n      iszero\n      tag_760\n      jumpi\n        /* \"#utility.yul\":37951:37956   */\n      pop\n      pop\n      pop\n      pop\n      pop\n      jump(tag_755)\n        /* \"#utility.yul\":37901:37958   */\n    tag_760:\n        /* \"#utility.yul\":37968:38025   */\n      tag_761\n        /* \"#utility.yul\":38016:38022   */\n      dup3\n        /* \"#utility.yul\":38010:38014   */\n      0x20\n        /* \"#utility.yul\":38006:38023   */\n      add\n        /* \"#utility.yul\":37998:38004   */\n      dup6\n        /* \"#utility.yul\":37994:38024   */\n      add\n        /* \"#utility.yul\":37988:37992   */\n      dup7\n        /* \"#utility.yul\":37968:38025   */\n      tag_354\n      jump\t// in\n    tag_761:\n        /* \"#utility.yul\":38041:38044   */\n      dup3\n        /* \"#utility.yul\":38034:38044   */\n      swap6\n      pop\n        /* \"#utility.yul\":37382:38050   */\n      pop\n      pop\n      pop\n      pop\n      pop\n        /* \"#utility.yul\":37339:38050   */\n    tag_755:\n      swap1\n      jump\t// out\n        /* \"#utility.yul\":38056:38295   */\n    tag_414:\n        /* \"#utility.yul\":38196:38230   */\n      0x455243313135353a207472616e7366657220746f206e6f6e2045524331313535\n        /* \"#utility.yul\":38192:38193   */\n      0x00\n        /* \"#utility.yul\":38184:38190   */\n      dup3\n        /* \"#utility.yul\":38180:38194   */\n      add\n        /* \"#utility.yul\":38173:38231   */\n      mstore\n        /* \"#utility.yul\":38265:38287   */\n      0x526563656976657220696d706c656d656e746572000000000000000000000000\n        /* \"#utility.yul\":38260:38262   */\n      0x20\n        /* \"#utility.yul\":38252:38258   */\n      dup3\n        /* \"#utility.yul\":38248:38263   */\n      add\n        /* \"#utility.yul\":38241:38288   */\n      mstore\n        /* \"#utility.yul\":38056:38295   */\n      pop\n      jump\t// out\n        /* \"#utility.yul\":38301:38667   */\n    tag_415:\n        /* \"#utility.yul\":38443:38446   */\n      0x00\n        /* \"#utility.yul\":38464:38531   */\n      tag_764\n        /* \"#utility.yul\":38528:38530   */\n      0x34\n        /* \"#utility.yul\":38523:38526   */\n      dup4\n        /* \"#utility.yul\":38464:38531   */\n      tag_349\n      jump\t// in\n    tag_764:\n        /* \"#utility.yul\":38457:38531   */\n      swap2\n      pop\n        /* \"#utility.yul\":38540:38633   */\n      tag_765\n        /* \"#utility.yul\":38629:38632   */\n      dup3\n        /* \"#utility.yul\":38540:38633   */\n      tag_414\n      jump\t// in\n    tag_765:\n        /* \"#utility.yul\":38658:38660   */\n      0x40\n        /* \"#utility.yul\":38653:38656   */\n      dup3\n        /* \"#utility.yul\":38649:38661   */\n      add\n        /* \"#utility.yul\":38642:38661   */\n      swap1\n      pop\n        /* \"#utility.yul\":38301:38667   */\n      swap2\n      swap1\n      pop\n      jump\t// out\n        /* \"#utility.yul\":38673:39092   */\n    tag_292:\n        /* \"#utility.yul\":38839:38843   */\n      0x00\n        /* \"#utility.yul\":38877:38879   */\n      0x20\n        /* \"#utility.yul\":38866:38875   */\n      dup3\n        /* \"#utility.yul\":38862:38880   */\n      add\n        /* \"#utility.yul\":38854:38880   */\n      swap1\n      pop\n        /* \"#utility.yul\":38926:38935   */\n      dup2\n        /* \"#utility.yul\":38920:38924   */\n      dup2\n        /* \"#utility.yul\":38916:38936   */\n      sub\n        /* \"#utility.yul\":38912:38913   */\n      0x00\n        /* \"#utility.yul\":38901:38910   */\n      dup4\n        /* \"#utility.yul\":38897:38914   */\n      add\n        /* \"#utility.yul\":38890:38937   */\n      mstore\n        /* \"#utility.yul\":38954:39085   */\n      tag_767\n        /* \"#utility.yul\":39080:39084   */\n      dup2\n        /* \"#utility.yul\":38954:39085   */\n      tag_415\n      jump\t// in\n    tag_767:\n        /* \"#utility.yul\":38946:39085   */\n      swap1\n      pop\n        /* \"#utility.yul\":38673:39092   */\n      swap2\n      swap1\n      pop\n      jump\t// out\n        /* \"#utility.yul\":39098:39325   */\n    tag_416:\n        /* \"#utility.yul\":39238:39272   */\n      0x455243313135353a204552433131353552656365697665722072656a65637465\n        /* \"#utility.yul\":39234:39235   */\n      0x00\n        /* \"#utility.yul\":39226:39232   */\n      dup3\n        /* \"#utility.yul\":39222:39236   */\n      add\n        /* \"#utility.yul\":39215:39273   */\n      mstore\n        /* \"#utility.yul\":39307:39317   */\n      0x6420746f6b656e73000000000000000000000000000000000000000000000000\n        /* \"#utility.yul\":39302:39304   */\n      0x20\n        /* \"#utility.yul\":39294:39300   */\n      dup3\n        /* \"#utility.yul\":39290:39305   */\n      add\n        /* \"#utility.yul\":39283:39318   */\n      mstore\n        /* \"#utility.yul\":39098:39325   */\n      pop\n      jump\t// out\n        /* \"#utility.yul\":39331:39697   */\n    tag_417:\n        /* \"#utility.yul\":39473:39476   */\n      0x00\n        /* \"#utility.yul\":39494:39561   */\n      tag_770\n        /* \"#utility.yul\":39558:39560   */\n      0x28\n        /* \"#utility.yul\":39553:39556   */\n      dup4\n        /* \"#utility.yul\":39494:39561   */\n      tag_349\n      jump\t// in\n    tag_770:\n        /* \"#utility.yul\":39487:39561   */\n      swap2\n      pop\n        /* \"#utility.yul\":39570:39663   */\n      tag_771\n        /* \"#utility.yul\":39659:39662   */\n      dup3\n        /* \"#utility.yul\":39570:39663   */\n      tag_416\n      jump\t// in\n    tag_771:\n        /* \"#utility.yul\":39688:39690   */\n      0x40\n        /* \"#utility.yul\":39683:39686   */\n      dup3\n        /* \"#utility.yul\":39679:39691   */\n      add\n        /* \"#utility.yul\":39672:39691   */\n      swap1\n      pop\n        /* \"#utility.yul\":39331:39697   */\n      swap2\n      swap1\n      pop\n      jump\t// out\n        /* \"#utility.yul\":39703:40122   */\n    tag_296:\n        /* \"#utility.yul\":39869:39873   */\n      0x00\n        /* \"#utility.yul\":39907:39909   */\n      0x20\n        /* \"#utility.yul\":39896:39905   */\n      dup3\n        /* \"#utility.yul\":39892:39910   */\n      add\n        /* \"#utility.yul\":39884:39910   */\n      swap1\n      pop\n        /* \"#utility.yul\":39956:39965   */\n      dup2\n        /* \"#utility.yul\":39950:39954   */\n      dup2\n        /* \"#utility.yul\":39946:39966   */\n      sub\n        /* \"#utility.yul\":39942:39943   */\n      0x00\n        /* \"#utility.yul\":39931:39940   */\n      dup4\n        /* \"#utility.yul\":39927:39944   */\n      add\n        /* \"#utility.yul\":39920:39967   */\n      mstore\n        /* \"#utility.yul\":39984:40115   */\n      tag_773\n        /* \"#utility.yul\":40110:40114   */\n      dup2\n        /* \"#utility.yul\":39984:40115   */\n      tag_417\n      jump\t// in\n    tag_773:\n        /* \"#utility.yul\":39976:40115   */\n      swap1\n      pop\n        /* \"#utility.yul\":39703:40122   */\n      swap2\n      swap1\n      pop\n      jump\t// out\n        /* \"#utility.yul\":40128:40879   */\n    tag_307:\n        /* \"#utility.yul\":40351:40355   */\n      0x00\n        /* \"#utility.yul\":40389:40392   */\n      0xa0\n        /* \"#utility.yul\":40378:40387   */\n      dup3\n        /* \"#utility.yul\":40374:40393   */\n      add\n        /* \"#utility.yul\":40366:40393   */\n      swap1\n      pop\n        /* \"#utility.yul\":40403:40474   */\n      tag_775\n        /* \"#utility.yul\":40471:40472   */\n      0x00\n        /* \"#utility.yul\":40460:40469   */\n      dup4\n        /* \"#utility.yul\":40456:40473   */\n      add\n        /* \"#utility.yul\":40447:40453   */\n      dup9\n        /* \"#utility.yul\":40403:40474   */\n      tag_375\n      jump\t// in\n    tag_775:\n        /* \"#utility.yul\":40484:40556   */\n      tag_776\n        /* \"#utility.yul\":40552:40554   */\n      0x20\n        /* \"#utility.yul\":40541:40550   */\n      dup4\n        /* \"#utility.yul\":40537:40555   */\n      add\n        /* \"#utility.yul\":40528:40534   */\n      dup8\n        /* \"#utility.yul\":40484:40556   */\n      tag_375\n      jump\t// in\n    tag_776:\n        /* \"#utility.yul\":40566:40638   */\n      tag_777\n        /* \"#utility.yul\":40634:40636   */\n      0x40\n        /* \"#utility.yul\":40623:40632   */\n      dup4\n        /* \"#utility.yul\":40619:40637   */\n      add\n        /* \"#utility.yul\":40610:40616   */\n      dup7\n        /* \"#utility.yul\":40566:40638   */\n      tag_342\n      jump\t// in\n    tag_777:\n        /* \"#utility.yul\":40648:40720   */\n      tag_778\n        /* \"#utility.yul\":40716:40718   */\n      0x60\n        /* \"#utility.yul\":40705:40714   */\n      dup4\n        /* \"#utility.yul\":40701:40719   */\n      add\n        /* \"#utility.yul\":40692:40698   */\n      dup6\n        /* \"#utility.yul\":40648:40720   */\n      tag_342\n      jump\t// in\n    tag_778:\n        /* \"#utility.yul\":40768:40777   */\n      dup2\n        /* \"#utility.yul\":40762:40766   */\n      dup2\n        /* \"#utility.yul\":40758:40778   */\n      sub\n        /* \"#utility.yul\":40752:40755   */\n      0x80\n        /* \"#utility.yul\":40741:40750   */\n      dup4\n        /* \"#utility.yul\":40737:40756   */\n      add\n        /* \"#utility.yul\":40730:40779   */\n      mstore\n        /* \"#utility.yul\":40796:40872   */\n      tag_779\n        /* \"#utility.yul\":40867:40871   */\n      dup2\n        /* \"#utility.yul\":40858:40864   */\n      dup5\n        /* \"#utility.yul\":40796:40872   */\n      tag_411\n      jump\t// in\n    tag_779:\n        /* \"#utility.yul\":40788:40872   */\n      swap1\n      pop\n        /* \"#utility.yul\":40128:40879   */\n      swap7\n      swap6\n      pop\n      pop\n      pop\n      pop\n      pop\n      pop\n      jump\t// out\n\n    auxdata: 0xa2646970667358221220627c1ee27e8a4b65713fbf8f97c8f64eee84ec5073706b76d5d7fdacb72852ac64736f6c634300080a0033\n}\n","bytecode":{"linkReferences":{},"object":"608060405260006004556040518060800160405280605081526020016200421a60509139600690805190602001906200003a92919062000655565b503480156200004857600080fd5b506040518060800160405280605081526020016200426a6050913962000074816200011060201b60201c565b5062000095620000896200012c60201b60201c565b6200013460201b60201c565b620000bb33600454600160405180602001604052806000815250620001fa60201b60201c565b6006600560006004548152602001908152602001600020908054620000e090620007cc565b620000ed929190620006e6565b506001600460008282546200010391906200083b565b9250508190555062000e72565b80600290805190602001906200012892919062000655565b5050565b600033905090565b6000600360009054906101000a900473ffffffffffffffffffffffffffffffffffffffff16905081600360006101000a81548173ffffffffffffffffffffffffffffffffffffffff021916908373ffffffffffffffffffffffffffffffffffffffff1602179055508173ffffffffffffffffffffffffffffffffffffffff168173ffffffffffffffffffffffffffffffffffffffff167f8be0079c531659141344cd1fd0a4f28419497f9722a3daafe3b4186f6b6457e060405160405180910390a35050565b600073ffffffffffffffffffffffffffffffffffffffff168473ffffffffffffffffffffffffffffffffffffffff1614156200026d576040517f08c379a000000000000000000000000000000000000000000000000000000000815260040162000264906200091f565b60405180910390fd5b60006200027f6200012c60201b60201c565b9050620002b8816000876200029a88620003bf60201b60201c565b620002ab88620003bf60201b60201c565b876200044060201b60201c565b8260008086815260200190815260200160002060008773ffffffffffffffffffffffffffffffffffffffff1673ffffffffffffffffffffffffffffffffffffffff16815260200190815260200160002060008282546200031991906200083b565b925050819055508473ffffffffffffffffffffffffffffffffffffffff16600073ffffffffffffffffffffffffffffffffffffffff168273ffffffffffffffffffffffffffffffffffffffff167fc3d58168c5ae7397731d063d5bbf3d657854427343f4c083240f7aacaa2d0f6287876040516200039992919062000952565b60405180910390a4620003b8816000878787876200044860201b60201c565b5050505050565b60606000600167ffffffffffffffff811115620003e157620003e06200097f565b5b604051908082528060200260200182016040528015620004105781602001602082028036833780820191505090505b50905082816000815181106200042b576200042a620009ae565b5b60200260200101818152505080915050919050565b505050505050565b620004748473ffffffffffffffffffffffffffffffffffffffff166200064260201b62000c0e1760201c565b156200063a578373ffffffffffffffffffffffffffffffffffffffff1663f23a6e6187878686866040518663ffffffff1660e01b8152600401620004bd95949392919062000ac6565b6020604051808303816000875af1925050508015620004fc57506040513d601f19601f82011682018060405250810190620004f9919062000b96565b60015b620005ae576200050b62000bd5565b806308c379a014156200056f57506200052362000c30565b8062000530575062000571565b806040517f08c379a000000000000000000000000000000000000000000000000000000000815260040162000566919062000d1e565b60405180910390fd5b505b6040517f08c379a0000000000000000000000000000000000000000000000000000000008152600401620005a59062000db8565b60405180910390fd5b63f23a6e6160e01b7bffffffffffffffffffffffffffffffffffffffffffffffffffffffff1916817bffffffffffffffffffffffffffffffffffffffffffffffffffffffff19161462000638576040517f08c379a00000000000000000000000000000000000000000000000000000000081526004016200062f9062000e50565b60405180910390fd5b505b505050505050565b600080823b905060008111915050919050565b8280546200066390620007cc565b90600052602060002090601f016020900481019282620006875760008555620006d3565b82601f10620006a257805160ff1916838001178555620006d3565b82800160010185558215620006d3579182015b82811115620006d2578251825591602001919060010190620006b5565b5b509050620006e291906200077e565b5090565b828054620006f490620007cc565b90600052602060002090601f0160209004810192826200071857600085556200076b565b82601f106200072b57805485556200076b565b828001600101855582156200076b57600052602060002091601f016020900482015b828111156200076a5782548255916001019190600101906200074d565b5b5090506200077a91906200077e565b5090565b5b80821115620007995760008160009055506001016200077f565b5090565b7f4e487b7100000000000000000000000000000000000000000000000000000000600052602260045260246000fd5b60006002820490506001821680620007e557607f821691505b60208210811415620007fc57620007fb6200079d565b5b50919050565b6000819050919050565b7f4e487b7100000000000000000000000000000000000000000000000000000000600052601160045260246000fd5b6000620008488262000802565b9150620008558362000802565b9250827fffffffffffffffffffffffffffffffffffffffffffffffffffffffffffffffff038211156200088d576200088c6200080c565b5b828201905092915050565b600082825260208201905092915050565b7f455243313135353a206d696e7420746f20746865207a65726f2061646472657360008201527f7300000000000000000000000000000000000000000000000000000000000000602082015250565b60006200090760218362000898565b91506200091482620008a9565b604082019050919050565b600060208201905081810360008301526200093a81620008f8565b9050919050565b6200094c8162000802565b82525050565b600060408201905062000969600083018562000941565b62000978602083018462000941565b9392505050565b7f4e487b7100000000000000000000000000000000000000000000000000000000600052604160045260246000fd5b7f4e487b7100000000000000000000000000000000000000000000000000000000600052603260045260246000fd5b600073ffffffffffffffffffffffffffffffffffffffff82169050919050565b600062000a0a82620009dd565b9050919050565b62000a1c81620009fd565b82525050565b600081519050919050565b600082825260208201905092915050565b60005b8381101562000a5e57808201518184015260208101905062000a41565b8381111562000a6e576000848401525b50505050565b6000601f19601f8301169050919050565b600062000a928262000a22565b62000a9e818562000a2d565b935062000ab081856020860162000a3e565b62000abb8162000a74565b840191505092915050565b600060a08201905062000add600083018862000a11565b62000aec602083018762000a11565b62000afb604083018662000941565b62000b0a606083018562000941565b818103608083015262000b1e818462000a85565b90509695505050505050565b6000604051905090565b600080fd5b60007fffffffff0000000000000000000000000000000000000000000000000000000082169050919050565b62000b708162000b39565b811462000b7c57600080fd5b50565b60008151905062000b908162000b65565b92915050565b60006020828403121562000baf5762000bae62000b34565b5b600062000bbf8482850162000b7f565b91505092915050565b60008160e01c9050919050565b600060033d111562000bf75760046000803e62000bf460005162000bc8565b90505b90565b62000c058262000a74565b810181811067ffffffffffffffff8211171562000c275762000c266200097f565b5b80604052505050565b600060443d101562000c425762000ccf565b62000c4c62000b2a565b60043d036004823e80513d602482011167ffffffffffffffff8211171562000c7657505062000ccf565b808201805167ffffffffffffffff81111562000c96575050505062000ccf565b80602083010160043d03850181111562000cb557505050505062000ccf565b62000cc68260200185018662000bfa565b82955050505050505b90565b600081519050919050565b600062000cea8262000cd2565b62000cf6818562000898565b935062000d0881856020860162000a3e565b62000d138162000a74565b840191505092915050565b6000602082019050818103600083015262000d3a818462000cdd565b905092915050565b7f455243313135353a207472616e7366657220746f206e6f6e204552433131353560008201527f526563656976657220696d706c656d656e746572000000000000000000000000602082015250565b600062000da060348362000898565b915062000dad8262000d42565b604082019050919050565b6000602082019050818103600083015262000dd38162000d91565b9050919050565b7f455243313135353a204552433131353552656365697665722072656a6563746560008201527f6420746f6b656e73000000000000000000000000000000000000000000000000602082015250565b600062000e3860288362000898565b915062000e458262000dda565b604082019050919050565b6000602082019050818103600083015262000e6b8162000e29565b9050919050565b6133988062000e826000396000f3fe608060405234801561001057600080fd5b50600436106100ff5760003560e01c80639dc29fac11610097578063e985e9c511610066578063e985e9c514610298578063ed70554d146102c8578063f242432a146102f8578063f2fde38b14610314576100ff565b80639dc29fac14610226578063a22cb46514610242578063d85d3d271461025e578063e8a3d4851461027a576100ff565b80632eb2c2d6116100d35780632eb2c2d6146101b25780634e1273f4146101ce578063715018a6146101fe5780638da5cb5b14610208576100ff565b8062fdd58e1461010457806301ffc9a7146101345780630673d7d0146101645780630e89341c14610182575b600080fd5b61011e60048036038101906101199190611da6565b610330565b60405161012b9190611df5565b60405180910390f35b61014e60048036038101906101499190611e68565b6103f9565b60405161015b9190611eb0565b60405180910390f35b61016c6104db565b6040516101799190611df5565b60405180910390f35b61019c60048036038101906101979190611ecb565b6104e1565b6040516101a99190611f91565b60405180910390f35b6101cc60048036038101906101c791906121b0565b610575565b005b6101e860048036038101906101e39190612342565b610616565b6040516101f59190612478565b60405180910390f35b61020661072f565b005b6102106107b7565b60405161021d91906124a9565b60405180910390f35b610240600480360381019061023b9190611da6565b6107e1565b005b61025c600480360381019061025791906124f0565b610829565b005b610278600480360381019061027391906125d1565b61083f565b005b6102826108b3565b60405161028f9190611f91565b60405180910390f35b6102b260048036038101906102ad919061261a565b610941565b6040516102bf9190611eb0565b60405180910390f35b6102e260048036038101906102dd9190611ecb565b6109d5565b6040516102ef9190611f91565b60405180910390f35b610312600480360381019061030d919061265a565b610a75565b005b61032e600480360381019061032991906126f1565b610b16565b005b60008073ffffffffffffffffffffffffffffffffffffffff168373ffffffffffffffffffffffffffffffffffffffff1614156103a1576040517f08c379a000000000000000000000000000000000000000000000000000000000815260040161039890612790565b60405180910390fd5b60008083815260200190815260200160002060008473ffffffffffffffffffffffffffffffffffffffff1673ffffffffffffffffffffffffffffffffffffffff16815260200190815260200160002054905092915050565b60007fd9b67a26000000000000000000000000000000000000000000000000000000007bffffffffffffffffffffffffffffffffffffffffffffffffffffffff1916827bffffffffffffffffffffffffffffffffffffffffffffffffffffffff191614806104c457507f0e89341c000000000000000000000000000000000000000000000000000000007bffffffffffffffffffffffffffffffffffffffffffffffffffffffff1916827bffffffffffffffffffffffffffffffffffffffffffffffffffffffff1916145b806104d457506104d382610c21565b5b9050919050565b60045481565b6060600280546104f0906127df565b80601f016020809104026020016040519081016040528092919081815260200182805461051c906127df565b80156105695780601f1061053e57610100808354040283529160200191610569565b820191906000526020600020905b81548152906001019060200180831161054c57829003601f168201915b50505050509050919050565b61057d610c8b565b73ffffffffffffffffffffffffffffffffffffffff168573ffffffffffffffffffffffffffffffffffffffff1614806105c357506105c2856105bd610c8b565b610941565b5b610602576040517f08c379a00000000000000000000000000000000000000000000000000000000081526004016105f990612883565b60405180910390fd5b61060f8585858585610c93565b5050505050565b6060815183511461065c576040517f08c379a000000000000000000000000000000000000000000000000000000000815260040161065390612915565b60405180910390fd5b6000835167ffffffffffffffff81111561067957610678611fb8565b5b6040519080825280602002602001820160405280156106a75781602001602082028036833780820191505090505b50905060005b8451811015610724576106f48582815181106106cc576106cb612935565b5b60200260200101518583815181106106e7576106e6612935565b5b6020026020010151610330565b82828151811061070757610706612935565b5b6020026020010181815250508061071d90612993565b90506106ad565b508091505092915050565b610737610c8b565b73ffffffffffffffffffffffffffffffffffffffff166107556107b7565b73ffffffffffffffffffffffffffffffffffffffff16146107ab576040517f08c379a00000000000000000000000000000000000000000000000000000000081526004016107a290612a28565b60405180910390fd5b6107b56000610fa7565b565b6000600360009054906101000a900473ffffffffffffffffffffffffffffffffffffffff16905090565b8173ffffffffffffffffffffffffffffffffffffffff163373ffffffffffffffffffffffffffffffffffffffff161461081957600080fd5b6108258282600161106d565b5050565b61083b610834610c8b565b838361128a565b5050565b6000339050610862816004546001604051806020016040528060008152506113f7565b61086b8261158d565b816005600060045481526020019081526020016000209080519060200190610894929190611c5b565b506001600460008282546108a89190612a48565b925050819055505050565b600680546108c0906127df565b80601f01602080910402602001604051908101604052809291908181526020018280546108ec906127df565b80156109395780601f1061090e57610100808354040283529160200191610939565b820191906000526020600020905b81548152906001019060200180831161091c57829003601f168201915b505050505081565b6000600160008473ffffffffffffffffffffffffffffffffffffffff1673ffffffffffffffffffffffffffffffffffffffff16815260200190815260200160002060008373ffffffffffffffffffffffffffffffffffffffff1673ffffffffffffffffffffffffffffffffffffffff16815260200190815260200160002060009054906101000a900460ff16905092915050565b600560205280600052604060002060009150905080546109f4906127df565b80601f0160208091040260200160405190810160405280929190818152602001828054610a20906127df565b8015610a6d5780601f10610a4257610100808354040283529160200191610a6d565b820191906000526020600020905b815481529060010190602001808311610a5057829003601f168201915b505050505081565b610a7d610c8b565b73ffffffffffffffffffffffffffffffffffffffff168573ffffffffffffffffffffffffffffffffffffffff161480610ac35750610ac285610abd610c8b565b610941565b5b610b02576040517f08c379a0000000000000000000000000000000000000000000000000000000008152600401610af990612b10565b60405180910390fd5b610b0f85858585856115a7565b5050505050565b610b1e610c8b565b73ffffffffffffffffffffffffffffffffffffffff16610b3c6107b7565b73ffffffffffffffffffffffffffffffffffffffff1614610b92576040517f08c379a0000000000000000000000000000000000000000000000000000000008152600401610b8990612a28565b60405180910390fd5b600073ffffffffffffffffffffffffffffffffffffffff168173ffffffffffffffffffffffffffffffffffffffff161415610c02576040517f08c379a0000000000000000000000000000000000000000000000000000000008152600401610bf990612ba2565b60405180910390fd5b610c0b81610fa7565b50565b600080823b905060008111915050919050565b60007f01ffc9a7000000000000000000000000000000000000000000000000000000007bffffffffffffffffffffffffffffffffffffffffffffffffffffffff1916827bffffffffffffffffffffffffffffffffffffffffffffffffffffffff1916149050919050565b600033905090565b8151835114610cd7576040517f08c379a0000000000000000000000000000000000000000000000000000000008152600401610cce90612c34565b60405180910390fd5b600073ffffffffffffffffffffffffffffffffffffffff168473ffffffffffffffffffffffffffffffffffffffff161415610d47576040517f08c379a0000000000000000000000000000000000000000000000000000000008152600401610d3e90612cc6565b60405180910390fd5b6000610d51610c8b565b9050610d61818787878787611829565b60005b8451811015610f12576000858281518110610d8257610d81612935565b5b602002602001015190506000858381518110610da157610da0612935565b5b60200260200101519050600080600084815260200190815260200160002060008b73ffffffffffffffffffffffffffffffffffffffff1673ffffffffffffffffffffffffffffffffffffffff16815260200190815260200160002054905081811015610e42576040517f08c379a0000000000000000000000000000000000000000000000000000000008152600401610e3990612d58565b60405180910390fd5b81810360008085815260200190815260200160002060008c73ffffffffffffffffffffffffffffffffffffffff1673ffffffffffffffffffffffffffffffffffffffff168152602001908152602001600020819055508160008085815260200190815260200160002060008b73ffffffffffffffffffffffffffffffffffffffff1673ffffffffffffffffffffffffffffffffffffffff1681526020019081526020016000206000828254610ef79190612a48565b9250508190555050505080610f0b90612993565b9050610d64565b508473ffffffffffffffffffffffffffffffffffffffff168673ffffffffffffffffffffffffffffffffffffffff168273ffffffffffffffffffffffffffffffffffffffff167f4a39dc06d4c0dbc64b70af90fd698a233a518aa5d07e595d983b8c0526c8f7fb8787604051610f89929190612d78565b60405180910390a4610f9f818787878787611831565b505050505050565b6000600360009054906101000a900473ffffffffffffffffffffffffffffffffffffffff16905081600360006101000a81548173ffffffffffffffffffffffffffffffffffffffff021916908373ffffffffffffffffffffffffffffffffffffffff1602179055508173ffffffffffffffffffffffffffffffffffffffff168173ffffffffffffffffffffffffffffffffffffffff167f8be0079c531659141344cd1fd0a4f28419497f9722a3daafe3b4186f6b6457e060405160405180910390a35050565b600073ffffffffffffffffffffffffffffffffffffffff168373ffffffffffffffffffffffffffffffffffffffff1614156110dd576040517f08c379a00000000000000000000000000000000000000000000000000000000081526004016110d490612e21565b60405180910390fd5b60006110e7610c8b565b9050611117818560006110f987611a09565b61110287611a09565b60405180602001604052806000815250611829565b600080600085815260200190815260200160002060008673ffffffffffffffffffffffffffffffffffffffff1673ffffffffffffffffffffffffffffffffffffffff168152602001908152602001600020549050828110156111ae576040517f08c379a00000000000000000000000000000000000000000000000000000000081526004016111a590612eb3565b60405180910390fd5b82810360008086815260200190815260200160002060008773ffffffffffffffffffffffffffffffffffffffff1673ffffffffffffffffffffffffffffffffffffffff16815260200190815260200160002081905550600073ffffffffffffffffffffffffffffffffffffffff168573ffffffffffffffffffffffffffffffffffffffff168373ffffffffffffffffffffffffffffffffffffffff167fc3d58168c5ae7397731d063d5bbf3d657854427343f4c083240f7aacaa2d0f62878760405161127b929190612ed3565b60405180910390a45050505050565b8173ffffffffffffffffffffffffffffffffffffffff168373ffffffffffffffffffffffffffffffffffffffff1614156112f9576040517f08c379a00000000000000000000000000000000000000000000000000000000081526004016112f090612f6e565b60405180910390fd5b80600160008573ffffffffffffffffffffffffffffffffffffffff1673ffffffffffffffffffffffffffffffffffffffff16815260200190815260200160002060008473ffffffffffffffffffffffffffffffffffffffff1673ffffffffffffffffffffffffffffffffffffffff16815260200190815260200160002060006101000a81548160ff0219169083151502179055508173ffffffffffffffffffffffffffffffffffffffff168373ffffffffffffffffffffffffffffffffffffffff167f17307eab39ab6107e8899845ad3d59bd9653f200f220920489ca2b5937696c31836040516113ea9190611eb0565b60405180910390a3505050565b600073ffffffffffffffffffffffffffffffffffffffff168473ffffffffffffffffffffffffffffffffffffffff161415611467576040517f08c379a000000000000000000000000000000000000000000000000000000000815260040161145e90613000565b60405180910390fd5b6000611471610c8b565b90506114928160008761148388611a09565b61148c88611a09565b87611829565b8260008086815260200190815260200160002060008773ffffffffffffffffffffffffffffffffffffffff1673ffffffffffffffffffffffffffffffffffffffff16815260200190815260200160002060008282546114f19190612a48565b925050819055508473ffffffffffffffffffffffffffffffffffffffff16600073ffffffffffffffffffffffffffffffffffffffff168273ffffffffffffffffffffffffffffffffffffffff167fc3d58168c5ae7397731d063d5bbf3d657854427343f4c083240f7aacaa2d0f62878760405161156f929190612ed3565b60405180910390a461158681600087878787611a83565b5050505050565b80600290805190602001906115a3929190611c5b565b5050565b600073ffffffffffffffffffffffffffffffffffffffff168473ffffffffffffffffffffffffffffffffffffffff161415611617576040517f08c379a000000000000000000000000000000000000000000000000000000000815260040161160e90612cc6565b60405180910390fd5b6000611621610c8b565b905061164181878761163288611a09565b61163b88611a09565b87611829565b600080600086815260200190815260200160002060008873ffffffffffffffffffffffffffffffffffffffff1673ffffffffffffffffffffffffffffffffffffffff168152602001908152602001600020549050838110156116d8576040517f08c379a00000000000000000000000000000000000000000000000000000000081526004016116cf90612d58565b60405180910390fd5b83810360008087815260200190815260200160002060008973ffffffffffffffffffffffffffffffffffffffff1673ffffffffffffffffffffffffffffffffffffffff168152602001908152602001600020819055508360008087815260200190815260200160002060008873ffffffffffffffffffffffffffffffffffffffff1673ffffffffffffffffffffffffffffffffffffffff168152602001908152602001600020600082825461178d9190612a48565b925050819055508573ffffffffffffffffffffffffffffffffffffffff168773ffffffffffffffffffffffffffffffffffffffff168373ffffffffffffffffffffffffffffffffffffffff167fc3d58168c5ae7397731d063d5bbf3d657854427343f4c083240f7aacaa2d0f62888860405161180a929190612ed3565b60405180910390a4611820828888888888611a83565b50505050505050565b505050505050565b6118508473ffffffffffffffffffffffffffffffffffffffff16610c0e565b15611a01578373ffffffffffffffffffffffffffffffffffffffff1663bc197c8187878686866040518663ffffffff1660e01b8152600401611896959493929190613075565b6020604051808303816000875af19250505080156118d257506040513d601f19601f820116820180604052508101906118cf91906130f2565b60015b611978576118de61312c565b806308c379a0141561193b57506118f361314e565b806118fe575061193d565b806040517f08c379a00000000000000000000000000000000000000000000000000000000081526004016119329190611f91565b60405180910390fd5b505b6040517f08c379a000000000000000000000000000000000000000000000000000000000815260040161196f90613256565b60405180910390fd5b63bc197c8160e01b7bffffffffffffffffffffffffffffffffffffffffffffffffffffffff1916817bffffffffffffffffffffffffffffffffffffffffffffffffffffffff1916146119ff576040517f08c379a00000000000000000000000000000000000000000000000000000000081526004016119f6906132e8565b60405180910390fd5b505b505050505050565b60606000600167ffffffffffffffff811115611a2857611a27611fb8565b5b604051908082528060200260200182016040528015611a565781602001602082028036833780820191505090505b5090508281600081518110611a6e57611a6d612935565b5b60200260200101818152505080915050919050565b611aa28473ffffffffffffffffffffffffffffffffffffffff16610c0e565b15611c53578373ffffffffffffffffffffffffffffffffffffffff1663f23a6e6187878686866040518663ffffffff1660e01b8152600401611ae8959493929190613308565b6020604051808303816000875af1925050508015611b2457506040513d601f19601f82011682018060405250810190611b2191906130f2565b60015b611bca57611b3061312c565b806308c379a01415611b8d5750611b4561314e565b80611b505750611b8f565b806040517f08c379a0000000000000000000000000000000000000000000000000000000008152600401611b849190611f91565b60405180910390fd5b505b6040517f08c379a0000000000000000000000000000000000000000000000000000000008152600401611bc190613256565b60405180910390fd5b63f23a6e6160e01b7bffffffffffffffffffffffffffffffffffffffffffffffffffffffff1916817bffffffffffffffffffffffffffffffffffffffffffffffffffffffff191614611c51576040517f08c379a0000000000000000000000000000000000000000000000000000000008152600401611c48906132e8565b60405180910390fd5b505b505050505050565b828054611c67906127df565b90600052602060002090601f016020900481019282611c895760008555611cd0565b82601f10611ca257805160ff1916838001178555611cd0565b82800160010185558215611cd0579182015b82811115611ccf578251825591602001919060010190611cb4565b5b509050611cdd9190611ce1565b5090565b5b80821115611cfa576000816000905550600101611ce2565b5090565b6000604051905090565b600080fd5b600080fd5b600073ffffffffffffffffffffffffffffffffffffffff82169050919050565b6000611d3d82611d12565b9050919050565b611d4d81611d32565b8114611d5857600080fd5b50565b600081359050611d6a81611d44565b92915050565b6000819050919050565b611d8381611d70565b8114611d8e57600080fd5b50565b600081359050611da081611d7a565b92915050565b60008060408385031215611dbd57611dbc611d08565b5b6000611dcb85828601611d5b565b9250506020611ddc85828601611d91565b9150509250929050565b611def81611d70565b82525050565b6000602082019050611e0a6000830184611de6565b92915050565b60007fffffffff0000000000000000000000000000000000000000000000000000000082169050919050565b611e4581611e10565b8114611e5057600080fd5b50565b600081359050611e6281611e3c565b92915050565b600060208284031215611e7e57611e7d611d08565b5b6000611e8c84828501611e53565b91505092915050565b60008115159050919050565b611eaa81611e95565b82525050565b6000602082019050611ec56000830184611ea1565b92915050565b600060208284031215611ee157611ee0611d08565b5b6000611eef84828501611d91565b91505092915050565b600081519050919050565b600082825260208201905092915050565b60005b83811015611f32578082015181840152602081019050611f17565b83811115611f41576000848401525b50505050565b6000601f19601f8301169050919050565b6000611f6382611ef8565b611f6d8185611f03565b9350611f7d818560208601611f14565b611f8681611f47565b840191505092915050565b60006020820190508181036000830152611fab8184611f58565b905092915050565b600080fd5b7f4e487b7100000000000000000000000000000000000000000000000000000000600052604160045260246000fd5b611ff082611f47565b810181811067ffffffffffffffff8211171561200f5761200e611fb8565b5b80604052505050565b6000612022611cfe565b905061202e8282611fe7565b919050565b600067ffffffffffffffff82111561204e5761204d611fb8565b5b602082029050602081019050919050565b600080fd5b600061207761207284612033565b612018565b9050808382526020820190506020840283018581111561209a5761209961205f565b5b835b818110156120c357806120af8882611d91565b84526020840193505060208101905061209c565b5050509392505050565b600082601f8301126120e2576120e1611fb3565b5b81356120f2848260208601612064565b91505092915050565b600080fd5b600067ffffffffffffffff82111561211b5761211a611fb8565b5b61212482611f47565b9050602081019050919050565b82818337600083830152505050565b600061215361214e84612100565b612018565b90508281526020810184848401111561216f5761216e6120fb565b5b61217a848285612131565b509392505050565b600082601f83011261219757612196611fb3565b5b81356121a7848260208601612140565b91505092915050565b600080600080600060a086880312156121cc576121cb611d08565b5b60006121da88828901611d5b565b95505060206121eb88828901611d5b565b945050604086013567ffffffffffffffff81111561220c5761220b611d0d565b5b612218888289016120cd565b935050606086013567ffffffffffffffff81111561223957612238611d0d565b5b612245888289016120cd565b925050608086013567ffffffffffffffff81111561226657612265611d0d565b5b61227288828901612182565b9150509295509295909350565b600067ffffffffffffffff82111561229a57612299611fb8565b5b602082029050602081019050919050565b60006122be6122b98461227f565b612018565b905080838252602082019050602084028301858111156122e1576122e061205f565b5b835b8181101561230a57806122f68882611d5b565b8452602084019350506020810190506122e3565b5050509392505050565b600082601f83011261232957612328611fb3565b5b81356123398482602086016122ab565b91505092915050565b6000806040838503121561235957612358611d08565b5b600083013567ffffffffffffffff81111561237757612376611d0d565b5b61238385828601612314565b925050602083013567ffffffffffffffff8111156123a4576123a3611d0d565b5b6123b0858286016120cd565b9150509250929050565b600081519050919050565b600082825260208201905092915050565b6000819050602082019050919050565b6123ef81611d70565b82525050565b600061240183836123e6565b60208301905092915050565b6000602082019050919050565b6000612425826123ba565b61242f81856123c5565b935061243a836123d6565b8060005b8381101561246b57815161245288826123f5565b975061245d8361240d565b92505060018101905061243e565b5085935050505092915050565b60006020820190508181036000830152612492818461241a565b905092915050565b6124a381611d32565b82525050565b60006020820190506124be600083018461249a565b92915050565b6124cd81611e95565b81146124d857600080fd5b50565b6000813590506124ea816124c4565b92915050565b6000806040838503121561250757612506611d08565b5b600061251585828601611d5b565b9250506020612526858286016124db565b9150509250929050565b600067ffffffffffffffff82111561254b5761254a611fb8565b5b61255482611f47565b9050602081019050919050565b600061257461256f84612530565b612018565b9050828152602081018484840111156125905761258f6120fb565b5b61259b848285612131565b509392505050565b600082601f8301126125b8576125b7611fb3565b5b81356125c8848260208601612561565b91505092915050565b6000602082840312156125e7576125e6611d08565b5b600082013567ffffffffffffffff81111561260557612604611d0d565b5b612611848285016125a3565b91505092915050565b6000806040838503121561263157612630611d08565b5b600061263f85828601611d5b565b925050602061265085828601611d5b565b9150509250929050565b600080600080600060a0868803121561267657612675611d08565b5b600061268488828901611d5b565b955050602061269588828901611d5b565b94505060406126a688828901611d91565b93505060606126b788828901611d91565b925050608086013567ffffffffffffffff8111156126d8576126d7611d0d565b5b6126e488828901612182565b9150509295509295909350565b60006020828403121561270757612706611d08565b5b600061271584828501611d5b565b91505092915050565b7f455243313135353a2062616c616e636520717565727920666f7220746865207a60008201527f65726f2061646472657373000000000000000000000000000000000000000000602082015250565b600061277a602b83611f03565b91506127858261271e565b604082019050919050565b600060208201905081810360008301526127a98161276d565b9050919050565b7f4e487b7100000000000000000000000000000000000000000000000000000000600052602260045260246000fd5b600060028204905060018216806127f757607f821691505b6020821081141561280b5761280a6127b0565b5b50919050565b7f455243313135353a207472616e736665722063616c6c6572206973206e6f742060008201527f6f776e6572206e6f7220617070726f7665640000000000000000000000000000602082015250565b600061286d603283611f03565b915061287882612811565b604082019050919050565b6000602082019050818103600083015261289c81612860565b9050919050565b7f455243313135353a206163636f756e747320616e6420696473206c656e67746860008201527f206d69736d617463680000000000000000000000000000000000000000000000602082015250565b60006128ff602983611f03565b915061290a826128a3565b604082019050919050565b6000602082019050818103600083015261292e816128f2565b9050919050565b7f4e487b7100000000000000000000000000000000000000000000000000000000600052603260045260246000fd5b7f4e487b7100000000000000000000000000000000000000000000000000000000600052601160045260246000fd5b600061299e82611d70565b91507fffffffffffffffffffffffffffffffffffffffffffffffffffffffffffffffff8214156129d1576129d0612964565b5b600182019050919050565b7f4f776e61626c653a2063616c6c6572206973206e6f7420746865206f776e6572600082015250565b6000612a12602083611f03565b9150612a1d826129dc565b602082019050919050565b60006020820190508181036000830152612a4181612a05565b9050919050565b6000612a5382611d70565b9150612a5e83611d70565b9250827fffffffffffffffffffffffffffffffffffffffffffffffffffffffffffffffff03821115612a9357612a92612964565b5b828201905092915050565b7f455243313135353a2063616c6c6572206973206e6f74206f776e6572206e6f7260008201527f20617070726f7665640000000000000000000000000000000000000000000000602082015250565b6000612afa602983611f03565b9150612b0582612a9e565b604082019050919050565b60006020820190508181036000830152612b2981612aed565b9050919050565b7f4f776e61626c653a206e6577206f776e657220697320746865207a65726f206160008201527f6464726573730000000000000000000000000000000000000000000000000000602082015250565b6000612b8c602683611f03565b9150612b9782612b30565b604082019050919050565b60006020820190508181036000830152612bbb81612b7f565b9050919050565b7f455243313135353a2069647320616e6420616d6f756e7473206c656e6774682060008201527f6d69736d61746368000000000000000000000000000000000000000000000000602082015250565b6000612c1e602883611f03565b9150612c2982612bc2565b604082019050919050565b60006020820190508181036000830152612c4d81612c11565b9050919050565b7f455243313135353a207472616e7366657220746f20746865207a65726f20616460008201527f6472657373000000000000000000000000000000000000000000000000000000602082015250565b6000612cb0602583611f03565b9150612cbb82612c54565b604082019050919050565b60006020820190508181036000830152612cdf81612ca3565b9050919050565b7f455243313135353a20696e73756666696369656e742062616c616e636520666f60008201527f72207472616e7366657200000000000000000000000000000000000000000000602082015250565b6000612d42602a83611f03565b9150612d4d82612ce6565b604082019050919050565b60006020820190508181036000830152612d7181612d35565b9050919050565b60006040820190508181036000830152612d92818561241a565b90508181036020830152612da6818461241a565b90509392505050565b7f455243313135353a206275726e2066726f6d20746865207a65726f206164647260008201527f6573730000000000000000000000000000000000000000000000000000000000602082015250565b6000612e0b602383611f03565b9150612e1682612daf565b604082019050919050565b60006020820190508181036000830152612e3a81612dfe565b9050919050565b7f455243313135353a206275726e20616d6f756e7420657863656564732062616c60008201527f616e636500000000000000000000000000000000000000000000000000000000602082015250565b6000612e9d602483611f03565b9150612ea882612e41565b604082019050919050565b60006020820190508181036000830152612ecc81612e90565b9050919050565b6000604082019050612ee86000830185611de6565b612ef56020830184611de6565b9392505050565b7f455243313135353a2073657474696e6720617070726f76616c2073746174757360008201527f20666f722073656c660000000000000000000000000000000000000000000000602082015250565b6000612f58602983611f03565b9150612f6382612efc565b604082019050919050565b60006020820190508181036000830152612f8781612f4b565b9050919050565b7f455243313135353a206d696e7420746f20746865207a65726f2061646472657360008201527f7300000000000000000000000000000000000000000000000000000000000000602082015250565b6000612fea602183611f03565b9150612ff582612f8e565b604082019050919050565b6000602082019050818103600083015261301981612fdd565b9050919050565b600081519050919050565b600082825260208201905092915050565b600061304782613020565b613051818561302b565b9350613061818560208601611f14565b61306a81611f47565b840191505092915050565b600060a08201905061308a600083018861249a565b613097602083018761249a565b81810360408301526130a9818661241a565b905081810360608301526130bd818561241a565b905081810360808301526130d1818461303c565b90509695505050505050565b6000815190506130ec81611e3c565b92915050565b60006020828403121561310857613107611d08565b5b6000613116848285016130dd565b91505092915050565b60008160e01c9050919050565b600060033d111561314b5760046000803e61314860005161311f565b90505b90565b600060443d101561315e576131e1565b613166611cfe565b60043d036004823e80513d602482011167ffffffffffffffff8211171561318e5750506131e1565b808201805167ffffffffffffffff8111156131ac57505050506131e1565b80602083010160043d0385018111156131c95750505050506131e1565b6131d882602001850186611fe7565b82955050505050505b90565b7f455243313135353a207472616e7366657220746f206e6f6e204552433131353560008201527f526563656976657220696d706c656d656e746572000000000000000000000000602082015250565b6000613240603483611f03565b915061324b826131e4565b604082019050919050565b6000602082019050818103600083015261326f81613233565b9050919050565b7f455243313135353a204552433131353552656365697665722072656a6563746560008201527f6420746f6b656e73000000000000000000000000000000000000000000000000602082015250565b60006132d2602883611f03565b91506132dd82613276565b604082019050919050565b60006020820190508181036000830152613301816132c5565b9050919050565b600060a08201905061331d600083018861249a565b61332a602083018761249a565b6133376040830186611de6565b6133446060830185611de6565b8181036080830152613356818461303c565b9050969550505050505056fea2646970667358221220627c1ee27e8a4b65713fbf8f97c8f64eee84ec5073706b76d5d7fdacb72852ac64736f6c634300080a003368747470733a2f2f676174657761792e70696e6174612e636c6f75642f697066732f516d4e664b4636717948594b36424b534e425572464a6b6d5a4835335a34623739576a5838474271336a594b344a68747470733a2f2f676174657761792e70696e6174612e636c6f75642f697066732f516d5a396a6657586b563556766e7974656371793238613962506e727a6f4568717a743165695866637978756776","opcodes":"PUSH1 0x80 PUSH1 0x40 MSTORE PUSH1 0x0 PUSH1 0x4 SSTORE PUSH1 0x40 MLOAD DUP1 PUSH1 0x80 ADD PUSH1 0x40 MSTORE DUP1 PUSH1 0x50 DUP2 MSTORE PUSH1 0x20 ADD PUSH3 0x421A PUSH1 0x50 SWAP2 CODECOPY PUSH1 0x6 SWAP1 DUP1 MLOAD SWAP1 PUSH1 0x20 ADD SWAP1 PUSH3 0x3A SWAP3 SWAP2 SWAP1 PUSH3 0x655 JUMP JUMPDEST POP CALLVALUE DUP1 ISZERO PUSH3 0x48 JUMPI PUSH1 0x0 DUP1 REVERT JUMPDEST POP PUSH1 0x40 MLOAD DUP1 PUSH1 0x80 ADD PUSH1 0x40 MSTORE DUP1 PUSH1 0x50 DUP2 MSTORE PUSH1 0x20 ADD PUSH3 0x426A PUSH1 0x50 SWAP2 CODECOPY PUSH3 0x74 DUP2 PUSH3 0x110 PUSH1 0x20 SHL PUSH1 0x20 SHR JUMP JUMPDEST POP PUSH3 0x95 PUSH3 0x89 PUSH3 0x12C PUSH1 0x20 SHL PUSH1 0x20 SHR JUMP JUMPDEST PUSH3 0x134 PUSH1 0x20 SHL PUSH1 0x20 SHR JUMP JUMPDEST PUSH3 0xBB CALLER PUSH1 0x4 SLOAD PUSH1 0x1 PUSH1 0x40 MLOAD DUP1 PUSH1 0x20 ADD PUSH1 0x40 MSTORE DUP1 PUSH1 0x0 DUP2 MSTORE POP PUSH3 0x1FA PUSH1 0x20 SHL PUSH1 0x20 SHR JUMP JUMPDEST PUSH1 0x6 PUSH1 0x5 PUSH1 0x0 PUSH1 0x4 SLOAD DUP2 MSTORE PUSH1 0x20 ADD SWAP1 DUP2 MSTORE PUSH1 0x20 ADD PUSH1 0x0 KECCAK256 SWAP1 DUP1 SLOAD PUSH3 0xE0 SWAP1 PUSH3 0x7CC JUMP JUMPDEST PUSH3 0xED SWAP3 SWAP2 SWAP1 PUSH3 0x6E6 JUMP JUMPDEST POP PUSH1 0x1 PUSH1 0x4 PUSH1 0x0 DUP3 DUP3 SLOAD PUSH3 0x103 SWAP2 SWAP1 PUSH3 0x83B JUMP JUMPDEST SWAP3 POP POP DUP2 SWAP1 SSTORE POP PUSH3 0xE72 JUMP JUMPDEST DUP1 PUSH1 0x2 SWAP1 DUP1 MLOAD SWAP1 PUSH1 0x20 ADD SWAP1 PUSH3 0x128 SWAP3 SWAP2 SWAP1 PUSH3 0x655 JUMP JUMPDEST POP POP JUMP JUMPDEST PUSH1 0x0 CALLER SWAP1 POP SWAP1 JUMP JUMPDEST PUSH1 0x0 PUSH1 0x3 PUSH1 0x0 SWAP1 SLOAD SWAP1 PUSH2 0x100 EXP SWAP1 DIV PUSH20 0xFFFFFFFFFFFFFFFFFFFFFFFFFFFFFFFFFFFFFFFF AND SWAP1 POP DUP2 PUSH1 0x3 PUSH1 0x0 PUSH2 0x100 EXP DUP2 SLOAD DUP2 PUSH20 0xFFFFFFFFFFFFFFFFFFFFFFFFFFFFFFFFFFFFFFFF MUL NOT AND SWAP1 DUP4 PUSH20 0xFFFFFFFFFFFFFFFFFFFFFFFFFFFFFFFFFFFFFFFF AND MUL OR SWAP1 SSTORE POP DUP2 PUSH20 0xFFFFFFFFFFFFFFFFFFFFFFFFFFFFFFFFFFFFFFFF AND DUP2 PUSH20 0xFFFFFFFFFFFFFFFFFFFFFFFFFFFFFFFFFFFFFFFF AND PUSH32 0x8BE0079C531659141344CD1FD0A4F28419497F9722A3DAAFE3B4186F6B6457E0 PUSH1 0x40 MLOAD PUSH1 0x40 MLOAD DUP1 SWAP2 SUB SWAP1 LOG3 POP POP JUMP JUMPDEST PUSH1 0x0 PUSH20 0xFFFFFFFFFFFFFFFFFFFFFFFFFFFFFFFFFFFFFFFF AND DUP5 PUSH20 0xFFFFFFFFFFFFFFFFFFFFFFFFFFFFFFFFFFFFFFFF AND EQ ISZERO PUSH3 0x26D JUMPI PUSH1 0x40 MLOAD PUSH32 0x8C379A000000000000000000000000000000000000000000000000000000000 DUP2 MSTORE PUSH1 0x4 ADD PUSH3 0x264 SWAP1 PUSH3 0x91F JUMP JUMPDEST PUSH1 0x40 MLOAD DUP1 SWAP2 SUB SWAP1 REVERT JUMPDEST PUSH1 0x0 PUSH3 0x27F PUSH3 0x12C PUSH1 0x20 SHL PUSH1 0x20 SHR JUMP JUMPDEST SWAP1 POP PUSH3 0x2B8 DUP2 PUSH1 0x0 DUP8 PUSH3 0x29A DUP9 PUSH3 0x3BF PUSH1 0x20 SHL PUSH1 0x20 SHR JUMP JUMPDEST PUSH3 0x2AB DUP9 PUSH3 0x3BF PUSH1 0x20 SHL PUSH1 0x20 SHR JUMP JUMPDEST DUP8 PUSH3 0x440 PUSH1 0x20 SHL PUSH1 0x20 SHR JUMP JUMPDEST DUP3 PUSH1 0x0 DUP1 DUP7 DUP2 MSTORE PUSH1 0x20 ADD SWAP1 DUP2 MSTORE PUSH1 0x20 ADD PUSH1 0x0 KECCAK256 PUSH1 0x0 DUP8 PUSH20 0xFFFFFFFFFFFFFFFFFFFFFFFFFFFFFFFFFFFFFFFF AND PUSH20 0xFFFFFFFFFFFFFFFFFFFFFFFFFFFFFFFFFFFFFFFF AND DUP2 MSTORE PUSH1 0x20 ADD SWAP1 DUP2 MSTORE PUSH1 0x20 ADD PUSH1 0x0 KECCAK256 PUSH1 0x0 DUP3 DUP3 SLOAD PUSH3 0x319 SWAP2 SWAP1 PUSH3 0x83B JUMP JUMPDEST SWAP3 POP POP DUP2 SWAP1 SSTORE POP DUP5 PUSH20 0xFFFFFFFFFFFFFFFFFFFFFFFFFFFFFFFFFFFFFFFF AND PUSH1 0x0 PUSH20 0xFFFFFFFFFFFFFFFFFFFFFFFFFFFFFFFFFFFFFFFF AND DUP3 PUSH20 0xFFFFFFFFFFFFFFFFFFFFFFFFFFFFFFFFFFFFFFFF AND PUSH32 0xC3D58168C5AE7397731D063D5BBF3D657854427343F4C083240F7AACAA2D0F62 DUP8 DUP8 PUSH1 0x40 MLOAD PUSH3 0x399 SWAP3 SWAP2 SWAP1 PUSH3 0x952 JUMP JUMPDEST PUSH1 0x40 MLOAD DUP1 SWAP2 SUB SWAP1 LOG4 PUSH3 0x3B8 DUP2 PUSH1 0x0 DUP8 DUP8 DUP8 DUP8 PUSH3 0x448 PUSH1 0x20 SHL PUSH1 0x20 SHR JUMP JUMPDEST POP POP POP POP POP JUMP JUMPDEST PUSH1 0x60 PUSH1 0x0 PUSH1 0x1 PUSH8 0xFFFFFFFFFFFFFFFF DUP2 GT ISZERO PUSH3 0x3E1 JUMPI PUSH3 0x3E0 PUSH3 0x97F JUMP JUMPDEST JUMPDEST PUSH1 0x40 MLOAD SWAP1 DUP1 DUP3 MSTORE DUP1 PUSH1 0x20 MUL PUSH1 0x20 ADD DUP3 ADD PUSH1 0x40 MSTORE DUP1 ISZERO PUSH3 0x410 JUMPI DUP2 PUSH1 0x20 ADD PUSH1 0x20 DUP3 MUL DUP1 CALLDATASIZE DUP4 CALLDATACOPY DUP1 DUP3 ADD SWAP2 POP POP SWAP1 POP JUMPDEST POP SWAP1 POP DUP3 DUP2 PUSH1 0x0 DUP2 MLOAD DUP2 LT PUSH3 0x42B JUMPI PUSH3 0x42A PUSH3 0x9AE JUMP JUMPDEST JUMPDEST PUSH1 0x20 MUL PUSH1 0x20 ADD ADD DUP2 DUP2 MSTORE POP POP DUP1 SWAP2 POP POP SWAP2 SWAP1 POP JUMP JUMPDEST POP POP POP POP POP POP JUMP JUMPDEST PUSH3 0x474 DUP5 PUSH20 0xFFFFFFFFFFFFFFFFFFFFFFFFFFFFFFFFFFFFFFFF AND PUSH3 0x642 PUSH1 0x20 SHL PUSH3 0xC0E OR PUSH1 0x20 SHR JUMP JUMPDEST ISZERO PUSH3 0x63A JUMPI DUP4 PUSH20 0xFFFFFFFFFFFFFFFFFFFFFFFFFFFFFFFFFFFFFFFF AND PUSH4 0xF23A6E61 DUP8 DUP8 DUP7 DUP7 DUP7 PUSH1 0x40 MLOAD DUP7 PUSH4 0xFFFFFFFF AND PUSH1 0xE0 SHL DUP2 MSTORE PUSH1 0x4 ADD PUSH3 0x4BD SWAP6 SWAP5 SWAP4 SWAP3 SWAP2 SWAP1 PUSH3 0xAC6 JUMP JUMPDEST PUSH1 0x20 PUSH1 0x40 MLOAD DUP1 DUP4 SUB DUP2 PUSH1 0x0 DUP8 GAS CALL SWAP3 POP POP POP DUP1 ISZERO PUSH3 0x4FC JUMPI POP PUSH1 0x40 MLOAD RETURNDATASIZE PUSH1 0x1F NOT PUSH1 0x1F DUP3 ADD AND DUP3 ADD DUP1 PUSH1 0x40 MSTORE POP DUP2 ADD SWAP1 PUSH3 0x4F9 SWAP2 SWAP1 PUSH3 0xB96 JUMP JUMPDEST PUSH1 0x1 JUMPDEST PUSH3 0x5AE JUMPI PUSH3 0x50B PUSH3 0xBD5 JUMP JUMPDEST DUP1 PUSH4 0x8C379A0 EQ ISZERO PUSH3 0x56F JUMPI POP PUSH3 0x523 PUSH3 0xC30 JUMP JUMPDEST DUP1 PUSH3 0x530 JUMPI POP PUSH3 0x571 JUMP JUMPDEST DUP1 PUSH1 0x40 MLOAD PUSH32 0x8C379A000000000000000000000000000000000000000000000000000000000 DUP2 MSTORE PUSH1 0x4 ADD PUSH3 0x566 SWAP2 SWAP1 PUSH3 0xD1E JUMP JUMPDEST PUSH1 0x40 MLOAD DUP1 SWAP2 SUB SWAP1 REVERT JUMPDEST POP JUMPDEST PUSH1 0x40 MLOAD PUSH32 0x8C379A000000000000000000000000000000000000000000000000000000000 DUP2 MSTORE PUSH1 0x4 ADD PUSH3 0x5A5 SWAP1 PUSH3 0xDB8 JUMP JUMPDEST PUSH1 0x40 MLOAD DUP1 SWAP2 SUB SWAP1 REVERT JUMPDEST PUSH4 0xF23A6E61 PUSH1 0xE0 SHL PUSH28 0xFFFFFFFFFFFFFFFFFFFFFFFFFFFFFFFFFFFFFFFFFFFFFFFFFFFFFFFF NOT AND DUP2 PUSH28 0xFFFFFFFFFFFFFFFFFFFFFFFFFFFFFFFFFFFFFFFFFFFFFFFFFFFFFFFF NOT AND EQ PUSH3 0x638 JUMPI PUSH1 0x40 MLOAD PUSH32 0x8C379A000000000000000000000000000000000000000000000000000000000 DUP2 MSTORE PUSH1 0x4 ADD PUSH3 0x62F SWAP1 PUSH3 0xE50 JUMP JUMPDEST PUSH1 0x40 MLOAD DUP1 SWAP2 SUB SWAP1 REVERT JUMPDEST POP JUMPDEST POP POP POP POP POP POP JUMP JUMPDEST PUSH1 0x0 DUP1 DUP3 EXTCODESIZE SWAP1 POP PUSH1 0x0 DUP2 GT SWAP2 POP POP SWAP2 SWAP1 POP JUMP JUMPDEST DUP3 DUP1 SLOAD PUSH3 0x663 SWAP1 PUSH3 0x7CC JUMP JUMPDEST SWAP1 PUSH1 0x0 MSTORE PUSH1 0x20 PUSH1 0x0 KECCAK256 SWAP1 PUSH1 0x1F ADD PUSH1 0x20 SWAP1 DIV DUP2 ADD SWAP3 DUP3 PUSH3 0x687 JUMPI PUSH1 0x0 DUP6 SSTORE PUSH3 0x6D3 JUMP JUMPDEST DUP3 PUSH1 0x1F LT PUSH3 0x6A2 JUMPI DUP1 MLOAD PUSH1 0xFF NOT AND DUP4 DUP1 ADD OR DUP6 SSTORE PUSH3 0x6D3 JUMP JUMPDEST DUP3 DUP1 ADD PUSH1 0x1 ADD DUP6 SSTORE DUP3 ISZERO PUSH3 0x6D3 JUMPI SWAP2 DUP3 ADD JUMPDEST DUP3 DUP2 GT ISZERO PUSH3 0x6D2 JUMPI DUP3 MLOAD DUP3 SSTORE SWAP2 PUSH1 0x20 ADD SWAP2 SWAP1 PUSH1 0x1 ADD SWAP1 PUSH3 0x6B5 JUMP JUMPDEST JUMPDEST POP SWAP1 POP PUSH3 0x6E2 SWAP2 SWAP1 PUSH3 0x77E JUMP JUMPDEST POP SWAP1 JUMP JUMPDEST DUP3 DUP1 SLOAD PUSH3 0x6F4 SWAP1 PUSH3 0x7CC JUMP JUMPDEST SWAP1 PUSH1 0x0 MSTORE PUSH1 0x20 PUSH1 0x0 KECCAK256 SWAP1 PUSH1 0x1F ADD PUSH1 0x20 SWAP1 DIV DUP2 ADD SWAP3 DUP3 PUSH3 0x718 JUMPI PUSH1 0x0 DUP6 SSTORE PUSH3 0x76B JUMP JUMPDEST DUP3 PUSH1 0x1F LT PUSH3 0x72B JUMPI DUP1 SLOAD DUP6 SSTORE PUSH3 0x76B JUMP JUMPDEST DUP3 DUP1 ADD PUSH1 0x1 ADD DUP6 SSTORE DUP3 ISZERO PUSH3 0x76B JUMPI PUSH1 0x0 MSTORE PUSH1 0x20 PUSH1 0x0 KECCAK256 SWAP2 PUSH1 0x1F ADD PUSH1 0x20 SWAP1 DIV DUP3 ADD JUMPDEST DUP3 DUP2 GT ISZERO PUSH3 0x76A JUMPI DUP3 SLOAD DUP3 SSTORE SWAP2 PUSH1 0x1 ADD SWAP2 SWAP1 PUSH1 0x1 ADD SWAP1 PUSH3 0x74D JUMP JUMPDEST JUMPDEST POP SWAP1 POP PUSH3 0x77A SWAP2 SWAP1 PUSH3 0x77E JUMP JUMPDEST POP SWAP1 JUMP JUMPDEST JUMPDEST DUP1 DUP3 GT ISZERO PUSH3 0x799 JUMPI PUSH1 0x0 DUP2 PUSH1 0x0 SWAP1 SSTORE POP PUSH1 0x1 ADD PUSH3 0x77F JUMP JUMPDEST POP SWAP1 JUMP JUMPDEST PUSH32 0x4E487B7100000000000000000000000000000000000000000000000000000000 PUSH1 0x0 MSTORE PUSH1 0x22 PUSH1 0x4 MSTORE PUSH1 0x24 PUSH1 0x0 REVERT JUMPDEST PUSH1 0x0 PUSH1 0x2 DUP3 DIV SWAP1 POP PUSH1 0x1 DUP3 AND DUP1 PUSH3 0x7E5 JUMPI PUSH1 0x7F DUP3 AND SWAP2 POP JUMPDEST PUSH1 0x20 DUP3 LT DUP2 EQ ISZERO PUSH3 0x7FC JUMPI PUSH3 0x7FB PUSH3 0x79D JUMP JUMPDEST JUMPDEST POP SWAP2 SWAP1 POP JUMP JUMPDEST PUSH1 0x0 DUP2 SWAP1 POP SWAP2 SWAP1 POP JUMP JUMPDEST PUSH32 0x4E487B7100000000000000000000000000000000000000000000000000000000 PUSH1 0x0 MSTORE PUSH1 0x11 PUSH1 0x4 MSTORE PUSH1 0x24 PUSH1 0x0 REVERT JUMPDEST PUSH1 0x0 PUSH3 0x848 DUP3 PUSH3 0x802 JUMP JUMPDEST SWAP2 POP PUSH3 0x855 DUP4 PUSH3 0x802 JUMP JUMPDEST SWAP3 POP DUP3 PUSH32 0xFFFFFFFFFFFFFFFFFFFFFFFFFFFFFFFFFFFFFFFFFFFFFFFFFFFFFFFFFFFFFFFF SUB DUP3 GT ISZERO PUSH3 0x88D JUMPI PUSH3 0x88C PUSH3 0x80C JUMP JUMPDEST JUMPDEST DUP3 DUP3 ADD SWAP1 POP SWAP3 SWAP2 POP POP JUMP JUMPDEST PUSH1 0x0 DUP3 DUP3 MSTORE PUSH1 0x20 DUP3 ADD SWAP1 POP SWAP3 SWAP2 POP POP JUMP JUMPDEST PUSH32 0x455243313135353A206D696E7420746F20746865207A65726F20616464726573 PUSH1 0x0 DUP3 ADD MSTORE PUSH32 0x7300000000000000000000000000000000000000000000000000000000000000 PUSH1 0x20 DUP3 ADD MSTORE POP JUMP JUMPDEST PUSH1 0x0 PUSH3 0x907 PUSH1 0x21 DUP4 PUSH3 0x898 JUMP JUMPDEST SWAP2 POP PUSH3 0x914 DUP3 PUSH3 0x8A9 JUMP JUMPDEST PUSH1 0x40 DUP3 ADD SWAP1 POP SWAP2 SWAP1 POP JUMP JUMPDEST PUSH1 0x0 PUSH1 0x20 DUP3 ADD SWAP1 POP DUP2 DUP2 SUB PUSH1 0x0 DUP4 ADD MSTORE PUSH3 0x93A DUP2 PUSH3 0x8F8 JUMP JUMPDEST SWAP1 POP SWAP2 SWAP1 POP JUMP JUMPDEST PUSH3 0x94C DUP2 PUSH3 0x802 JUMP JUMPDEST DUP3 MSTORE POP POP JUMP JUMPDEST PUSH1 0x0 PUSH1 0x40 DUP3 ADD SWAP1 POP PUSH3 0x969 PUSH1 0x0 DUP4 ADD DUP6 PUSH3 0x941 JUMP JUMPDEST PUSH3 0x978 PUSH1 0x20 DUP4 ADD DUP5 PUSH3 0x941 JUMP JUMPDEST SWAP4 SWAP3 POP POP POP JUMP JUMPDEST PUSH32 0x4E487B7100000000000000000000000000000000000000000000000000000000 PUSH1 0x0 MSTORE PUSH1 0x41 PUSH1 0x4 MSTORE PUSH1 0x24 PUSH1 0x0 REVERT JUMPDEST PUSH32 0x4E487B7100000000000000000000000000000000000000000000000000000000 PUSH1 0x0 MSTORE PUSH1 0x32 PUSH1 0x4 MSTORE PUSH1 0x24 PUSH1 0x0 REVERT JUMPDEST PUSH1 0x0 PUSH20 0xFFFFFFFFFFFFFFFFFFFFFFFFFFFFFFFFFFFFFFFF DUP3 AND SWAP1 POP SWAP2 SWAP1 POP JUMP JUMPDEST PUSH1 0x0 PUSH3 0xA0A DUP3 PUSH3 0x9DD JUMP JUMPDEST SWAP1 POP SWAP2 SWAP1 POP JUMP JUMPDEST PUSH3 0xA1C DUP2 PUSH3 0x9FD JUMP JUMPDEST DUP3 MSTORE POP POP JUMP JUMPDEST PUSH1 0x0 DUP2 MLOAD SWAP1 POP SWAP2 SWAP1 POP JUMP JUMPDEST PUSH1 0x0 DUP3 DUP3 MSTORE PUSH1 0x20 DUP3 ADD SWAP1 POP SWAP3 SWAP2 POP POP JUMP JUMPDEST PUSH1 0x0 JUMPDEST DUP4 DUP2 LT ISZERO PUSH3 0xA5E JUMPI DUP1 DUP3 ADD MLOAD DUP2 DUP5 ADD MSTORE PUSH1 0x20 DUP2 ADD SWAP1 POP PUSH3 0xA41 JUMP JUMPDEST DUP4 DUP2 GT ISZERO PUSH3 0xA6E JUMPI PUSH1 0x0 DUP5 DUP5 ADD MSTORE JUMPDEST POP POP POP POP JUMP JUMPDEST PUSH1 0x0 PUSH1 0x1F NOT PUSH1 0x1F DUP4 ADD AND SWAP1 POP SWAP2 SWAP1 POP JUMP JUMPDEST PUSH1 0x0 PUSH3 0xA92 DUP3 PUSH3 0xA22 JUMP JUMPDEST PUSH3 0xA9E DUP2 DUP6 PUSH3 0xA2D JUMP JUMPDEST SWAP4 POP PUSH3 0xAB0 DUP2 DUP6 PUSH1 0x20 DUP7 ADD PUSH3 0xA3E JUMP JUMPDEST PUSH3 0xABB DUP2 PUSH3 0xA74 JUMP JUMPDEST DUP5 ADD SWAP2 POP POP SWAP3 SWAP2 POP POP JUMP JUMPDEST PUSH1 0x0 PUSH1 0xA0 DUP3 ADD SWAP1 POP PUSH3 0xADD PUSH1 0x0 DUP4 ADD DUP9 PUSH3 0xA11 JUMP JUMPDEST PUSH3 0xAEC PUSH1 0x20 DUP4 ADD DUP8 PUSH3 0xA11 JUMP JUMPDEST PUSH3 0xAFB PUSH1 0x40 DUP4 ADD DUP7 PUSH3 0x941 JUMP JUMPDEST PUSH3 0xB0A PUSH1 0x60 DUP4 ADD DUP6 PUSH3 0x941 JUMP JUMPDEST DUP2 DUP2 SUB PUSH1 0x80 DUP4 ADD MSTORE PUSH3 0xB1E DUP2 DUP5 PUSH3 0xA85 JUMP JUMPDEST SWAP1 POP SWAP7 SWAP6 POP POP POP POP POP POP JUMP JUMPDEST PUSH1 0x0 PUSH1 0x40 MLOAD SWAP1 POP SWAP1 JUMP JUMPDEST PUSH1 0x0 DUP1 REVERT JUMPDEST PUSH1 0x0 PUSH32 0xFFFFFFFF00000000000000000000000000000000000000000000000000000000 DUP3 AND SWAP1 POP SWAP2 SWAP1 POP JUMP JUMPDEST PUSH3 0xB70 DUP2 PUSH3 0xB39 JUMP JUMPDEST DUP2 EQ PUSH3 0xB7C JUMPI PUSH1 0x0 DUP1 REVERT JUMPDEST POP JUMP JUMPDEST PUSH1 0x0 DUP2 MLOAD SWAP1 POP PUSH3 0xB90 DUP2 PUSH3 0xB65 JUMP JUMPDEST SWAP3 SWAP2 POP POP JUMP JUMPDEST PUSH1 0x0 PUSH1 0x20 DUP3 DUP5 SUB SLT ISZERO PUSH3 0xBAF JUMPI PUSH3 0xBAE PUSH3 0xB34 JUMP JUMPDEST JUMPDEST PUSH1 0x0 PUSH3 0xBBF DUP5 DUP3 DUP6 ADD PUSH3 0xB7F JUMP JUMPDEST SWAP2 POP POP SWAP3 SWAP2 POP POP JUMP JUMPDEST PUSH1 0x0 DUP2 PUSH1 0xE0 SHR SWAP1 POP SWAP2 SWAP1 POP JUMP JUMPDEST PUSH1 0x0 PUSH1 0x3 RETURNDATASIZE GT ISZERO PUSH3 0xBF7 JUMPI PUSH1 0x4 PUSH1 0x0 DUP1 RETURNDATACOPY PUSH3 0xBF4 PUSH1 0x0 MLOAD PUSH3 0xBC8 JUMP JUMPDEST SWAP1 POP JUMPDEST SWAP1 JUMP JUMPDEST PUSH3 0xC05 DUP3 PUSH3 0xA74 JUMP JUMPDEST DUP2 ADD DUP2 DUP2 LT PUSH8 0xFFFFFFFFFFFFFFFF DUP3 GT OR ISZERO PUSH3 0xC27 JUMPI PUSH3 0xC26 PUSH3 0x97F JUMP JUMPDEST JUMPDEST DUP1 PUSH1 0x40 MSTORE POP POP POP JUMP JUMPDEST PUSH1 0x0 PUSH1 0x44 RETURNDATASIZE LT ISZERO PUSH3 0xC42 JUMPI PUSH3 0xCCF JUMP JUMPDEST PUSH3 0xC4C PUSH3 0xB2A JUMP JUMPDEST PUSH1 0x4 RETURNDATASIZE SUB PUSH1 0x4 DUP3 RETURNDATACOPY DUP1 MLOAD RETURNDATASIZE PUSH1 0x24 DUP3 ADD GT PUSH8 0xFFFFFFFFFFFFFFFF DUP3 GT OR ISZERO PUSH3 0xC76 JUMPI POP POP PUSH3 0xCCF JUMP JUMPDEST DUP1 DUP3 ADD DUP1 MLOAD PUSH8 0xFFFFFFFFFFFFFFFF DUP2 GT ISZERO PUSH3 0xC96 JUMPI POP POP POP POP PUSH3 0xCCF JUMP JUMPDEST DUP1 PUSH1 0x20 DUP4 ADD ADD PUSH1 0x4 RETURNDATASIZE SUB DUP6 ADD DUP2 GT ISZERO PUSH3 0xCB5 JUMPI POP POP POP POP POP PUSH3 0xCCF JUMP JUMPDEST PUSH3 0xCC6 DUP3 PUSH1 0x20 ADD DUP6 ADD DUP7 PUSH3 0xBFA JUMP JUMPDEST DUP3 SWAP6 POP POP POP POP POP POP JUMPDEST SWAP1 JUMP JUMPDEST PUSH1 0x0 DUP2 MLOAD SWAP1 POP SWAP2 SWAP1 POP JUMP JUMPDEST PUSH1 0x0 PUSH3 0xCEA DUP3 PUSH3 0xCD2 JUMP JUMPDEST PUSH3 0xCF6 DUP2 DUP6 PUSH3 0x898 JUMP JUMPDEST SWAP4 POP PUSH3 0xD08 DUP2 DUP6 PUSH1 0x20 DUP7 ADD PUSH3 0xA3E JUMP JUMPDEST PUSH3 0xD13 DUP2 PUSH3 0xA74 JUMP JUMPDEST DUP5 ADD SWAP2 POP POP SWAP3 SWAP2 POP POP JUMP JUMPDEST PUSH1 0x0 PUSH1 0x20 DUP3 ADD SWAP1 POP DUP2 DUP2 SUB PUSH1 0x0 DUP4 ADD MSTORE PUSH3 0xD3A DUP2 DUP5 PUSH3 0xCDD JUMP JUMPDEST SWAP1 POP SWAP3 SWAP2 POP POP JUMP JUMPDEST PUSH32 0x455243313135353A207472616E7366657220746F206E6F6E2045524331313535 PUSH1 0x0 DUP3 ADD MSTORE PUSH32 0x526563656976657220696D706C656D656E746572000000000000000000000000 PUSH1 0x20 DUP3 ADD MSTORE POP JUMP JUMPDEST PUSH1 0x0 PUSH3 0xDA0 PUSH1 0x34 DUP4 PUSH3 0x898 JUMP JUMPDEST SWAP2 POP PUSH3 0xDAD DUP3 PUSH3 0xD42 JUMP JUMPDEST PUSH1 0x40 DUP3 ADD SWAP1 POP SWAP2 SWAP1 POP JUMP JUMPDEST PUSH1 0x0 PUSH1 0x20 DUP3 ADD SWAP1 POP DUP2 DUP2 SUB PUSH1 0x0 DUP4 ADD MSTORE PUSH3 0xDD3 DUP2 PUSH3 0xD91 JUMP JUMPDEST SWAP1 POP SWAP2 SWAP1 POP JUMP JUMPDEST PUSH32 0x455243313135353A204552433131353552656365697665722072656A65637465 PUSH1 0x0 DUP3 ADD MSTORE PUSH32 0x6420746F6B656E73000000000000000000000000000000000000000000000000 PUSH1 0x20 DUP3 ADD MSTORE POP JUMP JUMPDEST PUSH1 0x0 PUSH3 0xE38 PUSH1 0x28 DUP4 PUSH3 0x898 JUMP JUMPDEST SWAP2 POP PUSH3 0xE45 DUP3 PUSH3 0xDDA JUMP JUMPDEST PUSH1 0x40 DUP3 ADD SWAP1 POP SWAP2 SWAP1 POP JUMP JUMPDEST PUSH1 0x0 PUSH1 0x20 DUP3 ADD SWAP1 POP DUP2 DUP2 SUB PUSH1 0x0 DUP4 ADD MSTORE PUSH3 0xE6B DUP2 PUSH3 0xE29 JUMP JUMPDEST SWAP1 POP SWAP2 SWAP1 POP JUMP JUMPDEST PUSH2 0x3398 DUP1 PUSH3 0xE82 PUSH1 0x0 CODECOPY PUSH1 0x0 RETURN INVALID PUSH1 0x80 PUSH1 0x40 MSTORE CALLVALUE DUP1 ISZERO PUSH2 0x10 JUMPI PUSH1 0x0 DUP1 REVERT JUMPDEST POP PUSH1 0x4 CALLDATASIZE LT PUSH2 0xFF JUMPI PUSH1 0x0 CALLDATALOAD PUSH1 0xE0 SHR DUP1 PUSH4 0x9DC29FAC GT PUSH2 0x97 JUMPI DUP1 PUSH4 0xE985E9C5 GT PUSH2 0x66 JUMPI DUP1 PUSH4 0xE985E9C5 EQ PUSH2 0x298 JUMPI DUP1 PUSH4 0xED70554D EQ PUSH2 0x2C8 JUMPI DUP1 PUSH4 0xF242432A EQ PUSH2 0x2F8 JUMPI DUP1 PUSH4 0xF2FDE38B EQ PUSH2 0x314 JUMPI PUSH2 0xFF JUMP JUMPDEST DUP1 PUSH4 0x9DC29FAC EQ PUSH2 0x226 JUMPI DUP1 PUSH4 0xA22CB465 EQ PUSH2 0x242 JUMPI DUP1 PUSH4 0xD85D3D27 EQ PUSH2 0x25E JUMPI DUP1 PUSH4 0xE8A3D485 EQ PUSH2 0x27A JUMPI PUSH2 0xFF JUMP JUMPDEST DUP1 PUSH4 0x2EB2C2D6 GT PUSH2 0xD3 JUMPI DUP1 PUSH4 0x2EB2C2D6 EQ PUSH2 0x1B2 JUMPI DUP1 PUSH4 0x4E1273F4 EQ PUSH2 0x1CE JUMPI DUP1 PUSH4 0x715018A6 EQ PUSH2 0x1FE JUMPI DUP1 PUSH4 0x8DA5CB5B EQ PUSH2 0x208 JUMPI PUSH2 0xFF JUMP JUMPDEST DUP1 PUSH3 0xFDD58E EQ PUSH2 0x104 JUMPI DUP1 PUSH4 0x1FFC9A7 EQ PUSH2 0x134 JUMPI DUP1 PUSH4 0x673D7D0 EQ PUSH2 0x164 JUMPI DUP1 PUSH4 0xE89341C EQ PUSH2 0x182 JUMPI JUMPDEST PUSH1 0x0 DUP1 REVERT JUMPDEST PUSH2 0x11E PUSH1 0x4 DUP1 CALLDATASIZE SUB DUP2 ADD SWAP1 PUSH2 0x119 SWAP2 SWAP1 PUSH2 0x1DA6 JUMP JUMPDEST PUSH2 0x330 JUMP JUMPDEST PUSH1 0x40 MLOAD PUSH2 0x12B SWAP2 SWAP1 PUSH2 0x1DF5 JUMP JUMPDEST PUSH1 0x40 MLOAD DUP1 SWAP2 SUB SWAP1 RETURN JUMPDEST PUSH2 0x14E PUSH1 0x4 DUP1 CALLDATASIZE SUB DUP2 ADD SWAP1 PUSH2 0x149 SWAP2 SWAP1 PUSH2 0x1E68 JUMP JUMPDEST PUSH2 0x3F9 JUMP JUMPDEST PUSH1 0x40 MLOAD PUSH2 0x15B SWAP2 SWAP1 PUSH2 0x1EB0 JUMP JUMPDEST PUSH1 0x40 MLOAD DUP1 SWAP2 SUB SWAP1 RETURN JUMPDEST PUSH2 0x16C PUSH2 0x4DB JUMP JUMPDEST PUSH1 0x40 MLOAD PUSH2 0x179 SWAP2 SWAP1 PUSH2 0x1DF5 JUMP JUMPDEST PUSH1 0x40 MLOAD DUP1 SWAP2 SUB SWAP1 RETURN JUMPDEST PUSH2 0x19C PUSH1 0x4 DUP1 CALLDATASIZE SUB DUP2 ADD SWAP1 PUSH2 0x197 SWAP2 SWAP1 PUSH2 0x1ECB JUMP JUMPDEST PUSH2 0x4E1 JUMP JUMPDEST PUSH1 0x40 MLOAD PUSH2 0x1A9 SWAP2 SWAP1 PUSH2 0x1F91 JUMP JUMPDEST PUSH1 0x40 MLOAD DUP1 SWAP2 SUB SWAP1 RETURN JUMPDEST PUSH2 0x1CC PUSH1 0x4 DUP1 CALLDATASIZE SUB DUP2 ADD SWAP1 PUSH2 0x1C7 SWAP2 SWAP1 PUSH2 0x21B0 JUMP JUMPDEST PUSH2 0x575 JUMP JUMPDEST STOP JUMPDEST PUSH2 0x1E8 PUSH1 0x4 DUP1 CALLDATASIZE SUB DUP2 ADD SWAP1 PUSH2 0x1E3 SWAP2 SWAP1 PUSH2 0x2342 JUMP JUMPDEST PUSH2 0x616 JUMP JUMPDEST PUSH1 0x40 MLOAD PUSH2 0x1F5 SWAP2 SWAP1 PUSH2 0x2478 JUMP JUMPDEST PUSH1 0x40 MLOAD DUP1 SWAP2 SUB SWAP1 RETURN JUMPDEST PUSH2 0x206 PUSH2 0x72F JUMP JUMPDEST STOP JUMPDEST PUSH2 0x210 PUSH2 0x7B7 JUMP JUMPDEST PUSH1 0x40 MLOAD PUSH2 0x21D SWAP2 SWAP1 PUSH2 0x24A9 JUMP JUMPDEST PUSH1 0x40 MLOAD DUP1 SWAP2 SUB SWAP1 RETURN JUMPDEST PUSH2 0x240 PUSH1 0x4 DUP1 CALLDATASIZE SUB DUP2 ADD SWAP1 PUSH2 0x23B SWAP2 SWAP1 PUSH2 0x1DA6 JUMP JUMPDEST PUSH2 0x7E1 JUMP JUMPDEST STOP JUMPDEST PUSH2 0x25C PUSH1 0x4 DUP1 CALLDATASIZE SUB DUP2 ADD SWAP1 PUSH2 0x257 SWAP2 SWAP1 PUSH2 0x24F0 JUMP JUMPDEST PUSH2 0x829 JUMP JUMPDEST STOP JUMPDEST PUSH2 0x278 PUSH1 0x4 DUP1 CALLDATASIZE SUB DUP2 ADD SWAP1 PUSH2 0x273 SWAP2 SWAP1 PUSH2 0x25D1 JUMP JUMPDEST PUSH2 0x83F JUMP JUMPDEST STOP JUMPDEST PUSH2 0x282 PUSH2 0x8B3 JUMP JUMPDEST PUSH1 0x40 MLOAD PUSH2 0x28F SWAP2 SWAP1 PUSH2 0x1F91 JUMP JUMPDEST PUSH1 0x40 MLOAD DUP1 SWAP2 SUB SWAP1 RETURN JUMPDEST PUSH2 0x2B2 PUSH1 0x4 DUP1 CALLDATASIZE SUB DUP2 ADD SWAP1 PUSH2 0x2AD SWAP2 SWAP1 PUSH2 0x261A JUMP JUMPDEST PUSH2 0x941 JUMP JUMPDEST PUSH1 0x40 MLOAD PUSH2 0x2BF SWAP2 SWAP1 PUSH2 0x1EB0 JUMP JUMPDEST PUSH1 0x40 MLOAD DUP1 SWAP2 SUB SWAP1 RETURN JUMPDEST PUSH2 0x2E2 PUSH1 0x4 DUP1 CALLDATASIZE SUB DUP2 ADD SWAP1 PUSH2 0x2DD SWAP2 SWAP1 PUSH2 0x1ECB JUMP JUMPDEST PUSH2 0x9D5 JUMP JUMPDEST PUSH1 0x40 MLOAD PUSH2 0x2EF SWAP2 SWAP1 PUSH2 0x1F91 JUMP JUMPDEST PUSH1 0x40 MLOAD DUP1 SWAP2 SUB SWAP1 RETURN JUMPDEST PUSH2 0x312 PUSH1 0x4 DUP1 CALLDATASIZE SUB DUP2 ADD SWAP1 PUSH2 0x30D SWAP2 SWAP1 PUSH2 0x265A JUMP JUMPDEST PUSH2 0xA75 JUMP JUMPDEST STOP JUMPDEST PUSH2 0x32E PUSH1 0x4 DUP1 CALLDATASIZE SUB DUP2 ADD SWAP1 PUSH2 0x329 SWAP2 SWAP1 PUSH2 0x26F1 JUMP JUMPDEST PUSH2 0xB16 JUMP JUMPDEST STOP JUMPDEST PUSH1 0x0 DUP1 PUSH20 0xFFFFFFFFFFFFFFFFFFFFFFFFFFFFFFFFFFFFFFFF AND DUP4 PUSH20 0xFFFFFFFFFFFFFFFFFFFFFFFFFFFFFFFFFFFFFFFF AND EQ ISZERO PUSH2 0x3A1 JUMPI PUSH1 0x40 MLOAD PUSH32 0x8C379A000000000000000000000000000000000000000000000000000000000 DUP2 MSTORE PUSH1 0x4 ADD PUSH2 0x398 SWAP1 PUSH2 0x2790 JUMP JUMPDEST PUSH1 0x40 MLOAD DUP1 SWAP2 SUB SWAP1 REVERT JUMPDEST PUSH1 0x0 DUP1 DUP4 DUP2 MSTORE PUSH1 0x20 ADD SWAP1 DUP2 MSTORE PUSH1 0x20 ADD PUSH1 0x0 KECCAK256 PUSH1 0x0 DUP5 PUSH20 0xFFFFFFFFFFFFFFFFFFFFFFFFFFFFFFFFFFFFFFFF AND PUSH20 0xFFFFFFFFFFFFFFFFFFFFFFFFFFFFFFFFFFFFFFFF AND DUP2 MSTORE PUSH1 0x20 ADD SWAP1 DUP2 MSTORE PUSH1 0x20 ADD PUSH1 0x0 KECCAK256 SLOAD SWAP1 POP SWAP3 SWAP2 POP POP JUMP JUMPDEST PUSH1 0x0 PUSH32 0xD9B67A2600000000000000000000000000000000000000000000000000000000 PUSH28 0xFFFFFFFFFFFFFFFFFFFFFFFFFFFFFFFFFFFFFFFFFFFFFFFFFFFFFFFF NOT AND DUP3 PUSH28 0xFFFFFFFFFFFFFFFFFFFFFFFFFFFFFFFFFFFFFFFFFFFFFFFFFFFFFFFF NOT AND EQ DUP1 PUSH2 0x4C4 JUMPI POP PUSH32 0xE89341C00000000000000000000000000000000000000000000000000000000 PUSH28 0xFFFFFFFFFFFFFFFFFFFFFFFFFFFFFFFFFFFFFFFFFFFFFFFFFFFFFFFF NOT AND DUP3 PUSH28 0xFFFFFFFFFFFFFFFFFFFFFFFFFFFFFFFFFFFFFFFFFFFFFFFFFFFFFFFF NOT AND EQ JUMPDEST DUP1 PUSH2 0x4D4 JUMPI POP PUSH2 0x4D3 DUP3 PUSH2 0xC21 JUMP JUMPDEST JUMPDEST SWAP1 POP SWAP2 SWAP1 POP JUMP JUMPDEST PUSH1 0x4 SLOAD DUP2 JUMP JUMPDEST PUSH1 0x60 PUSH1 0x2 DUP1 SLOAD PUSH2 0x4F0 SWAP1 PUSH2 0x27DF JUMP JUMPDEST DUP1 PUSH1 0x1F ADD PUSH1 0x20 DUP1 SWAP2 DIV MUL PUSH1 0x20 ADD PUSH1 0x40 MLOAD SWAP1 DUP2 ADD PUSH1 0x40 MSTORE DUP1 SWAP3 SWAP2 SWAP1 DUP2 DUP2 MSTORE PUSH1 0x20 ADD DUP3 DUP1 SLOAD PUSH2 0x51C SWAP1 PUSH2 0x27DF JUMP JUMPDEST DUP1 ISZERO PUSH2 0x569 JUMPI DUP1 PUSH1 0x1F LT PUSH2 0x53E JUMPI PUSH2 0x100 DUP1 DUP4 SLOAD DIV MUL DUP4 MSTORE SWAP2 PUSH1 0x20 ADD SWAP2 PUSH2 0x569 JUMP JUMPDEST DUP3 ADD SWAP2 SWAP1 PUSH1 0x0 MSTORE PUSH1 0x20 PUSH1 0x0 KECCAK256 SWAP1 JUMPDEST DUP2 SLOAD DUP2 MSTORE SWAP1 PUSH1 0x1 ADD SWAP1 PUSH1 0x20 ADD DUP1 DUP4 GT PUSH2 0x54C JUMPI DUP3 SWAP1 SUB PUSH1 0x1F AND DUP3 ADD SWAP2 JUMPDEST POP POP POP POP POP SWAP1 POP SWAP2 SWAP1 POP JUMP JUMPDEST PUSH2 0x57D PUSH2 0xC8B JUMP JUMPDEST PUSH20 0xFFFFFFFFFFFFFFFFFFFFFFFFFFFFFFFFFFFFFFFF AND DUP6 PUSH20 0xFFFFFFFFFFFFFFFFFFFFFFFFFFFFFFFFFFFFFFFF AND EQ DUP1 PUSH2 0x5C3 JUMPI POP PUSH2 0x5C2 DUP6 PUSH2 0x5BD PUSH2 0xC8B JUMP JUMPDEST PUSH2 0x941 JUMP JUMPDEST JUMPDEST PUSH2 0x602 JUMPI PUSH1 0x40 MLOAD PUSH32 0x8C379A000000000000000000000000000000000000000000000000000000000 DUP2 MSTORE PUSH1 0x4 ADD PUSH2 0x5F9 SWAP1 PUSH2 0x2883 JUMP JUMPDEST PUSH1 0x40 MLOAD DUP1 SWAP2 SUB SWAP1 REVERT JUMPDEST PUSH2 0x60F DUP6 DUP6 DUP6 DUP6 DUP6 PUSH2 0xC93 JUMP JUMPDEST POP POP POP POP POP JUMP JUMPDEST PUSH1 0x60 DUP2 MLOAD DUP4 MLOAD EQ PUSH2 0x65C JUMPI PUSH1 0x40 MLOAD PUSH32 0x8C379A000000000000000000000000000000000000000000000000000000000 DUP2 MSTORE PUSH1 0x4 ADD PUSH2 0x653 SWAP1 PUSH2 0x2915 JUMP JUMPDEST PUSH1 0x40 MLOAD DUP1 SWAP2 SUB SWAP1 REVERT JUMPDEST PUSH1 0x0 DUP4 MLOAD PUSH8 0xFFFFFFFFFFFFFFFF DUP2 GT ISZERO PUSH2 0x679 JUMPI PUSH2 0x678 PUSH2 0x1FB8 JUMP JUMPDEST JUMPDEST PUSH1 0x40 MLOAD SWAP1 DUP1 DUP3 MSTORE DUP1 PUSH1 0x20 MUL PUSH1 0x20 ADD DUP3 ADD PUSH1 0x40 MSTORE DUP1 ISZERO PUSH2 0x6A7 JUMPI DUP2 PUSH1 0x20 ADD PUSH1 0x20 DUP3 MUL DUP1 CALLDATASIZE DUP4 CALLDATACOPY DUP1 DUP3 ADD SWAP2 POP POP SWAP1 POP JUMPDEST POP SWAP1 POP PUSH1 0x0 JUMPDEST DUP5 MLOAD DUP2 LT ISZERO PUSH2 0x724 JUMPI PUSH2 0x6F4 DUP6 DUP3 DUP2 MLOAD DUP2 LT PUSH2 0x6CC JUMPI PUSH2 0x6CB PUSH2 0x2935 JUMP JUMPDEST JUMPDEST PUSH1 0x20 MUL PUSH1 0x20 ADD ADD MLOAD DUP6 DUP4 DUP2 MLOAD DUP2 LT PUSH2 0x6E7 JUMPI PUSH2 0x6E6 PUSH2 0x2935 JUMP JUMPDEST JUMPDEST PUSH1 0x20 MUL PUSH1 0x20 ADD ADD MLOAD PUSH2 0x330 JUMP JUMPDEST DUP3 DUP3 DUP2 MLOAD DUP2 LT PUSH2 0x707 JUMPI PUSH2 0x706 PUSH2 0x2935 JUMP JUMPDEST JUMPDEST PUSH1 0x20 MUL PUSH1 0x20 ADD ADD DUP2 DUP2 MSTORE POP POP DUP1 PUSH2 0x71D SWAP1 PUSH2 0x2993 JUMP JUMPDEST SWAP1 POP PUSH2 0x6AD JUMP JUMPDEST POP DUP1 SWAP2 POP POP SWAP3 SWAP2 POP POP JUMP JUMPDEST PUSH2 0x737 PUSH2 0xC8B JUMP JUMPDEST PUSH20 0xFFFFFFFFFFFFFFFFFFFFFFFFFFFFFFFFFFFFFFFF AND PUSH2 0x755 PUSH2 0x7B7 JUMP JUMPDEST PUSH20 0xFFFFFFFFFFFFFFFFFFFFFFFFFFFFFFFFFFFFFFFF AND EQ PUSH2 0x7AB JUMPI PUSH1 0x40 MLOAD PUSH32 0x8C379A000000000000000000000000000000000000000000000000000000000 DUP2 MSTORE PUSH1 0x4 ADD PUSH2 0x7A2 SWAP1 PUSH2 0x2A28 JUMP JUMPDEST PUSH1 0x40 MLOAD DUP1 SWAP2 SUB SWAP1 REVERT JUMPDEST PUSH2 0x7B5 PUSH1 0x0 PUSH2 0xFA7 JUMP JUMPDEST JUMP JUMPDEST PUSH1 0x0 PUSH1 0x3 PUSH1 0x0 SWAP1 SLOAD SWAP1 PUSH2 0x100 EXP SWAP1 DIV PUSH20 0xFFFFFFFFFFFFFFFFFFFFFFFFFFFFFFFFFFFFFFFF AND SWAP1 POP SWAP1 JUMP JUMPDEST DUP2 PUSH20 0xFFFFFFFFFFFFFFFFFFFFFFFFFFFFFFFFFFFFFFFF AND CALLER PUSH20 0xFFFFFFFFFFFFFFFFFFFFFFFFFFFFFFFFFFFFFFFF AND EQ PUSH2 0x819 JUMPI PUSH1 0x0 DUP1 REVERT JUMPDEST PUSH2 0x825 DUP3 DUP3 PUSH1 0x1 PUSH2 0x106D JUMP JUMPDEST POP POP JUMP JUMPDEST PUSH2 0x83B PUSH2 0x834 PUSH2 0xC8B JUMP JUMPDEST DUP4 DUP4 PUSH2 0x128A JUMP JUMPDEST POP POP JUMP JUMPDEST PUSH1 0x0 CALLER SWAP1 POP PUSH2 0x862 DUP2 PUSH1 0x4 SLOAD PUSH1 0x1 PUSH1 0x40 MLOAD DUP1 PUSH1 0x20 ADD PUSH1 0x40 MSTORE DUP1 PUSH1 0x0 DUP2 MSTORE POP PUSH2 0x13F7 JUMP JUMPDEST PUSH2 0x86B DUP3 PUSH2 0x158D JUMP JUMPDEST DUP2 PUSH1 0x5 PUSH1 0x0 PUSH1 0x4 SLOAD DUP2 MSTORE PUSH1 0x20 ADD SWAP1 DUP2 MSTORE PUSH1 0x20 ADD PUSH1 0x0 KECCAK256 SWAP1 DUP1 MLOAD SWAP1 PUSH1 0x20 ADD SWAP1 PUSH2 0x894 SWAP3 SWAP2 SWAP1 PUSH2 0x1C5B JUMP JUMPDEST POP PUSH1 0x1 PUSH1 0x4 PUSH1 0x0 DUP3 DUP3 SLOAD PUSH2 0x8A8 SWAP2 SWAP1 PUSH2 0x2A48 JUMP JUMPDEST SWAP3 POP POP DUP2 SWAP1 SSTORE POP POP POP JUMP JUMPDEST PUSH1 0x6 DUP1 SLOAD PUSH2 0x8C0 SWAP1 PUSH2 0x27DF JUMP JUMPDEST DUP1 PUSH1 0x1F ADD PUSH1 0x20 DUP1 SWAP2 DIV MUL PUSH1 0x20 ADD PUSH1 0x40 MLOAD SWAP1 DUP2 ADD PUSH1 0x40 MSTORE DUP1 SWAP3 SWAP2 SWAP1 DUP2 DUP2 MSTORE PUSH1 0x20 ADD DUP3 DUP1 SLOAD PUSH2 0x8EC SWAP1 PUSH2 0x27DF JUMP JUMPDEST DUP1 ISZERO PUSH2 0x939 JUMPI DUP1 PUSH1 0x1F LT PUSH2 0x90E JUMPI PUSH2 0x100 DUP1 DUP4 SLOAD DIV MUL DUP4 MSTORE SWAP2 PUSH1 0x20 ADD SWAP2 PUSH2 0x939 JUMP JUMPDEST DUP3 ADD SWAP2 SWAP1 PUSH1 0x0 MSTORE PUSH1 0x20 PUSH1 0x0 KECCAK256 SWAP1 JUMPDEST DUP2 SLOAD DUP2 MSTORE SWAP1 PUSH1 0x1 ADD SWAP1 PUSH1 0x20 ADD DUP1 DUP4 GT PUSH2 0x91C JUMPI DUP3 SWAP1 SUB PUSH1 0x1F AND DUP3 ADD SWAP2 JUMPDEST POP POP POP POP POP DUP2 JUMP JUMPDEST PUSH1 0x0 PUSH1 0x1 PUSH1 0x0 DUP5 PUSH20 0xFFFFFFFFFFFFFFFFFFFFFFFFFFFFFFFFFFFFFFFF AND PUSH20 0xFFFFFFFFFFFFFFFFFFFFFFFFFFFFFFFFFFFFFFFF AND DUP2 MSTORE PUSH1 0x20 ADD SWAP1 DUP2 MSTORE PUSH1 0x20 ADD PUSH1 0x0 KECCAK256 PUSH1 0x0 DUP4 PUSH20 0xFFFFFFFFFFFFFFFFFFFFFFFFFFFFFFFFFFFFFFFF AND PUSH20 0xFFFFFFFFFFFFFFFFFFFFFFFFFFFFFFFFFFFFFFFF AND DUP2 MSTORE PUSH1 0x20 ADD SWAP1 DUP2 MSTORE PUSH1 0x20 ADD PUSH1 0x0 KECCAK256 PUSH1 0x0 SWAP1 SLOAD SWAP1 PUSH2 0x100 EXP SWAP1 DIV PUSH1 0xFF AND SWAP1 POP SWAP3 SWAP2 POP POP JUMP JUMPDEST PUSH1 0x5 PUSH1 0x20 MSTORE DUP1 PUSH1 0x0 MSTORE PUSH1 0x40 PUSH1 0x0 KECCAK256 PUSH1 0x0 SWAP2 POP SWAP1 POP DUP1 SLOAD PUSH2 0x9F4 SWAP1 PUSH2 0x27DF JUMP JUMPDEST DUP1 PUSH1 0x1F ADD PUSH1 0x20 DUP1 SWAP2 DIV MUL PUSH1 0x20 ADD PUSH1 0x40 MLOAD SWAP1 DUP2 ADD PUSH1 0x40 MSTORE DUP1 SWAP3 SWAP2 SWAP1 DUP2 DUP2 MSTORE PUSH1 0x20 ADD DUP3 DUP1 SLOAD PUSH2 0xA20 SWAP1 PUSH2 0x27DF JUMP JUMPDEST DUP1 ISZERO PUSH2 0xA6D JUMPI DUP1 PUSH1 0x1F LT PUSH2 0xA42 JUMPI PUSH2 0x100 DUP1 DUP4 SLOAD DIV MUL DUP4 MSTORE SWAP2 PUSH1 0x20 ADD SWAP2 PUSH2 0xA6D JUMP JUMPDEST DUP3 ADD SWAP2 SWAP1 PUSH1 0x0 MSTORE PUSH1 0x20 PUSH1 0x0 KECCAK256 SWAP1 JUMPDEST DUP2 SLOAD DUP2 MSTORE SWAP1 PUSH1 0x1 ADD SWAP1 PUSH1 0x20 ADD DUP1 DUP4 GT PUSH2 0xA50 JUMPI DUP3 SWAP1 SUB PUSH1 0x1F AND DUP3 ADD SWAP2 JUMPDEST POP POP POP POP POP DUP2 JUMP JUMPDEST PUSH2 0xA7D PUSH2 0xC8B JUMP JUMPDEST PUSH20 0xFFFFFFFFFFFFFFFFFFFFFFFFFFFFFFFFFFFFFFFF AND DUP6 PUSH20 0xFFFFFFFFFFFFFFFFFFFFFFFFFFFFFFFFFFFFFFFF AND EQ DUP1 PUSH2 0xAC3 JUMPI POP PUSH2 0xAC2 DUP6 PUSH2 0xABD PUSH2 0xC8B JUMP JUMPDEST PUSH2 0x941 JUMP JUMPDEST JUMPDEST PUSH2 0xB02 JUMPI PUSH1 0x40 MLOAD PUSH32 0x8C379A000000000000000000000000000000000000000000000000000000000 DUP2 MSTORE PUSH1 0x4 ADD PUSH2 0xAF9 SWAP1 PUSH2 0x2B10 JUMP JUMPDEST PUSH1 0x40 MLOAD DUP1 SWAP2 SUB SWAP1 REVERT JUMPDEST PUSH2 0xB0F DUP6 DUP6 DUP6 DUP6 DUP6 PUSH2 0x15A7 JUMP JUMPDEST POP POP POP POP POP JUMP JUMPDEST PUSH2 0xB1E PUSH2 0xC8B JUMP JUMPDEST PUSH20 0xFFFFFFFFFFFFFFFFFFFFFFFFFFFFFFFFFFFFFFFF AND PUSH2 0xB3C PUSH2 0x7B7 JUMP JUMPDEST PUSH20 0xFFFFFFFFFFFFFFFFFFFFFFFFFFFFFFFFFFFFFFFF AND EQ PUSH2 0xB92 JUMPI PUSH1 0x40 MLOAD PUSH32 0x8C379A000000000000000000000000000000000000000000000000000000000 DUP2 MSTORE PUSH1 0x4 ADD PUSH2 0xB89 SWAP1 PUSH2 0x2A28 JUMP JUMPDEST PUSH1 0x40 MLOAD DUP1 SWAP2 SUB SWAP1 REVERT JUMPDEST PUSH1 0x0 PUSH20 0xFFFFFFFFFFFFFFFFFFFFFFFFFFFFFFFFFFFFFFFF AND DUP2 PUSH20 0xFFFFFFFFFFFFFFFFFFFFFFFFFFFFFFFFFFFFFFFF AND EQ ISZERO PUSH2 0xC02 JUMPI PUSH1 0x40 MLOAD PUSH32 0x8C379A000000000000000000000000000000000000000000000000000000000 DUP2 MSTORE PUSH1 0x4 ADD PUSH2 0xBF9 SWAP1 PUSH2 0x2BA2 JUMP JUMPDEST PUSH1 0x40 MLOAD DUP1 SWAP2 SUB SWAP1 REVERT JUMPDEST PUSH2 0xC0B DUP2 PUSH2 0xFA7 JUMP JUMPDEST POP JUMP JUMPDEST PUSH1 0x0 DUP1 DUP3 EXTCODESIZE SWAP1 POP PUSH1 0x0 DUP2 GT SWAP2 POP POP SWAP2 SWAP1 POP JUMP JUMPDEST PUSH1 0x0 PUSH32 0x1FFC9A700000000000000000000000000000000000000000000000000000000 PUSH28 0xFFFFFFFFFFFFFFFFFFFFFFFFFFFFFFFFFFFFFFFFFFFFFFFFFFFFFFFF NOT AND DUP3 PUSH28 0xFFFFFFFFFFFFFFFFFFFFFFFFFFFFFFFFFFFFFFFFFFFFFFFFFFFFFFFF NOT AND EQ SWAP1 POP SWAP2 SWAP1 POP JUMP JUMPDEST PUSH1 0x0 CALLER SWAP1 POP SWAP1 JUMP JUMPDEST DUP2 MLOAD DUP4 MLOAD EQ PUSH2 0xCD7 JUMPI PUSH1 0x40 MLOAD PUSH32 0x8C379A000000000000000000000000000000000000000000000000000000000 DUP2 MSTORE PUSH1 0x4 ADD PUSH2 0xCCE SWAP1 PUSH2 0x2C34 JUMP JUMPDEST PUSH1 0x40 MLOAD DUP1 SWAP2 SUB SWAP1 REVERT JUMPDEST PUSH1 0x0 PUSH20 0xFFFFFFFFFFFFFFFFFFFFFFFFFFFFFFFFFFFFFFFF AND DUP5 PUSH20 0xFFFFFFFFFFFFFFFFFFFFFFFFFFFFFFFFFFFFFFFF AND EQ ISZERO PUSH2 0xD47 JUMPI PUSH1 0x40 MLOAD PUSH32 0x8C379A000000000000000000000000000000000000000000000000000000000 DUP2 MSTORE PUSH1 0x4 ADD PUSH2 0xD3E SWAP1 PUSH2 0x2CC6 JUMP JUMPDEST PUSH1 0x40 MLOAD DUP1 SWAP2 SUB SWAP1 REVERT JUMPDEST PUSH1 0x0 PUSH2 0xD51 PUSH2 0xC8B JUMP JUMPDEST SWAP1 POP PUSH2 0xD61 DUP2 DUP8 DUP8 DUP8 DUP8 DUP8 PUSH2 0x1829 JUMP JUMPDEST PUSH1 0x0 JUMPDEST DUP5 MLOAD DUP2 LT ISZERO PUSH2 0xF12 JUMPI PUSH1 0x0 DUP6 DUP3 DUP2 MLOAD DUP2 LT PUSH2 0xD82 JUMPI PUSH2 0xD81 PUSH2 0x2935 JUMP JUMPDEST JUMPDEST PUSH1 0x20 MUL PUSH1 0x20 ADD ADD MLOAD SWAP1 POP PUSH1 0x0 DUP6 DUP4 DUP2 MLOAD DUP2 LT PUSH2 0xDA1 JUMPI PUSH2 0xDA0 PUSH2 0x2935 JUMP JUMPDEST JUMPDEST PUSH1 0x20 MUL PUSH1 0x20 ADD ADD MLOAD SWAP1 POP PUSH1 0x0 DUP1 PUSH1 0x0 DUP5 DUP2 MSTORE PUSH1 0x20 ADD SWAP1 DUP2 MSTORE PUSH1 0x20 ADD PUSH1 0x0 KECCAK256 PUSH1 0x0 DUP12 PUSH20 0xFFFFFFFFFFFFFFFFFFFFFFFFFFFFFFFFFFFFFFFF AND PUSH20 0xFFFFFFFFFFFFFFFFFFFFFFFFFFFFFFFFFFFFFFFF AND DUP2 MSTORE PUSH1 0x20 ADD SWAP1 DUP2 MSTORE PUSH1 0x20 ADD PUSH1 0x0 KECCAK256 SLOAD SWAP1 POP DUP2 DUP2 LT ISZERO PUSH2 0xE42 JUMPI PUSH1 0x40 MLOAD PUSH32 0x8C379A000000000000000000000000000000000000000000000000000000000 DUP2 MSTORE PUSH1 0x4 ADD PUSH2 0xE39 SWAP1 PUSH2 0x2D58 JUMP JUMPDEST PUSH1 0x40 MLOAD DUP1 SWAP2 SUB SWAP1 REVERT JUMPDEST DUP2 DUP2 SUB PUSH1 0x0 DUP1 DUP6 DUP2 MSTORE PUSH1 0x20 ADD SWAP1 DUP2 MSTORE PUSH1 0x20 ADD PUSH1 0x0 KECCAK256 PUSH1 0x0 DUP13 PUSH20 0xFFFFFFFFFFFFFFFFFFFFFFFFFFFFFFFFFFFFFFFF AND PUSH20 0xFFFFFFFFFFFFFFFFFFFFFFFFFFFFFFFFFFFFFFFF AND DUP2 MSTORE PUSH1 0x20 ADD SWAP1 DUP2 MSTORE PUSH1 0x20 ADD PUSH1 0x0 KECCAK256 DUP2 SWAP1 SSTORE POP DUP2 PUSH1 0x0 DUP1 DUP6 DUP2 MSTORE PUSH1 0x20 ADD SWAP1 DUP2 MSTORE PUSH1 0x20 ADD PUSH1 0x0 KECCAK256 PUSH1 0x0 DUP12 PUSH20 0xFFFFFFFFFFFFFFFFFFFFFFFFFFFFFFFFFFFFFFFF AND PUSH20 0xFFFFFFFFFFFFFFFFFFFFFFFFFFFFFFFFFFFFFFFF AND DUP2 MSTORE PUSH1 0x20 ADD SWAP1 DUP2 MSTORE PUSH1 0x20 ADD PUSH1 0x0 KECCAK256 PUSH1 0x0 DUP3 DUP3 SLOAD PUSH2 0xEF7 SWAP2 SWAP1 PUSH2 0x2A48 JUMP JUMPDEST SWAP3 POP POP DUP2 SWAP1 SSTORE POP POP POP POP DUP1 PUSH2 0xF0B SWAP1 PUSH2 0x2993 JUMP JUMPDEST SWAP1 POP PUSH2 0xD64 JUMP JUMPDEST POP DUP5 PUSH20 0xFFFFFFFFFFFFFFFFFFFFFFFFFFFFFFFFFFFFFFFF AND DUP7 PUSH20 0xFFFFFFFFFFFFFFFFFFFFFFFFFFFFFFFFFFFFFFFF AND DUP3 PUSH20 0xFFFFFFFFFFFFFFFFFFFFFFFFFFFFFFFFFFFFFFFF AND PUSH32 0x4A39DC06D4C0DBC64B70AF90FD698A233A518AA5D07E595D983B8C0526C8F7FB DUP8 DUP8 PUSH1 0x40 MLOAD PUSH2 0xF89 SWAP3 SWAP2 SWAP1 PUSH2 0x2D78 JUMP JUMPDEST PUSH1 0x40 MLOAD DUP1 SWAP2 SUB SWAP1 LOG4 PUSH2 0xF9F DUP2 DUP8 DUP8 DUP8 DUP8 DUP8 PUSH2 0x1831 JUMP JUMPDEST POP POP POP POP POP POP JUMP JUMPDEST PUSH1 0x0 PUSH1 0x3 PUSH1 0x0 SWAP1 SLOAD SWAP1 PUSH2 0x100 EXP SWAP1 DIV PUSH20 0xFFFFFFFFFFFFFFFFFFFFFFFFFFFFFFFFFFFFFFFF AND SWAP1 POP DUP2 PUSH1 0x3 PUSH1 0x0 PUSH2 0x100 EXP DUP2 SLOAD DUP2 PUSH20 0xFFFFFFFFFFFFFFFFFFFFFFFFFFFFFFFFFFFFFFFF MUL NOT AND SWAP1 DUP4 PUSH20 0xFFFFFFFFFFFFFFFFFFFFFFFFFFFFFFFFFFFFFFFF AND MUL OR SWAP1 SSTORE POP DUP2 PUSH20 0xFFFFFFFFFFFFFFFFFFFFFFFFFFFFFFFFFFFFFFFF AND DUP2 PUSH20 0xFFFFFFFFFFFFFFFFFFFFFFFFFFFFFFFFFFFFFFFF AND PUSH32 0x8BE0079C531659141344CD1FD0A4F28419497F9722A3DAAFE3B4186F6B6457E0 PUSH1 0x40 MLOAD PUSH1 0x40 MLOAD DUP1 SWAP2 SUB SWAP1 LOG3 POP POP JUMP JUMPDEST PUSH1 0x0 PUSH20 0xFFFFFFFFFFFFFFFFFFFFFFFFFFFFFFFFFFFFFFFF AND DUP4 PUSH20 0xFFFFFFFFFFFFFFFFFFFFFFFFFFFFFFFFFFFFFFFF AND EQ ISZERO PUSH2 0x10DD JUMPI PUSH1 0x40 MLOAD PUSH32 0x8C379A000000000000000000000000000000000000000000000000000000000 DUP2 MSTORE PUSH1 0x4 ADD PUSH2 0x10D4 SWAP1 PUSH2 0x2E21 JUMP JUMPDEST PUSH1 0x40 MLOAD DUP1 SWAP2 SUB SWAP1 REVERT JUMPDEST PUSH1 0x0 PUSH2 0x10E7 PUSH2 0xC8B JUMP JUMPDEST SWAP1 POP PUSH2 0x1117 DUP2 DUP6 PUSH1 0x0 PUSH2 0x10F9 DUP8 PUSH2 0x1A09 JUMP JUMPDEST PUSH2 0x1102 DUP8 PUSH2 0x1A09 JUMP JUMPDEST PUSH1 0x40 MLOAD DUP1 PUSH1 0x20 ADD PUSH1 0x40 MSTORE DUP1 PUSH1 0x0 DUP2 MSTORE POP PUSH2 0x1829 JUMP JUMPDEST PUSH1 0x0 DUP1 PUSH1 0x0 DUP6 DUP2 MSTORE PUSH1 0x20 ADD SWAP1 DUP2 MSTORE PUSH1 0x20 ADD PUSH1 0x0 KECCAK256 PUSH1 0x0 DUP7 PUSH20 0xFFFFFFFFFFFFFFFFFFFFFFFFFFFFFFFFFFFFFFFF AND PUSH20 0xFFFFFFFFFFFFFFFFFFFFFFFFFFFFFFFFFFFFFFFF AND DUP2 MSTORE PUSH1 0x20 ADD SWAP1 DUP2 MSTORE PUSH1 0x20 ADD PUSH1 0x0 KECCAK256 SLOAD SWAP1 POP DUP3 DUP2 LT ISZERO PUSH2 0x11AE JUMPI PUSH1 0x40 MLOAD PUSH32 0x8C379A000000000000000000000000000000000000000000000000000000000 DUP2 MSTORE PUSH1 0x4 ADD PUSH2 0x11A5 SWAP1 PUSH2 0x2EB3 JUMP JUMPDEST PUSH1 0x40 MLOAD DUP1 SWAP2 SUB SWAP1 REVERT JUMPDEST DUP3 DUP2 SUB PUSH1 0x0 DUP1 DUP7 DUP2 MSTORE PUSH1 0x20 ADD SWAP1 DUP2 MSTORE PUSH1 0x20 ADD PUSH1 0x0 KECCAK256 PUSH1 0x0 DUP8 PUSH20 0xFFFFFFFFFFFFFFFFFFFFFFFFFFFFFFFFFFFFFFFF AND PUSH20 0xFFFFFFFFFFFFFFFFFFFFFFFFFFFFFFFFFFFFFFFF AND DUP2 MSTORE PUSH1 0x20 ADD SWAP1 DUP2 MSTORE PUSH1 0x20 ADD PUSH1 0x0 KECCAK256 DUP2 SWAP1 SSTORE POP PUSH1 0x0 PUSH20 0xFFFFFFFFFFFFFFFFFFFFFFFFFFFFFFFFFFFFFFFF AND DUP6 PUSH20 0xFFFFFFFFFFFFFFFFFFFFFFFFFFFFFFFFFFFFFFFF AND DUP4 PUSH20 0xFFFFFFFFFFFFFFFFFFFFFFFFFFFFFFFFFFFFFFFF AND PUSH32 0xC3D58168C5AE7397731D063D5BBF3D657854427343F4C083240F7AACAA2D0F62 DUP8 DUP8 PUSH1 0x40 MLOAD PUSH2 0x127B SWAP3 SWAP2 SWAP1 PUSH2 0x2ED3 JUMP JUMPDEST PUSH1 0x40 MLOAD DUP1 SWAP2 SUB SWAP1 LOG4 POP POP POP POP POP JUMP JUMPDEST DUP2 PUSH20 0xFFFFFFFFFFFFFFFFFFFFFFFFFFFFFFFFFFFFFFFF AND DUP4 PUSH20 0xFFFFFFFFFFFFFFFFFFFFFFFFFFFFFFFFFFFFFFFF AND EQ ISZERO PUSH2 0x12F9 JUMPI PUSH1 0x40 MLOAD PUSH32 0x8C379A000000000000000000000000000000000000000000000000000000000 DUP2 MSTORE PUSH1 0x4 ADD PUSH2 0x12F0 SWAP1 PUSH2 0x2F6E JUMP JUMPDEST PUSH1 0x40 MLOAD DUP1 SWAP2 SUB SWAP1 REVERT JUMPDEST DUP1 PUSH1 0x1 PUSH1 0x0 DUP6 PUSH20 0xFFFFFFFFFFFFFFFFFFFFFFFFFFFFFFFFFFFFFFFF AND PUSH20 0xFFFFFFFFFFFFFFFFFFFFFFFFFFFFFFFFFFFFFFFF AND DUP2 MSTORE PUSH1 0x20 ADD SWAP1 DUP2 MSTORE PUSH1 0x20 ADD PUSH1 0x0 KECCAK256 PUSH1 0x0 DUP5 PUSH20 0xFFFFFFFFFFFFFFFFFFFFFFFFFFFFFFFFFFFFFFFF AND PUSH20 0xFFFFFFFFFFFFFFFFFFFFFFFFFFFFFFFFFFFFFFFF AND DUP2 MSTORE PUSH1 0x20 ADD SWAP1 DUP2 MSTORE PUSH1 0x20 ADD PUSH1 0x0 KECCAK256 PUSH1 0x0 PUSH2 0x100 EXP DUP2 SLOAD DUP2 PUSH1 0xFF MUL NOT AND SWAP1 DUP4 ISZERO ISZERO MUL OR SWAP1 SSTORE POP DUP2 PUSH20 0xFFFFFFFFFFFFFFFFFFFFFFFFFFFFFFFFFFFFFFFF AND DUP4 PUSH20 0xFFFFFFFFFFFFFFFFFFFFFFFFFFFFFFFFFFFFFFFF AND PUSH32 0x17307EAB39AB6107E8899845AD3D59BD9653F200F220920489CA2B5937696C31 DUP4 PUSH1 0x40 MLOAD PUSH2 0x13EA SWAP2 SWAP1 PUSH2 0x1EB0 JUMP JUMPDEST PUSH1 0x40 MLOAD DUP1 SWAP2 SUB SWAP1 LOG3 POP POP POP JUMP JUMPDEST PUSH1 0x0 PUSH20 0xFFFFFFFFFFFFFFFFFFFFFFFFFFFFFFFFFFFFFFFF AND DUP5 PUSH20 0xFFFFFFFFFFFFFFFFFFFFFFFFFFFFFFFFFFFFFFFF AND EQ ISZERO PUSH2 0x1467 JUMPI PUSH1 0x40 MLOAD PUSH32 0x8C379A000000000000000000000000000000000000000000000000000000000 DUP2 MSTORE PUSH1 0x4 ADD PUSH2 0x145E SWAP1 PUSH2 0x3000 JUMP JUMPDEST PUSH1 0x40 MLOAD DUP1 SWAP2 SUB SWAP1 REVERT JUMPDEST PUSH1 0x0 PUSH2 0x1471 PUSH2 0xC8B JUMP JUMPDEST SWAP1 POP PUSH2 0x1492 DUP2 PUSH1 0x0 DUP8 PUSH2 0x1483 DUP9 PUSH2 0x1A09 JUMP JUMPDEST PUSH2 0x148C DUP9 PUSH2 0x1A09 JUMP JUMPDEST DUP8 PUSH2 0x1829 JUMP JUMPDEST DUP3 PUSH1 0x0 DUP1 DUP7 DUP2 MSTORE PUSH1 0x20 ADD SWAP1 DUP2 MSTORE PUSH1 0x20 ADD PUSH1 0x0 KECCAK256 PUSH1 0x0 DUP8 PUSH20 0xFFFFFFFFFFFFFFFFFFFFFFFFFFFFFFFFFFFFFFFF AND PUSH20 0xFFFFFFFFFFFFFFFFFFFFFFFFFFFFFFFFFFFFFFFF AND DUP2 MSTORE PUSH1 0x20 ADD SWAP1 DUP2 MSTORE PUSH1 0x20 ADD PUSH1 0x0 KECCAK256 PUSH1 0x0 DUP3 DUP3 SLOAD PUSH2 0x14F1 SWAP2 SWAP1 PUSH2 0x2A48 JUMP JUMPDEST SWAP3 POP POP DUP2 SWAP1 SSTORE POP DUP5 PUSH20 0xFFFFFFFFFFFFFFFFFFFFFFFFFFFFFFFFFFFFFFFF AND PUSH1 0x0 PUSH20 0xFFFFFFFFFFFFFFFFFFFFFFFFFFFFFFFFFFFFFFFF AND DUP3 PUSH20 0xFFFFFFFFFFFFFFFFFFFFFFFFFFFFFFFFFFFFFFFF AND PUSH32 0xC3D58168C5AE7397731D063D5BBF3D657854427343F4C083240F7AACAA2D0F62 DUP8 DUP8 PUSH1 0x40 MLOAD PUSH2 0x156F SWAP3 SWAP2 SWAP1 PUSH2 0x2ED3 JUMP JUMPDEST PUSH1 0x40 MLOAD DUP1 SWAP2 SUB SWAP1 LOG4 PUSH2 0x1586 DUP2 PUSH1 0x0 DUP8 DUP8 DUP8 DUP8 PUSH2 0x1A83 JUMP JUMPDEST POP POP POP POP POP JUMP JUMPDEST DUP1 PUSH1 0x2 SWAP1 DUP1 MLOAD SWAP1 PUSH1 0x20 ADD SWAP1 PUSH2 0x15A3 SWAP3 SWAP2 SWAP1 PUSH2 0x1C5B JUMP JUMPDEST POP POP JUMP JUMPDEST PUSH1 0x0 PUSH20 0xFFFFFFFFFFFFFFFFFFFFFFFFFFFFFFFFFFFFFFFF AND DUP5 PUSH20 0xFFFFFFFFFFFFFFFFFFFFFFFFFFFFFFFFFFFFFFFF AND EQ ISZERO PUSH2 0x1617 JUMPI PUSH1 0x40 MLOAD PUSH32 0x8C379A000000000000000000000000000000000000000000000000000000000 DUP2 MSTORE PUSH1 0x4 ADD PUSH2 0x160E SWAP1 PUSH2 0x2CC6 JUMP JUMPDEST PUSH1 0x40 MLOAD DUP1 SWAP2 SUB SWAP1 REVERT JUMPDEST PUSH1 0x0 PUSH2 0x1621 PUSH2 0xC8B JUMP JUMPDEST SWAP1 POP PUSH2 0x1641 DUP2 DUP8 DUP8 PUSH2 0x1632 DUP9 PUSH2 0x1A09 JUMP JUMPDEST PUSH2 0x163B DUP9 PUSH2 0x1A09 JUMP JUMPDEST DUP8 PUSH2 0x1829 JUMP JUMPDEST PUSH1 0x0 DUP1 PUSH1 0x0 DUP7 DUP2 MSTORE PUSH1 0x20 ADD SWAP1 DUP2 MSTORE PUSH1 0x20 ADD PUSH1 0x0 KECCAK256 PUSH1 0x0 DUP9 PUSH20 0xFFFFFFFFFFFFFFFFFFFFFFFFFFFFFFFFFFFFFFFF AND PUSH20 0xFFFFFFFFFFFFFFFFFFFFFFFFFFFFFFFFFFFFFFFF AND DUP2 MSTORE PUSH1 0x20 ADD SWAP1 DUP2 MSTORE PUSH1 0x20 ADD PUSH1 0x0 KECCAK256 SLOAD SWAP1 POP DUP4 DUP2 LT ISZERO PUSH2 0x16D8 JUMPI PUSH1 0x40 MLOAD PUSH32 0x8C379A000000000000000000000000000000000000000000000000000000000 DUP2 MSTORE PUSH1 0x4 ADD PUSH2 0x16CF SWAP1 PUSH2 0x2D58 JUMP JUMPDEST PUSH1 0x40 MLOAD DUP1 SWAP2 SUB SWAP1 REVERT JUMPDEST DUP4 DUP2 SUB PUSH1 0x0 DUP1 DUP8 DUP2 MSTORE PUSH1 0x20 ADD SWAP1 DUP2 MSTORE PUSH1 0x20 ADD PUSH1 0x0 KECCAK256 PUSH1 0x0 DUP10 PUSH20 0xFFFFFFFFFFFFFFFFFFFFFFFFFFFFFFFFFFFFFFFF AND PUSH20 0xFFFFFFFFFFFFFFFFFFFFFFFFFFFFFFFFFFFFFFFF AND DUP2 MSTORE PUSH1 0x20 ADD SWAP1 DUP2 MSTORE PUSH1 0x20 ADD PUSH1 0x0 KECCAK256 DUP2 SWAP1 SSTORE POP DUP4 PUSH1 0x0 DUP1 DUP8 DUP2 MSTORE PUSH1 0x20 ADD SWAP1 DUP2 MSTORE PUSH1 0x20 ADD PUSH1 0x0 KECCAK256 PUSH1 0x0 DUP9 PUSH20 0xFFFFFFFFFFFFFFFFFFFFFFFFFFFFFFFFFFFFFFFF AND PUSH20 0xFFFFFFFFFFFFFFFFFFFFFFFFFFFFFFFFFFFFFFFF AND DUP2 MSTORE PUSH1 0x20 ADD SWAP1 DUP2 MSTORE PUSH1 0x20 ADD PUSH1 0x0 KECCAK256 PUSH1 0x0 DUP3 DUP3 SLOAD PUSH2 0x178D SWAP2 SWAP1 PUSH2 0x2A48 JUMP JUMPDEST SWAP3 POP POP DUP2 SWAP1 SSTORE POP DUP6 PUSH20 0xFFFFFFFFFFFFFFFFFFFFFFFFFFFFFFFFFFFFFFFF AND DUP8 PUSH20 0xFFFFFFFFFFFFFFFFFFFFFFFFFFFFFFFFFFFFFFFF AND DUP4 PUSH20 0xFFFFFFFFFFFFFFFFFFFFFFFFFFFFFFFFFFFFFFFF AND PUSH32 0xC3D58168C5AE7397731D063D5BBF3D657854427343F4C083240F7AACAA2D0F62 DUP9 DUP9 PUSH1 0x40 MLOAD PUSH2 0x180A SWAP3 SWAP2 SWAP1 PUSH2 0x2ED3 JUMP JUMPDEST PUSH1 0x40 MLOAD DUP1 SWAP2 SUB SWAP1 LOG4 PUSH2 0x1820 DUP3 DUP9 DUP9 DUP9 DUP9 DUP9 PUSH2 0x1A83 JUMP JUMPDEST POP POP POP POP POP POP POP JUMP JUMPDEST POP POP POP POP POP POP JUMP JUMPDEST PUSH2 0x1850 DUP5 PUSH20 0xFFFFFFFFFFFFFFFFFFFFFFFFFFFFFFFFFFFFFFFF AND PUSH2 0xC0E JUMP JUMPDEST ISZERO PUSH2 0x1A01 JUMPI DUP4 PUSH20 0xFFFFFFFFFFFFFFFFFFFFFFFFFFFFFFFFFFFFFFFF AND PUSH4 0xBC197C81 DUP8 DUP8 DUP7 DUP7 DUP7 PUSH1 0x40 MLOAD DUP7 PUSH4 0xFFFFFFFF AND PUSH1 0xE0 SHL DUP2 MSTORE PUSH1 0x4 ADD PUSH2 0x1896 SWAP6 SWAP5 SWAP4 SWAP3 SWAP2 SWAP1 PUSH2 0x3075 JUMP JUMPDEST PUSH1 0x20 PUSH1 0x40 MLOAD DUP1 DUP4 SUB DUP2 PUSH1 0x0 DUP8 GAS CALL SWAP3 POP POP POP DUP1 ISZERO PUSH2 0x18D2 JUMPI POP PUSH1 0x40 MLOAD RETURNDATASIZE PUSH1 0x1F NOT PUSH1 0x1F DUP3 ADD AND DUP3 ADD DUP1 PUSH1 0x40 MSTORE POP DUP2 ADD SWAP1 PUSH2 0x18CF SWAP2 SWAP1 PUSH2 0x30F2 JUMP JUMPDEST PUSH1 0x1 JUMPDEST PUSH2 0x1978 JUMPI PUSH2 0x18DE PUSH2 0x312C JUMP JUMPDEST DUP1 PUSH4 0x8C379A0 EQ ISZERO PUSH2 0x193B JUMPI POP PUSH2 0x18F3 PUSH2 0x314E JUMP JUMPDEST DUP1 PUSH2 0x18FE JUMPI POP PUSH2 0x193D JUMP JUMPDEST DUP1 PUSH1 0x40 MLOAD PUSH32 0x8C379A000000000000000000000000000000000000000000000000000000000 DUP2 MSTORE PUSH1 0x4 ADD PUSH2 0x1932 SWAP2 SWAP1 PUSH2 0x1F91 JUMP JUMPDEST PUSH1 0x40 MLOAD DUP1 SWAP2 SUB SWAP1 REVERT JUMPDEST POP JUMPDEST PUSH1 0x40 MLOAD PUSH32 0x8C379A000000000000000000000000000000000000000000000000000000000 DUP2 MSTORE PUSH1 0x4 ADD PUSH2 0x196F SWAP1 PUSH2 0x3256 JUMP JUMPDEST PUSH1 0x40 MLOAD DUP1 SWAP2 SUB SWAP1 REVERT JUMPDEST PUSH4 0xBC197C81 PUSH1 0xE0 SHL PUSH28 0xFFFFFFFFFFFFFFFFFFFFFFFFFFFFFFFFFFFFFFFFFFFFFFFFFFFFFFFF NOT AND DUP2 PUSH28 0xFFFFFFFFFFFFFFFFFFFFFFFFFFFFFFFFFFFFFFFFFFFFFFFFFFFFFFFF NOT AND EQ PUSH2 0x19FF JUMPI PUSH1 0x40 MLOAD PUSH32 0x8C379A000000000000000000000000000000000000000000000000000000000 DUP2 MSTORE PUSH1 0x4 ADD PUSH2 0x19F6 SWAP1 PUSH2 0x32E8 JUMP JUMPDEST PUSH1 0x40 MLOAD DUP1 SWAP2 SUB SWAP1 REVERT JUMPDEST POP JUMPDEST POP POP POP POP POP POP JUMP JUMPDEST PUSH1 0x60 PUSH1 0x0 PUSH1 0x1 PUSH8 0xFFFFFFFFFFFFFFFF DUP2 GT ISZERO PUSH2 0x1A28 JUMPI PUSH2 0x1A27 PUSH2 0x1FB8 JUMP JUMPDEST JUMPDEST PUSH1 0x40 MLOAD SWAP1 DUP1 DUP3 MSTORE DUP1 PUSH1 0x20 MUL PUSH1 0x20 ADD DUP3 ADD PUSH1 0x40 MSTORE DUP1 ISZERO PUSH2 0x1A56 JUMPI DUP2 PUSH1 0x20 ADD PUSH1 0x20 DUP3 MUL DUP1 CALLDATASIZE DUP4 CALLDATACOPY DUP1 DUP3 ADD SWAP2 POP POP SWAP1 POP JUMPDEST POP SWAP1 POP DUP3 DUP2 PUSH1 0x0 DUP2 MLOAD DUP2 LT PUSH2 0x1A6E JUMPI PUSH2 0x1A6D PUSH2 0x2935 JUMP JUMPDEST JUMPDEST PUSH1 0x20 MUL PUSH1 0x20 ADD ADD DUP2 DUP2 MSTORE POP POP DUP1 SWAP2 POP POP SWAP2 SWAP1 POP JUMP JUMPDEST PUSH2 0x1AA2 DUP5 PUSH20 0xFFFFFFFFFFFFFFFFFFFFFFFFFFFFFFFFFFFFFFFF AND PUSH2 0xC0E JUMP JUMPDEST ISZERO PUSH2 0x1C53 JUMPI DUP4 PUSH20 0xFFFFFFFFFFFFFFFFFFFFFFFFFFFFFFFFFFFFFFFF AND PUSH4 0xF23A6E61 DUP8 DUP8 DUP7 DUP7 DUP7 PUSH1 0x40 MLOAD DUP7 PUSH4 0xFFFFFFFF AND PUSH1 0xE0 SHL DUP2 MSTORE PUSH1 0x4 ADD PUSH2 0x1AE8 SWAP6 SWAP5 SWAP4 SWAP3 SWAP2 SWAP1 PUSH2 0x3308 JUMP JUMPDEST PUSH1 0x20 PUSH1 0x40 MLOAD DUP1 DUP4 SUB DUP2 PUSH1 0x0 DUP8 GAS CALL SWAP3 POP POP POP DUP1 ISZERO PUSH2 0x1B24 JUMPI POP PUSH1 0x40 MLOAD RETURNDATASIZE PUSH1 0x1F NOT PUSH1 0x1F DUP3 ADD AND DUP3 ADD DUP1 PUSH1 0x40 MSTORE POP DUP2 ADD SWAP1 PUSH2 0x1B21 SWAP2 SWAP1 PUSH2 0x30F2 JUMP JUMPDEST PUSH1 0x1 JUMPDEST PUSH2 0x1BCA JUMPI PUSH2 0x1B30 PUSH2 0x312C JUMP JUMPDEST DUP1 PUSH4 0x8C379A0 EQ ISZERO PUSH2 0x1B8D JUMPI POP PUSH2 0x1B45 PUSH2 0x314E JUMP JUMPDEST DUP1 PUSH2 0x1B50 JUMPI POP PUSH2 0x1B8F JUMP JUMPDEST DUP1 PUSH1 0x40 MLOAD PUSH32 0x8C379A000000000000000000000000000000000000000000000000000000000 DUP2 MSTORE PUSH1 0x4 ADD PUSH2 0x1B84 SWAP2 SWAP1 PUSH2 0x1F91 JUMP JUMPDEST PUSH1 0x40 MLOAD DUP1 SWAP2 SUB SWAP1 REVERT JUMPDEST POP JUMPDEST PUSH1 0x40 MLOAD PUSH32 0x8C379A000000000000000000000000000000000000000000000000000000000 DUP2 MSTORE PUSH1 0x4 ADD PUSH2 0x1BC1 SWAP1 PUSH2 0x3256 JUMP JUMPDEST PUSH1 0x40 MLOAD DUP1 SWAP2 SUB SWAP1 REVERT JUMPDEST PUSH4 0xF23A6E61 PUSH1 0xE0 SHL PUSH28 0xFFFFFFFFFFFFFFFFFFFFFFFFFFFFFFFFFFFFFFFFFFFFFFFFFFFFFFFF NOT AND DUP2 PUSH28 0xFFFFFFFFFFFFFFFFFFFFFFFFFFFFFFFFFFFFFFFFFFFFFFFFFFFFFFFF NOT AND EQ PUSH2 0x1C51 JUMPI PUSH1 0x40 MLOAD PUSH32 0x8C379A000000000000000000000000000000000000000000000000000000000 DUP2 MSTORE PUSH1 0x4 ADD PUSH2 0x1C48 SWAP1 PUSH2 0x32E8 JUMP JUMPDEST PUSH1 0x40 MLOAD DUP1 SWAP2 SUB SWAP1 REVERT JUMPDEST POP JUMPDEST POP POP POP POP POP POP JUMP JUMPDEST DUP3 DUP1 SLOAD PUSH2 0x1C67 SWAP1 PUSH2 0x27DF JUMP JUMPDEST SWAP1 PUSH1 0x0 MSTORE PUSH1 0x20 PUSH1 0x0 KECCAK256 SWAP1 PUSH1 0x1F ADD PUSH1 0x20 SWAP1 DIV DUP2 ADD SWAP3 DUP3 PUSH2 0x1C89 JUMPI PUSH1 0x0 DUP6 SSTORE PUSH2 0x1CD0 JUMP JUMPDEST DUP3 PUSH1 0x1F LT PUSH2 0x1CA2 JUMPI DUP1 MLOAD PUSH1 0xFF NOT AND DUP4 DUP1 ADD OR DUP6 SSTORE PUSH2 0x1CD0 JUMP JUMPDEST DUP3 DUP1 ADD PUSH1 0x1 ADD DUP6 SSTORE DUP3 ISZERO PUSH2 0x1CD0 JUMPI SWAP2 DUP3 ADD JUMPDEST DUP3 DUP2 GT ISZERO PUSH2 0x1CCF JUMPI DUP3 MLOAD DUP3 SSTORE SWAP2 PUSH1 0x20 ADD SWAP2 SWAP1 PUSH1 0x1 ADD SWAP1 PUSH2 0x1CB4 JUMP JUMPDEST JUMPDEST POP SWAP1 POP PUSH2 0x1CDD SWAP2 SWAP1 PUSH2 0x1CE1 JUMP JUMPDEST POP SWAP1 JUMP JUMPDEST JUMPDEST DUP1 DUP3 GT ISZERO PUSH2 0x1CFA JUMPI PUSH1 0x0 DUP2 PUSH1 0x0 SWAP1 SSTORE POP PUSH1 0x1 ADD PUSH2 0x1CE2 JUMP JUMPDEST POP SWAP1 JUMP JUMPDEST PUSH1 0x0 PUSH1 0x40 MLOAD SWAP1 POP SWAP1 JUMP JUMPDEST PUSH1 0x0 DUP1 REVERT JUMPDEST PUSH1 0x0 DUP1 REVERT JUMPDEST PUSH1 0x0 PUSH20 0xFFFFFFFFFFFFFFFFFFFFFFFFFFFFFFFFFFFFFFFF DUP3 AND SWAP1 POP SWAP2 SWAP1 POP JUMP JUMPDEST PUSH1 0x0 PUSH2 0x1D3D DUP3 PUSH2 0x1D12 JUMP JUMPDEST SWAP1 POP SWAP2 SWAP1 POP JUMP JUMPDEST PUSH2 0x1D4D DUP2 PUSH2 0x1D32 JUMP JUMPDEST DUP2 EQ PUSH2 0x1D58 JUMPI PUSH1 0x0 DUP1 REVERT JUMPDEST POP JUMP JUMPDEST PUSH1 0x0 DUP2 CALLDATALOAD SWAP1 POP PUSH2 0x1D6A DUP2 PUSH2 0x1D44 JUMP JUMPDEST SWAP3 SWAP2 POP POP JUMP JUMPDEST PUSH1 0x0 DUP2 SWAP1 POP SWAP2 SWAP1 POP JUMP JUMPDEST PUSH2 0x1D83 DUP2 PUSH2 0x1D70 JUMP JUMPDEST DUP2 EQ PUSH2 0x1D8E JUMPI PUSH1 0x0 DUP1 REVERT JUMPDEST POP JUMP JUMPDEST PUSH1 0x0 DUP2 CALLDATALOAD SWAP1 POP PUSH2 0x1DA0 DUP2 PUSH2 0x1D7A JUMP JUMPDEST SWAP3 SWAP2 POP POP JUMP JUMPDEST PUSH1 0x0 DUP1 PUSH1 0x40 DUP4 DUP6 SUB SLT ISZERO PUSH2 0x1DBD JUMPI PUSH2 0x1DBC PUSH2 0x1D08 JUMP JUMPDEST JUMPDEST PUSH1 0x0 PUSH2 0x1DCB DUP6 DUP3 DUP7 ADD PUSH2 0x1D5B JUMP JUMPDEST SWAP3 POP POP PUSH1 0x20 PUSH2 0x1DDC DUP6 DUP3 DUP7 ADD PUSH2 0x1D91 JUMP JUMPDEST SWAP2 POP POP SWAP3 POP SWAP3 SWAP1 POP JUMP JUMPDEST PUSH2 0x1DEF DUP2 PUSH2 0x1D70 JUMP JUMPDEST DUP3 MSTORE POP POP JUMP JUMPDEST PUSH1 0x0 PUSH1 0x20 DUP3 ADD SWAP1 POP PUSH2 0x1E0A PUSH1 0x0 DUP4 ADD DUP5 PUSH2 0x1DE6 JUMP JUMPDEST SWAP3 SWAP2 POP POP JUMP JUMPDEST PUSH1 0x0 PUSH32 0xFFFFFFFF00000000000000000000000000000000000000000000000000000000 DUP3 AND SWAP1 POP SWAP2 SWAP1 POP JUMP JUMPDEST PUSH2 0x1E45 DUP2 PUSH2 0x1E10 JUMP JUMPDEST DUP2 EQ PUSH2 0x1E50 JUMPI PUSH1 0x0 DUP1 REVERT JUMPDEST POP JUMP JUMPDEST PUSH1 0x0 DUP2 CALLDATALOAD SWAP1 POP PUSH2 0x1E62 DUP2 PUSH2 0x1E3C JUMP JUMPDEST SWAP3 SWAP2 POP POP JUMP JUMPDEST PUSH1 0x0 PUSH1 0x20 DUP3 DUP5 SUB SLT ISZERO PUSH2 0x1E7E JUMPI PUSH2 0x1E7D PUSH2 0x1D08 JUMP JUMPDEST JUMPDEST PUSH1 0x0 PUSH2 0x1E8C DUP5 DUP3 DUP6 ADD PUSH2 0x1E53 JUMP JUMPDEST SWAP2 POP POP SWAP3 SWAP2 POP POP JUMP JUMPDEST PUSH1 0x0 DUP2 ISZERO ISZERO SWAP1 POP SWAP2 SWAP1 POP JUMP JUMPDEST PUSH2 0x1EAA DUP2 PUSH2 0x1E95 JUMP JUMPDEST DUP3 MSTORE POP POP JUMP JUMPDEST PUSH1 0x0 PUSH1 0x20 DUP3 ADD SWAP1 POP PUSH2 0x1EC5 PUSH1 0x0 DUP4 ADD DUP5 PUSH2 0x1EA1 JUMP JUMPDEST SWAP3 SWAP2 POP POP JUMP JUMPDEST PUSH1 0x0 PUSH1 0x20 DUP3 DUP5 SUB SLT ISZERO PUSH2 0x1EE1 JUMPI PUSH2 0x1EE0 PUSH2 0x1D08 JUMP JUMPDEST JUMPDEST PUSH1 0x0 PUSH2 0x1EEF DUP5 DUP3 DUP6 ADD PUSH2 0x1D91 JUMP JUMPDEST SWAP2 POP POP SWAP3 SWAP2 POP POP JUMP JUMPDEST PUSH1 0x0 DUP2 MLOAD SWAP1 POP SWAP2 SWAP1 POP JUMP JUMPDEST PUSH1 0x0 DUP3 DUP3 MSTORE PUSH1 0x20 DUP3 ADD SWAP1 POP SWAP3 SWAP2 POP POP JUMP JUMPDEST PUSH1 0x0 JUMPDEST DUP4 DUP2 LT ISZERO PUSH2 0x1F32 JUMPI DUP1 DUP3 ADD MLOAD DUP2 DUP5 ADD MSTORE PUSH1 0x20 DUP2 ADD SWAP1 POP PUSH2 0x1F17 JUMP JUMPDEST DUP4 DUP2 GT ISZERO PUSH2 0x1F41 JUMPI PUSH1 0x0 DUP5 DUP5 ADD MSTORE JUMPDEST POP POP POP POP JUMP JUMPDEST PUSH1 0x0 PUSH1 0x1F NOT PUSH1 0x1F DUP4 ADD AND SWAP1 POP SWAP2 SWAP1 POP JUMP JUMPDEST PUSH1 0x0 PUSH2 0x1F63 DUP3 PUSH2 0x1EF8 JUMP JUMPDEST PUSH2 0x1F6D DUP2 DUP6 PUSH2 0x1F03 JUMP JUMPDEST SWAP4 POP PUSH2 0x1F7D DUP2 DUP6 PUSH1 0x20 DUP7 ADD PUSH2 0x1F14 JUMP JUMPDEST PUSH2 0x1F86 DUP2 PUSH2 0x1F47 JUMP JUMPDEST DUP5 ADD SWAP2 POP POP SWAP3 SWAP2 POP POP JUMP JUMPDEST PUSH1 0x0 PUSH1 0x20 DUP3 ADD SWAP1 POP DUP2 DUP2 SUB PUSH1 0x0 DUP4 ADD MSTORE PUSH2 0x1FAB DUP2 DUP5 PUSH2 0x1F58 JUMP JUMPDEST SWAP1 POP SWAP3 SWAP2 POP POP JUMP JUMPDEST PUSH1 0x0 DUP1 REVERT JUMPDEST PUSH32 0x4E487B7100000000000000000000000000000000000000000000000000000000 PUSH1 0x0 MSTORE PUSH1 0x41 PUSH1 0x4 MSTORE PUSH1 0x24 PUSH1 0x0 REVERT JUMPDEST PUSH2 0x1FF0 DUP3 PUSH2 0x1F47 JUMP JUMPDEST DUP2 ADD DUP2 DUP2 LT PUSH8 0xFFFFFFFFFFFFFFFF DUP3 GT OR ISZERO PUSH2 0x200F JUMPI PUSH2 0x200E PUSH2 0x1FB8 JUMP JUMPDEST JUMPDEST DUP1 PUSH1 0x40 MSTORE POP POP POP JUMP JUMPDEST PUSH1 0x0 PUSH2 0x2022 PUSH2 0x1CFE JUMP JUMPDEST SWAP1 POP PUSH2 0x202E DUP3 DUP3 PUSH2 0x1FE7 JUMP JUMPDEST SWAP2 SWAP1 POP JUMP JUMPDEST PUSH1 0x0 PUSH8 0xFFFFFFFFFFFFFFFF DUP3 GT ISZERO PUSH2 0x204E JUMPI PUSH2 0x204D PUSH2 0x1FB8 JUMP JUMPDEST JUMPDEST PUSH1 0x20 DUP3 MUL SWAP1 POP PUSH1 0x20 DUP2 ADD SWAP1 POP SWAP2 SWAP1 POP JUMP JUMPDEST PUSH1 0x0 DUP1 REVERT JUMPDEST PUSH1 0x0 PUSH2 0x2077 PUSH2 0x2072 DUP5 PUSH2 0x2033 JUMP JUMPDEST PUSH2 0x2018 JUMP JUMPDEST SWAP1 POP DUP1 DUP4 DUP3 MSTORE PUSH1 0x20 DUP3 ADD SWAP1 POP PUSH1 0x20 DUP5 MUL DUP4 ADD DUP6 DUP2 GT ISZERO PUSH2 0x209A JUMPI PUSH2 0x2099 PUSH2 0x205F JUMP JUMPDEST JUMPDEST DUP4 JUMPDEST DUP2 DUP2 LT ISZERO PUSH2 0x20C3 JUMPI DUP1 PUSH2 0x20AF DUP9 DUP3 PUSH2 0x1D91 JUMP JUMPDEST DUP5 MSTORE PUSH1 0x20 DUP5 ADD SWAP4 POP POP PUSH1 0x20 DUP2 ADD SWAP1 POP PUSH2 0x209C JUMP JUMPDEST POP POP POP SWAP4 SWAP3 POP POP POP JUMP JUMPDEST PUSH1 0x0 DUP3 PUSH1 0x1F DUP4 ADD SLT PUSH2 0x20E2 JUMPI PUSH2 0x20E1 PUSH2 0x1FB3 JUMP JUMPDEST JUMPDEST DUP2 CALLDATALOAD PUSH2 0x20F2 DUP5 DUP3 PUSH1 0x20 DUP7 ADD PUSH2 0x2064 JUMP JUMPDEST SWAP2 POP POP SWAP3 SWAP2 POP POP JUMP JUMPDEST PUSH1 0x0 DUP1 REVERT JUMPDEST PUSH1 0x0 PUSH8 0xFFFFFFFFFFFFFFFF DUP3 GT ISZERO PUSH2 0x211B JUMPI PUSH2 0x211A PUSH2 0x1FB8 JUMP JUMPDEST JUMPDEST PUSH2 0x2124 DUP3 PUSH2 0x1F47 JUMP JUMPDEST SWAP1 POP PUSH1 0x20 DUP2 ADD SWAP1 POP SWAP2 SWAP1 POP JUMP JUMPDEST DUP3 DUP2 DUP4 CALLDATACOPY PUSH1 0x0 DUP4 DUP4 ADD MSTORE POP POP POP JUMP JUMPDEST PUSH1 0x0 PUSH2 0x2153 PUSH2 0x214E DUP5 PUSH2 0x2100 JUMP JUMPDEST PUSH2 0x2018 JUMP JUMPDEST SWAP1 POP DUP3 DUP2 MSTORE PUSH1 0x20 DUP2 ADD DUP5 DUP5 DUP5 ADD GT ISZERO PUSH2 0x216F JUMPI PUSH2 0x216E PUSH2 0x20FB JUMP JUMPDEST JUMPDEST PUSH2 0x217A DUP5 DUP3 DUP6 PUSH2 0x2131 JUMP JUMPDEST POP SWAP4 SWAP3 POP POP POP JUMP JUMPDEST PUSH1 0x0 DUP3 PUSH1 0x1F DUP4 ADD SLT PUSH2 0x2197 JUMPI PUSH2 0x2196 PUSH2 0x1FB3 JUMP JUMPDEST JUMPDEST DUP2 CALLDATALOAD PUSH2 0x21A7 DUP5 DUP3 PUSH1 0x20 DUP7 ADD PUSH2 0x2140 JUMP JUMPDEST SWAP2 POP POP SWAP3 SWAP2 POP POP JUMP JUMPDEST PUSH1 0x0 DUP1 PUSH1 0x0 DUP1 PUSH1 0x0 PUSH1 0xA0 DUP7 DUP9 SUB SLT ISZERO PUSH2 0x21CC JUMPI PUSH2 0x21CB PUSH2 0x1D08 JUMP JUMPDEST JUMPDEST PUSH1 0x0 PUSH2 0x21DA DUP9 DUP3 DUP10 ADD PUSH2 0x1D5B JUMP JUMPDEST SWAP6 POP POP PUSH1 0x20 PUSH2 0x21EB DUP9 DUP3 DUP10 ADD PUSH2 0x1D5B JUMP JUMPDEST SWAP5 POP POP PUSH1 0x40 DUP7 ADD CALLDATALOAD PUSH8 0xFFFFFFFFFFFFFFFF DUP2 GT ISZERO PUSH2 0x220C JUMPI PUSH2 0x220B PUSH2 0x1D0D JUMP JUMPDEST JUMPDEST PUSH2 0x2218 DUP9 DUP3 DUP10 ADD PUSH2 0x20CD JUMP JUMPDEST SWAP4 POP POP PUSH1 0x60 DUP7 ADD CALLDATALOAD PUSH8 0xFFFFFFFFFFFFFFFF DUP2 GT ISZERO PUSH2 0x2239 JUMPI PUSH2 0x2238 PUSH2 0x1D0D JUMP JUMPDEST JUMPDEST PUSH2 0x2245 DUP9 DUP3 DUP10 ADD PUSH2 0x20CD JUMP JUMPDEST SWAP3 POP POP PUSH1 0x80 DUP7 ADD CALLDATALOAD PUSH8 0xFFFFFFFFFFFFFFFF DUP2 GT ISZERO PUSH2 0x2266 JUMPI PUSH2 0x2265 PUSH2 0x1D0D JUMP JUMPDEST JUMPDEST PUSH2 0x2272 DUP9 DUP3 DUP10 ADD PUSH2 0x2182 JUMP JUMPDEST SWAP2 POP POP SWAP3 SWAP6 POP SWAP3 SWAP6 SWAP1 SWAP4 POP JUMP JUMPDEST PUSH1 0x0 PUSH8 0xFFFFFFFFFFFFFFFF DUP3 GT ISZERO PUSH2 0x229A JUMPI PUSH2 0x2299 PUSH2 0x1FB8 JUMP JUMPDEST JUMPDEST PUSH1 0x20 DUP3 MUL SWAP1 POP PUSH1 0x20 DUP2 ADD SWAP1 POP SWAP2 SWAP1 POP JUMP JUMPDEST PUSH1 0x0 PUSH2 0x22BE PUSH2 0x22B9 DUP5 PUSH2 0x227F JUMP JUMPDEST PUSH2 0x2018 JUMP JUMPDEST SWAP1 POP DUP1 DUP4 DUP3 MSTORE PUSH1 0x20 DUP3 ADD SWAP1 POP PUSH1 0x20 DUP5 MUL DUP4 ADD DUP6 DUP2 GT ISZERO PUSH2 0x22E1 JUMPI PUSH2 0x22E0 PUSH2 0x205F JUMP JUMPDEST JUMPDEST DUP4 JUMPDEST DUP2 DUP2 LT ISZERO PUSH2 0x230A JUMPI DUP1 PUSH2 0x22F6 DUP9 DUP3 PUSH2 0x1D5B JUMP JUMPDEST DUP5 MSTORE PUSH1 0x20 DUP5 ADD SWAP4 POP POP PUSH1 0x20 DUP2 ADD SWAP1 POP PUSH2 0x22E3 JUMP JUMPDEST POP POP POP SWAP4 SWAP3 POP POP POP JUMP JUMPDEST PUSH1 0x0 DUP3 PUSH1 0x1F DUP4 ADD SLT PUSH2 0x2329 JUMPI PUSH2 0x2328 PUSH2 0x1FB3 JUMP JUMPDEST JUMPDEST DUP2 CALLDATALOAD PUSH2 0x2339 DUP5 DUP3 PUSH1 0x20 DUP7 ADD PUSH2 0x22AB JUMP JUMPDEST SWAP2 POP POP SWAP3 SWAP2 POP POP JUMP JUMPDEST PUSH1 0x0 DUP1 PUSH1 0x40 DUP4 DUP6 SUB SLT ISZERO PUSH2 0x2359 JUMPI PUSH2 0x2358 PUSH2 0x1D08 JUMP JUMPDEST JUMPDEST PUSH1 0x0 DUP4 ADD CALLDATALOAD PUSH8 0xFFFFFFFFFFFFFFFF DUP2 GT ISZERO PUSH2 0x2377 JUMPI PUSH2 0x2376 PUSH2 0x1D0D JUMP JUMPDEST JUMPDEST PUSH2 0x2383 DUP6 DUP3 DUP7 ADD PUSH2 0x2314 JUMP JUMPDEST SWAP3 POP POP PUSH1 0x20 DUP4 ADD CALLDATALOAD PUSH8 0xFFFFFFFFFFFFFFFF DUP2 GT ISZERO PUSH2 0x23A4 JUMPI PUSH2 0x23A3 PUSH2 0x1D0D JUMP JUMPDEST JUMPDEST PUSH2 0x23B0 DUP6 DUP3 DUP7 ADD PUSH2 0x20CD JUMP JUMPDEST SWAP2 POP POP SWAP3 POP SWAP3 SWAP1 POP JUMP JUMPDEST PUSH1 0x0 DUP2 MLOAD SWAP1 POP SWAP2 SWAP1 POP JUMP JUMPDEST PUSH1 0x0 DUP3 DUP3 MSTORE PUSH1 0x20 DUP3 ADD SWAP1 POP SWAP3 SWAP2 POP POP JUMP JUMPDEST PUSH1 0x0 DUP2 SWAP1 POP PUSH1 0x20 DUP3 ADD SWAP1 POP SWAP2 SWAP1 POP JUMP JUMPDEST PUSH2 0x23EF DUP2 PUSH2 0x1D70 JUMP JUMPDEST DUP3 MSTORE POP POP JUMP JUMPDEST PUSH1 0x0 PUSH2 0x2401 DUP4 DUP4 PUSH2 0x23E6 JUMP JUMPDEST PUSH1 0x20 DUP4 ADD SWAP1 POP SWAP3 SWAP2 POP POP JUMP JUMPDEST PUSH1 0x0 PUSH1 0x20 DUP3 ADD SWAP1 POP SWAP2 SWAP1 POP JUMP JUMPDEST PUSH1 0x0 PUSH2 0x2425 DUP3 PUSH2 0x23BA JUMP JUMPDEST PUSH2 0x242F DUP2 DUP6 PUSH2 0x23C5 JUMP JUMPDEST SWAP4 POP PUSH2 0x243A DUP4 PUSH2 0x23D6 JUMP JUMPDEST DUP1 PUSH1 0x0 JUMPDEST DUP4 DUP2 LT ISZERO PUSH2 0x246B JUMPI DUP2 MLOAD PUSH2 0x2452 DUP9 DUP3 PUSH2 0x23F5 JUMP JUMPDEST SWAP8 POP PUSH2 0x245D DUP4 PUSH2 0x240D JUMP JUMPDEST SWAP3 POP POP PUSH1 0x1 DUP2 ADD SWAP1 POP PUSH2 0x243E JUMP JUMPDEST POP DUP6 SWAP4 POP POP POP POP SWAP3 SWAP2 POP POP JUMP JUMPDEST PUSH1 0x0 PUSH1 0x20 DUP3 ADD SWAP1 POP DUP2 DUP2 SUB PUSH1 0x0 DUP4 ADD MSTORE PUSH2 0x2492 DUP2 DUP5 PUSH2 0x241A JUMP JUMPDEST SWAP1 POP SWAP3 SWAP2 POP POP JUMP JUMPDEST PUSH2 0x24A3 DUP2 PUSH2 0x1D32 JUMP JUMPDEST DUP3 MSTORE POP POP JUMP JUMPDEST PUSH1 0x0 PUSH1 0x20 DUP3 ADD SWAP1 POP PUSH2 0x24BE PUSH1 0x0 DUP4 ADD DUP5 PUSH2 0x249A JUMP JUMPDEST SWAP3 SWAP2 POP POP JUMP JUMPDEST PUSH2 0x24CD DUP2 PUSH2 0x1E95 JUMP JUMPDEST DUP2 EQ PUSH2 0x24D8 JUMPI PUSH1 0x0 DUP1 REVERT JUMPDEST POP JUMP JUMPDEST PUSH1 0x0 DUP2 CALLDATALOAD SWAP1 POP PUSH2 0x24EA DUP2 PUSH2 0x24C4 JUMP JUMPDEST SWAP3 SWAP2 POP POP JUMP JUMPDEST PUSH1 0x0 DUP1 PUSH1 0x40 DUP4 DUP6 SUB SLT ISZERO PUSH2 0x2507 JUMPI PUSH2 0x2506 PUSH2 0x1D08 JUMP JUMPDEST JUMPDEST PUSH1 0x0 PUSH2 0x2515 DUP6 DUP3 DUP7 ADD PUSH2 0x1D5B JUMP JUMPDEST SWAP3 POP POP PUSH1 0x20 PUSH2 0x2526 DUP6 DUP3 DUP7 ADD PUSH2 0x24DB JUMP JUMPDEST SWAP2 POP POP SWAP3 POP SWAP3 SWAP1 POP JUMP JUMPDEST PUSH1 0x0 PUSH8 0xFFFFFFFFFFFFFFFF DUP3 GT ISZERO PUSH2 0x254B JUMPI PUSH2 0x254A PUSH2 0x1FB8 JUMP JUMPDEST JUMPDEST PUSH2 0x2554 DUP3 PUSH2 0x1F47 JUMP JUMPDEST SWAP1 POP PUSH1 0x20 DUP2 ADD SWAP1 POP SWAP2 SWAP1 POP JUMP JUMPDEST PUSH1 0x0 PUSH2 0x2574 PUSH2 0x256F DUP5 PUSH2 0x2530 JUMP JUMPDEST PUSH2 0x2018 JUMP JUMPDEST SWAP1 POP DUP3 DUP2 MSTORE PUSH1 0x20 DUP2 ADD DUP5 DUP5 DUP5 ADD GT ISZERO PUSH2 0x2590 JUMPI PUSH2 0x258F PUSH2 0x20FB JUMP JUMPDEST JUMPDEST PUSH2 0x259B DUP5 DUP3 DUP6 PUSH2 0x2131 JUMP JUMPDEST POP SWAP4 SWAP3 POP POP POP JUMP JUMPDEST PUSH1 0x0 DUP3 PUSH1 0x1F DUP4 ADD SLT PUSH2 0x25B8 JUMPI PUSH2 0x25B7 PUSH2 0x1FB3 JUMP JUMPDEST JUMPDEST DUP2 CALLDATALOAD PUSH2 0x25C8 DUP5 DUP3 PUSH1 0x20 DUP7 ADD PUSH2 0x2561 JUMP JUMPDEST SWAP2 POP POP SWAP3 SWAP2 POP POP JUMP JUMPDEST PUSH1 0x0 PUSH1 0x20 DUP3 DUP5 SUB SLT ISZERO PUSH2 0x25E7 JUMPI PUSH2 0x25E6 PUSH2 0x1D08 JUMP JUMPDEST JUMPDEST PUSH1 0x0 DUP3 ADD CALLDATALOAD PUSH8 0xFFFFFFFFFFFFFFFF DUP2 GT ISZERO PUSH2 0x2605 JUMPI PUSH2 0x2604 PUSH2 0x1D0D JUMP JUMPDEST JUMPDEST PUSH2 0x2611 DUP5 DUP3 DUP6 ADD PUSH2 0x25A3 JUMP JUMPDEST SWAP2 POP POP SWAP3 SWAP2 POP POP JUMP JUMPDEST PUSH1 0x0 DUP1 PUSH1 0x40 DUP4 DUP6 SUB SLT ISZERO PUSH2 0x2631 JUMPI PUSH2 0x2630 PUSH2 0x1D08 JUMP JUMPDEST JUMPDEST PUSH1 0x0 PUSH2 0x263F DUP6 DUP3 DUP7 ADD PUSH2 0x1D5B JUMP JUMPDEST SWAP3 POP POP PUSH1 0x20 PUSH2 0x2650 DUP6 DUP3 DUP7 ADD PUSH2 0x1D5B JUMP JUMPDEST SWAP2 POP POP SWAP3 POP SWAP3 SWAP1 POP JUMP JUMPDEST PUSH1 0x0 DUP1 PUSH1 0x0 DUP1 PUSH1 0x0 PUSH1 0xA0 DUP7 DUP9 SUB SLT ISZERO PUSH2 0x2676 JUMPI PUSH2 0x2675 PUSH2 0x1D08 JUMP JUMPDEST JUMPDEST PUSH1 0x0 PUSH2 0x2684 DUP9 DUP3 DUP10 ADD PUSH2 0x1D5B JUMP JUMPDEST SWAP6 POP POP PUSH1 0x20 PUSH2 0x2695 DUP9 DUP3 DUP10 ADD PUSH2 0x1D5B JUMP JUMPDEST SWAP5 POP POP PUSH1 0x40 PUSH2 0x26A6 DUP9 DUP3 DUP10 ADD PUSH2 0x1D91 JUMP JUMPDEST SWAP4 POP POP PUSH1 0x60 PUSH2 0x26B7 DUP9 DUP3 DUP10 ADD PUSH2 0x1D91 JUMP JUMPDEST SWAP3 POP POP PUSH1 0x80 DUP7 ADD CALLDATALOAD PUSH8 0xFFFFFFFFFFFFFFFF DUP2 GT ISZERO PUSH2 0x26D8 JUMPI PUSH2 0x26D7 PUSH2 0x1D0D JUMP JUMPDEST JUMPDEST PUSH2 0x26E4 DUP9 DUP3 DUP10 ADD PUSH2 0x2182 JUMP JUMPDEST SWAP2 POP POP SWAP3 SWAP6 POP SWAP3 SWAP6 SWAP1 SWAP4 POP JUMP JUMPDEST PUSH1 0x0 PUSH1 0x20 DUP3 DUP5 SUB SLT ISZERO PUSH2 0x2707 JUMPI PUSH2 0x2706 PUSH2 0x1D08 JUMP JUMPDEST JUMPDEST PUSH1 0x0 PUSH2 0x2715 DUP5 DUP3 DUP6 ADD PUSH2 0x1D5B JUMP JUMPDEST SWAP2 POP POP SWAP3 SWAP2 POP POP JUMP JUMPDEST PUSH32 0x455243313135353A2062616C616E636520717565727920666F7220746865207A PUSH1 0x0 DUP3 ADD MSTORE PUSH32 0x65726F2061646472657373000000000000000000000000000000000000000000 PUSH1 0x20 DUP3 ADD MSTORE POP JUMP JUMPDEST PUSH1 0x0 PUSH2 0x277A PUSH1 0x2B DUP4 PUSH2 0x1F03 JUMP JUMPDEST SWAP2 POP PUSH2 0x2785 DUP3 PUSH2 0x271E JUMP JUMPDEST PUSH1 0x40 DUP3 ADD SWAP1 POP SWAP2 SWAP1 POP JUMP JUMPDEST PUSH1 0x0 PUSH1 0x20 DUP3 ADD SWAP1 POP DUP2 DUP2 SUB PUSH1 0x0 DUP4 ADD MSTORE PUSH2 0x27A9 DUP2 PUSH2 0x276D JUMP JUMPDEST SWAP1 POP SWAP2 SWAP1 POP JUMP JUMPDEST PUSH32 0x4E487B7100000000000000000000000000000000000000000000000000000000 PUSH1 0x0 MSTORE PUSH1 0x22 PUSH1 0x4 MSTORE PUSH1 0x24 PUSH1 0x0 REVERT JUMPDEST PUSH1 0x0 PUSH1 0x2 DUP3 DIV SWAP1 POP PUSH1 0x1 DUP3 AND DUP1 PUSH2 0x27F7 JUMPI PUSH1 0x7F DUP3 AND SWAP2 POP JUMPDEST PUSH1 0x20 DUP3 LT DUP2 EQ ISZERO PUSH2 0x280B JUMPI PUSH2 0x280A PUSH2 0x27B0 JUMP JUMPDEST JUMPDEST POP SWAP2 SWAP1 POP JUMP JUMPDEST PUSH32 0x455243313135353A207472616E736665722063616C6C6572206973206E6F7420 PUSH1 0x0 DUP3 ADD MSTORE PUSH32 0x6F776E6572206E6F7220617070726F7665640000000000000000000000000000 PUSH1 0x20 DUP3 ADD MSTORE POP JUMP JUMPDEST PUSH1 0x0 PUSH2 0x286D PUSH1 0x32 DUP4 PUSH2 0x1F03 JUMP JUMPDEST SWAP2 POP PUSH2 0x2878 DUP3 PUSH2 0x2811 JUMP JUMPDEST PUSH1 0x40 DUP3 ADD SWAP1 POP SWAP2 SWAP1 POP JUMP JUMPDEST PUSH1 0x0 PUSH1 0x20 DUP3 ADD SWAP1 POP DUP2 DUP2 SUB PUSH1 0x0 DUP4 ADD MSTORE PUSH2 0x289C DUP2 PUSH2 0x2860 JUMP JUMPDEST SWAP1 POP SWAP2 SWAP1 POP JUMP JUMPDEST PUSH32 0x455243313135353A206163636F756E747320616E6420696473206C656E677468 PUSH1 0x0 DUP3 ADD MSTORE PUSH32 0x206D69736D617463680000000000000000000000000000000000000000000000 PUSH1 0x20 DUP3 ADD MSTORE POP JUMP JUMPDEST PUSH1 0x0 PUSH2 0x28FF PUSH1 0x29 DUP4 PUSH2 0x1F03 JUMP JUMPDEST SWAP2 POP PUSH2 0x290A DUP3 PUSH2 0x28A3 JUMP JUMPDEST PUSH1 0x40 DUP3 ADD SWAP1 POP SWAP2 SWAP1 POP JUMP JUMPDEST PUSH1 0x0 PUSH1 0x20 DUP3 ADD SWAP1 POP DUP2 DUP2 SUB PUSH1 0x0 DUP4 ADD MSTORE PUSH2 0x292E DUP2 PUSH2 0x28F2 JUMP JUMPDEST SWAP1 POP SWAP2 SWAP1 POP JUMP JUMPDEST PUSH32 0x4E487B7100000000000000000000000000000000000000000000000000000000 PUSH1 0x0 MSTORE PUSH1 0x32 PUSH1 0x4 MSTORE PUSH1 0x24 PUSH1 0x0 REVERT JUMPDEST PUSH32 0x4E487B7100000000000000000000000000000000000000000000000000000000 PUSH1 0x0 MSTORE PUSH1 0x11 PUSH1 0x4 MSTORE PUSH1 0x24 PUSH1 0x0 REVERT JUMPDEST PUSH1 0x0 PUSH2 0x299E DUP3 PUSH2 0x1D70 JUMP JUMPDEST SWAP2 POP PUSH32 0xFFFFFFFFFFFFFFFFFFFFFFFFFFFFFFFFFFFFFFFFFFFFFFFFFFFFFFFFFFFFFFFF DUP3 EQ ISZERO PUSH2 0x29D1 JUMPI PUSH2 0x29D0 PUSH2 0x2964 JUMP JUMPDEST JUMPDEST PUSH1 0x1 DUP3 ADD SWAP1 POP SWAP2 SWAP1 POP JUMP JUMPDEST PUSH32 0x4F776E61626C653A2063616C6C6572206973206E6F7420746865206F776E6572 PUSH1 0x0 DUP3 ADD MSTORE POP JUMP JUMPDEST PUSH1 0x0 PUSH2 0x2A12 PUSH1 0x20 DUP4 PUSH2 0x1F03 JUMP JUMPDEST SWAP2 POP PUSH2 0x2A1D DUP3 PUSH2 0x29DC JUMP JUMPDEST PUSH1 0x20 DUP3 ADD SWAP1 POP SWAP2 SWAP1 POP JUMP JUMPDEST PUSH1 0x0 PUSH1 0x20 DUP3 ADD SWAP1 POP DUP2 DUP2 SUB PUSH1 0x0 DUP4 ADD MSTORE PUSH2 0x2A41 DUP2 PUSH2 0x2A05 JUMP JUMPDEST SWAP1 POP SWAP2 SWAP1 POP JUMP JUMPDEST PUSH1 0x0 PUSH2 0x2A53 DUP3 PUSH2 0x1D70 JUMP JUMPDEST SWAP2 POP PUSH2 0x2A5E DUP4 PUSH2 0x1D70 JUMP JUMPDEST SWAP3 POP DUP3 PUSH32 0xFFFFFFFFFFFFFFFFFFFFFFFFFFFFFFFFFFFFFFFFFFFFFFFFFFFFFFFFFFFFFFFF SUB DUP3 GT ISZERO PUSH2 0x2A93 JUMPI PUSH2 0x2A92 PUSH2 0x2964 JUMP JUMPDEST JUMPDEST DUP3 DUP3 ADD SWAP1 POP SWAP3 SWAP2 POP POP JUMP JUMPDEST PUSH32 0x455243313135353A2063616C6C6572206973206E6F74206F776E6572206E6F72 PUSH1 0x0 DUP3 ADD MSTORE PUSH32 0x20617070726F7665640000000000000000000000000000000000000000000000 PUSH1 0x20 DUP3 ADD MSTORE POP JUMP JUMPDEST PUSH1 0x0 PUSH2 0x2AFA PUSH1 0x29 DUP4 PUSH2 0x1F03 JUMP JUMPDEST SWAP2 POP PUSH2 0x2B05 DUP3 PUSH2 0x2A9E JUMP JUMPDEST PUSH1 0x40 DUP3 ADD SWAP1 POP SWAP2 SWAP1 POP JUMP JUMPDEST PUSH1 0x0 PUSH1 0x20 DUP3 ADD SWAP1 POP DUP2 DUP2 SUB PUSH1 0x0 DUP4 ADD MSTORE PUSH2 0x2B29 DUP2 PUSH2 0x2AED JUMP JUMPDEST SWAP1 POP SWAP2 SWAP1 POP JUMP JUMPDEST PUSH32 0x4F776E61626C653A206E6577206F776E657220697320746865207A65726F2061 PUSH1 0x0 DUP3 ADD MSTORE PUSH32 0x6464726573730000000000000000000000000000000000000000000000000000 PUSH1 0x20 DUP3 ADD MSTORE POP JUMP JUMPDEST PUSH1 0x0 PUSH2 0x2B8C PUSH1 0x26 DUP4 PUSH2 0x1F03 JUMP JUMPDEST SWAP2 POP PUSH2 0x2B97 DUP3 PUSH2 0x2B30 JUMP JUMPDEST PUSH1 0x40 DUP3 ADD SWAP1 POP SWAP2 SWAP1 POP JUMP JUMPDEST PUSH1 0x0 PUSH1 0x20 DUP3 ADD SWAP1 POP DUP2 DUP2 SUB PUSH1 0x0 DUP4 ADD MSTORE PUSH2 0x2BBB DUP2 PUSH2 0x2B7F JUMP JUMPDEST SWAP1 POP SWAP2 SWAP1 POP JUMP JUMPDEST PUSH32 0x455243313135353A2069647320616E6420616D6F756E7473206C656E67746820 PUSH1 0x0 DUP3 ADD MSTORE PUSH32 0x6D69736D61746368000000000000000000000000000000000000000000000000 PUSH1 0x20 DUP3 ADD MSTORE POP JUMP JUMPDEST PUSH1 0x0 PUSH2 0x2C1E PUSH1 0x28 DUP4 PUSH2 0x1F03 JUMP JUMPDEST SWAP2 POP PUSH2 0x2C29 DUP3 PUSH2 0x2BC2 JUMP JUMPDEST PUSH1 0x40 DUP3 ADD SWAP1 POP SWAP2 SWAP1 POP JUMP JUMPDEST PUSH1 0x0 PUSH1 0x20 DUP3 ADD SWAP1 POP DUP2 DUP2 SUB PUSH1 0x0 DUP4 ADD MSTORE PUSH2 0x2C4D DUP2 PUSH2 0x2C11 JUMP JUMPDEST SWAP1 POP SWAP2 SWAP1 POP JUMP JUMPDEST PUSH32 0x455243313135353A207472616E7366657220746F20746865207A65726F206164 PUSH1 0x0 DUP3 ADD MSTORE PUSH32 0x6472657373000000000000000000000000000000000000000000000000000000 PUSH1 0x20 DUP3 ADD MSTORE POP JUMP JUMPDEST PUSH1 0x0 PUSH2 0x2CB0 PUSH1 0x25 DUP4 PUSH2 0x1F03 JUMP JUMPDEST SWAP2 POP PUSH2 0x2CBB DUP3 PUSH2 0x2C54 JUMP JUMPDEST PUSH1 0x40 DUP3 ADD SWAP1 POP SWAP2 SWAP1 POP JUMP JUMPDEST PUSH1 0x0 PUSH1 0x20 DUP3 ADD SWAP1 POP DUP2 DUP2 SUB PUSH1 0x0 DUP4 ADD MSTORE PUSH2 0x2CDF DUP2 PUSH2 0x2CA3 JUMP JUMPDEST SWAP1 POP SWAP2 SWAP1 POP JUMP JUMPDEST PUSH32 0x455243313135353A20696E73756666696369656E742062616C616E636520666F PUSH1 0x0 DUP3 ADD MSTORE PUSH32 0x72207472616E7366657200000000000000000000000000000000000000000000 PUSH1 0x20 DUP3 ADD MSTORE POP JUMP JUMPDEST PUSH1 0x0 PUSH2 0x2D42 PUSH1 0x2A DUP4 PUSH2 0x1F03 JUMP JUMPDEST SWAP2 POP PUSH2 0x2D4D DUP3 PUSH2 0x2CE6 JUMP JUMPDEST PUSH1 0x40 DUP3 ADD SWAP1 POP SWAP2 SWAP1 POP JUMP JUMPDEST PUSH1 0x0 PUSH1 0x20 DUP3 ADD SWAP1 POP DUP2 DUP2 SUB PUSH1 0x0 DUP4 ADD MSTORE PUSH2 0x2D71 DUP2 PUSH2 0x2D35 JUMP JUMPDEST SWAP1 POP SWAP2 SWAP1 POP JUMP JUMPDEST PUSH1 0x0 PUSH1 0x40 DUP3 ADD SWAP1 POP DUP2 DUP2 SUB PUSH1 0x0 DUP4 ADD MSTORE PUSH2 0x2D92 DUP2 DUP6 PUSH2 0x241A JUMP JUMPDEST SWAP1 POP DUP2 DUP2 SUB PUSH1 0x20 DUP4 ADD MSTORE PUSH2 0x2DA6 DUP2 DUP5 PUSH2 0x241A JUMP JUMPDEST SWAP1 POP SWAP4 SWAP3 POP POP POP JUMP JUMPDEST PUSH32 0x455243313135353A206275726E2066726F6D20746865207A65726F2061646472 PUSH1 0x0 DUP3 ADD MSTORE PUSH32 0x6573730000000000000000000000000000000000000000000000000000000000 PUSH1 0x20 DUP3 ADD MSTORE POP JUMP JUMPDEST PUSH1 0x0 PUSH2 0x2E0B PUSH1 0x23 DUP4 PUSH2 0x1F03 JUMP JUMPDEST SWAP2 POP PUSH2 0x2E16 DUP3 PUSH2 0x2DAF JUMP JUMPDEST PUSH1 0x40 DUP3 ADD SWAP1 POP SWAP2 SWAP1 POP JUMP JUMPDEST PUSH1 0x0 PUSH1 0x20 DUP3 ADD SWAP1 POP DUP2 DUP2 SUB PUSH1 0x0 DUP4 ADD MSTORE PUSH2 0x2E3A DUP2 PUSH2 0x2DFE JUMP JUMPDEST SWAP1 POP SWAP2 SWAP1 POP JUMP JUMPDEST PUSH32 0x455243313135353A206275726E20616D6F756E7420657863656564732062616C PUSH1 0x0 DUP3 ADD MSTORE PUSH32 0x616E636500000000000000000000000000000000000000000000000000000000 PUSH1 0x20 DUP3 ADD MSTORE POP JUMP JUMPDEST PUSH1 0x0 PUSH2 0x2E9D PUSH1 0x24 DUP4 PUSH2 0x1F03 JUMP JUMPDEST SWAP2 POP PUSH2 0x2EA8 DUP3 PUSH2 0x2E41 JUMP JUMPDEST PUSH1 0x40 DUP3 ADD SWAP1 POP SWAP2 SWAP1 POP JUMP JUMPDEST PUSH1 0x0 PUSH1 0x20 DUP3 ADD SWAP1 POP DUP2 DUP2 SUB PUSH1 0x0 DUP4 ADD MSTORE PUSH2 0x2ECC DUP2 PUSH2 0x2E90 JUMP JUMPDEST SWAP1 POP SWAP2 SWAP1 POP JUMP JUMPDEST PUSH1 0x0 PUSH1 0x40 DUP3 ADD SWAP1 POP PUSH2 0x2EE8 PUSH1 0x0 DUP4 ADD DUP6 PUSH2 0x1DE6 JUMP JUMPDEST PUSH2 0x2EF5 PUSH1 0x20 DUP4 ADD DUP5 PUSH2 0x1DE6 JUMP JUMPDEST SWAP4 SWAP3 POP POP POP JUMP JUMPDEST PUSH32 0x455243313135353A2073657474696E6720617070726F76616C20737461747573 PUSH1 0x0 DUP3 ADD MSTORE PUSH32 0x20666F722073656C660000000000000000000000000000000000000000000000 PUSH1 0x20 DUP3 ADD MSTORE POP JUMP JUMPDEST PUSH1 0x0 PUSH2 0x2F58 PUSH1 0x29 DUP4 PUSH2 0x1F03 JUMP JUMPDEST SWAP2 POP PUSH2 0x2F63 DUP3 PUSH2 0x2EFC JUMP JUMPDEST PUSH1 0x40 DUP3 ADD SWAP1 POP SWAP2 SWAP1 POP JUMP JUMPDEST PUSH1 0x0 PUSH1 0x20 DUP3 ADD SWAP1 POP DUP2 DUP2 SUB PUSH1 0x0 DUP4 ADD MSTORE PUSH2 0x2F87 DUP2 PUSH2 0x2F4B JUMP JUMPDEST SWAP1 POP SWAP2 SWAP1 POP JUMP JUMPDEST PUSH32 0x455243313135353A206D696E7420746F20746865207A65726F20616464726573 PUSH1 0x0 DUP3 ADD MSTORE PUSH32 0x7300000000000000000000000000000000000000000000000000000000000000 PUSH1 0x20 DUP3 ADD MSTORE POP JUMP JUMPDEST PUSH1 0x0 PUSH2 0x2FEA PUSH1 0x21 DUP4 PUSH2 0x1F03 JUMP JUMPDEST SWAP2 POP PUSH2 0x2FF5 DUP3 PUSH2 0x2F8E JUMP JUMPDEST PUSH1 0x40 DUP3 ADD SWAP1 POP SWAP2 SWAP1 POP JUMP JUMPDEST PUSH1 0x0 PUSH1 0x20 DUP3 ADD SWAP1 POP DUP2 DUP2 SUB PUSH1 0x0 DUP4 ADD MSTORE PUSH2 0x3019 DUP2 PUSH2 0x2FDD JUMP JUMPDEST SWAP1 POP SWAP2 SWAP1 POP JUMP JUMPDEST PUSH1 0x0 DUP2 MLOAD SWAP1 POP SWAP2 SWAP1 POP JUMP JUMPDEST PUSH1 0x0 DUP3 DUP3 MSTORE PUSH1 0x20 DUP3 ADD SWAP1 POP SWAP3 SWAP2 POP POP JUMP JUMPDEST PUSH1 0x0 PUSH2 0x3047 DUP3 PUSH2 0x3020 JUMP JUMPDEST PUSH2 0x3051 DUP2 DUP6 PUSH2 0x302B JUMP JUMPDEST SWAP4 POP PUSH2 0x3061 DUP2 DUP6 PUSH1 0x20 DUP7 ADD PUSH2 0x1F14 JUMP JUMPDEST PUSH2 0x306A DUP2 PUSH2 0x1F47 JUMP JUMPDEST DUP5 ADD SWAP2 POP POP SWAP3 SWAP2 POP POP JUMP JUMPDEST PUSH1 0x0 PUSH1 0xA0 DUP3 ADD SWAP1 POP PUSH2 0x308A PUSH1 0x0 DUP4 ADD DUP9 PUSH2 0x249A JUMP JUMPDEST PUSH2 0x3097 PUSH1 0x20 DUP4 ADD DUP8 PUSH2 0x249A JUMP JUMPDEST DUP2 DUP2 SUB PUSH1 0x40 DUP4 ADD MSTORE PUSH2 0x30A9 DUP2 DUP7 PUSH2 0x241A JUMP JUMPDEST SWAP1 POP DUP2 DUP2 SUB PUSH1 0x60 DUP4 ADD MSTORE PUSH2 0x30BD DUP2 DUP6 PUSH2 0x241A JUMP JUMPDEST SWAP1 POP DUP2 DUP2 SUB PUSH1 0x80 DUP4 ADD MSTORE PUSH2 0x30D1 DUP2 DUP5 PUSH2 0x303C JUMP JUMPDEST SWAP1 POP SWAP7 SWAP6 POP POP POP POP POP POP JUMP JUMPDEST PUSH1 0x0 DUP2 MLOAD SWAP1 POP PUSH2 0x30EC DUP2 PUSH2 0x1E3C JUMP JUMPDEST SWAP3 SWAP2 POP POP JUMP JUMPDEST PUSH1 0x0 PUSH1 0x20 DUP3 DUP5 SUB SLT ISZERO PUSH2 0x3108 JUMPI PUSH2 0x3107 PUSH2 0x1D08 JUMP JUMPDEST JUMPDEST PUSH1 0x0 PUSH2 0x3116 DUP5 DUP3 DUP6 ADD PUSH2 0x30DD JUMP JUMPDEST SWAP2 POP POP SWAP3 SWAP2 POP POP JUMP JUMPDEST PUSH1 0x0 DUP2 PUSH1 0xE0 SHR SWAP1 POP SWAP2 SWAP1 POP JUMP JUMPDEST PUSH1 0x0 PUSH1 0x3 RETURNDATASIZE GT ISZERO PUSH2 0x314B JUMPI PUSH1 0x4 PUSH1 0x0 DUP1 RETURNDATACOPY PUSH2 0x3148 PUSH1 0x0 MLOAD PUSH2 0x311F JUMP JUMPDEST SWAP1 POP JUMPDEST SWAP1 JUMP JUMPDEST PUSH1 0x0 PUSH1 0x44 RETURNDATASIZE LT ISZERO PUSH2 0x315E JUMPI PUSH2 0x31E1 JUMP JUMPDEST PUSH2 0x3166 PUSH2 0x1CFE JUMP JUMPDEST PUSH1 0x4 RETURNDATASIZE SUB PUSH1 0x4 DUP3 RETURNDATACOPY DUP1 MLOAD RETURNDATASIZE PUSH1 0x24 DUP3 ADD GT PUSH8 0xFFFFFFFFFFFFFFFF DUP3 GT OR ISZERO PUSH2 0x318E JUMPI POP POP PUSH2 0x31E1 JUMP JUMPDEST DUP1 DUP3 ADD DUP1 MLOAD PUSH8 0xFFFFFFFFFFFFFFFF DUP2 GT ISZERO PUSH2 0x31AC JUMPI POP POP POP POP PUSH2 0x31E1 JUMP JUMPDEST DUP1 PUSH1 0x20 DUP4 ADD ADD PUSH1 0x4 RETURNDATASIZE SUB DUP6 ADD DUP2 GT ISZERO PUSH2 0x31C9 JUMPI POP POP POP POP POP PUSH2 0x31E1 JUMP JUMPDEST PUSH2 0x31D8 DUP3 PUSH1 0x20 ADD DUP6 ADD DUP7 PUSH2 0x1FE7 JUMP JUMPDEST DUP3 SWAP6 POP POP POP POP POP POP JUMPDEST SWAP1 JUMP JUMPDEST PUSH32 0x455243313135353A207472616E7366657220746F206E6F6E2045524331313535 PUSH1 0x0 DUP3 ADD MSTORE PUSH32 0x526563656976657220696D706C656D656E746572000000000000000000000000 PUSH1 0x20 DUP3 ADD MSTORE POP JUMP JUMPDEST PUSH1 0x0 PUSH2 0x3240 PUSH1 0x34 DUP4 PUSH2 0x1F03 JUMP JUMPDEST SWAP2 POP PUSH2 0x324B DUP3 PUSH2 0x31E4 JUMP JUMPDEST PUSH1 0x40 DUP3 ADD SWAP1 POP SWAP2 SWAP1 POP JUMP JUMPDEST PUSH1 0x0 PUSH1 0x20 DUP3 ADD SWAP1 POP DUP2 DUP2 SUB PUSH1 0x0 DUP4 ADD MSTORE PUSH2 0x326F DUP2 PUSH2 0x3233 JUMP JUMPDEST SWAP1 POP SWAP2 SWAP1 POP JUMP JUMPDEST PUSH32 0x455243313135353A204552433131353552656365697665722072656A65637465 PUSH1 0x0 DUP3 ADD MSTORE PUSH32 0x6420746F6B656E73000000000000000000000000000000000000000000000000 PUSH1 0x20 DUP3 ADD MSTORE POP JUMP JUMPDEST PUSH1 0x0 PUSH2 0x32D2 PUSH1 0x28 DUP4 PUSH2 0x1F03 JUMP JUMPDEST SWAP2 POP PUSH2 0x32DD DUP3 PUSH2 0x3276 JUMP JUMPDEST PUSH1 0x40 DUP3 ADD SWAP1 POP SWAP2 SWAP1 POP JUMP JUMPDEST PUSH1 0x0 PUSH1 0x20 DUP3 ADD SWAP1 POP DUP2 DUP2 SUB PUSH1 0x0 DUP4 ADD MSTORE PUSH2 0x3301 DUP2 PUSH2 0x32C5 JUMP JUMPDEST SWAP1 POP SWAP2 SWAP1 POP JUMP JUMPDEST PUSH1 0x0 PUSH1 0xA0 DUP3 ADD SWAP1 POP PUSH2 0x331D PUSH1 0x0 DUP4 ADD DUP9 PUSH2 0x249A JUMP JUMPDEST PUSH2 0x332A PUSH1 0x20 DUP4 ADD DUP8 PUSH2 0x249A JUMP JUMPDEST PUSH2 0x3337 PUSH1 0x40 DUP4 ADD DUP7 PUSH2 0x1DE6 JUMP JUMPDEST PUSH2 0x3344 PUSH1 0x60 DUP4 ADD DUP6 PUSH2 0x1DE6 JUMP JUMPDEST DUP2 DUP2 SUB PUSH1 0x80 DUP4 ADD MSTORE PUSH2 0x3356 DUP2 DUP5 PUSH2 0x303C JUMP JUMPDEST SWAP1 POP SWAP7 SWAP6 POP POP POP POP POP POP JUMP INVALID LOG2 PUSH5 0x6970667358 0x22 SLT KECCAK256 PUSH3 0x7C1EE2 PUSH31 0x8A4B65713FBF8F97C8F64EEE84EC5073706B76D5D7FDACB72852AC64736F6C PUSH4 0x4300080A STOP CALLER PUSH9 0x747470733A2F2F6761 PUSH21 0x657761792E70696E6174612E636C6F75642F697066 PUSH20 0x2F516D4E664B4636717948594B36424B534E4255 PUSH19 0x464A6B6D5A4835335A34623739576A58384742 PUSH18 0x336A594B344A68747470733A2F2F67617465 PUSH24 0x61792E70696E6174612E636C6F75642F697066732F516D5A CODECOPY PUSH11 0x6657586B563556766E7974 PUSH6 0x637179323861 CODECOPY PUSH3 0x506E72 PUSH27 0x6F4568717A74316569586663797875677600000000000000000000 "},"gasEstimates":{"creation":{"codeDepositCost":"2641600","executionCost":"infinite","totalCost":"infinite"},"external":{"Token_Id()":"2497","_tokens(uint256)":"infinite","balanceOf(address,uint256)":"infinite","balanceOfBatch(address[],uint256[])":"infinite","burn(address,uint256)":"infinite","contractURI()":"infinite","isApprovedForAll(address,address)":"infinite","mint(string)":"infinite","owner()":"2611","renounceOwnership()":"30441","safeBatchTransferFrom(address,address,uint256[],uint256[],bytes)":"infinite","safeTransferFrom(address,address,uint256,uint256,bytes)":"infinite","setApprovalForAll(address,bool)":"infinite","supportsInterface(bytes4)":"819","transferOwnership(address)":"30811","uri(uint256)":"infinite"}},"methodIdentifiers":{"Token_Id()":"0673d7d0","_tokens(uint256)":"ed70554d","balanceOf(address,uint256)":"00fdd58e","balanceOfBatch(address[],uint256[])":"4e1273f4","burn(address,uint256)":"9dc29fac","contractURI()":"e8a3d485","isApprovedForAll(address,address)":"e985e9c5","mint(string)":"d85d3d27","owner()":"8da5cb5b","renounceOwnership()":"715018a6","safeBatchTransferFrom(address,address,uint256[],uint256[],bytes)":"2eb2c2d6","safeTransferFrom(address,address,uint256,uint256,bytes)":"f242432a","setApprovalForAll(address,bool)":"a22cb465","supportsInterface(bytes4)":"01ffc9a7","transferOwnership(address)":"f2fde38b","uri(uint256)":"0e89341c"}},"storageLayout":{"storage":[{"astId":643,"contract":"High_Nft.sol:High_NFT","label":"_balances","offset":0,"slot":"0","type":"t_mapping(t_uint256,t_mapping(t_address,t_uint256))"},{"astId":649,"contract":"High_Nft.sol:High_NFT","label":"_operatorApprovals","offset":0,"slot":"1","type":"t_mapping(t_address,t_mapping(t_address,t_bool))"},{"astId":651,"contract":"High_Nft.sol:High_NFT","label":"_uri","offset":0,"slot":"2","type":"t_string_storage"},{"astId":528,"contract":"High_Nft.sol:High_NFT","label":"_owner","offset":0,"slot":"3","type":"t_address"},{"astId":1721,"contract":"High_Nft.sol:High_NFT","label":"Token_Id","offset":0,"slot":"4","type":"t_uint256"},{"astId":1725,"contract":"High_Nft.sol:High_NFT","label":"_tokens","offset":0,"slot":"5","type":"t_mapping(t_uint256,t_string_storage)"},{"astId":1728,"contract":"High_Nft.sol:High_NFT","label":"contractURI","offset":0,"slot":"6","type":"t_string_storage"}],"types":{"t_address":{"encoding":"inplace","label":"address","numberOfBytes":"20"},"t_bool":{"encoding":"inplace","label":"bool","numberOfBytes":"1"},"t_mapping(t_address,t_bool)":{"encoding":"mapping","key":"t_address","label":"mapping(address => bool)","numberOfBytes":"32","value":"t_bool"},"t_mapping(t_address,t_mapping(t_address,t_bool))":{"encoding":"mapping","key":"t_address","label":"mapping(address => mapping(address => bool))","numberOfBytes":"32","value":"t_mapping(t_address,t_bool)"},"t_mapping(t_address,t_uint256)":{"encoding":"mapping","key":"t_address","label":"mapping(address => uint256)","numberOfBytes":"32","value":"t_uint256"},"t_mapping(t_uint256,t_mapping(t_address,t_uint256))":{"encoding":"mapping","key":"t_uint256","label":"mapping(uint256 => mapping(address => uint256))","numberOfBytes":"32","value":"t_mapping(t_address,t_uint256)"},"t_mapping(t_uint256,t_string_storage)":{"encoding":"mapping","key":"t_uint256","label":"mapping(uint256 => string)","numberOfBytes":"32","value":"t_string_storage"},"t_string_storage":{"encoding":"bytes","label":"string","numberOfBytes":"32"},"t_uint256":{"encoding":"inplace","label":"uint256","numberOfBytes":"32"}}},"userdoc":{"kind":"user","methods":{},"version":1}}