{"abi":[{"inputs":[{"internalType":"address","name":"ad","type":"address"}],"stateMutability":"nonpayable","type":"constructor"},{"anonymous":false,"inputs":[{"indexed":true,"internalType":"address","name":"previousOwner","type":"address"},{"indexed":true,"internalType":"address","name":"newOwner","type":"address"}],"name":"OwnershipTransferred","type":"event"},{"inputs":[{"internalType":"uint256","name":"","type":"uint256"}],"name":"_listingDetails","outputs":[{"internalType":"address","name":"seller","type":"address"},{"internalType":"uint256","name":"price","type":"uint256"}],"stateMutability":"view","type":"function"},{"inputs":[{"internalType":"uint256","name":"id","type":"uint256"}],"name":"buy_asset","outputs":[],"stateMutability":"payable","type":"function"},{"inputs":[{"internalType":"uint256","name":"id","type":"uint256"},{"internalType":"uint256","name":"_askPrice","type":"uint256"}],"name":"list_asset","outputs":[],"stateMutability":"payable","type":"function"},{"inputs":[{"internalType":"address","name":"","type":"address"},{"internalType":"address","name":"","type":"address"},{"internalType":"uint256[]","name":"","type":"uint256[]"},{"internalType":"uint256[]","name":"","type":"uint256[]"},{"internalType":"bytes","name":"","type":"bytes"}],"name":"onERC1155BatchReceived","outputs":[{"internalType":"bytes4","name":"","type":"bytes4"}],"stateMutability":"nonpayable","type":"function"},{"inputs":[{"internalType":"address","name":"","type":"address"},{"internalType":"address","name":"","type":"address"},{"internalType":"uint256","name":"","type":"uint256"},{"internalType":"uint256","name":"","type":"uint256"},{"internalType":"bytes","name":"","type":"bytes"}],"name":"onERC1155Received","outputs":[{"internalType":"bytes4","name":"","type":"bytes4"}],"stateMutability":"nonpayable","type":"function"},{"inputs":[],"name":"owner","outputs":[{"internalType":"address","name":"","type":"address"}],"stateMutability":"view","type":"function"},{"inputs":[],"name":"renounceOwnership","outputs":[],"stateMutability":"nonpayable","type":"function"},{"inputs":[{"internalType":"bytes4","name":"interfaceId","type":"bytes4"}],"name":"supportsInterface","outputs":[{"internalType":"bool","name":"","type":"bool"}],"stateMutability":"view","type":"function"},{"inputs":[{"internalType":"address","name":"newOwner","type":"address"}],"name":"transferOwnership","outputs":[],"stateMutability":"nonpayable","type":"function"}],"devdoc":{"kind":"dev","methods":{"owner()":{"details":"Returns the address of the current owner."},"renounceOwnership()":{"details":"Leaves the contract without owner. It will not be possible to call `onlyOwner` functions anymore. Can only be called by the current owner. NOTE: Renouncing ownership will leave the contract without an owner, thereby removing any functionality that is only available to the owner."},"supportsInterface(bytes4)":{"details":"See {IERC165-supportsInterface}."},"transferOwnership(address)":{"details":"Transfers ownership of the contract to a new account (`newOwner`). Can only be called by the current owner."}},"version":1},"evm":{"assembly":"    /* \"Marketplace.sol\":37383:38578  contract Marketplace is ERC1155Holder, Ownable, ReentrancyGuard {... */\n  mstore(0x40, 0x80)\n    /* \"Marketplace.sol\":37548:37610  constructor(address ad) {... */\n  callvalue\n  dup1\n  iszero\n  tag_1\n  jumpi\n  0x00\n  dup1\n  revert\ntag_1:\n  pop\n  mload(0x40)\n  sub(codesize, bytecodeSize)\n  dup1\n  bytecodeSize\n  dup4\n  codecopy\n  dup2\n  dup2\n  add\n  0x40\n  mstore\n  dup2\n  add\n  swap1\n  tag_2\n  swap2\n  swap1\n  tag_3\n  jump\t// in\ntag_2:\n    /* \"Marketplace.sol\":20056:20079  _setOwner(_msgSender()) */\n  tag_8\n    /* \"Marketplace.sol\":20066:20078  _msgSender() */\n  tag_9\n    /* \"Marketplace.sol\":20066:20076  _msgSender */\n  shl(0x20, tag_10)\n    /* \"Marketplace.sol\":20066:20078  _msgSender() */\n  0x20\n  shr\n  jump\t// in\ntag_9:\n    /* \"Marketplace.sol\":20056:20065  _setOwner */\n  shl(0x20, tag_11)\n    /* \"Marketplace.sol\":20056:20079  _setOwner(_msgSender()) */\n  0x20\n  shr\n  jump\t// in\ntag_8:\n    /* \"Marketplace.sol\":886:887  1 */\n  0x01\n    /* \"Marketplace.sol\":991:998  _status */\n  dup1\n    /* \"Marketplace.sol\":991:1013  _status = _NOT_ENTERED */\n  dup2\n  swap1\n  sstore\n  pop\n    /* \"Marketplace.sol\":37600:37602  ad */\n  dup1\n    /* \"Marketplace.sol\":37578:37589  NFT_address */\n  0x02\n  0x00\n    /* \"Marketplace.sol\":37578:37603  NFT_address = payable(ad) */\n  0x0100\n  exp\n  dup2\n  sload\n  dup2\n  0xffffffffffffffffffffffffffffffffffffffff\n  mul\n  not\n  and\n  swap1\n  dup4\n  0xffffffffffffffffffffffffffffffffffffffff\n  and\n  mul\n  or\n  swap1\n  sstore\n  pop\n    /* \"Marketplace.sol\":37548:37610  constructor(address ad) {... */\n  pop\n    /* \"Marketplace.sol\":37383:38578  contract Marketplace is ERC1155Holder, Ownable, ReentrancyGuard {... */\n  jump(tag_14)\n    /* \"Marketplace.sol\":2400:2496  function _msgSender() internal view virtual returns (address) {... */\ntag_10:\n    /* \"Marketplace.sol\":2453:2460  address */\n  0x00\n    /* \"Marketplace.sol\":2479:2489  msg.sender */\n  caller\n    /* \"Marketplace.sol\":2472:2489  return msg.sender */\n  swap1\n  pop\n    /* \"Marketplace.sol\":2400:2496  function _msgSender() internal view virtual returns (address) {... */\n  swap1\n  jump\t// out\n    /* \"Marketplace.sol\":21230:21399  function _setOwner(address newOwner) private {... */\ntag_11:\n    /* \"Marketplace.sol\":21285:21301  address oldOwner */\n  0x00\n    /* \"Marketplace.sol\":21304:21310  _owner */\n  dup1\n  0x00\n  swap1\n  sload\n  swap1\n  0x0100\n  exp\n  swap1\n  div\n  0xffffffffffffffffffffffffffffffffffffffff\n  and\n    /* \"Marketplace.sol\":21285:21310  address oldOwner = _owner */\n  swap1\n  pop\n    /* \"Marketplace.sol\":21329:21337  newOwner */\n  dup2\n    /* \"Marketplace.sol\":21320:21326  _owner */\n  0x00\n  dup1\n    /* \"Marketplace.sol\":21320:21337  _owner = newOwner */\n  0x0100\n  exp\n  dup2\n  sload\n  dup2\n  0xffffffffffffffffffffffffffffffffffffffff\n  mul\n  not\n  and\n  swap1\n  dup4\n  0xffffffffffffffffffffffffffffffffffffffff\n  and\n  mul\n  or\n  swap1\n  sstore\n  pop\n    /* \"Marketplace.sol\":21383:21391  newOwner */\n  dup2\n    /* \"Marketplace.sol\":21352:21392  OwnershipTransferred(oldOwner, newOwner) */\n  0xffffffffffffffffffffffffffffffffffffffff\n  and\n    /* \"Marketplace.sol\":21373:21381  oldOwner */\n  dup2\n    /* \"Marketplace.sol\":21352:21392  OwnershipTransferred(oldOwner, newOwner) */\n  0xffffffffffffffffffffffffffffffffffffffff\n  and\n  0x8be0079c531659141344cd1fd0a4f28419497f9722a3daafe3b4186f6b6457e0\n  mload(0x40)\n  mload(0x40)\n  dup1\n  swap2\n  sub\n  swap1\n  log3\n    /* \"Marketplace.sol\":21275:21399  {... */\n  pop\n    /* \"Marketplace.sol\":21230:21399  function _setOwner(address newOwner) private {... */\n  pop\n  jump\t// out\n    /* \"#utility.yul\":88:205   */\ntag_18:\n    /* \"#utility.yul\":197:198   */\n  0x00\n    /* \"#utility.yul\":194:195   */\n  dup1\n    /* \"#utility.yul\":187:199   */\n  revert\n    /* \"#utility.yul\":334:460   */\ntag_20:\n    /* \"#utility.yul\":371:378   */\n  0x00\n    /* \"#utility.yul\":411:453   */\n  0xffffffffffffffffffffffffffffffffffffffff\n    /* \"#utility.yul\":404:409   */\n  dup3\n    /* \"#utility.yul\":400:454   */\n  and\n    /* \"#utility.yul\":389:454   */\n  swap1\n  pop\n    /* \"#utility.yul\":334:460   */\n  swap2\n  swap1\n  pop\n  jump\t// out\n    /* \"#utility.yul\":466:562   */\ntag_21:\n    /* \"#utility.yul\":503:510   */\n  0x00\n    /* \"#utility.yul\":532:556   */\n  tag_30\n    /* \"#utility.yul\":550:555   */\n  dup3\n    /* \"#utility.yul\":532:556   */\n  tag_20\n  jump\t// in\ntag_30:\n    /* \"#utility.yul\":521:556   */\n  swap1\n  pop\n    /* \"#utility.yul\":466:562   */\n  swap2\n  swap1\n  pop\n  jump\t// out\n    /* \"#utility.yul\":568:690   */\ntag_22:\n    /* \"#utility.yul\":641:665   */\n  tag_32\n    /* \"#utility.yul\":659:664   */\n  dup2\n    /* \"#utility.yul\":641:665   */\n  tag_21\n  jump\t// in\ntag_32:\n    /* \"#utility.yul\":634:639   */\n  dup2\n    /* \"#utility.yul\":631:666   */\n  eq\n    /* \"#utility.yul\":621:684   */\n  tag_33\n  jumpi\n    /* \"#utility.yul\":680:681   */\n  0x00\n    /* \"#utility.yul\":677:678   */\n  dup1\n    /* \"#utility.yul\":670:682   */\n  revert\n    /* \"#utility.yul\":621:684   */\ntag_33:\n    /* \"#utility.yul\":568:690   */\n  pop\n  jump\t// out\n    /* \"#utility.yul\":696:839   */\ntag_23:\n    /* \"#utility.yul\":753:758   */\n  0x00\n    /* \"#utility.yul\":784:790   */\n  dup2\n    /* \"#utility.yul\":778:791   */\n  mload\n    /* \"#utility.yul\":769:791   */\n  swap1\n  pop\n    /* \"#utility.yul\":800:833   */\n  tag_35\n    /* \"#utility.yul\":827:832   */\n  dup2\n    /* \"#utility.yul\":800:833   */\n  tag_22\n  jump\t// in\ntag_35:\n    /* \"#utility.yul\":696:839   */\n  swap3\n  swap2\n  pop\n  pop\n  jump\t// out\n    /* \"#utility.yul\":845:1196   */\ntag_3:\n    /* \"#utility.yul\":915:921   */\n  0x00\n    /* \"#utility.yul\":964:966   */\n  0x20\n    /* \"#utility.yul\":952:961   */\n  dup3\n    /* \"#utility.yul\":943:950   */\n  dup5\n    /* \"#utility.yul\":939:962   */\n  sub\n    /* \"#utility.yul\":935:967   */\n  slt\n    /* \"#utility.yul\":932:1051   */\n  iszero\n  tag_37\n  jumpi\n    /* \"#utility.yul\":970:1049   */\n  tag_38\n  tag_18\n  jump\t// in\ntag_38:\n    /* \"#utility.yul\":932:1051   */\ntag_37:\n    /* \"#utility.yul\":1090:1091   */\n  0x00\n    /* \"#utility.yul\":1115:1179   */\n  tag_39\n    /* \"#utility.yul\":1171:1178   */\n  dup5\n    /* \"#utility.yul\":1162:1168   */\n  dup3\n    /* \"#utility.yul\":1151:1160   */\n  dup6\n    /* \"#utility.yul\":1147:1169   */\n  add\n    /* \"#utility.yul\":1115:1179   */\n  tag_23\n  jump\t// in\ntag_39:\n    /* \"#utility.yul\":1105:1179   */\n  swap2\n  pop\n    /* \"#utility.yul\":1061:1189   */\n  pop\n    /* \"#utility.yul\":845:1196   */\n  swap3\n  swap2\n  pop\n  pop\n  jump\t// out\n    /* \"Marketplace.sol\":37383:38578  contract Marketplace is ERC1155Holder, Ownable, ReentrancyGuard {... */\ntag_14:\n  dataSize(sub_0)\n  dup1\n  dataOffset(sub_0)\n  0x00\n  codecopy\n  0x00\n  return\nstop\n\nsub_0: assembly {\n        /* \"Marketplace.sol\":37383:38578  contract Marketplace is ERC1155Holder, Ownable, ReentrancyGuard {... */\n      mstore(0x40, 0x80)\n      jumpi(tag_1, lt(calldatasize, 0x04))\n      shr(0xe0, calldataload(0x00))\n      dup1\n      0x8da5cb5b\n      gt\n      tag_11\n      jumpi\n      dup1\n      0x8da5cb5b\n      eq\n      tag_6\n      jumpi\n      dup1\n      0xbc197c81\n      eq\n      tag_7\n      jumpi\n      dup1\n      0xf0090528\n      eq\n      tag_8\n      jumpi\n      dup1\n      0xf23a6e61\n      eq\n      tag_9\n      jumpi\n      dup1\n      0xf2fde38b\n      eq\n      tag_10\n      jumpi\n      jump(tag_1)\n    tag_11:\n      dup1\n      0x01ffc9a7\n      eq\n      tag_2\n      jumpi\n      dup1\n      0x598b2b53\n      eq\n      tag_3\n      jumpi\n      dup1\n      0x6b4e0b01\n      eq\n      tag_4\n      jumpi\n      dup1\n      0x715018a6\n      eq\n      tag_5\n      jumpi\n    tag_1:\n      0x00\n      dup1\n      revert\n        /* \"Marketplace.sol\":36584:36805  function supportsInterface(bytes4 interfaceId) public view virtual override(ERC165, IERC165) returns (bool) {... */\n    tag_2:\n      callvalue\n      dup1\n      iszero\n      tag_12\n      jumpi\n      0x00\n      dup1\n      revert\n    tag_12:\n      pop\n      tag_13\n      0x04\n      dup1\n      calldatasize\n      sub\n      dup2\n      add\n      swap1\n      tag_14\n      swap2\n      swap1\n      tag_15\n      jump\t// in\n    tag_14:\n      tag_16\n      jump\t// in\n    tag_13:\n      mload(0x40)\n      tag_17\n      swap2\n      swap1\n      tag_18\n      jump\t// in\n    tag_17:\n      mload(0x40)\n      dup1\n      swap2\n      sub\n      swap1\n      return\n        /* \"Marketplace.sol\":37487:37537  mapping(uint256 => Listing) public _listingDetails */\n    tag_3:\n      callvalue\n      dup1\n      iszero\n      tag_19\n      jumpi\n      0x00\n      dup1\n      revert\n    tag_19:\n      pop\n      tag_20\n      0x04\n      dup1\n      calldatasize\n      sub\n      dup2\n      add\n      swap1\n      tag_21\n      swap2\n      swap1\n      tag_22\n      jump\t// in\n    tag_21:\n      tag_23\n      jump\t// in\n    tag_20:\n      mload(0x40)\n      tag_24\n      swap3\n      swap2\n      swap1\n      tag_25\n      jump\t// in\n    tag_24:\n      mload(0x40)\n      dup1\n      swap2\n      sub\n      swap1\n      return\n        /* \"Marketplace.sol\":37738:38063  function list_asset(uint256 id, uint256 _askPrice) public payable {... */\n    tag_4:\n      tag_26\n      0x04\n      dup1\n      calldatasize\n      sub\n      dup2\n      add\n      swap1\n      tag_27\n      swap2\n      swap1\n      tag_28\n      jump\t// in\n    tag_27:\n      tag_29\n      jump\t// in\n    tag_26:\n      stop\n        /* \"Marketplace.sol\":20794:20886  function renounceOwnership() public virtual onlyOwner {... */\n    tag_5:\n      callvalue\n      dup1\n      iszero\n      tag_30\n      jumpi\n      0x00\n      dup1\n      revert\n    tag_30:\n      pop\n      tag_31\n      tag_32\n      jump\t// in\n    tag_31:\n      stop\n        /* \"Marketplace.sol\":20162:20247  function owner() public view virtual returns (address) {... */\n    tag_6:\n      callvalue\n      dup1\n      iszero\n      tag_33\n      jumpi\n      0x00\n      dup1\n      revert\n    tag_33:\n      pop\n      tag_34\n      tag_35\n      jump\t// in\n    tag_34:\n      mload(0x40)\n      tag_36\n      swap2\n      swap1\n      tag_37\n      jump\t// in\n    tag_36:\n      mload(0x40)\n      dup1\n      swap2\n      sub\n      swap1\n      return\n        /* \"Marketplace.sol\":37108:37355  function onERC1155BatchReceived(... */\n    tag_7:\n      callvalue\n      dup1\n      iszero\n      tag_38\n      jumpi\n      0x00\n      dup1\n      revert\n    tag_38:\n      pop\n      tag_39\n      0x04\n      dup1\n      calldatasize\n      sub\n      dup2\n      add\n      swap1\n      tag_40\n      swap2\n      swap1\n      tag_41\n      jump\t// in\n    tag_40:\n      tag_42\n      jump\t// in\n    tag_39:\n      mload(0x40)\n      tag_43\n      swap2\n      swap1\n      tag_44\n      jump\t// in\n    tag_43:\n      mload(0x40)\n      dup1\n      swap2\n      sub\n      swap1\n      return\n        /* \"Marketplace.sol\":38073:38576  function buy_asset(uint256 id) external payable nonReentrant {... */\n    tag_8:\n      tag_45\n      0x04\n      dup1\n      calldatasize\n      sub\n      dup2\n      add\n      swap1\n      tag_46\n      swap2\n      swap1\n      tag_22\n      jump\t// in\n    tag_46:\n      tag_47\n      jump\t// in\n    tag_45:\n      stop\n        /* \"Marketplace.sol\":36883:37102  function onERC1155Received(... */\n    tag_9:\n      callvalue\n      dup1\n      iszero\n      tag_48\n      jumpi\n      0x00\n      dup1\n      revert\n    tag_48:\n      pop\n      tag_49\n      0x04\n      dup1\n      calldatasize\n      sub\n      dup2\n      add\n      swap1\n      tag_50\n      swap2\n      swap1\n      tag_51\n      jump\t// in\n    tag_50:\n      tag_52\n      jump\t// in\n    tag_49:\n      mload(0x40)\n      tag_53\n      swap2\n      swap1\n      tag_44\n      jump\t// in\n    tag_53:\n      mload(0x40)\n      dup1\n      swap2\n      sub\n      swap1\n      return\n        /* \"Marketplace.sol\":21035:21224  function transferOwnership(address newOwner) public virtual onlyOwner {... */\n    tag_10:\n      callvalue\n      dup1\n      iszero\n      tag_54\n      jumpi\n      0x00\n      dup1\n      revert\n    tag_54:\n      pop\n      tag_55\n      0x04\n      dup1\n      calldatasize\n      sub\n      dup2\n      add\n      swap1\n      tag_56\n      swap2\n      swap1\n      tag_57\n      jump\t// in\n    tag_56:\n      tag_58\n      jump\t// in\n    tag_55:\n      stop\n        /* \"Marketplace.sol\":36584:36805  function supportsInterface(bytes4 interfaceId) public view virtual override(ERC165, IERC165) returns (bool) {... */\n    tag_16:\n        /* \"Marketplace.sol\":36686:36690  bool */\n      0x00\n        /* \"Marketplace.sol\":36724:36758  type(IERC1155Receiver).interfaceId */\n      0x4e2312e000000000000000000000000000000000000000000000000000000000\n        /* \"Marketplace.sol\":36709:36758  interfaceId == type(IERC1155Receiver).interfaceId */\n      not(0xffffffffffffffffffffffffffffffffffffffffffffffffffffffff)\n      and\n        /* \"Marketplace.sol\":36709:36720  interfaceId */\n      dup3\n        /* \"Marketplace.sol\":36709:36758  interfaceId == type(IERC1155Receiver).interfaceId */\n      not(0xffffffffffffffffffffffffffffffffffffffffffffffffffffffff)\n      and\n      eq\n        /* \"Marketplace.sol\":36709:36798  interfaceId == type(IERC1155Receiver).interfaceId || super.supportsInterface(interfaceId) */\n      dup1\n      tag_60\n      jumpi\n      pop\n        /* \"Marketplace.sol\":36762:36798  super.supportsInterface(interfaceId) */\n      tag_61\n        /* \"Marketplace.sol\":36786:36797  interfaceId */\n      dup3\n        /* \"Marketplace.sol\":36762:36785  super.supportsInterface */\n      tag_62\n        /* \"Marketplace.sol\":36762:36798  super.supportsInterface(interfaceId) */\n      jump\t// in\n    tag_61:\n        /* \"Marketplace.sol\":36709:36798  interfaceId == type(IERC1155Receiver).interfaceId || super.supportsInterface(interfaceId) */\n    tag_60:\n        /* \"Marketplace.sol\":36702:36798  return interfaceId == type(IERC1155Receiver).interfaceId || super.supportsInterface(interfaceId) */\n      swap1\n      pop\n        /* \"Marketplace.sol\":36584:36805  function supportsInterface(bytes4 interfaceId) public view virtual override(ERC165, IERC165) returns (bool) {... */\n      swap2\n      swap1\n      pop\n      jump\t// out\n        /* \"Marketplace.sol\":37487:37537  mapping(uint256 => Listing) public _listingDetails */\n    tag_23:\n      mstore(0x20, 0x03)\n      dup1\n      0x00\n      mstore\n      keccak256(0x00, 0x40)\n      0x00\n      swap2\n      pop\n      swap1\n      pop\n      dup1\n      0x00\n      add\n      0x00\n      swap1\n      sload\n      swap1\n      0x0100\n      exp\n      swap1\n      div\n      0xffffffffffffffffffffffffffffffffffffffff\n      and\n      swap1\n      dup1\n      0x01\n      add\n      sload\n      swap1\n      pop\n      dup3\n      jump\t// out\n        /* \"Marketplace.sol\":37738:38063  function list_asset(uint256 id, uint256 _askPrice) public payable {... */\n    tag_29:\n        /* \"Marketplace.sol\":37834:37835  0 */\n      0x00\n        /* \"Marketplace.sol\":37822:37831  _askPrice */\n      dup2\n        /* \"Marketplace.sol\":37822:37835  _askPrice > 0 */\n      gt\n        /* \"Marketplace.sol\":37814:37891  require(_askPrice > 0, \"List: the listing price has to be greater than zero\") */\n      tag_64\n      jumpi\n      mload(0x40)\n      0x08c379a000000000000000000000000000000000000000000000000000000000\n      dup2\n      mstore\n      0x04\n      add\n      tag_65\n      swap1\n      tag_66\n      jump\t// in\n    tag_65:\n      mload(0x40)\n      dup1\n      swap2\n      sub\n      swap1\n      revert\n    tag_64:\n        /* \"Marketplace.sol\":37910:37921  NFT_address */\n      0x02\n      0x00\n      swap1\n      sload\n      swap1\n      0x0100\n      exp\n      swap1\n      div\n      0xffffffffffffffffffffffffffffffffffffffff\n      and\n        /* \"Marketplace.sol\":37901:37939  IERC1155(NFT_address).safeTransferFrom */\n      0xffffffffffffffffffffffffffffffffffffffff\n      and\n      0xf242432a\n        /* \"Marketplace.sol\":37940:37950  msg.sender */\n      caller\n        /* \"Marketplace.sol\":37960:37964  this */\n      address\n        /* \"Marketplace.sol\":37967:37969  id */\n      dup6\n        /* \"Marketplace.sol\":37971:37972  1 */\n      0x01\n        /* \"Marketplace.sol\":37901:37977  IERC1155(NFT_address).safeTransferFrom(msg.sender, address(this), id, 1, \"\") */\n      mload(0x40)\n      dup6\n      0xffffffff\n      and\n      0xe0\n      shl\n      dup2\n      mstore\n      0x04\n      add\n      tag_67\n      swap5\n      swap4\n      swap3\n      swap2\n      swap1\n      tag_68\n      jump\t// in\n    tag_67:\n      0x00\n      mload(0x40)\n      dup1\n      dup4\n      sub\n      dup2\n      0x00\n      dup8\n      dup1\n      extcodesize\n      iszero\n      dup1\n      iszero\n      tag_69\n      jumpi\n      0x00\n      dup1\n      revert\n    tag_69:\n      pop\n      gas\n      call\n      iszero\n      dup1\n      iszero\n      tag_71\n      jumpi\n      returndatasize\n      0x00\n      dup1\n      returndatacopy\n      revert(0x00, returndatasize)\n    tag_71:\n      pop\n      pop\n      pop\n      pop\n        /* \"Marketplace.sol\":38009:38055  Listing({seller:msg.sender, price: _askPrice}) */\n      mload(0x40)\n      dup1\n      0x40\n      add\n      0x40\n      mstore\n      dup1\n        /* \"Marketplace.sol\":38025:38035  msg.sender */\n      caller\n        /* \"Marketplace.sol\":38009:38055  Listing({seller:msg.sender, price: _askPrice}) */\n      0xffffffffffffffffffffffffffffffffffffffff\n      and\n      dup2\n      mstore\n      0x20\n      add\n        /* \"Marketplace.sol\":38044:38053  _askPrice */\n      dup3\n        /* \"Marketplace.sol\":38009:38055  Listing({seller:msg.sender, price: _askPrice}) */\n      dup2\n      mstore\n      pop\n        /* \"Marketplace.sol\":37987:38002  _listingDetails */\n      0x03\n        /* \"Marketplace.sol\":37987:38006  _listingDetails[id] */\n      0x00\n        /* \"Marketplace.sol\":38003:38005  id */\n      dup5\n        /* \"Marketplace.sol\":37987:38006  _listingDetails[id] */\n      dup2\n      mstore\n      0x20\n      add\n      swap1\n      dup2\n      mstore\n      0x20\n      add\n      0x00\n      keccak256\n        /* \"Marketplace.sol\":37987:38055  _listingDetails[id] = Listing({seller:msg.sender, price: _askPrice}) */\n      0x00\n      dup3\n      add\n      mload\n      dup2\n      0x00\n      add\n      exp(0x0100, 0x00)\n      dup2\n      sload\n      dup2\n      0xffffffffffffffffffffffffffffffffffffffff\n      mul\n      not\n      and\n      swap1\n      dup4\n      0xffffffffffffffffffffffffffffffffffffffff\n      and\n      mul\n      or\n      swap1\n      sstore\n      pop\n      0x20\n      dup3\n      add\n      mload\n      dup2\n      0x01\n      add\n      sstore\n      swap1\n      pop\n      pop\n        /* \"Marketplace.sol\":37738:38063  function list_asset(uint256 id, uint256 _askPrice) public payable {... */\n      pop\n      pop\n      jump\t// out\n        /* \"Marketplace.sol\":20794:20886  function renounceOwnership() public virtual onlyOwner {... */\n    tag_32:\n        /* \"Marketplace.sol\":20385:20397  _msgSender() */\n      tag_73\n        /* \"Marketplace.sol\":20385:20395  _msgSender */\n      tag_74\n        /* \"Marketplace.sol\":20385:20397  _msgSender() */\n      jump\t// in\n    tag_73:\n        /* \"Marketplace.sol\":20374:20397  owner() == _msgSender() */\n      0xffffffffffffffffffffffffffffffffffffffff\n      and\n        /* \"Marketplace.sol\":20374:20381  owner() */\n      tag_75\n        /* \"Marketplace.sol\":20374:20379  owner */\n      tag_35\n        /* \"Marketplace.sol\":20374:20381  owner() */\n      jump\t// in\n    tag_75:\n        /* \"Marketplace.sol\":20374:20397  owner() == _msgSender() */\n      0xffffffffffffffffffffffffffffffffffffffff\n      and\n      eq\n        /* \"Marketplace.sol\":20366:20434  require(owner() == _msgSender(), \"Ownable: caller is not the owner\") */\n      tag_76\n      jumpi\n      mload(0x40)\n      0x08c379a000000000000000000000000000000000000000000000000000000000\n      dup2\n      mstore\n      0x04\n      add\n      tag_77\n      swap1\n      tag_78\n      jump\t// in\n    tag_77:\n      mload(0x40)\n      dup1\n      swap2\n      sub\n      swap1\n      revert\n    tag_76:\n        /* \"Marketplace.sol\":20858:20879  _setOwner(address(0)) */\n      tag_80\n        /* \"Marketplace.sol\":20876:20877  0 */\n      0x00\n        /* \"Marketplace.sol\":20858:20867  _setOwner */\n      tag_81\n        /* \"Marketplace.sol\":20858:20879  _setOwner(address(0)) */\n      jump\t// in\n    tag_80:\n        /* \"Marketplace.sol\":20794:20886  function renounceOwnership() public virtual onlyOwner {... */\n      jump\t// out\n        /* \"Marketplace.sol\":20162:20247  function owner() public view virtual returns (address) {... */\n    tag_35:\n        /* \"Marketplace.sol\":20208:20215  address */\n      0x00\n        /* \"Marketplace.sol\":20234:20240  _owner */\n      dup1\n      0x00\n      swap1\n      sload\n      swap1\n      0x0100\n      exp\n      swap1\n      div\n      0xffffffffffffffffffffffffffffffffffffffff\n      and\n        /* \"Marketplace.sol\":20227:20240  return _owner */\n      swap1\n      pop\n        /* \"Marketplace.sol\":20162:20247  function owner() public view virtual returns (address) {... */\n      swap1\n      jump\t// out\n        /* \"Marketplace.sol\":37108:37355  function onERC1155BatchReceived(... */\n    tag_42:\n        /* \"Marketplace.sol\":37287:37293  bytes4 */\n      0x00\n        /* \"Marketplace.sol\":37312:37348  this.onERC1155BatchReceived.selector */\n      shl(0xe0, 0xbc197c81)\n        /* \"Marketplace.sol\":37305:37348  return this.onERC1155BatchReceived.selector */\n      swap1\n      pop\n        /* \"Marketplace.sol\":37108:37355  function onERC1155BatchReceived(... */\n      swap6\n      swap5\n      pop\n      pop\n      pop\n      pop\n      pop\n      jump\t// out\n        /* \"Marketplace.sol\":38073:38576  function buy_asset(uint256 id) external payable nonReentrant {... */\n    tag_47:\n        /* \"Marketplace.sol\":929:930  2 */\n      0x02\n        /* \"Marketplace.sol\":1510:1517  _status */\n      sload(0x01)\n        /* \"Marketplace.sol\":1510:1529  _status != _ENTERED */\n      eq\n      iszero\n        /* \"Marketplace.sol\":1502:1565  require(_status != _ENTERED, \"ReentrancyGuard: reentrant call\") */\n      tag_85\n      jumpi\n      mload(0x40)\n      0x08c379a000000000000000000000000000000000000000000000000000000000\n      dup2\n      mstore\n      0x04\n      add\n      tag_86\n      swap1\n      tag_87\n      jump\t// in\n    tag_86:\n      mload(0x40)\n      dup1\n      swap2\n      sub\n      swap1\n      revert\n    tag_85:\n        /* \"Marketplace.sol\":929:930  2 */\n      0x02\n        /* \"Marketplace.sol\":1640:1647  _status */\n      0x01\n        /* \"Marketplace.sol\":1640:1658  _status = _ENTERED */\n      dup2\n      swap1\n      sstore\n      pop\n        /* \"Marketplace.sol\":38145:38168  Listing memory askOrder */\n      0x00\n        /* \"Marketplace.sol\":38171:38186  _listingDetails */\n      0x03\n        /* \"Marketplace.sol\":38171:38190  _listingDetails[id] */\n      0x00\n        /* \"Marketplace.sol\":38187:38189  id */\n      dup4\n        /* \"Marketplace.sol\":38171:38190  _listingDetails[id] */\n      dup2\n      mstore\n      0x20\n      add\n      swap1\n      dup2\n      mstore\n      0x20\n      add\n      0x00\n      keccak256\n        /* \"Marketplace.sol\":38145:38190  Listing memory askOrder = _listingDetails[id] */\n      mload(0x40)\n      dup1\n      0x40\n      add\n      0x40\n      mstore\n      swap1\n      dup2\n      0x00\n      dup3\n      add\n      0x00\n      swap1\n      sload\n      swap1\n      0x0100\n      exp\n      swap1\n      div\n      0xffffffffffffffffffffffffffffffffffffffff\n      and\n      0xffffffffffffffffffffffffffffffffffffffff\n      and\n      0xffffffffffffffffffffffffffffffffffffffff\n      and\n      dup2\n      mstore\n      0x20\n      add\n      0x01\n      dup3\n      add\n      sload\n      dup2\n      mstore\n      pop\n      pop\n      swap1\n      pop\n        /* \"Marketplace.sol\":38217:38225  askOrder */\n      dup1\n        /* \"Marketplace.sol\":38217:38231  askOrder.price */\n      0x20\n      add\n      mload\n        /* \"Marketplace.sol\":38204:38213  msg.value */\n      callvalue\n        /* \"Marketplace.sol\":38204:38231  msg.value == askOrder.price */\n      eq\n        /* \"Marketplace.sol\":38196:38256  require(msg.value == askOrder.price, \"Buy: Incorrect price\") */\n      tag_89\n      jumpi\n      mload(0x40)\n      0x08c379a000000000000000000000000000000000000000000000000000000000\n      dup2\n      mstore\n      0x04\n      add\n      tag_90\n      swap1\n      tag_91\n      jump\t// in\n    tag_90:\n      mload(0x40)\n      dup1\n      swap2\n      sub\n      swap1\n      revert\n    tag_89:\n        /* \"Marketplace.sol\":38284:38292  askOrder */\n      dup1\n        /* \"Marketplace.sol\":38284:38299  askOrder.seller */\n      0x00\n      add\n      mload\n        /* \"Marketplace.sol\":38270:38299  msg.sender != askOrder.seller */\n      0xffffffffffffffffffffffffffffffffffffffff\n      and\n        /* \"Marketplace.sol\":38270:38280  msg.sender */\n      caller\n        /* \"Marketplace.sol\":38270:38299  msg.sender != askOrder.seller */\n      0xffffffffffffffffffffffffffffffffffffffff\n      and\n      eq\n      iszero\n        /* \"Marketplace.sol\":38262:38331  require(msg.sender != askOrder.seller, \"Buy: Buyer cannot be seller\") */\n      tag_92\n      jumpi\n      mload(0x40)\n      0x08c379a000000000000000000000000000000000000000000000000000000000\n      dup2\n      mstore\n      0x04\n      add\n      tag_93\n      swap1\n      tag_94\n      jump\t// in\n    tag_93:\n      mload(0x40)\n      dup1\n      swap2\n      sub\n      swap1\n      revert\n    tag_92:\n        /* \"Marketplace.sol\":38346:38357  NFT_address */\n      0x02\n      0x00\n      swap1\n      sload\n      swap1\n      0x0100\n      exp\n      swap1\n      div\n      0xffffffffffffffffffffffffffffffffffffffff\n      and\n        /* \"Marketplace.sol\":38337:38375  IERC1155(NFT_address).safeTransferFrom */\n      0xffffffffffffffffffffffffffffffffffffffff\n      and\n      0xf242432a\n        /* \"Marketplace.sol\":38384:38388  this */\n      address\n        /* \"Marketplace.sol\":38390:38400  msg.sender */\n      caller\n        /* \"Marketplace.sol\":38402:38404  id */\n      dup6\n        /* \"Marketplace.sol\":38406:38407  1 */\n      0x01\n        /* \"Marketplace.sol\":38337:38412  IERC1155(NFT_address).safeTransferFrom(address(this),msg.sender, id, 1, \"\") */\n      mload(0x40)\n      dup6\n      0xffffffff\n      and\n      0xe0\n      shl\n      dup2\n      mstore\n      0x04\n      add\n      tag_95\n      swap5\n      swap4\n      swap3\n      swap2\n      swap1\n      tag_68\n      jump\t// in\n    tag_95:\n      0x00\n      mload(0x40)\n      dup1\n      dup4\n      sub\n      dup2\n      0x00\n      dup8\n      dup1\n      extcodesize\n      iszero\n      dup1\n      iszero\n      tag_96\n      jumpi\n      0x00\n      dup1\n      revert\n    tag_96:\n      pop\n      gas\n      call\n      iszero\n      dup1\n      iszero\n      tag_98\n      jumpi\n      returndatasize\n      0x00\n      dup1\n      returndatacopy\n      revert(0x00, returndatasize)\n    tag_98:\n      pop\n      pop\n      pop\n      pop\n        /* \"Marketplace.sol\":38425:38440  _listingDetails */\n      0x03\n        /* \"Marketplace.sol\":38425:38444  _listingDetails[id] */\n      0x00\n        /* \"Marketplace.sol\":38441:38443  id */\n      dup4\n        /* \"Marketplace.sol\":38425:38444  _listingDetails[id] */\n      dup2\n      mstore\n      0x20\n      add\n      swap1\n      dup2\n      mstore\n      0x20\n      add\n      0x00\n      keccak256\n      0x00\n        /* \"Marketplace.sol\":38418:38444  delete _listingDetails[id] */\n      dup1\n      dup3\n      add\n      exp(0x0100, 0x00)\n      dup2\n      sload\n      swap1\n      0xffffffffffffffffffffffffffffffffffffffff\n      mul\n      not\n      and\n      swap1\n      sstore\n      0x01\n      dup3\n      add\n      0x00\n      swap1\n      sstore\n      pop\n      pop\n        /* \"Marketplace.sol\":38458:38466  askOrder */\n      dup1\n        /* \"Marketplace.sol\":38458:38473  askOrder.seller */\n      0x00\n      add\n      mload\n        /* \"Marketplace.sol\":38450:38483  payable(askOrder.seller).transfer */\n      0xffffffffffffffffffffffffffffffffffffffff\n      and\n        /* \"Marketplace.sol\":38450:38494  payable(askOrder.seller).transfer(msg.value) */\n      0x08fc\n        /* \"Marketplace.sol\":38484:38493  msg.value */\n      callvalue\n        /* \"Marketplace.sol\":38450:38494  payable(askOrder.seller).transfer(msg.value) */\n      swap1\n      dup2\n      iszero\n      mul\n      swap1\n      mload(0x40)\n      0x00\n      mload(0x40)\n      dup1\n      dup4\n      sub\n      dup2\n      dup6\n      dup9\n      dup9\n      call\n      swap4\n      pop\n      pop\n      pop\n      pop\n      iszero\n      dup1\n      iszero\n      tag_100\n      jumpi\n      returndatasize\n      0x00\n      dup1\n      returndatacopy\n      revert(0x00, returndatasize)\n    tag_100:\n      pop\n        /* \"Marketplace.sol\":38522:38560  Listing({seller:msg.sender, price: 0}) */\n      mload(0x40)\n      dup1\n      0x40\n      add\n      0x40\n      mstore\n      dup1\n        /* \"Marketplace.sol\":38538:38548  msg.sender */\n      caller\n        /* \"Marketplace.sol\":38522:38560  Listing({seller:msg.sender, price: 0}) */\n      0xffffffffffffffffffffffffffffffffffffffff\n      and\n      dup2\n      mstore\n      0x20\n      add\n        /* \"Marketplace.sol\":38557:38558  0 */\n      0x00\n        /* \"Marketplace.sol\":38522:38560  Listing({seller:msg.sender, price: 0}) */\n      dup2\n      mstore\n      pop\n        /* \"Marketplace.sol\":38500:38515  _listingDetails */\n      0x03\n        /* \"Marketplace.sol\":38500:38519  _listingDetails[id] */\n      0x00\n        /* \"Marketplace.sol\":38516:38518  id */\n      dup5\n        /* \"Marketplace.sol\":38500:38519  _listingDetails[id] */\n      dup2\n      mstore\n      0x20\n      add\n      swap1\n      dup2\n      mstore\n      0x20\n      add\n      0x00\n      keccak256\n        /* \"Marketplace.sol\":38500:38560  _listingDetails[id] = Listing({seller:msg.sender, price: 0}) */\n      0x00\n      dup3\n      add\n      mload\n      dup2\n      0x00\n      add\n      exp(0x0100, 0x00)\n      dup2\n      sload\n      dup2\n      0xffffffffffffffffffffffffffffffffffffffff\n      mul\n      not\n      and\n      swap1\n      dup4\n      0xffffffffffffffffffffffffffffffffffffffff\n      and\n      mul\n      or\n      swap1\n      sstore\n      pop\n      0x20\n      dup3\n      add\n      mload\n      dup2\n      0x01\n      add\n      sstore\n      swap1\n      pop\n      pop\n        /* \"Marketplace.sol\":38134:38576  {... */\n      pop\n        /* \"Marketplace.sol\":886:887  1 */\n      0x01\n        /* \"Marketplace.sol\":1813:1820  _status */\n      dup1\n        /* \"Marketplace.sol\":1813:1835  _status = _NOT_ENTERED */\n      dup2\n      swap1\n      sstore\n      pop\n        /* \"Marketplace.sol\":38073:38576  function buy_asset(uint256 id) external payable nonReentrant {... */\n      pop\n      jump\t// out\n        /* \"Marketplace.sol\":36883:37102  function onERC1155Received(... */\n    tag_52:\n        /* \"Marketplace.sol\":37039:37045  bytes4 */\n      0x00\n        /* \"Marketplace.sol\":37064:37095  this.onERC1155Received.selector */\n      shl(0xe0, 0xf23a6e61)\n        /* \"Marketplace.sol\":37057:37095  return this.onERC1155Received.selector */\n      swap1\n      pop\n        /* \"Marketplace.sol\":36883:37102  function onERC1155Received(... */\n      swap6\n      swap5\n      pop\n      pop\n      pop\n      pop\n      pop\n      jump\t// out\n        /* \"Marketplace.sol\":21035:21224  function transferOwnership(address newOwner) public virtual onlyOwner {... */\n    tag_58:\n        /* \"Marketplace.sol\":20385:20397  _msgSender() */\n      tag_103\n        /* \"Marketplace.sol\":20385:20395  _msgSender */\n      tag_74\n        /* \"Marketplace.sol\":20385:20397  _msgSender() */\n      jump\t// in\n    tag_103:\n        /* \"Marketplace.sol\":20374:20397  owner() == _msgSender() */\n      0xffffffffffffffffffffffffffffffffffffffff\n      and\n        /* \"Marketplace.sol\":20374:20381  owner() */\n      tag_104\n        /* \"Marketplace.sol\":20374:20379  owner */\n      tag_35\n        /* \"Marketplace.sol\":20374:20381  owner() */\n      jump\t// in\n    tag_104:\n        /* \"Marketplace.sol\":20374:20397  owner() == _msgSender() */\n      0xffffffffffffffffffffffffffffffffffffffff\n      and\n      eq\n        /* \"Marketplace.sol\":20366:20434  require(owner() == _msgSender(), \"Ownable: caller is not the owner\") */\n      tag_105\n      jumpi\n      mload(0x40)\n      0x08c379a000000000000000000000000000000000000000000000000000000000\n      dup2\n      mstore\n      0x04\n      add\n      tag_106\n      swap1\n      tag_78\n      jump\t// in\n    tag_106:\n      mload(0x40)\n      dup1\n      swap2\n      sub\n      swap1\n      revert\n    tag_105:\n        /* \"Marketplace.sol\":21143:21144  0 */\n      0x00\n        /* \"Marketplace.sol\":21123:21145  newOwner != address(0) */\n      0xffffffffffffffffffffffffffffffffffffffff\n      and\n        /* \"Marketplace.sol\":21123:21131  newOwner */\n      dup2\n        /* \"Marketplace.sol\":21123:21145  newOwner != address(0) */\n      0xffffffffffffffffffffffffffffffffffffffff\n      and\n      eq\n      iszero\n        /* \"Marketplace.sol\":21115:21188  require(newOwner != address(0), \"Ownable: new owner is the zero address\") */\n      tag_108\n      jumpi\n      mload(0x40)\n      0x08c379a000000000000000000000000000000000000000000000000000000000\n      dup2\n      mstore\n      0x04\n      add\n      tag_109\n      swap1\n      tag_110\n      jump\t// in\n    tag_109:\n      mload(0x40)\n      dup1\n      swap2\n      sub\n      swap1\n      revert\n    tag_108:\n        /* \"Marketplace.sol\":21198:21217  _setOwner(newOwner) */\n      tag_111\n        /* \"Marketplace.sol\":21208:21216  newOwner */\n      dup2\n        /* \"Marketplace.sol\":21198:21207  _setOwner */\n      tag_81\n        /* \"Marketplace.sol\":21198:21217  _setOwner(newOwner) */\n      jump\t// in\n    tag_111:\n        /* \"Marketplace.sol\":21035:21224  function transferOwnership(address newOwner) public virtual onlyOwner {... */\n      pop\n      jump\t// out\n        /* \"Marketplace.sol\":19040:19195  function supportsInterface(bytes4 interfaceId) public view virtual override returns (bool) {... */\n    tag_62:\n        /* \"Marketplace.sol\":19125:19129  bool */\n      0x00\n        /* \"Marketplace.sol\":19163:19188  type(IERC165).interfaceId */\n      0x01ffc9a700000000000000000000000000000000000000000000000000000000\n        /* \"Marketplace.sol\":19148:19188  interfaceId == type(IERC165).interfaceId */\n      not(0xffffffffffffffffffffffffffffffffffffffffffffffffffffffff)\n      and\n        /* \"Marketplace.sol\":19148:19159  interfaceId */\n      dup3\n        /* \"Marketplace.sol\":19148:19188  interfaceId == type(IERC165).interfaceId */\n      not(0xffffffffffffffffffffffffffffffffffffffffffffffffffffffff)\n      and\n      eq\n        /* \"Marketplace.sol\":19141:19188  return interfaceId == type(IERC165).interfaceId */\n      swap1\n      pop\n        /* \"Marketplace.sol\":19040:19195  function supportsInterface(bytes4 interfaceId) public view virtual override returns (bool) {... */\n      swap2\n      swap1\n      pop\n      jump\t// out\n        /* \"Marketplace.sol\":2400:2496  function _msgSender() internal view virtual returns (address) {... */\n    tag_74:\n        /* \"Marketplace.sol\":2453:2460  address */\n      0x00\n        /* \"Marketplace.sol\":2479:2489  msg.sender */\n      caller\n        /* \"Marketplace.sol\":2472:2489  return msg.sender */\n      swap1\n      pop\n        /* \"Marketplace.sol\":2400:2496  function _msgSender() internal view virtual returns (address) {... */\n      swap1\n      jump\t// out\n        /* \"Marketplace.sol\":21230:21399  function _setOwner(address newOwner) private {... */\n    tag_81:\n        /* \"Marketplace.sol\":21285:21301  address oldOwner */\n      0x00\n        /* \"Marketplace.sol\":21304:21310  _owner */\n      dup1\n      0x00\n      swap1\n      sload\n      swap1\n      0x0100\n      exp\n      swap1\n      div\n      0xffffffffffffffffffffffffffffffffffffffff\n      and\n        /* \"Marketplace.sol\":21285:21310  address oldOwner = _owner */\n      swap1\n      pop\n        /* \"Marketplace.sol\":21329:21337  newOwner */\n      dup2\n        /* \"Marketplace.sol\":21320:21326  _owner */\n      0x00\n      dup1\n        /* \"Marketplace.sol\":21320:21337  _owner = newOwner */\n      0x0100\n      exp\n      dup2\n      sload\n      dup2\n      0xffffffffffffffffffffffffffffffffffffffff\n      mul\n      not\n      and\n      swap1\n      dup4\n      0xffffffffffffffffffffffffffffffffffffffff\n      and\n      mul\n      or\n      swap1\n      sstore\n      pop\n        /* \"Marketplace.sol\":21383:21391  newOwner */\n      dup2\n        /* \"Marketplace.sol\":21352:21392  OwnershipTransferred(oldOwner, newOwner) */\n      0xffffffffffffffffffffffffffffffffffffffff\n      and\n        /* \"Marketplace.sol\":21373:21381  oldOwner */\n      dup2\n        /* \"Marketplace.sol\":21352:21392  OwnershipTransferred(oldOwner, newOwner) */\n      0xffffffffffffffffffffffffffffffffffffffff\n      and\n      0x8be0079c531659141344cd1fd0a4f28419497f9722a3daafe3b4186f6b6457e0\n      mload(0x40)\n      mload(0x40)\n      dup1\n      swap2\n      sub\n      swap1\n      log3\n        /* \"Marketplace.sol\":21275:21399  {... */\n      pop\n        /* \"Marketplace.sol\":21230:21399  function _setOwner(address newOwner) private {... */\n      pop\n      jump\t// out\n        /* \"#utility.yul\":7:82   */\n    tag_115:\n        /* \"#utility.yul\":40:46   */\n      0x00\n        /* \"#utility.yul\":73:75   */\n      0x40\n        /* \"#utility.yul\":67:76   */\n      mload\n        /* \"#utility.yul\":57:76   */\n      swap1\n      pop\n        /* \"#utility.yul\":7:82   */\n      swap1\n      jump\t// out\n        /* \"#utility.yul\":88:205   */\n    tag_116:\n        /* \"#utility.yul\":197:198   */\n      0x00\n        /* \"#utility.yul\":194:195   */\n      dup1\n        /* \"#utility.yul\":187:199   */\n      revert\n        /* \"#utility.yul\":211:328   */\n    tag_117:\n        /* \"#utility.yul\":320:321   */\n      0x00\n        /* \"#utility.yul\":317:318   */\n      dup1\n        /* \"#utility.yul\":310:322   */\n      revert\n        /* \"#utility.yul\":334:483   */\n    tag_118:\n        /* \"#utility.yul\":370:377   */\n      0x00\n        /* \"#utility.yul\":410:476   */\n      0xffffffff00000000000000000000000000000000000000000000000000000000\n        /* \"#utility.yul\":403:408   */\n      dup3\n        /* \"#utility.yul\":399:477   */\n      and\n        /* \"#utility.yul\":388:477   */\n      swap1\n      pop\n        /* \"#utility.yul\":334:483   */\n      swap2\n      swap1\n      pop\n      jump\t// out\n        /* \"#utility.yul\":489:609   */\n    tag_119:\n        /* \"#utility.yul\":561:584   */\n      tag_173\n        /* \"#utility.yul\":578:583   */\n      dup2\n        /* \"#utility.yul\":561:584   */\n      tag_118\n      jump\t// in\n    tag_173:\n        /* \"#utility.yul\":554:559   */\n      dup2\n        /* \"#utility.yul\":551:585   */\n      eq\n        /* \"#utility.yul\":541:603   */\n      tag_174\n      jumpi\n        /* \"#utility.yul\":599:600   */\n      0x00\n        /* \"#utility.yul\":596:597   */\n      dup1\n        /* \"#utility.yul\":589:601   */\n      revert\n        /* \"#utility.yul\":541:603   */\n    tag_174:\n        /* \"#utility.yul\":489:609   */\n      pop\n      jump\t// out\n        /* \"#utility.yul\":615:752   */\n    tag_120:\n        /* \"#utility.yul\":660:665   */\n      0x00\n        /* \"#utility.yul\":698:704   */\n      dup2\n        /* \"#utility.yul\":685:705   */\n      calldataload\n        /* \"#utility.yul\":676:705   */\n      swap1\n      pop\n        /* \"#utility.yul\":714:746   */\n      tag_176\n        /* \"#utility.yul\":740:745   */\n      dup2\n        /* \"#utility.yul\":714:746   */\n      tag_119\n      jump\t// in\n    tag_176:\n        /* \"#utility.yul\":615:752   */\n      swap3\n      swap2\n      pop\n      pop\n      jump\t// out\n        /* \"#utility.yul\":758:1085   */\n    tag_15:\n        /* \"#utility.yul\":816:822   */\n      0x00\n        /* \"#utility.yul\":865:867   */\n      0x20\n        /* \"#utility.yul\":853:862   */\n      dup3\n        /* \"#utility.yul\":844:851   */\n      dup5\n        /* \"#utility.yul\":840:863   */\n      sub\n        /* \"#utility.yul\":836:868   */\n      slt\n        /* \"#utility.yul\":833:952   */\n      iszero\n      tag_178\n      jumpi\n        /* \"#utility.yul\":871:950   */\n      tag_179\n      tag_116\n      jump\t// in\n    tag_179:\n        /* \"#utility.yul\":833:952   */\n    tag_178:\n        /* \"#utility.yul\":991:992   */\n      0x00\n        /* \"#utility.yul\":1016:1068   */\n      tag_180\n        /* \"#utility.yul\":1060:1067   */\n      dup5\n        /* \"#utility.yul\":1051:1057   */\n      dup3\n        /* \"#utility.yul\":1040:1049   */\n      dup6\n        /* \"#utility.yul\":1036:1058   */\n      add\n        /* \"#utility.yul\":1016:1068   */\n      tag_120\n      jump\t// in\n    tag_180:\n        /* \"#utility.yul\":1006:1068   */\n      swap2\n      pop\n        /* \"#utility.yul\":962:1078   */\n      pop\n        /* \"#utility.yul\":758:1085   */\n      swap3\n      swap2\n      pop\n      pop\n      jump\t// out\n        /* \"#utility.yul\":1091:1181   */\n    tag_121:\n        /* \"#utility.yul\":1125:1132   */\n      0x00\n        /* \"#utility.yul\":1168:1173   */\n      dup2\n        /* \"#utility.yul\":1161:1174   */\n      iszero\n        /* \"#utility.yul\":1154:1175   */\n      iszero\n        /* \"#utility.yul\":1143:1175   */\n      swap1\n      pop\n        /* \"#utility.yul\":1091:1181   */\n      swap2\n      swap1\n      pop\n      jump\t// out\n        /* \"#utility.yul\":1187:1296   */\n    tag_122:\n        /* \"#utility.yul\":1268:1289   */\n      tag_183\n        /* \"#utility.yul\":1283:1288   */\n      dup2\n        /* \"#utility.yul\":1268:1289   */\n      tag_121\n      jump\t// in\n    tag_183:\n        /* \"#utility.yul\":1263:1266   */\n      dup3\n        /* \"#utility.yul\":1256:1290   */\n      mstore\n        /* \"#utility.yul\":1187:1296   */\n      pop\n      pop\n      jump\t// out\n        /* \"#utility.yul\":1302:1512   */\n    tag_18:\n        /* \"#utility.yul\":1389:1393   */\n      0x00\n        /* \"#utility.yul\":1427:1429   */\n      0x20\n        /* \"#utility.yul\":1416:1425   */\n      dup3\n        /* \"#utility.yul\":1412:1430   */\n      add\n        /* \"#utility.yul\":1404:1430   */\n      swap1\n      pop\n        /* \"#utility.yul\":1440:1505   */\n      tag_185\n        /* \"#utility.yul\":1502:1503   */\n      0x00\n        /* \"#utility.yul\":1491:1500   */\n      dup4\n        /* \"#utility.yul\":1487:1504   */\n      add\n        /* \"#utility.yul\":1478:1484   */\n      dup5\n        /* \"#utility.yul\":1440:1505   */\n      tag_122\n      jump\t// in\n    tag_185:\n        /* \"#utility.yul\":1302:1512   */\n      swap3\n      swap2\n      pop\n      pop\n      jump\t// out\n        /* \"#utility.yul\":1518:1595   */\n    tag_123:\n        /* \"#utility.yul\":1555:1562   */\n      0x00\n        /* \"#utility.yul\":1584:1589   */\n      dup2\n        /* \"#utility.yul\":1573:1589   */\n      swap1\n      pop\n        /* \"#utility.yul\":1518:1595   */\n      swap2\n      swap1\n      pop\n      jump\t// out\n        /* \"#utility.yul\":1601:1723   */\n    tag_124:\n        /* \"#utility.yul\":1674:1698   */\n      tag_188\n        /* \"#utility.yul\":1692:1697   */\n      dup2\n        /* \"#utility.yul\":1674:1698   */\n      tag_123\n      jump\t// in\n    tag_188:\n        /* \"#utility.yul\":1667:1672   */\n      dup2\n        /* \"#utility.yul\":1664:1699   */\n      eq\n        /* \"#utility.yul\":1654:1717   */\n      tag_189\n      jumpi\n        /* \"#utility.yul\":1713:1714   */\n      0x00\n        /* \"#utility.yul\":1710:1711   */\n      dup1\n        /* \"#utility.yul\":1703:1715   */\n      revert\n        /* \"#utility.yul\":1654:1717   */\n    tag_189:\n        /* \"#utility.yul\":1601:1723   */\n      pop\n      jump\t// out\n        /* \"#utility.yul\":1729:1868   */\n    tag_125:\n        /* \"#utility.yul\":1775:1780   */\n      0x00\n        /* \"#utility.yul\":1813:1819   */\n      dup2\n        /* \"#utility.yul\":1800:1820   */\n      calldataload\n        /* \"#utility.yul\":1791:1820   */\n      swap1\n      pop\n        /* \"#utility.yul\":1829:1862   */\n      tag_191\n        /* \"#utility.yul\":1856:1861   */\n      dup2\n        /* \"#utility.yul\":1829:1862   */\n      tag_124\n      jump\t// in\n    tag_191:\n        /* \"#utility.yul\":1729:1868   */\n      swap3\n      swap2\n      pop\n      pop\n      jump\t// out\n        /* \"#utility.yul\":1874:2203   */\n    tag_22:\n        /* \"#utility.yul\":1933:1939   */\n      0x00\n        /* \"#utility.yul\":1982:1984   */\n      0x20\n        /* \"#utility.yul\":1970:1979   */\n      dup3\n        /* \"#utility.yul\":1961:1968   */\n      dup5\n        /* \"#utility.yul\":1957:1980   */\n      sub\n        /* \"#utility.yul\":1953:1985   */\n      slt\n        /* \"#utility.yul\":1950:2069   */\n      iszero\n      tag_193\n      jumpi\n        /* \"#utility.yul\":1988:2067   */\n      tag_194\n      tag_116\n      jump\t// in\n    tag_194:\n        /* \"#utility.yul\":1950:2069   */\n    tag_193:\n        /* \"#utility.yul\":2108:2109   */\n      0x00\n        /* \"#utility.yul\":2133:2186   */\n      tag_195\n        /* \"#utility.yul\":2178:2185   */\n      dup5\n        /* \"#utility.yul\":2169:2175   */\n      dup3\n        /* \"#utility.yul\":2158:2167   */\n      dup6\n        /* \"#utility.yul\":2154:2176   */\n      add\n        /* \"#utility.yul\":2133:2186   */\n      tag_125\n      jump\t// in\n    tag_195:\n        /* \"#utility.yul\":2123:2186   */\n      swap2\n      pop\n        /* \"#utility.yul\":2079:2196   */\n      pop\n        /* \"#utility.yul\":1874:2203   */\n      swap3\n      swap2\n      pop\n      pop\n      jump\t// out\n        /* \"#utility.yul\":2209:2335   */\n    tag_126:\n        /* \"#utility.yul\":2246:2253   */\n      0x00\n        /* \"#utility.yul\":2286:2328   */\n      0xffffffffffffffffffffffffffffffffffffffff\n        /* \"#utility.yul\":2279:2284   */\n      dup3\n        /* \"#utility.yul\":2275:2329   */\n      and\n        /* \"#utility.yul\":2264:2329   */\n      swap1\n      pop\n        /* \"#utility.yul\":2209:2335   */\n      swap2\n      swap1\n      pop\n      jump\t// out\n        /* \"#utility.yul\":2341:2437   */\n    tag_127:\n        /* \"#utility.yul\":2378:2385   */\n      0x00\n        /* \"#utility.yul\":2407:2431   */\n      tag_198\n        /* \"#utility.yul\":2425:2430   */\n      dup3\n        /* \"#utility.yul\":2407:2431   */\n      tag_126\n      jump\t// in\n    tag_198:\n        /* \"#utility.yul\":2396:2431   */\n      swap1\n      pop\n        /* \"#utility.yul\":2341:2437   */\n      swap2\n      swap1\n      pop\n      jump\t// out\n        /* \"#utility.yul\":2443:2561   */\n    tag_128:\n        /* \"#utility.yul\":2530:2554   */\n      tag_200\n        /* \"#utility.yul\":2548:2553   */\n      dup2\n        /* \"#utility.yul\":2530:2554   */\n      tag_127\n      jump\t// in\n    tag_200:\n        /* \"#utility.yul\":2525:2528   */\n      dup3\n        /* \"#utility.yul\":2518:2555   */\n      mstore\n        /* \"#utility.yul\":2443:2561   */\n      pop\n      pop\n      jump\t// out\n        /* \"#utility.yul\":2567:2685   */\n    tag_129:\n        /* \"#utility.yul\":2654:2678   */\n      tag_202\n        /* \"#utility.yul\":2672:2677   */\n      dup2\n        /* \"#utility.yul\":2654:2678   */\n      tag_123\n      jump\t// in\n    tag_202:\n        /* \"#utility.yul\":2649:2652   */\n      dup3\n        /* \"#utility.yul\":2642:2679   */\n      mstore\n        /* \"#utility.yul\":2567:2685   */\n      pop\n      pop\n      jump\t// out\n        /* \"#utility.yul\":2691:3023   */\n    tag_25:\n        /* \"#utility.yul\":2812:2816   */\n      0x00\n        /* \"#utility.yul\":2850:2852   */\n      0x40\n        /* \"#utility.yul\":2839:2848   */\n      dup3\n        /* \"#utility.yul\":2835:2853   */\n      add\n        /* \"#utility.yul\":2827:2853   */\n      swap1\n      pop\n        /* \"#utility.yul\":2863:2934   */\n      tag_204\n        /* \"#utility.yul\":2931:2932   */\n      0x00\n        /* \"#utility.yul\":2920:2929   */\n      dup4\n        /* \"#utility.yul\":2916:2933   */\n      add\n        /* \"#utility.yul\":2907:2913   */\n      dup6\n        /* \"#utility.yul\":2863:2934   */\n      tag_128\n      jump\t// in\n    tag_204:\n        /* \"#utility.yul\":2944:3016   */\n      tag_205\n        /* \"#utility.yul\":3012:3014   */\n      0x20\n        /* \"#utility.yul\":3001:3010   */\n      dup4\n        /* \"#utility.yul\":2997:3015   */\n      add\n        /* \"#utility.yul\":2988:2994   */\n      dup5\n        /* \"#utility.yul\":2944:3016   */\n      tag_129\n      jump\t// in\n    tag_205:\n        /* \"#utility.yul\":2691:3023   */\n      swap4\n      swap3\n      pop\n      pop\n      pop\n      jump\t// out\n        /* \"#utility.yul\":3029:3503   */\n    tag_28:\n        /* \"#utility.yul\":3097:3103   */\n      0x00\n        /* \"#utility.yul\":3105:3111   */\n      dup1\n        /* \"#utility.yul\":3154:3156   */\n      0x40\n        /* \"#utility.yul\":3142:3151   */\n      dup4\n        /* \"#utility.yul\":3133:3140   */\n      dup6\n        /* \"#utility.yul\":3129:3152   */\n      sub\n        /* \"#utility.yul\":3125:3157   */\n      slt\n        /* \"#utility.yul\":3122:3241   */\n      iszero\n      tag_207\n      jumpi\n        /* \"#utility.yul\":3160:3239   */\n      tag_208\n      tag_116\n      jump\t// in\n    tag_208:\n        /* \"#utility.yul\":3122:3241   */\n    tag_207:\n        /* \"#utility.yul\":3280:3281   */\n      0x00\n        /* \"#utility.yul\":3305:3358   */\n      tag_209\n        /* \"#utility.yul\":3350:3357   */\n      dup6\n        /* \"#utility.yul\":3341:3347   */\n      dup3\n        /* \"#utility.yul\":3330:3339   */\n      dup7\n        /* \"#utility.yul\":3326:3348   */\n      add\n        /* \"#utility.yul\":3305:3358   */\n      tag_125\n      jump\t// in\n    tag_209:\n        /* \"#utility.yul\":3295:3358   */\n      swap3\n      pop\n        /* \"#utility.yul\":3251:3368   */\n      pop\n        /* \"#utility.yul\":3407:3409   */\n      0x20\n        /* \"#utility.yul\":3433:3486   */\n      tag_210\n        /* \"#utility.yul\":3478:3485   */\n      dup6\n        /* \"#utility.yul\":3469:3475   */\n      dup3\n        /* \"#utility.yul\":3458:3467   */\n      dup7\n        /* \"#utility.yul\":3454:3476   */\n      add\n        /* \"#utility.yul\":3433:3486   */\n      tag_125\n      jump\t// in\n    tag_210:\n        /* \"#utility.yul\":3423:3486   */\n      swap2\n      pop\n        /* \"#utility.yul\":3378:3496   */\n      pop\n        /* \"#utility.yul\":3029:3503   */\n      swap3\n      pop\n      swap3\n      swap1\n      pop\n      jump\t// out\n        /* \"#utility.yul\":3509:3731   */\n    tag_37:\n        /* \"#utility.yul\":3602:3606   */\n      0x00\n        /* \"#utility.yul\":3640:3642   */\n      0x20\n        /* \"#utility.yul\":3629:3638   */\n      dup3\n        /* \"#utility.yul\":3625:3643   */\n      add\n        /* \"#utility.yul\":3617:3643   */\n      swap1\n      pop\n        /* \"#utility.yul\":3653:3724   */\n      tag_212\n        /* \"#utility.yul\":3721:3722   */\n      0x00\n        /* \"#utility.yul\":3710:3719   */\n      dup4\n        /* \"#utility.yul\":3706:3723   */\n      add\n        /* \"#utility.yul\":3697:3703   */\n      dup5\n        /* \"#utility.yul\":3653:3724   */\n      tag_128\n      jump\t// in\n    tag_212:\n        /* \"#utility.yul\":3509:3731   */\n      swap3\n      swap2\n      pop\n      pop\n      jump\t// out\n        /* \"#utility.yul\":3737:3859   */\n    tag_130:\n        /* \"#utility.yul\":3810:3834   */\n      tag_214\n        /* \"#utility.yul\":3828:3833   */\n      dup2\n        /* \"#utility.yul\":3810:3834   */\n      tag_127\n      jump\t// in\n    tag_214:\n        /* \"#utility.yul\":3803:3808   */\n      dup2\n        /* \"#utility.yul\":3800:3835   */\n      eq\n        /* \"#utility.yul\":3790:3853   */\n      tag_215\n      jumpi\n        /* \"#utility.yul\":3849:3850   */\n      0x00\n        /* \"#utility.yul\":3846:3847   */\n      dup1\n        /* \"#utility.yul\":3839:3851   */\n      revert\n        /* \"#utility.yul\":3790:3853   */\n    tag_215:\n        /* \"#utility.yul\":3737:3859   */\n      pop\n      jump\t// out\n        /* \"#utility.yul\":3865:4004   */\n    tag_131:\n        /* \"#utility.yul\":3911:3916   */\n      0x00\n        /* \"#utility.yul\":3949:3955   */\n      dup2\n        /* \"#utility.yul\":3936:3956   */\n      calldataload\n        /* \"#utility.yul\":3927:3956   */\n      swap1\n      pop\n        /* \"#utility.yul\":3965:3998   */\n      tag_217\n        /* \"#utility.yul\":3992:3997   */\n      dup2\n        /* \"#utility.yul\":3965:3998   */\n      tag_130\n      jump\t// in\n    tag_217:\n        /* \"#utility.yul\":3865:4004   */\n      swap3\n      swap2\n      pop\n      pop\n      jump\t// out\n        /* \"#utility.yul\":4010:4127   */\n    tag_132:\n        /* \"#utility.yul\":4119:4120   */\n      0x00\n        /* \"#utility.yul\":4116:4117   */\n      dup1\n        /* \"#utility.yul\":4109:4121   */\n      revert\n        /* \"#utility.yul\":4133:4235   */\n    tag_133:\n        /* \"#utility.yul\":4174:4180   */\n      0x00\n        /* \"#utility.yul\":4225:4227   */\n      0x1f\n        /* \"#utility.yul\":4221:4228   */\n      not\n        /* \"#utility.yul\":4216:4218   */\n      0x1f\n        /* \"#utility.yul\":4209:4214   */\n      dup4\n        /* \"#utility.yul\":4205:4219   */\n      add\n        /* \"#utility.yul\":4201:4229   */\n      and\n        /* \"#utility.yul\":4191:4229   */\n      swap1\n      pop\n        /* \"#utility.yul\":4133:4235   */\n      swap2\n      swap1\n      pop\n      jump\t// out\n        /* \"#utility.yul\":4241:4421   */\n    tag_134:\n        /* \"#utility.yul\":4289:4366   */\n      0x4e487b7100000000000000000000000000000000000000000000000000000000\n        /* \"#utility.yul\":4286:4287   */\n      0x00\n        /* \"#utility.yul\":4279:4367   */\n      mstore\n        /* \"#utility.yul\":4386:4390   */\n      0x41\n        /* \"#utility.yul\":4383:4384   */\n      0x04\n        /* \"#utility.yul\":4376:4391   */\n      mstore\n        /* \"#utility.yul\":4410:4414   */\n      0x24\n        /* \"#utility.yul\":4407:4408   */\n      0x00\n        /* \"#utility.yul\":4400:4415   */\n      revert\n        /* \"#utility.yul\":4427:4708   */\n    tag_135:\n        /* \"#utility.yul\":4510:4537   */\n      tag_222\n        /* \"#utility.yul\":4532:4536   */\n      dup3\n        /* \"#utility.yul\":4510:4537   */\n      tag_133\n      jump\t// in\n    tag_222:\n        /* \"#utility.yul\":4502:4508   */\n      dup2\n        /* \"#utility.yul\":4498:4538   */\n      add\n        /* \"#utility.yul\":4640:4646   */\n      dup2\n        /* \"#utility.yul\":4628:4638   */\n      dup2\n        /* \"#utility.yul\":4625:4647   */\n      lt\n        /* \"#utility.yul\":4604:4622   */\n      0xffffffffffffffff\n        /* \"#utility.yul\":4592:4602   */\n      dup3\n        /* \"#utility.yul\":4589:4623   */\n      gt\n        /* \"#utility.yul\":4586:4648   */\n      or\n        /* \"#utility.yul\":4583:4671   */\n      iszero\n      tag_223\n      jumpi\n        /* \"#utility.yul\":4651:4669   */\n      tag_224\n      tag_134\n      jump\t// in\n    tag_224:\n        /* \"#utility.yul\":4583:4671   */\n    tag_223:\n        /* \"#utility.yul\":4691:4701   */\n      dup1\n        /* \"#utility.yul\":4687:4689   */\n      0x40\n        /* \"#utility.yul\":4680:4702   */\n      mstore\n        /* \"#utility.yul\":4470:4708   */\n      pop\n        /* \"#utility.yul\":4427:4708   */\n      pop\n      pop\n      jump\t// out\n        /* \"#utility.yul\":4714:4843   */\n    tag_136:\n        /* \"#utility.yul\":4748:4754   */\n      0x00\n        /* \"#utility.yul\":4775:4795   */\n      tag_226\n      tag_115\n      jump\t// in\n    tag_226:\n        /* \"#utility.yul\":4765:4795   */\n      swap1\n      pop\n        /* \"#utility.yul\":4804:4837   */\n      tag_227\n        /* \"#utility.yul\":4832:4836   */\n      dup3\n        /* \"#utility.yul\":4824:4830   */\n      dup3\n        /* \"#utility.yul\":4804:4837   */\n      tag_135\n      jump\t// in\n    tag_227:\n        /* \"#utility.yul\":4714:4843   */\n      swap2\n      swap1\n      pop\n      jump\t// out\n        /* \"#utility.yul\":4849:5160   */\n    tag_137:\n        /* \"#utility.yul\":4926:4930   */\n      0x00\n        /* \"#utility.yul\":5016:5034   */\n      0xffffffffffffffff\n        /* \"#utility.yul\":5008:5014   */\n      dup3\n        /* \"#utility.yul\":5005:5035   */\n      gt\n        /* \"#utility.yul\":5002:5058   */\n      iszero\n      tag_229\n      jumpi\n        /* \"#utility.yul\":5038:5056   */\n      tag_230\n      tag_134\n      jump\t// in\n    tag_230:\n        /* \"#utility.yul\":5002:5058   */\n    tag_229:\n        /* \"#utility.yul\":5088:5092   */\n      0x20\n        /* \"#utility.yul\":5080:5086   */\n      dup3\n        /* \"#utility.yul\":5076:5093   */\n      mul\n        /* \"#utility.yul\":5068:5093   */\n      swap1\n      pop\n        /* \"#utility.yul\":5148:5152   */\n      0x20\n        /* \"#utility.yul\":5142:5146   */\n      dup2\n        /* \"#utility.yul\":5138:5153   */\n      add\n        /* \"#utility.yul\":5130:5153   */\n      swap1\n      pop\n        /* \"#utility.yul\":4849:5160   */\n      swap2\n      swap1\n      pop\n      jump\t// out\n        /* \"#utility.yul\":5166:5283   */\n    tag_138:\n        /* \"#utility.yul\":5275:5276   */\n      0x00\n        /* \"#utility.yul\":5272:5273   */\n      dup1\n        /* \"#utility.yul\":5265:5277   */\n      revert\n        /* \"#utility.yul\":5306:6016   */\n    tag_139:\n        /* \"#utility.yul\":5402:5407   */\n      0x00\n        /* \"#utility.yul\":5427:5508   */\n      tag_233\n        /* \"#utility.yul\":5443:5507   */\n      tag_234\n        /* \"#utility.yul\":5500:5506   */\n      dup5\n        /* \"#utility.yul\":5443:5507   */\n      tag_137\n      jump\t// in\n    tag_234:\n        /* \"#utility.yul\":5427:5508   */\n      tag_136\n      jump\t// in\n    tag_233:\n        /* \"#utility.yul\":5418:5508   */\n      swap1\n      pop\n        /* \"#utility.yul\":5528:5533   */\n      dup1\n        /* \"#utility.yul\":5557:5563   */\n      dup4\n        /* \"#utility.yul\":5550:5555   */\n      dup3\n        /* \"#utility.yul\":5543:5564   */\n      mstore\n        /* \"#utility.yul\":5591:5595   */\n      0x20\n        /* \"#utility.yul\":5584:5589   */\n      dup3\n        /* \"#utility.yul\":5580:5596   */\n      add\n        /* \"#utility.yul\":5573:5596   */\n      swap1\n      pop\n        /* \"#utility.yul\":5644:5648   */\n      0x20\n        /* \"#utility.yul\":5636:5642   */\n      dup5\n        /* \"#utility.yul\":5632:5649   */\n      mul\n        /* \"#utility.yul\":5624:5630   */\n      dup4\n        /* \"#utility.yul\":5620:5650   */\n      add\n        /* \"#utility.yul\":5673:5676   */\n      dup6\n        /* \"#utility.yul\":5665:5671   */\n      dup2\n        /* \"#utility.yul\":5662:5677   */\n      gt\n        /* \"#utility.yul\":5659:5781   */\n      iszero\n      tag_235\n      jumpi\n        /* \"#utility.yul\":5692:5771   */\n      tag_236\n      tag_138\n      jump\t// in\n    tag_236:\n        /* \"#utility.yul\":5659:5781   */\n    tag_235:\n        /* \"#utility.yul\":5807:5813   */\n      dup4\n        /* \"#utility.yul\":5790:6010   */\n    tag_237:\n        /* \"#utility.yul\":5824:5830   */\n      dup2\n        /* \"#utility.yul\":5819:5822   */\n      dup2\n        /* \"#utility.yul\":5816:5831   */\n      lt\n        /* \"#utility.yul\":5790:6010   */\n      iszero\n      tag_239\n      jumpi\n        /* \"#utility.yul\":5899:5902   */\n      dup1\n        /* \"#utility.yul\":5928:5965   */\n      tag_240\n        /* \"#utility.yul\":5961:5964   */\n      dup9\n        /* \"#utility.yul\":5949:5959   */\n      dup3\n        /* \"#utility.yul\":5928:5965   */\n      tag_125\n      jump\t// in\n    tag_240:\n        /* \"#utility.yul\":5923:5926   */\n      dup5\n        /* \"#utility.yul\":5916:5966   */\n      mstore\n        /* \"#utility.yul\":5995:5999   */\n      0x20\n        /* \"#utility.yul\":5990:5993   */\n      dup5\n        /* \"#utility.yul\":5986:6000   */\n      add\n        /* \"#utility.yul\":5979:6000   */\n      swap4\n      pop\n        /* \"#utility.yul\":5866:6010   */\n      pop\n        /* \"#utility.yul\":5850:5854   */\n      0x20\n        /* \"#utility.yul\":5845:5848   */\n      dup2\n        /* \"#utility.yul\":5841:5855   */\n      add\n        /* \"#utility.yul\":5834:5855   */\n      swap1\n      pop\n        /* \"#utility.yul\":5790:6010   */\n      jump(tag_237)\n    tag_239:\n        /* \"#utility.yul\":5794:5815   */\n      pop\n        /* \"#utility.yul\":5408:6016   */\n      pop\n      pop\n        /* \"#utility.yul\":5306:6016   */\n      swap4\n      swap3\n      pop\n      pop\n      pop\n      jump\t// out\n        /* \"#utility.yul\":6039:6409   */\n    tag_140:\n        /* \"#utility.yul\":6110:6115   */\n      0x00\n        /* \"#utility.yul\":6159:6162   */\n      dup3\n        /* \"#utility.yul\":6152:6156   */\n      0x1f\n        /* \"#utility.yul\":6144:6150   */\n      dup4\n        /* \"#utility.yul\":6140:6157   */\n      add\n        /* \"#utility.yul\":6136:6163   */\n      slt\n        /* \"#utility.yul\":6126:6248   */\n      tag_242\n      jumpi\n        /* \"#utility.yul\":6167:6246   */\n      tag_243\n      tag_132\n      jump\t// in\n    tag_243:\n        /* \"#utility.yul\":6126:6248   */\n    tag_242:\n        /* \"#utility.yul\":6284:6290   */\n      dup2\n        /* \"#utility.yul\":6271:6291   */\n      calldataload\n        /* \"#utility.yul\":6309:6403   */\n      tag_244\n        /* \"#utility.yul\":6399:6402   */\n      dup5\n        /* \"#utility.yul\":6391:6397   */\n      dup3\n        /* \"#utility.yul\":6384:6388   */\n      0x20\n        /* \"#utility.yul\":6376:6382   */\n      dup7\n        /* \"#utility.yul\":6372:6389   */\n      add\n        /* \"#utility.yul\":6309:6403   */\n      tag_139\n      jump\t// in\n    tag_244:\n        /* \"#utility.yul\":6300:6403   */\n      swap2\n      pop\n        /* \"#utility.yul\":6116:6409   */\n      pop\n        /* \"#utility.yul\":6039:6409   */\n      swap3\n      swap2\n      pop\n      pop\n      jump\t// out\n        /* \"#utility.yul\":6415:6532   */\n    tag_141:\n        /* \"#utility.yul\":6524:6525   */\n      0x00\n        /* \"#utility.yul\":6521:6522   */\n      dup1\n        /* \"#utility.yul\":6514:6526   */\n      revert\n        /* \"#utility.yul\":6538:6845   */\n    tag_142:\n        /* \"#utility.yul\":6599:6603   */\n      0x00\n        /* \"#utility.yul\":6689:6707   */\n      0xffffffffffffffff\n        /* \"#utility.yul\":6681:6687   */\n      dup3\n        /* \"#utility.yul\":6678:6708   */\n      gt\n        /* \"#utility.yul\":6675:6731   */\n      iszero\n      tag_247\n      jumpi\n        /* \"#utility.yul\":6711:6729   */\n      tag_248\n      tag_134\n      jump\t// in\n    tag_248:\n        /* \"#utility.yul\":6675:6731   */\n    tag_247:\n        /* \"#utility.yul\":6749:6778   */\n      tag_249\n        /* \"#utility.yul\":6771:6777   */\n      dup3\n        /* \"#utility.yul\":6749:6778   */\n      tag_133\n      jump\t// in\n    tag_249:\n        /* \"#utility.yul\":6741:6778   */\n      swap1\n      pop\n        /* \"#utility.yul\":6833:6837   */\n      0x20\n        /* \"#utility.yul\":6827:6831   */\n      dup2\n        /* \"#utility.yul\":6823:6838   */\n      add\n        /* \"#utility.yul\":6815:6838   */\n      swap1\n      pop\n        /* \"#utility.yul\":6538:6845   */\n      swap2\n      swap1\n      pop\n      jump\t// out\n        /* \"#utility.yul\":6851:7005   */\n    tag_143:\n        /* \"#utility.yul\":6935:6941   */\n      dup3\n        /* \"#utility.yul\":6930:6933   */\n      dup2\n        /* \"#utility.yul\":6925:6928   */\n      dup4\n        /* \"#utility.yul\":6912:6942   */\n      calldatacopy\n        /* \"#utility.yul\":6997:6998   */\n      0x00\n        /* \"#utility.yul\":6988:6994   */\n      dup4\n        /* \"#utility.yul\":6983:6986   */\n      dup4\n        /* \"#utility.yul\":6979:6995   */\n      add\n        /* \"#utility.yul\":6972:6999   */\n      mstore\n        /* \"#utility.yul\":6851:7005   */\n      pop\n      pop\n      pop\n      jump\t// out\n        /* \"#utility.yul\":7011:7421   */\n    tag_144:\n        /* \"#utility.yul\":7088:7093   */\n      0x00\n        /* \"#utility.yul\":7113:7178   */\n      tag_252\n        /* \"#utility.yul\":7129:7177   */\n      tag_253\n        /* \"#utility.yul\":7170:7176   */\n      dup5\n        /* \"#utility.yul\":7129:7177   */\n      tag_142\n      jump\t// in\n    tag_253:\n        /* \"#utility.yul\":7113:7178   */\n      tag_136\n      jump\t// in\n    tag_252:\n        /* \"#utility.yul\":7104:7178   */\n      swap1\n      pop\n        /* \"#utility.yul\":7201:7207   */\n      dup3\n        /* \"#utility.yul\":7194:7199   */\n      dup2\n        /* \"#utility.yul\":7187:7208   */\n      mstore\n        /* \"#utility.yul\":7239:7243   */\n      0x20\n        /* \"#utility.yul\":7232:7237   */\n      dup2\n        /* \"#utility.yul\":7228:7244   */\n      add\n        /* \"#utility.yul\":7277:7280   */\n      dup5\n        /* \"#utility.yul\":7268:7274   */\n      dup5\n        /* \"#utility.yul\":7263:7266   */\n      dup5\n        /* \"#utility.yul\":7259:7275   */\n      add\n        /* \"#utility.yul\":7256:7281   */\n      gt\n        /* \"#utility.yul\":7253:7365   */\n      iszero\n      tag_254\n      jumpi\n        /* \"#utility.yul\":7284:7363   */\n      tag_255\n      tag_141\n      jump\t// in\n    tag_255:\n        /* \"#utility.yul\":7253:7365   */\n    tag_254:\n        /* \"#utility.yul\":7374:7415   */\n      tag_256\n        /* \"#utility.yul\":7408:7414   */\n      dup5\n        /* \"#utility.yul\":7403:7406   */\n      dup3\n        /* \"#utility.yul\":7398:7401   */\n      dup6\n        /* \"#utility.yul\":7374:7415   */\n      tag_143\n      jump\t// in\n    tag_256:\n        /* \"#utility.yul\":7094:7421   */\n      pop\n        /* \"#utility.yul\":7011:7421   */\n      swap4\n      swap3\n      pop\n      pop\n      pop\n      jump\t// out\n        /* \"#utility.yul\":7440:7778   */\n    tag_145:\n        /* \"#utility.yul\":7495:7500   */\n      0x00\n        /* \"#utility.yul\":7544:7547   */\n      dup3\n        /* \"#utility.yul\":7537:7541   */\n      0x1f\n        /* \"#utility.yul\":7529:7535   */\n      dup4\n        /* \"#utility.yul\":7525:7542   */\n      add\n        /* \"#utility.yul\":7521:7548   */\n      slt\n        /* \"#utility.yul\":7511:7633   */\n      tag_258\n      jumpi\n        /* \"#utility.yul\":7552:7631   */\n      tag_259\n      tag_132\n      jump\t// in\n    tag_259:\n        /* \"#utility.yul\":7511:7633   */\n    tag_258:\n        /* \"#utility.yul\":7669:7675   */\n      dup2\n        /* \"#utility.yul\":7656:7676   */\n      calldataload\n        /* \"#utility.yul\":7694:7772   */\n      tag_260\n        /* \"#utility.yul\":7768:7771   */\n      dup5\n        /* \"#utility.yul\":7760:7766   */\n      dup3\n        /* \"#utility.yul\":7753:7757   */\n      0x20\n        /* \"#utility.yul\":7745:7751   */\n      dup7\n        /* \"#utility.yul\":7741:7758   */\n      add\n        /* \"#utility.yul\":7694:7772   */\n      tag_144\n      jump\t// in\n    tag_260:\n        /* \"#utility.yul\":7685:7772   */\n      swap2\n      pop\n        /* \"#utility.yul\":7501:7778   */\n      pop\n        /* \"#utility.yul\":7440:7778   */\n      swap3\n      swap2\n      pop\n      pop\n      jump\t// out\n        /* \"#utility.yul\":7784:9293   */\n    tag_41:\n        /* \"#utility.yul\":7938:7944   */\n      0x00\n        /* \"#utility.yul\":7946:7952   */\n      dup1\n        /* \"#utility.yul\":7954:7960   */\n      0x00\n        /* \"#utility.yul\":7962:7968   */\n      dup1\n        /* \"#utility.yul\":7970:7976   */\n      0x00\n        /* \"#utility.yul\":8019:8022   */\n      0xa0\n        /* \"#utility.yul\":8007:8016   */\n      dup7\n        /* \"#utility.yul\":7998:8005   */\n      dup9\n        /* \"#utility.yul\":7994:8017   */\n      sub\n        /* \"#utility.yul\":7990:8023   */\n      slt\n        /* \"#utility.yul\":7987:8107   */\n      iszero\n      tag_262\n      jumpi\n        /* \"#utility.yul\":8026:8105   */\n      tag_263\n      tag_116\n      jump\t// in\n    tag_263:\n        /* \"#utility.yul\":7987:8107   */\n    tag_262:\n        /* \"#utility.yul\":8146:8147   */\n      0x00\n        /* \"#utility.yul\":8171:8224   */\n      tag_264\n        /* \"#utility.yul\":8216:8223   */\n      dup9\n        /* \"#utility.yul\":8207:8213   */\n      dup3\n        /* \"#utility.yul\":8196:8205   */\n      dup10\n        /* \"#utility.yul\":8192:8214   */\n      add\n        /* \"#utility.yul\":8171:8224   */\n      tag_131\n      jump\t// in\n    tag_264:\n        /* \"#utility.yul\":8161:8224   */\n      swap6\n      pop\n        /* \"#utility.yul\":8117:8234   */\n      pop\n        /* \"#utility.yul\":8273:8275   */\n      0x20\n        /* \"#utility.yul\":8299:8352   */\n      tag_265\n        /* \"#utility.yul\":8344:8351   */\n      dup9\n        /* \"#utility.yul\":8335:8341   */\n      dup3\n        /* \"#utility.yul\":8324:8333   */\n      dup10\n        /* \"#utility.yul\":8320:8342   */\n      add\n        /* \"#utility.yul\":8299:8352   */\n      tag_131\n      jump\t// in\n    tag_265:\n        /* \"#utility.yul\":8289:8352   */\n      swap5\n      pop\n        /* \"#utility.yul\":8244:8362   */\n      pop\n        /* \"#utility.yul\":8429:8431   */\n      0x40\n        /* \"#utility.yul\":8418:8427   */\n      dup7\n        /* \"#utility.yul\":8414:8432   */\n      add\n        /* \"#utility.yul\":8401:8433   */\n      calldataload\n        /* \"#utility.yul\":8460:8478   */\n      0xffffffffffffffff\n        /* \"#utility.yul\":8452:8458   */\n      dup2\n        /* \"#utility.yul\":8449:8479   */\n      gt\n        /* \"#utility.yul\":8446:8563   */\n      iszero\n      tag_266\n      jumpi\n        /* \"#utility.yul\":8482:8561   */\n      tag_267\n      tag_117\n      jump\t// in\n    tag_267:\n        /* \"#utility.yul\":8446:8563   */\n    tag_266:\n        /* \"#utility.yul\":8587:8665   */\n      tag_268\n        /* \"#utility.yul\":8657:8664   */\n      dup9\n        /* \"#utility.yul\":8648:8654   */\n      dup3\n        /* \"#utility.yul\":8637:8646   */\n      dup10\n        /* \"#utility.yul\":8633:8655   */\n      add\n        /* \"#utility.yul\":8587:8665   */\n      tag_140\n      jump\t// in\n    tag_268:\n        /* \"#utility.yul\":8577:8665   */\n      swap4\n      pop\n        /* \"#utility.yul\":8372:8675   */\n      pop\n        /* \"#utility.yul\":8742:8744   */\n      0x60\n        /* \"#utility.yul\":8731:8740   */\n      dup7\n        /* \"#utility.yul\":8727:8745   */\n      add\n        /* \"#utility.yul\":8714:8746   */\n      calldataload\n        /* \"#utility.yul\":8773:8791   */\n      0xffffffffffffffff\n        /* \"#utility.yul\":8765:8771   */\n      dup2\n        /* \"#utility.yul\":8762:8792   */\n      gt\n        /* \"#utility.yul\":8759:8876   */\n      iszero\n      tag_269\n      jumpi\n        /* \"#utility.yul\":8795:8874   */\n      tag_270\n      tag_117\n      jump\t// in\n    tag_270:\n        /* \"#utility.yul\":8759:8876   */\n    tag_269:\n        /* \"#utility.yul\":8900:8978   */\n      tag_271\n        /* \"#utility.yul\":8970:8977   */\n      dup9\n        /* \"#utility.yul\":8961:8967   */\n      dup3\n        /* \"#utility.yul\":8950:8959   */\n      dup10\n        /* \"#utility.yul\":8946:8968   */\n      add\n        /* \"#utility.yul\":8900:8978   */\n      tag_140\n      jump\t// in\n    tag_271:\n        /* \"#utility.yul\":8890:8978   */\n      swap3\n      pop\n        /* \"#utility.yul\":8685:8988   */\n      pop\n        /* \"#utility.yul\":9055:9058   */\n      0x80\n        /* \"#utility.yul\":9044:9053   */\n      dup7\n        /* \"#utility.yul\":9040:9059   */\n      add\n        /* \"#utility.yul\":9027:9060   */\n      calldataload\n        /* \"#utility.yul\":9087:9105   */\n      0xffffffffffffffff\n        /* \"#utility.yul\":9079:9085   */\n      dup2\n        /* \"#utility.yul\":9076:9106   */\n      gt\n        /* \"#utility.yul\":9073:9190   */\n      iszero\n      tag_272\n      jumpi\n        /* \"#utility.yul\":9109:9188   */\n      tag_273\n      tag_117\n      jump\t// in\n    tag_273:\n        /* \"#utility.yul\":9073:9190   */\n    tag_272:\n        /* \"#utility.yul\":9214:9276   */\n      tag_274\n        /* \"#utility.yul\":9268:9275   */\n      dup9\n        /* \"#utility.yul\":9259:9265   */\n      dup3\n        /* \"#utility.yul\":9248:9257   */\n      dup10\n        /* \"#utility.yul\":9244:9266   */\n      add\n        /* \"#utility.yul\":9214:9276   */\n      tag_145\n      jump\t// in\n    tag_274:\n        /* \"#utility.yul\":9204:9276   */\n      swap2\n      pop\n        /* \"#utility.yul\":8998:9286   */\n      pop\n        /* \"#utility.yul\":7784:9293   */\n      swap3\n      swap6\n      pop\n      swap3\n      swap6\n      swap1\n      swap4\n      pop\n      jump\t// out\n        /* \"#utility.yul\":9299:9414   */\n    tag_146:\n        /* \"#utility.yul\":9384:9407   */\n      tag_276\n        /* \"#utility.yul\":9401:9406   */\n      dup2\n        /* \"#utility.yul\":9384:9407   */\n      tag_118\n      jump\t// in\n    tag_276:\n        /* \"#utility.yul\":9379:9382   */\n      dup3\n        /* \"#utility.yul\":9372:9408   */\n      mstore\n        /* \"#utility.yul\":9299:9414   */\n      pop\n      pop\n      jump\t// out\n        /* \"#utility.yul\":9420:9638   */\n    tag_44:\n        /* \"#utility.yul\":9511:9515   */\n      0x00\n        /* \"#utility.yul\":9549:9551   */\n      0x20\n        /* \"#utility.yul\":9538:9547   */\n      dup3\n        /* \"#utility.yul\":9534:9552   */\n      add\n        /* \"#utility.yul\":9526:9552   */\n      swap1\n      pop\n        /* \"#utility.yul\":9562:9631   */\n      tag_278\n        /* \"#utility.yul\":9628:9629   */\n      0x00\n        /* \"#utility.yul\":9617:9626   */\n      dup4\n        /* \"#utility.yul\":9613:9630   */\n      add\n        /* \"#utility.yul\":9604:9610   */\n      dup5\n        /* \"#utility.yul\":9562:9631   */\n      tag_146\n      jump\t// in\n    tag_278:\n        /* \"#utility.yul\":9420:9638   */\n      swap3\n      swap2\n      pop\n      pop\n      jump\t// out\n        /* \"#utility.yul\":9644:10733   */\n    tag_51:\n        /* \"#utility.yul\":9748:9754   */\n      0x00\n        /* \"#utility.yul\":9756:9762   */\n      dup1\n        /* \"#utility.yul\":9764:9770   */\n      0x00\n        /* \"#utility.yul\":9772:9778   */\n      dup1\n        /* \"#utility.yul\":9780:9786   */\n      0x00\n        /* \"#utility.yul\":9829:9832   */\n      0xa0\n        /* \"#utility.yul\":9817:9826   */\n      dup7\n        /* \"#utility.yul\":9808:9815   */\n      dup9\n        /* \"#utility.yul\":9804:9827   */\n      sub\n        /* \"#utility.yul\":9800:9833   */\n      slt\n        /* \"#utility.yul\":9797:9917   */\n      iszero\n      tag_280\n      jumpi\n        /* \"#utility.yul\":9836:9915   */\n      tag_281\n      tag_116\n      jump\t// in\n    tag_281:\n        /* \"#utility.yul\":9797:9917   */\n    tag_280:\n        /* \"#utility.yul\":9956:9957   */\n      0x00\n        /* \"#utility.yul\":9981:10034   */\n      tag_282\n        /* \"#utility.yul\":10026:10033   */\n      dup9\n        /* \"#utility.yul\":10017:10023   */\n      dup3\n        /* \"#utility.yul\":10006:10015   */\n      dup10\n        /* \"#utility.yul\":10002:10024   */\n      add\n        /* \"#utility.yul\":9981:10034   */\n      tag_131\n      jump\t// in\n    tag_282:\n        /* \"#utility.yul\":9971:10034   */\n      swap6\n      pop\n        /* \"#utility.yul\":9927:10044   */\n      pop\n        /* \"#utility.yul\":10083:10085   */\n      0x20\n        /* \"#utility.yul\":10109:10162   */\n      tag_283\n        /* \"#utility.yul\":10154:10161   */\n      dup9\n        /* \"#utility.yul\":10145:10151   */\n      dup3\n        /* \"#utility.yul\":10134:10143   */\n      dup10\n        /* \"#utility.yul\":10130:10152   */\n      add\n        /* \"#utility.yul\":10109:10162   */\n      tag_131\n      jump\t// in\n    tag_283:\n        /* \"#utility.yul\":10099:10162   */\n      swap5\n      pop\n        /* \"#utility.yul\":10054:10172   */\n      pop\n        /* \"#utility.yul\":10211:10213   */\n      0x40\n        /* \"#utility.yul\":10237:10290   */\n      tag_284\n        /* \"#utility.yul\":10282:10289   */\n      dup9\n        /* \"#utility.yul\":10273:10279   */\n      dup3\n        /* \"#utility.yul\":10262:10271   */\n      dup10\n        /* \"#utility.yul\":10258:10280   */\n      add\n        /* \"#utility.yul\":10237:10290   */\n      tag_125\n      jump\t// in\n    tag_284:\n        /* \"#utility.yul\":10227:10290   */\n      swap4\n      pop\n        /* \"#utility.yul\":10182:10300   */\n      pop\n        /* \"#utility.yul\":10339:10341   */\n      0x60\n        /* \"#utility.yul\":10365:10418   */\n      tag_285\n        /* \"#utility.yul\":10410:10417   */\n      dup9\n        /* \"#utility.yul\":10401:10407   */\n      dup3\n        /* \"#utility.yul\":10390:10399   */\n      dup10\n        /* \"#utility.yul\":10386:10408   */\n      add\n        /* \"#utility.yul\":10365:10418   */\n      tag_125\n      jump\t// in\n    tag_285:\n        /* \"#utility.yul\":10355:10418   */\n      swap3\n      pop\n        /* \"#utility.yul\":10310:10428   */\n      pop\n        /* \"#utility.yul\":10495:10498   */\n      0x80\n        /* \"#utility.yul\":10484:10493   */\n      dup7\n        /* \"#utility.yul\":10480:10499   */\n      add\n        /* \"#utility.yul\":10467:10500   */\n      calldataload\n        /* \"#utility.yul\":10527:10545   */\n      0xffffffffffffffff\n        /* \"#utility.yul\":10519:10525   */\n      dup2\n        /* \"#utility.yul\":10516:10546   */\n      gt\n        /* \"#utility.yul\":10513:10630   */\n      iszero\n      tag_286\n      jumpi\n        /* \"#utility.yul\":10549:10628   */\n      tag_287\n      tag_117\n      jump\t// in\n    tag_287:\n        /* \"#utility.yul\":10513:10630   */\n    tag_286:\n        /* \"#utility.yul\":10654:10716   */\n      tag_288\n        /* \"#utility.yul\":10708:10715   */\n      dup9\n        /* \"#utility.yul\":10699:10705   */\n      dup3\n        /* \"#utility.yul\":10688:10697   */\n      dup10\n        /* \"#utility.yul\":10684:10706   */\n      add\n        /* \"#utility.yul\":10654:10716   */\n      tag_145\n      jump\t// in\n    tag_288:\n        /* \"#utility.yul\":10644:10716   */\n      swap2\n      pop\n        /* \"#utility.yul\":10438:10726   */\n      pop\n        /* \"#utility.yul\":9644:10733   */\n      swap3\n      swap6\n      pop\n      swap3\n      swap6\n      swap1\n      swap4\n      pop\n      jump\t// out\n        /* \"#utility.yul\":10739:11068   */\n    tag_57:\n        /* \"#utility.yul\":10798:10804   */\n      0x00\n        /* \"#utility.yul\":10847:10849   */\n      0x20\n        /* \"#utility.yul\":10835:10844   */\n      dup3\n        /* \"#utility.yul\":10826:10833   */\n      dup5\n        /* \"#utility.yul\":10822:10845   */\n      sub\n        /* \"#utility.yul\":10818:10850   */\n      slt\n        /* \"#utility.yul\":10815:10934   */\n      iszero\n      tag_290\n      jumpi\n        /* \"#utility.yul\":10853:10932   */\n      tag_291\n      tag_116\n      jump\t// in\n    tag_291:\n        /* \"#utility.yul\":10815:10934   */\n    tag_290:\n        /* \"#utility.yul\":10973:10974   */\n      0x00\n        /* \"#utility.yul\":10998:11051   */\n      tag_292\n        /* \"#utility.yul\":11043:11050   */\n      dup5\n        /* \"#utility.yul\":11034:11040   */\n      dup3\n        /* \"#utility.yul\":11023:11032   */\n      dup6\n        /* \"#utility.yul\":11019:11041   */\n      add\n        /* \"#utility.yul\":10998:11051   */\n      tag_131\n      jump\t// in\n    tag_292:\n        /* \"#utility.yul\":10988:11051   */\n      swap2\n      pop\n        /* \"#utility.yul\":10944:11061   */\n      pop\n        /* \"#utility.yul\":10739:11068   */\n      swap3\n      swap2\n      pop\n      pop\n      jump\t// out\n        /* \"#utility.yul\":11074:11243   */\n    tag_147:\n        /* \"#utility.yul\":11158:11169   */\n      0x00\n        /* \"#utility.yul\":11192:11198   */\n      dup3\n        /* \"#utility.yul\":11187:11190   */\n      dup3\n        /* \"#utility.yul\":11180:11199   */\n      mstore\n        /* \"#utility.yul\":11232:11236   */\n      0x20\n        /* \"#utility.yul\":11227:11230   */\n      dup3\n        /* \"#utility.yul\":11223:11237   */\n      add\n        /* \"#utility.yul\":11208:11237   */\n      swap1\n      pop\n        /* \"#utility.yul\":11074:11243   */\n      swap3\n      swap2\n      pop\n      pop\n      jump\t// out\n        /* \"#utility.yul\":11249:11487   */\n    tag_148:\n        /* \"#utility.yul\":11389:11423   */\n      0x4c6973743a20746865206c697374696e672070726963652068617320746f2062\n        /* \"#utility.yul\":11385:11386   */\n      0x00\n        /* \"#utility.yul\":11377:11383   */\n      dup3\n        /* \"#utility.yul\":11373:11387   */\n      add\n        /* \"#utility.yul\":11366:11424   */\n      mstore\n        /* \"#utility.yul\":11458:11479   */\n      0x652067726561746572207468616e207a65726f00000000000000000000000000\n        /* \"#utility.yul\":11453:11455   */\n      0x20\n        /* \"#utility.yul\":11445:11451   */\n      dup3\n        /* \"#utility.yul\":11441:11456   */\n      add\n        /* \"#utility.yul\":11434:11480   */\n      mstore\n        /* \"#utility.yul\":11249:11487   */\n      pop\n      jump\t// out\n        /* \"#utility.yul\":11493:11859   */\n    tag_149:\n        /* \"#utility.yul\":11635:11638   */\n      0x00\n        /* \"#utility.yul\":11656:11723   */\n      tag_296\n        /* \"#utility.yul\":11720:11722   */\n      0x33\n        /* \"#utility.yul\":11715:11718   */\n      dup4\n        /* \"#utility.yul\":11656:11723   */\n      tag_147\n      jump\t// in\n    tag_296:\n        /* \"#utility.yul\":11649:11723   */\n      swap2\n      pop\n        /* \"#utility.yul\":11732:11825   */\n      tag_297\n        /* \"#utility.yul\":11821:11824   */\n      dup3\n        /* \"#utility.yul\":11732:11825   */\n      tag_148\n      jump\t// in\n    tag_297:\n        /* \"#utility.yul\":11850:11852   */\n      0x40\n        /* \"#utility.yul\":11845:11848   */\n      dup3\n        /* \"#utility.yul\":11841:11853   */\n      add\n        /* \"#utility.yul\":11834:11853   */\n      swap1\n      pop\n        /* \"#utility.yul\":11493:11859   */\n      swap2\n      swap1\n      pop\n      jump\t// out\n        /* \"#utility.yul\":11865:12284   */\n    tag_66:\n        /* \"#utility.yul\":12031:12035   */\n      0x00\n        /* \"#utility.yul\":12069:12071   */\n      0x20\n        /* \"#utility.yul\":12058:12067   */\n      dup3\n        /* \"#utility.yul\":12054:12072   */\n      add\n        /* \"#utility.yul\":12046:12072   */\n      swap1\n      pop\n        /* \"#utility.yul\":12118:12127   */\n      dup2\n        /* \"#utility.yul\":12112:12116   */\n      dup2\n        /* \"#utility.yul\":12108:12128   */\n      sub\n        /* \"#utility.yul\":12104:12105   */\n      0x00\n        /* \"#utility.yul\":12093:12102   */\n      dup4\n        /* \"#utility.yul\":12089:12106   */\n      add\n        /* \"#utility.yul\":12082:12129   */\n      mstore\n        /* \"#utility.yul\":12146:12277   */\n      tag_299\n        /* \"#utility.yul\":12272:12276   */\n      dup2\n        /* \"#utility.yul\":12146:12277   */\n      tag_149\n      jump\t// in\n    tag_299:\n        /* \"#utility.yul\":12138:12277   */\n      swap1\n      pop\n        /* \"#utility.yul\":11865:12284   */\n      swap2\n      swap1\n      pop\n      jump\t// out\n        /* \"#utility.yul\":12290:12375   */\n    tag_150:\n        /* \"#utility.yul\":12335:12342   */\n      0x00\n        /* \"#utility.yul\":12364:12369   */\n      dup2\n        /* \"#utility.yul\":12353:12369   */\n      swap1\n      pop\n        /* \"#utility.yul\":12290:12375   */\n      swap2\n      swap1\n      pop\n      jump\t// out\n        /* \"#utility.yul\":12381:12441   */\n    tag_151:\n        /* \"#utility.yul\":12409:12412   */\n      0x00\n        /* \"#utility.yul\":12430:12435   */\n      dup2\n        /* \"#utility.yul\":12423:12435   */\n      swap1\n      pop\n        /* \"#utility.yul\":12381:12441   */\n      swap2\n      swap1\n      pop\n      jump\t// out\n        /* \"#utility.yul\":12447:12605   */\n    tag_152:\n        /* \"#utility.yul\":12505:12514   */\n      0x00\n        /* \"#utility.yul\":12538:12599   */\n      tag_303\n        /* \"#utility.yul\":12556:12598   */\n      tag_304\n        /* \"#utility.yul\":12565:12597   */\n      tag_305\n        /* \"#utility.yul\":12591:12596   */\n      dup5\n        /* \"#utility.yul\":12565:12597   */\n      tag_150\n      jump\t// in\n    tag_305:\n        /* \"#utility.yul\":12556:12598   */\n      tag_151\n      jump\t// in\n    tag_304:\n        /* \"#utility.yul\":12538:12599   */\n      tag_123\n      jump\t// in\n    tag_303:\n        /* \"#utility.yul\":12525:12599   */\n      swap1\n      pop\n        /* \"#utility.yul\":12447:12605   */\n      swap2\n      swap1\n      pop\n      jump\t// out\n        /* \"#utility.yul\":12611:12758   */\n    tag_153:\n        /* \"#utility.yul\":12706:12751   */\n      tag_307\n        /* \"#utility.yul\":12745:12750   */\n      dup2\n        /* \"#utility.yul\":12706:12751   */\n      tag_152\n      jump\t// in\n    tag_307:\n        /* \"#utility.yul\":12701:12704   */\n      dup3\n        /* \"#utility.yul\":12694:12752   */\n      mstore\n        /* \"#utility.yul\":12611:12758   */\n      pop\n      pop\n      jump\t// out\n        /* \"#utility.yul\":12764:12932   */\n    tag_154:\n        /* \"#utility.yul\":12847:12858   */\n      0x00\n        /* \"#utility.yul\":12881:12887   */\n      dup3\n        /* \"#utility.yul\":12876:12879   */\n      dup3\n        /* \"#utility.yul\":12869:12888   */\n      mstore\n        /* \"#utility.yul\":12921:12925   */\n      0x20\n        /* \"#utility.yul\":12916:12919   */\n      dup3\n        /* \"#utility.yul\":12912:12926   */\n      add\n        /* \"#utility.yul\":12897:12926   */\n      swap1\n      pop\n        /* \"#utility.yul\":12764:12932   */\n      swap3\n      swap2\n      pop\n      pop\n      jump\t// out\n        /* \"#utility.yul\":12938:13052   */\n    tag_155:\n      pop\n      jump\t// out\n        /* \"#utility.yul\":13058:13420   */\n    tag_156:\n        /* \"#utility.yul\":13199:13202   */\n      0x00\n        /* \"#utility.yul\":13220:13285   */\n      tag_311\n        /* \"#utility.yul\":13283:13284   */\n      0x00\n        /* \"#utility.yul\":13278:13281   */\n      dup4\n        /* \"#utility.yul\":13220:13285   */\n      tag_154\n      jump\t// in\n    tag_311:\n        /* \"#utility.yul\":13213:13285   */\n      swap2\n      pop\n        /* \"#utility.yul\":13294:13387   */\n      tag_312\n        /* \"#utility.yul\":13383:13386   */\n      dup3\n        /* \"#utility.yul\":13294:13387   */\n      tag_155\n      jump\t// in\n    tag_312:\n        /* \"#utility.yul\":13412:13413   */\n      0x00\n        /* \"#utility.yul\":13407:13410   */\n      dup3\n        /* \"#utility.yul\":13403:13414   */\n      add\n        /* \"#utility.yul\":13396:13414   */\n      swap1\n      pop\n        /* \"#utility.yul\":13058:13420   */\n      swap2\n      swap1\n      pop\n      jump\t// out\n        /* \"#utility.yul\":13426:14301   */\n    tag_68:\n        /* \"#utility.yul\":13711:13715   */\n      0x00\n        /* \"#utility.yul\":13749:13752   */\n      0xa0\n        /* \"#utility.yul\":13738:13747   */\n      dup3\n        /* \"#utility.yul\":13734:13753   */\n      add\n        /* \"#utility.yul\":13726:13753   */\n      swap1\n      pop\n        /* \"#utility.yul\":13763:13834   */\n      tag_314\n        /* \"#utility.yul\":13831:13832   */\n      0x00\n        /* \"#utility.yul\":13820:13829   */\n      dup4\n        /* \"#utility.yul\":13816:13833   */\n      add\n        /* \"#utility.yul\":13807:13813   */\n      dup8\n        /* \"#utility.yul\":13763:13834   */\n      tag_128\n      jump\t// in\n    tag_314:\n        /* \"#utility.yul\":13844:13916   */\n      tag_315\n        /* \"#utility.yul\":13912:13914   */\n      0x20\n        /* \"#utility.yul\":13901:13910   */\n      dup4\n        /* \"#utility.yul\":13897:13915   */\n      add\n        /* \"#utility.yul\":13888:13894   */\n      dup7\n        /* \"#utility.yul\":13844:13916   */\n      tag_128\n      jump\t// in\n    tag_315:\n        /* \"#utility.yul\":13926:13998   */\n      tag_316\n        /* \"#utility.yul\":13994:13996   */\n      0x40\n        /* \"#utility.yul\":13983:13992   */\n      dup4\n        /* \"#utility.yul\":13979:13997   */\n      add\n        /* \"#utility.yul\":13970:13976   */\n      dup6\n        /* \"#utility.yul\":13926:13998   */\n      tag_129\n      jump\t// in\n    tag_316:\n        /* \"#utility.yul\":14008:14088   */\n      tag_317\n        /* \"#utility.yul\":14084:14086   */\n      0x60\n        /* \"#utility.yul\":14073:14082   */\n      dup4\n        /* \"#utility.yul\":14069:14087   */\n      add\n        /* \"#utility.yul\":14060:14066   */\n      dup5\n        /* \"#utility.yul\":14008:14088   */\n      tag_153\n      jump\t// in\n    tag_317:\n        /* \"#utility.yul\":14136:14145   */\n      dup2\n        /* \"#utility.yul\":14130:14134   */\n      dup2\n        /* \"#utility.yul\":14126:14146   */\n      sub\n        /* \"#utility.yul\":14120:14123   */\n      0x80\n        /* \"#utility.yul\":14109:14118   */\n      dup4\n        /* \"#utility.yul\":14105:14124   */\n      add\n        /* \"#utility.yul\":14098:14147   */\n      mstore\n        /* \"#utility.yul\":14164:14294   */\n      tag_318\n        /* \"#utility.yul\":14289:14293   */\n      dup2\n        /* \"#utility.yul\":14164:14294   */\n      tag_156\n      jump\t// in\n    tag_318:\n        /* \"#utility.yul\":14156:14294   */\n      swap1\n      pop\n        /* \"#utility.yul\":13426:14301   */\n      swap6\n      swap5\n      pop\n      pop\n      pop\n      pop\n      pop\n      jump\t// out\n        /* \"#utility.yul\":14307:14489   */\n    tag_157:\n        /* \"#utility.yul\":14447:14481   */\n      0x4f776e61626c653a2063616c6c6572206973206e6f7420746865206f776e6572\n        /* \"#utility.yul\":14443:14444   */\n      0x00\n        /* \"#utility.yul\":14435:14441   */\n      dup3\n        /* \"#utility.yul\":14431:14445   */\n      add\n        /* \"#utility.yul\":14424:14482   */\n      mstore\n        /* \"#utility.yul\":14307:14489   */\n      pop\n      jump\t// out\n        /* \"#utility.yul\":14495:14861   */\n    tag_158:\n        /* \"#utility.yul\":14637:14640   */\n      0x00\n        /* \"#utility.yul\":14658:14725   */\n      tag_321\n        /* \"#utility.yul\":14722:14724   */\n      0x20\n        /* \"#utility.yul\":14717:14720   */\n      dup4\n        /* \"#utility.yul\":14658:14725   */\n      tag_147\n      jump\t// in\n    tag_321:\n        /* \"#utility.yul\":14651:14725   */\n      swap2\n      pop\n        /* \"#utility.yul\":14734:14827   */\n      tag_322\n        /* \"#utility.yul\":14823:14826   */\n      dup3\n        /* \"#utility.yul\":14734:14827   */\n      tag_157\n      jump\t// in\n    tag_322:\n        /* \"#utility.yul\":14852:14854   */\n      0x20\n        /* \"#utility.yul\":14847:14850   */\n      dup3\n        /* \"#utility.yul\":14843:14855   */\n      add\n        /* \"#utility.yul\":14836:14855   */\n      swap1\n      pop\n        /* \"#utility.yul\":14495:14861   */\n      swap2\n      swap1\n      pop\n      jump\t// out\n        /* \"#utility.yul\":14867:15286   */\n    tag_78:\n        /* \"#utility.yul\":15033:15037   */\n      0x00\n        /* \"#utility.yul\":15071:15073   */\n      0x20\n        /* \"#utility.yul\":15060:15069   */\n      dup3\n        /* \"#utility.yul\":15056:15074   */\n      add\n        /* \"#utility.yul\":15048:15074   */\n      swap1\n      pop\n        /* \"#utility.yul\":15120:15129   */\n      dup2\n        /* \"#utility.yul\":15114:15118   */\n      dup2\n        /* \"#utility.yul\":15110:15130   */\n      sub\n        /* \"#utility.yul\":15106:15107   */\n      0x00\n        /* \"#utility.yul\":15095:15104   */\n      dup4\n        /* \"#utility.yul\":15091:15108   */\n      add\n        /* \"#utility.yul\":15084:15131   */\n      mstore\n        /* \"#utility.yul\":15148:15279   */\n      tag_324\n        /* \"#utility.yul\":15274:15278   */\n      dup2\n        /* \"#utility.yul\":15148:15279   */\n      tag_158\n      jump\t// in\n    tag_324:\n        /* \"#utility.yul\":15140:15279   */\n      swap1\n      pop\n        /* \"#utility.yul\":14867:15286   */\n      swap2\n      swap1\n      pop\n      jump\t// out\n        /* \"#utility.yul\":15292:15473   */\n    tag_159:\n        /* \"#utility.yul\":15432:15465   */\n      0x5265656e7472616e637947756172643a207265656e7472616e742063616c6c00\n        /* \"#utility.yul\":15428:15429   */\n      0x00\n        /* \"#utility.yul\":15420:15426   */\n      dup3\n        /* \"#utility.yul\":15416:15430   */\n      add\n        /* \"#utility.yul\":15409:15466   */\n      mstore\n        /* \"#utility.yul\":15292:15473   */\n      pop\n      jump\t// out\n        /* \"#utility.yul\":15479:15845   */\n    tag_160:\n        /* \"#utility.yul\":15621:15624   */\n      0x00\n        /* \"#utility.yul\":15642:15709   */\n      tag_327\n        /* \"#utility.yul\":15706:15708   */\n      0x1f\n        /* \"#utility.yul\":15701:15704   */\n      dup4\n        /* \"#utility.yul\":15642:15709   */\n      tag_147\n      jump\t// in\n    tag_327:\n        /* \"#utility.yul\":15635:15709   */\n      swap2\n      pop\n        /* \"#utility.yul\":15718:15811   */\n      tag_328\n        /* \"#utility.yul\":15807:15810   */\n      dup3\n        /* \"#utility.yul\":15718:15811   */\n      tag_159\n      jump\t// in\n    tag_328:\n        /* \"#utility.yul\":15836:15838   */\n      0x20\n        /* \"#utility.yul\":15831:15834   */\n      dup3\n        /* \"#utility.yul\":15827:15839   */\n      add\n        /* \"#utility.yul\":15820:15839   */\n      swap1\n      pop\n        /* \"#utility.yul\":15479:15845   */\n      swap2\n      swap1\n      pop\n      jump\t// out\n        /* \"#utility.yul\":15851:16270   */\n    tag_87:\n        /* \"#utility.yul\":16017:16021   */\n      0x00\n        /* \"#utility.yul\":16055:16057   */\n      0x20\n        /* \"#utility.yul\":16044:16053   */\n      dup3\n        /* \"#utility.yul\":16040:16058   */\n      add\n        /* \"#utility.yul\":16032:16058   */\n      swap1\n      pop\n        /* \"#utility.yul\":16104:16113   */\n      dup2\n        /* \"#utility.yul\":16098:16102   */\n      dup2\n        /* \"#utility.yul\":16094:16114   */\n      sub\n        /* \"#utility.yul\":16090:16091   */\n      0x00\n        /* \"#utility.yul\":16079:16088   */\n      dup4\n        /* \"#utility.yul\":16075:16092   */\n      add\n        /* \"#utility.yul\":16068:16115   */\n      mstore\n        /* \"#utility.yul\":16132:16263   */\n      tag_330\n        /* \"#utility.yul\":16258:16262   */\n      dup2\n        /* \"#utility.yul\":16132:16263   */\n      tag_160\n      jump\t// in\n    tag_330:\n        /* \"#utility.yul\":16124:16263   */\n      swap1\n      pop\n        /* \"#utility.yul\":15851:16270   */\n      swap2\n      swap1\n      pop\n      jump\t// out\n        /* \"#utility.yul\":16276:16446   */\n    tag_161:\n        /* \"#utility.yul\":16416:16438   */\n      0x4275793a20496e636f7272656374207072696365000000000000000000000000\n        /* \"#utility.yul\":16412:16413   */\n      0x00\n        /* \"#utility.yul\":16404:16410   */\n      dup3\n        /* \"#utility.yul\":16400:16414   */\n      add\n        /* \"#utility.yul\":16393:16439   */\n      mstore\n        /* \"#utility.yul\":16276:16446   */\n      pop\n      jump\t// out\n        /* \"#utility.yul\":16452:16818   */\n    tag_162:\n        /* \"#utility.yul\":16594:16597   */\n      0x00\n        /* \"#utility.yul\":16615:16682   */\n      tag_333\n        /* \"#utility.yul\":16679:16681   */\n      0x14\n        /* \"#utility.yul\":16674:16677   */\n      dup4\n        /* \"#utility.yul\":16615:16682   */\n      tag_147\n      jump\t// in\n    tag_333:\n        /* \"#utility.yul\":16608:16682   */\n      swap2\n      pop\n        /* \"#utility.yul\":16691:16784   */\n      tag_334\n        /* \"#utility.yul\":16780:16783   */\n      dup3\n        /* \"#utility.yul\":16691:16784   */\n      tag_161\n      jump\t// in\n    tag_334:\n        /* \"#utility.yul\":16809:16811   */\n      0x20\n        /* \"#utility.yul\":16804:16807   */\n      dup3\n        /* \"#utility.yul\":16800:16812   */\n      add\n        /* \"#utility.yul\":16793:16812   */\n      swap1\n      pop\n        /* \"#utility.yul\":16452:16818   */\n      swap2\n      swap1\n      pop\n      jump\t// out\n        /* \"#utility.yul\":16824:17243   */\n    tag_91:\n        /* \"#utility.yul\":16990:16994   */\n      0x00\n        /* \"#utility.yul\":17028:17030   */\n      0x20\n        /* \"#utility.yul\":17017:17026   */\n      dup3\n        /* \"#utility.yul\":17013:17031   */\n      add\n        /* \"#utility.yul\":17005:17031   */\n      swap1\n      pop\n        /* \"#utility.yul\":17077:17086   */\n      dup2\n        /* \"#utility.yul\":17071:17075   */\n      dup2\n        /* \"#utility.yul\":17067:17087   */\n      sub\n        /* \"#utility.yul\":17063:17064   */\n      0x00\n        /* \"#utility.yul\":17052:17061   */\n      dup4\n        /* \"#utility.yul\":17048:17065   */\n      add\n        /* \"#utility.yul\":17041:17088   */\n      mstore\n        /* \"#utility.yul\":17105:17236   */\n      tag_336\n        /* \"#utility.yul\":17231:17235   */\n      dup2\n        /* \"#utility.yul\":17105:17236   */\n      tag_162\n      jump\t// in\n    tag_336:\n        /* \"#utility.yul\":17097:17236   */\n      swap1\n      pop\n        /* \"#utility.yul\":16824:17243   */\n      swap2\n      swap1\n      pop\n      jump\t// out\n        /* \"#utility.yul\":17249:17426   */\n    tag_163:\n        /* \"#utility.yul\":17389:17418   */\n      0x4275793a2042757965722063616e6e6f742062652073656c6c65720000000000\n        /* \"#utility.yul\":17385:17386   */\n      0x00\n        /* \"#utility.yul\":17377:17383   */\n      dup3\n        /* \"#utility.yul\":17373:17387   */\n      add\n        /* \"#utility.yul\":17366:17419   */\n      mstore\n        /* \"#utility.yul\":17249:17426   */\n      pop\n      jump\t// out\n        /* \"#utility.yul\":17432:17798   */\n    tag_164:\n        /* \"#utility.yul\":17574:17577   */\n      0x00\n        /* \"#utility.yul\":17595:17662   */\n      tag_339\n        /* \"#utility.yul\":17659:17661   */\n      0x1b\n        /* \"#utility.yul\":17654:17657   */\n      dup4\n        /* \"#utility.yul\":17595:17662   */\n      tag_147\n      jump\t// in\n    tag_339:\n        /* \"#utility.yul\":17588:17662   */\n      swap2\n      pop\n        /* \"#utility.yul\":17671:17764   */\n      tag_340\n        /* \"#utility.yul\":17760:17763   */\n      dup3\n        /* \"#utility.yul\":17671:17764   */\n      tag_163\n      jump\t// in\n    tag_340:\n        /* \"#utility.yul\":17789:17791   */\n      0x20\n        /* \"#utility.yul\":17784:17787   */\n      dup3\n        /* \"#utility.yul\":17780:17792   */\n      add\n        /* \"#utility.yul\":17773:17792   */\n      swap1\n      pop\n        /* \"#utility.yul\":17432:17798   */\n      swap2\n      swap1\n      pop\n      jump\t// out\n        /* \"#utility.yul\":17804:18223   */\n    tag_94:\n        /* \"#utility.yul\":17970:17974   */\n      0x00\n        /* \"#utility.yul\":18008:18010   */\n      0x20\n        /* \"#utility.yul\":17997:18006   */\n      dup3\n        /* \"#utility.yul\":17993:18011   */\n      add\n        /* \"#utility.yul\":17985:18011   */\n      swap1\n      pop\n        /* \"#utility.yul\":18057:18066   */\n      dup2\n        /* \"#utility.yul\":18051:18055   */\n      dup2\n        /* \"#utility.yul\":18047:18067   */\n      sub\n        /* \"#utility.yul\":18043:18044   */\n      0x00\n        /* \"#utility.yul\":18032:18041   */\n      dup4\n        /* \"#utility.yul\":18028:18045   */\n      add\n        /* \"#utility.yul\":18021:18068   */\n      mstore\n        /* \"#utility.yul\":18085:18216   */\n      tag_342\n        /* \"#utility.yul\":18211:18215   */\n      dup2\n        /* \"#utility.yul\":18085:18216   */\n      tag_164\n      jump\t// in\n    tag_342:\n        /* \"#utility.yul\":18077:18216   */\n      swap1\n      pop\n        /* \"#utility.yul\":17804:18223   */\n      swap2\n      swap1\n      pop\n      jump\t// out\n        /* \"#utility.yul\":18229:18454   */\n    tag_165:\n        /* \"#utility.yul\":18369:18403   */\n      0x4f776e61626c653a206e6577206f776e657220697320746865207a65726f2061\n        /* \"#utility.yul\":18365:18366   */\n      0x00\n        /* \"#utility.yul\":18357:18363   */\n      dup3\n        /* \"#utility.yul\":18353:18367   */\n      add\n        /* \"#utility.yul\":18346:18404   */\n      mstore\n        /* \"#utility.yul\":18438:18446   */\n      0x6464726573730000000000000000000000000000000000000000000000000000\n        /* \"#utility.yul\":18433:18435   */\n      0x20\n        /* \"#utility.yul\":18425:18431   */\n      dup3\n        /* \"#utility.yul\":18421:18436   */\n      add\n        /* \"#utility.yul\":18414:18447   */\n      mstore\n        /* \"#utility.yul\":18229:18454   */\n      pop\n      jump\t// out\n        /* \"#utility.yul\":18460:18826   */\n    tag_166:\n        /* \"#utility.yul\":18602:18605   */\n      0x00\n        /* \"#utility.yul\":18623:18690   */\n      tag_345\n        /* \"#utility.yul\":18687:18689   */\n      0x26\n        /* \"#utility.yul\":18682:18685   */\n      dup4\n        /* \"#utility.yul\":18623:18690   */\n      tag_147\n      jump\t// in\n    tag_345:\n        /* \"#utility.yul\":18616:18690   */\n      swap2\n      pop\n        /* \"#utility.yul\":18699:18792   */\n      tag_346\n        /* \"#utility.yul\":18788:18791   */\n      dup3\n        /* \"#utility.yul\":18699:18792   */\n      tag_165\n      jump\t// in\n    tag_346:\n        /* \"#utility.yul\":18817:18819   */\n      0x40\n        /* \"#utility.yul\":18812:18815   */\n      dup3\n        /* \"#utility.yul\":18808:18820   */\n      add\n        /* \"#utility.yul\":18801:18820   */\n      swap1\n      pop\n        /* \"#utility.yul\":18460:18826   */\n      swap2\n      swap1\n      pop\n      jump\t// out\n        /* \"#utility.yul\":18832:19251   */\n    tag_110:\n        /* \"#utility.yul\":18998:19002   */\n      0x00\n        /* \"#utility.yul\":19036:19038   */\n      0x20\n        /* \"#utility.yul\":19025:19034   */\n      dup3\n        /* \"#utility.yul\":19021:19039   */\n      add\n        /* \"#utility.yul\":19013:19039   */\n      swap1\n      pop\n        /* \"#utility.yul\":19085:19094   */\n      dup2\n        /* \"#utility.yul\":19079:19083   */\n      dup2\n        /* \"#utility.yul\":19075:19095   */\n      sub\n        /* \"#utility.yul\":19071:19072   */\n      0x00\n        /* \"#utility.yul\":19060:19069   */\n      dup4\n        /* \"#utility.yul\":19056:19073   */\n      add\n        /* \"#utility.yul\":19049:19096   */\n      mstore\n        /* \"#utility.yul\":19113:19244   */\n      tag_348\n        /* \"#utility.yul\":19239:19243   */\n      dup2\n        /* \"#utility.yul\":19113:19244   */\n      tag_166\n      jump\t// in\n    tag_348:\n        /* \"#utility.yul\":19105:19244   */\n      swap1\n      pop\n        /* \"#utility.yul\":18832:19251   */\n      swap2\n      swap1\n      pop\n      jump\t// out\n\n    auxdata: 0xa2646970667358221220180b8273c96838a96f83171a41c82309e67032f2a0faf5ecd9de046d18a08ef964736f6c634300080a0033\n}\n","bytecode":{"linkReferences":{},"object":"60806040523480156200001157600080fd5b50604051620016ac380380620016ac8339818101604052810190620000379190620001dc565b620000576200004b620000a660201b60201c565b620000ae60201b60201c565b6001808190555080600260006101000a81548173ffffffffffffffffffffffffffffffffffffffff021916908373ffffffffffffffffffffffffffffffffffffffff160217905550506200020e565b600033905090565b60008060009054906101000a900473ffffffffffffffffffffffffffffffffffffffff169050816000806101000a81548173ffffffffffffffffffffffffffffffffffffffff021916908373ffffffffffffffffffffffffffffffffffffffff1602179055508173ffffffffffffffffffffffffffffffffffffffff168173ffffffffffffffffffffffffffffffffffffffff167f8be0079c531659141344cd1fd0a4f28419497f9722a3daafe3b4186f6b6457e060405160405180910390a35050565b600080fd5b600073ffffffffffffffffffffffffffffffffffffffff82169050919050565b6000620001a48262000177565b9050919050565b620001b68162000197565b8114620001c257600080fd5b50565b600081519050620001d681620001ab565b92915050565b600060208284031215620001f557620001f462000172565b5b60006200020584828501620001c5565b91505092915050565b61148e806200021e6000396000f3fe6080604052600436106100865760003560e01c80638da5cb5b116100595780638da5cb5b14610139578063bc197c8114610164578063f0090528146101a1578063f23a6e61146101bd578063f2fde38b146101fa57610086565b806301ffc9a71461008b578063598b2b53146100c85780636b4e0b0114610106578063715018a614610122575b600080fd5b34801561009757600080fd5b506100b260048036038101906100ad9190610b0e565b610223565b6040516100bf9190610b56565b60405180910390f35b3480156100d457600080fd5b506100ef60048036038101906100ea9190610ba7565b61029d565b6040516100fd929190610c24565b60405180910390f35b610120600480360381019061011b9190610c4d565b6102e1565b005b34801561012e57600080fd5b5061013761044e565b005b34801561014557600080fd5b5061014e6104d6565b60405161015b9190610c8d565b60405180910390f35b34801561017057600080fd5b5061018b60048036038101906101869190610ee2565b6104ff565b6040516101989190610fc0565b60405180910390f35b6101bb60048036038101906101b69190610ba7565b610514565b005b3480156101c957600080fd5b506101e460048036038101906101df9190610fdb565b61085f565b6040516101f19190610fc0565b60405180910390f35b34801561020657600080fd5b50610221600480360381019061021c9190611072565b610874565b005b60007f4e2312e0000000000000000000000000000000000000000000000000000000007bffffffffffffffffffffffffffffffffffffffffffffffffffffffff1916827bffffffffffffffffffffffffffffffffffffffffffffffffffffffff1916148061029657506102958261096c565b5b9050919050565b60036020528060005260406000206000915090508060000160009054906101000a900473ffffffffffffffffffffffffffffffffffffffff16908060010154905082565b60008111610324576040517f08c379a000000000000000000000000000000000000000000000000000000000815260040161031b90611122565b60405180910390fd5b600260009054906101000a900473ffffffffffffffffffffffffffffffffffffffff1673ffffffffffffffffffffffffffffffffffffffff1663f242432a33308560016040518563ffffffff1660e01b815260040161038694939291906111be565b600060405180830381600087803b1580156103a057600080fd5b505af11580156103b4573d6000803e3d6000fd5b5050505060405180604001604052803373ffffffffffffffffffffffffffffffffffffffff168152602001828152506003600084815260200190815260200160002060008201518160000160006101000a81548173ffffffffffffffffffffffffffffffffffffffff021916908373ffffffffffffffffffffffffffffffffffffffff160217905550602082015181600101559050505050565b6104566109d6565b73ffffffffffffffffffffffffffffffffffffffff166104746104d6565b73ffffffffffffffffffffffffffffffffffffffff16146104ca576040517f08c379a00000000000000000000000000000000000000000000000000000000081526004016104c190611262565b60405180910390fd5b6104d460006109de565b565b60008060009054906101000a900473ffffffffffffffffffffffffffffffffffffffff16905090565b600063bc197c8160e01b905095945050505050565b6002600154141561055a576040517f08c379a0000000000000000000000000000000000000000000000000000000008152600401610551906112ce565b60405180910390fd5b60026001819055506000600360008381526020019081526020016000206040518060400160405290816000820160009054906101000a900473ffffffffffffffffffffffffffffffffffffffff1673ffffffffffffffffffffffffffffffffffffffff1673ffffffffffffffffffffffffffffffffffffffff16815260200160018201548152505090508060200151341461062a576040517f08c379a00000000000000000000000000000000000000000000000000000000081526004016106219061133a565b60405180910390fd5b806000015173ffffffffffffffffffffffffffffffffffffffff163373ffffffffffffffffffffffffffffffffffffffff16141561069d576040517f08c379a0000000000000000000000000000000000000000000000000000000008152600401610694906113a6565b60405180910390fd5b600260009054906101000a900473ffffffffffffffffffffffffffffffffffffffff1673ffffffffffffffffffffffffffffffffffffffff1663f242432a30338560016040518563ffffffff1660e01b81526004016106ff94939291906111be565b600060405180830381600087803b15801561071957600080fd5b505af115801561072d573d6000803e3d6000fd5b5050505060036000838152602001908152602001600020600080820160006101000a81549073ffffffffffffffffffffffffffffffffffffffff021916905560018201600090555050806000015173ffffffffffffffffffffffffffffffffffffffff166108fc349081150290604051600060405180830381858888f193505050501580156107c0573d6000803e3d6000fd5b5060405180604001604052803373ffffffffffffffffffffffffffffffffffffffff16815260200160008152506003600084815260200190815260200160002060008201518160000160006101000a81548173ffffffffffffffffffffffffffffffffffffffff021916908373ffffffffffffffffffffffffffffffffffffffff16021790555060208201518160010155905050506001808190555050565b600063f23a6e6160e01b905095945050505050565b61087c6109d6565b73ffffffffffffffffffffffffffffffffffffffff1661089a6104d6565b73ffffffffffffffffffffffffffffffffffffffff16146108f0576040517f08c379a00000000000000000000000000000000000000000000000000000000081526004016108e790611262565b60405180910390fd5b600073ffffffffffffffffffffffffffffffffffffffff168173ffffffffffffffffffffffffffffffffffffffff161415610960576040517f08c379a000000000000000000000000000000000000000000000000000000000815260040161095790611438565b60405180910390fd5b610969816109de565b50565b60007f01ffc9a7000000000000000000000000000000000000000000000000000000007bffffffffffffffffffffffffffffffffffffffffffffffffffffffff1916827bffffffffffffffffffffffffffffffffffffffffffffffffffffffff1916149050919050565b600033905090565b60008060009054906101000a900473ffffffffffffffffffffffffffffffffffffffff169050816000806101000a81548173ffffffffffffffffffffffffffffffffffffffff021916908373ffffffffffffffffffffffffffffffffffffffff1602179055508173ffffffffffffffffffffffffffffffffffffffff168173ffffffffffffffffffffffffffffffffffffffff167f8be0079c531659141344cd1fd0a4f28419497f9722a3daafe3b4186f6b6457e060405160405180910390a35050565b6000604051905090565b600080fd5b600080fd5b60007fffffffff0000000000000000000000000000000000000000000000000000000082169050919050565b610aeb81610ab6565b8114610af657600080fd5b50565b600081359050610b0881610ae2565b92915050565b600060208284031215610b2457610b23610aac565b5b6000610b3284828501610af9565b91505092915050565b60008115159050919050565b610b5081610b3b565b82525050565b6000602082019050610b6b6000830184610b47565b92915050565b6000819050919050565b610b8481610b71565b8114610b8f57600080fd5b50565b600081359050610ba181610b7b565b92915050565b600060208284031215610bbd57610bbc610aac565b5b6000610bcb84828501610b92565b91505092915050565b600073ffffffffffffffffffffffffffffffffffffffff82169050919050565b6000610bff82610bd4565b9050919050565b610c0f81610bf4565b82525050565b610c1e81610b71565b82525050565b6000604082019050610c396000830185610c06565b610c466020830184610c15565b9392505050565b60008060408385031215610c6457610c63610aac565b5b6000610c7285828601610b92565b9250506020610c8385828601610b92565b9150509250929050565b6000602082019050610ca26000830184610c06565b92915050565b610cb181610bf4565b8114610cbc57600080fd5b50565b600081359050610cce81610ca8565b92915050565b600080fd5b6000601f19601f8301169050919050565b7f4e487b7100000000000000000000000000000000000000000000000000000000600052604160045260246000fd5b610d2282610cd9565b810181811067ffffffffffffffff82111715610d4157610d40610cea565b5b80604052505050565b6000610d54610aa2565b9050610d608282610d19565b919050565b600067ffffffffffffffff821115610d8057610d7f610cea565b5b602082029050602081019050919050565b600080fd5b6000610da9610da484610d65565b610d4a565b90508083825260208201905060208402830185811115610dcc57610dcb610d91565b5b835b81811015610df55780610de18882610b92565b845260208401935050602081019050610dce565b5050509392505050565b600082601f830112610e1457610e13610cd4565b5b8135610e24848260208601610d96565b91505092915050565b600080fd5b600067ffffffffffffffff821115610e4d57610e4c610cea565b5b610e5682610cd9565b9050602081019050919050565b82818337600083830152505050565b6000610e85610e8084610e32565b610d4a565b905082815260208101848484011115610ea157610ea0610e2d565b5b610eac848285610e63565b509392505050565b600082601f830112610ec957610ec8610cd4565b5b8135610ed9848260208601610e72565b91505092915050565b600080600080600060a08688031215610efe57610efd610aac565b5b6000610f0c88828901610cbf565b9550506020610f1d88828901610cbf565b945050604086013567ffffffffffffffff811115610f3e57610f3d610ab1565b5b610f4a88828901610dff565b935050606086013567ffffffffffffffff811115610f6b57610f6a610ab1565b5b610f7788828901610dff565b925050608086013567ffffffffffffffff811115610f9857610f97610ab1565b5b610fa488828901610eb4565b9150509295509295909350565b610fba81610ab6565b82525050565b6000602082019050610fd56000830184610fb1565b92915050565b600080600080600060a08688031215610ff757610ff6610aac565b5b600061100588828901610cbf565b955050602061101688828901610cbf565b945050604061102788828901610b92565b935050606061103888828901610b92565b925050608086013567ffffffffffffffff81111561105957611058610ab1565b5b61106588828901610eb4565b9150509295509295909350565b60006020828403121561108857611087610aac565b5b600061109684828501610cbf565b91505092915050565b600082825260208201905092915050565b7f4c6973743a20746865206c697374696e672070726963652068617320746f206260008201527f652067726561746572207468616e207a65726f00000000000000000000000000602082015250565b600061110c60338361109f565b9150611117826110b0565b604082019050919050565b6000602082019050818103600083015261113b816110ff565b9050919050565b6000819050919050565b6000819050919050565b600061117161116c61116784611142565b61114c565b610b71565b9050919050565b61118181611156565b82525050565b600082825260208201905092915050565b50565b60006111a8600083611187565b91506111b382611198565b600082019050919050565b600060a0820190506111d36000830187610c06565b6111e06020830186610c06565b6111ed6040830185610c15565b6111fa6060830184611178565b818103608083015261120b8161119b565b905095945050505050565b7f4f776e61626c653a2063616c6c6572206973206e6f7420746865206f776e6572600082015250565b600061124c60208361109f565b915061125782611216565b602082019050919050565b6000602082019050818103600083015261127b8161123f565b9050919050565b7f5265656e7472616e637947756172643a207265656e7472616e742063616c6c00600082015250565b60006112b8601f8361109f565b91506112c382611282565b602082019050919050565b600060208201905081810360008301526112e7816112ab565b9050919050565b7f4275793a20496e636f7272656374207072696365000000000000000000000000600082015250565b600061132460148361109f565b915061132f826112ee565b602082019050919050565b6000602082019050818103600083015261135381611317565b9050919050565b7f4275793a2042757965722063616e6e6f742062652073656c6c65720000000000600082015250565b6000611390601b8361109f565b915061139b8261135a565b602082019050919050565b600060208201905081810360008301526113bf81611383565b9050919050565b7f4f776e61626c653a206e6577206f776e657220697320746865207a65726f206160008201527f6464726573730000000000000000000000000000000000000000000000000000602082015250565b600061142260268361109f565b915061142d826113c6565b604082019050919050565b6000602082019050818103600083015261145181611415565b905091905056fea2646970667358221220180b8273c96838a96f83171a41c82309e67032f2a0faf5ecd9de046d18a08ef964736f6c634300080a0033","opcodes":"PUSH1 0x80 PUSH1 0x40 MSTORE CALLVALUE DUP1 ISZERO PUSH3 0x11 JUMPI PUSH1 0x0 DUP1 REVERT JUMPDEST POP PUSH1 0x40 MLOAD PUSH3 0x16AC CODESIZE SUB DUP1 PUSH3 0x16AC DUP4 CODECOPY DUP2 DUP2 ADD PUSH1 0x40 MSTORE DUP2 ADD SWAP1 PUSH3 0x37 SWAP2 SWAP1 PUSH3 0x1DC JUMP JUMPDEST PUSH3 0x57 PUSH3 0x4B PUSH3 0xA6 PUSH1 0x20 SHL PUSH1 0x20 SHR JUMP JUMPDEST PUSH3 0xAE PUSH1 0x20 SHL PUSH1 0x20 SHR JUMP JUMPDEST PUSH1 0x1 DUP1 DUP2 SWAP1 SSTORE POP DUP1 PUSH1 0x2 PUSH1 0x0 PUSH2 0x100 EXP DUP2 SLOAD DUP2 PUSH20 0xFFFFFFFFFFFFFFFFFFFFFFFFFFFFFFFFFFFFFFFF MUL NOT AND SWAP1 DUP4 PUSH20 0xFFFFFFFFFFFFFFFFFFFFFFFFFFFFFFFFFFFFFFFF AND MUL OR SWAP1 SSTORE POP POP PUSH3 0x20E JUMP JUMPDEST PUSH1 0x0 CALLER SWAP1 POP SWAP1 JUMP JUMPDEST PUSH1 0x0 DUP1 PUSH1 0x0 SWAP1 SLOAD SWAP1 PUSH2 0x100 EXP SWAP1 DIV PUSH20 0xFFFFFFFFFFFFFFFFFFFFFFFFFFFFFFFFFFFFFFFF AND SWAP1 POP DUP2 PUSH1 0x0 DUP1 PUSH2 0x100 EXP DUP2 SLOAD DUP2 PUSH20 0xFFFFFFFFFFFFFFFFFFFFFFFFFFFFFFFFFFFFFFFF MUL NOT AND SWAP1 DUP4 PUSH20 0xFFFFFFFFFFFFFFFFFFFFFFFFFFFFFFFFFFFFFFFF AND MUL OR SWAP1 SSTORE POP DUP2 PUSH20 0xFFFFFFFFFFFFFFFFFFFFFFFFFFFFFFFFFFFFFFFF AND DUP2 PUSH20 0xFFFFFFFFFFFFFFFFFFFFFFFFFFFFFFFFFFFFFFFF AND PUSH32 0x8BE0079C531659141344CD1FD0A4F28419497F9722A3DAAFE3B4186F6B6457E0 PUSH1 0x40 MLOAD PUSH1 0x40 MLOAD DUP1 SWAP2 SUB SWAP1 LOG3 POP POP JUMP JUMPDEST PUSH1 0x0 DUP1 REVERT JUMPDEST PUSH1 0x0 PUSH20 0xFFFFFFFFFFFFFFFFFFFFFFFFFFFFFFFFFFFFFFFF DUP3 AND SWAP1 POP SWAP2 SWAP1 POP JUMP JUMPDEST PUSH1 0x0 PUSH3 0x1A4 DUP3 PUSH3 0x177 JUMP JUMPDEST SWAP1 POP SWAP2 SWAP1 POP JUMP JUMPDEST PUSH3 0x1B6 DUP2 PUSH3 0x197 JUMP JUMPDEST DUP2 EQ PUSH3 0x1C2 JUMPI PUSH1 0x0 DUP1 REVERT JUMPDEST POP JUMP JUMPDEST PUSH1 0x0 DUP2 MLOAD SWAP1 POP PUSH3 0x1D6 DUP2 PUSH3 0x1AB JUMP JUMPDEST SWAP3 SWAP2 POP POP JUMP JUMPDEST PUSH1 0x0 PUSH1 0x20 DUP3 DUP5 SUB SLT ISZERO PUSH3 0x1F5 JUMPI PUSH3 0x1F4 PUSH3 0x172 JUMP JUMPDEST JUMPDEST PUSH1 0x0 PUSH3 0x205 DUP5 DUP3 DUP6 ADD PUSH3 0x1C5 JUMP JUMPDEST SWAP2 POP POP SWAP3 SWAP2 POP POP JUMP JUMPDEST PUSH2 0x148E DUP1 PUSH3 0x21E PUSH1 0x0 CODECOPY PUSH1 0x0 RETURN INVALID PUSH1 0x80 PUSH1 0x40 MSTORE PUSH1 0x4 CALLDATASIZE LT PUSH2 0x86 JUMPI PUSH1 0x0 CALLDATALOAD PUSH1 0xE0 SHR DUP1 PUSH4 0x8DA5CB5B GT PUSH2 0x59 JUMPI DUP1 PUSH4 0x8DA5CB5B EQ PUSH2 0x139 JUMPI DUP1 PUSH4 0xBC197C81 EQ PUSH2 0x164 JUMPI DUP1 PUSH4 0xF0090528 EQ PUSH2 0x1A1 JUMPI DUP1 PUSH4 0xF23A6E61 EQ PUSH2 0x1BD JUMPI DUP1 PUSH4 0xF2FDE38B EQ PUSH2 0x1FA JUMPI PUSH2 0x86 JUMP JUMPDEST DUP1 PUSH4 0x1FFC9A7 EQ PUSH2 0x8B JUMPI DUP1 PUSH4 0x598B2B53 EQ PUSH2 0xC8 JUMPI DUP1 PUSH4 0x6B4E0B01 EQ PUSH2 0x106 JUMPI DUP1 PUSH4 0x715018A6 EQ PUSH2 0x122 JUMPI JUMPDEST PUSH1 0x0 DUP1 REVERT JUMPDEST CALLVALUE DUP1 ISZERO PUSH2 0x97 JUMPI PUSH1 0x0 DUP1 REVERT JUMPDEST POP PUSH2 0xB2 PUSH1 0x4 DUP1 CALLDATASIZE SUB DUP2 ADD SWAP1 PUSH2 0xAD SWAP2 SWAP1 PUSH2 0xB0E JUMP JUMPDEST PUSH2 0x223 JUMP JUMPDEST PUSH1 0x40 MLOAD PUSH2 0xBF SWAP2 SWAP1 PUSH2 0xB56 JUMP JUMPDEST PUSH1 0x40 MLOAD DUP1 SWAP2 SUB SWAP1 RETURN JUMPDEST CALLVALUE DUP1 ISZERO PUSH2 0xD4 JUMPI PUSH1 0x0 DUP1 REVERT JUMPDEST POP PUSH2 0xEF PUSH1 0x4 DUP1 CALLDATASIZE SUB DUP2 ADD SWAP1 PUSH2 0xEA SWAP2 SWAP1 PUSH2 0xBA7 JUMP JUMPDEST PUSH2 0x29D JUMP JUMPDEST PUSH1 0x40 MLOAD PUSH2 0xFD SWAP3 SWAP2 SWAP1 PUSH2 0xC24 JUMP JUMPDEST PUSH1 0x40 MLOAD DUP1 SWAP2 SUB SWAP1 RETURN JUMPDEST PUSH2 0x120 PUSH1 0x4 DUP1 CALLDATASIZE SUB DUP2 ADD SWAP1 PUSH2 0x11B SWAP2 SWAP1 PUSH2 0xC4D JUMP JUMPDEST PUSH2 0x2E1 JUMP JUMPDEST STOP JUMPDEST CALLVALUE DUP1 ISZERO PUSH2 0x12E JUMPI PUSH1 0x0 DUP1 REVERT JUMPDEST POP PUSH2 0x137 PUSH2 0x44E JUMP JUMPDEST STOP JUMPDEST CALLVALUE DUP1 ISZERO PUSH2 0x145 JUMPI PUSH1 0x0 DUP1 REVERT JUMPDEST POP PUSH2 0x14E PUSH2 0x4D6 JUMP JUMPDEST PUSH1 0x40 MLOAD PUSH2 0x15B SWAP2 SWAP1 PUSH2 0xC8D JUMP JUMPDEST PUSH1 0x40 MLOAD DUP1 SWAP2 SUB SWAP1 RETURN JUMPDEST CALLVALUE DUP1 ISZERO PUSH2 0x170 JUMPI PUSH1 0x0 DUP1 REVERT JUMPDEST POP PUSH2 0x18B PUSH1 0x4 DUP1 CALLDATASIZE SUB DUP2 ADD SWAP1 PUSH2 0x186 SWAP2 SWAP1 PUSH2 0xEE2 JUMP JUMPDEST PUSH2 0x4FF JUMP JUMPDEST PUSH1 0x40 MLOAD PUSH2 0x198 SWAP2 SWAP1 PUSH2 0xFC0 JUMP JUMPDEST PUSH1 0x40 MLOAD DUP1 SWAP2 SUB SWAP1 RETURN JUMPDEST PUSH2 0x1BB PUSH1 0x4 DUP1 CALLDATASIZE SUB DUP2 ADD SWAP1 PUSH2 0x1B6 SWAP2 SWAP1 PUSH2 0xBA7 JUMP JUMPDEST PUSH2 0x514 JUMP JUMPDEST STOP JUMPDEST CALLVALUE DUP1 ISZERO PUSH2 0x1C9 JUMPI PUSH1 0x0 DUP1 REVERT JUMPDEST POP PUSH2 0x1E4 PUSH1 0x4 DUP1 CALLDATASIZE SUB DUP2 ADD SWAP1 PUSH2 0x1DF SWAP2 SWAP1 PUSH2 0xFDB JUMP JUMPDEST PUSH2 0x85F JUMP JUMPDEST PUSH1 0x40 MLOAD PUSH2 0x1F1 SWAP2 SWAP1 PUSH2 0xFC0 JUMP JUMPDEST PUSH1 0x40 MLOAD DUP1 SWAP2 SUB SWAP1 RETURN JUMPDEST CALLVALUE DUP1 ISZERO PUSH2 0x206 JUMPI PUSH1 0x0 DUP1 REVERT JUMPDEST POP PUSH2 0x221 PUSH1 0x4 DUP1 CALLDATASIZE SUB DUP2 ADD SWAP1 PUSH2 0x21C SWAP2 SWAP1 PUSH2 0x1072 JUMP JUMPDEST PUSH2 0x874 JUMP JUMPDEST STOP JUMPDEST PUSH1 0x0 PUSH32 0x4E2312E000000000000000000000000000000000000000000000000000000000 PUSH28 0xFFFFFFFFFFFFFFFFFFFFFFFFFFFFFFFFFFFFFFFFFFFFFFFFFFFFFFFF NOT AND DUP3 PUSH28 0xFFFFFFFFFFFFFFFFFFFFFFFFFFFFFFFFFFFFFFFFFFFFFFFFFFFFFFFF NOT AND EQ DUP1 PUSH2 0x296 JUMPI POP PUSH2 0x295 DUP3 PUSH2 0x96C JUMP JUMPDEST JUMPDEST SWAP1 POP SWAP2 SWAP1 POP JUMP JUMPDEST PUSH1 0x3 PUSH1 0x20 MSTORE DUP1 PUSH1 0x0 MSTORE PUSH1 0x40 PUSH1 0x0 KECCAK256 PUSH1 0x0 SWAP2 POP SWAP1 POP DUP1 PUSH1 0x0 ADD PUSH1 0x0 SWAP1 SLOAD SWAP1 PUSH2 0x100 EXP SWAP1 DIV PUSH20 0xFFFFFFFFFFFFFFFFFFFFFFFFFFFFFFFFFFFFFFFF AND SWAP1 DUP1 PUSH1 0x1 ADD SLOAD SWAP1 POP DUP3 JUMP JUMPDEST PUSH1 0x0 DUP2 GT PUSH2 0x324 JUMPI PUSH1 0x40 MLOAD PUSH32 0x8C379A000000000000000000000000000000000000000000000000000000000 DUP2 MSTORE PUSH1 0x4 ADD PUSH2 0x31B SWAP1 PUSH2 0x1122 JUMP JUMPDEST PUSH1 0x40 MLOAD DUP1 SWAP2 SUB SWAP1 REVERT JUMPDEST PUSH1 0x2 PUSH1 0x0 SWAP1 SLOAD SWAP1 PUSH2 0x100 EXP SWAP1 DIV PUSH20 0xFFFFFFFFFFFFFFFFFFFFFFFFFFFFFFFFFFFFFFFF AND PUSH20 0xFFFFFFFFFFFFFFFFFFFFFFFFFFFFFFFFFFFFFFFF AND PUSH4 0xF242432A CALLER ADDRESS DUP6 PUSH1 0x1 PUSH1 0x40 MLOAD DUP6 PUSH4 0xFFFFFFFF AND PUSH1 0xE0 SHL DUP2 MSTORE PUSH1 0x4 ADD PUSH2 0x386 SWAP5 SWAP4 SWAP3 SWAP2 SWAP1 PUSH2 0x11BE JUMP JUMPDEST PUSH1 0x0 PUSH1 0x40 MLOAD DUP1 DUP4 SUB DUP2 PUSH1 0x0 DUP8 DUP1 EXTCODESIZE ISZERO DUP1 ISZERO PUSH2 0x3A0 JUMPI PUSH1 0x0 DUP1 REVERT JUMPDEST POP GAS CALL ISZERO DUP1 ISZERO PUSH2 0x3B4 JUMPI RETURNDATASIZE PUSH1 0x0 DUP1 RETURNDATACOPY RETURNDATASIZE PUSH1 0x0 REVERT JUMPDEST POP POP POP POP PUSH1 0x40 MLOAD DUP1 PUSH1 0x40 ADD PUSH1 0x40 MSTORE DUP1 CALLER PUSH20 0xFFFFFFFFFFFFFFFFFFFFFFFFFFFFFFFFFFFFFFFF AND DUP2 MSTORE PUSH1 0x20 ADD DUP3 DUP2 MSTORE POP PUSH1 0x3 PUSH1 0x0 DUP5 DUP2 MSTORE PUSH1 0x20 ADD SWAP1 DUP2 MSTORE PUSH1 0x20 ADD PUSH1 0x0 KECCAK256 PUSH1 0x0 DUP3 ADD MLOAD DUP2 PUSH1 0x0 ADD PUSH1 0x0 PUSH2 0x100 EXP DUP2 SLOAD DUP2 PUSH20 0xFFFFFFFFFFFFFFFFFFFFFFFFFFFFFFFFFFFFFFFF MUL NOT AND SWAP1 DUP4 PUSH20 0xFFFFFFFFFFFFFFFFFFFFFFFFFFFFFFFFFFFFFFFF AND MUL OR SWAP1 SSTORE POP PUSH1 0x20 DUP3 ADD MLOAD DUP2 PUSH1 0x1 ADD SSTORE SWAP1 POP POP POP POP JUMP JUMPDEST PUSH2 0x456 PUSH2 0x9D6 JUMP JUMPDEST PUSH20 0xFFFFFFFFFFFFFFFFFFFFFFFFFFFFFFFFFFFFFFFF AND PUSH2 0x474 PUSH2 0x4D6 JUMP JUMPDEST PUSH20 0xFFFFFFFFFFFFFFFFFFFFFFFFFFFFFFFFFFFFFFFF AND EQ PUSH2 0x4CA JUMPI PUSH1 0x40 MLOAD PUSH32 0x8C379A000000000000000000000000000000000000000000000000000000000 DUP2 MSTORE PUSH1 0x4 ADD PUSH2 0x4C1 SWAP1 PUSH2 0x1262 JUMP JUMPDEST PUSH1 0x40 MLOAD DUP1 SWAP2 SUB SWAP1 REVERT JUMPDEST PUSH2 0x4D4 PUSH1 0x0 PUSH2 0x9DE JUMP JUMPDEST JUMP JUMPDEST PUSH1 0x0 DUP1 PUSH1 0x0 SWAP1 SLOAD SWAP1 PUSH2 0x100 EXP SWAP1 DIV PUSH20 0xFFFFFFFFFFFFFFFFFFFFFFFFFFFFFFFFFFFFFFFF AND SWAP1 POP SWAP1 JUMP JUMPDEST PUSH1 0x0 PUSH4 0xBC197C81 PUSH1 0xE0 SHL SWAP1 POP SWAP6 SWAP5 POP POP POP POP POP JUMP JUMPDEST PUSH1 0x2 PUSH1 0x1 SLOAD EQ ISZERO PUSH2 0x55A JUMPI PUSH1 0x40 MLOAD PUSH32 0x8C379A000000000000000000000000000000000000000000000000000000000 DUP2 MSTORE PUSH1 0x4 ADD PUSH2 0x551 SWAP1 PUSH2 0x12CE JUMP JUMPDEST PUSH1 0x40 MLOAD DUP1 SWAP2 SUB SWAP1 REVERT JUMPDEST PUSH1 0x2 PUSH1 0x1 DUP2 SWAP1 SSTORE POP PUSH1 0x0 PUSH1 0x3 PUSH1 0x0 DUP4 DUP2 MSTORE PUSH1 0x20 ADD SWAP1 DUP2 MSTORE PUSH1 0x20 ADD PUSH1 0x0 KECCAK256 PUSH1 0x40 MLOAD DUP1 PUSH1 0x40 ADD PUSH1 0x40 MSTORE SWAP1 DUP2 PUSH1 0x0 DUP3 ADD PUSH1 0x0 SWAP1 SLOAD SWAP1 PUSH2 0x100 EXP SWAP1 DIV PUSH20 0xFFFFFFFFFFFFFFFFFFFFFFFFFFFFFFFFFFFFFFFF AND PUSH20 0xFFFFFFFFFFFFFFFFFFFFFFFFFFFFFFFFFFFFFFFF AND PUSH20 0xFFFFFFFFFFFFFFFFFFFFFFFFFFFFFFFFFFFFFFFF AND DUP2 MSTORE PUSH1 0x20 ADD PUSH1 0x1 DUP3 ADD SLOAD DUP2 MSTORE POP POP SWAP1 POP DUP1 PUSH1 0x20 ADD MLOAD CALLVALUE EQ PUSH2 0x62A JUMPI PUSH1 0x40 MLOAD PUSH32 0x8C379A000000000000000000000000000000000000000000000000000000000 DUP2 MSTORE PUSH1 0x4 ADD PUSH2 0x621 SWAP1 PUSH2 0x133A JUMP JUMPDEST PUSH1 0x40 MLOAD DUP1 SWAP2 SUB SWAP1 REVERT JUMPDEST DUP1 PUSH1 0x0 ADD MLOAD PUSH20 0xFFFFFFFFFFFFFFFFFFFFFFFFFFFFFFFFFFFFFFFF AND CALLER PUSH20 0xFFFFFFFFFFFFFFFFFFFFFFFFFFFFFFFFFFFFFFFF AND EQ ISZERO PUSH2 0x69D JUMPI PUSH1 0x40 MLOAD PUSH32 0x8C379A000000000000000000000000000000000000000000000000000000000 DUP2 MSTORE PUSH1 0x4 ADD PUSH2 0x694 SWAP1 PUSH2 0x13A6 JUMP JUMPDEST PUSH1 0x40 MLOAD DUP1 SWAP2 SUB SWAP1 REVERT JUMPDEST PUSH1 0x2 PUSH1 0x0 SWAP1 SLOAD SWAP1 PUSH2 0x100 EXP SWAP1 DIV PUSH20 0xFFFFFFFFFFFFFFFFFFFFFFFFFFFFFFFFFFFFFFFF AND PUSH20 0xFFFFFFFFFFFFFFFFFFFFFFFFFFFFFFFFFFFFFFFF AND PUSH4 0xF242432A ADDRESS CALLER DUP6 PUSH1 0x1 PUSH1 0x40 MLOAD DUP6 PUSH4 0xFFFFFFFF AND PUSH1 0xE0 SHL DUP2 MSTORE PUSH1 0x4 ADD PUSH2 0x6FF SWAP5 SWAP4 SWAP3 SWAP2 SWAP1 PUSH2 0x11BE JUMP JUMPDEST PUSH1 0x0 PUSH1 0x40 MLOAD DUP1 DUP4 SUB DUP2 PUSH1 0x0 DUP8 DUP1 EXTCODESIZE ISZERO DUP1 ISZERO PUSH2 0x719 JUMPI PUSH1 0x0 DUP1 REVERT JUMPDEST POP GAS CALL ISZERO DUP1 ISZERO PUSH2 0x72D JUMPI RETURNDATASIZE PUSH1 0x0 DUP1 RETURNDATACOPY RETURNDATASIZE PUSH1 0x0 REVERT JUMPDEST POP POP POP POP PUSH1 0x3 PUSH1 0x0 DUP4 DUP2 MSTORE PUSH1 0x20 ADD SWAP1 DUP2 MSTORE PUSH1 0x20 ADD PUSH1 0x0 KECCAK256 PUSH1 0x0 DUP1 DUP3 ADD PUSH1 0x0 PUSH2 0x100 EXP DUP2 SLOAD SWAP1 PUSH20 0xFFFFFFFFFFFFFFFFFFFFFFFFFFFFFFFFFFFFFFFF MUL NOT AND SWAP1 SSTORE PUSH1 0x1 DUP3 ADD PUSH1 0x0 SWAP1 SSTORE POP POP DUP1 PUSH1 0x0 ADD MLOAD PUSH20 0xFFFFFFFFFFFFFFFFFFFFFFFFFFFFFFFFFFFFFFFF AND PUSH2 0x8FC CALLVALUE SWAP1 DUP2 ISZERO MUL SWAP1 PUSH1 0x40 MLOAD PUSH1 0x0 PUSH1 0x40 MLOAD DUP1 DUP4 SUB DUP2 DUP6 DUP9 DUP9 CALL SWAP4 POP POP POP POP ISZERO DUP1 ISZERO PUSH2 0x7C0 JUMPI RETURNDATASIZE PUSH1 0x0 DUP1 RETURNDATACOPY RETURNDATASIZE PUSH1 0x0 REVERT JUMPDEST POP PUSH1 0x40 MLOAD DUP1 PUSH1 0x40 ADD PUSH1 0x40 MSTORE DUP1 CALLER PUSH20 0xFFFFFFFFFFFFFFFFFFFFFFFFFFFFFFFFFFFFFFFF AND DUP2 MSTORE PUSH1 0x20 ADD PUSH1 0x0 DUP2 MSTORE POP PUSH1 0x3 PUSH1 0x0 DUP5 DUP2 MSTORE PUSH1 0x20 ADD SWAP1 DUP2 MSTORE PUSH1 0x20 ADD PUSH1 0x0 KECCAK256 PUSH1 0x0 DUP3 ADD MLOAD DUP2 PUSH1 0x0 ADD PUSH1 0x0 PUSH2 0x100 EXP DUP2 SLOAD DUP2 PUSH20 0xFFFFFFFFFFFFFFFFFFFFFFFFFFFFFFFFFFFFFFFF MUL NOT AND SWAP1 DUP4 PUSH20 0xFFFFFFFFFFFFFFFFFFFFFFFFFFFFFFFFFFFFFFFF AND MUL OR SWAP1 SSTORE POP PUSH1 0x20 DUP3 ADD MLOAD DUP2 PUSH1 0x1 ADD SSTORE SWAP1 POP POP POP PUSH1 0x1 DUP1 DUP2 SWAP1 SSTORE POP POP JUMP JUMPDEST PUSH1 0x0 PUSH4 0xF23A6E61 PUSH1 0xE0 SHL SWAP1 POP SWAP6 SWAP5 POP POP POP POP POP JUMP JUMPDEST PUSH2 0x87C PUSH2 0x9D6 JUMP JUMPDEST PUSH20 0xFFFFFFFFFFFFFFFFFFFFFFFFFFFFFFFFFFFFFFFF AND PUSH2 0x89A PUSH2 0x4D6 JUMP JUMPDEST PUSH20 0xFFFFFFFFFFFFFFFFFFFFFFFFFFFFFFFFFFFFFFFF AND EQ PUSH2 0x8F0 JUMPI PUSH1 0x40 MLOAD PUSH32 0x8C379A000000000000000000000000000000000000000000000000000000000 DUP2 MSTORE PUSH1 0x4 ADD PUSH2 0x8E7 SWAP1 PUSH2 0x1262 JUMP JUMPDEST PUSH1 0x40 MLOAD DUP1 SWAP2 SUB SWAP1 REVERT JUMPDEST PUSH1 0x0 PUSH20 0xFFFFFFFFFFFFFFFFFFFFFFFFFFFFFFFFFFFFFFFF AND DUP2 PUSH20 0xFFFFFFFFFFFFFFFFFFFFFFFFFFFFFFFFFFFFFFFF AND EQ ISZERO PUSH2 0x960 JUMPI PUSH1 0x40 MLOAD PUSH32 0x8C379A000000000000000000000000000000000000000000000000000000000 DUP2 MSTORE PUSH1 0x4 ADD PUSH2 0x957 SWAP1 PUSH2 0x1438 JUMP JUMPDEST PUSH1 0x40 MLOAD DUP1 SWAP2 SUB SWAP1 REVERT JUMPDEST PUSH2 0x969 DUP2 PUSH2 0x9DE JUMP JUMPDEST POP JUMP JUMPDEST PUSH1 0x0 PUSH32 0x1FFC9A700000000000000000000000000000000000000000000000000000000 PUSH28 0xFFFFFFFFFFFFFFFFFFFFFFFFFFFFFFFFFFFFFFFFFFFFFFFFFFFFFFFF NOT AND DUP3 PUSH28 0xFFFFFFFFFFFFFFFFFFFFFFFFFFFFFFFFFFFFFFFFFFFFFFFFFFFFFFFF NOT AND EQ SWAP1 POP SWAP2 SWAP1 POP JUMP JUMPDEST PUSH1 0x0 CALLER SWAP1 POP SWAP1 JUMP JUMPDEST PUSH1 0x0 DUP1 PUSH1 0x0 SWAP1 SLOAD SWAP1 PUSH2 0x100 EXP SWAP1 DIV PUSH20 0xFFFFFFFFFFFFFFFFFFFFFFFFFFFFFFFFFFFFFFFF AND SWAP1 POP DUP2 PUSH1 0x0 DUP1 PUSH2 0x100 EXP DUP2 SLOAD DUP2 PUSH20 0xFFFFFFFFFFFFFFFFFFFFFFFFFFFFFFFFFFFFFFFF MUL NOT AND SWAP1 DUP4 PUSH20 0xFFFFFFFFFFFFFFFFFFFFFFFFFFFFFFFFFFFFFFFF AND MUL OR SWAP1 SSTORE POP DUP2 PUSH20 0xFFFFFFFFFFFFFFFFFFFFFFFFFFFFFFFFFFFFFFFF AND DUP2 PUSH20 0xFFFFFFFFFFFFFFFFFFFFFFFFFFFFFFFFFFFFFFFF AND PUSH32 0x8BE0079C531659141344CD1FD0A4F28419497F9722A3DAAFE3B4186F6B6457E0 PUSH1 0x40 MLOAD PUSH1 0x40 MLOAD DUP1 SWAP2 SUB SWAP1 LOG3 POP POP JUMP JUMPDEST PUSH1 0x0 PUSH1 0x40 MLOAD SWAP1 POP SWAP1 JUMP JUMPDEST PUSH1 0x0 DUP1 REVERT JUMPDEST PUSH1 0x0 DUP1 REVERT JUMPDEST PUSH1 0x0 PUSH32 0xFFFFFFFF00000000000000000000000000000000000000000000000000000000 DUP3 AND SWAP1 POP SWAP2 SWAP1 POP JUMP JUMPDEST PUSH2 0xAEB DUP2 PUSH2 0xAB6 JUMP JUMPDEST DUP2 EQ PUSH2 0xAF6 JUMPI PUSH1 0x0 DUP1 REVERT JUMPDEST POP JUMP JUMPDEST PUSH1 0x0 DUP2 CALLDATALOAD SWAP1 POP PUSH2 0xB08 DUP2 PUSH2 0xAE2 JUMP JUMPDEST SWAP3 SWAP2 POP POP JUMP JUMPDEST PUSH1 0x0 PUSH1 0x20 DUP3 DUP5 SUB SLT ISZERO PUSH2 0xB24 JUMPI PUSH2 0xB23 PUSH2 0xAAC JUMP JUMPDEST JUMPDEST PUSH1 0x0 PUSH2 0xB32 DUP5 DUP3 DUP6 ADD PUSH2 0xAF9 JUMP JUMPDEST SWAP2 POP POP SWAP3 SWAP2 POP POP JUMP JUMPDEST PUSH1 0x0 DUP2 ISZERO ISZERO SWAP1 POP SWAP2 SWAP1 POP JUMP JUMPDEST PUSH2 0xB50 DUP2 PUSH2 0xB3B JUMP JUMPDEST DUP3 MSTORE POP POP JUMP JUMPDEST PUSH1 0x0 PUSH1 0x20 DUP3 ADD SWAP1 POP PUSH2 0xB6B PUSH1 0x0 DUP4 ADD DUP5 PUSH2 0xB47 JUMP JUMPDEST SWAP3 SWAP2 POP POP JUMP JUMPDEST PUSH1 0x0 DUP2 SWAP1 POP SWAP2 SWAP1 POP JUMP JUMPDEST PUSH2 0xB84 DUP2 PUSH2 0xB71 JUMP JUMPDEST DUP2 EQ PUSH2 0xB8F JUMPI PUSH1 0x0 DUP1 REVERT JUMPDEST POP JUMP JUMPDEST PUSH1 0x0 DUP2 CALLDATALOAD SWAP1 POP PUSH2 0xBA1 DUP2 PUSH2 0xB7B JUMP JUMPDEST SWAP3 SWAP2 POP POP JUMP JUMPDEST PUSH1 0x0 PUSH1 0x20 DUP3 DUP5 SUB SLT ISZERO PUSH2 0xBBD JUMPI PUSH2 0xBBC PUSH2 0xAAC JUMP JUMPDEST JUMPDEST PUSH1 0x0 PUSH2 0xBCB DUP5 DUP3 DUP6 ADD PUSH2 0xB92 JUMP JUMPDEST SWAP2 POP POP SWAP3 SWAP2 POP POP JUMP JUMPDEST PUSH1 0x0 PUSH20 0xFFFFFFFFFFFFFFFFFFFFFFFFFFFFFFFFFFFFFFFF DUP3 AND SWAP1 POP SWAP2 SWAP1 POP JUMP JUMPDEST PUSH1 0x0 PUSH2 0xBFF DUP3 PUSH2 0xBD4 JUMP JUMPDEST SWAP1 POP SWAP2 SWAP1 POP JUMP JUMPDEST PUSH2 0xC0F DUP2 PUSH2 0xBF4 JUMP JUMPDEST DUP3 MSTORE POP POP JUMP JUMPDEST PUSH2 0xC1E DUP2 PUSH2 0xB71 JUMP JUMPDEST DUP3 MSTORE POP POP JUMP JUMPDEST PUSH1 0x0 PUSH1 0x40 DUP3 ADD SWAP1 POP PUSH2 0xC39 PUSH1 0x0 DUP4 ADD DUP6 PUSH2 0xC06 JUMP JUMPDEST PUSH2 0xC46 PUSH1 0x20 DUP4 ADD DUP5 PUSH2 0xC15 JUMP JUMPDEST SWAP4 SWAP3 POP POP POP JUMP JUMPDEST PUSH1 0x0 DUP1 PUSH1 0x40 DUP4 DUP6 SUB SLT ISZERO PUSH2 0xC64 JUMPI PUSH2 0xC63 PUSH2 0xAAC JUMP JUMPDEST JUMPDEST PUSH1 0x0 PUSH2 0xC72 DUP6 DUP3 DUP7 ADD PUSH2 0xB92 JUMP JUMPDEST SWAP3 POP POP PUSH1 0x20 PUSH2 0xC83 DUP6 DUP3 DUP7 ADD PUSH2 0xB92 JUMP JUMPDEST SWAP2 POP POP SWAP3 POP SWAP3 SWAP1 POP JUMP JUMPDEST PUSH1 0x0 PUSH1 0x20 DUP3 ADD SWAP1 POP PUSH2 0xCA2 PUSH1 0x0 DUP4 ADD DUP5 PUSH2 0xC06 JUMP JUMPDEST SWAP3 SWAP2 POP POP JUMP JUMPDEST PUSH2 0xCB1 DUP2 PUSH2 0xBF4 JUMP JUMPDEST DUP2 EQ PUSH2 0xCBC JUMPI PUSH1 0x0 DUP1 REVERT JUMPDEST POP JUMP JUMPDEST PUSH1 0x0 DUP2 CALLDATALOAD SWAP1 POP PUSH2 0xCCE DUP2 PUSH2 0xCA8 JUMP JUMPDEST SWAP3 SWAP2 POP POP JUMP JUMPDEST PUSH1 0x0 DUP1 REVERT JUMPDEST PUSH1 0x0 PUSH1 0x1F NOT PUSH1 0x1F DUP4 ADD AND SWAP1 POP SWAP2 SWAP1 POP JUMP JUMPDEST PUSH32 0x4E487B7100000000000000000000000000000000000000000000000000000000 PUSH1 0x0 MSTORE PUSH1 0x41 PUSH1 0x4 MSTORE PUSH1 0x24 PUSH1 0x0 REVERT JUMPDEST PUSH2 0xD22 DUP3 PUSH2 0xCD9 JUMP JUMPDEST DUP2 ADD DUP2 DUP2 LT PUSH8 0xFFFFFFFFFFFFFFFF DUP3 GT OR ISZERO PUSH2 0xD41 JUMPI PUSH2 0xD40 PUSH2 0xCEA JUMP JUMPDEST JUMPDEST DUP1 PUSH1 0x40 MSTORE POP POP POP JUMP JUMPDEST PUSH1 0x0 PUSH2 0xD54 PUSH2 0xAA2 JUMP JUMPDEST SWAP1 POP PUSH2 0xD60 DUP3 DUP3 PUSH2 0xD19 JUMP JUMPDEST SWAP2 SWAP1 POP JUMP JUMPDEST PUSH1 0x0 PUSH8 0xFFFFFFFFFFFFFFFF DUP3 GT ISZERO PUSH2 0xD80 JUMPI PUSH2 0xD7F PUSH2 0xCEA JUMP JUMPDEST JUMPDEST PUSH1 0x20 DUP3 MUL SWAP1 POP PUSH1 0x20 DUP2 ADD SWAP1 POP SWAP2 SWAP1 POP JUMP JUMPDEST PUSH1 0x0 DUP1 REVERT JUMPDEST PUSH1 0x0 PUSH2 0xDA9 PUSH2 0xDA4 DUP5 PUSH2 0xD65 JUMP JUMPDEST PUSH2 0xD4A JUMP JUMPDEST SWAP1 POP DUP1 DUP4 DUP3 MSTORE PUSH1 0x20 DUP3 ADD SWAP1 POP PUSH1 0x20 DUP5 MUL DUP4 ADD DUP6 DUP2 GT ISZERO PUSH2 0xDCC JUMPI PUSH2 0xDCB PUSH2 0xD91 JUMP JUMPDEST JUMPDEST DUP4 JUMPDEST DUP2 DUP2 LT ISZERO PUSH2 0xDF5 JUMPI DUP1 PUSH2 0xDE1 DUP9 DUP3 PUSH2 0xB92 JUMP JUMPDEST DUP5 MSTORE PUSH1 0x20 DUP5 ADD SWAP4 POP POP PUSH1 0x20 DUP2 ADD SWAP1 POP PUSH2 0xDCE JUMP JUMPDEST POP POP POP SWAP4 SWAP3 POP POP POP JUMP JUMPDEST PUSH1 0x0 DUP3 PUSH1 0x1F DUP4 ADD SLT PUSH2 0xE14 JUMPI PUSH2 0xE13 PUSH2 0xCD4 JUMP JUMPDEST JUMPDEST DUP2 CALLDATALOAD PUSH2 0xE24 DUP5 DUP3 PUSH1 0x20 DUP7 ADD PUSH2 0xD96 JUMP JUMPDEST SWAP2 POP POP SWAP3 SWAP2 POP POP JUMP JUMPDEST PUSH1 0x0 DUP1 REVERT JUMPDEST PUSH1 0x0 PUSH8 0xFFFFFFFFFFFFFFFF DUP3 GT ISZERO PUSH2 0xE4D JUMPI PUSH2 0xE4C PUSH2 0xCEA JUMP JUMPDEST JUMPDEST PUSH2 0xE56 DUP3 PUSH2 0xCD9 JUMP JUMPDEST SWAP1 POP PUSH1 0x20 DUP2 ADD SWAP1 POP SWAP2 SWAP1 POP JUMP JUMPDEST DUP3 DUP2 DUP4 CALLDATACOPY PUSH1 0x0 DUP4 DUP4 ADD MSTORE POP POP POP JUMP JUMPDEST PUSH1 0x0 PUSH2 0xE85 PUSH2 0xE80 DUP5 PUSH2 0xE32 JUMP JUMPDEST PUSH2 0xD4A JUMP JUMPDEST SWAP1 POP DUP3 DUP2 MSTORE PUSH1 0x20 DUP2 ADD DUP5 DUP5 DUP5 ADD GT ISZERO PUSH2 0xEA1 JUMPI PUSH2 0xEA0 PUSH2 0xE2D JUMP JUMPDEST JUMPDEST PUSH2 0xEAC DUP5 DUP3 DUP6 PUSH2 0xE63 JUMP JUMPDEST POP SWAP4 SWAP3 POP POP POP JUMP JUMPDEST PUSH1 0x0 DUP3 PUSH1 0x1F DUP4 ADD SLT PUSH2 0xEC9 JUMPI PUSH2 0xEC8 PUSH2 0xCD4 JUMP JUMPDEST JUMPDEST DUP2 CALLDATALOAD PUSH2 0xED9 DUP5 DUP3 PUSH1 0x20 DUP7 ADD PUSH2 0xE72 JUMP JUMPDEST SWAP2 POP POP SWAP3 SWAP2 POP POP JUMP JUMPDEST PUSH1 0x0 DUP1 PUSH1 0x0 DUP1 PUSH1 0x0 PUSH1 0xA0 DUP7 DUP9 SUB SLT ISZERO PUSH2 0xEFE JUMPI PUSH2 0xEFD PUSH2 0xAAC JUMP JUMPDEST JUMPDEST PUSH1 0x0 PUSH2 0xF0C DUP9 DUP3 DUP10 ADD PUSH2 0xCBF JUMP JUMPDEST SWAP6 POP POP PUSH1 0x20 PUSH2 0xF1D DUP9 DUP3 DUP10 ADD PUSH2 0xCBF JUMP JUMPDEST SWAP5 POP POP PUSH1 0x40 DUP7 ADD CALLDATALOAD PUSH8 0xFFFFFFFFFFFFFFFF DUP2 GT ISZERO PUSH2 0xF3E JUMPI PUSH2 0xF3D PUSH2 0xAB1 JUMP JUMPDEST JUMPDEST PUSH2 0xF4A DUP9 DUP3 DUP10 ADD PUSH2 0xDFF JUMP JUMPDEST SWAP4 POP POP PUSH1 0x60 DUP7 ADD CALLDATALOAD PUSH8 0xFFFFFFFFFFFFFFFF DUP2 GT ISZERO PUSH2 0xF6B JUMPI PUSH2 0xF6A PUSH2 0xAB1 JUMP JUMPDEST JUMPDEST PUSH2 0xF77 DUP9 DUP3 DUP10 ADD PUSH2 0xDFF JUMP JUMPDEST SWAP3 POP POP PUSH1 0x80 DUP7 ADD CALLDATALOAD PUSH8 0xFFFFFFFFFFFFFFFF DUP2 GT ISZERO PUSH2 0xF98 JUMPI PUSH2 0xF97 PUSH2 0xAB1 JUMP JUMPDEST JUMPDEST PUSH2 0xFA4 DUP9 DUP3 DUP10 ADD PUSH2 0xEB4 JUMP JUMPDEST SWAP2 POP POP SWAP3 SWAP6 POP SWAP3 SWAP6 SWAP1 SWAP4 POP JUMP JUMPDEST PUSH2 0xFBA DUP2 PUSH2 0xAB6 JUMP JUMPDEST DUP3 MSTORE POP POP JUMP JUMPDEST PUSH1 0x0 PUSH1 0x20 DUP3 ADD SWAP1 POP PUSH2 0xFD5 PUSH1 0x0 DUP4 ADD DUP5 PUSH2 0xFB1 JUMP JUMPDEST SWAP3 SWAP2 POP POP JUMP JUMPDEST PUSH1 0x0 DUP1 PUSH1 0x0 DUP1 PUSH1 0x0 PUSH1 0xA0 DUP7 DUP9 SUB SLT ISZERO PUSH2 0xFF7 JUMPI PUSH2 0xFF6 PUSH2 0xAAC JUMP JUMPDEST JUMPDEST PUSH1 0x0 PUSH2 0x1005 DUP9 DUP3 DUP10 ADD PUSH2 0xCBF JUMP JUMPDEST SWAP6 POP POP PUSH1 0x20 PUSH2 0x1016 DUP9 DUP3 DUP10 ADD PUSH2 0xCBF JUMP JUMPDEST SWAP5 POP POP PUSH1 0x40 PUSH2 0x1027 DUP9 DUP3 DUP10 ADD PUSH2 0xB92 JUMP JUMPDEST SWAP4 POP POP PUSH1 0x60 PUSH2 0x1038 DUP9 DUP3 DUP10 ADD PUSH2 0xB92 JUMP JUMPDEST SWAP3 POP POP PUSH1 0x80 DUP7 ADD CALLDATALOAD PUSH8 0xFFFFFFFFFFFFFFFF DUP2 GT ISZERO PUSH2 0x1059 JUMPI PUSH2 0x1058 PUSH2 0xAB1 JUMP JUMPDEST JUMPDEST PUSH2 0x1065 DUP9 DUP3 DUP10 ADD PUSH2 0xEB4 JUMP JUMPDEST SWAP2 POP POP SWAP3 SWAP6 POP SWAP3 SWAP6 SWAP1 SWAP4 POP JUMP JUMPDEST PUSH1 0x0 PUSH1 0x20 DUP3 DUP5 SUB SLT ISZERO PUSH2 0x1088 JUMPI PUSH2 0x1087 PUSH2 0xAAC JUMP JUMPDEST JUMPDEST PUSH1 0x0 PUSH2 0x1096 DUP5 DUP3 DUP6 ADD PUSH2 0xCBF JUMP JUMPDEST SWAP2 POP POP SWAP3 SWAP2 POP POP JUMP JUMPDEST PUSH1 0x0 DUP3 DUP3 MSTORE PUSH1 0x20 DUP3 ADD SWAP1 POP SWAP3 SWAP2 POP POP JUMP JUMPDEST PUSH32 0x4C6973743A20746865206C697374696E672070726963652068617320746F2062 PUSH1 0x0 DUP3 ADD MSTORE PUSH32 0x652067726561746572207468616E207A65726F00000000000000000000000000 PUSH1 0x20 DUP3 ADD MSTORE POP JUMP JUMPDEST PUSH1 0x0 PUSH2 0x110C PUSH1 0x33 DUP4 PUSH2 0x109F JUMP JUMPDEST SWAP2 POP PUSH2 0x1117 DUP3 PUSH2 0x10B0 JUMP JUMPDEST PUSH1 0x40 DUP3 ADD SWAP1 POP SWAP2 SWAP1 POP JUMP JUMPDEST PUSH1 0x0 PUSH1 0x20 DUP3 ADD SWAP1 POP DUP2 DUP2 SUB PUSH1 0x0 DUP4 ADD MSTORE PUSH2 0x113B DUP2 PUSH2 0x10FF JUMP JUMPDEST SWAP1 POP SWAP2 SWAP1 POP JUMP JUMPDEST PUSH1 0x0 DUP2 SWAP1 POP SWAP2 SWAP1 POP JUMP JUMPDEST PUSH1 0x0 DUP2 SWAP1 POP SWAP2 SWAP1 POP JUMP JUMPDEST PUSH1 0x0 PUSH2 0x1171 PUSH2 0x116C PUSH2 0x1167 DUP5 PUSH2 0x1142 JUMP JUMPDEST PUSH2 0x114C JUMP JUMPDEST PUSH2 0xB71 JUMP JUMPDEST SWAP1 POP SWAP2 SWAP1 POP JUMP JUMPDEST PUSH2 0x1181 DUP2 PUSH2 0x1156 JUMP JUMPDEST DUP3 MSTORE POP POP JUMP JUMPDEST PUSH1 0x0 DUP3 DUP3 MSTORE PUSH1 0x20 DUP3 ADD SWAP1 POP SWAP3 SWAP2 POP POP JUMP JUMPDEST POP JUMP JUMPDEST PUSH1 0x0 PUSH2 0x11A8 PUSH1 0x0 DUP4 PUSH2 0x1187 JUMP JUMPDEST SWAP2 POP PUSH2 0x11B3 DUP3 PUSH2 0x1198 JUMP JUMPDEST PUSH1 0x0 DUP3 ADD SWAP1 POP SWAP2 SWAP1 POP JUMP JUMPDEST PUSH1 0x0 PUSH1 0xA0 DUP3 ADD SWAP1 POP PUSH2 0x11D3 PUSH1 0x0 DUP4 ADD DUP8 PUSH2 0xC06 JUMP JUMPDEST PUSH2 0x11E0 PUSH1 0x20 DUP4 ADD DUP7 PUSH2 0xC06 JUMP JUMPDEST PUSH2 0x11ED PUSH1 0x40 DUP4 ADD DUP6 PUSH2 0xC15 JUMP JUMPDEST PUSH2 0x11FA PUSH1 0x60 DUP4 ADD DUP5 PUSH2 0x1178 JUMP JUMPDEST DUP2 DUP2 SUB PUSH1 0x80 DUP4 ADD MSTORE PUSH2 0x120B DUP2 PUSH2 0x119B JUMP JUMPDEST SWAP1 POP SWAP6 SWAP5 POP POP POP POP POP JUMP JUMPDEST PUSH32 0x4F776E61626C653A2063616C6C6572206973206E6F7420746865206F776E6572 PUSH1 0x0 DUP3 ADD MSTORE POP JUMP JUMPDEST PUSH1 0x0 PUSH2 0x124C PUSH1 0x20 DUP4 PUSH2 0x109F JUMP JUMPDEST SWAP2 POP PUSH2 0x1257 DUP3 PUSH2 0x1216 JUMP JUMPDEST PUSH1 0x20 DUP3 ADD SWAP1 POP SWAP2 SWAP1 POP JUMP JUMPDEST PUSH1 0x0 PUSH1 0x20 DUP3 ADD SWAP1 POP DUP2 DUP2 SUB PUSH1 0x0 DUP4 ADD MSTORE PUSH2 0x127B DUP2 PUSH2 0x123F JUMP JUMPDEST SWAP1 POP SWAP2 SWAP1 POP JUMP JUMPDEST PUSH32 0x5265656E7472616E637947756172643A207265656E7472616E742063616C6C00 PUSH1 0x0 DUP3 ADD MSTORE POP JUMP JUMPDEST PUSH1 0x0 PUSH2 0x12B8 PUSH1 0x1F DUP4 PUSH2 0x109F JUMP JUMPDEST SWAP2 POP PUSH2 0x12C3 DUP3 PUSH2 0x1282 JUMP JUMPDEST PUSH1 0x20 DUP3 ADD SWAP1 POP SWAP2 SWAP1 POP JUMP JUMPDEST PUSH1 0x0 PUSH1 0x20 DUP3 ADD SWAP1 POP DUP2 DUP2 SUB PUSH1 0x0 DUP4 ADD MSTORE PUSH2 0x12E7 DUP2 PUSH2 0x12AB JUMP JUMPDEST SWAP1 POP SWAP2 SWAP1 POP JUMP JUMPDEST PUSH32 0x4275793A20496E636F7272656374207072696365000000000000000000000000 PUSH1 0x0 DUP3 ADD MSTORE POP JUMP JUMPDEST PUSH1 0x0 PUSH2 0x1324 PUSH1 0x14 DUP4 PUSH2 0x109F JUMP JUMPDEST SWAP2 POP PUSH2 0x132F DUP3 PUSH2 0x12EE JUMP JUMPDEST PUSH1 0x20 DUP3 ADD SWAP1 POP SWAP2 SWAP1 POP JUMP JUMPDEST PUSH1 0x0 PUSH1 0x20 DUP3 ADD SWAP1 POP DUP2 DUP2 SUB PUSH1 0x0 DUP4 ADD MSTORE PUSH2 0x1353 DUP2 PUSH2 0x1317 JUMP JUMPDEST SWAP1 POP SWAP2 SWAP1 POP JUMP JUMPDEST PUSH32 0x4275793A2042757965722063616E6E6F742062652073656C6C65720000000000 PUSH1 0x0 DUP3 ADD MSTORE POP JUMP JUMPDEST PUSH1 0x0 PUSH2 0x1390 PUSH1 0x1B DUP4 PUSH2 0x109F JUMP JUMPDEST SWAP2 POP PUSH2 0x139B DUP3 PUSH2 0x135A JUMP JUMPDEST PUSH1 0x20 DUP3 ADD SWAP1 POP SWAP2 SWAP1 POP JUMP JUMPDEST PUSH1 0x0 PUSH1 0x20 DUP3 ADD SWAP1 POP DUP2 DUP2 SUB PUSH1 0x0 DUP4 ADD MSTORE PUSH2 0x13BF DUP2 PUSH2 0x1383 JUMP JUMPDEST SWAP1 POP SWAP2 SWAP1 POP JUMP JUMPDEST PUSH32 0x4F776E61626C653A206E6577206F776E657220697320746865207A65726F2061 PUSH1 0x0 DUP3 ADD MSTORE PUSH32 0x6464726573730000000000000000000000000000000000000000000000000000 PUSH1 0x20 DUP3 ADD MSTORE POP JUMP JUMPDEST PUSH1 0x0 PUSH2 0x1422 PUSH1 0x26 DUP4 PUSH2 0x109F JUMP JUMPDEST SWAP2 POP PUSH2 0x142D DUP3 PUSH2 0x13C6 JUMP JUMPDEST PUSH1 0x40 DUP3 ADD SWAP1 POP SWAP2 SWAP1 POP JUMP JUMPDEST PUSH1 0x0 PUSH1 0x20 DUP3 ADD SWAP1 POP DUP2 DUP2 SUB PUSH1 0x0 DUP4 ADD MSTORE PUSH2 0x1451 DUP2 PUSH2 0x1415 JUMP JUMPDEST SWAP1 POP SWAP2 SWAP1 POP JUMP INVALID LOG2 PUSH5 0x6970667358 0x22 SLT KECCAK256 XOR SIGNEXTEND DUP3 PUSH20 0xC96838A96F83171A41C82309E67032F2A0FAF5EC 0xD9 0xDE DIV PUSH14 0x18A08EF964736F6C634300080A00 CALLER "},"gasEstimates":{"creation":{"codeDepositCost":"1052400","executionCost":"infinite","totalCost":"infinite"},"external":{"_listingDetails(uint256)":"infinite","buy_asset(uint256)":"infinite","list_asset(uint256,uint256)":"infinite","onERC1155BatchReceived(address,address,uint256[],uint256[],bytes)":"infinite","onERC1155Received(address,address,uint256,uint256,bytes)":"infinite","owner()":"2522","renounceOwnership()":"30441","supportsInterface(bytes4)":"728","transferOwnership(address)":"30811"}},"methodIdentifiers":{"_listingDetails(uint256)":"598b2b53","buy_asset(uint256)":"f0090528","list_asset(uint256,uint256)":"6b4e0b01","onERC1155BatchReceived(address,address,uint256[],uint256[],bytes)":"bc197c81","onERC1155Received(address,address,uint256,uint256,bytes)":"f23a6e61","owner()":"8da5cb5b","renounceOwnership()":"715018a6","supportsInterface(bytes4)":"01ffc9a7","transferOwnership(address)":"f2fde38b"}},"storageLayout":{"storage":[{"astId":566,"contract":"Marketplace.sol:Marketplace","label":"_owner","offset":0,"slot":"0","type":"t_address"},{"astId":9,"contract":"Marketplace.sol:Marketplace","label":"_status","offset":0,"slot":"1","type":"t_uint256"},{"astId":1838,"contract":"Marketplace.sol:Marketplace","label":"NFT_address","offset":0,"slot":"2","type":"t_address_payable"},{"astId":1843,"contract":"Marketplace.sol:Marketplace","label":"_listingDetails","offset":0,"slot":"3","type":"t_mapping(t_uint256,t_struct(Listing)1861_storage)"}],"types":{"t_address":{"encoding":"inplace","label":"address","numberOfBytes":"20"},"t_address_payable":{"encoding":"inplace","label":"address payable","numberOfBytes":"20"},"t_mapping(t_uint256,t_struct(Listing)1861_storage)":{"encoding":"mapping","key":"t_uint256","label":"mapping(uint256 => struct Marketplace.Listing)","numberOfBytes":"32","value":"t_struct(Listing)1861_storage"},"t_struct(Listing)1861_storage":{"encoding":"inplace","label":"struct Marketplace.Listing","members":[{"astId":1858,"contract":"Marketplace.sol:Marketplace","label":"seller","offset":0,"slot":"0","type":"t_address"},{"astId":1860,"contract":"Marketplace.sol:Marketplace","label":"price","offset":0,"slot":"1","type":"t_uint256"}],"numberOfBytes":"64"},"t_uint256":{"encoding":"inplace","label":"uint256","numberOfBytes":"32"}}},"userdoc":{"kind":"user","methods":{},"version":1}}